{
  "contractName": "ApplicationOracle",
  "abi": [
    {
      "inputs": [
        {
          "name": "registryAddr",
          "type": "address"
        }
      ],
      "payable": false,
      "stateMutability": "nonpayable",
      "type": "constructor"
    },
    {
      "anonymous": false,
      "inputs": [
        {
          "indexed": false,
          "name": "index",
          "type": "uint256"
        },
        {
          "indexed": false,
          "name": "name",
          "type": "string"
        },
        {
          "indexed": false,
          "name": "owner",
          "type": "address"
        },
        {
          "indexed": false,
          "name": "url",
          "type": "string"
        },
        {
          "indexed": false,
          "name": "appAddr",
          "type": "address"
        },
        {
          "indexed": false,
          "name": "status",
          "type": "uint256"
        }
      ],
      "name": "ApplicationRegistered",
      "type": "event"
    },
    {
      "constant": false,
      "inputs": [
        {
          "name": "index",
          "type": "uint256"
        },
        {
          "name": "name",
          "type": "string"
        },
        {
          "name": "owner",
          "type": "address"
        },
        {
          "name": "url",
          "type": "string"
        },
        {
          "name": "appAddr",
          "type": "address"
        },
        {
          "name": "status",
          "type": "uint256"
        }
      ],
      "name": "register",
      "outputs": [],
      "payable": false,
      "stateMutability": "nonpayable",
      "type": "function"
    }
  ],
  "bytecode": "0x608060405234801561001057600080fd5b506040516020806104bb833981018060405281019080805190602001909291905050508060008173ffffffffffffffffffffffffffffffffffffffff16141515156100c3576040517f08c379a00000000000000000000000000000000000000000000000000000000081526004018080602001828103825260168152602001807f53797374656d2073746174652076696f6c6174696f6e0000000000000000000081525060200191505060405180910390fd5b806000806101000a81548173ffffffffffffffffffffffffffffffffffffffff021916908373ffffffffffffffffffffffffffffffffffffffff1602179055506000809054906101000a900473ffffffffffffffffffffffffffffffffffffffff1673ffffffffffffffffffffffffffffffffffffffff16631e59c529610157610261640100000000026401000000009004565b306040518363ffffffff167c010000000000000000000000000000000000000000000000000000000002815260040180806020018373ffffffffffffffffffffffffffffffffffffffff1673ffffffffffffffffffffffffffffffffffffffff168152602001828103825284818151815260200191508051906020019080838360005b838110156101f55780820151818401526020810190506101da565b50505050905090810190601f1680156102225780820380516001836020036101000a031916815260200191505b509350505050600060405180830381600087803b15801561024257600080fd5b505af1158015610256573d6000803e3d6000fd5b50505050505061029e565b60606040805190810160405280601281526020017f6170706c69636174696f6e2d6f7261636c650000000000000000000000000000815250905090565b61020e806102ad6000396000f300608060405260043610610041576000357c0100000000000000000000000000000000000000000000000000000000900463ffffffff1680639d15b34214610046575b600080fd5b34801561005257600080fd5b506100eb60048036038101908080359060200190929190803590602001908201803590602001919091929391929390803573ffffffffffffffffffffffffffffffffffffffff169060200190929190803590602001908201803590602001919091929391929390803573ffffffffffffffffffffffffffffffffffffffff169060200190929190803590602001909291905050506100ed565b005b7f21e1da604872ac95090dc6032a3bfbbc3a0c85d2767ade72510241c5d2d4720e888888888888888860405180898152602001806020018773ffffffffffffffffffffffffffffffffffffffff1673ffffffffffffffffffffffffffffffffffffffff168152602001806020018573ffffffffffffffffffffffffffffffffffffffff1673ffffffffffffffffffffffffffffffffffffffff16815260200184815260200183810383528a8a828181526020019250808284378201915050838103825287878281815260200192508082843782019150509a505050505050505050505060405180910390a150505050505050505600a165627a7a723058200da96476d33ef02ebb5c3309e4daa3c443c6687362455e0d12b6dc4223df4adb0029",
  "source": "pragma solidity 0.4.24;\n\nimport \"../registry/RegistryComponent.sol\";\n\ncontract ApplicationOracle is RegistryComponent {\n\n    event ApplicationRegistered(uint256 index, string name, address owner, string url, address appAddr, uint256 status);\n\n    string constant COMPONENT_NAME = \"application-oracle\";\n\n    constructor(address registryAddr) RegistryComponent(registryAddr) public {}\n\n    function getName() internal pure returns(string name) {\n        return COMPONENT_NAME;\n    }\n\n    function register(uint256 index, string name, address owner, string url, address appAddr, uint256 status) external {\n        emit ApplicationRegistered(index, name, owner, url, appAddr, status);\n    }\n\n}",
  "sourcePath": "/home/andrew/vault-logic-project/Development/Platfrom Contracts/contracts/oracles/ApplicationOracle.sol",
  "compiler": {
    "name": "solc",
    "version": "0.4.24+commit.e67f0147.Emscripten.clang"
  },
  "schemaVersion": "2.0.1",
  "updatedAt": "2018-09-04T11:28:25.665Z"
}