{
  "contractName": "ApplicationManager",
  "abi": [
    {
      "inputs": [
        {
          "name": "regAddr",
          "type": "address"
        }
      ],
      "payable": false,
      "stateMutability": "nonpayable",
      "type": "constructor"
    },
    {
      "constant": false,
      "inputs": [
        {
          "name": "appId",
          "type": "uint256"
        },
        {
          "name": "name",
          "type": "string"
        },
        {
          "name": "owner",
          "type": "address"
        },
        {
          "name": "url",
          "type": "string"
        },
        {
          "name": "appAddr",
          "type": "address"
        }
      ],
      "name": "registerApplication",
      "outputs": [],
      "payable": false,
      "stateMutability": "nonpayable",
      "type": "function"
    },
    {
      "constant": false,
      "inputs": [
        {
          "name": "applicationId",
          "type": "uint256"
        }
      ],
      "name": "enableApplication",
      "outputs": [],
      "payable": false,
      "stateMutability": "nonpayable",
      "type": "function"
    }
  ],
  "bytecode": "0x608060405234801561001057600080fd5b50604051602080610824833981018060405281019080805190602001909291905050508060008173ffffffffffffffffffffffffffffffffffffffff16141515156100c3576040517f08c379a00000000000000000000000000000000000000000000000000000000081526004018080602001828103825260168152602001807f53797374656d2073746174652076696f6c6174696f6e0000000000000000000081525060200191505060405180910390fd5b806000806101000a81548173ffffffffffffffffffffffffffffffffffffffff021916908373ffffffffffffffffffffffffffffffffffffffff1602179055506000809054906101000a900473ffffffffffffffffffffffffffffffffffffffff1673ffffffffffffffffffffffffffffffffffffffff16631e59c529610157610261640100000000026401000000009004565b306040518363ffffffff167c010000000000000000000000000000000000000000000000000000000002815260040180806020018373ffffffffffffffffffffffffffffffffffffffff1673ffffffffffffffffffffffffffffffffffffffff168152602001828103825284818151815260200191508051906020019080838360005b838110156101f55780820151818401526020810190506101da565b50505050905090810190601f1680156102225780820380516001836020036101000a031916815260200191505b509350505050600060405180830381600087803b15801561024257600080fd5b505af1158015610256573d6000803e3d6000fd5b50505050505061029e565b60606040805190810160405280601381526020017f6170706c69636174696f6e2d6d616e6167657200000000000000000000000000815250905090565b610577806102ad6000396000f30060806040526004361061004c576000357c0100000000000000000000000000000000000000000000000000000000900463ffffffff168063876cc3f914610051578063e7ae017c1461007e575b600080fd5b34801561005d57600080fd5b5061007c6004803603810190808035906020019092919050505061011b565b005b34801561008a57600080fd5b5061011960048036038101908080359060200190929190803590602001908201803590602001919091929391929390803573ffffffffffffffffffffffffffffffffffffffff169060200190929190803590602001908201803590602001919091929391929390803573ffffffffffffffffffffffffffffffffffffffff1690602001909291905050506101f6565b005b6101596040805190810160405280601381526020017f6170706c69636174696f6e2d73746f7261676500000000000000000000000000815250610383565b73ffffffffffffffffffffffffffffffffffffffff1663f004a7e4826001600281111561018257fe5b6040518363ffffffff167c01000000000000000000000000000000000000000000000000000000000281526004018083815260200182815260200192505050600060405180830381600087803b1580156101db57600080fd5b505af11580156101ef573d6000803e3d6000fd5b5050505050565b6102346040805190810160405280601381526020017f6170706c69636174696f6e2d73746f7261676500000000000000000000000000815250610383565b73ffffffffffffffffffffffffffffffffffffffff1663edcce1b3888888888888886000600281111561026357fe5b6040518963ffffffff167c010000000000000000000000000000000000000000000000000000000002815260040180898152602001806020018773ffffffffffffffffffffffffffffffffffffffff1673ffffffffffffffffffffffffffffffffffffffff168152602001806020018573ffffffffffffffffffffffffffffffffffffffff1673ffffffffffffffffffffffffffffffffffffffff16815260200184815260200183810383528a8a828181526020019250808284378201915050838103825287878281815260200192508082843782019150509a5050505050505050505050600060405180830381600087803b15801561036257600080fd5b505af1158015610376573d6000803e3d6000fd5b5050505050505050505050565b60008060009054906101000a900473ffffffffffffffffffffffffffffffffffffffff1673ffffffffffffffffffffffffffffffffffffffff1663693ec85e836040518263ffffffff167c01000000000000000000000000000000000000000000000000000000000281526004018080602001828103825283818151815260200191508051906020019080838360005b8381101561042e578082015181840152602081019050610413565b50505050905090810190601f16801561045b5780820380516001836020036101000a031916815260200191505b5092505050602060405180830381600087803b15801561047a57600080fd5b505af115801561048e573d6000803e3d6000fd5b505050506040513d60208110156104a457600080fd5b8101908080519060200190929190505050905060008173ffffffffffffffffffffffffffffffffffffffff1614151515610546576040517f08c379a00000000000000000000000000000000000000000000000000000000081526004018080602001828103825260168152602001807f53797374656d2073746174652076696f6c6174696f6e0000000000000000000081525060200191505060405180910390fd5b9190505600a165627a7a723058209786d50c4cfaa3bffe6abb78550f10e30b460733e1abac247be6e1291b66bef50029",
  "source": "pragma solidity 0.4.24;\r\n\r\nimport \"../registry/RegistryComponent.sol\";\r\nimport \"../repositories/application/IApplicationStorage.sol\";\r\nimport \"../oracles/IApplicationOracle.sol\";\r\n\r\ncontract ApplicationManager is RegistryComponent {\r\n\r\n    enum ApplicationStatus { PENDING, ENABLED, DISABLED }\r\n\r\n    string constant COMPONENT_NAME = \"application-manager\";\r\n\r\n    string constant APPLICATION_STORAGE = \"application-storage\";\r\n    string constant APPLICATION_ORACLE = \"application-oracle\";\r\n\r\n    constructor(address regAddr) RegistryComponent(regAddr) public {}\r\n\r\n    function getName() internal pure returns(string name) {\r\n        return COMPONENT_NAME;\r\n    }\r\n\r\n    function registerApplication(uint256 appId, string name, address owner, string url, address appAddr) external {\r\n        IApplicationStorage(lookup(APPLICATION_STORAGE)).save(appId, name, owner, url, appAddr, uint256(ApplicationStatus.PENDING));\r\n    }\r\n\r\n    function enableApplication(uint256 applicationId) external {\r\n        IApplicationStorage(lookup(APPLICATION_STORAGE)).setApplicationStatus(applicationId, uint256(ApplicationStatus.ENABLED));\r\n    }\r\n\r\n}",
  "sourcePath": "C:\\Users\\Andrii\\WebstormProjects\\vl-api-pos\\src\\main\\java\\com\\skysoft\\vaultlogic\\blockchain\\truffle\\contracts\\services\\ApplicationManager.sol",
  "compiler": {
    "name": "solc",
    "version": "0.4.24+commit.e67f0147.Emscripten.clang"
  },
  "schemaVersion": "2.0.1",
  "updatedAt": "2018-09-06T14:03:47.954Z"
}