{
  "contractName": "ApplicationService",
  "abi": [
    {
      "inputs": [
        {
          "name": "regAddr",
          "type": "address"
        }
      ],
      "payable": false,
      "stateMutability": "nonpayable",
      "type": "constructor"
    },
    {
      "constant": false,
      "inputs": [
        {
          "name": "appId",
          "type": "uint256"
        },
        {
          "name": "name",
          "type": "string"
        },
        {
          "name": "owner",
          "type": "address"
        },
        {
          "name": "url",
          "type": "string"
        },
        {
          "name": "appAddr",
          "type": "address"
        }
      ],
      "name": "registerApplication",
      "outputs": [],
      "payable": false,
      "stateMutability": "nonpayable",
      "type": "function"
    },
    {
      "constant": false,
      "inputs": [
        {
          "name": "applicationId",
          "type": "uint256"
        }
      ],
      "name": "enableApplication",
      "outputs": [],
      "payable": false,
      "stateMutability": "nonpayable",
      "type": "function"
    }
  ],
  "bytecode": "0x608060405234801561001057600080fd5b506040516020806109a8833981018060405281019080805190602001909291905050508060008173ffffffffffffffffffffffffffffffffffffffff16141515156100c3576040517f08c379a00000000000000000000000000000000000000000000000000000000081526004018080602001828103825260168152602001807f53797374656d2073746174652076696f6c6174696f6e0000000000000000000081525060200191505060405180910390fd5b806000806101000a81548173ffffffffffffffffffffffffffffffffffffffff021916908373ffffffffffffffffffffffffffffffffffffffff1602179055506000809054906101000a900473ffffffffffffffffffffffffffffffffffffffff1673ffffffffffffffffffffffffffffffffffffffff16631e59c529610157610261640100000000026401000000009004565b306040518363ffffffff167c010000000000000000000000000000000000000000000000000000000002815260040180806020018373ffffffffffffffffffffffffffffffffffffffff1673ffffffffffffffffffffffffffffffffffffffff168152602001828103825284818151815260200191508051906020019080838360005b838110156101f55780820151818401526020810190506101da565b50505050905090810190601f1680156102225780820380516001836020036101000a031916815260200191505b509350505050600060405180830381600087803b15801561024257600080fd5b505af1158015610256573d6000803e3d6000fd5b50505050505061029e565b60606040805190810160405280601581526020017f636173682d6368616e6e656c732d736572766963650000000000000000000000815250905090565b6106fb806102ad6000396000f30060806040526004361061004c576000357c0100000000000000000000000000000000000000000000000000000000900463ffffffff168063876cc3f914610051578063e7ae017c1461007e575b600080fd5b34801561005d57600080fd5b5061007c6004803603810190808035906020019092919050505061011b565b005b34801561008a57600080fd5b5061011960048036038101908080359060200190929190803590602001908201803590602001919091929391929390803573ffffffffffffffffffffffffffffffffffffffff169060200190929190803590602001908201803590602001919091929391929390803573ffffffffffffffffffffffffffffffffffffffff1690602001909291905050506101f6565b005b6101596040805190810160405280601681526020017f6170706c69636174696f6e2d7265706f7369746f727900000000000000000000815250610507565b73ffffffffffffffffffffffffffffffffffffffff1663f004a7e4826001600281111561018257fe5b6040518363ffffffff167c01000000000000000000000000000000000000000000000000000000000281526004018083815260200182815260200192505050600060405180830381600087803b1580156101db57600080fd5b505af11580156101ef573d6000803e3d6000fd5b5050505050565b6102346040805190810160405280601681526020017f6170706c69636174696f6e2d7265706f7369746f727900000000000000000000815250610507565b73ffffffffffffffffffffffffffffffffffffffff1663edcce1b3888888888888886000600281111561026357fe5b6040518963ffffffff167c010000000000000000000000000000000000000000000000000000000002815260040180898152602001806020018773ffffffffffffffffffffffffffffffffffffffff1673ffffffffffffffffffffffffffffffffffffffff168152602001806020018573ffffffffffffffffffffffffffffffffffffffff1673ffffffffffffffffffffffffffffffffffffffff16815260200184815260200183810383528a8a828181526020019250808284378201915050838103825287878281815260200192508082843782019150509a5050505050505050505050600060405180830381600087803b15801561036257600080fd5b505af1158015610376573d6000803e3d6000fd5b505050506103b86040805190810160405280601281526020017f6170706c69636174696f6e2d6f7261636c650000000000000000000000000000815250610507565b73ffffffffffffffffffffffffffffffffffffffff16639d15b34288888888888888600060028111156103e757fe5b6040518963ffffffff167c010000000000000000000000000000000000000000000000000000000002815260040180898152602001806020018773ffffffffffffffffffffffffffffffffffffffff1673ffffffffffffffffffffffffffffffffffffffff168152602001806020018573ffffffffffffffffffffffffffffffffffffffff1673ffffffffffffffffffffffffffffffffffffffff16815260200184815260200183810383528a8a828181526020019250808284378201915050838103825287878281815260200192508082843782019150509a5050505050505050505050600060405180830381600087803b1580156104e657600080fd5b505af11580156104fa573d6000803e3d6000fd5b5050505050505050505050565b60008060009054906101000a900473ffffffffffffffffffffffffffffffffffffffff1673ffffffffffffffffffffffffffffffffffffffff1663693ec85e836040518263ffffffff167c01000000000000000000000000000000000000000000000000000000000281526004018080602001828103825283818151815260200191508051906020019080838360005b838110156105b2578082015181840152602081019050610597565b50505050905090810190601f1680156105df5780820380516001836020036101000a031916815260200191505b5092505050602060405180830381600087803b1580156105fe57600080fd5b505af1158015610612573d6000803e3d6000fd5b505050506040513d602081101561062857600080fd5b8101908080519060200190929190505050905060008173ffffffffffffffffffffffffffffffffffffffff16141515156106ca576040517f08c379a00000000000000000000000000000000000000000000000000000000081526004018080602001828103825260168152602001807f53797374656d2073746174652076696f6c6174696f6e0000000000000000000081525060200191505060405180910390fd5b9190505600a165627a7a72305820244d604c14b342902cbb2a8af4e0c664be49bfb4ccbdb21ecebc36d6f42cc9e30029",
  "source": "pragma solidity 0.4.24;\n\nimport \"../registry/RegistryComponent.sol\";\nimport \"../repositories/application/ApplicationRepositoryApi.sol\";\nimport \"../oracles/ApplicationOracleApi.sol\";\n\ncontract ApplicationService is RegistryComponent {\n\n    enum ApplicationStatus { PENDING, ENABLED, DISABLED }\n\n    string constant COMPONENT_NAME = \"cash-channels-service\";\n\n    string constant APPLICATION_REPOSITORY = \"application-repository\";\n    string constant APPLICATION_ORACLE = \"application-oracle\";\n\n    constructor(address regAddr) RegistryComponent(regAddr) public {}\n\n    function getName() internal pure returns(string name) {\n        return COMPONENT_NAME;\n    }\n\n    function registerApplication(uint256 appId, string name, address owner, string url, address appAddr) external {\n        ApplicationRepositoryApi(lookup(APPLICATION_REPOSITORY)).save(appId, name, owner, url, appAddr, uint256(ApplicationStatus.PENDING));\n        ApplicationOracleApi(lookup(APPLICATION_ORACLE)).register(appId, name, owner, url, appAddr, uint256(ApplicationStatus.PENDING));\n    }\n\n    function enableApplication(uint256 applicationId) external {\n        ApplicationRepositoryApi(lookup(APPLICATION_REPOSITORY)).setApplicationStatus(applicationId, uint256(ApplicationStatus.ENABLED));\n    }\n\n}",
  "sourcePath": "/home/andrew/vault-logic-project/Development/Platfrom Contracts/contracts/services/ApplicationService.sol",
  "compiler": {
    "name": "solc",
    "version": "0.4.24+commit.e67f0147.Emscripten.clang"
  },
  "schemaVersion": "2.0.1",
  "updatedAt": "2018-09-04T11:28:25.664Z"
}