{
  "contractName": "ApplicationStorage",
  "abi": [
    {
      "inputs": [
        {
          "name": "registryAddr",
          "type": "address"
        }
      ],
      "payable": false,
      "stateMutability": "nonpayable",
      "type": "constructor"
    },
    {
      "anonymous": false,
      "inputs": [
        {
          "indexed": false,
          "name": "appId",
          "type": "uint256"
        },
        {
          "indexed": false,
          "name": "name",
          "type": "string"
        },
        {
          "indexed": false,
          "name": "owner",
          "type": "address"
        },
        {
          "indexed": false,
          "name": "url",
          "type": "string"
        },
        {
          "indexed": false,
          "name": "appAddr",
          "type": "address"
        },
        {
          "indexed": false,
          "name": "status",
          "type": "uint256"
        }
      ],
      "name": "ApplicationSaved",
      "type": "event"
    },
    {
      "anonymous": false,
      "inputs": [
        {
          "indexed": false,
          "name": "appId",
          "type": "uint256"
        },
        {
          "indexed": false,
          "name": "url",
          "type": "string"
        }
      ],
      "name": "ApplicationUrlUpdated",
      "type": "event"
    },
    {
      "anonymous": false,
      "inputs": [
        {
          "indexed": false,
          "name": "appId",
          "type": "uint256"
        },
        {
          "indexed": false,
          "name": "appAddr",
          "type": "address"
        }
      ],
      "name": "ApplicationAddressUpdated",
      "type": "event"
    },
    {
      "anonymous": false,
      "inputs": [
        {
          "indexed": false,
          "name": "appId",
          "type": "uint256"
        },
        {
          "indexed": false,
          "name": "status",
          "type": "uint256"
        }
      ],
      "name": "ApplicationStatusUpdated",
      "type": "event"
    },
    {
      "constant": false,
      "inputs": [
        {
          "name": "appId",
          "type": "uint256"
        },
        {
          "name": "name",
          "type": "string"
        },
        {
          "name": "owner",
          "type": "address"
        },
        {
          "name": "url",
          "type": "string"
        },
        {
          "name": "appAddr",
          "type": "address"
        },
        {
          "name": "status",
          "type": "uint256"
        }
      ],
      "name": "save",
      "outputs": [],
      "payable": false,
      "stateMutability": "nonpayable",
      "type": "function"
    },
    {
      "constant": true,
      "inputs": [
        {
          "name": "appId",
          "type": "uint256"
        }
      ],
      "name": "get",
      "outputs": [
        {
          "name": "",
          "type": "string"
        },
        {
          "name": "",
          "type": "address"
        },
        {
          "name": "",
          "type": "string"
        },
        {
          "name": "",
          "type": "address"
        },
        {
          "name": "",
          "type": "uint256"
        }
      ],
      "payable": false,
      "stateMutability": "view",
      "type": "function"
    },
    {
      "constant": true,
      "inputs": [
        {
          "name": "appId",
          "type": "uint256"
        }
      ],
      "name": "getApplicationName",
      "outputs": [
        {
          "name": "",
          "type": "string"
        }
      ],
      "payable": false,
      "stateMutability": "view",
      "type": "function"
    },
    {
      "constant": true,
      "inputs": [
        {
          "name": "appId",
          "type": "uint256"
        }
      ],
      "name": "getApplicationOwner",
      "outputs": [
        {
          "name": "",
          "type": "address"
        }
      ],
      "payable": false,
      "stateMutability": "view",
      "type": "function"
    },
    {
      "constant": true,
      "inputs": [
        {
          "name": "appId",
          "type": "uint256"
        }
      ],
      "name": "getApplicationUrl",
      "outputs": [
        {
          "name": "",
          "type": "string"
        }
      ],
      "payable": false,
      "stateMutability": "view",
      "type": "function"
    },
    {
      "constant": false,
      "inputs": [
        {
          "name": "appId",
          "type": "uint256"
        },
        {
          "name": "url",
          "type": "string"
        }
      ],
      "name": "setApplicationUrl",
      "outputs": [],
      "payable": false,
      "stateMutability": "nonpayable",
      "type": "function"
    },
    {
      "constant": true,
      "inputs": [
        {
          "name": "appId",
          "type": "uint256"
        }
      ],
      "name": "getApplicationAddress",
      "outputs": [
        {
          "name": "",
          "type": "address"
        }
      ],
      "payable": false,
      "stateMutability": "view",
      "type": "function"
    },
    {
      "constant": false,
      "inputs": [
        {
          "name": "appId",
          "type": "uint256"
        },
        {
          "name": "appAddr",
          "type": "address"
        }
      ],
      "name": "setApplicationAddress",
      "outputs": [],
      "payable": false,
      "stateMutability": "nonpayable",
      "type": "function"
    },
    {
      "constant": true,
      "inputs": [
        {
          "name": "appId",
          "type": "uint256"
        }
      ],
      "name": "getApplicationStatus",
      "outputs": [
        {
          "name": "",
          "type": "uint256"
        }
      ],
      "payable": false,
      "stateMutability": "view",
      "type": "function"
    },
    {
      "constant": false,
      "inputs": [
        {
          "name": "appId",
          "type": "uint256"
        },
        {
          "name": "status",
          "type": "uint256"
        }
      ],
      "name": "setApplicationStatus",
      "outputs": [],
      "payable": false,
      "stateMutability": "nonpayable",
      "type": "function"
    }
  ],
  "bytecode": "0x60806040523480156200001157600080fd5b50604051602080620026cc833981018060405281019080805190602001909291905050508060008173ffffffffffffffffffffffffffffffffffffffff1614151515620000c6576040517f08c379a00000000000000000000000000000000000000000000000000000000081526004018080602001828103825260168152602001807f53797374656d2073746174652076696f6c6174696f6e0000000000000000000081525060200191505060405180910390fd5b806000806101000a81548173ffffffffffffffffffffffffffffffffffffffff021916908373ffffffffffffffffffffffffffffffffffffffff1602179055506000809054906101000a900473ffffffffffffffffffffffffffffffffffffffff1673ffffffffffffffffffffffffffffffffffffffff16631e59c5296200015c6200026c640100000000026401000000009004565b306040518363ffffffff167c010000000000000000000000000000000000000000000000000000000002815260040180806020018373ffffffffffffffffffffffffffffffffffffffff1673ffffffffffffffffffffffffffffffffffffffff168152602001828103825284818151815260200191508051906020019080838360005b83811015620001fc578082015181840152602081019050620001df565b50505050905090810190601f1680156200022a5780820380516001836020036101000a031916815260200191505b509350505050600060405180830381600087803b1580156200024b57600080fd5b505af115801562000260573d6000803e3d6000fd5b505050505050620002a9565b60606040805190810160405280601381526020017f6170706c69636174696f6e2d73746f7261676500000000000000000000000000815250905090565b61241380620002b96000396000f3006080604052600436106100a4576000357c0100000000000000000000000000000000000000000000000000000000900463ffffffff16806301f629c0146100a957806307d8ef9a146100f657806308114c9d1461013b5780639507d39a146101a85780639fdc3a4d14610327578063d32cca47146103cd578063edcce1b31461040e578063f004a7e4146104b5578063f6efa674146104ec578063ff78b45214610592575b600080fd5b3480156100b557600080fd5b506100f460048036038101908080359060200190929190803573ffffffffffffffffffffffffffffffffffffffff1690602001909291905050506105ff565b005b34801561010257600080fd5b50610139600480360381019080803590602001909291908035906020019082018035906020019190919293919293905050506106d6565b005b34801561014757600080fd5b50610166600480360381019080803590602001909291905050506107ce565b604051808273ffffffffffffffffffffffffffffffffffffffff1673ffffffffffffffffffffffffffffffffffffffff16815260200191505060405180910390f35b3480156101b457600080fd5b506101d36004803603810190808035906020019092919050505061083d565b60405180806020018673ffffffffffffffffffffffffffffffffffffffff1673ffffffffffffffffffffffffffffffffffffffff168152602001806020018573ffffffffffffffffffffffffffffffffffffffff1673ffffffffffffffffffffffffffffffffffffffff168152602001848152602001838103835288818151815260200191508051906020019080838360005b83811015610281578082015181840152602081019050610266565b50505050905090810190601f1680156102ae5780820380516001836020036101000a031916815260200191505b50838103825286818151815260200191508051906020019080838360005b838110156102e75780820151818401526020810190506102cc565b50505050905090810190601f1680156103145780820380516001836020036101000a031916815260200191505b5097505050505050505060405180910390f35b34801561033357600080fd5b50610352600480360381019080803590602001909291905050506108bf565b6040518080602001828103825283818151815260200191508051906020019080838360005b83811015610392578082015181840152602081019050610377565b50505050905090810190601f1680156103bf5780820380516001836020036101000a031916815260200191505b509250505060405180910390f35b3480156103d957600080fd5b506103f86004803603810190808035906020019092919050505061092e565b6040518082815260200191505060405180910390f35b34801561041a57600080fd5b506104b360048036038101908080359060200190929190803590602001908201803590602001919091929391929390803573ffffffffffffffffffffffffffffffffffffffff169060200190929190803590602001908201803590602001919091929391929390803573ffffffffffffffffffffffffffffffffffffffff1690602001909291908035906020019092919050505061099d565b005b3480156104c157600080fd5b506104ea6004803603810190808035906020019092919080359060200190929190505050610b66565b005b3480156104f857600080fd5b5061051760048036038101908080359060200190929190505050610c11565b6040518080602001828103825283818151815260200191508051906020019080838360005b8381101561055757808201518184015260208101905061053c565b50505050905090810190601f1680156105845780820380516001836020036101000a031916815260200191505b509250505060405180910390f35b34801561059e57600080fd5b506105bd60048036038101908080359060200190929190505050610c80565b604051808273ffffffffffffffffffffffffffffffffffffffff1673ffffffffffffffffffffffffffffffffffffffff16815260200191505060405180910390f35b61066782826106426040805190810160405280600881526020017f6461746162617365000000000000000000000000000000000000000000000000815250610cef565b73ffffffffffffffffffffffffffffffffffffffff16610eb79092919063ffffffff16565b7fecc5a039ee5311e887972ef4263d65344c7ca962ba3ecd33e66faef4ee5333518282604051808381526020018273ffffffffffffffffffffffffffffffffffffffff1673ffffffffffffffffffffffffffffffffffffffff1681526020019250505060405180910390a15050565b6107708383838080601f01602080910402602001604051908101604052809392919081815260200183838082843782019150505050505061074b6040805190810160405280600881526020017f6461746162617365000000000000000000000000000000000000000000000000815250610cef565b73ffffffffffffffffffffffffffffffffffffffff16610fbd9092919063ffffffff16565b7f3908ab5caf44fc3e7a4b58da20fc1794f0301ec457d66b301c4939be57ec650183838360405180848152602001806020018281038252848482818152602001925080828437820191505094505050505060405180910390a1505050565b6000610836826108126040805190810160405280600881526020017f6461746162617365000000000000000000000000000000000000000000000000815250610cef565b73ffffffffffffffffffffffffffffffffffffffff166110fc90919063ffffffff16565b9050919050565b6060600060606000806108ac866108886040805190810160405280600881526020017f6461746162617365000000000000000000000000000000000000000000000000815250610cef565b73ffffffffffffffffffffffffffffffffffffffff166111f690919063ffffffff16565b9450945094509450945091939590929450565b6060610927826109036040805190810160405280600881526020017f6461746162617365000000000000000000000000000000000000000000000000815250610cef565b73ffffffffffffffffffffffffffffffffffffffff1661176f90919063ffffffff16565b9050919050565b6000610996826109726040805190810160405280600881526020017f6461746162617365000000000000000000000000000000000000000000000000815250610cef565b73ffffffffffffffffffffffffffffffffffffffff166118bf90919063ffffffff16565b9050919050565b610a718888888080601f0160208091040260200160405190810160405280939291908181526020018383808284378201915050505050508787878080601f0160208091040260200160405190810160405280939291908181526020018383808284378201915050505050508686610a486040805190810160405280600881526020017f6461746162617365000000000000000000000000000000000000000000000000815250610cef565b73ffffffffffffffffffffffffffffffffffffffff166119b9909695949392919063ffffffff16565b7fb2aef06aed6c32445d7d5744b2ba436bbe89a3a8c4d06a5f19ebc62b8d3f6b1a888888888888888860405180898152602001806020018773ffffffffffffffffffffffffffffffffffffffff1673ffffffffffffffffffffffffffffffffffffffff168152602001806020018573ffffffffffffffffffffffffffffffffffffffff1673ffffffffffffffffffffffffffffffffffffffff16815260200184815260200183810383528a8a828181526020019250808284378201915050838103825287878281815260200192508082843782019150509a505050505050505050505060405180910390a15050505050505050565b610bce8282610ba96040805190810160405280600881526020017f6461746162617365000000000000000000000000000000000000000000000000815250610cef565b73ffffffffffffffffffffffffffffffffffffffff16611fe29092919063ffffffff16565b7f565fdede77c2d98cf7ef898d489425bd022f8a537b7f7b8e28b0045866347fdf8282604051808381526020018281526020019250505060405180910390a15050565b6060610c7982610c556040805190810160405280600881526020017f6461746162617365000000000000000000000000000000000000000000000000815250610cef565b73ffffffffffffffffffffffffffffffffffffffff166120bc90919063ffffffff16565b9050919050565b6000610ce882610cc46040805190810160405280600881526020017f6461746162617365000000000000000000000000000000000000000000000000815250610cef565b73ffffffffffffffffffffffffffffffffffffffff1661220c90919063ffffffff16565b9050919050565b60008060009054906101000a900473ffffffffffffffffffffffffffffffffffffffff1673ffffffffffffffffffffffffffffffffffffffff1663693ec85e836040518263ffffffff167c01000000000000000000000000000000000000000000000000000000000281526004018080602001828103825283818151815260200191508051906020019080838360005b83811015610d9a578082015181840152602081019050610d7f565b50505050905090810190601f168015610dc75780820380516001836020036101000a031916815260200191505b5092505050602060405180830381600087803b158015610de657600080fd5b505af1158015610dfa573d6000803e3d6000fd5b505050506040513d6020811015610e1057600080fd5b8101908080519060200190929190505050905060008173ffffffffffffffffffffffffffffffffffffffff1614151515610eb2576040517f08c379a00000000000000000000000000000000000000000000000000000000081526004018080602001828103825260168152602001807f53797374656d2073746174652076696f6c6174696f6e0000000000000000000081525060200191505060405180910390fd5b919050565b8273ffffffffffffffffffffffffffffffffffffffff16635a2bf25a610f126040805190810160405280601381526020017f6170706c69636174696f6e5f616464726573730000000000000000000000000081525085612306565b836040518363ffffffff167c01000000000000000000000000000000000000000000000000000000000281526004018083600019166000191681526020018273ffffffffffffffffffffffffffffffffffffffff1673ffffffffffffffffffffffffffffffffffffffff16815260200192505050600060405180830381600087803b158015610fa057600080fd5b505af1158015610fb4573d6000803e3d6000fd5b50505050505050565b8273ffffffffffffffffffffffffffffffffffffffff1663f58660666110186040805190810160405280600f81526020017f6170706c69636174696f6e5f75726c000000000000000000000000000000000081525085612306565b836040518363ffffffff167c010000000000000000000000000000000000000000000000000000000002815260040180836000191660001916815260200180602001828103825283818151815260200191508051906020019080838360005b83811015611092578082015181840152602081019050611077565b50505050905090810190601f1680156110bf5780820380516001836020036101000a031916815260200191505b509350505050600060405180830381600087803b1580156110df57600080fd5b505af11580156110f3573d6000803e3d6000fd5b50505050505050565b60008273ffffffffffffffffffffffffffffffffffffffff16634c77e5ba6111596040805190810160405280601181526020017f6170706c69636174696f6e5f6f776e657200000000000000000000000000000081525085612306565b6040518263ffffffff167c0100000000000000000000000000000000000000000000000000000000028152600401808260001916600019168152602001915050602060405180830381600087803b1580156111b357600080fd5b505af11580156111c7573d6000803e3d6000fd5b505050506040513d60208110156111dd57600080fd5b8101908080519060200190929190505050905092915050565b6060600060606000808673ffffffffffffffffffffffffffffffffffffffff1663a209a29c61125a6040805190810160405280601081526020017f6170706c69636174696f6e5f6e616d650000000000000000000000000000000081525089612306565b6040518263ffffffff167c0100000000000000000000000000000000000000000000000000000000028152600401808260001916600019168152602001915050600060405180830381600087803b1580156112b457600080fd5b505af11580156112c8573d6000803e3d6000fd5b505050506040513d6000823e3d601f19601f8201168201806040525060208110156112f257600080fd5b81019080805164010000000081111561130a57600080fd5b8281019050602081018481111561132057600080fd5b815185600182028301116401000000008211171561133d57600080fd5b505092919050505094508673ffffffffffffffffffffffffffffffffffffffff16634c77e5ba6113a26040805190810160405280601181526020017f6170706c69636174696f6e5f6f776e657200000000000000000000000000000081525089612306565b6040518263ffffffff167c0100000000000000000000000000000000000000000000000000000000028152600401808260001916600019168152602001915050602060405180830381600087803b1580156113fc57600080fd5b505af1158015611410573d6000803e3d6000fd5b505050506040513d602081101561142657600080fd5b810190808051906020019092919050505093508673ffffffffffffffffffffffffffffffffffffffff1663a209a29c6114946040805190810160405280600f81526020017f6170706c69636174696f6e5f75726c000000000000000000000000000000000081525089612306565b6040518263ffffffff167c0100000000000000000000000000000000000000000000000000000000028152600401808260001916600019168152602001915050600060405180830381600087803b1580156114ee57600080fd5b505af1158015611502573d6000803e3d6000fd5b505050506040513d6000823e3d601f19601f82011682018060405250602081101561152c57600080fd5b81019080805164010000000081111561154457600080fd5b8281019050602081018481111561155a57600080fd5b815185600182028301116401000000008211171561157757600080fd5b505092919050505092508673ffffffffffffffffffffffffffffffffffffffff16634c77e5ba6115dc6040805190810160405280601381526020017f6170706c69636174696f6e5f616464726573730000000000000000000000000081525089612306565b6040518263ffffffff167c0100000000000000000000000000000000000000000000000000000000028152600401808260001916600019168152602001915050602060405180830381600087803b15801561163657600080fd5b505af115801561164a573d6000803e3d6000fd5b505050506040513d602081101561166057600080fd5b810190808051906020019092919050505091508673ffffffffffffffffffffffffffffffffffffffff1663e82617fb6116ce6040805190810160405280601281526020017f6170706c69636174696f6e20737461747573000000000000000000000000000081525089612306565b6040518263ffffffff167c0100000000000000000000000000000000000000000000000000000000028152600401808260001916600019168152602001915050602060405180830381600087803b15801561172857600080fd5b505af115801561173c573d6000803e3d6000fd5b505050506040513d602081101561175257600080fd5b810190808051906020019092919050505090509295509295909350565b60608273ffffffffffffffffffffffffffffffffffffffff1663a209a29c6117cc6040805190810160405280600f81526020017f6170706c69636174696f6e5f75726c000000000000000000000000000000000081525085612306565b6040518263ffffffff167c0100000000000000000000000000000000000000000000000000000000028152600401808260001916600019168152602001915050600060405180830381600087803b15801561182657600080fd5b505af115801561183a573d6000803e3d6000fd5b505050506040513d6000823e3d601f19601f82011682018060405250602081101561186457600080fd5b81019080805164010000000081111561187c57600080fd5b8281019050602081018481111561189257600080fd5b81518560018202830111640100000000821117156118af57600080fd5b5050929190505050905092915050565b60008273ffffffffffffffffffffffffffffffffffffffff1663e82617fb61191c6040805190810160405280601281526020017f6170706c69636174696f6e20737461747573000000000000000000000000000081525085612306565b6040518263ffffffff167c0100000000000000000000000000000000000000000000000000000000028152600401808260001916600019168152602001915050602060405180830381600087803b15801561197657600080fd5b505af115801561198a573d6000803e3d6000fd5b505050506040513d60208110156119a057600080fd5b8101908080519060200190929190505050905092915050565b8673ffffffffffffffffffffffffffffffffffffffff1663ffb4f623611a146040805190810160405280600e81526020017f6170706c69636174696f6e5f696400000000000000000000000000000000000081525089612306565b886040518363ffffffff167c010000000000000000000000000000000000000000000000000000000002815260040180836000191660001916815260200182815260200192505050600060405180830381600087803b158015611a7657600080fd5b505af1158015611a8a573d6000803e3d6000fd5b505050508673ffffffffffffffffffffffffffffffffffffffff1663f5866066611ae96040805190810160405280601081526020017f6170706c69636174696f6e5f6e616d650000000000000000000000000000000081525089612306565b876040518363ffffffff167c010000000000000000000000000000000000000000000000000000000002815260040180836000191660001916815260200180602001828103825283818151815260200191508051906020019080838360005b83811015611b63578082015181840152602081019050611b48565b50505050905090810190601f168015611b905780820380516001836020036101000a031916815260200191505b509350505050600060405180830381600087803b158015611bb057600080fd5b505af1158015611bc4573d6000803e3d6000fd5b505050508673ffffffffffffffffffffffffffffffffffffffff16635a2bf25a611c236040805190810160405280601181526020017f6170706c69636174696f6e5f6f776e657200000000000000000000000000000081525089612306565b866040518363ffffffff167c01000000000000000000000000000000000000000000000000000000000281526004018083600019166000191681526020018273ffffffffffffffffffffffffffffffffffffffff1673ffffffffffffffffffffffffffffffffffffffff16815260200192505050600060405180830381600087803b158015611cb157600080fd5b505af1158015611cc5573d6000803e3d6000fd5b505050508673ffffffffffffffffffffffffffffffffffffffff1663f5866066611d246040805190810160405280600f81526020017f6170706c69636174696f6e5f75726c000000000000000000000000000000000081525089612306565b856040518363ffffffff167c010000000000000000000000000000000000000000000000000000000002815260040180836000191660001916815260200180602001828103825283818151815260200191508051906020019080838360005b83811015611d9e578082015181840152602081019050611d83565b50505050905090810190601f168015611dcb5780820380516001836020036101000a031916815260200191505b509350505050600060405180830381600087803b158015611deb57600080fd5b505af1158015611dff573d6000803e3d6000fd5b505050508673ffffffffffffffffffffffffffffffffffffffff16635a2bf25a611e5e6040805190810160405280601381526020017f6170706c69636174696f6e5f616464726573730000000000000000000000000081525089612306565b846040518363ffffffff167c01000000000000000000000000000000000000000000000000000000000281526004018083600019166000191681526020018273ffffffffffffffffffffffffffffffffffffffff1673ffffffffffffffffffffffffffffffffffffffff16815260200192505050600060405180830381600087803b158015611eec57600080fd5b505af1158015611f00573d6000803e3d6000fd5b505050508673ffffffffffffffffffffffffffffffffffffffff1663ffb4f623611f5f6040805190810160405280601281526020017f6170706c69636174696f6e20737461747573000000000000000000000000000081525089612306565b836040518363ffffffff167c010000000000000000000000000000000000000000000000000000000002815260040180836000191660001916815260200182815260200192505050600060405180830381600087803b158015611fc157600080fd5b505af1158015611fd5573d6000803e3d6000fd5b5050505050505050505050565b8273ffffffffffffffffffffffffffffffffffffffff1663ffb4f62361203d6040805190810160405280601281526020017f6170706c69636174696f6e20737461747573000000000000000000000000000081525085612306565b836040518363ffffffff167c010000000000000000000000000000000000000000000000000000000002815260040180836000191660001916815260200182815260200192505050600060405180830381600087803b15801561209f57600080fd5b505af11580156120b3573d6000803e3d6000fd5b50505050505050565b60608273ffffffffffffffffffffffffffffffffffffffff1663a209a29c6121196040805190810160405280601081526020017f6170706c69636174696f6e5f6e616d650000000000000000000000000000000081525085612306565b6040518263ffffffff167c0100000000000000000000000000000000000000000000000000000000028152600401808260001916600019168152602001915050600060405180830381600087803b15801561217357600080fd5b505af1158015612187573d6000803e3d6000fd5b505050506040513d6000823e3d601f19601f8201168201806040525060208110156121b157600080fd5b8101908080516401000000008111156121c957600080fd5b828101905060208101848111156121df57600080fd5b81518560018202830111640100000000821117156121fc57600080fd5b5050929190505050905092915050565b60008273ffffffffffffffffffffffffffffffffffffffff16634c77e5ba6122696040805190810160405280601381526020017f6170706c69636174696f6e5f616464726573730000000000000000000000000081525085612306565b6040518263ffffffff167c0100000000000000000000000000000000000000000000000000000000028152600401808260001916600019168152602001915050602060405180830381600087803b1580156122c357600080fd5b505af11580156122d7573d6000803e3d6000fd5b505050506040513d60208110156122ed57600080fd5b8101908080519060200190929190505050905092915050565b600082826040516020018083805190602001908083835b602083101515612342578051825260208201915060208101905060208303925061231d565b6001836020036101000a038019825116818451168082178552505050505050905001828152602001925050506040516020818303038152906040526040518082805190602001908083835b6020831015156123b2578051825260208201915060208101905060208303925061238d565b6001836020036101000a03801982511681845116808217855250505050505090500191505060405180910390209050929150505600a165627a7a72305820c7199cd2e64a2b135322a956592d6f92c5b0b1e8743f35e34ca8a51cced53ca60029",
  "source": "pragma solidity 0.4.24;\n\nimport \"./ApplicationLib.sol\";\nimport \"../../registry/RegistryComponent.sol\";\n\ncontract ApplicationStorage is RegistryComponent {\n\n    string constant COMPONENT_NAME = \"application-storage\";\n    string constant DATABASE = \"database\";\n\n    event ApplicationSaved(uint256 appId, string name, address owner, string url, address appAddr, uint256 status);\n    event ApplicationUrlUpdated(uint256 appId, string url);\n    event ApplicationAddressUpdated(uint256 appId, address appAddr);\n    event ApplicationStatusUpdated(uint256 appId, uint256 status);\n\n    using ApplicationLib for address;\n\n    constructor(address registryAddr) RegistryComponent(registryAddr) public {}\n\n    function getName() internal pure returns(string) {\n        return COMPONENT_NAME;\n    }\n\n    function save(uint256 appId, string name, address owner, string url, address appAddr, uint256 status) external {\n        lookup(DATABASE).save(appId, name, owner, url, appAddr, status);\n        emit ApplicationSaved(appId, name, owner, url, appAddr, status);\n    }\n\n    function get(uint256 appId) external view returns (string, address, string, address, uint256) {\n        return lookup(DATABASE).get(appId);\n    }\n\n    function getApplicationName(uint256 appId) external view returns(string) {\n        return lookup(DATABASE).getName(appId);\n    }\n\n    function getApplicationOwner(uint256 appId) external view returns(address) {\n        return lookup(DATABASE).getOwner(appId);\n    }\n\n    function getApplicationUrl(uint256 appId) external view returns(string) {\n        return lookup(DATABASE).getUrl(appId);\n    }\n\n    function setApplicationUrl(uint256 appId, string url) external {\n        lookup(DATABASE).setUrl(appId, url);\n        emit ApplicationUrlUpdated(appId, url);\n    }\n\n    function getApplicationAddress(uint256 appId) external view returns(address) {\n        return lookup(DATABASE).getAddress(appId);\n    }\n\n    function setApplicationAddress(uint256 appId, address appAddr) external {\n        lookup(DATABASE).setAddress(appId, appAddr);\n        emit ApplicationAddressUpdated(appId, appAddr);\n    }\n\n    function getApplicationStatus(uint256 appId) external view returns(uint256) {\n        return lookup(DATABASE).getStatus(appId);\n    }\n\n    function setApplicationStatus(uint256 appId, uint256 status) external {\n        lookup(DATABASE).setStatus(appId, status);\n        emit ApplicationStatusUpdated(appId, status);\n    }\n\n}",
  "sourcePath": "/home/andrew/vault-logic-project/Development/test/vault-logic-api/src/main/java/com/skysoft/vaultlogic/blockchain/truffle/contracts/repositories/application/ApplicationStorage.sol",
  "compiler": {
    "name": "solc",
    "version": "0.4.24+commit.e67f0147.Emscripten.clang"
  },
  "schemaVersion": "2.0.1",
  "updatedAt": "2018-09-06T11:53:03.131Z"
}