{
  "contractName": "CapitalHero",
  "abi": [
    {
      "inputs": [
        {
          "name": "regAddr",
          "type": "address"
        }
      ],
      "payable": false,
      "stateMutability": "nonpayable",
      "type": "constructor"
    },
    {
      "anonymous": false,
      "inputs": [
        {
          "indexed": false,
          "name": "channelId",
          "type": "uint256"
        },
        {
          "indexed": false,
          "name": "sessionId",
          "type": "uint256"
        }
      ],
      "name": "CashInOpened",
      "type": "event"
    },
    {
      "anonymous": false,
      "inputs": [
        {
          "indexed": false,
          "name": "channelId",
          "type": "uint256"
        },
        {
          "indexed": false,
          "name": "sessionId",
          "type": "uint256"
        }
      ],
      "name": "CashInClosed",
      "type": "event"
    },
    {
      "anonymous": false,
      "inputs": [
        {
          "indexed": false,
          "name": "channelId",
          "type": "uint256"
        },
        {
          "indexed": false,
          "name": "balance",
          "type": "uint256"
        },
        {
          "indexed": false,
          "name": "sessionId",
          "type": "uint256"
        }
      ],
      "name": "CashInBalanceUpdated",
      "type": "event"
    },
    {
      "anonymous": false,
      "inputs": [
        {
          "indexed": false,
          "name": "timestamp",
          "type": "uint256"
        }
      ],
      "name": "SessionCreated",
      "type": "event"
    },
    {
      "anonymous": false,
      "inputs": [
        {
          "indexed": false,
          "name": "timestamp",
          "type": "uint256"
        },
        {
          "indexed": false,
          "name": "sessionId",
          "type": "uint256"
        }
      ],
      "name": "SessionClosed",
      "type": "event"
    },
    {
      "constant": false,
      "inputs": [
        {
          "name": "sessionId",
          "type": "uint256"
        }
      ],
      "name": "openCashInChannel",
      "outputs": [],
      "payable": false,
      "stateMutability": "nonpayable",
      "type": "function"
    },
    {
      "constant": false,
      "inputs": [
        {
          "name": "sessionId",
          "type": "uint256"
        },
        {
          "name": "channelId",
          "type": "uint256"
        }
      ],
      "name": "closeCashInChannel",
      "outputs": [],
      "payable": false,
      "stateMutability": "nonpayable",
      "type": "function"
    },
    {
      "constant": false,
      "inputs": [
        {
          "name": "channelId",
          "type": "uint256"
        },
        {
          "name": "sessionId",
          "type": "uint256"
        }
      ],
      "name": "cashInChannelOpened",
      "outputs": [],
      "payable": false,
      "stateMutability": "nonpayable",
      "type": "function"
    },
    {
      "constant": false,
      "inputs": [
        {
          "name": "channelId",
          "type": "uint256"
        },
        {
          "name": "balance",
          "type": "uint256"
        },
        {
          "name": "sessionId",
          "type": "uint256"
        }
      ],
      "name": "cashInBalanceUpdate",
      "outputs": [],
      "payable": false,
      "stateMutability": "nonpayable",
      "type": "function"
    },
    {
      "constant": false,
      "inputs": [
        {
          "name": "channelId",
          "type": "uint256"
        },
        {
          "name": "sessionId",
          "type": "uint256"
        }
      ],
      "name": "cashInChannelClosed",
      "outputs": [],
      "payable": false,
      "stateMutability": "nonpayable",
      "type": "function"
    },
    {
      "constant": false,
      "inputs": [],
      "name": "newSessionCreated",
      "outputs": [],
      "payable": false,
      "stateMutability": "nonpayable",
      "type": "function"
    },
    {
      "constant": false,
      "inputs": [
        {
          "name": "sessionId",
          "type": "uint256"
        }
      ],
      "name": "closeSession",
      "outputs": [],
      "payable": false,
      "stateMutability": "nonpayable",
      "type": "function"
    },
    {
      "constant": false,
      "inputs": [
        {
          "name": "sessionId",
          "type": "uint256"
        }
      ],
      "name": "sessionClosed",
      "outputs": [],
      "payable": false,
      "stateMutability": "nonpayable",
      "type": "function"
    }
  ],
  "bytecode": "0x608060405234801561001057600080fd5b5060405160208061085f8339810180604052810190808051906020019092919050505080806000806101000a81548173ffffffffffffffffffffffffffffffffffffffff021916908373ffffffffffffffffffffffffffffffffffffffff16021790555050506107da806100856000396000f30060806040526004361061008e576000357c0100000000000000000000000000000000000000000000000000000000900463ffffffff1680630c0c628e1461009357806352fd43a1146100ca5780635f3062cd146101015780636886a5c21461012e5780636a330d1d14610165578063a3bfdf471461017c578063ae1f1ee1146101a9578063fc7055dd146101d6575b600080fd5b34801561009f57600080fd5b506100c86004803603810190808035906020019092919080359060200190929190505050610217565b005b3480156100d657600080fd5b506100ff60048036038101908080359060200190929190803590602001909291905050506102e7565b005b34801561010d57600080fd5b5061012c6004803603810190808035906020019092919050505061032a565b005b34801561013a57600080fd5b506101636004803603810190808035906020019092919080359060200190929190505050610415565b005b34801561017157600080fd5b5061017a610458565b005b34801561018857600080fd5b506101a760048036038101908080359060200190929190505050610491565b005b3480156101b557600080fd5b506101d460048036038101908080359060200190929190505050610558565b005b3480156101e257600080fd5b5061021560048036038101908080359060200190929190803590602001909291908035906020019092919050505061059a565b005b6102556040805190810160405280601581526020017f636173682d6368616e6e656c732d6d616e6167657200000000000000000000008152506105e6565b73ffffffffffffffffffffffffffffffffffffffff16630c0c628e83836040518363ffffffff167c01000000000000000000000000000000000000000000000000000000000281526004018083815260200182815260200192505050600060405180830381600087803b1580156102cb57600080fd5b505af11580156102df573d6000803e3d6000fd5b505050505050565b7f280af031364d964d103568f906663e7e73cc09811a104da2ebfe8f65bdd185098282604051808381526020018281526020019250505060405180910390a15050565b6103686040805190810160405280601581526020017f636173682d6368616e6e656c732d6d616e6167657200000000000000000000008152506105e6565b73ffffffffffffffffffffffffffffffffffffffff16635f3062cd826040518263ffffffff167c010000000000000000000000000000000000000000000000000000000002815260040180828152602001915050602060405180830381600087803b1580156103d657600080fd5b505af11580156103ea573d6000803e3d6000fd5b505050506040513d602081101561040057600080fd5b81019080805190602001909291905050505050565b7fc5056889444309461095c5b36d568a7e37e4e0114c283a3f59810e6e7d5e1b838282604051808381526020018281526020019250505060405180910390a15050565b7fba5b9081592c446fc890c90b94eb1cb2e823c52d85adafb0a116860c7549705a426040518082815260200191505060405180910390a1565b6104cf6040805190810160405280600f81526020017f73657373696f6e2d7365727669636500000000000000000000000000000000008152506105e6565b73ffffffffffffffffffffffffffffffffffffffff1663a3bfdf47826040518263ffffffff167c010000000000000000000000000000000000000000000000000000000002815260040180828152602001915050600060405180830381600087803b15801561053d57600080fd5b505af1158015610551573d6000803e3d6000fd5b5050505050565b7fd2fe606d6e5a1d7a66766fa1df5b7868957cdeb3e929db537e6cea563a79e8e64282604051808381526020018281526020019250505060405180910390a150565b7f935559313f338876d604cab515bcfd3d59ab91abd80afb5d5344c27ae379389f83838360405180848152602001838152602001828152602001935050505060405180910390a1505050565b60008060009054906101000a900473ffffffffffffffffffffffffffffffffffffffff1673ffffffffffffffffffffffffffffffffffffffff1663693ec85e836040518263ffffffff167c01000000000000000000000000000000000000000000000000000000000281526004018080602001828103825283818151815260200191508051906020019080838360005b83811015610691578082015181840152602081019050610676565b50505050905090810190601f1680156106be5780820380516001836020036101000a031916815260200191505b5092505050602060405180830381600087803b1580156106dd57600080fd5b505af11580156106f1573d6000803e3d6000fd5b505050506040513d602081101561070757600080fd5b8101908080519060200190929190505050905060008173ffffffffffffffffffffffffffffffffffffffff16141515156107a9576040517f08c379a00000000000000000000000000000000000000000000000000000000081526004018080602001828103825260158152602001807f436f6d706f6e656e74204e616d6520495320307830000000000000000000000081525060200191505060405180910390fd5b9190505600a165627a7a72305820d066ba4c535387389487e540d8f3d60008f860676ca1f8f66eb5461de8e47d140029",
  "source": "pragma solidity 0.4.24;\n\nimport \"./ApplicationApi.sol\";\nimport \"./RegistryDependent.sol\";\nimport \"../services/CashChannelsManagerApi.sol\";\nimport \"../services/SessionServiceApi.sol\";\n\ncontract CapitalHero is ApplicationApi, RegistryDependent {\n\n    string constant CASH_CHANNELS_SERVICE = \"cash-channels-manager\";\n    string constant SESSION_SERVICE = \"session-service\";\n\n    event CashInOpened(uint256 channelId, uint256 sessionId);\n    event CashInClosed(uint256 channelId, uint256 sessionId);\n    event CashInBalanceUpdated(uint256 channelId, uint256 balance, uint256 sessionId);\n    event SessionCreated(uint256 timestamp);\n    event SessionClosed(uint256 timestamp, uint256 sessionId);\n\n    constructor(address regAddr) RegistryDependent(regAddr) public {}\n\n    function openCashInChannel(uint256 sessionId) external {\n        CashChannelsOperatorApi(componentForName(CASH_CHANNELS_SERVICE)).openCashInChannel(sessionId);\n    }\n\n    function closeCashInChannel(uint256 sessionId, uint256 channelId) external {\n        CashChannelsOperatorApi(componentForName(CASH_CHANNELS_SERVICE)).closeCashInChannel(sessionId, channelId);\n    }\n\n    function cashInChannelOpened(uint256 channelId, uint256 sessionId) external {\n        emit CashInOpened(channelId, sessionId);\n    }\n\n    function cashInBalanceUpdate(uint256 channelId, uint256 balance, uint256 sessionId) external {\n        emit CashInBalanceUpdated(channelId, balance, sessionId);\n    }\n\n    function cashInChannelClosed(uint256 channelId, uint256 sessionId) external {\n        emit CashInClosed(channelId, sessionId);\n    }\n\n    function newSessionCreated() external {\n        emit SessionCreated(now);\n    }\n\n    function closeSession(uint256 sessionId) external {\n        SessionServiceApi(componentForName(SESSION_SERVICE)).closeSession(sessionId);\n    }\n\n    function sessionClosed(uint256 sessionId) external {\n        emit SessionClosed(now, sessionId);\n    }\n    \n}",
  "sourcePath": "/home/andrew/vault-logic-project/Development/test/vault-logic-api/src/main/java/com/skysoft/vaultlogic/blockchain/truffle/contracts/application/CapitalHero.sol",
  "compiler": {
    "name": "solc",
    "version": "0.4.24+commit.e67f0147.Emscripten.clang"
  },
  "schemaVersion": "2.0.1",
  "updatedAt": "2018-09-06T07:27:28.590Z"
}