{
  "contractName": "CashChannelsManager",
  "abi": [
    {
      "inputs": [
        {
          "name": "regAddr",
          "type": "address"
        }
      ],
      "payable": false,
      "stateMutability": "nonpayable",
      "type": "constructor"
    },
    {
      "constant": false,
      "inputs": [
        {
          "name": "sessionId",
          "type": "uint256"
        }
      ],
      "name": "openCashInChannel",
      "outputs": [
        {
          "name": "",
          "type": "uint256"
        }
      ],
      "payable": false,
      "stateMutability": "nonpayable",
      "type": "function"
    },
    {
      "constant": false,
      "inputs": [
        {
          "name": "sessionId",
          "type": "uint256"
        },
        {
          "name": "channelId",
          "type": "uint256"
        }
      ],
      "name": "closeCashInChannel",
      "outputs": [],
      "payable": false,
      "stateMutability": "nonpayable",
      "type": "function"
    },
    {
      "constant": false,
      "inputs": [
        {
          "name": "channelId",
          "type": "uint256"
        }
      ],
      "name": "confirmOpen",
      "outputs": [],
      "payable": false,
      "stateMutability": "nonpayable",
      "type": "function"
    },
    {
      "constant": false,
      "inputs": [
        {
          "name": "channelId",
          "type": "uint256"
        }
      ],
      "name": "confirmClose",
      "outputs": [],
      "payable": false,
      "stateMutability": "nonpayable",
      "type": "function"
    }
  ],
  "bytecode": "0x608060405234801561001057600080fd5b5060405160208061123a833981018060405281019080805190602001909291905050508060008173ffffffffffffffffffffffffffffffffffffffff16141515156100c3576040517f08c379a00000000000000000000000000000000000000000000000000000000081526004018080602001828103825260168152602001807f53797374656d2073746174652076696f6c6174696f6e0000000000000000000081525060200191505060405180910390fd5b806000806101000a81548173ffffffffffffffffffffffffffffffffffffffff021916908373ffffffffffffffffffffffffffffffffffffffff1602179055506000809054906101000a900473ffffffffffffffffffffffffffffffffffffffff1673ffffffffffffffffffffffffffffffffffffffff16631e59c529610157610261640100000000026401000000009004565b306040518363ffffffff167c010000000000000000000000000000000000000000000000000000000002815260040180806020018373ffffffffffffffffffffffffffffffffffffffff1673ffffffffffffffffffffffffffffffffffffffff168152602001828103825284818151815260200191508051906020019080838360005b838110156101f55780820151818401526020810190506101da565b50505050905090810190601f1680156102225780820380516001836020036101000a031916815260200191505b509350505050600060405180830381600087803b15801561024257600080fd5b505af1158015610256573d6000803e3d6000fd5b50505050505061029e565b60606040805190810160405280601581526020017f636173682d6368616e6e656c732d6d616e616765720000000000000000000000815250905090565b610f8d806102ad6000396000f300608060405260043610610062576000357c0100000000000000000000000000000000000000000000000000000000900463ffffffff1680630c0c628e146100675780635940c6551461009e5780635f3062cd146100cb578063882d5f7a1461010c575b600080fd5b34801561007357600080fd5b5061009c6004803603810190808035906020019092919080359060200190929190505050610139565b005b3480156100aa57600080fd5b506100c960048036038101908080359060200190929190505050610490565b005b3480156100d757600080fd5b506100f6600480360381019080803590602001909291905050506106bc565b6040518082815260200191505060405180910390f35b34801561011857600080fd5b5061013760048036038101908080359060200190929190505050610b6e565b005b60606101796040805190810160405280600f81526020017f73657373696f6e2d73746f726167650000000000000000000000000000000000815250610d99565b73ffffffffffffffffffffffffffffffffffffffff16637e55698e846040518263ffffffff167c010000000000000000000000000000000000000000000000000000000002815260040180828152602001915050600060405180830381600087803b1580156101e757600080fd5b505af11580156101fb573d6000803e3d6000fd5b505050506040513d6000823e3d601f19601f82011682018060405250602081101561022557600080fd5b81019080805164010000000081111561023d57600080fd5b8281019050602081018481111561025357600080fd5b815185600182028301116401000000008211171561027057600080fd5b505092919050505090506102b86040805190810160405280600f81526020017f636173682d696e2d73746f726167650000000000000000000000000000000000815250610d99565b73ffffffffffffffffffffffffffffffffffffffff166382e4081383600260038111156102e157fe5b6040518363ffffffff167c01000000000000000000000000000000000000000000000000000000000281526004018083815260200182815260200192505050600060405180830381600087803b15801561033a57600080fd5b505af115801561034e573d6000803e3d6000fd5b505050506103906040805190810160405280600e81526020017f636173682d696e2d6f7261636c65000000000000000000000000000000000000815250610d99565b73ffffffffffffffffffffffffffffffffffffffff16639ee87ac48285856040518463ffffffff167c01000000000000000000000000000000000000000000000000000000000281526004018080602001848152602001838152602001828103825285818151815260200191508051906020019080838360005b8381101561042557808201518184015260208101905061040a565b50505050905090810190601f1680156104525780820380516001836020036101000a031916815260200191505b50945050505050600060405180830381600087803b15801561047357600080fd5b505af1158015610487573d6000803e3d6000fd5b50505050505050565b60008060006104d36040805190810160405280600f81526020017f636173682d696e2d73746f726167650000000000000000000000000000000000815250610d99565b92508273ffffffffffffffffffffffffffffffffffffffff1663baa135d4856040518263ffffffff167c0100000000000000000000000000000000000000000000000000000000028152600401808281526020019150506040805180830381600087803b15801561054357600080fd5b505af1158015610557573d6000803e3d6000fd5b505050506040513d604081101561056d57600080fd5b810190808051906020019092919080519060200190929190505050915091508273ffffffffffffffffffffffffffffffffffffffff166382e4081385600160038111156105b657fe5b6040518363ffffffff167c01000000000000000000000000000000000000000000000000000000000281526004018083815260200182815260200192505050600060405180830381600087803b15801561060f57600080fd5b505af1158015610623573d6000803e3d6000fd5b505050508173ffffffffffffffffffffffffffffffffffffffff16636886a5c285836040518363ffffffff167c01000000000000000000000000000000000000000000000000000000000281526004018083815260200182815260200192505050600060405180830381600087803b15801561069e57600080fd5b505af11580156106b2573d6000803e3d6000fd5b5050505050505050565b60008060606000806107026040805190810160405280600f81526020017f73657373696f6e2d73746f726167650000000000000000000000000000000000815250610d99565b73ffffffffffffffffffffffffffffffffffffffff1663901135b7876040518263ffffffff167c010000000000000000000000000000000000000000000000000000000002815260040180828152602001915050600060405180830381600087803b15801561077057600080fd5b505af1158015610784573d6000803e3d6000fd5b505050506040513d6000823e3d601f19601f8201168201806040525060408110156107ae57600080fd5b810190808051906020019092919080516401000000008111156107d057600080fd5b828101905060208101848111156107e657600080fd5b815185600182028301116401000000008211171561080357600080fd5b50509291905050509350935061084d6040805190810160405280601381526020017f6170706c69636174696f6e2d73746f7261676500000000000000000000000000815250610d99565b73ffffffffffffffffffffffffffffffffffffffff1663ff78b452856040518263ffffffff167c010000000000000000000000000000000000000000000000000000000002815260040180828152602001915050602060405180830381600087803b1580156108bb57600080fd5b505af11580156108cf573d6000803e3d6000fd5b505050506040513d60208110156108e557600080fd5b810190808051906020019092919050505091506109366040805190810160405280600f81526020017f636173682d696e2d73746f726167650000000000000000000000000000000000815250610d99565b73ffffffffffffffffffffffffffffffffffffffff16636a84f71787846000600381111561096057fe5b6040518463ffffffff167c0100000000000000000000000000000000000000000000000000000000028152600401808481526020018373ffffffffffffffffffffffffffffffffffffffff1673ffffffffffffffffffffffffffffffffffffffff1681526020018281526020019350505050602060405180830381600087803b1580156109ec57600080fd5b505af1158015610a00573d6000803e3d6000fd5b505050506040513d6020811015610a1657600080fd5b81019080805190602001909291905050509050610a676040805190810160405280600e81526020017f636173682d696e2d6f7261636c65000000000000000000000000000000000000815250610d99565b73ffffffffffffffffffffffffffffffffffffffff166354084a478488846040518463ffffffff167c01000000000000000000000000000000000000000000000000000000000281526004018080602001848152602001838152602001828103825285818151815260200191508051906020019080838360005b83811015610afc578082015181840152602081019050610ae1565b50505050905090810190601f168015610b295780820380516001836020036101000a031916815260200191505b50945050505050600060405180830381600087803b158015610b4a57600080fd5b505af1158015610b5e573d6000803e3d6000fd5b5050505080945050505050919050565b6000806000610bb16040805190810160405280600f81526020017f636173682d696e2d73746f726167650000000000000000000000000000000000815250610d99565b92508273ffffffffffffffffffffffffffffffffffffffff1663baa135d4856040518263ffffffff167c0100000000000000000000000000000000000000000000000000000000028152600401808281526020019150506040805180830381600087803b158015610c2157600080fd5b505af1158015610c35573d6000803e3d6000fd5b505050506040513d6040811015610c4b57600080fd5b810190808051906020019092919080519060200190929190505050915091508273ffffffffffffffffffffffffffffffffffffffff166382e4081385600380811115610c9357fe5b6040518363ffffffff167c01000000000000000000000000000000000000000000000000000000000281526004018083815260200182815260200192505050600060405180830381600087803b158015610cec57600080fd5b505af1158015610d00573d6000803e3d6000fd5b505050508173ffffffffffffffffffffffffffffffffffffffff166352fd43a185836040518363ffffffff167c01000000000000000000000000000000000000000000000000000000000281526004018083815260200182815260200192505050600060405180830381600087803b158015610d7b57600080fd5b505af1158015610d8f573d6000803e3d6000fd5b5050505050505050565b60008060009054906101000a900473ffffffffffffffffffffffffffffffffffffffff1673ffffffffffffffffffffffffffffffffffffffff1663693ec85e836040518263ffffffff167c01000000000000000000000000000000000000000000000000000000000281526004018080602001828103825283818151815260200191508051906020019080838360005b83811015610e44578082015181840152602081019050610e29565b50505050905090810190601f168015610e715780820380516001836020036101000a031916815260200191505b5092505050602060405180830381600087803b158015610e9057600080fd5b505af1158015610ea4573d6000803e3d6000fd5b505050506040513d6020811015610eba57600080fd5b8101908080519060200190929190505050905060008173ffffffffffffffffffffffffffffffffffffffff1614151515610f5c576040517f08c379a00000000000000000000000000000000000000000000000000000000081526004018080602001828103825260168152602001807f53797374656d2073746174652076696f6c6174696f6e0000000000000000000081525060200191505060405180910390fd5b9190505600a165627a7a72305820af97c57734f0c44df40946f4de28f59528fa195b8de2fddbde3a5ae137f583030029",
  "source": "pragma solidity 0.4.24;\n\nimport \"../registry/RegistryComponent.sol\";\nimport \"../repositories/cash-in/ICashInStorage.sol\";\nimport \"../repositories/session/ISessionStorage.sol\";\nimport \"../repositories/application/IApplicationStorage.sol\";\nimport \"../application/IApplication.sol\";\nimport \"../oracles/ICashInOracle.sol\";\n\ncontract CashChannelsManager is RegistryComponent {\n\n    enum CashInStatus { PENDING, OPENED, HALF_CLOSED, CLOSED }\n\n    string constant COMPONENT_NAME = \"cash-channels-manager\";\n\n    string constant CASH_IN_STORAGE = \"cash-in-storage\";\n    string constant CASH_IN_ORACLE = \"cash-in-oracle\";\n    string constant SESSION_STORAGE = \"session-storage\";\n    string constant APPLICATION_STORAGE = \"application-storage\";\n\n    constructor(address regAddr) RegistryComponent(regAddr) public {}\n\n    function getName() internal pure returns(string name) {\n        return COMPONENT_NAME;\n    }\n\n    function openCashInChannel(uint256 sessionId) external returns(uint256) {\n        (uint256 appId, string memory xToken) = ISessionStorage(lookup(SESSION_STORAGE)).getAppIdAndXToken(sessionId);\n        address application = IApplicationStorage(lookup(APPLICATION_STORAGE)).getApplicationAddress(appId);\n        uint256 channelId = ICashInStorage(lookup(CASH_IN_STORAGE)).save(sessionId, application, uint256(CashInStatus.PENDING));\n        ICashInOracle(lookup(CASH_IN_ORACLE)).open(xToken, sessionId, channelId);\n        return channelId;\n    }\n\n    function closeCashInChannel(uint256 sessionId, uint256 channelId) external {\n        string memory xToken = ISessionStorage(lookup(SESSION_STORAGE)).getXToken(sessionId);\n        ICashInStorage(lookup(CASH_IN_STORAGE)).setStatus(channelId, uint256(CashInStatus.HALF_CLOSED));\n        ICashInOracle(lookup(CASH_IN_ORACLE)).close(xToken, sessionId, channelId);\n    }\n\n    function confirmOpen(uint256 channelId) external {\n        ICashInStorage cashInStorage = ICashInStorage(lookup(CASH_IN_STORAGE));\n        (address application, uint256 sessionId) = cashInStorage.getApplicationAndSessionId(channelId);\n        cashInStorage.setStatus(channelId, uint256(CashInStatus.OPENED));\n        IApplication(application).cashInChannelOpened(channelId, sessionId);\n    }\n\n    function confirmClose(uint256 channelId) external {\n        ICashInStorage cashInRepo = ICashInStorage(lookup(CASH_IN_STORAGE));\n        (address application, uint256 sessionId) = cashInRepo.getApplicationAndSessionId(channelId);\n        cashInRepo.setStatus(channelId, uint256(CashInStatus.CLOSED));\n        IApplication(application).cashInChannelClosed(channelId, sessionId);\n    }\n\n}",
  "sourcePath": "/home/andrew/vault-logic-project/Development/test/vault-logic-api/src/main/java/com/skysoft/vaultlogic/blockchain/truffle/contracts/services/CashChannelsManager.sol",
  "compiler": {
    "name": "solc",
    "version": "0.4.24+commit.e67f0147.Emscripten.clang"
  },
  "schemaVersion": "2.0.1",
  "updatedAt": "2018-09-06T14:54:09.632Z"
}