{
  "contractName": "CashInOracle",
  "abi": [
    {
      "inputs": [
        {
          "name": "regAddr",
          "type": "address"
        }
      ],
      "payable": false,
      "stateMutability": "nonpayable",
      "type": "constructor"
    },
    {
      "anonymous": false,
      "inputs": [
        {
          "indexed": false,
          "name": "xToken",
          "type": "string"
        },
        {
          "indexed": false,
          "name": "sessionId",
          "type": "uint256"
        },
        {
          "indexed": false,
          "name": "channelId",
          "type": "uint256"
        }
      ],
      "name": "OpenCashAcceptor",
      "type": "event"
    },
    {
      "anonymous": false,
      "inputs": [
        {
          "indexed": false,
          "name": "xToken",
          "type": "string"
        },
        {
          "indexed": false,
          "name": "index",
          "type": "uint256"
        },
        {
          "indexed": false,
          "name": "channelId",
          "type": "uint256"
        }
      ],
      "name": "CloseCashAcceptor",
      "type": "event"
    },
    {
      "constant": false,
      "inputs": [
        {
          "name": "xToken",
          "type": "string"
        },
        {
          "name": "sessionId",
          "type": "uint256"
        },
        {
          "name": "channelId",
          "type": "uint256"
        }
      ],
      "name": "open",
      "outputs": [],
      "payable": false,
      "stateMutability": "nonpayable",
      "type": "function"
    },
    {
      "constant": false,
      "inputs": [
        {
          "name": "xToken",
          "type": "string"
        },
        {
          "name": "sessionId",
          "type": "uint256"
        },
        {
          "name": "channelId",
          "type": "uint256"
        }
      ],
      "name": "close",
      "outputs": [],
      "payable": false,
      "stateMutability": "nonpayable",
      "type": "function"
    },
    {
      "constant": false,
      "inputs": [
        {
          "name": "channelId",
          "type": "uint256"
        }
      ],
      "name": "confirmOpen",
      "outputs": [],
      "payable": false,
      "stateMutability": "nonpayable",
      "type": "function"
    },
    {
      "constant": false,
      "inputs": [
        {
          "name": "channelId",
          "type": "uint256"
        }
      ],
      "name": "confirmClose",
      "outputs": [],
      "payable": false,
      "stateMutability": "nonpayable",
      "type": "function"
    }
  ],
  "bytecode": "0x608060405234801561001057600080fd5b5060405160208061085c833981018060405281019080805190602001909291905050508060008173ffffffffffffffffffffffffffffffffffffffff16141515156100c3576040517f08c379a00000000000000000000000000000000000000000000000000000000081526004018080602001828103825260168152602001807f53797374656d2073746174652076696f6c6174696f6e0000000000000000000081525060200191505060405180910390fd5b806000806101000a81548173ffffffffffffffffffffffffffffffffffffffff021916908373ffffffffffffffffffffffffffffffffffffffff1602179055506000809054906101000a900473ffffffffffffffffffffffffffffffffffffffff1673ffffffffffffffffffffffffffffffffffffffff16631e59c529610157610261640100000000026401000000009004565b306040518363ffffffff167c010000000000000000000000000000000000000000000000000000000002815260040180806020018373ffffffffffffffffffffffffffffffffffffffff1673ffffffffffffffffffffffffffffffffffffffff168152602001828103825284818151815260200191508051906020019080838360005b838110156101f55780820151818401526020810190506101da565b50505050905090810190601f1680156102225780820380516001836020036101000a031916815260200191505b509350505050600060405180830381600087803b15801561024257600080fd5b505af1158015610256573d6000803e3d6000fd5b50505050505061029e565b60606040805190810160405280600e81526020017f636173682d696e2d6f7261636c65000000000000000000000000000000000000815250905090565b6105af806102ad6000396000f300608060405260043610610062576000357c0100000000000000000000000000000000000000000000000000000000900463ffffffff16806354084a47146100675780635940c655146100b6578063882d5f7a146100e35780639ee87ac414610110575b600080fd5b34801561007357600080fd5b506100b4600480360381019080803590602001908201803590602001919091929391929390803590602001909291908035906020019092919050505061015f565b005b3480156100c257600080fd5b506100e1600480360381019080803590602001909291905050506101c6565b005b3480156100ef57600080fd5b5061010e6004803603810190808035906020019092919050505061028d565b005b34801561011c57600080fd5b5061015d6004803603810190808035906020019082018035906020019190919293919293908035906020019092919080359060200190929190505050610354565b005b7f7b3be068ec0f90dc6ec459db9cba7bb8e4b7a982d37badca8cfb12a26917a1f9848484846040518080602001848152602001838152602001828103825286868281815260200192508082843782019150509550505050505060405180910390a150505050565b6102046040805190810160405280601581526020017f636173682d6368616e6e656c732d6d616e6167657200000000000000000000008152506103bb565b73ffffffffffffffffffffffffffffffffffffffff16635940c655826040518263ffffffff167c010000000000000000000000000000000000000000000000000000000002815260040180828152602001915050600060405180830381600087803b15801561027257600080fd5b505af1158015610286573d6000803e3d6000fd5b5050505050565b6102cb6040805190810160405280601581526020017f636173682d6368616e6e656c732d6d616e6167657200000000000000000000008152506103bb565b73ffffffffffffffffffffffffffffffffffffffff1663882d5f7a826040518263ffffffff167c010000000000000000000000000000000000000000000000000000000002815260040180828152602001915050600060405180830381600087803b15801561033957600080fd5b505af115801561034d573d6000803e3d6000fd5b5050505050565b7ff9471f85cb47ab248bb2ff7ed165d8a960de82f5e0b989c3368624cc8171951c848484846040518080602001848152602001838152602001828103825286868281815260200192508082843782019150509550505050505060405180910390a150505050565b60008060009054906101000a900473ffffffffffffffffffffffffffffffffffffffff1673ffffffffffffffffffffffffffffffffffffffff1663693ec85e836040518263ffffffff167c01000000000000000000000000000000000000000000000000000000000281526004018080602001828103825283818151815260200191508051906020019080838360005b8381101561046657808201518184015260208101905061044b565b50505050905090810190601f1680156104935780820380516001836020036101000a031916815260200191505b5092505050602060405180830381600087803b1580156104b257600080fd5b505af11580156104c6573d6000803e3d6000fd5b505050506040513d60208110156104dc57600080fd5b8101908080519060200190929190505050905060008173ffffffffffffffffffffffffffffffffffffffff161415151561057e576040517f08c379a00000000000000000000000000000000000000000000000000000000081526004018080602001828103825260168152602001807f53797374656d2073746174652076696f6c6174696f6e0000000000000000000081525060200191505060405180910390fd5b9190505600a165627a7a7230582024ee4877b5c060284516e9f1b088c9265224c45114f53a39010c86e618dde2920029",
  "source": "pragma solidity 0.4.24;\n\nimport \"../registry/RegistryComponent.sol\";\nimport \"../services/ICashChannelsManager.sol\";\n\ncontract CashInOracle is RegistryComponent {\n\n    string constant COMPONENT_NAME = \"cash-in-oracle\";\n\n    string constant CASH_CHANNELS_MANAGER = \"cash-channels-manager\";\n    \n    event OpenCashAcceptor(string xToken, uint256 sessionId, uint256 channelId);\n    event CloseCashAcceptor(string xToken, uint256 index, uint256 channelId);\n\n    constructor(address regAddr) RegistryComponent(regAddr) public {}\n\n    function getName() internal pure returns(string name) {\n        return COMPONENT_NAME;\n    }\n\n    function open(string xToken, uint256 sessionId, uint256 channelId) external {\n        emit OpenCashAcceptor(xToken, sessionId, channelId);    \n    }\n\n    function close(string xToken, uint256 sessionId, uint256 channelId) external {\n        emit CloseCashAcceptor(xToken, sessionId, channelId);\n    }\n\n    function confirmOpen(uint256 channelId) external {\n        ICashChannelsManager(lookup(CASH_CHANNELS_MANAGER)).confirmOpen(channelId);\n    }\n\n    function confirmClose(uint256 channelId) external {\n        ICashChannelsManager(lookup(CASH_CHANNELS_MANAGER)).confirmClose(channelId);\n    }\n\n}",
  "sourcePath": "/home/andrew/vault-logic-project/Development/test/vault-logic-api/src/main/java/com/skysoft/vaultlogic/blockchain/truffle/contracts/oracles/CashInOracle.sol",
  "compiler": {
    "name": "solc",
    "version": "0.4.24+commit.e67f0147.Emscripten.clang"
  },
  "schemaVersion": "2.0.1",
  "updatedAt": "2018-09-06T11:53:02.496Z"
}