{
  "contractName": "CashInStorage",
  "abi": [
    {
      "inputs": [
        {
          "name": "registryAddr",
          "type": "address"
        }
      ],
      "payable": false,
      "stateMutability": "nonpayable",
      "type": "constructor"
    },
    {
      "anonymous": false,
      "inputs": [
        {
          "indexed": false,
          "name": "sessionId",
          "type": "uint256"
        },
        {
          "indexed": false,
          "name": "application",
          "type": "address"
        },
        {
          "indexed": false,
          "name": "status",
          "type": "uint256"
        },
        {
          "indexed": false,
          "name": "index",
          "type": "uint256"
        }
      ],
      "name": "CashInSaved",
      "type": "event"
    },
    {
      "anonymous": false,
      "inputs": [
        {
          "indexed": false,
          "name": "index",
          "type": "uint256"
        },
        {
          "indexed": false,
          "name": "amount",
          "type": "uint256"
        }
      ],
      "name": "CashInBalanceUpdated",
      "type": "event"
    },
    {
      "anonymous": false,
      "inputs": [
        {
          "indexed": false,
          "name": "index",
          "type": "uint256"
        },
        {
          "indexed": false,
          "name": "status",
          "type": "uint256"
        }
      ],
      "name": "CashInStatusUpdated",
      "type": "event"
    },
    {
      "anonymous": false,
      "inputs": [
        {
          "indexed": false,
          "name": "index",
          "type": "uint256"
        },
        {
          "indexed": false,
          "name": "party",
          "type": "address"
        },
        {
          "indexed": false,
          "name": "amount",
          "type": "uint256"
        }
      ],
      "name": "CahsInSplitAdded",
      "type": "event"
    },
    {
      "constant": false,
      "inputs": [
        {
          "name": "sessionId",
          "type": "uint256"
        },
        {
          "name": "application",
          "type": "address"
        },
        {
          "name": "status",
          "type": "uint256"
        }
      ],
      "name": "save",
      "outputs": [
        {
          "name": "index",
          "type": "uint256"
        }
      ],
      "payable": false,
      "stateMutability": "nonpayable",
      "type": "function"
    },
    {
      "constant": true,
      "inputs": [
        {
          "name": "index",
          "type": "uint256"
        }
      ],
      "name": "get",
      "outputs": [
        {
          "name": "sessionId",
          "type": "uint256"
        },
        {
          "name": "application",
          "type": "address"
        },
        {
          "name": "balance",
          "type": "uint256"
        },
        {
          "name": "status",
          "type": "uint256"
        },
        {
          "name": "splitSize",
          "type": "uint256"
        }
      ],
      "payable": false,
      "stateMutability": "view",
      "type": "function"
    },
    {
      "constant": true,
      "inputs": [
        {
          "name": "index",
          "type": "uint256"
        }
      ],
      "name": "getSessionId",
      "outputs": [
        {
          "name": "",
          "type": "uint256"
        }
      ],
      "payable": false,
      "stateMutability": "view",
      "type": "function"
    },
    {
      "constant": true,
      "inputs": [
        {
          "name": "index",
          "type": "uint256"
        }
      ],
      "name": "getApplication",
      "outputs": [
        {
          "name": "",
          "type": "address"
        }
      ],
      "payable": false,
      "stateMutability": "view",
      "type": "function"
    },
    {
      "constant": true,
      "inputs": [
        {
          "name": "index",
          "type": "uint256"
        }
      ],
      "name": "getApplicationAndSessionId",
      "outputs": [
        {
          "name": "application",
          "type": "address"
        },
        {
          "name": "sessionId",
          "type": "uint256"
        }
      ],
      "payable": false,
      "stateMutability": "view",
      "type": "function"
    },
    {
      "constant": false,
      "inputs": [
        {
          "name": "index",
          "type": "uint256"
        },
        {
          "name": "amount",
          "type": "uint256"
        }
      ],
      "name": "setBalance",
      "outputs": [],
      "payable": false,
      "stateMutability": "nonpayable",
      "type": "function"
    },
    {
      "constant": true,
      "inputs": [
        {
          "name": "index",
          "type": "uint256"
        }
      ],
      "name": "getBalance",
      "outputs": [
        {
          "name": "",
          "type": "uint256"
        }
      ],
      "payable": false,
      "stateMutability": "view",
      "type": "function"
    },
    {
      "constant": false,
      "inputs": [
        {
          "name": "index",
          "type": "uint256"
        },
        {
          "name": "status",
          "type": "uint256"
        }
      ],
      "name": "setStatus",
      "outputs": [],
      "payable": false,
      "stateMutability": "nonpayable",
      "type": "function"
    },
    {
      "constant": true,
      "inputs": [
        {
          "name": "index",
          "type": "uint256"
        }
      ],
      "name": "getStatus",
      "outputs": [
        {
          "name": "",
          "type": "uint256"
        }
      ],
      "payable": false,
      "stateMutability": "view",
      "type": "function"
    },
    {
      "constant": false,
      "inputs": [
        {
          "name": "index",
          "type": "uint256"
        },
        {
          "name": "party",
          "type": "address"
        },
        {
          "name": "amount",
          "type": "uint256"
        }
      ],
      "name": "addSplit",
      "outputs": [],
      "payable": false,
      "stateMutability": "nonpayable",
      "type": "function"
    },
    {
      "constant": false,
      "inputs": [
        {
          "name": "index",
          "type": "uint256"
        },
        {
          "name": "parties",
          "type": "address[]"
        },
        {
          "name": "amounts",
          "type": "uint256[]"
        }
      ],
      "name": "addSplits",
      "outputs": [],
      "payable": false,
      "stateMutability": "nonpayable",
      "type": "function"
    },
    {
      "constant": true,
      "inputs": [
        {
          "name": "index",
          "type": "uint256"
        }
      ],
      "name": "getSplitSize",
      "outputs": [
        {
          "name": "",
          "type": "uint256"
        }
      ],
      "payable": false,
      "stateMutability": "view",
      "type": "function"
    },
    {
      "constant": true,
      "inputs": [
        {
          "name": "index",
          "type": "uint256"
        },
        {
          "name": "subIndex",
          "type": "uint256"
        }
      ],
      "name": "getSplit",
      "outputs": [
        {
          "name": "",
          "type": "address"
        },
        {
          "name": "",
          "type": "uint256"
        }
      ],
      "payable": false,
      "stateMutability": "view",
      "type": "function"
    }
  ],
  "bytecode": "0x60806040523480156200001157600080fd5b5060405160208062002a6e833981018060405281019080805190602001909291905050508060008173ffffffffffffffffffffffffffffffffffffffff1614151515620000c6576040517f08c379a00000000000000000000000000000000000000000000000000000000081526004018080602001828103825260168152602001807f53797374656d2073746174652076696f6c6174696f6e0000000000000000000081525060200191505060405180910390fd5b806000806101000a81548173ffffffffffffffffffffffffffffffffffffffff021916908373ffffffffffffffffffffffffffffffffffffffff1602179055506000809054906101000a900473ffffffffffffffffffffffffffffffffffffffff1673ffffffffffffffffffffffffffffffffffffffff16631e59c5296200015c6200026c640100000000026401000000009004565b306040518363ffffffff167c010000000000000000000000000000000000000000000000000000000002815260040180806020018373ffffffffffffffffffffffffffffffffffffffff1673ffffffffffffffffffffffffffffffffffffffff168152602001828103825284818151815260200191508051906020019080838360005b83811015620001fc578082015181840152602081019050620001df565b50505050905090810190601f1680156200022a5780820380516001836020036101000a031916815260200191505b509350505050600060405180830381600087803b1580156200024b57600080fd5b505af115801562000260573d6000803e3d6000fd5b505050505050620002a9565b60606040805190810160405280600f81526020017f636173682d696e2d73746f726167650000000000000000000000000000000000815250905090565b6127b580620002b96000396000f3006080604052600436106100c5576000357c0100000000000000000000000000000000000000000000000000000000900463ffffffff1680631e010439146100ca5780631f2f4bfd1461010b57806333263ad61461017857806333d43dbd146101b95780634a4b9feb146102375780635c622a0e1461026e5780636a84f717146102af5780636e19cb181461031a57806382e408131461035b57806390bf10b0146103925780639507d39a146103ef578063a9bdb60114610478578063baa135d4146104cf575b600080fd5b3480156100d657600080fd5b506100f560048036038101908080359060200190929190505050610543565b6040518082815260200191505060405180910390f35b34801561011757600080fd5b50610136600480360381019080803590602001909291905050506105b2565b604051808273ffffffffffffffffffffffffffffffffffffffff1673ffffffffffffffffffffffffffffffffffffffff16815260200191505060405180910390f35b34801561018457600080fd5b506101a360048036038101908080359060200190929190505050610621565b6040518082815260200191505060405180910390f35b3480156101c557600080fd5b506101ee6004803603810190808035906020019092919080359060200190929190505050610690565b604051808373ffffffffffffffffffffffffffffffffffffffff1673ffffffffffffffffffffffffffffffffffffffff1681526020018281526020019250505060405180910390f35b34801561024357600080fd5b5061026c6004803603810190808035906020019092919080359060200190929190505050610706565b005b34801561027a57600080fd5b50610299600480360381019080803590602001909291905050506107b1565b6040518082815260200191505060405180910390f35b3480156102bb57600080fd5b5061030460048036038101908080359060200190929190803573ffffffffffffffffffffffffffffffffffffffff16906020019092919080359060200190929190505050610820565b6040518082815260200191505060405180910390f35b34801561032657600080fd5b5061034560048036038101908080359060200190929190505050610910565b6040518082815260200191505060405180910390f35b34801561036757600080fd5b50610390600480360381019080803590602001909291908035906020019092919050505061097f565b005b34801561039e57600080fd5b506103ed60048036038101908080359060200190929190803590602001908201803590602001919091929391929390803590602001908201803590602001919091929391929390505050610a2a565b005b3480156103fb57600080fd5b5061041a60048036038101908080359060200190929190505050610af9565b604051808681526020018573ffffffffffffffffffffffffffffffffffffffff1673ffffffffffffffffffffffffffffffffffffffff1681526020018481526020018381526020018281526020019550505050505060405180910390f35b34801561048457600080fd5b506104cd60048036038101908080359060200190929190803573ffffffffffffffffffffffffffffffffffffffff16906020019092919080359060200190929190505050610b7a565b005b3480156104db57600080fd5b506104fa60048036038101908080359060200190929190505050610c5c565b604051808373ffffffffffffffffffffffffffffffffffffffff1673ffffffffffffffffffffffffffffffffffffffff1681526020018281526020019250505060405180910390f35b60006105ab826105876040805190810160405280600881526020017f6461746162617365000000000000000000000000000000000000000000000000815250610d34565b73ffffffffffffffffffffffffffffffffffffffff16610efc90919063ffffffff16565b9050919050565b600061061a826105f66040805190810160405280600881526020017f6461746162617365000000000000000000000000000000000000000000000000815250610d34565b73ffffffffffffffffffffffffffffffffffffffff16610ff690919063ffffffff16565b9050919050565b6000610689826106656040805190810160405280600881526020017f6461746162617365000000000000000000000000000000000000000000000000815250610d34565b73ffffffffffffffffffffffffffffffffffffffff166110f090919063ffffffff16565b9050919050565b6000806106fb84846106d66040805190810160405280600881526020017f6461746162617365000000000000000000000000000000000000000000000000815250610d34565b73ffffffffffffffffffffffffffffffffffffffff166111ea9092919063ffffffff16565b915091509250929050565b61076e82826107496040805190810160405280600881526020017f6461746162617365000000000000000000000000000000000000000000000000815250610d34565b73ffffffffffffffffffffffffffffffffffffffff166113db9092919063ffffffff16565b7f8675c9b21154c77f765df18fbb6c2f5bb9ee8d28c9d5de2f2844919fa56d91648282604051808381526020018281526020019250505060405180910390a15050565b6000610819826107f56040805190810160405280600881526020017f6461746162617365000000000000000000000000000000000000000000000000815250610d34565b73ffffffffffffffffffffffffffffffffffffffff166114b590919063ffffffff16565b9050919050565b600061088c8484846108666040805190810160405280600881526020017f6461746162617365000000000000000000000000000000000000000000000000815250610d34565b73ffffffffffffffffffffffffffffffffffffffff166115af909392919063ffffffff16565b90507f16e1a5cd5f822cfa500739a49634b7f9fb66be2e8de8917bc552f70fb108755184848484604051808581526020018473ffffffffffffffffffffffffffffffffffffffff1673ffffffffffffffffffffffffffffffffffffffff16815260200183815260200182815260200194505050505060405180910390a19392505050565b6000610978826109546040805190810160405280600881526020017f6461746162617365000000000000000000000000000000000000000000000000815250610d34565b73ffffffffffffffffffffffffffffffffffffffff16611b1690919063ffffffff16565b9050919050565b6109e782826109c26040805190810160405280600881526020017f6461746162617365000000000000000000000000000000000000000000000000815250610d34565b73ffffffffffffffffffffffffffffffffffffffff16611c109092919063ffffffff16565b7f17422b0bc45a88ade572f0c94bf86f21f9a863d8b942193fe5bf3572d715974f8282604051808381526020018281526020019250505060405180910390a15050565b610af285858580806020026020016040519081016040528093929190818152602001838360200280828437820191505050505050848480806020026020016040519081016040528093929190818152602001838360200280828437820191505050505050610acc6040805190810160405280600881526020017f6461746162617365000000000000000000000000000000000000000000000000815250610d34565b73ffffffffffffffffffffffffffffffffffffffff16611cea909392919063ffffffff16565b5050505050565b6000806000806000610b6786610b436040805190810160405280600881526020017f6461746162617365000000000000000000000000000000000000000000000000815250610d34565b73ffffffffffffffffffffffffffffffffffffffff16611d4790919063ffffffff16565b9450945094509450945091939590929450565b610be4838383610bbe6040805190810160405280600881526020017f6461746162617365000000000000000000000000000000000000000000000000815250610d34565b73ffffffffffffffffffffffffffffffffffffffff16612213909392919063ffffffff16565b7fcb195f72a6233faf4f99324cc9a4ae1820bdf4534480980da68eaebd439ed413838383604051808481526020018373ffffffffffffffffffffffffffffffffffffffff1673ffffffffffffffffffffffffffffffffffffffff168152602001828152602001935050505060405180910390a1505050565b600080610cc583610ca16040805190810160405280600881526020017f6461746162617365000000000000000000000000000000000000000000000000815250610d34565b73ffffffffffffffffffffffffffffffffffffffff16610ff690919063ffffffff16565b9150610d2d83610d096040805190810160405280600881526020017f6461746162617365000000000000000000000000000000000000000000000000815250610d34565b73ffffffffffffffffffffffffffffffffffffffff16611b1690919063ffffffff16565b9050915091565b60008060009054906101000a900473ffffffffffffffffffffffffffffffffffffffff1673ffffffffffffffffffffffffffffffffffffffff1663693ec85e836040518263ffffffff167c01000000000000000000000000000000000000000000000000000000000281526004018080602001828103825283818151815260200191508051906020019080838360005b83811015610ddf578082015181840152602081019050610dc4565b50505050905090810190601f168015610e0c5780820380516001836020036101000a031916815260200191505b5092505050602060405180830381600087803b158015610e2b57600080fd5b505af1158015610e3f573d6000803e3d6000fd5b505050506040513d6020811015610e5557600080fd5b8101908080519060200190929190505050905060008173ffffffffffffffffffffffffffffffffffffffff1614151515610ef7576040517f08c379a00000000000000000000000000000000000000000000000000000000081526004018080602001828103825260168152602001807f53797374656d2073746174652076696f6c6174696f6e0000000000000000000081525060200191505060405180910390fd5b919050565b60008273ffffffffffffffffffffffffffffffffffffffff1663e82617fb610f596040805190810160405280600f81526020017f636173685f696e5f62616c616e63650000000000000000000000000000000000815250856125be565b6040518263ffffffff167c0100000000000000000000000000000000000000000000000000000000028152600401808260001916600019168152602001915050602060405180830381600087803b158015610fb357600080fd5b505af1158015610fc7573d6000803e3d6000fd5b505050506040513d6020811015610fdd57600080fd5b8101908080519060200190929190505050905092915050565b60008273ffffffffffffffffffffffffffffffffffffffff16634c77e5ba6110536040805190810160405280601381526020017f636173685f696e5f6170706c69636174696f6e00000000000000000000000000815250856125be565b6040518263ffffffff167c0100000000000000000000000000000000000000000000000000000000028152600401808260001916600019168152602001915050602060405180830381600087803b1580156110ad57600080fd5b505af11580156110c1573d6000803e3d6000fd5b505050506040513d60208110156110d757600080fd5b8101908080519060200190929190505050905092915050565b60008273ffffffffffffffffffffffffffffffffffffffff1663e82617fb61114d6040805190810160405280601281526020017f636173685f696e5f73706c69745f73697a650000000000000000000000000000815250856125be565b6040518263ffffffff167c0100000000000000000000000000000000000000000000000000000000028152600401808260001916600019168152602001915050602060405180830381600087803b1580156111a757600080fd5b505af11580156111bb573d6000803e3d6000fd5b505050506040513d60208110156111d157600080fd5b8101908080519060200190929190505050905092915050565b6000808473ffffffffffffffffffffffffffffffffffffffff16634c77e5ba6112496040805190810160405280601581526020017f636173685f696e5f73706c69745f706172746965730000000000000000000000815250878761269f565b6040518263ffffffff167c0100000000000000000000000000000000000000000000000000000000028152600401808260001916600019168152602001915050602060405180830381600087803b1580156112a357600080fd5b505af11580156112b7573d6000803e3d6000fd5b505050506040513d60208110156112cd57600080fd5b810190808051906020019092919050505091508473ffffffffffffffffffffffffffffffffffffffff1663e82617fb61133c6040805190810160405280601281526020017f636173685f696e5f73706c69745f666565730000000000000000000000000000815250878761269f565b6040518263ffffffff167c0100000000000000000000000000000000000000000000000000000000028152600401808260001916600019168152602001915050602060405180830381600087803b15801561139657600080fd5b505af11580156113aa573d6000803e3d6000fd5b505050506040513d60208110156113c057600080fd5b81019080805190602001909291905050509050935093915050565b8273ffffffffffffffffffffffffffffffffffffffff1663ffb4f6236114366040805190810160405280600f81526020017f636173685f696e5f62616c616e63650000000000000000000000000000000000815250856125be565b836040518363ffffffff167c010000000000000000000000000000000000000000000000000000000002815260040180836000191660001916815260200182815260200192505050600060405180830381600087803b15801561149857600080fd5b505af11580156114ac573d6000803e3d6000fd5b50505050505050565b60008273ffffffffffffffffffffffffffffffffffffffff1663e82617fb6115126040805190810160405280600e81526020017f636173685f696e5f737461747573000000000000000000000000000000000000815250856125be565b6040518263ffffffff167c0100000000000000000000000000000000000000000000000000000000028152600401808260001916600019168152602001915050602060405180830381600087803b15801561156c57600080fd5b505af1158015611580573d6000803e3d6000fd5b505050506040513d602081101561159657600080fd5b8101908080519060200190929190505050905092915050565b60008473ffffffffffffffffffffffffffffffffffffffff1663e82617fb60405160200180806020018281038252600b8152602001807f43617368496e496e6465780000000000000000000000000000000000000000008152506020019150506040516020818303038152906040526040518082805190602001908083835b602083101515611653578051825260208201915060208101905060208303925061162e565b6001836020036101000a03801982511681845116808217855250505050505090500191505060405180910390206040518263ffffffff167c0100000000000000000000000000000000000000000000000000000000028152600401808260001916600019168152602001915050602060405180830381600087803b1580156116da57600080fd5b505af11580156116ee573d6000803e3d6000fd5b505050506040513d602081101561170457600080fd5b810190808051906020019092919050505090508473ffffffffffffffffffffffffffffffffffffffff1663ffb4f6236117726040805190810160405280601281526020017f636173685f696e5f73657373696f6e5f69640000000000000000000000000000815250846125be565b866040518363ffffffff167c010000000000000000000000000000000000000000000000000000000002815260040180836000191660001916815260200182815260200192505050600060405180830381600087803b1580156117d457600080fd5b505af11580156117e8573d6000803e3d6000fd5b505050508473ffffffffffffffffffffffffffffffffffffffff16635a2bf25a6118476040805190810160405280601381526020017f636173685f696e5f6170706c69636174696f6e00000000000000000000000000815250846125be565b856040518363ffffffff167c01000000000000000000000000000000000000000000000000000000000281526004018083600019166000191681526020018273ffffffffffffffffffffffffffffffffffffffff1673ffffffffffffffffffffffffffffffffffffffff16815260200192505050600060405180830381600087803b1580156118d557600080fd5b505af11580156118e9573d6000803e3d6000fd5b505050508473ffffffffffffffffffffffffffffffffffffffff1663ffb4f6236119486040805190810160405280600e81526020017f636173685f696e5f737461747573000000000000000000000000000000000000815250846125be565b846040518363ffffffff167c010000000000000000000000000000000000000000000000000000000002815260040180836000191660001916815260200182815260200192505050600060405180830381600087803b1580156119aa57600080fd5b505af11580156119be573d6000803e3d6000fd5b505050508473ffffffffffffffffffffffffffffffffffffffff1663ffb4f62360405160200180806020018281038252600b8152602001807f43617368496e496e6465780000000000000000000000000000000000000000008152506020019150506040516020818303038152906040526040518082805190602001908083835b602083101515611a645780518252602082019150602081019050602083039250611a3f565b6001836020036101000a0380198251168184511680821785525050505050509050019150506040518091039020600184016040518363ffffffff167c010000000000000000000000000000000000000000000000000000000002815260040180836000191660001916815260200182815260200192505050600060405180830381600087803b158015611af657600080fd5b505af1158015611b0a573d6000803e3d6000fd5b50505050949350505050565b60008273ffffffffffffffffffffffffffffffffffffffff1663e82617fb611b736040805190810160405280601281526020017f636173685f696e5f73657373696f6e5f69640000000000000000000000000000815250856125be565b6040518263ffffffff167c0100000000000000000000000000000000000000000000000000000000028152600401808260001916600019168152602001915050602060405180830381600087803b158015611bcd57600080fd5b505af1158015611be1573d6000803e3d6000fd5b505050506040513d6020811015611bf757600080fd5b8101908080519060200190929190505050905092915050565b8273ffffffffffffffffffffffffffffffffffffffff1663ffb4f623611c6b6040805190810160405280600e81526020017f636173685f696e5f737461747573000000000000000000000000000000000000815250856125be565b836040518363ffffffff167c010000000000000000000000000000000000000000000000000000000002815260040180836000191660001916815260200182815260200192505050600060405180830381600087803b158015611ccd57600080fd5b505af1158015611ce1573d6000803e3d6000fd5b50505050505050565b60008090505b8251811015611d4057611d3385858584815181101515611d0c57fe5b906020019060200201518585815181101515611d2457fe5b90602001906020020151612213565b8080600101915050611cf0565b5050505050565b60008060008060008673ffffffffffffffffffffffffffffffffffffffff1663e82617fb611daa6040805190810160405280601281526020017f636173685f696e5f73657373696f6e5f69640000000000000000000000000000815250896125be565b6040518263ffffffff167c0100000000000000000000000000000000000000000000000000000000028152600401808260001916600019168152602001915050602060405180830381600087803b158015611e0457600080fd5b505af1158015611e18573d6000803e3d6000fd5b505050506040513d6020811015611e2e57600080fd5b810190808051906020019092919050505094508673ffffffffffffffffffffffffffffffffffffffff16634c77e5ba611e9c6040805190810160405280601381526020017f636173685f696e5f6170706c69636174696f6e00000000000000000000000000815250896125be565b6040518263ffffffff167c0100000000000000000000000000000000000000000000000000000000028152600401808260001916600019168152602001915050602060405180830381600087803b158015611ef657600080fd5b505af1158015611f0a573d6000803e3d6000fd5b505050506040513d6020811015611f2057600080fd5b810190808051906020019092919050505093508673ffffffffffffffffffffffffffffffffffffffff1663e82617fb611f8e6040805190810160405280600f81526020017f636173685f696e5f62616c616e63650000000000000000000000000000000000815250896125be565b6040518263ffffffff167c0100000000000000000000000000000000000000000000000000000000028152600401808260001916600019168152602001915050602060405180830381600087803b158015611fe857600080fd5b505af1158015611ffc573d6000803e3d6000fd5b505050506040513d602081101561201257600080fd5b810190808051906020019092919050505092508673ffffffffffffffffffffffffffffffffffffffff1663e82617fb6120806040805190810160405280600e81526020017f636173685f696e5f737461747573000000000000000000000000000000000000815250896125be565b6040518263ffffffff167c0100000000000000000000000000000000000000000000000000000000028152600401808260001916600019168152602001915050602060405180830381600087803b1580156120da57600080fd5b505af11580156120ee573d6000803e3d6000fd5b505050506040513d602081101561210457600080fd5b810190808051906020019092919050505091508673ffffffffffffffffffffffffffffffffffffffff1663e82617fb6121726040805190810160405280601281526020017f636173685f696e5f73706c69745f73697a650000000000000000000000000000815250896125be565b6040518263ffffffff167c0100000000000000000000000000000000000000000000000000000000028152600401808260001916600019168152602001915050602060405180830381600087803b1580156121cc57600080fd5b505af11580156121e0573d6000803e3d6000fd5b505050506040513d60208110156121f657600080fd5b810190808051906020019092919050505090509295509295909350565b60008473ffffffffffffffffffffffffffffffffffffffff1663e82617fb6122706040805190810160405280601281526020017f636173685f696e5f73706c69745f73697a650000000000000000000000000000815250876125be565b6040518263ffffffff167c0100000000000000000000000000000000000000000000000000000000028152600401808260001916600019168152602001915050602060405180830381600087803b1580156122ca57600080fd5b505af11580156122de573d6000803e3d6000fd5b505050506040513d60208110156122f457600080fd5b810190808051906020019092919050505090508473ffffffffffffffffffffffffffffffffffffffff16635a2bf25a6123636040805190810160405280601581526020017f636173685f696e5f73706c69745f706172746965730000000000000000000000815250878561269f565b856040518363ffffffff167c01000000000000000000000000000000000000000000000000000000000281526004018083600019166000191681526020018273ffffffffffffffffffffffffffffffffffffffff1673ffffffffffffffffffffffffffffffffffffffff16815260200192505050600060405180830381600087803b1580156123f157600080fd5b505af1158015612405573d6000803e3d6000fd5b505050508473ffffffffffffffffffffffffffffffffffffffff1663ffb4f6236124656040805190810160405280601281526020017f636173685f696e5f73706c69745f666565730000000000000000000000000000815250878561269f565b846040518363ffffffff167c010000000000000000000000000000000000000000000000000000000002815260040180836000191660001916815260200182815260200192505050600060405180830381600087803b1580156124c757600080fd5b505af11580156124db573d6000803e3d6000fd5b505050508473ffffffffffffffffffffffffffffffffffffffff1663ffb4f62361253a6040805190810160405280601281526020017f636173685f696e5f73706c69745f73697a650000000000000000000000000000815250876125be565b600184016040518363ffffffff167c010000000000000000000000000000000000000000000000000000000002815260040180836000191660001916815260200182815260200192505050600060405180830381600087803b15801561259f57600080fd5b505af11580156125b3573d6000803e3d6000fd5b505050505050505050565b600082826040516020018083805190602001908083835b6020831015156125fa57805182526020820191506020810190506020830392506125d5565b6001836020036101000a038019825116818451168082178552505050505050905001828152602001925050506040516020818303038152906040526040518082805190602001908083835b60208310151561266a5780518252602082019150602081019050602083039250612645565b6001836020036101000a0380198251168184511680821785525050505050509050019150506040518091039020905092915050565b60008383836040516020018084805190602001908083835b6020831015156126dc57805182526020820191506020810190506020830392506126b7565b6001836020036101000a03801982511681845116808217855250505050505090500183815260200182815260200193505050506040516020818303038152906040526040518082805190602001908083835b602083101515612753578051825260208201915060208101905060208303925061272e565b6001836020036101000a0380198251168184511680821785525050505050509050019150506040518091039020905093925050505600a165627a7a723058208a877bf7b8ce28c5fa70d68c13a4cc53c26db33009920a2bb17041575e1026b10029",
  "source": "pragma solidity 0.4.24;\n\nimport \"./CashInLib.sol\";\nimport \"../../registry/RegistryComponent.sol\";\n\ncontract CashInStorage is RegistryComponent {\n\n    string constant COMPONENT_NAME = \"cash-in-storage\";\n    string constant DATABASE = \"database\";\n\n    event CashInSaved(uint256 sessionId, address application, uint256 status, uint256 index);\n    event CashInBalanceUpdated(uint256 index, uint256 amount);\n    event CashInStatusUpdated(uint256 index, uint256 status);\n    event CahsInSplitAdded(uint256 index, address party, uint256 amount);\n\n    using CashInLib for address;\n\n    constructor(address registryAddr) RegistryComponent(registryAddr) public {}\n\n    function getName() internal pure returns(string) {\n        return COMPONENT_NAME;\n    }\n\n    function save(uint256 sessionId, address application, uint256 status) external returns(uint256 index) {\n        index = lookup(DATABASE).save(sessionId, application, status);\n        emit CashInSaved(sessionId, application, status, index);\n    }\n\n    function get(uint256 index) external view \n    returns(\n        uint256 sessionId,\n        address application,\n        uint256 balance,\n        uint256 status,\n        uint256 splitSize\n    ) {\n        return lookup(DATABASE).get(index);\n    }\n\n    function getSessionId(uint256 index) external view returns(uint256) {\n        return lookup(DATABASE).getSessionId(index);\n    }\n\n    function getApplication(uint256 index) external view returns(address) {\n        return lookup(DATABASE).getApplication(index);\n    }\n\n    function getApplicationAndSessionId(uint256 index) external view returns(address application, uint256 sessionId) {\n        application = lookup(DATABASE).getApplication(index);\n        sessionId = lookup(DATABASE).getSessionId(index);\n    }\n\n    function setBalance(uint256 index, uint256 amount) external {\n        lookup(DATABASE).setBalance(index, amount);\n        emit CashInBalanceUpdated(index, amount);\n    }\n\n    function getBalance(uint256 index) external view returns(uint256) {\n        return lookup(DATABASE).getBalance(index);\n    }\n\n    function setStatus(uint256 index, uint256 status) external {\n        lookup(DATABASE).setStatus(index, status);\n        emit CashInStatusUpdated(index, status);\n    }\n\n    function getStatus(uint256 index) external view returns(uint256) {\n        return lookup(DATABASE).getStatus(index);\n    }\n\n    function addSplit(uint256 index, address party, uint256 amount) external {\n        lookup(DATABASE).addSplit(index, party, amount);\n        emit CahsInSplitAdded(index, party, amount);\n    }\n\n    function addSplits(uint256 index, address[] parties, uint256[] amounts) external {\n        lookup(DATABASE).addSplits(index, parties, amounts);\n    }\n\n    function getSplitSize(uint256 index) external view returns(uint256) {\n        return lookup(DATABASE).getSplitSize(index);\n    }\n\n    function getSplit(uint256 index, uint256 subIndex) external view returns(address, uint256) {\n        return lookup(DATABASE).getSplit(index, subIndex);\n    }\n\n}",
  "sourcePath": "/home/andrew/vault-logic-project/Development/test/vault-logic-api/src/main/java/com/skysoft/vaultlogic/blockchain/truffle/contracts/repositories/cash-in/CashInStorage.sol",
  "compiler": {
    "name": "solc",
    "version": "0.4.24+commit.e67f0147.Emscripten.clang"
  },
  "schemaVersion": "2.0.1",
  "updatedAt": "2018-09-06T08:11:37.860Z"
}