{
  "contractName": "CashInLib",
  "abi": [
    {
      "constant": true,
      "inputs": [
        {
          "name": "self",
          "type": "address"
        }
      ],
      "name": "getCounter",
      "outputs": [
        {
          "name": "",
          "type": "uint256"
        }
      ],
      "payable": false,
      "stateMutability": "view",
      "type": "function"
    }
  ],
  "bytecode": "0x61023f610030600b82828239805160001a6073146000811461002057610022565bfe5b5030600052607381538281f3007300000000000000000000000000000000000000003014608060405260043610610058576000357c0100000000000000000000000000000000000000000000000000000000900463ffffffff168063f07ec3731461005d575b600080fd5b610091600480360381019080803573ffffffffffffffffffffffffffffffffffffffff1690602001909291905050506100a7565b6040518082815260200191505060405180910390f35b60008173ffffffffffffffffffffffffffffffffffffffff1663e82617fb60405160200180806020018281038252600b8152602001807f43617368496e496e6465780000000000000000000000000000000000000000008152506020019150506040516020818303038152906040526040518082805190602001908083835b60208310151561014b5780518252602082019150602081019050602083039250610126565b6001836020036101000a03801982511681845116808217855250505050505090500191505060405180910390206040518263ffffffff167c0100000000000000000000000000000000000000000000000000000000028152600401808260001916600019168152602001915050602060405180830381600087803b1580156101d257600080fd5b505af11580156101e6573d6000803e3d6000fd5b505050506040513d60208110156101fc57600080fd5b8101908080519060200190929190505050509190505600a165627a7a72305820f7c895e386f3563d93fc4652bc889ffe1fd58405801534b86f6ab584445962b00029",
  "source": "pragma solidity 0.4.24;\n\nimport \"../../storage/Database.sol\";\n\nlibrary CashInLib {\n\n    bytes32 constant CASH_IN_INDEX = keccak256(abi.encode(\"CashInIndex\"));\n\n    string constant SESSION_ID = \"cash_in_session_id\";\n    string constant APPLICATION = \"cash_in_application\";\n    string constant STATUS = \"cash_in_status\";\n    string constant BALANCE = \"cash_in_balance\";\n\n    ///@dev set of constants to store and retrieve dynamic sized arrays of splits\n    string constant SPLIT_SIZE = \"cash_in_split_size\";\n    string constant SPLIT_PARTIES = \"cash_in_split_parties\";\n    string constant SPLIT_FEES = \"cash_in_split_fees\";\n\n    function getCounter(address self) public view returns(uint256) {\n        Database(self).getUintValue(CASH_IN_INDEX);\n    }\n\n    function save(address self, uint256 sessionId, address application, uint256 status) internal returns(uint256 index) {\n        index = Database(self).getUintValue(CASH_IN_INDEX);\n        Database(self).setUintValue(string256(SESSION_ID, index), sessionId);\n        Database(self).setAddressValue(string256(APPLICATION, index), application);\n        Database(self).setUintValue(string256(STATUS, index), status);\n        Database(self).setUintValue(CASH_IN_INDEX, index + 1);\n    }\n\n    /// @dev size of both arrays (e.g. parties and fees) stored in separate field 'splitSize'\n    function get(address self, uint256 index) internal view returns(\n        uint256 sessionId,\n        address application,\n        uint256 balance,\n        uint256 status, \n        uint256 splitSize\n    ) {\n        sessionId = Database(self).getUintValue(string256(SESSION_ID, index));\n        application = Database(self).getAddressValue(string256(APPLICATION, index));\n        balance = Database(self).getUintValue(string256(BALANCE, index));\n        status = Database(self).getUintValue(string256(STATUS, index));\n        splitSize = Database(self).getUintValue(string256(SPLIT_SIZE, index));\n    }\n\n    function getSessionId(address self, uint256 index) internal view returns(uint256) {\n        return Database(self).getUintValue(string256(SESSION_ID, index));\n    }\n\n    function getApplication(address self, uint256 index) internal view returns(address) {\n        return Database(self).getAddressValue(string256(APPLICATION, index));\n    }\n\n    function setBalance(address self, uint256 index, uint256 amount) internal {\n        Database(self).setUintValue(string256(BALANCE, index), amount);\n    }\n\n    function getBalance(address self, uint256 index) internal view returns (uint256) {\n        return Database(self).getUintValue(string256(BALANCE, index));\n    }\n\n    function setStatus(address self, uint256 index, uint256 status) internal {\n        Database(self).setUintValue(string256(STATUS, index), uint256(status));\n    }\n\n    function getStatus(address self, uint256 index) internal view returns(uint256) {\n        return Database(self).getUintValue(string256(STATUS, index));\n    }\n\n    function addSplit(address self, uint256 index, address receiver, uint256 amount) internal {\n        uint256 splitSize = Database(self).getUintValue(string256(SPLIT_SIZE, index));\n        Database(self).setAddressValue(string256x2(SPLIT_PARTIES, index, splitSize), receiver);\n        Database(self).setUintValue(string256x2(SPLIT_FEES, index, splitSize), amount);\n        Database(self).setUintValue(string256(SPLIT_SIZE, index), splitSize + 1);\n    }\n\n    function addSplits(address self, uint256 index, address[] receivers, uint256[] amounts) internal {\n        for (uint256 i = 0; i < receivers.length; i++) {\n            addSplit(self, index, receivers[i], amounts[i]);\n        }\n    }\n\n    function getSplitSize(address self, uint256 index) internal view returns(uint256) {\n        return Database(self).getUintValue(string256(SPLIT_SIZE, index));\n    }\n\n    function getSplit(address self, uint256 index, uint256 subIndex) internal view returns(address party, uint256 fee) {\n        party = Database(self).getAddressValue(string256x2(SPLIT_PARTIES, index, subIndex));\n        fee = Database(self).getUintValue(string256x2(SPLIT_FEES, index, subIndex));\n    }\n\n    function string256(string field, uint256 index) private pure returns(bytes32) {\n        return keccak256(abi.encodePacked(field, index));\n    }\n\n    function string256x2(string field, uint256 index, uint256 counter) private pure returns(bytes32) {\n        return keccak256(abi.encodePacked(field, index, counter));\n    }\n    \n}",
  "sourcePath": "/home/andrew/vault-logic-project/Development/test/vault-logic-api/src/main/java/com/skysoft/vaultlogic/blockchain/truffle/contracts/repositories/cash-in/CashInLib.sol",
  "compiler": {
    "name": "solc",
    "version": "0.4.24+commit.e67f0147.Emscripten.clang"
  },
  "schemaVersion": "2.0.1",
  "updatedAt": "2018-09-06T11:53:02.488Z"
}