{
  "contractName": "ContractRegistry",
  "abi": [
    {
      "constant": true,
      "inputs": [
        {
          "name": "",
          "type": "uint256"
        }
      ],
      "name": "names",
      "outputs": [
        {
          "name": "",
          "type": "string"
        }
      ],
      "payable": false,
      "stateMutability": "view",
      "type": "function"
    },
    {
      "constant": true,
      "inputs": [],
      "name": "numberOfComponents",
      "outputs": [
        {
          "name": "",
          "type": "uint256"
        }
      ],
      "payable": false,
      "stateMutability": "view",
      "type": "function"
    },
    {
      "anonymous": false,
      "inputs": [
        {
          "indexed": false,
          "name": "name",
          "type": "string"
        },
        {
          "indexed": false,
          "name": "addr",
          "type": "address"
        },
        {
          "indexed": false,
          "name": "index",
          "type": "uint256"
        }
      ],
      "name": "ComponentRegistered",
      "type": "event"
    },
    {
      "anonymous": false,
      "inputs": [
        {
          "indexed": false,
          "name": "name",
          "type": "string"
        },
        {
          "indexed": false,
          "name": "addr",
          "type": "address"
        }
      ],
      "name": "ComponentAddressUpdated",
      "type": "event"
    },
    {
      "constant": true,
      "inputs": [
        {
          "name": "name",
          "type": "string"
        }
      ],
      "name": "get",
      "outputs": [
        {
          "name": "",
          "type": "address"
        }
      ],
      "payable": false,
      "stateMutability": "view",
      "type": "function"
    },
    {
      "constant": false,
      "inputs": [
        {
          "name": "name",
          "type": "string"
        },
        {
          "name": "addr",
          "type": "address"
        }
      ],
      "name": "register",
      "outputs": [],
      "payable": false,
      "stateMutability": "nonpayable",
      "type": "function"
    },
    {
      "constant": false,
      "inputs": [
        {
          "name": "name",
          "type": "string"
        }
      ],
      "name": "disable",
      "outputs": [],
      "payable": false,
      "stateMutability": "nonpayable",
      "type": "function"
    },
    {
      "constant": false,
      "inputs": [
        {
          "name": "name",
          "type": "string"
        }
      ],
      "name": "enable",
      "outputs": [],
      "payable": false,
      "stateMutability": "nonpayable",
      "type": "function"
    },
    {
      "constant": true,
      "inputs": [
        {
          "name": "name",
          "type": "string"
        }
      ],
      "name": "getState",
      "outputs": [
        {
          "name": "",
          "type": "bool"
        }
      ],
      "payable": false,
      "stateMutability": "view",
      "type": "function"
    }
  ],
  "bytecode": "0x608060405234801561001057600080fd5b506109db806100206000396000f300608060405260043610610083576000357c0100000000000000000000000000000000000000000000000000000000900463ffffffff1680631e59c529146100885780634622ab03146100e35780635526dd5c14610189578063693ec85e146101b4578063b8724c591461022f578063e299838114610298578063e33f77ca14610301575b600080fd5b34801561009457600080fd5b506100e1600480360381019080803590602001908201803590602001919091929391929390803573ffffffffffffffffffffffffffffffffffffffff169060200190929190505050610382565b005b3480156100ef57600080fd5b5061010e60048036038101908080359060200190929190505050610628565b6040518080602001828103825283818151815260200191508051906020019080838360005b8381101561014e578082015181840152602081019050610133565b50505050905090810190601f16801561017b5780820380516001836020036101000a031916815260200191505b509250505060405180910390f35b34801561019557600080fd5b5061019e6106e3565b6040518082815260200191505060405180910390f35b3480156101c057600080fd5b506101ed6004803603810190808035906020019082018035906020019190919293919293905050506106e9565b604051808273ffffffffffffffffffffffffffffffffffffffff1673ffffffffffffffffffffffffffffffffffffffff16815260200191505060405180910390f35b34801561023b57600080fd5b50610296600480360381019080803590602001908201803590602001908080601f016020809104026020016040519081016040528093929190818152602001838380828437820191505050505050919291929050505061077b565b005b3480156102a457600080fd5b506102ff600480360381019080803590602001908201803590602001908080601f0160208091040260200160405190810160405280939291908181526020018383808284378201915050505050509192919290505050610801565b005b34801561030d57600080fd5b50610368600480360381019080803590602001908201803590602001908080601f0160208091040260200160405190810160405280939291908181526020018383808284378201915050505050509192919290505050610888565b604051808215151515815260200191505060405180910390f35b6000806000858560405180838380828437820191505092505050908152602001604051809103902060009054906101000a900473ffffffffffffffffffffffffffffffffffffffff1673ffffffffffffffffffffffffffffffffffffffff161415610538576001600485859091806001815401808255809150509060018203906000526020600020016000909192939091929390919290919250919061042992919061090a565b50039050806002858560405180838380828437820191505092505050908152602001604051809103902081905550600180858560405180838380828437820191505092505050908152602001604051809103902060006101000a81548160ff0219169083151502179055506003600081548092919060010191905055507fe77d7ebdd4936d40511dbcfecf21b40bf7382331b72dcf84da3f02455f30b37e8484848460405180806020018473ffffffffffffffffffffffffffffffffffffffff1673ffffffffffffffffffffffffffffffffffffffff168152602001838152602001828103825286868281815260200192508082843782019150509550505050505060405180910390a16105be565b7f5833a4843901e2f97ae5b00fc81ac7fd8e0ac4e1fcf95002f1041e617e74ad2b84848460405180806020018373ffffffffffffffffffffffffffffffffffffffff1673ffffffffffffffffffffffffffffffffffffffff1681526020018281038252858582818152602001925080828437820191505094505050505060405180910390a15b816000858560405180838380828437820191505092505050908152602001604051809103902060006101000a81548173ffffffffffffffffffffffffffffffffffffffff021916908373ffffffffffffffffffffffffffffffffffffffff16021790555050505050565b60048181548110151561063757fe5b906000526020600020016000915090508054600181600116156101000203166002900480601f0160208091040260200160405190810160405280929190818152602001828054600181600116156101000203166002900480156106db5780601f106106b0576101008083540402835291602001916106db565b820191906000526020600020905b8154815290600101906020018083116106be57829003601f168201915b505050505081565b60035481565b60006001838360405180838380828437820191505092505050908152602001604051809103902060009054906101000a900460ff1615610770576000838360405180838380828437820191505092505050908152602001604051809103902060009054906101000a900473ffffffffffffffffffffffffffffffffffffffff169050610775565b600090505b92915050565b600180826040518082805190602001908083835b6020831015156107b4578051825260208201915060208101905060208303925061078f565b6001836020036101000a038019825116818451168082178552505050505050905001915050908152602001604051809103902060006101000a81548160ff02191690831515021790555050565b60006001826040518082805190602001908083835b60208310151561083b5780518252602082019150602081019050602083039250610816565b6001836020036101000a038019825116818451168082178552505050505050905001915050908152602001604051809103902060006101000a81548160ff02191690831515021790555050565b60006001826040518082805190602001908083835b6020831015156108c2578051825260208201915060208101905060208303925061089d565b6001836020036101000a038019825116818451168082178552505050505050905001915050908152602001604051809103902060009054906101000a900460ff169050919050565b828054600181600116156101000203166002900490600052602060002090601f016020900481019282601f1061094b57803560ff1916838001178555610979565b82800160010185558215610979579182015b8281111561097857823582559160200191906001019061095d565b5b509050610986919061098a565b5090565b6109ac91905b808211156109a8576000816000905550600101610990565b5090565b905600a165627a7a7230582000bf3b9e55e83217287a35e110b1c0d594f79e8c5d90a97fda8c7bf141cc3e0a0029",
  "source": "pragma solidity 0.4.24;\r\n\r\ncontract ContractRegistry {\r\n\r\n    event ComponentRegistered(string name, address addr, uint256 index);\r\n    event ComponentAddressUpdated(string name, address addr);\r\n\r\n    mapping(string => address) contracts;\r\n    mapping(string => bool) enabled;\r\n    mapping(string => uint256) indexOfName;\r\n\r\n    uint256 public numberOfComponents;\r\n\r\n    string[] public names;\r\n\r\n    function get(string name) external view returns(address) {\r\n        if (enabled[name]) return contracts[name];\r\n        return 0x0;\r\n    }\r\n\r\n    function register(string name, address addr) external {\r\n        if (contracts[name] == 0x0) {\r\n            uint256 index = names.push(name) - 1;\r\n            indexOfName[name] = index;\r\n            enabled[name] = true;\r\n            numberOfComponents++;\r\n            emit ComponentRegistered(name, addr, index);\r\n        } else {\r\n            emit ComponentAddressUpdated(name, addr);\r\n        }\r\n        contracts[name] = addr;\r\n    }\r\n\r\n    function disable(string name) public {\r\n        enabled[name] = false;\r\n    }\r\n\r\n    function enable(string name) public {\r\n        enabled[name] = true;\r\n    }\r\n\r\n    function getState(string name) public view returns(bool) {\r\n        return enabled[name];\r\n    }\r\n    \r\n}",
  "sourcePath": "C:\\Users\\Andrii\\WebstormProjects\\vl-api-pos\\src\\main\\java\\com\\skysoft\\vaultlogic\\blockchain\\truffle\\contracts\\registry\\ContractRegistry.sol",
  "compiler": {
    "name": "solc",
    "version": "0.4.24+commit.e67f0147.Emscripten.clang"
  },
  "schemaVersion": "2.0.1",
  "updatedAt": "2018-09-06T14:03:49.685Z"
}