{
  "contractName": "Database",
  "abi": [
    {
      "inputs": [
        {
          "name": "regAddr",
          "type": "address"
        }
      ],
      "payable": false,
      "stateMutability": "nonpayable",
      "type": "constructor"
    },
    {
      "constant": true,
      "inputs": [
        {
          "name": "_key",
          "type": "bytes32"
        }
      ],
      "name": "getUintValue",
      "outputs": [
        {
          "name": "",
          "type": "uint256"
        }
      ],
      "payable": false,
      "stateMutability": "view",
      "type": "function"
    },
    {
      "constant": false,
      "inputs": [
        {
          "name": "_key",
          "type": "bytes32"
        },
        {
          "name": "_value",
          "type": "uint256"
        }
      ],
      "name": "setUintValue",
      "outputs": [],
      "payable": false,
      "stateMutability": "nonpayable",
      "type": "function"
    },
    {
      "constant": false,
      "inputs": [
        {
          "name": "_key",
          "type": "bytes32"
        }
      ],
      "name": "deleteUintValue",
      "outputs": [],
      "payable": false,
      "stateMutability": "nonpayable",
      "type": "function"
    },
    {
      "constant": true,
      "inputs": [
        {
          "name": "_key",
          "type": "bytes32"
        }
      ],
      "name": "getStringValue",
      "outputs": [
        {
          "name": "",
          "type": "string"
        }
      ],
      "payable": false,
      "stateMutability": "view",
      "type": "function"
    },
    {
      "constant": false,
      "inputs": [
        {
          "name": "_key",
          "type": "bytes32"
        },
        {
          "name": "_value",
          "type": "string"
        }
      ],
      "name": "setStringValue",
      "outputs": [],
      "payable": false,
      "stateMutability": "nonpayable",
      "type": "function"
    },
    {
      "constant": false,
      "inputs": [
        {
          "name": "_key",
          "type": "bytes32"
        }
      ],
      "name": "deleteStringValue",
      "outputs": [],
      "payable": false,
      "stateMutability": "nonpayable",
      "type": "function"
    },
    {
      "constant": true,
      "inputs": [
        {
          "name": "_key",
          "type": "bytes32"
        }
      ],
      "name": "getAddressValue",
      "outputs": [
        {
          "name": "",
          "type": "address"
        }
      ],
      "payable": false,
      "stateMutability": "view",
      "type": "function"
    },
    {
      "constant": false,
      "inputs": [
        {
          "name": "_key",
          "type": "bytes32"
        },
        {
          "name": "_value",
          "type": "address"
        }
      ],
      "name": "setAddressValue",
      "outputs": [],
      "payable": false,
      "stateMutability": "nonpayable",
      "type": "function"
    },
    {
      "constant": false,
      "inputs": [
        {
          "name": "_key",
          "type": "bytes32"
        }
      ],
      "name": "deleteAddressValue",
      "outputs": [],
      "payable": false,
      "stateMutability": "nonpayable",
      "type": "function"
    },
    {
      "constant": true,
      "inputs": [
        {
          "name": "_key",
          "type": "bytes32"
        }
      ],
      "name": "getBytesValue",
      "outputs": [
        {
          "name": "",
          "type": "bytes"
        }
      ],
      "payable": false,
      "stateMutability": "view",
      "type": "function"
    },
    {
      "constant": false,
      "inputs": [
        {
          "name": "_key",
          "type": "bytes32"
        },
        {
          "name": "_value",
          "type": "bytes"
        }
      ],
      "name": "setBytesValue",
      "outputs": [],
      "payable": false,
      "stateMutability": "nonpayable",
      "type": "function"
    },
    {
      "constant": false,
      "inputs": [
        {
          "name": "_key",
          "type": "bytes32"
        }
      ],
      "name": "deleteBytesValue",
      "outputs": [],
      "payable": false,
      "stateMutability": "nonpayable",
      "type": "function"
    },
    {
      "constant": true,
      "inputs": [
        {
          "name": "_key",
          "type": "bytes32"
        }
      ],
      "name": "getBytes32Value",
      "outputs": [
        {
          "name": "",
          "type": "bytes32"
        }
      ],
      "payable": false,
      "stateMutability": "view",
      "type": "function"
    },
    {
      "constant": false,
      "inputs": [
        {
          "name": "_key",
          "type": "bytes32"
        },
        {
          "name": "_value",
          "type": "bytes32"
        }
      ],
      "name": "setBytes32Value",
      "outputs": [],
      "payable": false,
      "stateMutability": "nonpayable",
      "type": "function"
    },
    {
      "constant": false,
      "inputs": [
        {
          "name": "_key",
          "type": "bytes32"
        }
      ],
      "name": "deleteBytes32Value",
      "outputs": [],
      "payable": false,
      "stateMutability": "nonpayable",
      "type": "function"
    },
    {
      "constant": true,
      "inputs": [
        {
          "name": "_key",
          "type": "bytes32"
        }
      ],
      "name": "getBooleanValue",
      "outputs": [
        {
          "name": "",
          "type": "bool"
        }
      ],
      "payable": false,
      "stateMutability": "view",
      "type": "function"
    },
    {
      "constant": false,
      "inputs": [
        {
          "name": "_key",
          "type": "bytes32"
        },
        {
          "name": "_value",
          "type": "bool"
        }
      ],
      "name": "setBooleanValue",
      "outputs": [],
      "payable": false,
      "stateMutability": "nonpayable",
      "type": "function"
    },
    {
      "constant": false,
      "inputs": [
        {
          "name": "_key",
          "type": "bytes32"
        }
      ],
      "name": "deleteBooleanValue",
      "outputs": [],
      "payable": false,
      "stateMutability": "nonpayable",
      "type": "function"
    },
    {
      "constant": true,
      "inputs": [
        {
          "name": "_key",
          "type": "bytes32"
        }
      ],
      "name": "getIntValue",
      "outputs": [
        {
          "name": "",
          "type": "int256"
        }
      ],
      "payable": false,
      "stateMutability": "view",
      "type": "function"
    },
    {
      "constant": false,
      "inputs": [
        {
          "name": "_key",
          "type": "bytes32"
        },
        {
          "name": "_value",
          "type": "int256"
        }
      ],
      "name": "setIntValue",
      "outputs": [],
      "payable": false,
      "stateMutability": "nonpayable",
      "type": "function"
    },
    {
      "constant": false,
      "inputs": [
        {
          "name": "_key",
          "type": "bytes32"
        }
      ],
      "name": "deleteIntValue",
      "outputs": [],
      "payable": false,
      "stateMutability": "nonpayable",
      "type": "function"
    },
    {
      "constant": false,
      "inputs": [
        {
          "name": "key",
          "type": "bytes32"
        },
        {
          "name": "func",
          "type": "function"
        }
      ],
      "name": "setSingleStringFunction",
      "outputs": [],
      "payable": false,
      "stateMutability": "nonpayable",
      "type": "function"
    },
    {
      "constant": true,
      "inputs": [
        {
          "name": "key",
          "type": "bytes32"
        }
      ],
      "name": "getSingleStringFunction",
      "outputs": [
        {
          "name": "",
          "type": "function"
        }
      ],
      "payable": false,
      "stateMutability": "view",
      "type": "function"
    },
    {
      "constant": false,
      "inputs": [
        {
          "name": "key",
          "type": "bytes32"
        }
      ],
      "name": "deleteSingleStringFunction",
      "outputs": [],
      "payable": false,
      "stateMutability": "nonpayable",
      "type": "function"
    }
  ],
  "bytecode": "0x608060405234801561001057600080fd5b50604051602080611358833981018060405281019080805190602001909291905050508060008173ffffffffffffffffffffffffffffffffffffffff16141515156100c3576040517f08c379a00000000000000000000000000000000000000000000000000000000081526004018080602001828103825260168152602001807f53797374656d2073746174652076696f6c6174696f6e0000000000000000000081525060200191505060405180910390fd5b806000806101000a81548173ffffffffffffffffffffffffffffffffffffffff021916908373ffffffffffffffffffffffffffffffffffffffff1602179055506000809054906101000a900473ffffffffffffffffffffffffffffffffffffffff1673ffffffffffffffffffffffffffffffffffffffff16631e59c529610157610261640100000000026401000000009004565b306040518363ffffffff167c010000000000000000000000000000000000000000000000000000000002815260040180806020018373ffffffffffffffffffffffffffffffffffffffff1673ffffffffffffffffffffffffffffffffffffffff168152602001828103825284818151815260200191508051906020019080838360005b838110156101f55780820151818401526020810190506101da565b50505050905090810190601f1680156102225780820380516001836020036101000a031916815260200191505b509350505050600060405180830381600087803b15801561024257600080fd5b505af1158015610256573d6000803e3d6000fd5b50505050505061029e565b60606040805190810160405280600881526020017f6461746162617365000000000000000000000000000000000000000000000000815250905090565b6110ab806102ad6000396000f30060806040526004361061013e576000357c0100000000000000000000000000000000000000000000000000000000900463ffffffff168063025ec81a14610143578063043106c0146101905780630c55d925146101c1578063124f2418146101f257806317e7dd221461022357806325cf512d1461026c5780633cc1635c146102ab5780633eba9ed2146102dc57806344bfa56e146103195780634c77e5ba146103c35780635a2bf25a146104345780638267a9ee146104855780639007127b146104b65780639d108a80146104fb578063a209a29c1461057b578063a77aa49e14610625578063ba69fcaa14610660578063c9a52d2c14610691578063cf033cde14610708578063d276958d14610739578063e4f302311461079a578063e82617fb146107cb578063f586606614610810578063ffb4f62314610887575b600080fd5b34801561014f57600080fd5b5061017260048036038101908080356000191690602001909291905050506108c2565b60405180826000191660001916815260200191505060405180910390f35b34801561019c57600080fd5b506101bf60048036038101908080356000191690602001909291905050506108e7565b005b3480156101cd57600080fd5b506101f06004803603810190808035600019169060200190929190505050610928565b005b3480156101fe57600080fd5b506102216004803603810190808035600019169060200190929190505050610952565b005b34801561022f57600080fd5b506102526004803603810190808035600019169060200190929190505050610974565b604051808215151515815260200191505060405180910390f35b34801561027857600080fd5b506102a9600480360381019080803560001916906020019092919080356000191690602001909291905050506109a6565b005b3480156102b757600080fd5b506102da60048036038101908080356000191690602001909291905050506109ce565b005b3480156102e857600080fd5b5061031760048036038101908080356000191690602001909291908035151590602001909291905050506109fc565b005b34801561032557600080fd5b506103486004803603810190808035600019169060200190929190505050610a33565b6040518080602001828103825283818151815260200191508051906020019080838360005b8381101561038857808201518184015260208101905061036d565b50505050905090810190601f1680156103b55780820380516001836020036101000a031916815260200191505b509250505060405180910390f35b3480156103cf57600080fd5b506103f26004803603810190808035600019169060200190929190505050610af0565b604051808273ffffffffffffffffffffffffffffffffffffffff1673ffffffffffffffffffffffffffffffffffffffff16815260200191505060405180910390f35b34801561044057600080fd5b506104836004803603810190808035600019169060200190929190803573ffffffffffffffffffffffffffffffffffffffff169060200190929190505050610b35565b005b34801561049157600080fd5b506104b46004803603810190808035600019169060200190929190505050610b93565b005b3480156104c257600080fd5b506104e56004803603810190808035600019169060200190929190505050610bb5565b6040518082815260200191505060405180910390f35b34801561050757600080fd5b5061057960048036038101908080356000191690602001909291908035806c0100000000000000000000000090049068010000000000000000900463ffffffff1677ffffffffffffffffffffffffffffffffffffffffffffffff16909160200191909392919093929190505050610bda565b005b34801561058757600080fd5b506105aa6004803603810190808035600019169060200190929190505050610c4f565b6040518080602001828103825283818151815260200191508051906020019080838360005b838110156105ea5780820151818401526020810190506105cf565b50505050905090810190601f1680156106175780820380516001836020036101000a031916815260200191505b509250505060405180910390f35b34801561063157600080fd5b5061065e600480360381019080803560001916906020019092919080359060200190929190505050610d0c565b005b34801561066c57600080fd5b5061068f6004803603810190808035600019169060200190929190505050610d30565b005b34801561069d57600080fd5b506107066004803603810190808035600019169060200190929190803590602001908201803590602001908080601f0160208091040260200160405190810160405280939291908181526020018383808284378201915050505050509192919290505050610d5a565b005b34801561071457600080fd5b506107376004803603810190808035600019169060200190929190505050610d8e565b005b34801561074557600080fd5b506107686004803603810190808035600019169060200190929190505050610dd3565b60405180838363ffffffff16906401000000000217680100000000000000000281526020019250505060405180910390f35b3480156107a657600080fd5b506107c96004803603810190808035600019169060200190929190505050610e2b565b005b3480156107d757600080fd5b506107fa6004803603810190808035600019169060200190929190505050610e4d565b6040518082815260200191505060405180910390f35b34801561081c57600080fd5b506108856004803603810190808035600019169060200190929190803590602001908201803590602001908080601f0160208091040260200160405190810160405280939291908181526020018383808284378201915050505050509192919290505050610e72565b005b34801561089357600080fd5b506108c0600480360381019080803560001916906020019092919080359060200190929190505050610ea6565b005b6000600560008360001916600019168152602001908152602001600020549050919050565b60036000826000191660001916815260200190815260200160002060006101000a81549073ffffffffffffffffffffffffffffffffffffffff021916905550565b600460008260001916600019168152602001908152602001600020600061094f9190610eca565b50565b6005600082600019166000191681526020019081526020016000206000905550565b600060066000836000191660001916815260200190815260200160002060009054906101000a900460ff169050919050565b8060056000846000191660001916815260200190815260200160002081600019169055505050565b60066000826000191660001916815260200190815260200160002060006101000a81549060ff021916905550565b8060066000846000191660001916815260200190815260200160002060006101000a81548160ff0219169083151502179055505050565b60606004600083600019166000191681526020019081526020016000208054600181600116156101000203166002900480601f016020809104026020016040519081016040528092919081815260200182805460018160011615610100020316600290048015610ae45780601f10610ab957610100808354040283529160200191610ae4565b820191906000526020600020905b815481529060010190602001808311610ac757829003601f168201915b50505050509050919050565b600060036000836000191660001916815260200190815260200160002060009054906101000a900473ffffffffffffffffffffffffffffffffffffffff169050919050565b8060036000846000191660001916815260200190815260200160002060006101000a81548173ffffffffffffffffffffffffffffffffffffffff021916908373ffffffffffffffffffffffffffffffffffffffff1602179055505050565b6007600082600019166000191681526020019081526020016000206000905550565b6000600760008360001916600019168152602001908152602001600020549050919050565b818160086000866000191660001916815260200190815260200160002060006101000a81548177ffffffffffffffffffffffffffffffffffffffffffffffff02191690848463ffffffff169073ffffffffffffffffffffffffffffffffffffffff166401000000000217021790555050505050565b60606002600083600019166000191681526020019081526020016000208054600181600116156101000203166002900480601f016020809104026020016040519081016040528092919081815260200182805460018160011615610100020316600290048015610d005780601f10610cd557610100808354040283529160200191610d00565b820191906000526020600020905b815481529060010190602001808311610ce357829003601f168201915b50505050509050919050565b80600760008460001916600019168152602001908152602001600020819055505050565b6002600082600019166000191681526020019081526020016000206000610d579190610f12565b50565b806004600084600019166000191681526020019081526020016000209080519060200190610d89929190610f5a565b505050565b60086000826000191660001916815260200190815260200160002060006101000a81549077ffffffffffffffffffffffffffffffffffffffffffffffff021916905550565b60008060086000846000191660001916815260200190815260200160002060009054906101000a900480640100000000900473ffffffffffffffffffffffffffffffffffffffff169063ffffffff1691509150915091565b6001600082600019166000191681526020019081526020016000206000905550565b6000600160008360001916600019168152602001908152602001600020549050919050565b806002600084600019166000191681526020019081526020016000209080519060200190610ea1929190610fda565b505050565b80600160008460001916600019168152602001908152602001600020819055505050565b50805460018160011615610100020316600290046000825580601f10610ef05750610f0f565b601f016020900490600052602060002090810190610f0e919061105a565b5b50565b50805460018160011615610100020316600290046000825580601f10610f385750610f57565b601f016020900490600052602060002090810190610f56919061105a565b5b50565b828054600181600116156101000203166002900490600052602060002090601f016020900481019282601f10610f9b57805160ff1916838001178555610fc9565b82800160010185558215610fc9579182015b82811115610fc8578251825591602001919060010190610fad565b5b509050610fd6919061105a565b5090565b828054600181600116156101000203166002900490600052602060002090601f016020900481019282601f1061101b57805160ff1916838001178555611049565b82800160010185558215611049579182015b8281111561104857825182559160200191906001019061102d565b5b509050611056919061105a565b5090565b61107c91905b80821115611078576000816000905550600101611060565b5090565b905600a165627a7a723058201acf41d1f65faaf9a4cf368c48e690248d3fb7997122b359818e506bfe2a9df10029",
  "source": "pragma solidity 0.4.24;\n\nimport \"../registry/RegistryComponent.sol\";\n\ncontract Database is RegistryComponent {\n\n    string constant DATABASE = \"database\";\n\n    constructor(address regAddr) RegistryComponent(regAddr) public {}\n    \n    function getName() internal pure returns(string name) {\n        return DATABASE;\n    }\n\n    /// UINT STORAGE\n    mapping(bytes32 => uint256) uintStorage;\n\n    function getUintValue(bytes32 _key) public view returns (uint256) {\n        return uintStorage[_key];\n    }\n\n    function setUintValue(bytes32 _key, uint256 _value) public {\n        uintStorage[_key] = _value;\n    }\n\n    function deleteUintValue(bytes32 _key) public {\n        delete uintStorage[_key];\n    }\n\n    ///STRING STORAGE\n    mapping(bytes32 => string) stringStorage;\n\n    function getStringValue(bytes32 _key) public view returns (string) {\n        return stringStorage[_key];\n    }\n\n    function setStringValue(bytes32 _key, string _value) public {\n        stringStorage[_key] = _value;\n    }\n\n    function deleteStringValue(bytes32 _key) public {\n        delete stringStorage[_key];\n    }\n\n\n    ///ADDRESS STORAGE\n    mapping(bytes32 => address) addressStorage;\n\n    function getAddressValue(bytes32 _key) public view returns (address) {\n        return addressStorage[_key];\n    }\n\n    function setAddressValue(bytes32 _key, address _value) public {\n        addressStorage[_key] = _value;\n    }\n\n    function deleteAddressValue(bytes32 _key) public {\n        delete addressStorage[_key];\n    }\n\n\n    ///BYTES STORAGE\n    mapping(bytes32 => bytes) bytesStorage;\n\n    function getBytesValue(bytes32 _key) public view returns (bytes) {\n        return bytesStorage[_key];\n    }\n\n    function setBytesValue(bytes32 _key, bytes _value) public {\n        bytesStorage[_key] = _value;\n    }\n\n    function deleteBytesValue(bytes32 _key) public {\n        delete bytesStorage[_key];\n    }\n\n\n    /// BYTES32 STORAGE\n    mapping (bytes32 => bytes32) bytes32Storage;\n\n    function getBytes32Value(bytes32 _key) public view returns (bytes32) {\n        return bytes32Storage[_key];\n    }\n\n    function setBytes32Value(bytes32 _key, bytes32 _value) public {\n        bytes32Storage[_key] = _value;\n    }\n\n    function deleteBytes32Value(bytes32 _key) public {\n        delete bytes32Storage[_key];\n    }\n\n\n    ///BOOLEAN STORAGE\n    mapping (bytes32 => bool) booleanStorage;\n\n    function getBooleanValue(bytes32 _key) public view returns (bool) {\n        return booleanStorage[_key];\n    }\n\n    function setBooleanValue(bytes32 _key, bool _value) public {\n        booleanStorage[_key] = _value;\n    }\n\n    function deleteBooleanValue(bytes32 _key) public {\n        delete booleanStorage[_key];\n    }\n\n\n    ///UINT STORAGE\n    mapping(bytes32 => int) intStorage;\n\n    function getIntValue(bytes32 _key) public view returns (int){\n        return intStorage[_key];\n    }\n\n    function setIntValue(bytes32 _key, int _value) public {\n        intStorage[_key] = _value;\n    }\n\n    function deleteIntValue(bytes32 _key) public {\n        delete intStorage[_key];\n    }\n\n     ///SINGLE STRING ARGUMENT FUNCTION STORAGE\n    mapping(bytes32 => function(string memory) external) singleStringArgFunctionStorage;\n\n    function setSingleStringFunction(bytes32 key, function(string memory) external func) public {\n        singleStringArgFunctionStorage[key] = func;\n    }\n\n    function getSingleStringFunction(bytes32 key) public view returns(function(string memory) external) {\n        return singleStringArgFunctionStorage[key];\n    }\n\n    function deleteSingleStringFunction(bytes32 key) public {\n        delete singleStringArgFunctionStorage[key];\n    }\n\n}\n",
  "sourcePath": "/home/andrew/vault-logic-project/Development/test/vault-logic-api/src/main/java/com/skysoft/vaultlogic/blockchain/truffle/contracts/storage/Database.sol",
  "compiler": {
    "name": "solc",
    "version": "0.4.24+commit.e67f0147.Emscripten.clang"
  },
  "schemaVersion": "2.0.1",
  "updatedAt": "2018-09-06T08:11:37.896Z"
}