{
  "contractName": "SessionLib",
  "abi": [
    {
      "constant": false,
      "inputs": [
        {
          "name": "self",
          "type": "address"
        },
        {
          "name": "index",
          "type": "uint256"
        },
        {
          "name": "status",
          "type": "uint256"
        }
      ],
      "name": "setStatus",
      "outputs": [],
      "payable": false,
      "stateMutability": "nonpayable",
      "type": "function"
    }
  ],
  "bytecode": "0x61029b610030600b82828239805160001a6073146000811461002057610022565bfe5b5030600052607381538281f3007300000000000000000000000000000000000000003014608060405260043610610058576000357c0100000000000000000000000000000000000000000000000000000000900463ffffffff168063afd6ca251461005d575b600080fd5b81801561006957600080fd5b506100b2600480360381019080803573ffffffffffffffffffffffffffffffffffffffff16906020019092919080359060200190929190803590602001909291905050506100b4565b005b8273ffffffffffffffffffffffffffffffffffffffff1663ffb4f62361010f6040805190810160405280600e81526020017f73657373696f6e5f7374617475730000000000000000000000000000000000008152508561018e565b836040518363ffffffff167c010000000000000000000000000000000000000000000000000000000002815260040180836000191660001916815260200182815260200192505050600060405180830381600087803b15801561017157600080fd5b505af1158015610185573d6000803e3d6000fd5b50505050505050565b600082826040516020018083805190602001908083835b6020831015156101ca57805182526020820191506020810190506020830392506101a5565b6001836020036101000a038019825116818451168082178552505050505050905001828152602001925050506040516020818303038152906040526040518082805190602001908083835b60208310151561023a5780518252602082019150602081019050602083039250610215565b6001836020036101000a03801982511681845116808217855250505050505090500191505060405180910390209050929150505600a165627a7a72305820b65397ce2307722d3626dfe08b2f75f7560615d194c20e1bed69446e6ce40d1a0029",
  "source": "pragma solidity 0.4.24;\n\nimport \"../../storage/Database.sol\";\n\nlibrary SessionLib {\n    \n    string constant APP_ID = \"session_application_id\";\n    string constant X_TOKEN = \"session_x_token\";\n    string constant STATUS = \"session_status\";\n        \n    function save(address self, uint256 sessionId, uint256 appId, string xToken, uint256 status) internal {\n        Database(self).setUintValue(encode(APP_ID, sessionId), appId);\n        Database(self).setStringValue(encode(X_TOKEN, sessionId), xToken);\n        Database(self).setUintValue(encode(STATUS, sessionId), status);\n    }\n    \n    function get(address self, uint256 index) internal view returns (uint256 appId, string xToken, uint256 status) {\n        appId = Database(self).getUintValue(encode(APP_ID, index));\n        xToken = Database(self).getStringValue(encode(X_TOKEN, index));\n        status = Database(self).getUintValue(encode(STATUS, index));\n    }\n    \n    function getAppId(address self, uint256 index) internal view returns (uint256) {\n        Database(self).getUintValue(encode(APP_ID, index));\n    }\n    \n    function getXToken(address self, uint256 index) internal view returns (string) {\n        Database(self).getStringValue(encode(X_TOKEN, index));\n    }\n    \n    function getStatus(address self, uint256 index) internal view returns (uint256) {\n        Database(self).getUintValue(encode(STATUS, index));\n    }\n        \n    function setStatus(address self, uint256 index, uint256 status) public {\n        Database(self).setUintValue(encode(STATUS, index), status);\n    }\n    \n    function encode(string row, uint256 counter) private pure returns(bytes32) {\n        return keccak256(abi.encodePacked(row, counter));\n    }\n    \n}",
  "sourcePath": "/home/andrew/vault-logic-project/Development/test/vault-logic-api/src/main/java/com/skysoft/vaultlogic/blockchain/truffle/contracts/repositories/session/SessionLib.sol",
  "compiler": {
    "name": "solc",
    "version": "0.4.24+commit.e67f0147.Emscripten.clang"
  },
  "schemaVersion": "2.0.1",
  "updatedAt": "2018-09-05T11:58:40.115Z"
}