{
  "contractName": "SessionManager",
  "abi": [
    {
      "inputs": [
        {
          "name": "regAddr",
          "type": "address"
        }
      ],
      "payable": false,
      "stateMutability": "nonpayable",
      "type": "constructor"
    },
    {
      "constant": false,
      "inputs": [
        {
          "name": "id",
          "type": "uint256"
        },
        {
          "name": "appId",
          "type": "uint256"
        },
        {
          "name": "xToken",
          "type": "string"
        }
      ],
      "name": "createSession",
      "outputs": [],
      "payable": false,
      "stateMutability": "nonpayable",
      "type": "function"
    },
    {
      "constant": false,
      "inputs": [
        {
          "name": "id",
          "type": "uint256"
        }
      ],
      "name": "closeSession",
      "outputs": [],
      "payable": false,
      "stateMutability": "nonpayable",
      "type": "function"
    },
    {
      "constant": false,
      "inputs": [
        {
          "name": "id",
          "type": "uint256"
        }
      ],
      "name": "confirmClose",
      "outputs": [],
      "payable": false,
      "stateMutability": "nonpayable",
      "type": "function"
    }
  ],
  "bytecode": "0x608060405234801561001057600080fd5b50604051602080610ee9833981018060405281019080805190602001909291905050508060008173ffffffffffffffffffffffffffffffffffffffff16141515156100c3576040517f08c379a00000000000000000000000000000000000000000000000000000000081526004018080602001828103825260168152602001807f53797374656d2073746174652076696f6c6174696f6e0000000000000000000081525060200191505060405180910390fd5b806000806101000a81548173ffffffffffffffffffffffffffffffffffffffff021916908373ffffffffffffffffffffffffffffffffffffffff1602179055506000809054906101000a900473ffffffffffffffffffffffffffffffffffffffff1673ffffffffffffffffffffffffffffffffffffffff16631e59c529610157610261640100000000026401000000009004565b306040518363ffffffff167c010000000000000000000000000000000000000000000000000000000002815260040180806020018373ffffffffffffffffffffffffffffffffffffffff1673ffffffffffffffffffffffffffffffffffffffff168152602001828103825284818151815260200191508051906020019080838360005b838110156101f55780820151818401526020810190506101da565b50505050905090810190601f1680156102225780820380516001836020036101000a031916815260200191505b509350505050600060405180830381600087803b15801561024257600080fd5b505af1158015610256573d6000803e3d6000fd5b50505050505061029e565b60606040805190810160405280600f81526020017f73657373696f6e2d6d616e616765720000000000000000000000000000000000815250905090565b610c3c806102ad6000396000f300608060405260043610610057576000357c0100000000000000000000000000000000000000000000000000000000900463ffffffff168063882d5f7a1461005c5780638af7d73714610089578063a3bfdf47146100d8575b600080fd5b34801561006857600080fd5b5061008760048036038101908080359060200190929190505050610105565b005b34801561009557600080fd5b506100d66004803603810190808035906020019092919080359060200190929190803590602001908201803590602001919091929391929390505050610400565b005b3480156100e457600080fd5b5061010360048036038101908080359060200190929190505050610670565b005b6000806101466040805190810160405280600f81526020017f73657373696f6e2d73746f726167650000000000000000000000000000000000815250610a48565b91508173ffffffffffffffffffffffffffffffffffffffff166382e408138460028081111561017157fe5b6040518363ffffffff167c01000000000000000000000000000000000000000000000000000000000281526004018083815260200182815260200192505050600060405180830381600087803b1580156101ca57600080fd5b505af11580156101de573d6000803e3d6000fd5b505050506102206040805190810160405280601681526020017f6170706c69636174696f6e2d7265706f7369746f727900000000000000000000815250610a48565b73ffffffffffffffffffffffffffffffffffffffff1663ff78b4528373ffffffffffffffffffffffffffffffffffffffff1663985d7b7d866040518263ffffffff167c010000000000000000000000000000000000000000000000000000000002815260040180828152602001915050602060405180830381600087803b1580156102aa57600080fd5b505af11580156102be573d6000803e3d6000fd5b505050506040513d60208110156102d457600080fd5b81019080805190602001909291905050506040518263ffffffff167c010000000000000000000000000000000000000000000000000000000002815260040180828152602001915050602060405180830381600087803b15801561033757600080fd5b505af115801561034b573d6000803e3d6000fd5b505050506040513d602081101561036157600080fd5b810190808051906020019092919050505090508073ffffffffffffffffffffffffffffffffffffffff1663ae1f1ee1846040518263ffffffff167c010000000000000000000000000000000000000000000000000000000002815260040180828152602001915050600060405180830381600087803b1580156103e357600080fd5b505af11580156103f7573d6000803e3d6000fd5b50505050505050565b60006104406040805190810160405280600f81526020017f73657373696f6e2d73746f726167650000000000000000000000000000000000815250610a48565b73ffffffffffffffffffffffffffffffffffffffff1663df570821868686866000600281111561046c57fe5b6040518663ffffffff167c01000000000000000000000000000000000000000000000000000000000281526004018086815260200185815260200180602001838152602001828103825285858281815260200192508082843782019150509650505050505050600060405180830381600087803b1580156104ec57600080fd5b505af1158015610500573d6000803e3d6000fd5b505050506105426040805190810160405280601681526020017f6170706c69636174696f6e2d7265706f7369746f727900000000000000000000815250610a48565b73ffffffffffffffffffffffffffffffffffffffff1663ff78b452856040518263ffffffff167c010000000000000000000000000000000000000000000000000000000002815260040180828152602001915050602060405180830381600087803b1580156105b057600080fd5b505af11580156105c4573d6000803e3d6000fd5b505050506040513d60208110156105da57600080fd5b810190808051906020019092919050505090508073ffffffffffffffffffffffffffffffffffffffff16636a330d1d6040518163ffffffff167c0100000000000000000000000000000000000000000000000000000000028152600401600060405180830381600087803b15801561065157600080fd5b505af1158015610665573d6000803e3d6000fd5b505050505050505050565b600060606106b26040805190810160405280600f81526020017f73657373696f6e2d73746f726167650000000000000000000000000000000000815250610a48565b73ffffffffffffffffffffffffffffffffffffffff16639d46ec87846040518263ffffffff167c010000000000000000000000000000000000000000000000000000000002815260040180828152602001915050600060405180830381600087803b15801561072057600080fd5b505af1158015610734573d6000803e3d6000fd5b505050506040513d6000823e3d601f19601f82011682018060405250604081101561075e57600080fd5b8101908080519060200190929190805164010000000081111561078057600080fd5b8281019050602081018481111561079657600080fd5b81518560018202830111640100000000821117156107b357600080fd5b505092919050505091509150600060028111156107cc57fe5b82141515610842576040517f08c379a000000000000000000000000000000000000000000000000000000000815260040180806020018281038252601a8152602001807f496c6c6567616c207374617465206d6f64696669636174696f6e00000000000081525060200191505060405180910390fd5b6108806040805190810160405280600f81526020017f73657373696f6e2d73746f726167650000000000000000000000000000000000815250610a48565b73ffffffffffffffffffffffffffffffffffffffff166382e4081384600160028111156108a957fe5b6040518363ffffffff167c01000000000000000000000000000000000000000000000000000000000281526004018083815260200182815260200192505050600060405180830381600087803b15801561090257600080fd5b505af1158015610916573d6000803e3d6000fd5b505050506109586040805190810160405280600e81526020017f73657373696f6e2d6f7261636c65000000000000000000000000000000000000815250610a48565b73ffffffffffffffffffffffffffffffffffffffff166396b419de826040518263ffffffff167c01000000000000000000000000000000000000000000000000000000000281526004018080602001828103825283818151815260200191508051906020019080838360005b838110156109df5780820151818401526020810190506109c4565b50505050905090810190601f168015610a0c5780820380516001836020036101000a031916815260200191505b5092505050600060405180830381600087803b158015610a2b57600080fd5b505af1158015610a3f573d6000803e3d6000fd5b50505050505050565b60008060009054906101000a900473ffffffffffffffffffffffffffffffffffffffff1673ffffffffffffffffffffffffffffffffffffffff1663693ec85e836040518263ffffffff167c01000000000000000000000000000000000000000000000000000000000281526004018080602001828103825283818151815260200191508051906020019080838360005b83811015610af3578082015181840152602081019050610ad8565b50505050905090810190601f168015610b205780820380516001836020036101000a031916815260200191505b5092505050602060405180830381600087803b158015610b3f57600080fd5b505af1158015610b53573d6000803e3d6000fd5b505050506040513d6020811015610b6957600080fd5b8101908080519060200190929190505050905060008173ffffffffffffffffffffffffffffffffffffffff1614151515610c0b576040517f08c379a00000000000000000000000000000000000000000000000000000000081526004018080602001828103825260168152602001807f53797374656d2073746174652076696f6c6174696f6e0000000000000000000081525060200191505060405180910390fd5b9190505600a165627a7a7230582043da215462347d3708a1710c32d6cb88e3e38153b0fdda07ee3ebd6b637af9700029",
  "source": "pragma solidity 0.4.24;\n\nimport \"../application/ApplicationApi.sol\";\nimport \"../oracles/SessionOracleApi.sol\";\nimport \"../application/ApplicationApi.sol\";\nimport \"../registry/RegistryComponent.sol\";\nimport \"../repositories/session/ISessionStorage.sol\";\nimport \"../repositories/application/ApplicationRepositoryApi.sol\";\n\ncontract SessionManager is RegistryComponent {\n    \n    enum SessionStatus { ACTIVE, CLOSE_REQUESTED, CLOSED }\n\n    string constant COMPONENT_NAME = \"session-manager\";\n\n    string constant SESSION_STORAGE = \"session-storage\";\n    string constant APPLICATION_REPOSITORY = \"application-repository\";\n\n    constructor(address regAddr) RegistryComponent(regAddr) public {}\n\n    function getName() internal pure returns(string) {\n        return COMPONENT_NAME;\n    }\n\n    function createSession(uint256 id, uint256 appId, string xToken) external {\n        ISessionStorage(lookup(SESSION_STORAGE)).save(id, appId, xToken, uint256(SessionStatus.ACTIVE));\n        address appAddress = ApplicationRepositoryApi(lookup(APPLICATION_REPOSITORY)).getApplicationAddress(appId);\n        ApplicationApi(appAddress).newSessionCreated();\n    }\n\n    function closeSession(uint256 id) external {\n        (uint256 status, string memory xToken) = ISessionStorage(lookup(SESSION_STORAGE)).getStatusAndXToken(id);\n        require(status == uint256(SessionStatus.ACTIVE), \"Illegal state modification\");\n        ISessionStorage(lookup(SESSION_STORAGE)).setStatus(id, uint256(SessionStatus.CLOSE_REQUESTED));\n        SessionOracleApi(lookup(\"session-oracle\")).closeSession(xToken);\n    }\n\n    function confirmClose(uint256 id) external {\n        ISessionStorage sessionStorage = ISessionStorage(lookup(SESSION_STORAGE));\n        sessionStorage.setStatus(id, uint256(SessionStatus.CLOSED));\n        address appAddress = ApplicationRepositoryApi(lookup(APPLICATION_REPOSITORY)).getApplicationAddress(sessionStorage.getAppId(id));\n        ApplicationApi(appAddress).sessionClosed(id);\n    }\n\n}",
  "sourcePath": "/home/andrew/vault-logic-project/Development/test/vault-logic-api/src/main/java/com/skysoft/vaultlogic/blockchain/truffle/contracts/services/SessionManager.sol",
  "compiler": {
    "name": "solc",
    "version": "0.4.24+commit.e67f0147.Emscripten.clang"
  },
  "schemaVersion": "2.0.1",
  "updatedAt": "2018-09-06T07:43:28.067Z"
}