{
  "contractName": "SessionOracle",
  "abi": [
    {
      "inputs": [
        {
          "name": "regAddr",
          "type": "address"
        }
      ],
      "payable": false,
      "stateMutability": "nonpayable",
      "type": "constructor"
    },
    {
      "anonymous": false,
      "inputs": [
        {
          "indexed": false,
          "name": "xToken",
          "type": "string"
        }
      ],
      "name": "CloseSession",
      "type": "event"
    },
    {
      "constant": false,
      "inputs": [
        {
          "name": "xToken",
          "type": "string"
        }
      ],
      "name": "closeSession",
      "outputs": [],
      "payable": false,
      "stateMutability": "nonpayable",
      "type": "function"
    }
  ],
  "bytecode": "0x608060405234801561001057600080fd5b506040516020806103a9833981018060405281019080805190602001909291905050508060008173ffffffffffffffffffffffffffffffffffffffff16141515156100c3576040517f08c379a00000000000000000000000000000000000000000000000000000000081526004018080602001828103825260168152602001807f53797374656d2073746174652076696f6c6174696f6e0000000000000000000081525060200191505060405180910390fd5b806000806101000a81548173ffffffffffffffffffffffffffffffffffffffff021916908373ffffffffffffffffffffffffffffffffffffffff1602179055506000809054906101000a900473ffffffffffffffffffffffffffffffffffffffff1673ffffffffffffffffffffffffffffffffffffffff16631e59c529610157610261640100000000026401000000009004565b306040518363ffffffff167c010000000000000000000000000000000000000000000000000000000002815260040180806020018373ffffffffffffffffffffffffffffffffffffffff1673ffffffffffffffffffffffffffffffffffffffff168152602001828103825284818151815260200191508051906020019080838360005b838110156101f55780820151818401526020810190506101da565b50505050905090810190601f1680156102225780820380516001836020036101000a031916815260200191505b509350505050600060405180830381600087803b15801561024257600080fd5b505af1158015610256573d6000803e3d6000fd5b50505050505061029e565b60606040805190810160405280600e81526020017f73657373696f6e2d6f7261636c65000000000000000000000000000000000000815250905090565b60fd806102ac6000396000f300608060405260043610603f576000357c0100000000000000000000000000000000000000000000000000000000900463ffffffff16806396b419de146044575b600080fd5b348015604f57600080fd5b50607a600480360381019080803590602001908201803590602001919091929391929390505050607c565b005b7f66fc0679144ec0d595a06ffa5dea0ca044e705338cf1fe9ae00a32083da9b8148282604051808060200182810382528484828181526020019250808284378201915050935050505060405180910390a150505600a165627a7a723058202fc954274398e60df55742b88251e68acbd88fefe9e3bb5c06126876006bac210029",
  "source": "pragma solidity 0.4.24;\r\n\r\nimport \"../registry/RegistryComponent.sol\";\r\n\r\ncontract SessionOracle is RegistryComponent {\r\n\r\n    string constant COMPONENT_NAME = \"session-oracle\";\r\n\r\n    event CloseSession(string xToken);\r\n\r\n    constructor(address regAddr) RegistryComponent(regAddr) public {}\r\n\r\n    function getName() internal pure returns(string) {\r\n        return COMPONENT_NAME;\r\n    }\r\n\r\n    function closeSession(string xToken) external {\r\n        emit CloseSession(xToken);\r\n    }\r\n\r\n}",
  "sourcePath": "C:\\Users\\Andrii\\WebstormProjects\\vl-api-pos\\src\\main\\java\\com\\skysoft\\vaultlogic\\blockchain\\truffle\\contracts\\oracles\\SessionOracle.sol",
  "compiler": {
    "name": "solc",
    "version": "0.4.24+commit.e67f0147.Emscripten.clang"
  },
  "schemaVersion": "2.0.1",
  "updatedAt": "2018-09-06T14:03:49.010Z"
}