{
  "contractName": "SessionStorage",
  "abi": [
    {
      "inputs": [
        {
          "name": "registryAddress",
          "type": "address"
        }
      ],
      "payable": false,
      "stateMutability": "nonpayable",
      "type": "constructor"
    },
    {
      "anonymous": false,
      "inputs": [
        {
          "indexed": false,
          "name": "sessionId",
          "type": "uint256"
        },
        {
          "indexed": false,
          "name": "appId",
          "type": "uint256"
        },
        {
          "indexed": false,
          "name": "xToken",
          "type": "string"
        },
        {
          "indexed": false,
          "name": "status",
          "type": "uint256"
        }
      ],
      "name": "Saved",
      "type": "event"
    },
    {
      "anonymous": false,
      "inputs": [
        {
          "indexed": false,
          "name": "index",
          "type": "uint256"
        },
        {
          "indexed": false,
          "name": "status",
          "type": "uint256"
        }
      ],
      "name": "StatusUpdated",
      "type": "event"
    },
    {
      "constant": false,
      "inputs": [
        {
          "name": "sessionId",
          "type": "uint256"
        },
        {
          "name": "appId",
          "type": "uint256"
        },
        {
          "name": "xToken",
          "type": "string"
        },
        {
          "name": "status",
          "type": "uint256"
        }
      ],
      "name": "save",
      "outputs": [],
      "payable": false,
      "stateMutability": "nonpayable",
      "type": "function"
    },
    {
      "constant": true,
      "inputs": [
        {
          "name": "index",
          "type": "uint256"
        }
      ],
      "name": "getSession",
      "outputs": [
        {
          "name": "appId",
          "type": "uint256"
        },
        {
          "name": "xToken",
          "type": "string"
        },
        {
          "name": "status",
          "type": "uint256"
        }
      ],
      "payable": false,
      "stateMutability": "view",
      "type": "function"
    },
    {
      "constant": true,
      "inputs": [
        {
          "name": "index",
          "type": "uint256"
        }
      ],
      "name": "getStatus",
      "outputs": [
        {
          "name": "",
          "type": "uint256"
        }
      ],
      "payable": false,
      "stateMutability": "view",
      "type": "function"
    },
    {
      "constant": true,
      "inputs": [
        {
          "name": "index",
          "type": "uint256"
        }
      ],
      "name": "getStatusAndXToken",
      "outputs": [
        {
          "name": "status",
          "type": "uint256"
        },
        {
          "name": "xToken",
          "type": "string"
        }
      ],
      "payable": false,
      "stateMutability": "view",
      "type": "function"
    },
    {
      "constant": true,
      "inputs": [
        {
          "name": "index",
          "type": "uint256"
        }
      ],
      "name": "getAppId",
      "outputs": [
        {
          "name": "",
          "type": "uint256"
        }
      ],
      "payable": false,
      "stateMutability": "view",
      "type": "function"
    },
    {
      "constant": true,
      "inputs": [
        {
          "name": "index",
          "type": "uint256"
        }
      ],
      "name": "getXToken",
      "outputs": [
        {
          "name": "",
          "type": "string"
        }
      ],
      "payable": false,
      "stateMutability": "view",
      "type": "function"
    },
    {
      "constant": true,
      "inputs": [
        {
          "name": "index",
          "type": "uint256"
        }
      ],
      "name": "getAppIdAndXToken",
      "outputs": [
        {
          "name": "appId",
          "type": "uint256"
        },
        {
          "name": "xToken",
          "type": "string"
        }
      ],
      "payable": false,
      "stateMutability": "view",
      "type": "function"
    },
    {
      "constant": false,
      "inputs": [
        {
          "name": "index",
          "type": "uint256"
        },
        {
          "name": "status",
          "type": "uint256"
        }
      ],
      "name": "setStatus",
      "outputs": [],
      "payable": false,
      "stateMutability": "nonpayable",
      "type": "function"
    }
  ],
  "bytecode": "0x60806040523480156200001157600080fd5b5060405160208062001f4d833981018060405281019080805190602001909291905050508060008173ffffffffffffffffffffffffffffffffffffffff1614151515620000c6576040517f08c379a00000000000000000000000000000000000000000000000000000000081526004018080602001828103825260168152602001807f53797374656d2073746174652076696f6c6174696f6e0000000000000000000081525060200191505060405180910390fd5b806000806101000a81548173ffffffffffffffffffffffffffffffffffffffff021916908373ffffffffffffffffffffffffffffffffffffffff1602179055506000809054906101000a900473ffffffffffffffffffffffffffffffffffffffff1673ffffffffffffffffffffffffffffffffffffffff16631e59c5296200015c6200026c640100000000026401000000009004565b306040518363ffffffff167c010000000000000000000000000000000000000000000000000000000002815260040180806020018373ffffffffffffffffffffffffffffffffffffffff1673ffffffffffffffffffffffffffffffffffffffff168152602001828103825284818151815260200191508051906020019080838360005b83811015620001fc578082015181840152602081019050620001df565b50505050905090810190601f1680156200022a5780820380516001836020036101000a031916815260200191505b509350505050600060405180830381600087803b1580156200024b57600080fd5b505af115801562000260573d6000803e3d6000fd5b505050505050620002a9565b60606040805190810160405280600f81526020017f73657373696f6e2d73746f726167650000000000000000000000000000000000815250905090565b611c9480620002b96000396000f30060806040526004361061008e576000357c0100000000000000000000000000000000000000000000000000000000900463ffffffff168063402ff0db146100935780635c622a0e146101475780637e55698e1461018857806382e408131461022e578063901135b714610265578063985d7b7d146103125780639d46ec8714610353578063df57082114610400575b600080fd5b34801561009f57600080fd5b506100be60048036038101908080359060200190929190505050610487565b6040518084815260200180602001838152602001828103825284818151815260200191508051906020019080838360005b8381101561010a5780820151818401526020810190506100ef565b50505050905090810190601f1680156101375780820380516001836020036101000a031916815260200191505b5094505050505060405180910390f35b34801561015357600080fd5b5061017260048036038101908080359060200190929190505050610500565b6040518082815260200191505060405180910390f35b34801561019457600080fd5b506101b36004803603810190808035906020019092919050505061056f565b6040518080602001828103825283818151815260200191508051906020019080838360005b838110156101f35780820151818401526020810190506101d8565b50505050905090810190601f1680156102205780820380516001836020036101000a031916815260200191505b509250505060405180910390f35b34801561023a57600080fd5b5061026360048036038101908080359060200190929190803590602001909291905050506105de565b005b34801561027157600080fd5b5061029060048036038101908080359060200190929190505050610689565b6040518083815260200180602001828103825283818151815260200191508051906020019080838360005b838110156102d65780820151818401526020810190506102bb565b50505050905090810190601f1680156103035780820380516001836020036101000a031916815260200191505b50935050505060405180910390f35b34801561031e57600080fd5b5061033d600480360381019080803590602001909291905050506106a8565b6040518082815260200191505060405180910390f35b34801561035f57600080fd5b5061037e60048036038101908080359060200190929190505050610717565b6040518083815260200180602001828103825283818151815260200191508051906020019080838360005b838110156103c45780820151818401526020810190506103a9565b50505050905090810190601f1680156103f15780820380516001836020036101000a031916815260200191505b50935050505060405180910390f35b34801561040c57600080fd5b506104856004803603810190808035906020019092919080359060200190929190803590602001908201803590602001908080601f016020809104026020016040519081016040528093929190818152602001838380828437820191505050505050919291929080359060200190929190505050610736565b005b6000606060006104f3846104cf6040805190810160405280600881526020017f646174616261736500000000000000000000000000000000000000000000000081525061085c565b73ffffffffffffffffffffffffffffffffffffffff16610a2490919063ffffffff16565b9250925092509193909250565b6000610568826105446040805190810160405280600881526020017f646174616261736500000000000000000000000000000000000000000000000081525061085c565b73ffffffffffffffffffffffffffffffffffffffff16610fc490919063ffffffff16565b9050919050565b60606105d7826105b36040805190810160405280600881526020017f646174616261736500000000000000000000000000000000000000000000000081525061085c565b73ffffffffffffffffffffffffffffffffffffffff1661118b90919063ffffffff16565b9050919050565b61064682826106216040805190810160405280600881526020017f646174616261736500000000000000000000000000000000000000000000000081525061085c565b73ffffffffffffffffffffffffffffffffffffffff166113a89092919063ffffffff16565b7f150b944d2f668fb8c44fa57a4dd1c95f72d46a1efea6a92a497a002cf491f47b8282604051808381526020018281526020019250505060405180910390a15050565b60006060610696836106a8565b91506106a18361056f565b9050915091565b6000610710826106ec6040805190810160405280600881526020017f646174616261736500000000000000000000000000000000000000000000000081525061085c565b73ffffffffffffffffffffffffffffffffffffffff1661154f90919063ffffffff16565b9050919050565b6000606061072483610500565b915061072f8361056f565b9050915091565b6107a28484848461077b6040805190810160405280600881526020017f646174616261736500000000000000000000000000000000000000000000000081525061085c565b73ffffffffffffffffffffffffffffffffffffffff1661171690949392919063ffffffff16565b7f35f9f680a7ef4ece0ee1181934b06a99d8b8f014153d6629867b45f714f49a61848484846040518085815260200184815260200180602001838152602001828103825284818151815260200191508051906020019080838360005b838110156108195780820151818401526020810190506107fe565b50505050905090810190601f1680156108465780820380516001836020036101000a031916815260200191505b509550505050505060405180910390a150505050565b60008060009054906101000a900473ffffffffffffffffffffffffffffffffffffffff1673ffffffffffffffffffffffffffffffffffffffff1663693ec85e836040518263ffffffff167c01000000000000000000000000000000000000000000000000000000000281526004018080602001828103825283818151815260200191508051906020019080838360005b838110156109075780820151818401526020810190506108ec565b50505050905090810190601f1680156109345780820380516001836020036101000a031916815260200191505b5092505050602060405180830381600087803b15801561095357600080fd5b505af1158015610967573d6000803e3d6000fd5b505050506040513d602081101561097d57600080fd5b8101908080519060200190929190505050905060008173ffffffffffffffffffffffffffffffffffffffff1614151515610a1f576040517f08c379a00000000000000000000000000000000000000000000000000000000081526004018080602001828103825260168152602001807f53797374656d2073746174652076696f6c6174696f6e0000000000000000000081525060200191505060405180910390fd5b919050565b6000606060008473ffffffffffffffffffffffffffffffffffffffff1663e82617fb6040805190810160405280601681526020017f73657373696f6e5f6170706c69636174696f6e5f696400000000000000000000815250866040516020018083805190602001908083835b602083101515610ab55780518252602082019150602081019050602083039250610a90565b6001836020036101000a038019825116818451168082178552505050505050905001828152602001925050506040516020818303038152906040526040518082805190602001908083835b602083101515610b255780518252602082019150602081019050602083039250610b00565b6001836020036101000a03801982511681845116808217855250505050505090500191505060405180910390206040518263ffffffff167c0100000000000000000000000000000000000000000000000000000000028152600401808260001916600019168152602001915050602060405180830381600087803b158015610bac57600080fd5b505af1158015610bc0573d6000803e3d6000fd5b505050506040513d6020811015610bd657600080fd5b810190808051906020019092919050505092508473ffffffffffffffffffffffffffffffffffffffff1663a209a29c6040805190810160405280600f81526020017f73657373696f6e5f785f746f6b656e0000000000000000000000000000000000815250866040516020018083805190602001908083835b602083101515610c745780518252602082019150602081019050602083039250610c4f565b6001836020036101000a038019825116818451168082178552505050505050905001828152602001925050506040516020818303038152906040526040518082805190602001908083835b602083101515610ce45780518252602082019150602081019050602083039250610cbf565b6001836020036101000a03801982511681845116808217855250505050505090500191505060405180910390206040518263ffffffff167c0100000000000000000000000000000000000000000000000000000000028152600401808260001916600019168152602001915050600060405180830381600087803b158015610d6b57600080fd5b505af1158015610d7f573d6000803e3d6000fd5b505050506040513d6000823e3d601f19601f820116820180604052506020811015610da957600080fd5b810190808051640100000000811115610dc157600080fd5b82810190506020810184811115610dd757600080fd5b8151856001820283011164010000000082111715610df457600080fd5b505092919050505091508473ffffffffffffffffffffffffffffffffffffffff1663e82617fb6040805190810160405280600e81526020017f73657373696f6e5f737461747573000000000000000000000000000000000000815250866040516020018083805190602001908083835b602083101515610e895780518252602082019150602081019050602083039250610e64565b6001836020036101000a038019825116818451168082178552505050505050905001828152602001925050506040516020818303038152906040526040518082805190602001908083835b602083101515610ef95780518252602082019150602081019050602083039250610ed4565b6001836020036101000a03801982511681845116808217855250505050505090500191505060405180910390206040518263ffffffff167c0100000000000000000000000000000000000000000000000000000000028152600401808260001916600019168152602001915050602060405180830381600087803b158015610f8057600080fd5b505af1158015610f94573d6000803e3d6000fd5b505050506040513d6020811015610faa57600080fd5b810190808051906020019092919050505090509250925092565b60008273ffffffffffffffffffffffffffffffffffffffff1663e82617fb6040805190810160405280600e81526020017f73657373696f6e5f737461747573000000000000000000000000000000000000815250846040516020018083805190602001908083835b602083101515611051578051825260208201915060208101905060208303925061102c565b6001836020036101000a038019825116818451168082178552505050505050905001828152602001925050506040516020818303038152906040526040518082805190602001908083835b6020831015156110c1578051825260208201915060208101905060208303925061109c565b6001836020036101000a03801982511681845116808217855250505050505090500191505060405180910390206040518263ffffffff167c0100000000000000000000000000000000000000000000000000000000028152600401808260001916600019168152602001915050602060405180830381600087803b15801561114857600080fd5b505af115801561115c573d6000803e3d6000fd5b505050506040513d602081101561117257600080fd5b8101908080519060200190929190505050905092915050565b60608273ffffffffffffffffffffffffffffffffffffffff1663a209a29c6040805190810160405280600f81526020017f73657373696f6e5f785f746f6b656e0000000000000000000000000000000000815250846040516020018083805190602001908083835b60208310151561121857805182526020820191506020810190506020830392506111f3565b6001836020036101000a038019825116818451168082178552505050505050905001828152602001925050506040516020818303038152906040526040518082805190602001908083835b6020831015156112885780518252602082019150602081019050602083039250611263565b6001836020036101000a03801982511681845116808217855250505050505090500191505060405180910390206040518263ffffffff167c0100000000000000000000000000000000000000000000000000000000028152600401808260001916600019168152602001915050600060405180830381600087803b15801561130f57600080fd5b505af1158015611323573d6000803e3d6000fd5b505050506040513d6000823e3d601f19601f82011682018060405250602081101561134d57600080fd5b81019080805164010000000081111561136557600080fd5b8281019050602081018481111561137b57600080fd5b815185600182028301116401000000008211171561139857600080fd5b5050929190505050905092915050565b8273ffffffffffffffffffffffffffffffffffffffff1663ffb4f6236040805190810160405280600e81526020017f73657373696f6e5f737461747573000000000000000000000000000000000000815250846040516020018083805190602001908083835b602083101515611433578051825260208201915060208101905060208303925061140e565b6001836020036101000a038019825116818451168082178552505050505050905001828152602001925050506040516020818303038152906040526040518082805190602001908083835b6020831015156114a3578051825260208201915060208101905060208303925061147e565b6001836020036101000a0380198251168184511680821785525050505050509050019150506040518091039020836040518363ffffffff167c010000000000000000000000000000000000000000000000000000000002815260040180836000191660001916815260200182815260200192505050600060405180830381600087803b15801561153257600080fd5b505af1158015611546573d6000803e3d6000fd5b50505050505050565b60008273ffffffffffffffffffffffffffffffffffffffff1663e82617fb6040805190810160405280601681526020017f73657373696f6e5f6170706c69636174696f6e5f696400000000000000000000815250846040516020018083805190602001908083835b6020831015156115dc57805182526020820191506020810190506020830392506115b7565b6001836020036101000a038019825116818451168082178552505050505050905001828152602001925050506040516020818303038152906040526040518082805190602001908083835b60208310151561164c5780518252602082019150602081019050602083039250611627565b6001836020036101000a03801982511681845116808217855250505050505090500191505060405180910390206040518263ffffffff167c0100000000000000000000000000000000000000000000000000000000028152600401808260001916600019168152602001915050602060405180830381600087803b1580156116d357600080fd5b505af11580156116e7573d6000803e3d6000fd5b505050506040513d60208110156116fd57600080fd5b8101908080519060200190929190505050905092915050565b8473ffffffffffffffffffffffffffffffffffffffff1663ffb4f6236040805190810160405280601681526020017f73657373696f6e5f6170706c69636174696f6e5f696400000000000000000000815250866040516020018083805190602001908083835b6020831015156117a1578051825260208201915060208101905060208303925061177c565b6001836020036101000a038019825116818451168082178552505050505050905001828152602001925050506040516020818303038152906040526040518082805190602001908083835b60208310151561181157805182526020820191506020810190506020830392506117ec565b6001836020036101000a0380198251168184511680821785525050505050509050019150506040518091039020856040518363ffffffff167c010000000000000000000000000000000000000000000000000000000002815260040180836000191660001916815260200182815260200192505050600060405180830381600087803b1580156118a057600080fd5b505af11580156118b4573d6000803e3d6000fd5b505050508473ffffffffffffffffffffffffffffffffffffffff1663f58660666040805190810160405280600f81526020017f73657373696f6e5f785f746f6b656e0000000000000000000000000000000000815250866040516020018083805190602001908083835b602083101515611943578051825260208201915060208101905060208303925061191e565b6001836020036101000a038019825116818451168082178552505050505050905001828152602001925050506040516020818303038152906040526040518082805190602001908083835b6020831015156119b3578051825260208201915060208101905060208303925061198e565b6001836020036101000a0380198251168184511680821785525050505050509050019150506040518091039020846040518363ffffffff167c010000000000000000000000000000000000000000000000000000000002815260040180836000191660001916815260200180602001828103825283818151815260200191508051906020019080838360005b83811015611a5a578082015181840152602081019050611a3f565b50505050905090810190601f168015611a875780820380516001836020036101000a031916815260200191505b509350505050600060405180830381600087803b158015611aa757600080fd5b505af1158015611abb573d6000803e3d6000fd5b505050508473ffffffffffffffffffffffffffffffffffffffff1663ffb4f6236040805190810160405280600e81526020017f73657373696f6e5f737461747573000000000000000000000000000000000000815250866040516020018083805190602001908083835b602083101515611b4a5780518252602082019150602081019050602083039250611b25565b6001836020036101000a038019825116818451168082178552505050505050905001828152602001925050506040516020818303038152906040526040518082805190602001908083835b602083101515611bba5780518252602082019150602081019050602083039250611b95565b6001836020036101000a0380198251168184511680821785525050505050509050019150506040518091039020836040518363ffffffff167c010000000000000000000000000000000000000000000000000000000002815260040180836000191660001916815260200182815260200192505050600060405180830381600087803b158015611c4957600080fd5b505af1158015611c5d573d6000803e3d6000fd5b5050505050505050505600a165627a7a7230582079c1007151d7c15b9352846f40019defe1bef9fa8a5331669b4c9e6e49d33e940029",
  "source": "pragma solidity 0.4.24;\n\nimport \"./SessionLib.sol\";\nimport \"../../registry/RegistryComponent.sol\";\n\ncontract SessionStorage is RegistryComponent {\n    \n    string constant COMPONENT_NAME = \"session-storage\";\n    string constant DATABASE = \"database\";\n\n    event Saved(uint256 sessionId, uint256 appId, string xToken, uint256 status);\n    event StatusUpdated(uint256 index, uint256 status);\n\n    using SessionLib for address;\n    \n    constructor(address registryAddress) RegistryComponent(registryAddress) public {}\n\n    function getName() internal pure returns(string) {\n        return COMPONENT_NAME;\n    }\n    \n    function save(uint256 sessionId, uint256 appId, string xToken, uint256 status) public {\n        lookup(DATABASE).save(sessionId, appId, xToken, status);\n        emit Saved(sessionId, appId, xToken, status);\n    }\n    \n    function getSession(uint256 index) public view returns(uint256 appId, string xToken, uint256 status) {\n        return lookup(DATABASE).get(index);\n    }\n    \n    function getStatus(uint256 index) public view returns (uint256) {\n        return lookup(DATABASE).getStatus(index);\n    }\n\n    function getStatusAndXToken(uint256 index) public view returns (uint256 status, string xToken) {\n        status = getStatus(index);\n        xToken = getXToken(index);\n    }\n    \n    function getAppId(uint256 index) public view returns (uint256) {\n        return lookup(DATABASE).getAppId(index);\n    }\n    \n    function getXToken(uint256 index) public view returns (string) {\n        return lookup(DATABASE).getXToken(index);\n    }\n    \n    function getAppIdAndXToken(uint256 index) public view returns (uint256 appId, string xToken) {\n        appId = getAppId(index);\n        xToken = getXToken(index);\n    }\n    \n    function setStatus(uint256 index, uint256 status) public {\n        lookup(DATABASE).setStatus(index, status);\n        emit StatusUpdated(index, status);\n    }\n \n}",
  "sourcePath": "/home/andrew/vault-logic-project/Development/test/vault-logic-api/src/main/java/com/skysoft/vaultlogic/blockchain/truffle/contracts/repositories/session/SessionStorage.sol",
  "compiler": {
    "name": "solc",
    "version": "0.4.24+commit.e67f0147.Emscripten.clang"
  },
  "schemaVersion": "2.0.1",
  "updatedAt": "2018-09-06T07:43:28.066Z"
}