{
  "contractName": "ApplicationOracle",
  "abi": [
    {
      "constant": true,
      "inputs": [],
      "name": "name",
      "outputs": [
        {
          "name": "",
          "type": "string"
        }
      ],
      "payable": false,
      "stateMutability": "view",
      "type": "function"
    },
    {
      "constant": false,
      "inputs": [],
      "name": "kill",
      "outputs": [],
      "payable": false,
      "stateMutability": "nonpayable",
      "type": "function"
    },
    {
      "constant": true,
      "inputs": [],
      "name": "owner",
      "outputs": [
        {
          "name": "",
          "type": "address"
        }
      ],
      "payable": false,
      "stateMutability": "view",
      "type": "function"
    },
    {
      "inputs": [
        {
          "name": "_config",
          "type": "address"
        }
      ],
      "payable": false,
      "stateMutability": "nonpayable",
      "type": "constructor"
    },
    {
      "anonymous": false,
      "inputs": [
        {
          "indexed": false,
          "name": "index",
          "type": "uint256"
        },
        {
          "indexed": false,
          "name": "name",
          "type": "string"
        },
        {
          "indexed": false,
          "name": "owner",
          "type": "address"
        },
        {
          "indexed": false,
          "name": "url",
          "type": "string"
        },
        {
          "indexed": false,
          "name": "appAddr",
          "type": "address"
        },
        {
          "indexed": false,
          "name": "status",
          "type": "uint256"
        }
      ],
      "name": "ApplicationRegistered",
      "type": "event"
    },
    {
      "constant": false,
      "inputs": [
        {
          "name": "index",
          "type": "uint256"
        },
        {
          "name": "name",
          "type": "string"
        },
        {
          "name": "owner",
          "type": "address"
        },
        {
          "name": "url",
          "type": "string"
        },
        {
          "name": "appAddr",
          "type": "address"
        },
        {
          "name": "status",
          "type": "uint256"
        }
      ],
      "name": "register",
      "outputs": [],
      "payable": false,
      "stateMutability": "nonpayable",
      "type": "function"
    }
  ],
  "bytecode": "0x608060405234801561001057600080fd5b506040516020806107d6833981016040818152915182820190925260128082527f6170706c69636174696f6e2d6f7261636c6500000000000000000000000000006020830190815260008054600160a060020a03191633179055839291610079916001916102a7565b505080600160a060020a031663713b563f6040518163ffffffff167c0100000000000000000000000000000000000000000000000000000000028152600401602060405180830381600087803b1580156100d257600080fd5b505af11580156100e6573d6000803e3d6000fd5b505050506040513d60208110156100fc57600080fd5b505160038054600160a060020a031916600160a060020a03928316179055604080517fd0496d6a00000000000000000000000000000000000000000000000000000000815290519183169163d0496d6a916004808201926020929091908290030181600087803b15801561016f57600080fd5b505af1158015610183573d6000803e3d6000fd5b505050506040513d602081101561019957600080fd5b505160028054600160a060020a031916600160a060020a03928316178082556040517ff2c298be00000000000000000000000000000000000000000000000000000000815260206004820190815260018054610100818316150260001901169490940460248301819052929094169363f2c298be939290918291604490910190849080156102685780601f1061023d57610100808354040283529160200191610268565b820191906000526020600020905b81548152906001019060200180831161024b57829003601f168201915b505092505050600060405180830381600087803b15801561028857600080fd5b505af115801561029c573d6000803e3d6000fd5b505050505050610342565b828054600181600116156101000203166002900490600052602060002090601f016020900481019282601f106102e857805160ff1916838001178555610315565b82800160010185558215610315579182015b828111156103155782518255916020019190600101906102fa565b50610321929150610325565b5090565b61033f91905b80821115610321576000815560010161032b565b90565b610485806103516000396000f3006080604052600436106100615763ffffffff7c010000000000000000000000000000000000000000000000000000000060003504166306fdde03811461006657806341c0e1b5146100f05780638da5cb5b146101075780639d15b34214610138575b600080fd5b34801561007257600080fd5b5061007b6101f4565b6040805160208082528351818301528351919283929083019185019080838360005b838110156100b557818101518382015260200161009d565b50505050905090810190601f1680156100e25780820380516001836020036101000a031916815260200191505b509250505060405180910390f35b3480156100fc57600080fd5b50610105610281565b005b34801561011357600080fd5b5061011c6102fe565b60408051600160a060020a039092168252519081900360200190f35b34801561014457600080fd5b5060408051602060046024803582810135601f810185900485028601850190965285855261010595833595369560449491939091019190819084018382808284375050604080516020601f818a01358b0180359182018390048302840183018552818452989b600160a060020a038b35169b909a90999401975091955091820193509150819084018382808284375094975050508335600160a060020a031694505050602090910135905061030d565b60018054604080516020600284861615610100026000190190941693909304601f810184900484028201840190925281815292918301828280156102795780601f1061024e57610100808354040283529160200191610279565b820191906000526020600020905b81548152906001019060200180831161025c57829003601f168201915b505050505081565b600054600160a060020a031632146102fa57604080517f08c379a000000000000000000000000000000000000000000000000000000000815260206004820152601260248201527f6f6e6c79206f776e657220616c6c6f7765640000000000000000000000000000604482015290519081900360640190fd5b6000ff5b600054600160a060020a031681565b7f21e1da604872ac95090dc6032a3bfbbc3a0c85d2767ade72510241c5d2d4720e868686868686604051808781526020018060200186600160a060020a0316600160a060020a031681526020018060200185600160a060020a0316600160a060020a03168152602001848152602001838103835288818151815260200191508051906020019080838360005b838110156103b1578181015183820152602001610399565b50505050905090810190601f1680156103de5780820380516001836020036101000a031916815260200191505b50838103825286518152865160209182019188019080838360005b838110156104115781810151838201526020016103f9565b50505050905090810190601f16801561043e5780820380516001836020036101000a031916815260200191505b509850505050505050505060405180910390a15050505050505600a165627a7a723058203a7c43fe61f1f4dce714303661de494fdfead99ff8752dc15d6abc598d42776b0029",
  "source": "pragma solidity 0.4.24;\n\nimport \"../platform/Mortal.sol\";\nimport \"../platform/Named.sol\";\nimport \"../platform/Component.sol\";\nimport \"./api/AnApplicationOracle.sol\";\n\ncontract ApplicationOracle is AnApplicationOracle, Mortal, Named(\"application-oracle\"), Component {\n\n    constructor(address _config) Component(_config) public {}\n\n    function register(\n        uint256 index,\n        string name,\n        address owner,\n        string url,\n        address appAddr,\n        uint256 status\n    ) public {\n        emit ApplicationRegistered(index, name, owner, url, appAddr, status);\n    }\n\n}",
  "sourcePath": "/home/andrew/vault-logic-project/Development/test/vault-logic-api/truffle/contracts/oracles/ApplicationOracle.sol",
  "compiler": {
    "name": "solc",
    "version": "0.4.24+commit.e67f0147.Emscripten.clang"
  },
  "schemaVersion": "2.0.1",
  "updatedAt": "2018-11-20T09:03:27.252Z"
}