{
  "contractName": "ApplicationStorage",
  "abi": [
    {
      "constant": true,
      "inputs": [],
      "name": "name",
      "outputs": [
        {
          "name": "",
          "type": "string"
        }
      ],
      "payable": false,
      "stateMutability": "view",
      "type": "function"
    },
    {
      "constant": false,
      "inputs": [],
      "name": "kill",
      "outputs": [],
      "payable": false,
      "stateMutability": "nonpayable",
      "type": "function"
    },
    {
      "constant": true,
      "inputs": [],
      "name": "owner",
      "outputs": [
        {
          "name": "",
          "type": "address"
        }
      ],
      "payable": false,
      "stateMutability": "view",
      "type": "function"
    },
    {
      "inputs": [
        {
          "name": "_config",
          "type": "address"
        }
      ],
      "payable": false,
      "stateMutability": "nonpayable",
      "type": "constructor"
    },
    {
      "anonymous": false,
      "inputs": [
        {
          "indexed": false,
          "name": "appId",
          "type": "uint256"
        },
        {
          "indexed": false,
          "name": "name",
          "type": "string"
        },
        {
          "indexed": false,
          "name": "owner",
          "type": "address"
        },
        {
          "indexed": false,
          "name": "url",
          "type": "string"
        },
        {
          "indexed": false,
          "name": "appAddr",
          "type": "address"
        },
        {
          "indexed": false,
          "name": "status",
          "type": "uint256"
        }
      ],
      "name": "ApplicationSaved",
      "type": "event"
    },
    {
      "anonymous": false,
      "inputs": [
        {
          "indexed": false,
          "name": "appId",
          "type": "uint256"
        },
        {
          "indexed": false,
          "name": "url",
          "type": "string"
        }
      ],
      "name": "ApplicationUrlUpdated",
      "type": "event"
    },
    {
      "anonymous": false,
      "inputs": [
        {
          "indexed": false,
          "name": "appId",
          "type": "uint256"
        },
        {
          "indexed": false,
          "name": "appAddr",
          "type": "address"
        }
      ],
      "name": "ApplicationAddressUpdated",
      "type": "event"
    },
    {
      "anonymous": false,
      "inputs": [
        {
          "indexed": false,
          "name": "appId",
          "type": "uint256"
        },
        {
          "indexed": false,
          "name": "status",
          "type": "uint256"
        }
      ],
      "name": "ApplicationStatusUpdated",
      "type": "event"
    },
    {
      "constant": false,
      "inputs": [
        {
          "name": "_id",
          "type": "uint256"
        },
        {
          "name": "_name",
          "type": "string"
        },
        {
          "name": "_owner",
          "type": "address"
        },
        {
          "name": "_url",
          "type": "string"
        },
        {
          "name": "_appAddr",
          "type": "address"
        },
        {
          "name": "_status",
          "type": "uint256"
        }
      ],
      "name": "createApplication",
      "outputs": [],
      "payable": false,
      "stateMutability": "nonpayable",
      "type": "function"
    },
    {
      "constant": true,
      "inputs": [
        {
          "name": "_id",
          "type": "uint256"
        }
      ],
      "name": "retrieveApplication",
      "outputs": [
        {
          "name": "_name",
          "type": "string"
        },
        {
          "name": "_owner",
          "type": "address"
        },
        {
          "name": "_url",
          "type": "string"
        },
        {
          "name": "_appAddr",
          "type": "address"
        },
        {
          "name": "_status",
          "type": "uint256"
        }
      ],
      "payable": false,
      "stateMutability": "view",
      "type": "function"
    },
    {
      "constant": false,
      "inputs": [
        {
          "name": "appId",
          "type": "uint256"
        },
        {
          "name": "name",
          "type": "string"
        },
        {
          "name": "owner",
          "type": "address"
        },
        {
          "name": "url",
          "type": "string"
        },
        {
          "name": "appAddr",
          "type": "address"
        },
        {
          "name": "status",
          "type": "uint256"
        }
      ],
      "name": "save",
      "outputs": [],
      "payable": false,
      "stateMutability": "nonpayable",
      "type": "function"
    },
    {
      "constant": true,
      "inputs": [
        {
          "name": "appId",
          "type": "uint256"
        }
      ],
      "name": "get",
      "outputs": [
        {
          "name": "",
          "type": "string"
        },
        {
          "name": "",
          "type": "address"
        },
        {
          "name": "",
          "type": "string"
        },
        {
          "name": "",
          "type": "address"
        },
        {
          "name": "",
          "type": "uint256"
        }
      ],
      "payable": false,
      "stateMutability": "view",
      "type": "function"
    },
    {
      "constant": true,
      "inputs": [
        {
          "name": "_applicationAddress",
          "type": "address"
        }
      ],
      "name": "isRegistered",
      "outputs": [
        {
          "name": "",
          "type": "bool"
        }
      ],
      "payable": false,
      "stateMutability": "view",
      "type": "function"
    },
    {
      "constant": true,
      "inputs": [
        {
          "name": "appId",
          "type": "uint256"
        }
      ],
      "name": "getApplicationName",
      "outputs": [
        {
          "name": "",
          "type": "string"
        }
      ],
      "payable": false,
      "stateMutability": "view",
      "type": "function"
    },
    {
      "constant": true,
      "inputs": [
        {
          "name": "appId",
          "type": "uint256"
        }
      ],
      "name": "getApplicationOwner",
      "outputs": [
        {
          "name": "",
          "type": "address"
        }
      ],
      "payable": false,
      "stateMutability": "view",
      "type": "function"
    },
    {
      "constant": true,
      "inputs": [
        {
          "name": "appId",
          "type": "uint256"
        }
      ],
      "name": "getApplicationUrl",
      "outputs": [
        {
          "name": "",
          "type": "string"
        }
      ],
      "payable": false,
      "stateMutability": "view",
      "type": "function"
    },
    {
      "constant": false,
      "inputs": [
        {
          "name": "appId",
          "type": "uint256"
        },
        {
          "name": "url",
          "type": "string"
        }
      ],
      "name": "setApplicationUrl",
      "outputs": [],
      "payable": false,
      "stateMutability": "nonpayable",
      "type": "function"
    },
    {
      "constant": true,
      "inputs": [
        {
          "name": "appId",
          "type": "uint256"
        }
      ],
      "name": "getApplicationAddress",
      "outputs": [
        {
          "name": "",
          "type": "address"
        }
      ],
      "payable": false,
      "stateMutability": "view",
      "type": "function"
    },
    {
      "constant": false,
      "inputs": [
        {
          "name": "appId",
          "type": "uint256"
        },
        {
          "name": "appAddr",
          "type": "address"
        }
      ],
      "name": "setApplicationAddress",
      "outputs": [],
      "payable": false,
      "stateMutability": "nonpayable",
      "type": "function"
    },
    {
      "constant": true,
      "inputs": [
        {
          "name": "appId",
          "type": "uint256"
        }
      ],
      "name": "getApplicationStatus",
      "outputs": [
        {
          "name": "",
          "type": "uint256"
        }
      ],
      "payable": false,
      "stateMutability": "view",
      "type": "function"
    },
    {
      "constant": false,
      "inputs": [
        {
          "name": "appId",
          "type": "uint256"
        },
        {
          "name": "status",
          "type": "uint256"
        }
      ],
      "name": "setApplicationStatus",
      "outputs": [],
      "payable": false,
      "stateMutability": "nonpayable",
      "type": "function"
    }
  ],
  "bytecode": "0x60806040523480156200001157600080fd5b50604051602080620057af833981018060405281019080805190602001909291905050508060006040805190810160405280601381526020017f6170706c69636174696f6e2d73746f7261676500000000000000000000000000815250336000806101000a81548173ffffffffffffffffffffffffffffffffffffffff021916908373ffffffffffffffffffffffffffffffffffffffff1602179055508060019080519060200190620000c6929190620005bf565b50508173ffffffffffffffffffffffffffffffffffffffff1663713b563f6040518163ffffffff167c0100000000000000000000000000000000000000000000000000000000028152600401602060405180830381600087803b1580156200012d57600080fd5b505af115801562000142573d6000803e3d6000fd5b505050506040513d60208110156200015957600080fd5b8101908080519060200190929190505050600360006101000a81548173ffffffffffffffffffffffffffffffffffffffff021916908373ffffffffffffffffffffffffffffffffffffffff1602179055508173ffffffffffffffffffffffffffffffffffffffff1663d0496d6a6040518163ffffffff167c0100000000000000000000000000000000000000000000000000000000028152600401602060405180830381600087803b1580156200020f57600080fd5b505af115801562000224573d6000803e3d6000fd5b505050506040513d60208110156200023b57600080fd5b8101908080519060200190929190505050600260006101000a81548173ffffffffffffffffffffffffffffffffffffffff021916908373ffffffffffffffffffffffffffffffffffffffff160217905550600260009054906101000a900473ffffffffffffffffffffffffffffffffffffffff1673ffffffffffffffffffffffffffffffffffffffff1663693ec85e60016040518263ffffffff167c01000000000000000000000000000000000000000000000000000000000281526004018080602001828103825283818154600181600116156101000203166002900481526020019150805460018160011615610100020316600290048015620003845780601f10620003585761010080835404028352916020019162000384565b820191906000526020600020905b8154815290600101906020018083116200036657829003601f168201915b505092505050602060405180830381600087803b158015620003a557600080fd5b505af1158015620003ba573d6000803e3d6000fd5b505050506040513d6020811015620003d157600080fd5b8101908080519060200190929190505050905060008173ffffffffffffffffffffffffffffffffffffffff1614151562000484578073ffffffffffffffffffffffffffffffffffffffff166341c0e1b56040518163ffffffff167c0100000000000000000000000000000000000000000000000000000000028152600401600060405180830381600087803b1580156200046a57600080fd5b505af11580156200047f573d6000803e3d6000fd5b505050505b600260009054906101000a900473ffffffffffffffffffffffffffffffffffffffff1673ffffffffffffffffffffffffffffffffffffffff1663f2c298be60016040518263ffffffff167c010000000000000000000000000000000000000000000000000000000002815260040180806020018281038252838181546001816001161561010002031660029004815260200191508054600181600116156101000203166002900480156200057c5780601f1062000550576101008083540402835291602001916200057c565b820191906000526020600020905b8154815290600101906020018083116200055e57829003601f168201915b505092505050600060405180830381600087803b1580156200059d57600080fd5b505af1158015620005b2573d6000803e3d6000fd5b505050505050506200066e565b828054600181600116156101000203166002900490600052602060002090601f016020900481019282601f106200060257805160ff191683800117855562000633565b8280016001018555821562000633579182015b828111156200063257825182559160200191906001019062000615565b5b50905062000642919062000646565b5090565b6200066b91905b80821115620006675760008160009055506001016200064d565b5090565b90565b615131806200067e6000396000f3006080604052600436106100e6576000357c0100000000000000000000000000000000000000000000000000000000900463ffffffff16806301f629c0146100eb57806306fdde031461013857806307d8ef9a146101c857806308114c9d1461023b5780632f2bb438146102a857806341c0e1b5146104275780634980e0b81461043e5780638da5cb5b146105415780639507d39a146105985780639fdc3a4d14610717578063c3c5a547146107bd578063d32cca4714610818578063edcce1b314610859578063f004a7e41461095c578063f6efa67414610993578063ff78b45214610a39575b600080fd5b3480156100f757600080fd5b5061013660048036038101908080359060200190929190803573ffffffffffffffffffffffffffffffffffffffff169060200190929190505050610aa6565b005b34801561014457600080fd5b5061014d610b62565b6040518080602001828103825283818151815260200191508051906020019080838360005b8381101561018d578082015181840152602081019050610172565b50505050905090810190601f1680156101ba5780820380516001836020036101000a031916815260200191505b509250505060405180910390f35b3480156101d457600080fd5b5061023960048036038101908080359060200190929190803590602001908201803590602001908080601f0160208091040260200160405190810160405280939291908181526020018383808284378201915050505050509192919290505050610c00565b005b34801561024757600080fd5b5061026660048036038101908080359060200190929190505050610cf5565b604051808273ffffffffffffffffffffffffffffffffffffffff1673ffffffffffffffffffffffffffffffffffffffff16815260200191505060405180910390f35b3480156102b457600080fd5b506102d360048036038101908080359060200190929190505050610d49565b60405180806020018673ffffffffffffffffffffffffffffffffffffffff1673ffffffffffffffffffffffffffffffffffffffff168152602001806020018573ffffffffffffffffffffffffffffffffffffffff1673ffffffffffffffffffffffffffffffffffffffff168152602001848152602001838103835288818151815260200191508051906020019080838360005b83811015610381578082015181840152602081019050610366565b50505050905090810190601f1680156103ae5780820380516001836020036101000a031916815260200191505b50838103825286818151815260200191508051906020019080838360005b838110156103e75780820151818401526020810190506103cc565b50505050905090810190601f1680156104145780820380516001836020036101000a031916815260200191505b5097505050505050505060405180910390f35b34801561043357600080fd5b5061043c610ddf565b005b34801561044a57600080fd5b5061053f60048036038101908080359060200190929190803590602001908201803590602001908080601f0160208091040260200160405190810160405280939291908181526020018383808284378201915050505050509192919290803573ffffffffffffffffffffffffffffffffffffffff169060200190929190803590602001908201803590602001908080601f0160208091040260200160405190810160405280939291908181526020018383808284378201915050505050509192919290803573ffffffffffffffffffffffffffffffffffffffff16906020019092919080359060200190929190505050610ea7565b005b34801561054d57600080fd5b506105566110eb565b604051808273ffffffffffffffffffffffffffffffffffffffff1673ffffffffffffffffffffffffffffffffffffffff16815260200191505060405180910390f35b3480156105a457600080fd5b506105c360048036038101908080359060200190929190505050611110565b60405180806020018673ffffffffffffffffffffffffffffffffffffffff1673ffffffffffffffffffffffffffffffffffffffff168152602001806020018573ffffffffffffffffffffffffffffffffffffffff1673ffffffffffffffffffffffffffffffffffffffff168152602001848152602001838103835288818151815260200191508051906020019080838360005b83811015610671578082015181840152602081019050610656565b50505050905090810190601f16801561069e5780820380516001836020036101000a031916815260200191505b50838103825286818151815260200191508051906020019080838360005b838110156106d75780820151818401526020810190506106bc565b50505050905090810190601f1680156107045780820380516001836020036101000a031916815260200191505b5097505050505050505060405180910390f35b34801561072357600080fd5b5061074260048036038101908080359060200190929190505050611177565b6040518080602001828103825283818151815260200191508051906020019080838360005b83811015610782578082015181840152602081019050610767565b50505050905090810190601f1680156107af5780820380516001836020036101000a031916815260200191505b509250505060405180910390f35b3480156107c957600080fd5b506107fe600480360381019080803573ffffffffffffffffffffffffffffffffffffffff1690602001909291905050506111cb565b604051808215151515815260200191505060405180910390f35b34801561082457600080fd5b506108436004803603810190808035906020019092919050505061121f565b6040518082815260200191505060405180910390f35b34801561086557600080fd5b5061095a60048036038101908080359060200190929190803590602001908201803590602001908080601f0160208091040260200160405190810160405280939291908181526020018383808284378201915050505050509192919290803573ffffffffffffffffffffffffffffffffffffffff169060200190929190803590602001908201803590602001908080601f0160208091040260200160405190810160405280939291908181526020018383808284378201915050505050509192919290803573ffffffffffffffffffffffffffffffffffffffff16906020019092919080359060200190929190505050611273565b005b34801561096857600080fd5b506109916004803603810190808035906020019092919080359060200190929190505050611451565b005b34801561099f57600080fd5b506109be600480360381019080803590602001909291905050506114e1565b6040518080602001828103825283818151815260200191508051906020019080838360005b838110156109fe5780820151818401526020810190506109e3565b50505050905090810190601f168015610a2b5780820380516001836020036101000a031916815260200191505b509250505060405180910390f35b348015610a4557600080fd5b50610a6460048036038101908080359060200190929190505050611535565b604051808273ffffffffffffffffffffffffffffffffffffffff1673ffffffffffffffffffffffffffffffffffffffff16815260200191505060405180910390f35b610af38282600360009054906101000a900473ffffffffffffffffffffffffffffffffffffffff1673ffffffffffffffffffffffffffffffffffffffff166115899092919063ffffffff16565b7fecc5a039ee5311e887972ef4263d65344c7ca962ba3ecd33e66faef4ee5333518282604051808381526020018273ffffffffffffffffffffffffffffffffffffffff1673ffffffffffffffffffffffffffffffffffffffff1681526020019250505060405180910390a15050565b60018054600181600116156101000203166002900480601f016020809104026020016040519081016040528092919081815260200182805460018160011615610100020316600290048015610bf85780601f10610bcd57610100808354040283529160200191610bf8565b820191906000526020600020905b815481529060010190602001808311610bdb57829003601f168201915b505050505081565b610c4d8282600360009054906101000a900473ffffffffffffffffffffffffffffffffffffffff1673ffffffffffffffffffffffffffffffffffffffff1661170d9092919063ffffffff16565b7f3908ab5caf44fc3e7a4b58da20fc1794f0301ec457d66b301c4939be57ec650182826040518083815260200180602001828103825283818151815260200191508051906020019080838360005b83811015610cb6578082015181840152602081019050610c9b565b50505050905090810190601f168015610ce35780820380516001836020036101000a031916815260200191505b50935050505060405180910390a15050565b6000610d4282600360009054906101000a900473ffffffffffffffffffffffffffffffffffffffff1673ffffffffffffffffffffffffffffffffffffffff166118ca90919063ffffffff16565b9050919050565b606060006060600080610d5a615097565b610da587600360009054906101000a900473ffffffffffffffffffffffffffffffffffffffff1673ffffffffffffffffffffffffffffffffffffffff16611a4290919063ffffffff16565b9050806020015195508060400151945080606001519350806080015192508060a001516002811115610dd357fe5b91505091939590929450565b6000809054906101000a900473ffffffffffffffffffffffffffffffffffffffff1673ffffffffffffffffffffffffffffffffffffffff163273ffffffffffffffffffffffffffffffffffffffff16141515610ea3576040517f08c379a00000000000000000000000000000000000000000000000000000000081526004018080602001828103825260128152602001807f6f6e6c79206f776e657220616c6c6f776564000000000000000000000000000081525060200191505060405180910390fd5b6000ff5b610f6160c0604051908101604052808881526020018781526020018673ffffffffffffffffffffffffffffffffffffffff1681526020018581526020018473ffffffffffffffffffffffffffffffffffffffff168152602001836002811115610f0c57fe5b6002811115610f1757fe5b815250600360009054906101000a900473ffffffffffffffffffffffffffffffffffffffff1673ffffffffffffffffffffffffffffffffffffffff1661249890919063ffffffff16565b507fb2aef06aed6c32445d7d5744b2ba436bbe89a3a8c4d06a5f19ebc62b8d3f6b1a86868686868660405180878152602001806020018673ffffffffffffffffffffffffffffffffffffffff1673ffffffffffffffffffffffffffffffffffffffff168152602001806020018573ffffffffffffffffffffffffffffffffffffffff1673ffffffffffffffffffffffffffffffffffffffff168152602001848152602001838103835288818151815260200191508051906020019080838360005b8381101561103d578082015181840152602081019050611022565b50505050905090810190601f16801561106a5780820380516001836020036101000a031916815260200191505b50838103825286818151815260200191508051906020019080838360005b838110156110a3578082015181840152602081019050611088565b50505050905090810190601f1680156110d05780820380516001836020036101000a031916815260200191505b509850505050505050505060405180910390a1505050505050565b6000809054906101000a900473ffffffffffffffffffffffffffffffffffffffff1681565b60606000606060008061116486600360009054906101000a900473ffffffffffffffffffffffffffffffffffffffff1673ffffffffffffffffffffffffffffffffffffffff166133e190919063ffffffff16565b9450945094509450945091939590929450565b60606111c482600360009054906101000a900473ffffffffffffffffffffffffffffffffffffffff1673ffffffffffffffffffffffffffffffffffffffff166139d890919063ffffffff16565b9050919050565b600061121882600360009054906101000a900473ffffffffffffffffffffffffffffffffffffffff1673ffffffffffffffffffffffffffffffffffffffff16613ba690919063ffffffff16565b9050919050565b600061126c82600360009054906101000a900473ffffffffffffffffffffffffffffffffffffffff1673ffffffffffffffffffffffffffffffffffffffff16613da890919063ffffffff16565b9050919050565b6112c8868686868686600360009054906101000a900473ffffffffffffffffffffffffffffffffffffffff1673ffffffffffffffffffffffffffffffffffffffff16613f20909695949392919063ffffffff16565b7fb2aef06aed6c32445d7d5744b2ba436bbe89a3a8c4d06a5f19ebc62b8d3f6b1a86868686868660405180878152602001806020018673ffffffffffffffffffffffffffffffffffffffff1673ffffffffffffffffffffffffffffffffffffffff168152602001806020018573ffffffffffffffffffffffffffffffffffffffff1673ffffffffffffffffffffffffffffffffffffffff168152602001848152602001838103835288818151815260200191508051906020019080838360005b838110156113a3578082015181840152602081019050611388565b50505050905090810190601f1680156113d05780820380516001836020036101000a031916815260200191505b50838103825286818151815260200191508051906020019080838360005b838110156114095780820151818401526020810190506113ee565b50505050905090810190601f1680156114365780820380516001836020036101000a031916815260200191505b509850505050505050505060405180910390a1505050505050565b61149e8282600360009054906101000a900473ffffffffffffffffffffffffffffffffffffffff1673ffffffffffffffffffffffffffffffffffffffff166149519092919063ffffffff16565b7f565fdede77c2d98cf7ef898d489425bd022f8a537b7f7b8e28b0045866347fdf8282604051808381526020018281526020019250505060405180910390a15050565b606061152e82600360009054906101000a900473ffffffffffffffffffffffffffffffffffffffff1673ffffffffffffffffffffffffffffffffffffffff16614aa990919063ffffffff16565b9050919050565b600061158282600360009054906101000a900473ffffffffffffffffffffffffffffffffffffffff1673ffffffffffffffffffffffffffffffffffffffff16614c7790919063ffffffff16565b9050919050565b6115938383614def565b1515611607576040517f08c379a00000000000000000000000000000000000000000000000000000000081526004018080602001828103825260198152602001807f4170706c69636174696f6e206973206e6f74206578697374730000000000000081525060200191505060405180910390fd5b8273ffffffffffffffffffffffffffffffffffffffff16635a2bf25a6116626040805190810160405280601381526020017f6170706c69636174696f6e5f616464726573730000000000000000000000000081525085614fb6565b836040518363ffffffff167c01000000000000000000000000000000000000000000000000000000000281526004018083600019166000191681526020018273ffffffffffffffffffffffffffffffffffffffff1673ffffffffffffffffffffffffffffffffffffffff16815260200192505050600060405180830381600087803b1580156116f057600080fd5b505af1158015611704573d6000803e3d6000fd5b50505050505050565b6117178383614def565b151561178b576040517f08c379a00000000000000000000000000000000000000000000000000000000081526004018080602001828103825260198152602001807f4170706c69636174696f6e206973206e6f74206578697374730000000000000081525060200191505060405180910390fd5b8273ffffffffffffffffffffffffffffffffffffffff1663f58660666117e66040805190810160405280600f81526020017f6170706c69636174696f6e5f75726c000000000000000000000000000000000081525085614fb6565b836040518363ffffffff167c010000000000000000000000000000000000000000000000000000000002815260040180836000191660001916815260200180602001828103825283818151815260200191508051906020019080838360005b83811015611860578082015181840152602081019050611845565b50505050905090810190601f16801561188d5780820380516001836020036101000a031916815260200191505b509350505050600060405180830381600087803b1580156118ad57600080fd5b505af11580156118c1573d6000803e3d6000fd5b50505050505050565b60006118d68383614def565b151561194a576040517f08c379a00000000000000000000000000000000000000000000000000000000081526004018080602001828103825260198152602001807f4170706c69636174696f6e206973206e6f74206578697374730000000000000081525060200191505060405180910390fd5b8273ffffffffffffffffffffffffffffffffffffffff16634c77e5ba6119a56040805190810160405280601181526020017f6170706c69636174696f6e5f6f776e657200000000000000000000000000000081525085614fb6565b6040518263ffffffff167c0100000000000000000000000000000000000000000000000000000000028152600401808260001916600019168152602001915050602060405180830381600087803b1580156119ff57600080fd5b505af1158015611a13573d6000803e3d6000fd5b505050506040513d6020811015611a2957600080fd5b8101908080519060200190929190505050905092915050565b611a4a615097565b611a548383614def565b1515611ac8576040517f08c379a00000000000000000000000000000000000000000000000000000000081526004018080602001828103825260198152602001807f4170706c69636174696f6e206973206e6f74206578697374730000000000000081525060200191505060405180910390fd5b60c0604051908101604052808381526020018473ffffffffffffffffffffffffffffffffffffffff1663a209a29c6040805190810160405280601081526020017f6170706c69636174696f6e5f6e616d6500000000000000000000000000000000815250866040516020018083805190602001908083835b602083101515611b655780518252602082019150602081019050602083039250611b40565b6001836020036101000a038019825116818451168082178552505050505050905001828152602001925050506040516020818303038152906040526040518082805190602001908083835b602083101515611bd55780518252602082019150602081019050602083039250611bb0565b6001836020036101000a03801982511681845116808217855250505050505090500191505060405180910390206040518263ffffffff167c0100000000000000000000000000000000000000000000000000000000028152600401808260001916600019168152602001915050600060405180830381600087803b158015611c5c57600080fd5b505af1158015611c70573d6000803e3d6000fd5b505050506040513d6000823e3d601f19601f820116820180604052506020811015611c9a57600080fd5b810190808051640100000000811115611cb257600080fd5b82810190506020810184811115611cc857600080fd5b8151856001820283011164010000000082111715611ce557600080fd5b505092919050505081526020018473ffffffffffffffffffffffffffffffffffffffff16634c77e5ba6040805190810160405280601181526020017f6170706c69636174696f6e5f6f776e6572000000000000000000000000000000815250866040516020018083805190602001908083835b602083101515611d7d5780518252602082019150602081019050602083039250611d58565b6001836020036101000a038019825116818451168082178552505050505050905001828152602001925050506040516020818303038152906040526040518082805190602001908083835b602083101515611ded5780518252602082019150602081019050602083039250611dc8565b6001836020036101000a03801982511681845116808217855250505050505090500191505060405180910390206040518263ffffffff167c0100000000000000000000000000000000000000000000000000000000028152600401808260001916600019168152602001915050602060405180830381600087803b158015611e7457600080fd5b505af1158015611e88573d6000803e3d6000fd5b505050506040513d6020811015611e9e57600080fd5b810190808051906020019092919050505073ffffffffffffffffffffffffffffffffffffffff1681526020018473ffffffffffffffffffffffffffffffffffffffff1663a209a29c6040805190810160405280600f81526020017f6170706c69636174696f6e5f75726c0000000000000000000000000000000000815250866040516020018083805190602001908083835b602083101515611f555780518252602082019150602081019050602083039250611f30565b6001836020036101000a038019825116818451168082178552505050505050905001828152602001925050506040516020818303038152906040526040518082805190602001908083835b602083101515611fc55780518252602082019150602081019050602083039250611fa0565b6001836020036101000a03801982511681845116808217855250505050505090500191505060405180910390206040518263ffffffff167c0100000000000000000000000000000000000000000000000000000000028152600401808260001916600019168152602001915050600060405180830381600087803b15801561204c57600080fd5b505af1158015612060573d6000803e3d6000fd5b505050506040513d6000823e3d601f19601f82011682018060405250602081101561208a57600080fd5b8101908080516401000000008111156120a257600080fd5b828101905060208101848111156120b857600080fd5b81518560018202830111640100000000821117156120d557600080fd5b505092919050505081526020018473ffffffffffffffffffffffffffffffffffffffff16634c77e5ba6040805190810160405280601381526020017f6170706c69636174696f6e5f6164647265737300000000000000000000000000815250866040516020018083805190602001908083835b60208310151561216d5780518252602082019150602081019050602083039250612148565b6001836020036101000a038019825116818451168082178552505050505050905001828152602001925050506040516020818303038152906040526040518082805190602001908083835b6020831015156121dd57805182526020820191506020810190506020830392506121b8565b6001836020036101000a03801982511681845116808217855250505050505090500191505060405180910390206040518263ffffffff167c0100000000000000000000000000000000000000000000000000000000028152600401808260001916600019168152602001915050602060405180830381600087803b15801561226457600080fd5b505af1158015612278573d6000803e3d6000fd5b505050506040513d602081101561228e57600080fd5b810190808051906020019092919050505073ffffffffffffffffffffffffffffffffffffffff1681526020018473ffffffffffffffffffffffffffffffffffffffff1663e82617fb6040805190810160405280600e81526020017f6170706c69636174696f6e5f6964000000000000000000000000000000000000815250866040516020018083805190602001908083835b6020831015156123455780518252602082019150602081019050602083039250612320565b6001836020036101000a038019825116818451168082178552505050505050905001828152602001925050506040516020818303038152906040526040518082805190602001908083835b6020831015156123b55780518252602082019150602081019050602083039250612390565b6001836020036101000a03801982511681845116808217855250505050505090500191505060405180910390206040518263ffffffff167c0100000000000000000000000000000000000000000000000000000000028152600401808260001916600019168152602001915050602060405180830381600087803b15801561243c57600080fd5b505af1158015612450573d6000803e3d6000fd5b505050506040513d602081101561246657600080fd5b8101908080519060200190929190505050600281111561248257fe5b600281111561248d57fe5b815250905092915050565b60006124a8838360000151614def565b15151561251d576040517f08c379a000000000000000000000000000000000000000000000000000000000815260040180806020018281038252601a8152602001807f4170706c69636174696f6e20616c72656164792065786973747300000000000081525060200191505060405180910390fd5b8273ffffffffffffffffffffffffffffffffffffffff1663ffb4f6236040805190810160405280600e81526020017f6170706c69636174696f6e5f696400000000000000000000000000000000000081525084600001516040516020018083805190602001908083835b6020831015156125ac5780518252602082019150602081019050602083039250612587565b6001836020036101000a038019825116818451168082178552505050505050905001828152602001925050506040516020818303038152906040526040518082805190602001908083835b60208310151561261c57805182526020820191506020810190506020830392506125f7565b6001836020036101000a038019825116818451168082178552505050505050905001915050604051809103902084600001516040518363ffffffff167c010000000000000000000000000000000000000000000000000000000002815260040180836000191660001916815260200182815260200192505050600060405180830381600087803b1580156126af57600080fd5b505af11580156126c3573d6000803e3d6000fd5b505050508273ffffffffffffffffffffffffffffffffffffffff1663f58660666040805190810160405280601081526020017f6170706c69636174696f6e5f6e616d650000000000000000000000000000000081525084600001516040516020018083805190602001908083835b6020831015156127565780518252602082019150602081019050602083039250612731565b6001836020036101000a038019825116818451168082178552505050505050905001828152602001925050506040516020818303038152906040526040518082805190602001908083835b6020831015156127c657805182526020820191506020810190506020830392506127a1565b6001836020036101000a038019825116818451168082178552505050505050905001915050604051809103902084602001516040518363ffffffff167c010000000000000000000000000000000000000000000000000000000002815260040180836000191660001916815260200180602001828103825283818151815260200191508051906020019080838360005b83811015612871578082015181840152602081019050612856565b50505050905090810190601f16801561289e5780820380516001836020036101000a031916815260200191505b509350505050600060405180830381600087803b1580156128be57600080fd5b505af11580156128d2573d6000803e3d6000fd5b505050508273ffffffffffffffffffffffffffffffffffffffff16635a2bf25a6040805190810160405280601181526020017f6170706c69636174696f6e5f6f776e657200000000000000000000000000000081525084600001516040516020018083805190602001908083835b6020831015156129655780518252602082019150602081019050602083039250612940565b6001836020036101000a038019825116818451168082178552505050505050905001828152602001925050506040516020818303038152906040526040518082805190602001908083835b6020831015156129d557805182526020820191506020810190506020830392506129b0565b6001836020036101000a038019825116818451168082178552505050505050905001915050604051809103902084604001516040518363ffffffff167c01000000000000000000000000000000000000000000000000000000000281526004018083600019166000191681526020018273ffffffffffffffffffffffffffffffffffffffff1673ffffffffffffffffffffffffffffffffffffffff16815260200192505050600060405180830381600087803b158015612a9457600080fd5b505af1158015612aa8573d6000803e3d6000fd5b505050508273ffffffffffffffffffffffffffffffffffffffff1663f58660666040805190810160405280600f81526020017f6170706c69636174696f6e5f75726c000000000000000000000000000000000081525084600001516040516020018083805190602001908083835b602083101515612b3b5780518252602082019150602081019050602083039250612b16565b6001836020036101000a038019825116818451168082178552505050505050905001828152602001925050506040516020818303038152906040526040518082805190602001908083835b602083101515612bab5780518252602082019150602081019050602083039250612b86565b6001836020036101000a038019825116818451168082178552505050505050905001915050604051809103902084606001516040518363ffffffff167c010000000000000000000000000000000000000000000000000000000002815260040180836000191660001916815260200180602001828103825283818151815260200191508051906020019080838360005b83811015612c56578082015181840152602081019050612c3b565b50505050905090810190601f168015612c835780820380516001836020036101000a031916815260200191505b509350505050600060405180830381600087803b158015612ca357600080fd5b505af1158015612cb7573d6000803e3d6000fd5b505050508273ffffffffffffffffffffffffffffffffffffffff16635a2bf25a6040805190810160405280601381526020017f6170706c69636174696f6e5f616464726573730000000000000000000000000081525084600001516040516020018083805190602001908083835b602083101515612d4a5780518252602082019150602081019050602083039250612d25565b6001836020036101000a038019825116818451168082178552505050505050905001828152602001925050506040516020818303038152906040526040518082805190602001908083835b602083101515612dba5780518252602082019150602081019050602083039250612d95565b6001836020036101000a038019825116818451168082178552505050505050905001915050604051809103902084608001516040518363ffffffff167c01000000000000000000000000000000000000000000000000000000000281526004018083600019166000191681526020018273ffffffffffffffffffffffffffffffffffffffff1673ffffffffffffffffffffffffffffffffffffffff16815260200192505050600060405180830381600087803b158015612e7957600080fd5b505af1158015612e8d573d6000803e3d6000fd5b505050508273ffffffffffffffffffffffffffffffffffffffff1663ffb4f6236040805190810160405280601281526020017f6170706c69636174696f6e5f737461747573000000000000000000000000000081525084600001516040516020018083805190602001908083835b602083101515612f205780518252602082019150602081019050602083039250612efb565b6001836020036101000a038019825116818451168082178552505050505050905001828152602001925050506040516020818303038152906040526040518082805190602001908083835b602083101515612f905780518252602082019150602081019050602083039250612f6b565b6001836020036101000a03801982511681845116808217855250505050505090500191505060405180910390208460a001516002811115612fcd57fe5b6040518363ffffffff167c010000000000000000000000000000000000000000000000000000000002815260040180836000191660001916815260200182815260200192505050600060405180830381600087803b15801561302e57600080fd5b505af1158015613042573d6000803e3d6000fd5b505050508273ffffffffffffffffffffffffffffffffffffffff16633eba9ed26040805190810160405280601681526020017f6170706c69636174696f6e5f726567697374657265640000000000000000000081525084608001516040516020018083805190602001908083835b6020831015156130d557805182526020820191506020810190506020830392506130b0565b6001836020036101000a0380198251168184511680821785525050505050509050018273ffffffffffffffffffffffffffffffffffffffff1673ffffffffffffffffffffffffffffffffffffffff166c01000000000000000000000000028152601401925050506040516020818303038152906040526040518082805190602001908083835b602083101515613180578051825260208201915060208101905060208303925061315b565b6001836020036101000a038019825116818451168082178552505050505050905001915050604051809103902060016040518363ffffffff167c01000000000000000000000000000000000000000000000000000000000281526004018083600019166000191681526020018215151515815260200192505050600060405180830381600087803b15801561321457600080fd5b505af1158015613228573d6000803e3d6000fd5b505050508273ffffffffffffffffffffffffffffffffffffffff16633eba9ed26040805190810160405280601281526020017f6170706c69636174696f6e2e657869737473000000000000000000000000000081525084600001516040516020018083805190602001908083835b6020831015156132bb5780518252602082019150602081019050602083039250613296565b6001836020036101000a038019825116818451168082178552505050505050905001828152602001925050506040516020818303038152906040526040518082805190602001908083835b60208310151561332b5780518252602082019150602081019050602083039250613306565b6001836020036101000a038019825116818451168082178552505050505050905001915050604051809103902060016040518363ffffffff167c01000000000000000000000000000000000000000000000000000000000281526004018083600019166000191681526020018215151515815260200192505050600060405180830381600087803b1580156133bf57600080fd5b505af11580156133d3573d6000803e3d6000fd5b505050506001905092915050565b6060600060606000806133f48787614def565b1515613468576040517f08c379a00000000000000000000000000000000000000000000000000000000081526004018080602001828103825260198152602001807f4170706c69636174696f6e206973206e6f74206578697374730000000000000081525060200191505060405180910390fd5b8673ffffffffffffffffffffffffffffffffffffffff1663a209a29c6134c36040805190810160405280601081526020017f6170706c69636174696f6e5f6e616d650000000000000000000000000000000081525089614fb6565b6040518263ffffffff167c0100000000000000000000000000000000000000000000000000000000028152600401808260001916600019168152602001915050600060405180830381600087803b15801561351d57600080fd5b505af1158015613531573d6000803e3d6000fd5b505050506040513d6000823e3d601f19601f82011682018060405250602081101561355b57600080fd5b81019080805164010000000081111561357357600080fd5b8281019050602081018481111561358957600080fd5b81518560018202830111640100000000821117156135a657600080fd5b505092919050505094508673ffffffffffffffffffffffffffffffffffffffff16634c77e5ba61360b6040805190810160405280601181526020017f6170706c69636174696f6e5f6f776e657200000000000000000000000000000081525089614fb6565b6040518263ffffffff167c0100000000000000000000000000000000000000000000000000000000028152600401808260001916600019168152602001915050602060405180830381600087803b15801561366557600080fd5b505af1158015613679573d6000803e3d6000fd5b505050506040513d602081101561368f57600080fd5b810190808051906020019092919050505093508673ffffffffffffffffffffffffffffffffffffffff1663a209a29c6136fd6040805190810160405280600f81526020017f6170706c69636174696f6e5f75726c000000000000000000000000000000000081525089614fb6565b6040518263ffffffff167c0100000000000000000000000000000000000000000000000000000000028152600401808260001916600019168152602001915050600060405180830381600087803b15801561375757600080fd5b505af115801561376b573d6000803e3d6000fd5b505050506040513d6000823e3d601f19601f82011682018060405250602081101561379557600080fd5b8101908080516401000000008111156137ad57600080fd5b828101905060208101848111156137c357600080fd5b81518560018202830111640100000000821117156137e057600080fd5b505092919050505092508673ffffffffffffffffffffffffffffffffffffffff16634c77e5ba6138456040805190810160405280601381526020017f6170706c69636174696f6e5f616464726573730000000000000000000000000081525089614fb6565b6040518263ffffffff167c0100000000000000000000000000000000000000000000000000000000028152600401808260001916600019168152602001915050602060405180830381600087803b15801561389f57600080fd5b505af11580156138b3573d6000803e3d6000fd5b505050506040513d60208110156138c957600080fd5b810190808051906020019092919050505091508673ffffffffffffffffffffffffffffffffffffffff1663e82617fb6139376040805190810160405280601281526020017f6170706c69636174696f6e5f737461747573000000000000000000000000000081525089614fb6565b6040518263ffffffff167c0100000000000000000000000000000000000000000000000000000000028152600401808260001916600019168152602001915050602060405180830381600087803b15801561399157600080fd5b505af11580156139a5573d6000803e3d6000fd5b505050506040513d60208110156139bb57600080fd5b810190808051906020019092919050505090509295509295909350565b60606139e48383614def565b1515613a58576040517f08c379a00000000000000000000000000000000000000000000000000000000081526004018080602001828103825260198152602001807f4170706c69636174696f6e206973206e6f74206578697374730000000000000081525060200191505060405180910390fd5b8273ffffffffffffffffffffffffffffffffffffffff1663a209a29c613ab36040805190810160405280600f81526020017f6170706c69636174696f6e5f75726c000000000000000000000000000000000081525085614fb6565b6040518263ffffffff167c0100000000000000000000000000000000000000000000000000000000028152600401808260001916600019168152602001915050600060405180830381600087803b158015613b0d57600080fd5b505af1158015613b21573d6000803e3d6000fd5b505050506040513d6000823e3d601f19601f820116820180604052506020811015613b4b57600080fd5b810190808051640100000000811115613b6357600080fd5b82810190506020810184811115613b7957600080fd5b8151856001820283011164010000000082111715613b9657600080fd5b5050929190505050905092915050565b60008273ffffffffffffffffffffffffffffffffffffffff166317e7dd226040805190810160405280601681526020017f6170706c69636174696f6e5f7265676973746572656400000000000000000000815250846040516020018083805190602001908083835b602083101515613c335780518252602082019150602081019050602083039250613c0e565b6001836020036101000a0380198251168184511680821785525050505050509050018273ffffffffffffffffffffffffffffffffffffffff1673ffffffffffffffffffffffffffffffffffffffff166c01000000000000000000000000028152601401925050506040516020818303038152906040526040518082805190602001908083835b602083101515613cde5780518252602082019150602081019050602083039250613cb9565b6001836020036101000a03801982511681845116808217855250505050505090500191505060405180910390206040518263ffffffff167c0100000000000000000000000000000000000000000000000000000000028152600401808260001916600019168152602001915050602060405180830381600087803b158015613d6557600080fd5b505af1158015613d79573d6000803e3d6000fd5b505050506040513d6020811015613d8f57600080fd5b8101908080519060200190929190505050905092915050565b6000613db48383614def565b1515613e28576040517f08c379a00000000000000000000000000000000000000000000000000000000081526004018080602001828103825260198152602001807f4170706c69636174696f6e206973206e6f74206578697374730000000000000081525060200191505060405180910390fd5b8273ffffffffffffffffffffffffffffffffffffffff1663e82617fb613e836040805190810160405280601281526020017f6170706c69636174696f6e5f737461747573000000000000000000000000000081525085614fb6565b6040518263ffffffff167c0100000000000000000000000000000000000000000000000000000000028152600401808260001916600019168152602001915050602060405180830381600087803b158015613edd57600080fd5b505af1158015613ef1573d6000803e3d6000fd5b505050506040513d6020811015613f0757600080fd5b8101908080519060200190929190505050905092915050565b613f2a8787614def565b151515613f9f576040517f08c379a000000000000000000000000000000000000000000000000000000000815260040180806020018281038252601a8152602001807f4170706c69636174696f6e20616c72656164792065786973747300000000000081525060200191505060405180910390fd5b8673ffffffffffffffffffffffffffffffffffffffff1663ffb4f623613ffa6040805190810160405280600e81526020017f6170706c69636174696f6e5f696400000000000000000000000000000000000081525089614fb6565b886040518363ffffffff167c010000000000000000000000000000000000000000000000000000000002815260040180836000191660001916815260200182815260200192505050600060405180830381600087803b15801561405c57600080fd5b505af1158015614070573d6000803e3d6000fd5b505050508673ffffffffffffffffffffffffffffffffffffffff1663f58660666140cf6040805190810160405280601081526020017f6170706c69636174696f6e5f6e616d650000000000000000000000000000000081525089614fb6565b876040518363ffffffff167c010000000000000000000000000000000000000000000000000000000002815260040180836000191660001916815260200180602001828103825283818151815260200191508051906020019080838360005b8381101561414957808201518184015260208101905061412e565b50505050905090810190601f1680156141765780820380516001836020036101000a031916815260200191505b509350505050600060405180830381600087803b15801561419657600080fd5b505af11580156141aa573d6000803e3d6000fd5b505050508673ffffffffffffffffffffffffffffffffffffffff16635a2bf25a6142096040805190810160405280601181526020017f6170706c69636174696f6e5f6f776e657200000000000000000000000000000081525089614fb6565b866040518363ffffffff167c01000000000000000000000000000000000000000000000000000000000281526004018083600019166000191681526020018273ffffffffffffffffffffffffffffffffffffffff1673ffffffffffffffffffffffffffffffffffffffff16815260200192505050600060405180830381600087803b15801561429757600080fd5b505af11580156142ab573d6000803e3d6000fd5b505050508673ffffffffffffffffffffffffffffffffffffffff1663f586606661430a6040805190810160405280600f81526020017f6170706c69636174696f6e5f75726c000000000000000000000000000000000081525089614fb6565b856040518363ffffffff167c010000000000000000000000000000000000000000000000000000000002815260040180836000191660001916815260200180602001828103825283818151815260200191508051906020019080838360005b83811015614384578082015181840152602081019050614369565b50505050905090810190601f1680156143b15780820380516001836020036101000a031916815260200191505b509350505050600060405180830381600087803b1580156143d157600080fd5b505af11580156143e5573d6000803e3d6000fd5b505050508673ffffffffffffffffffffffffffffffffffffffff16635a2bf25a6144446040805190810160405280601381526020017f6170706c69636174696f6e5f616464726573730000000000000000000000000081525089614fb6565b846040518363ffffffff167c01000000000000000000000000000000000000000000000000000000000281526004018083600019166000191681526020018273ffffffffffffffffffffffffffffffffffffffff1673ffffffffffffffffffffffffffffffffffffffff16815260200192505050600060405180830381600087803b1580156144d257600080fd5b505af11580156144e6573d6000803e3d6000fd5b505050508673ffffffffffffffffffffffffffffffffffffffff1663ffb4f6236145456040805190810160405280601281526020017f6170706c69636174696f6e5f737461747573000000000000000000000000000081525089614fb6565b836040518363ffffffff167c010000000000000000000000000000000000000000000000000000000002815260040180836000191660001916815260200182815260200192505050600060405180830381600087803b1580156145a757600080fd5b505af11580156145bb573d6000803e3d6000fd5b505050508673ffffffffffffffffffffffffffffffffffffffff16633eba9ed26040805190810160405280601681526020017f6170706c69636174696f6e5f7265676973746572656400000000000000000000815250846040516020018083805190602001908083835b60208310151561464a5780518252602082019150602081019050602083039250614625565b6001836020036101000a0380198251168184511680821785525050505050509050018273ffffffffffffffffffffffffffffffffffffffff1673ffffffffffffffffffffffffffffffffffffffff166c01000000000000000000000000028152601401925050506040516020818303038152906040526040518082805190602001908083835b6020831015156146f557805182526020820191506020810190506020830392506146d0565b6001836020036101000a038019825116818451168082178552505050505050905001915050604051809103902060016040518363ffffffff167c01000000000000000000000000000000000000000000000000000000000281526004018083600019166000191681526020018215151515815260200192505050600060405180830381600087803b15801561478957600080fd5b505af115801561479d573d6000803e3d6000fd5b505050508673ffffffffffffffffffffffffffffffffffffffff16633eba9ed26040805190810160405280601281526020017f6170706c69636174696f6e2e6578697374730000000000000000000000000000815250886040516020018083805190602001908083835b60208310151561482c5780518252602082019150602081019050602083039250614807565b6001836020036101000a038019825116818451168082178552505050505050905001828152602001925050506040516020818303038152906040526040518082805190602001908083835b60208310151561489c5780518252602082019150602081019050602083039250614877565b6001836020036101000a038019825116818451168082178552505050505050905001915050604051809103902060016040518363ffffffff167c01000000000000000000000000000000000000000000000000000000000281526004018083600019166000191681526020018215151515815260200192505050600060405180830381600087803b15801561493057600080fd5b505af1158015614944573d6000803e3d6000fd5b5050505050505050505050565b61495b8383614def565b15156149cf576040517f08c379a00000000000000000000000000000000000000000000000000000000081526004018080602001828103825260198152602001807f4170706c69636174696f6e206973206e6f74206578697374730000000000000081525060200191505060405180910390fd5b8273ffffffffffffffffffffffffffffffffffffffff1663ffb4f623614a2a6040805190810160405280601281526020017f6170706c69636174696f6e5f737461747573000000000000000000000000000081525085614fb6565b836040518363ffffffff167c010000000000000000000000000000000000000000000000000000000002815260040180836000191660001916815260200182815260200192505050600060405180830381600087803b158015614a8c57600080fd5b505af1158015614aa0573d6000803e3d6000fd5b50505050505050565b6060614ab58383614def565b1515614b29576040517f08c379a00000000000000000000000000000000000000000000000000000000081526004018080602001828103825260198152602001807f4170706c69636174696f6e206973206e6f74206578697374730000000000000081525060200191505060405180910390fd5b8273ffffffffffffffffffffffffffffffffffffffff1663a209a29c614b846040805190810160405280601081526020017f6170706c69636174696f6e5f6e616d650000000000000000000000000000000081525085614fb6565b6040518263ffffffff167c0100000000000000000000000000000000000000000000000000000000028152600401808260001916600019168152602001915050600060405180830381600087803b158015614bde57600080fd5b505af1158015614bf2573d6000803e3d6000fd5b505050506040513d6000823e3d601f19601f820116820180604052506020811015614c1c57600080fd5b810190808051640100000000811115614c3457600080fd5b82810190506020810184811115614c4a57600080fd5b8151856001820283011164010000000082111715614c6757600080fd5b5050929190505050905092915050565b6000614c838383614def565b1515614cf7576040517f08c379a00000000000000000000000000000000000000000000000000000000081526004018080602001828103825260198152602001807f4170706c69636174696f6e206973206e6f74206578697374730000000000000081525060200191505060405180910390fd5b8273ffffffffffffffffffffffffffffffffffffffff16634c77e5ba614d526040805190810160405280601381526020017f6170706c69636174696f6e5f616464726573730000000000000000000000000081525085614fb6565b6040518263ffffffff167c0100000000000000000000000000000000000000000000000000000000028152600401808260001916600019168152602001915050602060405180830381600087803b158015614dac57600080fd5b505af1158015614dc0573d6000803e3d6000fd5b505050506040513d6020811015614dd657600080fd5b8101908080519060200190929190505050905092915050565b60008273ffffffffffffffffffffffffffffffffffffffff166317e7dd226040805190810160405280601281526020017f6170706c69636174696f6e2e6578697374730000000000000000000000000000815250846040516020018083805190602001908083835b602083101515614e7c5780518252602082019150602081019050602083039250614e57565b6001836020036101000a038019825116818451168082178552505050505050905001828152602001925050506040516020818303038152906040526040518082805190602001908083835b602083101515614eec5780518252602082019150602081019050602083039250614ec7565b6001836020036101000a03801982511681845116808217855250505050505090500191505060405180910390206040518263ffffffff167c0100000000000000000000000000000000000000000000000000000000028152600401808260001916600019168152602001915050602060405180830381600087803b158015614f7357600080fd5b505af1158015614f87573d6000803e3d6000fd5b505050506040513d6020811015614f9d57600080fd5b8101908080519060200190929190505050905092915050565b600082826040516020018083805190602001908083835b602083101515614ff25780518252602082019150602081019050602083039250614fcd565b6001836020036101000a038019825116818451168082178552505050505050905001828152602001925050506040516020818303038152906040526040518082805190602001908083835b602083101515615062578051825260208201915060208101905060208303925061503d565b6001836020036101000a0380198251168184511680821785525050505050509050019150506040518091039020905092915050565b60c0604051908101604052806000815260200160608152602001600073ffffffffffffffffffffffffffffffffffffffff16815260200160608152602001600073ffffffffffffffffffffffffffffffffffffffff168152602001600060028111156150ff57fe5b815250905600a165627a7a72305820c40da8aeab116ce453dd08c315273323bde4fd1bb06f70f80a347a435da8b3620029",
  "source": "pragma solidity 0.4.24;\n\nimport {ApplicationLib} from \"../libs/Libraries.sol\";\nimport {AnApplicationStorage} from \"./Storages.sol\";\nimport \"../Platform.sol\";\n\ncontract ApplicationStorage is AnApplicationStorage, Named(\"application-storage\"), Mortal, Component {\n\n    using ApplicationLib for address;\n\n    constructor(address _config) Component(_config) public {}\n\n    function createApplication(uint256 _id, string _name, address _owner, string _url, address _appAddr, uint256 _status) public {\n        database.createApplication(ApplicationLib.Application({\n            id: _id,\n            name: _name,\n            owner: _owner,\n            url: _url,\n            deployedAddress: _appAddr,\n            status: ApplicationLib.Status(_status)\n        }));\n        emit ApplicationSaved(_id, _name, _owner, _url, _appAddr, _status);\n    }\n\n    function retrieveApplication(uint256 _id) public view returns (string _name, address _owner, string _url, address _appAddr, uint256 _status) {\n        ApplicationLib.Application memory application = database.retrieveApplication(_id);\n        _name = application.name;\n        _owner = application.owner;\n        _url = application.url;\n        _appAddr = application.deployedAddress;\n        _status = uint256(application.status);\n    }\n\n    function save(uint256 appId, string name, address owner, string url, address appAddr, uint256 status) public {\n        database.save(appId, name, owner, url, appAddr, status);\n        emit ApplicationSaved(appId, name, owner, url, appAddr, status);\n    }\n\n    function get(uint256 appId) public view returns (string, address, string, address, uint256) {\n        return database.get(appId);\n    }\n\n    function isRegistered(address _applicationAddress) public view returns(bool) {\n        return database.isRegistered(_applicationAddress);\n    }\n\n    function getApplicationName(uint256 appId) public view returns(string) {\n        return database.getName(appId);\n    }\n\n    function getApplicationOwner(uint256 appId) public view returns(address) {\n        return database.getOwner(appId);\n    }\n\n    function getApplicationUrl(uint256 appId) public view returns(string) {\n        return database.getUrl(appId);\n    }\n\n    function setApplicationUrl(uint256 appId, string url) public {\n        database.setUrl(appId, url);\n        emit ApplicationUrlUpdated(appId, url);\n    }\n\n    function getApplicationAddress(uint256 appId) public view returns(address) {\n        return database.getAddress(appId);\n    }\n\n    function setApplicationAddress(uint256 appId, address appAddr) public {\n        database.setAddress(appId, appAddr);\n        emit ApplicationAddressUpdated(appId, appAddr);\n    }\n\n    function getApplicationStatus(uint256 appId) public view returns(uint256) {\n        return database.getStatus(appId);\n    }\n\n    function setApplicationStatus(uint256 appId, uint256 status) public {\n        database.setStatus(appId, status);\n        emit ApplicationStatusUpdated(appId, status);\n    }\n\n}",
  "sourcePath": "/home/andrew/vault-logic-project/Development/test/vault-logic-api/truffle/contracts/storages/ApplicationStorage.sol",
  "compiler": {
    "name": "solc",
    "version": "0.4.24+commit.e67f0147.Emscripten.clang"
  },
  "schemaVersion": "2.0.1",
  "updatedAt": "2018-10-16T10:59:59.272Z"
}