{
  "contractName": "CameraManager",
  "abi": [
    {
      "constant": true,
      "inputs": [],
      "name": "name",
      "outputs": [
        {
          "name": "",
          "type": "string"
        }
      ],
      "payable": false,
      "stateMutability": "view",
      "type": "function"
    },
    {
      "constant": false,
      "inputs": [],
      "name": "kill",
      "outputs": [],
      "payable": false,
      "stateMutability": "nonpayable",
      "type": "function"
    },
    {
      "constant": true,
      "inputs": [],
      "name": "owner",
      "outputs": [
        {
          "name": "",
          "type": "address"
        }
      ],
      "payable": false,
      "stateMutability": "view",
      "type": "function"
    },
    {
      "inputs": [
        {
          "name": "_config",
          "type": "address"
        }
      ],
      "payable": false,
      "stateMutability": "nonpayable",
      "type": "constructor"
    },
    {
      "constant": false,
      "inputs": [
        {
          "name": "_application",
          "type": "address"
        },
        {
          "name": "_sessionId",
          "type": "uint256"
        },
        {
          "name": "_lights",
          "type": "bool"
        },
        {
          "name": "_success",
          "type": "function"
        },
        {
          "name": "_scanned",
          "type": "function"
        },
        {
          "name": "_fail",
          "type": "function"
        }
      ],
      "name": "scanQRCode",
      "outputs": [],
      "payable": false,
      "stateMutability": "nonpayable",
      "type": "function"
    },
    {
      "constant": false,
      "inputs": [
        {
          "name": "_commandId",
          "type": "uint256"
        }
      ],
      "name": "confirmFailStart",
      "outputs": [],
      "payable": false,
      "stateMutability": "nonpayable",
      "type": "function"
    },
    {
      "constant": false,
      "inputs": [
        {
          "name": "_commandId",
          "type": "uint256"
        },
        {
          "name": "_port",
          "type": "string"
        },
        {
          "name": "_url",
          "type": "string"
        },
        {
          "name": "_href",
          "type": "string"
        }
      ],
      "name": "confirmStart",
      "outputs": [],
      "payable": false,
      "stateMutability": "nonpayable",
      "type": "function"
    },
    {
      "constant": false,
      "inputs": [
        {
          "name": "_sessionId",
          "type": "uint256"
        },
        {
          "name": "_qr",
          "type": "string"
        }
      ],
      "name": "confirmScanned",
      "outputs": [],
      "payable": false,
      "stateMutability": "nonpayable",
      "type": "function"
    },
    {
      "constant": false,
      "inputs": [
        {
          "name": "_application",
          "type": "address"
        },
        {
          "name": "_sessionId",
          "type": "uint256"
        },
        {
          "name": "_success",
          "type": "function"
        },
        {
          "name": "_fail",
          "type": "function"
        }
      ],
      "name": "stopQRScanning",
      "outputs": [],
      "payable": false,
      "stateMutability": "nonpayable",
      "type": "function"
    },
    {
      "constant": false,
      "inputs": [
        {
          "name": "_commandId",
          "type": "uint256"
        }
      ],
      "name": "confirmStop",
      "outputs": [],
      "payable": false,
      "stateMutability": "nonpayable",
      "type": "function"
    },
    {
      "constant": false,
      "inputs": [
        {
          "name": "_commandId",
          "type": "uint256"
        }
      ],
      "name": "confirmFailStop",
      "outputs": [],
      "payable": false,
      "stateMutability": "nonpayable",
      "type": "function"
    }
  ],
  "bytecode": "0x60806040523480156200001157600080fd5b50604051602080620021978339810160408181529151828201909252600e8082527f63616d6572612d6d616e616765720000000000000000000000000000000000006020830190815260008054600160a060020a031916331790558392916200007d91600191620002b8565b505080600160a060020a031663713b563f6040518163ffffffff167c0100000000000000000000000000000000000000000000000000000000028152600401602060405180830381600087803b158015620000d757600080fd5b505af1158015620000ec573d6000803e3d6000fd5b505050506040513d60208110156200010357600080fd5b505160038054600160a060020a031916600160a060020a03928316179055604080517fd0496d6a00000000000000000000000000000000000000000000000000000000815290519183169163d0496d6a916004808201926020929091908290030181600087803b1580156200017757600080fd5b505af11580156200018c573d6000803e3d6000fd5b505050506040513d6020811015620001a357600080fd5b505160028054600160a060020a031916600160a060020a03928316178082556040517ff2c298be00000000000000000000000000000000000000000000000000000000815260206004820190815260018054610100818316150260001901169490940460248301819052929094169363f2c298be93929091829160449091019084908015620002765780601f106200024a5761010080835404028352916020019162000276565b820191906000526020600020905b8154815290600101906020018083116200025857829003601f168201915b505092505050600060405180830381600087803b1580156200029757600080fd5b505af1158015620002ac573d6000803e3d6000fd5b5050505050506200035d565b828054600181600116156101000203166002900490600052602060002090601f016020900481019282601f10620002fb57805160ff19168380011785556200032b565b828001600101855582156200032b579182015b828111156200032b5782518255916020019190600101906200030e565b50620003399291506200033d565b5090565b6200035a91905b8082111562000339576000815560010162000344565b90565b611e2a806200036d6000396000f3006080604052600436106100a35763ffffffff7c010000000000000000000000000000000000000000000000000000000060003504166306fdde0381146100a85780630c965f0b1461013257806326811a0e1461014c57806341c0e1b51461016457806345995d42146101795780634be833ff146101d15780636d0fd4e21461022f5780638da5cb5b14610247578063d511529f14610278578063f08f826214610352575b600080fd5b3480156100b457600080fd5b506100bd6103bf565b6040805160208082528351818301528351919283929083019185019080838360005b838110156100f75781810151838201526020016100df565b50505050905090810190601f1680156101245780820380516001836020036101000a031916815260200191505b509250505060405180910390f35b34801561013e57600080fd5b5061014a60043561044c565b005b34801561015857600080fd5b5061014a6004356107a5565b34801561017057600080fd5b5061014a610ae2565b34801561018557600080fd5b5061014a600160a060020a03600435166024356c010000000000000000000000006044358181049163ffffffff6801000000000000000092839004811692606435928304920416610b5f565b3480156101dd57600080fd5b5060408051602060046024803582810135601f810185900485028601850190965285855261014a958335953695604494919390910191908190840183828082843750949750610eb59650505050505050565b34801561023b57600080fd5b5061014a60043561127b565b34801561025357600080fd5b5061025c6115b9565b60408051600160a060020a039092168252519081900360200190f35b34801561028457600080fd5b5060408051602060046024803582810135601f810185900485028601850190965285855261014a95833595369560449491939091019190819084018382808284375050604080516020601f89358b018035918201839004830284018301909452808352979a99988101979196509182019450925082915084018382808284375050604080516020601f89358b018035918201839004830284018301909452808352979a9998810197919650918201945092508291508401838280828437509497506115c89650505050505050565b34801561035e57600080fd5b5061014a600160a060020a036004351660243560443515156c010000000000000000000000006064358181049163ffffffff6801000000000000000092839004811692608435838104939082900483169260a4359182049290910416611a47565b60018054604080516020600284861615610100026000190190941693909304601f810184900484028201840190925281815292918301828280156104445780601f1061041957610100808354040283529160200191610444565b820191906000526020600020905b81548152906001019060200180831161042757829003601f168201915b505050505081565b600254604080518082018252600e8152600080516020611ddf8339815191526020808301918252925160e160020a63349f642f0281526004810193845282516024820152825160009586958695600160a060020a039092169463693ec85e94929391928392604490910191908083838b5b838110156104d55781810151838201526020016104bd565b50505050905090810190601f1680156105025780820380516001836020036101000a031916815260200191505b5092505050602060405180830381600087803b15801561052157600080fd5b505af1158015610535573d6000803e3d6000fd5b505050506040513d602081101561054b57600080fd5b5051604080517fb5d8643e000000000000000000000000000000000000000000000000000000008152600481018790529051600160a060020a039092169163b5d8643e9160248082019260a0929091908290030181600087803b1580156105b157600080fd5b505af11580156105c5573d6000803e3d6000fd5b505050506040513d60a08110156105db57600080fd5b50805160809091015160025460408051808201825260118152600080516020611dbf8339815191526020828101918252925160e160020a63349f642f028152600481019384528251602482015282519699506c01000000000000000000000000860498506801000000000000000090950463ffffffff169650600160a060020a039093169463693ec85e94919383926044019180838360005b8381101561068c578181015183820152602001610674565b50505050905090810190601f1680156106b95780820380516001836020036101000a031916815260200191505b5092505050602060405180830381600087803b1580156106d857600080fd5b505af11580156106ec573d6000803e3d6000fd5b505050506040513d602081101561070257600080fd5b5051604080517fcbbb086f0000000000000000000000000000000000000000000000000000000081526004810186905268010000000000000000640100000000860263ffffffff8616170260248201529051600160a060020a039092169163cbbb086f9160448082019260009290919082900301818387803b15801561078757600080fd5b505af115801561079b573d6000803e3d6000fd5b5050505050505050565b600254604080518082018252600e8152600080516020611ddf8339815191526020808301918252925160e160020a63349f642f0281526004810193845282516024820152825160009586958695600160a060020a039092169463693ec85e94929391928392604490910191908083838b5b8381101561082e578181015183820152602001610816565b50505050905090810190601f16801561085b5780820380516001836020036101000a031916815260200191505b5092505050602060405180830381600087803b15801561087a57600080fd5b505af115801561088e573d6000803e3d6000fd5b505050506040513d60208110156108a457600080fd5b5051604080517ffea99d2a000000000000000000000000000000000000000000000000000000008152600481018790529051600160a060020a039092169163fea99d2a916024808201926060929091908290030181600087803b15801561090a57600080fd5b505af115801561091e573d6000803e3d6000fd5b505050506040513d606081101561093457600080fd5b5080516040918201516002548351808501855260118152600080516020611dbf8339815191526020828101918252955160e160020a63349f642f028152600481019687528251602482015282519599506c01000000000000000000000000850498506801000000000000000090940463ffffffff169650600160a060020a039092169463693ec85e9491939092839260449092019180838360005b838110156109e75781810151838201526020016109cf565b50505050905090810190601f168015610a145780820380516001836020036101000a031916815260200191505b5092505050602060405180830381600087803b158015610a3357600080fd5b505af1158015610a47573d6000803e3d6000fd5b505050506040513d6020811015610a5d57600080fd5b5051604080517fe934d3760000000000000000000000000000000000000000000000000000000081526004810186905268010000000000000000640100000000860263ffffffff8616170260248201529051600160a060020a039092169163e934d3769160448082019260009290919082900301818387803b15801561078757600080fd5b600054600160a060020a03163214610b5b57604080517f08c379a000000000000000000000000000000000000000000000000000000000815260206004820152601260248201527f6f6e6c79206f776e657220616c6c6f7765640000000000000000000000000000604482015290519081900360640190fd5b6000ff5b600254604080518082018252600e8152600080516020611ddf8339815191526020808301918252925160e160020a63349f642f02815260048101938452825160248201528251600095600160a060020a03169463693ec85e949390928392604490910191908083838b5b83811015610be1578181015183820152602001610bc9565b50505050905090810190601f168015610c0e5780820380516001836020036101000a031916815260200191505b5092505050602060405180830381600087803b158015610c2d57600080fd5b505af1158015610c41573d6000803e3d6000fd5b505050506040513d6020811015610c5757600080fd5b5051604080517f24a570330000000000000000000000000000000000000000000000000000000081526004810189905268010000000000000000640100000000808a0263ffffffff808b169190911783026024850152908802908716170260448201529051600160a060020a03909216916324a57033916064808201926020929091908290030181600087803b158015610cf057600080fd5b505af1158015610d04573d6000803e3d6000fd5b505050506040513d6020811015610d1a57600080fd5b5051600254604080518082018252600d81527f63616d6572612d6f7261636c65000000000000000000000000000000000000006020828101918252925160e160020a63349f642f02815260048101938452825160248201528251959650600160a060020a039094169463693ec85e94929392839260449091019180838360005b83811015610db2578181015183820152602001610d9a565b50505050905090810190601f168015610ddf5780820380516001836020036101000a031916815260200191505b5092505050602060405180830381600087803b158015610dfe57600080fd5b505af1158015610e12573d6000803e3d6000fd5b505050506040513d6020811015610e2857600080fd5b5051604080517f272412b200000000000000000000000000000000000000000000000000000000815260048101849052602481018990529051600160a060020a039092169163272412b29160448082019260009290919082900301818387803b158015610e9457600080fd5b505af1158015610ea8573d6000803e3d6000fd5b5050505050505050505050565b600254604080518082018252600e8152600080516020611ddf8339815191526020808301918252925160e160020a63349f642f0281526004810193845282516024820152825160009586958695600160a060020a039092169463693ec85e94929391928392604490910191908083838b5b83811015610f3e578181015183820152602001610f26565b50505050905090810190601f168015610f6b5780820380516001836020036101000a031916815260200191505b5092505050602060405180830381600087803b158015610f8a57600080fd5b505af1158015610f9e573d6000803e3d6000fd5b505050506040513d6020811015610fb457600080fd5b5051604080517f56d86658000000000000000000000000000000000000000000000000000000008152600481018890529051600160a060020a03909216916356d866589160248082019260a0929091908290030181600087803b15801561101a57600080fd5b505af115801561102e573d6000803e3d6000fd5b505050506040513d60a081101561104457600080fd5b50805160609091015160025460408051808201825260118152600080516020611dbf8339815191526020828101918252925160e160020a63349f642f028152600481019384528251602482015282519699506c01000000000000000000000000860498506801000000000000000090950463ffffffff169650600160a060020a039093169463693ec85e94919383926044019180838360005b838110156110f55781810151838201526020016110dd565b50505050905090810190601f1680156111225780820380516001836020036101000a031916815260200191505b5092505050602060405180830381600087803b15801561114157600080fd5b505af1158015611155573d6000803e3d6000fd5b505050506040513d602081101561116b57600080fd5b50516040517f0dfb1ad20000000000000000000000000000000000000000000000000000000081526004810185815268010000000000000000640100000000860263ffffffff861617026044830152606060248301908152875160648401528751600160a060020a0390941693630dfb1ad29388938a938993899360840190602087019080838360005b8381101561120d5781810151838201526020016111f5565b50505050905090810190601f16801561123a5780820380516001836020036101000a031916815260200191505b5095505050505050600060405180830381600087803b15801561125c57600080fd5b505af1158015611270573d6000803e3d6000fd5b505050505050505050565b600254604080518082018252600e8152600080516020611ddf8339815191526020808301918252925160e160020a63349f642f0281526004810193845282516024820152825160009586958695600160a060020a039092169463693ec85e94929391928392604490910191908083838b5b838110156113045781810151838201526020016112ec565b50505050905090810190601f1680156113315780820380516001836020036101000a031916815260200191505b5092505050602060405180830381600087803b15801561135057600080fd5b505af1158015611364573d6000803e3d6000fd5b505050506040513d602081101561137a57600080fd5b5051604080517ffea99d2a000000000000000000000000000000000000000000000000000000008152600481018790529051600160a060020a039092169163fea99d2a916024808201926060929091908290030181600087803b1580156113e057600080fd5b505af11580156113f4573d6000803e3d6000fd5b505050506040513d606081101561140a57600080fd5b50805160209182015160025460408051808201825260118152600080516020611dbf833981519152818701908152915160e160020a63349f642f028152600481019687528151602482015281519599506c01000000000000000000000000850498506801000000000000000090940463ffffffff169650600160a060020a039092169463693ec85e949293909283926044909201919080838360005b838110156114be5781810151838201526020016114a6565b50505050905090810190601f1680156114eb5780820380516001836020036101000a031916815260200191505b5092505050602060405180830381600087803b15801561150a57600080fd5b505af115801561151e573d6000803e3d6000fd5b505050506040513d602081101561153457600080fd5b5051604080517fe1037a970000000000000000000000000000000000000000000000000000000081526004810186905268010000000000000000640100000000860263ffffffff8616170260248201529051600160a060020a039092169163e1037a979160448082019260009290919082900301818387803b15801561078757600080fd5b600054600160a060020a031681565b600254604080518082018252600e8152600080516020611ddf8339815191526020808301918252925160e160020a63349f642f0281526004810193845282516024820152825160009586958695600160a060020a039092169463693ec85e94929391928392604490910191908083838b5b83811015611651578181015183820152602001611639565b50505050905090810190601f16801561167e5780820380516001836020036101000a031916815260200191505b5092505050602060405180830381600087803b15801561169d57600080fd5b505af11580156116b1573d6000803e3d6000fd5b505050506040513d60208110156116c757600080fd5b5051604080517fb5d8643e000000000000000000000000000000000000000000000000000000008152600481018a90529051600160a060020a039092169163b5d8643e9160248082019260a0929091908290030181600087803b15801561172d57600080fd5b505af1158015611741573d6000803e3d6000fd5b505050506040513d60a081101561175757600080fd5b5080516040918201516002548351808501855260118152600080516020611dbf8339815191526020808301918252955160e160020a63349f642f028152600481019687528251602482015282519599506c01000000000000000000000000850498506801000000000000000090940463ffffffff169650600160a060020a039092169463693ec85e9491939092839260449092019180838360005b8381101561180a5781810151838201526020016117f2565b50505050905090810190601f1680156118375780820380516001836020036101000a031916815260200191505b5092505050602060405180830381600087803b15801561185657600080fd5b505af115801561186a573d6000803e3d6000fd5b505050506040513d602081101561188057600080fd5b50516040517f0c037d9a0000000000000000000000000000000000000000000000000000000081526004810185815268010000000000000000640100000000860263ffffffff86161702608483015260a060248301908152895160a48401528951600160a060020a0390941693630c037d9a9388938c938c938c938b938b93909290916044810191606482019160c4019060208b019080838360005b8381101561193457818101518382015260200161191c565b50505050905090810190601f1680156119615780820380516001836020036101000a031916815260200191505b5084810383528851815288516020918201918a019080838360005b8381101561199457818101518382015260200161197c565b50505050905090810190601f1680156119c15780820380516001836020036101000a031916815260200191505b50848103825287518152875160209182019189019080838360005b838110156119f45781810151838201526020016119dc565b50505050905090810190601f168015611a215780820380516001836020036101000a031916815260200191505b509950505050505050505050600060405180830381600087803b158015610e9457600080fd5b600254604080518082018252600e8152600080516020611ddf8339815191526020808301918252925160e160020a63349f642f02815260048101938452825160248201528251600095600160a060020a03169463693ec85e949390928392604490910191908083838b5b83811015611ac9578181015183820152602001611ab1565b50505050905090810190601f168015611af65780820380516001836020036101000a031916815260200191505b5092505050602060405180830381600087803b158015611b1557600080fd5b505af1158015611b29573d6000803e3d6000fd5b505050506040513d6020811015611b3f57600080fd5b5051604080517f0e7d1c84000000000000000000000000000000000000000000000000000000008152600481018c90528a1515602482015268010000000000000000640100000000808c0263ffffffff808d169190911783026044850152818b02818b161783026064850152908802908716170260848201529051600160a060020a0390921691630e7d1c849160a4808201926020929091908290030181600087803b158015611bee57600080fd5b505af1158015611c02573d6000803e3d6000fd5b505050506040513d6020811015611c1857600080fd5b5051600254604080518082018252600d81527f63616d6572612d6f7261636c65000000000000000000000000000000000000006020828101918252925160e160020a63349f642f02815260048101938452825160248201528251959650600160a060020a039094169463693ec85e94929392839260449091019180838360005b83811015611cb0578181015183820152602001611c98565b50505050905090810190601f168015611cdd5780820380516001836020036101000a031916815260200191505b5092505050602060405180830381600087803b158015611cfc57600080fd5b505af1158015611d10573d6000803e3d6000fd5b505050506040513d6020811015611d2657600080fd5b5051604080517fefbc3b0f00000000000000000000000000000000000000000000000000000000815260048101849052602481018c90528a151560448201529051600160a060020a039092169163efbc3b0f9160648082019260009290919082900301818387803b158015611d9a57600080fd5b505af1158015611dae573d6000803e3d6000fd5b5050505050505050505050505050560063616d6572612d636f6e74726f6c6c657200000000000000000000000000000063616d6572612d73746f72616765000000000000000000000000000000000000a165627a7a72305820cc6fbe3a93bc2f3689e4186319297f9a2c0f6d348cc4776b4911f2b6a0d9cd180029",
  "source": "pragma solidity 0.4.24;\n\nimport \"../platform/Named.sol\";\nimport \"../platform/Mortal.sol\";\nimport \"./api/ACameraManager.sol\";\nimport \"../platform/Component.sol\";\nimport \"../oracles/api/ACameraOracle.sol\";\nimport \"../storages/api/ACameraStorage.sol\";\nimport \"../controllers/api/ACameraController.sol\";\n\ncontract CameraManager is ACameraManager, Named(\"camera-manager\"), Mortal, Component {\n\n    string constant STORAGE = \"camera-storage\";\n    string constant ORACLE = \"camera-oracle\";\n    string constant CONTROLLER = \"camera-controller\";\n\n    constructor(address _config) Component(_config) public {}\n\n    // @formatter:off\n    function scanQRCode(\n        address _application,\n        uint256 _sessionId,\n        bool _lights,\n        function(uint256, string memory, string memory, string memory) external _success,\n        function(uint256, string memory) external _scanned,\n        function(uint256) external _fail\n    )\n        public\n    // @formatter:on\n    {\n        uint256 id = ACameraStorage(context.get(STORAGE)).saveStart(_sessionId, _lights, _success, _scanned, _fail);\n        ACameraOracle(context.get(ORACLE)).onNextStartQRScan(id, _sessionId, _lights);\n    }\n\n    function confirmFailStart(uint256 _commandId) public {\n        (uint256 sessionId,,,,function(uint256) external callback) = ACameraStorage(context.get(STORAGE)).retrieveStart(_commandId);\n        ACameraController(context.get(CONTROLLER)).respondFailStart(sessionId, callback);\n    }\n\n    function confirmStart(uint256 _commandId, string _port, string _url, string _href) public {\n        (uint256 sessionId,,function(uint256, string memory, string memory, string memory) external callback,,) = ACameraStorage(context.get(STORAGE)).retrieveStart(_commandId);\n        ACameraController(context.get(CONTROLLER)).respondStart(sessionId, _port, _url, _href, callback);\n    }\n\n    function confirmScanned(uint256 _sessionId, string _qr) public {\n        (uint256 sessionId,,,function(uint256, string memory) external callback,) = ACameraStorage(context.get(STORAGE)).retrieveStartBySessionId(_sessionId);\n        ACameraController(context.get(CONTROLLER)).respondScanned(sessionId, _qr, callback);\n    }\n\n    // @formatter:off\n    function stopQRScanning(\n        address _application,\n        uint256 _sessionId,\n        function(uint256) external _success,\n        function(uint256) external _fail\n    )\n        public\n    // @formatter:on\n    {\n        uint256 id = ACameraStorage(context.get(STORAGE)).saveStop(_sessionId, _success, _fail);\n        ACameraOracle(context.get(ORACLE)).onNextStopQRScan(id, _sessionId);\n    }\n\n    function confirmStop(uint256 _commandId) public {\n        (uint256 sessionId,function(uint256) external callback,) = ACameraStorage(context.get(STORAGE)).retrieveStop(_commandId);\n        ACameraController(context.get(CONTROLLER)).respondStop(sessionId, callback);\n    }\n\n    function confirmFailStop(uint256 _commandId) public {\n        (uint256 sessionId,,function(uint256) external callback) = ACameraStorage(context.get(STORAGE)).retrieveStop(_commandId);\n        ACameraController(context.get(CONTROLLER)).respondFailStop(sessionId, callback);\n    }\n\n}",
  "sourcePath": "/home/andrew/vault-logic-project/Development/test/vault-logic-api/truffle/contracts/managers/CameraManager.sol",
  "compiler": {
    "name": "solc",
    "version": "0.4.24+commit.e67f0147.Emscripten.clang"
  },
  "schemaVersion": "2.0.1",
  "updatedAt": "2018-11-20T09:03:33.915Z"
}