{
  "contractName": "CameraStorage",
  "abi": [
    {
      "constant": true,
      "inputs": [],
      "name": "name",
      "outputs": [
        {
          "name": "",
          "type": "string"
        }
      ],
      "payable": false,
      "stateMutability": "view",
      "type": "function"
    },
    {
      "constant": false,
      "inputs": [],
      "name": "kill",
      "outputs": [],
      "payable": false,
      "stateMutability": "nonpayable",
      "type": "function"
    },
    {
      "constant": true,
      "inputs": [],
      "name": "owner",
      "outputs": [
        {
          "name": "",
          "type": "address"
        }
      ],
      "payable": false,
      "stateMutability": "view",
      "type": "function"
    },
    {
      "inputs": [
        {
          "name": "_config",
          "type": "address"
        }
      ],
      "payable": false,
      "stateMutability": "nonpayable",
      "type": "constructor"
    },
    {
      "constant": false,
      "inputs": [
        {
          "name": "_sessionId",
          "type": "uint256"
        },
        {
          "name": "_enableLight",
          "type": "bool"
        },
        {
          "name": "_success",
          "type": "function"
        },
        {
          "name": "_scanned",
          "type": "function"
        },
        {
          "name": "_fail",
          "type": "function"
        }
      ],
      "name": "saveStart",
      "outputs": [
        {
          "name": "_id",
          "type": "uint256"
        }
      ],
      "payable": false,
      "stateMutability": "nonpayable",
      "type": "function"
    },
    {
      "constant": true,
      "inputs": [
        {
          "name": "_id",
          "type": "uint256"
        }
      ],
      "name": "retrieveStart",
      "outputs": [
        {
          "name": "_sessionId",
          "type": "uint256"
        },
        {
          "name": "_enableLight",
          "type": "bool"
        },
        {
          "name": "_success",
          "type": "function"
        },
        {
          "name": "_scanned",
          "type": "function"
        },
        {
          "name": "_fail",
          "type": "function"
        }
      ],
      "payable": false,
      "stateMutability": "view",
      "type": "function"
    },
    {
      "constant": true,
      "inputs": [
        {
          "name": "_id",
          "type": "uint256"
        }
      ],
      "name": "retrieveStartBySessionId",
      "outputs": [
        {
          "name": "_sessionId",
          "type": "uint256"
        },
        {
          "name": "_enableLight",
          "type": "bool"
        },
        {
          "name": "_success",
          "type": "function"
        },
        {
          "name": "_scanned",
          "type": "function"
        },
        {
          "name": "_fail",
          "type": "function"
        }
      ],
      "payable": false,
      "stateMutability": "view",
      "type": "function"
    },
    {
      "constant": false,
      "inputs": [
        {
          "name": "_sessionId",
          "type": "uint256"
        },
        {
          "name": "_success",
          "type": "function"
        },
        {
          "name": "_fail",
          "type": "function"
        }
      ],
      "name": "saveStop",
      "outputs": [
        {
          "name": "_id",
          "type": "uint256"
        }
      ],
      "payable": false,
      "stateMutability": "nonpayable",
      "type": "function"
    },
    {
      "constant": true,
      "inputs": [
        {
          "name": "_id",
          "type": "uint256"
        }
      ],
      "name": "retrieveStop",
      "outputs": [
        {
          "name": "_sessionId",
          "type": "uint256"
        },
        {
          "name": "_success",
          "type": "function"
        },
        {
          "name": "_fail",
          "type": "function"
        }
      ],
      "payable": false,
      "stateMutability": "view",
      "type": "function"
    }
  ],
  "bytecode": "0x608060405234801561001057600080fd5b5060405160208062000cdf8339810160408181529151828201909252600e8082527f63616d6572612d73746f726167650000000000000000000000000000000000006020830190815260008054600160a060020a0319163317905583929161007a916001916102a8565b505080600160a060020a031663713b563f6040518163ffffffff167c0100000000000000000000000000000000000000000000000000000000028152600401602060405180830381600087803b1580156100d357600080fd5b505af11580156100e7573d6000803e3d6000fd5b505050506040513d60208110156100fd57600080fd5b505160038054600160a060020a031916600160a060020a03928316179055604080517fd0496d6a00000000000000000000000000000000000000000000000000000000815290519183169163d0496d6a916004808201926020929091908290030181600087803b15801561017057600080fd5b505af1158015610184573d6000803e3d6000fd5b505050506040513d602081101561019a57600080fd5b505160028054600160a060020a031916600160a060020a03928316178082556040517ff2c298be00000000000000000000000000000000000000000000000000000000815260206004820190815260018054610100818316150260001901169490940460248301819052929094169363f2c298be939290918291604490910190849080156102695780601f1061023e57610100808354040283529160200191610269565b820191906000526020600020905b81548152906001019060200180831161024c57829003601f168201915b505092505050600060405180830381600087803b15801561028957600080fd5b505af115801561029d573d6000803e3d6000fd5b505050505050610343565b828054600181600116156101000203166002900490600052602060002090601f016020900481019282601f106102e957805160ff1916838001178555610316565b82800160010185558215610316579182015b828111156103165782518255916020019190600101906102fb565b50610322929150610326565b5090565b61034091905b80821115610322576000815560010161032c565b90565b61098c80620003536000396000f30060806040526004361061008d5763ffffffff7c010000000000000000000000000000000000000000000000000000000060003504166306fdde0381146100925780630e7d1c841461011c57806324a570331461018f57806341c0e1b5146101db57806356d86658146101f25780638da5cb5b14610268578063b5d8643e14610299578063fea99d2a146102b1575b600080fd5b34801561009e57600080fd5b506100a761030d565b6040805160208082528351818301528351919283929083019185019080838360005b838110156100e15781810151838201526020016100c9565b50505050905090810190601f16801561010e5780820380516001836020036101000a031916815260200191505b509250505060405180910390f35b34801561012857600080fd5b5061017d60043560243515156c010000000000000000000000006044358181049163ffffffff68010000000000000000928390048116926064358381049390829004831692608435918204929091041661039a565b60408051918252519081900360200190f35b34801561019b57600080fd5b5061017d6004356c010000000000000000000000006024358181049163ffffffff680100000000000000009283900481169260443592830492041661056d565b3480156101e757600080fd5b506101f061069e565b005b3480156101fe57600080fd5b5061020a60043561071b565b6040805198895296151560208901526801000000000000000064010000000096870263ffffffff9687161781028989015293860292851692909217830260608801529093029290911691909117026080830152519081900360a00190f35b34801561027457600080fd5b5061027d61076e565b60408051600160a060020a039092168252519081900360200190f35b3480156102a557600080fd5b5061020a60043561077d565b3480156102bd57600080fd5b506102c96004356108ab565b604080519586526801000000000000000064010000000095860263ffffffff9586161781026020880152929094029216919091170282820152519081900360600190f35b60018054604080516020600284861615610100026000190190941693909304601f810184900484028201840190925281815292918301828280156103925780601f1061036757610100808354040283529160200191610392565b820191906000526020600020905b81548152906001019060200180831161037557829003601f168201915b505050505081565b6040805160a0810182528981529715156020808a0191825268010000000000000000640100000000998a0263ffffffff998a161781028b8501908152978a0296891696909617860260608b0190815294890293881693909317850260808a019081526004805460018101825560008281529b519181027f8a35acfbc15ff81a39ae7d344fd709f28e8600b4aa8c65c6b64bfe7fe36bd19b81019290925592517f8a35acfbc15ff81a39ae7d344fd709f28e8600b4aa8c65c6b64bfe7fe36bd19c820180549951600160a060020a036c0100000000000000000000000080830482168f02928c90048e16929092176101000278ffffffffffffffffffffffffffffffffffffffffffffffff001994151560ff19909d169c909c17939093169a909a17905595517f8a35acfbc15ff81a39ae7d344fd709f28e8600b4aa8c65c6b64bfe7fe36bd19d820180548a830489168d02928a90048c169290921777ffffffffffffffffffffffffffffffffffffffffffffffff1992831617905591517f8a35acfbc15ff81a39ae7d344fd709f28e8600b4aa8c65c6b64bfe7fe36bd19e909101805498820490961690990295909804909616939093179390951692909217909155938352600590915291902081905590565b604080516060810182529586526801000000000000000064010000000095860263ffffffff95861617810260208801908152938602928516929092178202908601908152600680546001810182556000919091529551600387027ff652222313e28459528d920b65115c16c04f3efc82aaedc97be59f3f377c0d3f81019190915592517ff652222313e28459528d920b65115c16c04f3efc82aaedc97be59f3f377c0d4084018054600160a060020a036c0100000000000000000000000080850482168a029487900489169490941777ffffffffffffffffffffffffffffffffffffffffffffffff199283161790925592517ff652222313e28459528d920b65115c16c04f3efc82aaedc97be59f3f377c0d4190950180549286049091169096029290930490931617911617905590565b600054600160a060020a0316321461071757604080517f08c379a000000000000000000000000000000000000000000000000000000000815260206004820152601260248201527f6f6e6c79206f776e657220616c6c6f7765640000000000000000000000000000604482015290519081900360640190fd5b6000ff5b600080600080600080600080610743600560008b81526020019081526020016000205461077d565b81819950995083839b509b5085859d509d50869e50879f505050505050505050919395975091939597565b600054600160a060020a031681565b60008060008060008060008060048981548110151561079857fe5b90600052602060002090600402016000015497506004898154811015156107bb57fe5b6000918252602090912060049182020160010154815460ff90911698508a9081106107e257fe5b906000526020600020906004020160010160019054906101000a9004806401000000009004600160a060020a03169063ffffffff169550955060048981548110151561082a57fe5b600091825260209091206004918202016002015481546401000000008204600160a060020a0316965063ffffffff90911694508a90811061086757fe5b906000526020600020906004020160030160009054906101000a9004806401000000009004600160a060020a03169063ffffffff1691509150919395975091939597565b60008060008060006006868154811015156108c257fe5b90600052602060002090600302016000015494506006868154811015156108e557fe5b600091825260209091206001600390920201015460068054600160a060020a03640100000000840416965063ffffffff9092169450908790811061092557fe5b600091825260209091206002600390920201015494969395509193600160a060020a036401000000008204169363ffffffff909116925090505600a165627a7a72305820d92741f380553090f89e0a0eb73c870071b23a1bce76b653f3f78fe8837c79af0029",
  "source": "pragma solidity 0.4.24;\n\nimport \"../platform/Named.sol\";\nimport \"../platform/Mortal.sol\";\nimport \"./api/ACameraStorage.sol\";\nimport \"../platform/Component.sol\";\nimport \"./libs/CameraLib.sol\";\n\ncontract CameraStorage is ACameraStorage, Named(\"camera-storage\"), Mortal, Component {\n\n    using CameraLib for CameraLib.Start;\n    using CameraLib for CameraLib.Stop;\n\n    CameraLib.Start[] private starts;\n\n    mapping(uint256 => uint256) sessionToStart;\n\n    CameraLib.Stop[] private stops;\n\n    constructor(address _config) Component(_config) public {}\n\n    // @formatter:off\n    function saveStart(\n        uint256 _sessionId,\n        bool _enableLight,\n        function(uint256, string memory, string memory, string memory) external _success,\n        function(uint256, string memory) external _scanned,\n        function(uint256) external _fail\n    )\n        public\n        returns (\n            uint256 _id\n        )\n    // @formatter:on\n    {\n        _id = starts.push(CameraLib.Start(_sessionId, _enableLight, _success, _scanned, _fail)) - 1;\n        sessionToStart[_sessionId] = _id;\n    }\n\n    function retrieveStart(\n        uint256 _id\n    )\n        public\n        view\n        returns (\n            uint256 _sessionId,\n            bool _enableLight,\n            function(uint256, string memory, string memory, string memory) external _success,\n            function(uint256, string memory) external _scanned,\n            function(uint256) external _fail\n        )\n    // @formatter:on\n    {\n        _sessionId = starts[_id].sessionId;\n        _enableLight = starts[_id].enableLight;\n        _success = starts[_id].success;\n        _scanned = starts[_id].scanned;\n        _fail = starts[_id].fail;\n    }\n\n    function retrieveStartBySessionId(\n        uint256 _id\n    )\n        public\n        view\n        returns (\n            uint256 _sessionId,\n            bool _enableLight,\n            function(uint256, string memory, string memory, string memory) external _success,\n            function(uint256, string memory) external _scanned,\n            function(uint256) external _fail\n        )\n    // @formatter:on\n    {\n        (_sessionId, _enableLight, _success, _scanned, _fail) = retrieveStart(sessionToStart[_id]);\n    }\n\n    // @formatter:off\n    function saveStop(\n        uint256 _sessionId,\n        function(uint256) external _success,\n        function(uint256) external _fail\n    )\n        public\n        returns (\n            uint256 _id\n        )\n    // @formatter:on\n    {\n        _id = stops.push(CameraLib.Stop(_sessionId, _success, _fail)) - 1;\n    }\n\n    // @formatter:off\n    function retrieveStop(\n        uint256 _id\n    )\n        public\n        view\n        returns (\n            uint256 _sessionId,\n            function(uint256) external _success,\n            function(uint256) external _fail\n        )\n    // @formatter:on\n    {\n        _sessionId = stops[_id].sessionId;\n        _success = stops[_id].success;\n        _fail = stops[_id].fail;\n    }\n\n}\n",
  "sourcePath": "/home/user/IdeaProjects/Main/VaultLogic/POC/vl-api-pos/truffle/contracts/storages/CameraStorage.sol",
  "compiler": {
    "name": "solc",
    "version": "0.4.24+commit.e67f0147.Emscripten.clang"
  },
  "schemaVersion": "2.0.1",
  "updatedAt": "2018-11-19T14:08:52.605Z"
}