{
  "contractName": "CameraManager",
  "abi": [
    {
      "constant": true,
      "inputs": [],
      "name": "name",
      "outputs": [
        {
          "name": "",
          "type": "string"
        }
      ],
      "payable": false,
      "stateMutability": "view",
      "type": "function"
    },
    {
      "constant": false,
      "inputs": [],
      "name": "kill",
      "outputs": [],
      "payable": false,
      "stateMutability": "nonpayable",
      "type": "function"
    },
    {
      "constant": true,
      "inputs": [],
      "name": "owner",
      "outputs": [
        {
          "name": "",
          "type": "address"
        }
      ],
      "payable": false,
      "stateMutability": "view",
      "type": "function"
    },
    {
      "inputs": [
        {
          "name": "_config",
          "type": "address"
        }
      ],
      "payable": false,
      "stateMutability": "nonpayable",
      "type": "constructor"
    },
    {
      "constant": false,
      "inputs": [
        {
          "name": "_application",
          "type": "address"
        },
        {
          "name": "_sessionId",
          "type": "uint256"
        },
        {
          "name": "_lights",
          "type": "bool"
        },
        {
          "name": "_success",
          "type": "function"
        },
        {
          "name": "_scanned",
          "type": "function"
        },
        {
          "name": "_fail",
          "type": "function"
        }
      ],
      "name": "scanQRCode",
      "outputs": [
        {
          "name": "_accepted",
          "type": "bool"
        }
      ],
      "payable": false,
      "stateMutability": "nonpayable",
      "type": "function"
    },
    {
      "constant": false,
      "inputs": [
        {
          "name": "_commandId",
          "type": "uint256"
        }
      ],
      "name": "confirmFailStart",
      "outputs": [],
      "payable": false,
      "stateMutability": "nonpayable",
      "type": "function"
    },
    {
      "constant": false,
      "inputs": [
        {
          "name": "_commandId",
          "type": "uint256"
        },
        {
          "name": "_port",
          "type": "string"
        },
        {
          "name": "_url",
          "type": "string"
        },
        {
          "name": "_href",
          "type": "string"
        }
      ],
      "name": "confirmStart",
      "outputs": [],
      "payable": false,
      "stateMutability": "nonpayable",
      "type": "function"
    },
    {
      "constant": false,
      "inputs": [
        {
          "name": "_sessionId",
          "type": "uint256"
        },
        {
          "name": "_qr",
          "type": "string"
        }
      ],
      "name": "confirmScanned",
      "outputs": [],
      "payable": false,
      "stateMutability": "nonpayable",
      "type": "function"
    },
    {
      "constant": false,
      "inputs": [
        {
          "name": "_application",
          "type": "address"
        },
        {
          "name": "_sessionId",
          "type": "uint256"
        },
        {
          "name": "_success",
          "type": "function"
        },
        {
          "name": "_fail",
          "type": "function"
        }
      ],
      "name": "stopQRScanning",
      "outputs": [
        {
          "name": "_accepted",
          "type": "bool"
        }
      ],
      "payable": false,
      "stateMutability": "nonpayable",
      "type": "function"
    },
    {
      "constant": false,
      "inputs": [
        {
          "name": "_commandId",
          "type": "uint256"
        }
      ],
      "name": "confirmStop",
      "outputs": [],
      "payable": false,
      "stateMutability": "nonpayable",
      "type": "function"
    },
    {
      "constant": false,
      "inputs": [
        {
          "name": "_commandId",
          "type": "uint256"
        }
      ],
      "name": "confirmFailStop",
      "outputs": [],
      "payable": false,
      "stateMutability": "nonpayable",
      "type": "function"
    }
  ],
  "bytecode": "0x60806040523480156200001157600080fd5b50604051602080620061d5833981018060405281019080805190602001909291905050508060006040805190810160405280600e81526020017f63616d6572612d6d616e61676572000000000000000000000000000000000000815250336000806101000a81548173ffffffffffffffffffffffffffffffffffffffff021916908373ffffffffffffffffffffffffffffffffffffffff1602179055508060019080519060200190620000c6929190620005bf565b50508173ffffffffffffffffffffffffffffffffffffffff1663713b563f6040518163ffffffff167c0100000000000000000000000000000000000000000000000000000000028152600401602060405180830381600087803b1580156200012d57600080fd5b505af115801562000142573d6000803e3d6000fd5b505050506040513d60208110156200015957600080fd5b8101908080519060200190929190505050600360006101000a81548173ffffffffffffffffffffffffffffffffffffffff021916908373ffffffffffffffffffffffffffffffffffffffff1602179055508173ffffffffffffffffffffffffffffffffffffffff1663d0496d6a6040518163ffffffff167c0100000000000000000000000000000000000000000000000000000000028152600401602060405180830381600087803b1580156200020f57600080fd5b505af115801562000224573d6000803e3d6000fd5b505050506040513d60208110156200023b57600080fd5b8101908080519060200190929190505050600260006101000a81548173ffffffffffffffffffffffffffffffffffffffff021916908373ffffffffffffffffffffffffffffffffffffffff160217905550600260009054906101000a900473ffffffffffffffffffffffffffffffffffffffff1673ffffffffffffffffffffffffffffffffffffffff1663693ec85e60016040518263ffffffff167c01000000000000000000000000000000000000000000000000000000000281526004018080602001828103825283818154600181600116156101000203166002900481526020019150805460018160011615610100020316600290048015620003845780601f10620003585761010080835404028352916020019162000384565b820191906000526020600020905b8154815290600101906020018083116200036657829003601f168201915b505092505050602060405180830381600087803b158015620003a557600080fd5b505af1158015620003ba573d6000803e3d6000fd5b505050506040513d6020811015620003d157600080fd5b8101908080519060200190929190505050905060008173ffffffffffffffffffffffffffffffffffffffff1614151562000484578073ffffffffffffffffffffffffffffffffffffffff166341c0e1b56040518163ffffffff167c0100000000000000000000000000000000000000000000000000000000028152600401600060405180830381600087803b1580156200046a57600080fd5b505af11580156200047f573d6000803e3d6000fd5b505050505b600260009054906101000a900473ffffffffffffffffffffffffffffffffffffffff1673ffffffffffffffffffffffffffffffffffffffff1663f2c298be60016040518263ffffffff167c010000000000000000000000000000000000000000000000000000000002815260040180806020018281038252838181546001816001161561010002031660029004815260200191508054600181600116156101000203166002900480156200057c5780601f1062000550576101008083540402835291602001916200057c565b820191906000526020600020905b8154815290600101906020018083116200055e57829003601f168201915b505092505050600060405180830381600087803b1580156200059d57600080fd5b505af1158015620005b2573d6000803e3d6000fd5b505050505050506200066e565b828054600181600116156101000203166002900490600052602060002090601f016020900481019282601f106200060257805160ff191683800117855562000633565b8280016001018555821562000633579182015b828111156200063257825182559160200191906001019062000615565b5b50905062000642919062000646565b5090565b6200066b91905b80821115620006675760008160009055506001016200064d565b5090565b90565b615b57806200067e6000396000f3006080604052600436106100a4576000357c0100000000000000000000000000000000000000000000000000000000900463ffffffff16806306fdde03146100a95780630c965f0b1461013957806326811a0e1461016657806341c0e1b51461019357806345995d42146101aa5780634be833ff146102ad5780636d0fd4e2146103205780638da5cb5b1461034d578063d511529f146103a4578063f08f8262146104a3575b600080fd5b3480156100b557600080fd5b506100be610601565b6040518080602001828103825283818151815260200191508051906020019080838360005b838110156100fe5780820151818401526020810190506100e3565b50505050905090810190601f16801561012b5780820380516001836020036101000a031916815260200191505b509250505060405180910390f35b34801561014557600080fd5b506101646004803603810190808035906020019092919050505061069f565b005b34801561017257600080fd5b5061019160048036038101908080359060200190929190505050610934565b005b34801561019f57600080fd5b506101a8610bc9565b005b3480156101b657600080fd5b50610293600480360381019080803573ffffffffffffffffffffffffffffffffffffffff169060200190929190803590602001909291908035806c0100000000000000000000000090049068010000000000000000900463ffffffff1677ffffffffffffffffffffffffffffffffffffffffffffffff169091602001919093929190939291908035806c0100000000000000000000000090049068010000000000000000900463ffffffff1677ffffffffffffffffffffffffffffffffffffffffffffffff16909160200191909392919093929190505050610c91565b604051808215151515815260200191505060405180910390f35b3480156102b957600080fd5b5061031e60048036038101908080359060200190929190803590602001908201803590602001908080601f0160208091040260200160405190810160405280939291908181526020018383808284378201915050505050509192919290505050611147565b005b34801561032c57600080fd5b5061034b60048036038101908080359060200190929190505050611446565b005b34801561035957600080fd5b506103626116db565b604051808273ffffffffffffffffffffffffffffffffffffffff1673ffffffffffffffffffffffffffffffffffffffff16815260200191505060405180910390f35b3480156103b057600080fd5b506104a160048036038101908080359060200190929190803590602001908201803590602001908080601f0160208091040260200160405190810160405280939291908181526020018383808284378201915050505050509192919290803590602001908201803590602001908080601f0160208091040260200160405190810160405280939291908181526020018383808284378201915050505050509192919290803590602001908201803590602001908080601f0160208091040260200160405190810160405280939291908181526020018383808284378201915050505050509192919290505050611700565b005b3480156104af57600080fd5b506105e7600480360381019080803573ffffffffffffffffffffffffffffffffffffffff169060200190929190803590602001909291908035151590602001909291908035806c0100000000000000000000000090049068010000000000000000900463ffffffff1677ffffffffffffffffffffffffffffffffffffffffffffffff169091602001919093929190939291908035806c0100000000000000000000000090049068010000000000000000900463ffffffff1677ffffffffffffffffffffffffffffffffffffffffffffffff169091602001919093929190939291908035806c0100000000000000000000000090049068010000000000000000900463ffffffff1677ffffffffffffffffffffffffffffffffffffffffffffffff16909160200191909392919093929190505050611adb565b604051808215151515815260200191505060405180910390f35b60018054600181600116156101000203166002900480601f0160208091040260200160405190810160405280929190818152602001828054600181600116156101000203166002900480156106975780601f1061066c57610100808354040283529160200191610697565b820191906000526020600020905b81548152906001019060200180831161067a57829003601f168201915b505050505081565b6106a7615a42565b6106f282600360009054906101000a900473ffffffffffffffffffffffffffffffffffffffff1673ffffffffffffffffffffffffffffffffffffffff16611fbd90919063ffffffff16565b9050600260009054906101000a900473ffffffffffffffffffffffffffffffffffffffff1673ffffffffffffffffffffffffffffffffffffffff1663693ec85e6040805190810160405280601181526020017f63616d6572612d636f6e74726f6c6c65720000000000000000000000000000008152506040518263ffffffff167c01000000000000000000000000000000000000000000000000000000000281526004018080602001828103825283818151815260200191508051906020019080838360005b838110156107d35780820151818401526020810190506107b8565b50505050905090810190601f1680156108005780820380516001836020036101000a031916815260200191505b5092505050602060405180830381600087803b15801561081f57600080fd5b505af1158015610833573d6000803e3d6000fd5b505050506040513d602081101561084957600080fd5b810190808051906020019092919050505073ffffffffffffffffffffffffffffffffffffffff1663cbbb086f82602001518360a00151806c0100000000000000000000000090049068010000000000000000900463ffffffff166040518463ffffffff167c010000000000000000000000000000000000000000000000000000000002815260040180848152602001838363ffffffff16906401000000000217680100000000000000000281526020019350505050600060405180830381600087803b15801561091857600080fd5b505af115801561092c573d6000803e3d6000fd5b505050505050565b61093c615acc565b61098782600360009054906101000a900473ffffffffffffffffffffffffffffffffffffffff1673ffffffffffffffffffffffffffffffffffffffff166129f690919063ffffffff16565b9050600260009054906101000a900473ffffffffffffffffffffffffffffffffffffffff1673ffffffffffffffffffffffffffffffffffffffff1663693ec85e6040805190810160405280601181526020017f63616d6572612d636f6e74726f6c6c65720000000000000000000000000000008152506040518263ffffffff167c01000000000000000000000000000000000000000000000000000000000281526004018080602001828103825283818151815260200191508051906020019080838360005b83811015610a68578082015181840152602081019050610a4d565b50505050905090810190601f168015610a955780820380516001836020036101000a031916815260200191505b5092505050602060405180830381600087803b158015610ab457600080fd5b505af1158015610ac8573d6000803e3d6000fd5b505050506040513d6020811015610ade57600080fd5b810190808051906020019092919050505073ffffffffffffffffffffffffffffffffffffffff1663e934d37682602001518360600151806c0100000000000000000000000090049068010000000000000000900463ffffffff166040518463ffffffff167c010000000000000000000000000000000000000000000000000000000002815260040180848152602001838363ffffffff16906401000000000217680100000000000000000281526020019350505050600060405180830381600087803b158015610bad57600080fd5b505af1158015610bc1573d6000803e3d6000fd5b505050505050565b6000809054906101000a900473ffffffffffffffffffffffffffffffffffffffff1673ffffffffffffffffffffffffffffffffffffffff163273ffffffffffffffffffffffffffffffffffffffff16141515610c8d576040517f08c379a00000000000000000000000000000000000000000000000000000000081526004018080602001828103825260128152602001807f6f6e6c79206f776e657220616c6c6f776564000000000000000000000000000081525060200191505060405180910390fd5b6000ff5b6000806000610ce188600360009054906101000a900473ffffffffffffffffffffffffffffffffffffffff1673ffffffffffffffffffffffffffffffffffffffff1661306490919063ffffffff16565b91508873ffffffffffffffffffffffffffffffffffffffff168273ffffffffffffffffffffffffffffffffffffffff16141515610d86576040517f08c379a00000000000000000000000000000000000000000000000000000000081526004018080602001828103825260168152602001807f696c6c6567616c2073657373696f6e206163636573730000000000000000000081525060200191505060405180910390fd5b610dd188600360009054906101000a900473ffffffffffffffffffffffffffffffffffffffff1673ffffffffffffffffffffffffffffffffffffffff1661311e90919063ffffffff16565b1515610e45576040517f08c379a00000000000000000000000000000000000000000000000000000000081526004018080602001828103825260158152602001807f73657373696f6e206973206e6f7420616374697665000000000000000000000081525060200191505060405180910390fd5b610e86600360009054906101000a900473ffffffffffffffffffffffffffffffffffffffff1673ffffffffffffffffffffffffffffffffffffffff1661330e565b9050610f2a6080604051908101604052808381526020018a8152602001898963ffffffff1690640100000000021768010000000000000000028152602001878763ffffffff169064010000000002176801000000000000000002815250600360009054906101000a900473ffffffffffffffffffffffffffffffffffffffff1673ffffffffffffffffffffffffffffffffffffffff1661347b90919063ffffffff16565b600260009054906101000a900473ffffffffffffffffffffffffffffffffffffffff1673ffffffffffffffffffffffffffffffffffffffff1663693ec85e6040805190810160405280600d81526020017f63616d6572612d6f7261636c65000000000000000000000000000000000000008152506040518263ffffffff167c01000000000000000000000000000000000000000000000000000000000281526004018080602001828103825283818151815260200191508051906020019080838360005b83811015611009578082015181840152602081019050610fee565b50505050905090810190601f1680156110365780820380516001836020036101000a031916815260200191505b5092505050602060405180830381600087803b15801561105557600080fd5b505af1158015611069573d6000803e3d6000fd5b505050506040513d602081101561107f57600080fd5b810190808051906020019092919050505073ffffffffffffffffffffffffffffffffffffffff166369bb807b826040518263ffffffff167c010000000000000000000000000000000000000000000000000000000002815260040180828152602001915050602060405180830381600087803b1580156110fe57600080fd5b505af1158015611112573d6000803e3d6000fd5b505050506040513d602081101561112857600080fd5b8101908080519060200190929190505050925050509695505050505050565b61114f615a42565b61119a83600360009054906101000a900473ffffffffffffffffffffffffffffffffffffffff1673ffffffffffffffffffffffffffffffffffffffff16613d7b90919063ffffffff16565b9050600260009054906101000a900473ffffffffffffffffffffffffffffffffffffffff1673ffffffffffffffffffffffffffffffffffffffff1663693ec85e6040805190810160405280601181526020017f63616d6572612d636f6e74726f6c6c65720000000000000000000000000000008152506040518263ffffffff167c01000000000000000000000000000000000000000000000000000000000281526004018080602001828103825283818151815260200191508051906020019080838360005b8381101561127b578082015181840152602081019050611260565b50505050905090810190601f1680156112a85780820380516001836020036101000a031916815260200191505b5092505050602060405180830381600087803b1580156112c757600080fd5b505af11580156112db573d6000803e3d6000fd5b505050506040513d60208110156112f157600080fd5b810190808051906020019092919050505073ffffffffffffffffffffffffffffffffffffffff16630dfb1ad284848460800151806c0100000000000000000000000090049068010000000000000000900463ffffffff166040518563ffffffff167c01000000000000000000000000000000000000000000000000000000000281526004018085815260200180602001848463ffffffff1690640100000000021768010000000000000000028152602001828103825285818151815260200191508051906020019080838360005b838110156113da5780820151818401526020810190506113bf565b50505050905090810190601f1680156114075780820380516001836020036101000a031916815260200191505b5095505050505050600060405180830381600087803b15801561142957600080fd5b505af115801561143d573d6000803e3d6000fd5b50505050505050565b61144e615acc565b61149982600360009054906101000a900473ffffffffffffffffffffffffffffffffffffffff1673ffffffffffffffffffffffffffffffffffffffff166129f690919063ffffffff16565b9050600260009054906101000a900473ffffffffffffffffffffffffffffffffffffffff1673ffffffffffffffffffffffffffffffffffffffff1663693ec85e6040805190810160405280601181526020017f63616d6572612d636f6e74726f6c6c65720000000000000000000000000000008152506040518263ffffffff167c01000000000000000000000000000000000000000000000000000000000281526004018080602001828103825283818151815260200191508051906020019080838360005b8381101561157a57808201518184015260208101905061155f565b50505050905090810190601f1680156115a75780820380516001836020036101000a031916815260200191505b5092505050602060405180830381600087803b1580156115c657600080fd5b505af11580156115da573d6000803e3d6000fd5b505050506040513d60208110156115f057600080fd5b810190808051906020019092919050505073ffffffffffffffffffffffffffffffffffffffff1663e1037a9782602001518360400151806c0100000000000000000000000090049068010000000000000000900463ffffffff166040518463ffffffff167c010000000000000000000000000000000000000000000000000000000002815260040180848152602001838363ffffffff16906401000000000217680100000000000000000281526020019350505050600060405180830381600087803b1580156116bf57600080fd5b505af11580156116d3573d6000803e3d6000fd5b505050505050565b6000809054906101000a900473ffffffffffffffffffffffffffffffffffffffff1681565b611708615a42565b61175385600360009054906101000a900473ffffffffffffffffffffffffffffffffffffffff1673ffffffffffffffffffffffffffffffffffffffff16611fbd90919063ffffffff16565b9050600260009054906101000a900473ffffffffffffffffffffffffffffffffffffffff1673ffffffffffffffffffffffffffffffffffffffff1663693ec85e6040805190810160405280601181526020017f63616d6572612d636f6e74726f6c6c65720000000000000000000000000000008152506040518263ffffffff167c01000000000000000000000000000000000000000000000000000000000281526004018080602001828103825283818151815260200191508051906020019080838360005b83811015611834578082015181840152602081019050611819565b50505050905090810190601f1680156118615780820380516001836020036101000a031916815260200191505b5092505050602060405180830381600087803b15801561188057600080fd5b505af1158015611894573d6000803e3d6000fd5b505050506040513d60208110156118aa57600080fd5b810190808051906020019092919050505073ffffffffffffffffffffffffffffffffffffffff16630c037d9a868686868660600151806c0100000000000000000000000090049068010000000000000000900463ffffffff166040518763ffffffff167c010000000000000000000000000000000000000000000000000000000002815260040180878152602001806020018060200180602001868663ffffffff1690640100000000021768010000000000000000028152602001848103845289818151815260200191508051906020019080838360005b8381101561199d578082015181840152602081019050611982565b50505050905090810190601f1680156119ca5780820380516001836020036101000a031916815260200191505b50848103835288818151815260200191508051906020019080838360005b83811015611a035780820151818401526020810190506119e8565b50505050905090810190601f168015611a305780820380516001836020036101000a031916815260200191505b50848103825287818151815260200191508051906020019080838360005b83811015611a69578082015181840152602081019050611a4e565b50505050905090810190601f168015611a965780820380516001836020036101000a031916815260200191505b509950505050505050505050600060405180830381600087803b158015611abc57600080fd5b505af1158015611ad0573d6000803e3d6000fd5b505050505050505050565b6000806000611b2b8b600360009054906101000a900473ffffffffffffffffffffffffffffffffffffffff1673ffffffffffffffffffffffffffffffffffffffff1661306490919063ffffffff16565b91508b73ffffffffffffffffffffffffffffffffffffffff168273ffffffffffffffffffffffffffffffffffffffff16141515611bd0576040517f08c379a00000000000000000000000000000000000000000000000000000000081526004018080602001828103825260168152602001807f696c6c6567616c2073657373696f6e206163636573730000000000000000000081525060200191505060405180910390fd5b611c1b8b600360009054906101000a900473ffffffffffffffffffffffffffffffffffffffff1673ffffffffffffffffffffffffffffffffffffffff1661311e90919063ffffffff16565b1515611c8f576040517f08c379a00000000000000000000000000000000000000000000000000000000081526004018080602001828103825260158152602001807f73657373696f6e206973206e6f7420616374697665000000000000000000000081525060200191505060405180910390fd5b611cd0600360009054906101000a900473ffffffffffffffffffffffffffffffffffffffff1673ffffffffffffffffffffffffffffffffffffffff16613f57565b9050611d9d60c0604051908101604052808381526020018d81526020018c151581526020018b8b63ffffffff1690640100000000021768010000000000000000028152602001898963ffffffff1690640100000000021768010000000000000000028152602001878763ffffffff169064010000000002176801000000000000000002815250600360009054906101000a900473ffffffffffffffffffffffffffffffffffffffff1673ffffffffffffffffffffffffffffffffffffffff166140c490919063ffffffff16565b600260009054906101000a900473ffffffffffffffffffffffffffffffffffffffff1673ffffffffffffffffffffffffffffffffffffffff1663693ec85e6040805190810160405280600d81526020017f63616d6572612d6f7261636c65000000000000000000000000000000000000008152506040518263ffffffff167c01000000000000000000000000000000000000000000000000000000000281526004018080602001828103825283818151815260200191508051906020019080838360005b83811015611e7c578082015181840152602081019050611e61565b50505050905090810190601f168015611ea95780820380516001836020036101000a031916815260200191505b5092505050602060405180830381600087803b158015611ec857600080fd5b505af1158015611edc573d6000803e3d6000fd5b505050506040513d6020811015611ef257600080fd5b810190808051906020019092919050505073ffffffffffffffffffffffffffffffffffffffff1663f2d9a2b1826040518263ffffffff167c010000000000000000000000000000000000000000000000000000000002815260040180828152602001915050602060405180830381600087803b158015611f7157600080fd5b505af1158015611f85573d6000803e3d6000fd5b505050506040513d6020811015611f9b57600080fd5b8101908080519060200190929190505050925050509998505050505050505050565b611fc5615a42565b611fcf8383614f06565b1515612043576040517f08c379a000000000000000000000000000000000000000000000000000000000815260040180806020018281038252601b8152602001807f5374617274205152207363616e206973206e6f7420657869737473000000000081525060200191505060405180910390fd5b60c0604051908101604052808381526020018473ffffffffffffffffffffffffffffffffffffffff1663e82617fb6040805190810160405280601281526020017f7363616e2d71722e73657373696f6e2e69640000000000000000000000000000815250866040516020018083805190602001908083835b6020831015156120e057805182526020820191506020810190506020830392506120bb565b6001836020036101000a038019825116818451168082178552505050505050905001828152602001925050506040516020818303038152906040526040518082805190602001908083835b602083101515612150578051825260208201915060208101905060208303925061212b565b6001836020036101000a03801982511681845116808217855250505050505090500191505060405180910390206040518263ffffffff167c0100000000000000000000000000000000000000000000000000000000028152600401808260001916600019168152602001915050602060405180830381600087803b1580156121d757600080fd5b505af11580156121eb573d6000803e3d6000fd5b505050506040513d602081101561220157600080fd5b810190808051906020019092919050505081526020018473ffffffffffffffffffffffffffffffffffffffff166317e7dd226040805190810160405280600e81526020017f7363616e2d71722e6c6967687473000000000000000000000000000000000000815250866040516020018083805190602001908083835b6020831015156122a2578051825260208201915060208101905060208303925061227d565b6001836020036101000a038019825116818451168082178552505050505050905001828152602001925050506040516020818303038152906040526040518082805190602001908083835b60208310151561231257805182526020820191506020810190506020830392506122ed565b6001836020036101000a03801982511681845116808217855250505050505090500191505060405180910390206040518263ffffffff167c0100000000000000000000000000000000000000000000000000000000028152600401808260001916600019168152602001915050602060405180830381600087803b15801561239957600080fd5b505af11580156123ad573d6000803e3d6000fd5b505050506040513d60208110156123c357600080fd5b8101908080519060200190929190505050151581526020018473ffffffffffffffffffffffffffffffffffffffff16635252e5c86040805190810160405280600f81526020017f7363616e2d71722e737563636573730000000000000000000000000000000000815250866040516020018083805190602001908083835b6020831015156124665780518252602082019150602081019050602083039250612441565b6001836020036101000a038019825116818451168082178552505050505050905001828152602001925050506040516020818303038152906040526040518082805190602001908083835b6020831015156124d657805182526020820191506020810190506020830392506124b1565b6001836020036101000a03801982511681845116808217855250505050505090500191505060405180910390206040518263ffffffff167c0100000000000000000000000000000000000000000000000000000000028152600401808260001916600019168152602001915050602060405180830381600087803b15801561255d57600080fd5b505af1158015612571573d6000803e3d6000fd5b505050506040513d602081101561258757600080fd5b810190808051806c0100000000000000000000000090049068010000000000000000900463ffffffff1690916020019190939291909392919050505063ffffffff16906401000000000217680100000000000000000281526020018473ffffffffffffffffffffffffffffffffffffffff166360f3c61e6040805190810160405280600f81526020017f7363616e2d71722e7363616e6e65640000000000000000000000000000000000815250866040516020018083805190602001908083835b60208310151561266d5780518252602082019150602081019050602083039250612648565b6001836020036101000a038019825116818451168082178552505050505050905001828152602001925050506040516020818303038152906040526040518082805190602001908083835b6020831015156126dd57805182526020820191506020810190506020830392506126b8565b6001836020036101000a03801982511681845116808217855250505050505090500191505060405180910390206040518263ffffffff167c0100000000000000000000000000000000000000000000000000000000028152600401808260001916600019168152602001915050602060405180830381600087803b15801561276457600080fd5b505af1158015612778573d6000803e3d6000fd5b505050506040513d602081101561278e57600080fd5b810190808051806c0100000000000000000000000090049068010000000000000000900463ffffffff1690916020019190939291909392919050505063ffffffff16906401000000000217680100000000000000000281526020018473ffffffffffffffffffffffffffffffffffffffff1663f8b98ab16040805190810160405280600c81526020017f7363616e2d71722e6661696c0000000000000000000000000000000000000000815250866040516020018083805190602001908083835b602083101515612874578051825260208201915060208101905060208303925061284f565b6001836020036101000a038019825116818451168082178552505050505050905001828152602001925050506040516020818303038152906040526040518082805190602001908083835b6020831015156128e457805182526020820191506020810190506020830392506128bf565b6001836020036101000a03801982511681845116808217855250505050505090500191505060405180910390206040518263ffffffff167c0100000000000000000000000000000000000000000000000000000000028152600401808260001916600019168152602001915050602060405180830381600087803b15801561296b57600080fd5b505af115801561297f573d6000803e3d6000fd5b505050506040513d602081101561299557600080fd5b810190808051806c0100000000000000000000000090049068010000000000000000900463ffffffff1690916020019190939291909392919050505063ffffffff169064010000000002176801000000000000000002815250905092915050565b6129fe615acc565b612a0883836150cd565b1515612a7c576040517f08c379a000000000000000000000000000000000000000000000000000000000815260040180806020018281038252601a8152602001807f53746f70205152207363616e206973206e6f742065786973747300000000000081525060200191505060405180910390fd5b6080604051908101604052808381526020018473ffffffffffffffffffffffffffffffffffffffff1663e82617fb6040805190810160405280601781526020017f73746f702d71722d7363616e2e73657373696f6e2e6964000000000000000000815250866040516020018083805190602001908083835b602083101515612b195780518252602082019150602081019050602083039250612af4565b6001836020036101000a038019825116818451168082178552505050505050905001828152602001925050506040516020818303038152906040526040518082805190602001908083835b602083101515612b895780518252602082019150602081019050602083039250612b64565b6001836020036101000a03801982511681845116808217855250505050505090500191505060405180910390206040518263ffffffff167c0100000000000000000000000000000000000000000000000000000000028152600401808260001916600019168152602001915050602060405180830381600087803b158015612c1057600080fd5b505af1158015612c24573d6000803e3d6000fd5b505050506040513d6020811015612c3a57600080fd5b810190808051906020019092919050505081526020018473ffffffffffffffffffffffffffffffffffffffff1663f8b98ab16040805190810160405280601481526020017f73746f702d71722d7363616e2e73756363657373000000000000000000000000815250866040516020018083805190602001908083835b602083101515612cdb5780518252602082019150602081019050602083039250612cb6565b6001836020036101000a038019825116818451168082178552505050505050905001828152602001925050506040516020818303038152906040526040518082805190602001908083835b602083101515612d4b5780518252602082019150602081019050602083039250612d26565b6001836020036101000a03801982511681845116808217855250505050505090500191505060405180910390206040518263ffffffff167c0100000000000000000000000000000000000000000000000000000000028152600401808260001916600019168152602001915050602060405180830381600087803b158015612dd257600080fd5b505af1158015612de6573d6000803e3d6000fd5b505050506040513d6020811015612dfc57600080fd5b810190808051806c0100000000000000000000000090049068010000000000000000900463ffffffff1690916020019190939291909392919050505063ffffffff16906401000000000217680100000000000000000281526020018473ffffffffffffffffffffffffffffffffffffffff1663f8b98ab16040805190810160405280601181526020017f73746f702d71722d7363616e2e6661696c000000000000000000000000000000815250866040516020018083805190602001908083835b602083101515612ee25780518252602082019150602081019050602083039250612ebd565b6001836020036101000a038019825116818451168082178552505050505050905001828152602001925050506040516020818303038152906040526040518082805190602001908083835b602083101515612f525780518252602082019150602081019050602083039250612f2d565b6001836020036101000a03801982511681845116808217855250505050505090500191505060405180910390206040518263ffffffff167c0100000000000000000000000000000000000000000000000000000000028152600401808260001916600019168152602001915050602060405180830381600087803b158015612fd957600080fd5b505af1158015612fed573d6000803e3d6000fd5b505050506040513d602081101561300357600080fd5b810190808051806c0100000000000000000000000090049068010000000000000000900463ffffffff1690916020019190939291909392919050505063ffffffff169064010000000002176801000000000000000002815250905092915050565b60006130708383615294565b15156130e4576040517f08c379a00000000000000000000000000000000000000000000000000000000081526004018080602001828103825260158152602001807f53657373696f6e206973206e6f7420657869737473000000000000000000000081525060200191505060405180910390fd5b6131166130f1848461545b565b8473ffffffffffffffffffffffffffffffffffffffff1661562290919063ffffffff16565b905092915050565b6000808373ffffffffffffffffffffffffffffffffffffffff1663e82617fb6040805190810160405280600e81526020017f73657373696f6e5f737461747573000000000000000000000000000000000000815250856040516020018083805190602001908083835b6020831015156131ac5780518252602082019150602081019050602083039250613187565b6001836020036101000a038019825116818451168082178552505050505050905001828152602001925050506040516020818303038152906040526040518082805190602001908083835b60208310151561321c57805182526020820191506020810190506020830392506131f7565b6001836020036101000a03801982511681845116808217855250505050505090500191505060405180910390206040518263ffffffff167c0100000000000000000000000000000000000000000000000000000000028152600401808260001916600019168152602001915050602060405180830381600087803b1580156132a357600080fd5b505af11580156132b7573d6000803e3d6000fd5b505050506040513d60208110156132cd57600080fd5b81019080805190602001909291905050509050600160048111156132ed57fe5b8160048111156132f957fe5b600481111561330457fe5b1491505092915050565b60008173ffffffffffffffffffffffffffffffffffffffff1663e82617fb6040516020018080602001828103825260118152602001807f53746f7051525363616e526571756573740000000000000000000000000000008152506020019150506040516020818303038152906040526040518082805190602001908083835b6020831015156133b2578051825260208201915060208101905060208303925061338d565b6001836020036101000a03801982511681845116808217855250505050505090500191505060405180910390206040518263ffffffff167c0100000000000000000000000000000000000000000000000000000000028152600401808260001916600019168152602001915050602060405180830381600087803b15801561343957600080fd5b505af115801561344d573d6000803e3d6000fd5b505050506040513d602081101561346357600080fd5b81019080805190602001909291905050509050919050565b6134898282600001516150cd565b1515156134fe576040517f08c379a000000000000000000000000000000000000000000000000000000000815260040180806020018281038252601e8152602001807f53746f70205152207363616e20697320616c726561647920657869737473000081525060200191505060405180910390fd5b8173ffffffffffffffffffffffffffffffffffffffff16633eba9ed26040805190810160405280601381526020017f73746f702d71722d7363616e2e6578697374730000000000000000000000000081525083600001516040516020018083805190602001908083835b60208310151561358d5780518252602082019150602081019050602083039250613568565b6001836020036101000a038019825116818451168082178552505050505050905001828152602001925050506040516020818303038152906040526040518082805190602001908083835b6020831015156135fd57805182526020820191506020810190506020830392506135d8565b6001836020036101000a038019825116818451168082178552505050505050905001915050604051809103902060016040518363ffffffff167c01000000000000000000000000000000000000000000000000000000000281526004018083600019166000191681526020018215151515815260200192505050600060405180830381600087803b15801561369157600080fd5b505af11580156136a5573d6000803e3d6000fd5b505050508173ffffffffffffffffffffffffffffffffffffffff1663ffb4f6236040805190810160405280601781526020017f73746f702d71722d7363616e2e73657373696f6e2e696400000000000000000081525083600001516040516020018083805190602001908083835b6020831015156137385780518252602082019150602081019050602083039250613713565b6001836020036101000a038019825116818451168082178552505050505050905001828152602001925050506040516020818303038152906040526040518082805190602001908083835b6020831015156137a85780518252602082019150602081019050602083039250613783565b6001836020036101000a038019825116818451168082178552505050505050905001915050604051809103902083602001516040518363ffffffff167c010000000000000000000000000000000000000000000000000000000002815260040180836000191660001916815260200182815260200192505050600060405180830381600087803b15801561383b57600080fd5b505af115801561384f573d6000803e3d6000fd5b505050508173ffffffffffffffffffffffffffffffffffffffff16634c0a4ced6040805190810160405280601481526020017f73746f702d71722d7363616e2e7375636365737300000000000000000000000081525083600001516040516020018083805190602001908083835b6020831015156138e257805182526020820191506020810190506020830392506138bd565b6001836020036101000a038019825116818451168082178552505050505050905001828152602001925050506040516020818303038152906040526040518082805190602001908083835b602083101515613952578051825260208201915060208101905060208303925061392d565b6001836020036101000a03801982511681845116808217855250505050505090500191505060405180910390208360400151806c0100000000000000000000000090049068010000000000000000900463ffffffff166040518463ffffffff167c0100000000000000000000000000000000000000000000000000000000028152600401808460001916600019168152602001838363ffffffff16906401000000000217680100000000000000000281526020019350505050600060405180830381600087803b158015613a2557600080fd5b505af1158015613a39573d6000803e3d6000fd5b505050508173ffffffffffffffffffffffffffffffffffffffff16634c0a4ced6040805190810160405280601181526020017f73746f702d71722d7363616e2e6661696c00000000000000000000000000000081525083600001516040516020018083805190602001908083835b602083101515613acc5780518252602082019150602081019050602083039250613aa7565b6001836020036101000a038019825116818451168082178552505050505050905001828152602001925050506040516020818303038152906040526040518082805190602001908083835b602083101515613b3c5780518252602082019150602081019050602083039250613b17565b6001836020036101000a03801982511681845116808217855250505050505090500191505060405180910390208360600151806c0100000000000000000000000090049068010000000000000000900463ffffffff166040518463ffffffff167c0100000000000000000000000000000000000000000000000000000000028152600401808460001916600019168152602001838363ffffffff16906401000000000217680100000000000000000281526020019350505050600060405180830381600087803b158015613c0f57600080fd5b505af1158015613c23573d6000803e3d6000fd5b505050508173ffffffffffffffffffffffffffffffffffffffff1663ffb4f6236040516020018080602001828103825260118152602001807f53746f7051525363616e526571756573740000000000000000000000000000008152506020019150506040516020818303038152906040526040518082805190602001908083835b602083101515613cc95780518252602082019150602081019050602083039250613ca4565b6001836020036101000a038019825116818451168082178552505050505050905001915050604051809103902060018460000151016040518363ffffffff167c010000000000000000000000000000000000000000000000000000000002815260040180836000191660001916815260200182815260200192505050600060405180830381600087803b158015613d5f57600080fd5b505af1158015613d73573d6000803e3d6000fd5b505050505050565b613d83615a42565b60008373ffffffffffffffffffffffffffffffffffffffff1663e82617fb6040805190810160405280601481526020017f7363616e2d71722e69643a73657373696f6e4964000000000000000000000000815250856040516020018083805190602001908083835b602083101515613e105780518252602082019150602081019050602083039250613deb565b6001836020036101000a038019825116818451168082178552505050505050905001828152602001925050506040516020818303038152906040526040518082805190602001908083835b602083101515613e805780518252602082019150602081019050602083039250613e5b565b6001836020036101000a03801982511681845116808217855250505050505090500191505060405180910390206040518263ffffffff167c0100000000000000000000000000000000000000000000000000000000028152600401808260001916600019168152602001915050602060405180830381600087803b158015613f0757600080fd5b505af1158015613f1b573d6000803e3d6000fd5b505050506040513d6020811015613f3157600080fd5b81019080805190602001909291905050509050613f4e8482611fbd565b91505092915050565b60008173ffffffffffffffffffffffffffffffffffffffff1663e82617fb60405160200180806020018281038252600d8152602001807f5363616e515252657175657374000000000000000000000000000000000000008152506020019150506040516020818303038152906040526040518082805190602001908083835b602083101515613ffb5780518252602082019150602081019050602083039250613fd6565b6001836020036101000a03801982511681845116808217855250505050505090500191505060405180910390206040518263ffffffff167c0100000000000000000000000000000000000000000000000000000000028152600401808260001916600019168152602001915050602060405180830381600087803b15801561408257600080fd5b505af1158015614096573d6000803e3d6000fd5b505050506040513d60208110156140ac57600080fd5b81019080805190602001909291905050509050919050565b6140d2828260000151614f06565b151515614147576040517f08c379a000000000000000000000000000000000000000000000000000000000815260040180806020018281038252601c8152602001807f5374617274205152207363616e20616c7265616479206578697374730000000081525060200191505060405180910390fd5b8173ffffffffffffffffffffffffffffffffffffffff16633eba9ed26040805190810160405280600e81526020017f7363616e2d71722e65786973747300000000000000000000000000000000000081525083600001516040516020018083805190602001908083835b6020831015156141d657805182526020820191506020810190506020830392506141b1565b6001836020036101000a038019825116818451168082178552505050505050905001828152602001925050506040516020818303038152906040526040518082805190602001908083835b6020831015156142465780518252602082019150602081019050602083039250614221565b6001836020036101000a038019825116818451168082178552505050505050905001915050604051809103902060016040518363ffffffff167c01000000000000000000000000000000000000000000000000000000000281526004018083600019166000191681526020018215151515815260200192505050600060405180830381600087803b1580156142da57600080fd5b505af11580156142ee573d6000803e3d6000fd5b505050508173ffffffffffffffffffffffffffffffffffffffff1663ffb4f6236040805190810160405280601481526020017f7363616e2d71722e69643a73657373696f6e496400000000000000000000000081525083602001516040516020018083805190602001908083835b602083101515614381578051825260208201915060208101905060208303925061435c565b6001836020036101000a038019825116818451168082178552505050505050905001828152602001925050506040516020818303038152906040526040518082805190602001908083835b6020831015156143f157805182526020820191506020810190506020830392506143cc565b6001836020036101000a038019825116818451168082178552505050505050905001915050604051809103902083600001516040518363ffffffff167c010000000000000000000000000000000000000000000000000000000002815260040180836000191660001916815260200182815260200192505050600060405180830381600087803b15801561448457600080fd5b505af1158015614498573d6000803e3d6000fd5b505050508173ffffffffffffffffffffffffffffffffffffffff1663ffb4f6236040805190810160405280601281526020017f7363616e2d71722e73657373696f6e2e6964000000000000000000000000000081525083600001516040516020018083805190602001908083835b60208310151561452b5780518252602082019150602081019050602083039250614506565b6001836020036101000a038019825116818451168082178552505050505050905001828152602001925050506040516020818303038152906040526040518082805190602001908083835b60208310151561459b5780518252602082019150602081019050602083039250614576565b6001836020036101000a038019825116818451168082178552505050505050905001915050604051809103902083602001516040518363ffffffff167c010000000000000000000000000000000000000000000000000000000002815260040180836000191660001916815260200182815260200192505050600060405180830381600087803b15801561462e57600080fd5b505af1158015614642573d6000803e3d6000fd5b505050508173ffffffffffffffffffffffffffffffffffffffff16633eba9ed26040805190810160405280600e81526020017f7363616e2d71722e6c696768747300000000000000000000000000000000000081525083600001516040516020018083805190602001908083835b6020831015156146d557805182526020820191506020810190506020830392506146b0565b6001836020036101000a038019825116818451168082178552505050505050905001828152602001925050506040516020818303038152906040526040518082805190602001908083835b6020831015156147455780518252602082019150602081019050602083039250614720565b6001836020036101000a038019825116818451168082178552505050505050905001915050604051809103902083604001516040518363ffffffff167c01000000000000000000000000000000000000000000000000000000000281526004018083600019166000191681526020018215151515815260200192505050600060405180830381600087803b1580156147dc57600080fd5b505af11580156147f0573d6000803e3d6000fd5b505050508173ffffffffffffffffffffffffffffffffffffffff1663bf9f8ba96040805190810160405280600f81526020017f7363616e2d71722e73756363657373000000000000000000000000000000000081525083600001516040516020018083805190602001908083835b602083101515614883578051825260208201915060208101905060208303925061485e565b6001836020036101000a038019825116818451168082178552505050505050905001828152602001925050506040516020818303038152906040526040518082805190602001908083835b6020831015156148f357805182526020820191506020810190506020830392506148ce565b6001836020036101000a03801982511681845116808217855250505050505090500191505060405180910390208360600151806c0100000000000000000000000090049068010000000000000000900463ffffffff166040518463ffffffff167c0100000000000000000000000000000000000000000000000000000000028152600401808460001916600019168152602001838363ffffffff16906401000000000217680100000000000000000281526020019350505050600060405180830381600087803b1580156149c657600080fd5b505af11580156149da573d6000803e3d6000fd5b505050508173ffffffffffffffffffffffffffffffffffffffff1663fe562b236040805190810160405280600f81526020017f7363616e2d71722e7363616e6e6564000000000000000000000000000000000081525083600001516040516020018083805190602001908083835b602083101515614a6d5780518252602082019150602081019050602083039250614a48565b6001836020036101000a038019825116818451168082178552505050505050905001828152602001925050506040516020818303038152906040526040518082805190602001908083835b602083101515614add5780518252602082019150602081019050602083039250614ab8565b6001836020036101000a03801982511681845116808217855250505050505090500191505060405180910390208360800151806c0100000000000000000000000090049068010000000000000000900463ffffffff166040518463ffffffff167c0100000000000000000000000000000000000000000000000000000000028152600401808460001916600019168152602001838363ffffffff16906401000000000217680100000000000000000281526020019350505050600060405180830381600087803b158015614bb057600080fd5b505af1158015614bc4573d6000803e3d6000fd5b505050508173ffffffffffffffffffffffffffffffffffffffff16634c0a4ced6040805190810160405280600c81526020017f7363616e2d71722e6661696c000000000000000000000000000000000000000081525083600001516040516020018083805190602001908083835b602083101515614c575780518252602082019150602081019050602083039250614c32565b6001836020036101000a038019825116818451168082178552505050505050905001828152602001925050506040516020818303038152906040526040518082805190602001908083835b602083101515614cc75780518252602082019150602081019050602083039250614ca2565b6001836020036101000a03801982511681845116808217855250505050505090500191505060405180910390208360a00151806c0100000000000000000000000090049068010000000000000000900463ffffffff166040518463ffffffff167c0100000000000000000000000000000000000000000000000000000000028152600401808460001916600019168152602001838363ffffffff16906401000000000217680100000000000000000281526020019350505050600060405180830381600087803b158015614d9a57600080fd5b505af1158015614dae573d6000803e3d6000fd5b505050508173ffffffffffffffffffffffffffffffffffffffff1663ffb4f62360405160200180806020018281038252600d8152602001807f5363616e515252657175657374000000000000000000000000000000000000008152506020019150506040516020818303038152906040526040518082805190602001908083835b602083101515614e545780518252602082019150602081019050602083039250614e2f565b6001836020036101000a038019825116818451168082178552505050505050905001915050604051809103902060018460000151016040518363ffffffff167c010000000000000000000000000000000000000000000000000000000002815260040180836000191660001916815260200182815260200192505050600060405180830381600087803b158015614eea57600080fd5b505af1158015614efe573d6000803e3d6000fd5b505050505050565b60008273ffffffffffffffffffffffffffffffffffffffff166317e7dd226040805190810160405280600e81526020017f7363616e2d71722e657869737473000000000000000000000000000000000000815250846040516020018083805190602001908083835b602083101515614f935780518252602082019150602081019050602083039250614f6e565b6001836020036101000a038019825116818451168082178552505050505050905001828152602001925050506040516020818303038152906040526040518082805190602001908083835b6020831015156150035780518252602082019150602081019050602083039250614fde565b6001836020036101000a03801982511681845116808217855250505050505090500191505060405180910390206040518263ffffffff167c0100000000000000000000000000000000000000000000000000000000028152600401808260001916600019168152602001915050602060405180830381600087803b15801561508a57600080fd5b505af115801561509e573d6000803e3d6000fd5b505050506040513d60208110156150b457600080fd5b8101908080519060200190929190505050905092915050565b60008273ffffffffffffffffffffffffffffffffffffffff166317e7dd226040805190810160405280601381526020017f73746f702d71722d7363616e2e65786973747300000000000000000000000000815250846040516020018083805190602001908083835b60208310151561515a5780518252602082019150602081019050602083039250615135565b6001836020036101000a038019825116818451168082178552505050505050905001828152602001925050506040516020818303038152906040526040518082805190602001908083835b6020831015156151ca57805182526020820191506020810190506020830392506151a5565b6001836020036101000a03801982511681845116808217855250505050505090500191505060405180910390206040518263ffffffff167c0100000000000000000000000000000000000000000000000000000000028152600401808260001916600019168152602001915050602060405180830381600087803b15801561525157600080fd5b505af1158015615265573d6000803e3d6000fd5b505050506040513d602081101561527b57600080fd5b8101908080519060200190929190505050905092915050565b60008273ffffffffffffffffffffffffffffffffffffffff166317e7dd226040805190810160405280600e81526020017f73657373696f6e2e657869737473000000000000000000000000000000000000815250846040516020018083805190602001908083835b60208310151561532157805182526020820191506020810190506020830392506152fc565b6001836020036101000a038019825116818451168082178552505050505050905001828152602001925050506040516020818303038152906040526040518082805190602001908083835b602083101515615391578051825260208201915060208101905060208303925061536c565b6001836020036101000a03801982511681845116808217855250505050505090500191505060405180910390206040518263ffffffff167c0100000000000000000000000000000000000000000000000000000000028152600401808260001916600019168152602001915050602060405180830381600087803b15801561541857600080fd5b505af115801561542c573d6000803e3d6000fd5b505050506040513d602081101561544257600080fd5b8101908080519060200190929190505050905092915050565b60008273ffffffffffffffffffffffffffffffffffffffff1663e82617fb6040805190810160405280601681526020017f73657373696f6e5f6170706c69636174696f6e5f696400000000000000000000815250846040516020018083805190602001908083835b6020831015156154e857805182526020820191506020810190506020830392506154c3565b6001836020036101000a038019825116818451168082178552505050505050905001828152602001925050506040516020818303038152906040526040518082805190602001908083835b6020831015156155585780518252602082019150602081019050602083039250615533565b6001836020036101000a03801982511681845116808217855250505050505090500191505060405180910390206040518263ffffffff167c0100000000000000000000000000000000000000000000000000000000028152600401808260001916600019168152602001915050602060405180830381600087803b1580156155df57600080fd5b505af11580156155f3573d6000803e3d6000fd5b505050506040513d602081101561560957600080fd5b8101908080519060200190929190505050905092915050565b600061562e838361579a565b15156156a2576040517f08c379a00000000000000000000000000000000000000000000000000000000081526004018080602001828103825260198152602001807f4170706c69636174696f6e206973206e6f74206578697374730000000000000081525060200191505060405180910390fd5b8273ffffffffffffffffffffffffffffffffffffffff16634c77e5ba6156fd6040805190810160405280601381526020017f6170706c69636174696f6e5f616464726573730000000000000000000000000081525085615961565b6040518263ffffffff167c0100000000000000000000000000000000000000000000000000000000028152600401808260001916600019168152602001915050602060405180830381600087803b15801561575757600080fd5b505af115801561576b573d6000803e3d6000fd5b505050506040513d602081101561578157600080fd5b8101908080519060200190929190505050905092915050565b60008273ffffffffffffffffffffffffffffffffffffffff166317e7dd226040805190810160405280601281526020017f6170706c69636174696f6e2e6578697374730000000000000000000000000000815250846040516020018083805190602001908083835b6020831015156158275780518252602082019150602081019050602083039250615802565b6001836020036101000a038019825116818451168082178552505050505050905001828152602001925050506040516020818303038152906040526040518082805190602001908083835b6020831015156158975780518252602082019150602081019050602083039250615872565b6001836020036101000a03801982511681845116808217855250505050505090500191505060405180910390206040518263ffffffff167c0100000000000000000000000000000000000000000000000000000000028152600401808260001916600019168152602001915050602060405180830381600087803b15801561591e57600080fd5b505af1158015615932573d6000803e3d6000fd5b505050506040513d602081101561594857600080fd5b8101908080519060200190929190505050905092915050565b600082826040516020018083805190602001908083835b60208310151561599d5780518252602082019150602081019050602083039250615978565b6001836020036101000a038019825116818451168082178552505050505050905001828152602001925050506040516020818303038152906040526040518082805190602001908083835b602083101515615a0d57805182526020820191506020810190506020830392506159e8565b6001836020036101000a0380198251168184511680821785525050505050509050019150506040518091039020905092915050565b60c060405190810160405280600081526020016000815260200160001515815260200160008063ffffffff169064010000000002176801000000000000000002815260200160008063ffffffff169064010000000002176801000000000000000002815260200160008063ffffffff16906401000000000217680100000000000000000281525090565b608060405190810160405280600081526020016000815260200160008063ffffffff169064010000000002176801000000000000000002815260200160008063ffffffff169064010000000002176801000000000000000002815250905600a165627a7a723058202425597d96bccf0045cb165aa906d84a35b9bae68d42fd00d7b99beb68ecf7c30029",
  "source": "pragma solidity 0.4.24;\n\nimport {CameraLib, SessionLib} from \"../libs/Libraries.sol\";\nimport {ACameraManager} from \"./Managers.sol\";\nimport {ACameraOracle} from \"../oracles/Oracles.sol\";\nimport {ACameraController} from \"../controllers/Controllers.sol\";\nimport \"../Platform.sol\";\n\ncontract CameraManager is ACameraManager, Mortal, Named(\"camera-manager\"), Component {\n\n    using CameraLib for address;\n    using SessionLib for address;\n\n    string constant ORACLE = \"camera-oracle\";\n    string constant CONTROLLER = \"camera-controller\";\n\n    constructor(address _config) Component(_config) public {}\n\n    function scanQRCode(\n        address _application,\n        uint256 _sessionId,\n        bool _lights,\n        function(uint256, string memory, string memory, string memory) external _success,\n        function(uint256, string memory) external _scanned,\n        function(uint256) external _fail\n    )\n        public \n        returns (bool _accepted) \n    {\n        address sessionOwner = database.retrieveSessionApplicationDeployedAddress(_sessionId);\n        require(sessionOwner == _application, \"illegal session access\");\n        require(database.sessionIsActive(_sessionId), \"session is not active\");\n        uint256 startQRScanId = database.getNextStartQRScanId();\n        database.createStartQRScan(CameraLib.StartQRScan({\n            id : startQRScanId,\n            sessionId : _sessionId,\n            lights : _lights,\n            scanned : _scanned,\n            success : _success,\n            fail : _fail\n            })\n        );\n        _accepted = ACameraOracle(context.get(ORACLE)).onNextStartQRScan(startQRScanId);\n    }\n\n    function confirmFailStart(uint256 _commandId) public {\n        //here can be some logic\n        CameraLib.StartQRScan memory command = database.retrieveStartQRScan(_commandId);\n        ACameraController(context.get(CONTROLLER)).respondFailStart(command.sessionId, command.fail);\n    }\n\n    function confirmStart(uint256 _commandId, string memory _port, string memory _url, string memory _href) public {\n        //here can be some logic\n        CameraLib.StartQRScan memory command = database.retrieveStartQRScan(_commandId);\n        ACameraController(context.get(CONTROLLER)).respondStart(_commandId, _port, _url, _href, command.success);\n    }\n\n    function confirmScanned(uint256 _sessionId, string memory _qr) public {\n        CameraLib.StartQRScan memory command = database.retrieveStartQRScanBySessionId(_sessionId);\n        ACameraController(context.get(CONTROLLER)).respondScanned(_sessionId, _qr, command.scanned);\n    }\n\n    function stopQRScanning(\n        address _application,\n        uint256 _sessionId,\n        function(uint256) external _success,\n        function(uint256) external _fail\n    )   // @formatter:off\n        public\n        returns (bool _accepted)\n        // @formatter:on\n    {\n        address sessionOwner = database.retrieveSessionApplicationDeployedAddress(_sessionId);\n        require(sessionOwner == _application, \"illegal session access\");\n        require(database.sessionIsActive(_sessionId), \"session is not active\");\n        uint256 stopQRScanId = database.getNextStopQRScanId();\n        database.createStopQRScan(CameraLib.StopQRScan({\n            id : stopQRScanId,\n            sessionId : _sessionId,\n            success : _success,\n            fail : _fail\n            }));\n        _accepted = ACameraOracle(context.get(ORACLE)).onNextStopQRScan(stopQRScanId);\n    }\n\n    function confirmStop(uint256 _commandId) public {\n        //here can be some logic\n        CameraLib.StopQRScan memory command = database.retrieveStopQRScan(_commandId);\n        ACameraController(context.get(CONTROLLER)).respondStop(command.sessionId, command.success);\n    }\n\n    function confirmFailStop(uint256 _commandId) public {\n        //here can be some logic\n        CameraLib.StopQRScan memory command = database.retrieveStopQRScan(_commandId);\n        ACameraController(context.get(CONTROLLER)).respondFailStop(command.sessionId, command.fail);\n    }\n\n}",
  "sourcePath": "/home/andrew/vault-logic-project/Development/test/vault-logic-api/truffle/contracts/managers/CameraManager.sol",
  "compiler": {
    "name": "solc",
    "version": "0.4.24+commit.e67f0147.Emscripten.clang"
  },
  "schemaVersion": "2.0.1",
  "updatedAt": "2018-10-16T08:22:15.334Z"
}