{
  "contractName": "CameraController",
  "abi": [
    {
      "constant": true,
      "inputs": [],
      "name": "name",
      "outputs": [
        {
          "name": "",
          "type": "string"
        }
      ],
      "payable": false,
      "stateMutability": "view",
      "type": "function"
    },
    {
      "constant": false,
      "inputs": [],
      "name": "kill",
      "outputs": [],
      "payable": false,
      "stateMutability": "nonpayable",
      "type": "function"
    },
    {
      "constant": true,
      "inputs": [],
      "name": "owner",
      "outputs": [
        {
          "name": "",
          "type": "address"
        }
      ],
      "payable": false,
      "stateMutability": "view",
      "type": "function"
    },
    {
      "inputs": [
        {
          "name": "_config",
          "type": "address"
        }
      ],
      "payable": false,
      "stateMutability": "nonpayable",
      "type": "constructor"
    },
    {
      "constant": false,
      "inputs": [
        {
          "name": "_sessionId",
          "type": "uint256"
        },
        {
          "name": "_success",
          "type": "function"
        },
        {
          "name": "_scanned",
          "type": "function"
        },
        {
          "name": "_fail",
          "type": "function"
        }
      ],
      "name": "scanQRCodeWithLights",
      "outputs": [],
      "payable": false,
      "stateMutability": "nonpayable",
      "type": "function"
    },
    {
      "constant": false,
      "inputs": [
        {
          "name": "_sessionId",
          "type": "uint256"
        },
        {
          "name": "_success",
          "type": "function"
        },
        {
          "name": "_scanned",
          "type": "function"
        },
        {
          "name": "_fail",
          "type": "function"
        }
      ],
      "name": "scanQRCodeWithoutLights",
      "outputs": [],
      "payable": false,
      "stateMutability": "nonpayable",
      "type": "function"
    },
    {
      "constant": false,
      "inputs": [
        {
          "name": "_sessionId",
          "type": "uint256"
        },
        {
          "name": "_callback",
          "type": "function"
        }
      ],
      "name": "respondFailStart",
      "outputs": [],
      "payable": false,
      "stateMutability": "nonpayable",
      "type": "function"
    },
    {
      "constant": false,
      "inputs": [
        {
          "name": "_sessionId",
          "type": "uint256"
        },
        {
          "name": "_port",
          "type": "string"
        },
        {
          "name": "_url",
          "type": "string"
        },
        {
          "name": "_href",
          "type": "string"
        },
        {
          "name": "_callback",
          "type": "function"
        }
      ],
      "name": "respondStart",
      "outputs": [],
      "payable": false,
      "stateMutability": "nonpayable",
      "type": "function"
    },
    {
      "constant": false,
      "inputs": [
        {
          "name": "_sessionId",
          "type": "uint256"
        },
        {
          "name": "_qr",
          "type": "string"
        },
        {
          "name": "_callback",
          "type": "function"
        }
      ],
      "name": "respondScanned",
      "outputs": [],
      "payable": false,
      "stateMutability": "nonpayable",
      "type": "function"
    },
    {
      "constant": false,
      "inputs": [
        {
          "name": "_sessionId",
          "type": "uint256"
        },
        {
          "name": "_success",
          "type": "function"
        },
        {
          "name": "_fail",
          "type": "function"
        }
      ],
      "name": "stopQRScanning",
      "outputs": [],
      "payable": false,
      "stateMutability": "nonpayable",
      "type": "function"
    },
    {
      "constant": false,
      "inputs": [
        {
          "name": "_sessionId",
          "type": "uint256"
        },
        {
          "name": "_callback",
          "type": "function"
        }
      ],
      "name": "respondStop",
      "outputs": [],
      "payable": false,
      "stateMutability": "nonpayable",
      "type": "function"
    },
    {
      "constant": false,
      "inputs": [
        {
          "name": "_sessionId",
          "type": "uint256"
        },
        {
          "name": "_callback",
          "type": "function"
        }
      ],
      "name": "respondFailStop",
      "outputs": [],
      "payable": false,
      "stateMutability": "nonpayable",
      "type": "function"
    }
  ],
  "bytecode": "0x60806040523480156200001157600080fd5b5060405160208062001012833981016040818152915182820190925260118082527f63616d6572612d636f6e74726f6c6c65720000000000000000000000000000006020830190815260008054600160a060020a031916331790558392916200007d91600191620002b8565b505080600160a060020a031663713b563f6040518163ffffffff167c0100000000000000000000000000000000000000000000000000000000028152600401602060405180830381600087803b158015620000d757600080fd5b505af1158015620000ec573d6000803e3d6000fd5b505050506040513d60208110156200010357600080fd5b505160038054600160a060020a031916600160a060020a03928316179055604080517fd0496d6a00000000000000000000000000000000000000000000000000000000815290519183169163d0496d6a916004808201926020929091908290030181600087803b1580156200017757600080fd5b505af11580156200018c573d6000803e3d6000fd5b505050506040513d6020811015620001a357600080fd5b505160028054600160a060020a031916600160a060020a03928316178082556040517ff2c298be00000000000000000000000000000000000000000000000000000000815260206004820190815260018054610100818316150260001901169490940460248301819052929094169363f2c298be93929091829160449091019084908015620002765780601f106200024a5761010080835404028352916020019162000276565b820191906000526020600020905b8154815290600101906020018083116200025857829003601f168201915b505092505050600060405180830381600087803b1580156200029757600080fd5b505af1158015620002ac573d6000803e3d6000fd5b5050505050506200035d565b828054600181600116156101000203166002900490600052602060002090601f016020900481019282601f10620002fb57805160ff19168380011785556200032b565b828001600101855582156200032b579182015b828111156200032b5782518255916020019190600101906200030e565b50620003399291506200033d565b5090565b6200035a91905b8082111562000339576000815560010162000344565b90565b610ca5806200036d6000396000f3006080604052600436106100955763ffffffff60e060020a60003504166306fdde03811461009a5780630c037d9a146101245780630dfb1ad214610227578063138cea01146102ac57806341ad3c6f1461030857806341c0e1b51461036457806344c31e2f146103795780638da5cb5b146103c5578063cbbb086f146103f6578063e1037a97146103f6578063e934d376146103f6575b600080fd5b3480156100a657600080fd5b506100af610435565b6040805160208082528351818301528351919283929083019185019080838360005b838110156100e95781810151838201526020016100d1565b50505050905090810190601f1680156101165780820380516001836020036101000a031916815260200191505b509250505060405180910390f35b34801561013057600080fd5b5060408051602060046024803582810135601f810185900485028601850190965285855261022595833595369560449491939091019190819084018382808284375050604080516020601f89358b018035918201839004830284018301909452808352979a99988101979196509182019450925082915084018382808284375050604080516020601f89358b018035918201839004830284018301909452808352979a999881019791965091820194509250829150840183828082843750949750506c010000000000000000000000009435948504955050506801000000000000000090920463ffffffff1691506104c29050565b005b34801561023357600080fd5b5060408051602060046024803582810135601f8101859004850286018501909652858552610225958335953695604494919390910191908190840183828082843750949750506c010000000000000000000000009435948504955050506801000000000000000090920463ffffffff1691506106569050565b3480156102b857600080fd5b506102256004356c010000000000000000000000006024358181049163ffffffff68010000000000000000928390048116926044358381049390829004831692606435918204929091041661071a565b34801561031457600080fd5b506102256004356c010000000000000000000000006024358181049163ffffffff6801000000000000000092839004811692604435838104939082900483169260643591820492909104166108aa565b34801561037057600080fd5b50610225610a1a565b34801561038557600080fd5b506102256004356c010000000000000000000000006024358181049163ffffffff6801000000000000000092839004811692604435928304920416610a97565b3480156103d157600080fd5b506103da610c11565b60408051600160a060020a039092168252519081900360200190f35b34801561040257600080fd5b506102256004356c010000000000000000000000006024359081049068010000000000000000900463ffffffff16610c20565b60018054604080516020600284861615610100026000190190941693909304601f810184900484028201840190925281815292918301828280156104ba5780601f1061048f576101008083540402835291602001916104ba565b820191906000526020600020905b81548152906001019060200180831161049d57829003601f168201915b505050505081565b8181878787876040518563ffffffff1660e060020a02815260040180858152602001806020018060200180602001848103845287818151815260200191508051906020019080838360005b8381101561052557818101518382015260200161050d565b50505050905090810190601f1680156105525780820380516001836020036101000a031916815260200191505b50848103835286518152865160209182019188019080838360005b8381101561058557818101518382015260200161056d565b50505050905090810190601f1680156105b25780820380516001836020036101000a031916815260200191505b50848103825285518152855160209182019187019080838360005b838110156105e55781810151838201526020016105cd565b50505050905090810190601f1680156106125780820380516001836020036101000a031916815260200191505b50975050505050505050600060405180830381600087803b15801561063657600080fd5b505af115801561064a573d6000803e3d6000fd5b50505050505050505050565b818185856040518363ffffffff1660e060020a0281526004018083815260200180602001828103825283818151815260200191508051906020019080838360005b838110156106af578181015183820152602001610697565b50505050905090810190601f1680156106dc5780820380516001836020036101000a031916815260200191505b509350505050600060405180830381600087803b1580156106fc57600080fd5b505af1158015610710573d6000803e3d6000fd5b5050505050505050565b600254604080517f693ec85e000000000000000000000000000000000000000000000000000000008152602060048201819052600e60248301527f63616d6572612d6d616e6167657200000000000000000000000000000000000060448301529151600160a060020a039093169263693ec85e926064808401939192918290030181600087803b1580156107ad57600080fd5b505af11580156107c1573d6000803e3d6000fd5b505050506040513d60208110156107d757600080fd5b5051604080517ff08f8262000000000000000000000000000000000000000000000000000000008152336004820152602481018a905260006044820181905268010000000000000000640100000000808c0263ffffffff808d169190911783026064860152818b02818b161783026084860152908802908716170260a48301529151600160a060020a039093169263f08f82629260c48084019391929182900301818387803b15801561088957600080fd5b505af115801561089d573d6000803e3d6000fd5b5050505050505050505050565b600254604080517f693ec85e000000000000000000000000000000000000000000000000000000008152602060048201819052600e60248301527f63616d6572612d6d616e6167657200000000000000000000000000000000000060448301529151600160a060020a039093169263693ec85e926064808401939192918290030181600087803b15801561093d57600080fd5b505af1158015610951573d6000803e3d6000fd5b505050506040513d602081101561096757600080fd5b5051604080517ff08f8262000000000000000000000000000000000000000000000000000000008152336004820152602481018a90526001604482015268010000000000000000640100000000808b0263ffffffff808c169190911783026064850152818a02818a161783026084850152908702908616170260a48201529051600160a060020a039092169163f08f82629160c48082019260009290919082900301818387803b15801561088957600080fd5b600054600160a060020a03163214610a9357604080517f08c379a000000000000000000000000000000000000000000000000000000000815260206004820152601260248201527f6f6e6c79206f776e657220616c6c6f7765640000000000000000000000000000604482015290519081900360640190fd5b6000ff5b600254604080517f693ec85e000000000000000000000000000000000000000000000000000000008152602060048201819052600e60248301527f63616d6572612d6d616e6167657200000000000000000000000000000000000060448301529151600160a060020a039093169263693ec85e926064808401939192918290030181600087803b158015610b2a57600080fd5b505af1158015610b3e573d6000803e3d6000fd5b505050506040513d6020811015610b5457600080fd5b5051604080517f45995d42000000000000000000000000000000000000000000000000000000008152336004820152602481018890526801000000000000000064010000000080890263ffffffff808a169190911783026044850152908702908616170260648201529051600160a060020a03909216916345995d429160848082019260009290919082900301818387803b158015610bf257600080fd5b505af1158015610c06573d6000803e3d6000fd5b505050505050505050565b600054600160a060020a031681565b8181846040518263ffffffff1660e060020a02815260040180828152602001915050600060405180830381600087803b158015610c5c57600080fd5b505af1158015610c70573d6000803e3d6000fd5b505050505050505600a165627a7a723058207c721d46c9330b3d72e39a11c8b04f3ba2e51f0403349b3678ca933c7d97979d0029",
  "source": "pragma solidity 0.4.24;\n\nimport \"../platform/Named.sol\";\nimport \"../platform/Mortal.sol\";\nimport \"../platform/Component.sol\";\nimport \"./api/ACameraController.sol\";\nimport \"../managers/api/ACameraManager.sol\";\n\ncontract CameraController is ACameraController, Named(\"camera-controller\"), Mortal, Component {\n\n    constructor(address _config) Component(_config) public {}\n\n    function scanQRCodeWithLights(\n        uint256 _sessionId,\n        function(uint256, string memory, string memory, string memory) external _success,\n        function(uint256, string memory) external _scanned,\n        function(uint256) external _fail\n    )   // @formatter:off\n        external\n        // @formatter:on\n    {\n        ACameraManager(context.get(\"camera-manager\")).scanQRCode(msg.sender, _sessionId, true, _success, _scanned, _fail);\n    }\n\n    function scanQRCodeWithoutLights(\n        uint256 _sessionId,\n        function(uint256, string memory, string memory, string memory) external _success,\n        function(uint256, string memory) external _scanned,\n        function(uint256) external _fail\n    )   // @formatter:off\n        external\n        // @formatter:on\n    {\n        ACameraManager(context.get(\"camera-manager\")).scanQRCode(msg.sender, _sessionId, false, _success, _scanned, _fail);\n    }\n\n    function respondFailStart(uint256 _sessionId, function(uint256) external _callback) public {\n        _callback(_sessionId);\n    }\n\n    function respondStart(\n        uint256 _sessionId,\n        string _port,\n        string _url,\n        string _href,\n        function(uint, string memory, string memory, string memory) external _callback\n    )   // @formatter:off\n        public\n        // @formatter:on\n    {\n        _callback(_sessionId, _port, _url, _href);\n    }\n\n    function respondScanned(\n        uint256 _sessionId,\n        string _qr,\n        function(uint256, string memory) external _callback\n    )\n        public\n    {\n        _callback(_sessionId, _qr);\n    }\n\n    function stopQRScanning(\n        uint256 _sessionId,\n        function(uint256) external _success,\n        function(uint256) external _fail\n    )   // @formatter:off\n        external\n        // @formatter:on\n    {\n        ACameraManager(context.get(\"camera-manager\")).stopQRScanning(msg.sender, _sessionId, _success, _fail);\n    }\n\n    function respondStop(uint256 _sessionId, function(uint256) external _callback) public {\n        _callback(_sessionId);\n    }\n\n    function respondFailStop(uint256 _sessionId, function(uint256) external _callback) public {\n        _callback(_sessionId);\n    }\n\n}",
  "sourcePath": "/home/andrew/vault-logic-project/Development/test/vault-logic-api/truffle/contracts/controllers/CameraController.sol",
  "compiler": {
    "name": "solc",
    "version": "0.4.24+commit.e67f0147.Emscripten.clang"
  },
  "schemaVersion": "2.0.1",
  "updatedAt": "2018-11-06T08:45:22.563Z"
}