{
  "contractName": "CameraController",
  "abi": [
    {
      "constant": true,
      "inputs": [],
      "name": "name",
      "outputs": [
        {
          "name": "",
          "type": "string"
        }
      ],
      "payable": false,
      "stateMutability": "view",
      "type": "function"
    },
    {
      "constant": false,
      "inputs": [],
      "name": "kill",
      "outputs": [],
      "payable": false,
      "stateMutability": "nonpayable",
      "type": "function"
    },
    {
      "constant": true,
      "inputs": [],
      "name": "owner",
      "outputs": [
        {
          "name": "",
          "type": "address"
        }
      ],
      "payable": false,
      "stateMutability": "view",
      "type": "function"
    },
    {
      "inputs": [
        {
          "name": "_config",
          "type": "address"
        }
      ],
      "payable": false,
      "stateMutability": "nonpayable",
      "type": "constructor"
    },
    {
      "constant": false,
      "inputs": [
        {
          "name": "_sessionId",
          "type": "uint256"
        },
        {
          "name": "_success",
          "type": "function"
        },
        {
          "name": "_scanned",
          "type": "function"
        },
        {
          "name": "_fail",
          "type": "function"
        }
      ],
      "name": "scanQRCodeWithLights",
      "outputs": [
        {
          "name": "_accepted",
          "type": "bool"
        }
      ],
      "payable": false,
      "stateMutability": "nonpayable",
      "type": "function"
    },
    {
      "constant": false,
      "inputs": [
        {
          "name": "_sessionId",
          "type": "uint256"
        },
        {
          "name": "_success",
          "type": "function"
        },
        {
          "name": "_scanned",
          "type": "function"
        },
        {
          "name": "_fail",
          "type": "function"
        }
      ],
      "name": "scanQRCode",
      "outputs": [
        {
          "name": "_accepted",
          "type": "bool"
        }
      ],
      "payable": false,
      "stateMutability": "nonpayable",
      "type": "function"
    },
    {
      "constant": false,
      "inputs": [
        {
          "name": "_sessionId",
          "type": "uint256"
        },
        {
          "name": "_callback",
          "type": "function"
        }
      ],
      "name": "respondFailStart",
      "outputs": [],
      "payable": false,
      "stateMutability": "nonpayable",
      "type": "function"
    },
    {
      "constant": false,
      "inputs": [
        {
          "name": "_sessionId",
          "type": "uint256"
        },
        {
          "name": "_port",
          "type": "string"
        },
        {
          "name": "_url",
          "type": "string"
        },
        {
          "name": "_href",
          "type": "string"
        },
        {
          "name": "_callback",
          "type": "function"
        }
      ],
      "name": "respondStart",
      "outputs": [],
      "payable": false,
      "stateMutability": "nonpayable",
      "type": "function"
    },
    {
      "constant": false,
      "inputs": [
        {
          "name": "_sessionId",
          "type": "uint256"
        },
        {
          "name": "_qr",
          "type": "string"
        },
        {
          "name": "_callback",
          "type": "function"
        }
      ],
      "name": "respondScanned",
      "outputs": [],
      "payable": false,
      "stateMutability": "nonpayable",
      "type": "function"
    },
    {
      "constant": false,
      "inputs": [
        {
          "name": "_sessionId",
          "type": "uint256"
        },
        {
          "name": "_success",
          "type": "function"
        },
        {
          "name": "_fail",
          "type": "function"
        }
      ],
      "name": "stopQRScanning",
      "outputs": [
        {
          "name": "_accepted",
          "type": "bool"
        }
      ],
      "payable": false,
      "stateMutability": "nonpayable",
      "type": "function"
    },
    {
      "constant": false,
      "inputs": [
        {
          "name": "_sessionId",
          "type": "uint256"
        },
        {
          "name": "_callback",
          "type": "function"
        }
      ],
      "name": "respondStop",
      "outputs": [],
      "payable": false,
      "stateMutability": "nonpayable",
      "type": "function"
    },
    {
      "constant": false,
      "inputs": [
        {
          "name": "_sessionId",
          "type": "uint256"
        },
        {
          "name": "_callback",
          "type": "function"
        }
      ],
      "name": "respondFailStop",
      "outputs": [],
      "payable": false,
      "stateMutability": "nonpayable",
      "type": "function"
    }
  ],
  "bytecode": "0x60806040523480156200001157600080fd5b5060405160208062001990833981016040818152915182820190925260118082527f63616d6572612d636f6e74726f6c6c65720000000000000000000000000000006020830190815260008054600160a060020a031916331781558493909290916200008191600191906200044e565b505081600160a060020a031663713b563f6040518163ffffffff167c0100000000000000000000000000000000000000000000000000000000028152600401602060405180830381600087803b158015620000db57600080fd5b505af1158015620000f0573d6000803e3d6000fd5b505050506040513d60208110156200010757600080fd5b505160038054600160a060020a031916600160a060020a03928316179055604080517fd0496d6a00000000000000000000000000000000000000000000000000000000815290519184169163d0496d6a916004808201926020929091908290030181600087803b1580156200017b57600080fd5b505af115801562000190573d6000803e3d6000fd5b505050506040513d6020811015620001a757600080fd5b505160028054600160a060020a031916600160a060020a03928316178082556040517f693ec85e00000000000000000000000000000000000000000000000000000000815260206004820190815260018054610100818316150260001901169490940460248301819052929094169363693ec85e939290918291604490910190849080156200027a5780601f106200024e576101008083540402835291602001916200027a565b820191906000526020600020905b8154815290600101906020018083116200025c57829003601f168201915b505092505050602060405180830381600087803b1580156200029b57600080fd5b505af1158015620002b0573d6000803e3d6000fd5b505050506040513d6020811015620002c757600080fd5b50519050600160a060020a038116156200034d5780600160a060020a03166341c0e1b56040518163ffffffff167c0100000000000000000000000000000000000000000000000000000000028152600401600060405180830381600087803b1580156200033357600080fd5b505af115801562000348573d6000803e3d6000fd5b505050505b600280546040517ff2c298be00000000000000000000000000000000000000000000000000000000815260206004820190815260018054600019818316156101000201169490940460248301819052600160a060020a039093169363f2c298be9390928291604490910190849080156200040b5780601f10620003df576101008083540402835291602001916200040b565b820191906000526020600020905b815481529060010190602001808311620003ed57829003601f168201915b505092505050600060405180830381600087803b1580156200042c57600080fd5b505af115801562000441573d6000803e3d6000fd5b50505050505050620004f3565b828054600181600116156101000203166002900490600052602060002090601f016020900481019282601f106200049157805160ff1916838001178555620004c1565b82800160010185558215620004c1579182015b82811115620004c1578251825591602001919060010190620004a4565b50620004cf929150620004d3565b5090565b620004f091905b80821115620004cf5760008155600101620004da565b90565b61148d80620005036000396000f3006080604052600436106100955763ffffffff60e060020a60003504166306fdde03811461009a5780630c037d9a146101245780630dfb1ad21461022757806341ad3c6f146102ac57806341c0e1b51461031c57806344c31e2f146103315780638da5cb5b1461037d578063c2793ce0146103ae578063cbbb086f1461040a578063e1037a971461040a578063e934d3761461040a575b600080fd5b3480156100a657600080fd5b506100af610449565b6040805160208082528351818301528351919283929083019185019080838360005b838110156100e95781810151838201526020016100d1565b50505050905090810190601f1680156101165780820380516001836020036101000a031916815260200191505b509250505060405180910390f35b34801561013057600080fd5b5060408051602060046024803582810135601f810185900485028601850190965285855261022595833595369560449491939091019190819084018382808284375050604080516020601f89358b018035918201839004830284018301909452808352979a99988101979196509182019450925082915084018382808284375050604080516020601f89358b018035918201839004830284018301909452808352979a999881019791965091820194509250829150840183828082843750949750506c010000000000000000000000009435948504955050506801000000000000000090920463ffffffff1691506104d69050565b005b34801561023357600080fd5b5060408051602060046024803582810135601f8101859004850286018501909652858552610225958335953695604494919390910191908190840183828082843750949750506c010000000000000000000000009435948504955050506801000000000000000090920463ffffffff1691506107be9050565b3480156102b857600080fd5b506103086004356c010000000000000000000000006024358181049163ffffffff6801000000000000000092839004811692604435838104939082900483169260643591820492909104166109d6565b604080519115158252519081900360200190f35b34801561032857600080fd5b50610225610c2a565b34801561033d57600080fd5b506103086004356c010000000000000000000000006024358181049163ffffffff6801000000000000000092839004811692604435928304920416610c90565b34801561038957600080fd5b50610392610ecd565b60408051600160a060020a039092168252519081900360200190f35b3480156103ba57600080fd5b506103086004356c010000000000000000000000006024358181049163ffffffff680100000000000000009283900481169260443583810493908290048316926064359182049290910416610edc565b34801561041657600080fd5b506102256004356c010000000000000000000000006024359081049068010000000000000000900463ffffffff166110fb565b60018054604080516020600284861615610100026000190190941693909304601f810184900484028201840190925281815292918301828280156104ce5780601f106104a3576101008083540402835291602001916104ce565b820191906000526020600020905b8154815290600101906020018083116104b157829003601f168201915b505050505081565b600254604080518082018252600e81526000805160206114428339815191526020808301918252925160e160020a63349f642f02815260048101938452825160248201528251600160a060020a039095169463693ec85e949283926044019180838360005b8381101561055357818101518382015260200161053b565b50505050905090810190601f1680156105805780820380516001836020036101000a031916815260200191505b5092505050602060405180830381600087803b15801561059f57600080fd5b505af11580156105b3573d6000803e3d6000fd5b505050506040513d60208110156105c957600080fd5b5051600160a060020a0316331461062a576040805160e560020a62461bcd02815260206004820152601460248201527f6f6e6c79206d616e6167657220616c6c6f776564000000000000000000000000604482015290519081900360640190fd5b8181878787876040518563ffffffff1660e060020a02815260040180858152602001806020018060200180602001848103845287818151815260200191508051906020019080838360005b8381101561068d578181015183820152602001610675565b50505050905090810190601f1680156106ba5780820380516001836020036101000a031916815260200191505b50848103835286518152865160209182019188019080838360005b838110156106ed5781810151838201526020016106d5565b50505050905090810190601f16801561071a5780820380516001836020036101000a031916815260200191505b50848103825285518152855160209182019187019080838360005b8381101561074d578181015183820152602001610735565b50505050905090810190601f16801561077a5780820380516001836020036101000a031916815260200191505b50975050505050505050600060405180830381600087803b15801561079e57600080fd5b505af11580156107b2573d6000803e3d6000fd5b50505050505050505050565b600254604080518082018252600e81526000805160206114428339815191526020808301918252925160e160020a63349f642f02815260048101938452825160248201528251600160a060020a039095169463693ec85e949283926044019180838360005b8381101561083b578181015183820152602001610823565b50505050905090810190601f1680156108685780820380516001836020036101000a031916815260200191505b5092505050602060405180830381600087803b15801561088757600080fd5b505af115801561089b573d6000803e3d6000fd5b505050506040513d60208110156108b157600080fd5b5051600160a060020a03163314610912576040805160e560020a62461bcd02815260206004820152601460248201527f6f6e6c79206d616e6167657220616c6c6f776564000000000000000000000000604482015290519081900360640190fd5b818185856040518363ffffffff1660e060020a0281526004018083815260200180602001828103825283818151815260200191508051906020019080838360005b8381101561096b578181015183820152602001610953565b50505050905090810190601f1680156109985780820380516001836020036101000a031916815260200191505b509350505050600060405180830381600087803b1580156109b857600080fd5b505af11580156109cc573d6000803e3d6000fd5b5050505050505050565b6003546000906109f590600160a060020a03163363ffffffff6112a816565b1515610a4b576040805160e560020a62461bcd02815260206004820152601760248201527f6f6e6c79207265676973746572656420616c6c6f776564000000000000000000604482015290519081900360640190fd5b600254604080518082018252600e81526000805160206114428339815191526020808301918252925160e160020a63349f642f02815260048101938452825160248201528251600160a060020a039095169463693ec85e949283926044019180838360005b83811015610ac8578181015183820152602001610ab0565b50505050905090810190601f168015610af55780820380516001836020036101000a031916815260200191505b5092505050602060405180830381600087803b158015610b1457600080fd5b505af1158015610b28573d6000803e3d6000fd5b505050506040513d6020811015610b3e57600080fd5b5051604080517ff08f8262000000000000000000000000000000000000000000000000000000008152336004820152602481018b90526001604482015268010000000000000000640100000000808c0263ffffffff808d169190911783026064850152818b02818b161783026084850152908802908716170260a48201529051600160a060020a039092169163f08f82629160c4808201926020929091908290030181600087803b158015610bf257600080fd5b505af1158015610c06573d6000803e3d6000fd5b505050506040513d6020811015610c1c57600080fd5b505198975050505050505050565b600054600160a060020a03163214610c8c576040805160e560020a62461bcd02815260206004820152601260248201527f6f6e6c79206f776e657220616c6c6f7765640000000000000000000000000000604482015290519081900360640190fd5b6000ff5b600354600090610caf90600160a060020a03163363ffffffff6112a816565b1515610d05576040805160e560020a62461bcd02815260206004820152601760248201527f6f6e6c79207265676973746572656420616c6c6f776564000000000000000000604482015290519081900360640190fd5b600254604080518082018252600e81526000805160206114428339815191526020808301918252925160e160020a63349f642f02815260048101938452825160248201528251600160a060020a039095169463693ec85e949283926044019180838360005b83811015610d82578181015183820152602001610d6a565b50505050905090810190601f168015610daf5780820380516001836020036101000a031916815260200191505b5092505050602060405180830381600087803b158015610dce57600080fd5b505af1158015610de2573d6000803e3d6000fd5b505050506040513d6020811015610df857600080fd5b5051604080517f45995d420000000000000000000000000000000000000000000000000000000081523360048201526024810189905268010000000000000000640100000000808a0263ffffffff808b169190911783026044850152908802908716170260648201529051600160a060020a03909216916345995d42916084808201926020929091908290030181600087803b158015610e9757600080fd5b505af1158015610eab573d6000803e3d6000fd5b505050506040513d6020811015610ec157600080fd5b50519695505050505050565b600054600160a060020a031681565b600354600090610efb90600160a060020a03163363ffffffff6112a816565b1515610f51576040805160e560020a62461bcd02815260206004820152601760248201527f6f6e6c79207265676973746572656420616c6c6f776564000000000000000000604482015290519081900360640190fd5b600254604080518082018252600e81526000805160206114428339815191526020808301918252925160e160020a63349f642f02815260048101938452825160248201528251600160a060020a039095169463693ec85e949283926044019180838360005b83811015610fce578181015183820152602001610fb6565b50505050905090810190601f168015610ffb5780820380516001836020036101000a031916815260200191505b5092505050602060405180830381600087803b15801561101a57600080fd5b505af115801561102e573d6000803e3d6000fd5b505050506040513d602081101561104457600080fd5b5051604080517ff08f8262000000000000000000000000000000000000000000000000000000008152336004820152602481018b905260006044820181905268010000000000000000640100000000808d0263ffffffff808e169190911783026064860152818c02818c161783026084860152908902908816170260a48301529151600160a060020a039093169263f08f82629260c480840193602093929083900390910190829087803b158015610bf257600080fd5b600254604080518082018252600e81526000805160206114428339815191526020808301918252925160e160020a63349f642f02815260048101938452825160248201528251600160a060020a039095169463693ec85e949283926044019180838360005b83811015611178578181015183820152602001611160565b50505050905090810190601f1680156111a55780820380516001836020036101000a031916815260200191505b5092505050602060405180830381600087803b1580156111c457600080fd5b505af11580156111d8573d6000803e3d6000fd5b505050506040513d60208110156111ee57600080fd5b5051600160a060020a0316331461124f576040805160e560020a62461bcd02815260206004820152601460248201527f6f6e6c79206d616e6167657220616c6c6f776564000000000000000000000000604482015290519081900360640190fd5b8181846040518263ffffffff1660e060020a02815260040180828152602001915050600060405180830381600087803b15801561128b57600080fd5b505af115801561129f573d6000803e3d6000fd5b50505050505050565b600082600160a060020a03166317e7dd226040805190810160405280601681526020017f6170706c69636174696f6e5f7265676973746572656400000000000000000000815250846040516020018083805190602001908083835b602083106113225780518252601f199092019160209182019101611303565b6001836020036101000a03801982511681845116808217855250505050505090500182600160a060020a0316600160a060020a03166c01000000000000000000000000028152601401925050506040516020818303038152906040526040518082805190602001908083835b602083106113ad5780518252601f19909201916020918201910161138e565b51815160209384036101000a60001901801990921691161790526040805192909401829003822063ffffffff881660e060020a0283526004830152925160248083019650939450929083900301905081600087803b15801561140e57600080fd5b505af1158015611422573d6000803e3d6000fd5b505050506040513d602081101561143857600080fd5b50519392505050560063616d6572612d6d616e61676572000000000000000000000000000000000000a165627a7a7230582072f41217f195ce09702c2df8d3e87650e1d5bd1305b439ef0e4ac5c24a5812ae0029",
  "source": "pragma solidity 0.4.24;\n\nimport \"../Platform.sol\";\nimport {ACameraController} from \"./Controllers.sol\";\nimport {ApplicationLib} from \"../libs/Libraries.sol\";\nimport {ACameraManager} from \"../managers/Managers.sol\";\n\ncontract CameraController is ACameraController, Named(\"camera-controller\"), Mortal, Component {\n\n    using ApplicationLib for address;\n\n    string constant MANAGER = \"camera-manager\";\n\n    modifier isRegistered {\n        require(database.isRegistered(msg.sender), \"only registered allowed\");\n        _;\n    }\n\n    modifier onlyManager {\n        require(msg.sender == context.get(MANAGER), \"only manager allowed\");\n        _;\n    }\n\n    constructor(address _config) Component(_config) public {}\n\n    function scanQRCodeWithLights(\n        uint256 _sessionId,\n        function(uint256, string memory, string memory, string memory) external _success,\n        function(uint256, string memory) external _scanned,\n        function(uint256) external _fail\n    )   // @formatter:off\n        public\n        isRegistered\n        returns (bool _accepted)\n        // @formatter:on\n    {\n        return ACameraManager(context.get(MANAGER)).scanQRCode(msg.sender, _sessionId, true, _success, _scanned, _fail);\n    }\n\n    function scanQRCode(\n        uint256 _sessionId,\n        function(uint256, string memory, string memory, string memory) external _success,\n        function(uint256, string memory) external _scanned,\n        function(uint256) external _fail\n    )   // @formatter:off\n        public\n        isRegistered\n        returns (bool _accepted)\n        // @formatter:on\n    {\n        return ACameraManager(context.get(MANAGER)).scanQRCode(msg.sender, _sessionId, false, _success, _scanned, _fail);\n    }\n\n    function respondFailStart(uint256 _sessionId, function(uint256) external _callback) public onlyManager {\n        _callback(_sessionId);\n    }\n\n    function respondStart(\n        uint256 _sessionId,\n        string memory _port,\n        string memory _url,\n        string memory _href,\n        function(uint, string memory, string memory, string memory) external _callback\n    )   // @formatter:off\n        public\n        onlyManager\n        // @formatter:on\n    {\n        _callback(_sessionId, _port, _url, _href);\n    }\n\n    function respondScanned(\n        uint256 _sessionId,\n        string memory _qr,\n        function(uint256, string memory) external _callback\n    )\n        public\n        onlyManager\n    {\n        _callback(_sessionId, _qr);\n    }\n\n    function stopQRScanning(\n        uint256 _sessionId,\n        function(uint256) external _success,\n        function(uint256) external _fail\n    )   // @formatter:off\n        public\n        isRegistered\n        returns (bool _accepted)\n        // @formatter:on\n    {\n        return ACameraManager(context.get(MANAGER)).stopQRScanning(msg.sender, _sessionId, _success, _fail);\n    }\n\n    function respondStop(uint256 _sessionId, function(uint256) external _callback) public onlyManager {\n        _callback(_sessionId);\n    }\n\n    function respondFailStop(uint256 _sessionId, function(uint256) external _callback) public onlyManager {\n        _callback(_sessionId);\n    }\n\n}",
  "sourcePath": "/home/andrew/vault-logic-project/Development/test/vault-logic-api/truffle/contracts/controllers/CameraController.sol",
  "compiler": {
    "name": "solc",
    "version": "0.4.24+commit.e67f0147.Emscripten.clang"
  },
  "schemaVersion": "2.0.1",
  "updatedAt": "2018-10-23T12:03:08.704Z"
}