{
  "contractName": "CameraOracle",
  "abi": [
    {
      "constant": true,
      "inputs": [],
      "name": "name",
      "outputs": [
        {
          "name": "",
          "type": "string"
        }
      ],
      "payable": false,
      "stateMutability": "view",
      "type": "function"
    },
    {
      "constant": false,
      "inputs": [],
      "name": "kill",
      "outputs": [],
      "payable": false,
      "stateMutability": "nonpayable",
      "type": "function"
    },
    {
      "constant": true,
      "inputs": [],
      "name": "owner",
      "outputs": [
        {
          "name": "",
          "type": "address"
        }
      ],
      "payable": false,
      "stateMutability": "view",
      "type": "function"
    },
    {
      "inputs": [
        {
          "name": "_config",
          "type": "address"
        }
      ],
      "payable": false,
      "stateMutability": "nonpayable",
      "type": "constructor"
    },
    {
      "anonymous": false,
      "inputs": [
        {
          "indexed": false,
          "name": "_commandId",
          "type": "uint256"
        },
        {
          "indexed": false,
          "name": "_sessionId",
          "type": "uint256"
        },
        {
          "indexed": false,
          "name": "_lights",
          "type": "bool"
        }
      ],
      "name": "StartScanQR",
      "type": "event"
    },
    {
      "anonymous": false,
      "inputs": [
        {
          "indexed": false,
          "name": "_commandId",
          "type": "uint256"
        },
        {
          "indexed": false,
          "name": "_sessionId",
          "type": "uint256"
        }
      ],
      "name": "StopScanQR",
      "type": "event"
    },
    {
      "constant": false,
      "inputs": [
        {
          "name": "_commandId",
          "type": "uint256"
        }
      ],
      "name": "onNextStartQRScan",
      "outputs": [
        {
          "name": "_accepted",
          "type": "bool"
        }
      ],
      "payable": false,
      "stateMutability": "nonpayable",
      "type": "function"
    },
    {
      "constant": false,
      "inputs": [
        {
          "name": "_commandId",
          "type": "uint256"
        },
        {
          "name": "_port",
          "type": "string"
        },
        {
          "name": "_url",
          "type": "string"
        },
        {
          "name": "_href",
          "type": "string"
        }
      ],
      "name": "successStart",
      "outputs": [],
      "payable": false,
      "stateMutability": "nonpayable",
      "type": "function"
    },
    {
      "constant": false,
      "inputs": [
        {
          "name": "_commandId",
          "type": "uint256"
        }
      ],
      "name": "failStart",
      "outputs": [],
      "payable": false,
      "stateMutability": "nonpayable",
      "type": "function"
    },
    {
      "constant": false,
      "inputs": [
        {
          "name": "_sessionId",
          "type": "uint256"
        },
        {
          "name": "_qr",
          "type": "string"
        }
      ],
      "name": "scanned",
      "outputs": [],
      "payable": false,
      "stateMutability": "nonpayable",
      "type": "function"
    },
    {
      "constant": false,
      "inputs": [
        {
          "name": "_commandId",
          "type": "uint256"
        }
      ],
      "name": "onNextStopQRScan",
      "outputs": [
        {
          "name": "_accepted",
          "type": "bool"
        }
      ],
      "payable": false,
      "stateMutability": "nonpayable",
      "type": "function"
    },
    {
      "constant": false,
      "inputs": [
        {
          "name": "_commandId",
          "type": "uint256"
        }
      ],
      "name": "successStop",
      "outputs": [],
      "payable": false,
      "stateMutability": "nonpayable",
      "type": "function"
    },
    {
      "constant": false,
      "inputs": [
        {
          "name": "_commandId",
          "type": "uint256"
        }
      ],
      "name": "failStop",
      "outputs": [],
      "payable": false,
      "stateMutability": "nonpayable",
      "type": "function"
    }
  ],
  "bytecode": "0x60806040523480156200001157600080fd5b506040516020806200193c8339810160408181529151828201909252600d8082527f63616d6572612d6f7261636c65000000000000000000000000000000000000006020830190815260008054600160a060020a031916331781558493909290916200008191600191906200044e565b505081600160a060020a031663713b563f6040518163ffffffff167c0100000000000000000000000000000000000000000000000000000000028152600401602060405180830381600087803b158015620000db57600080fd5b505af1158015620000f0573d6000803e3d6000fd5b505050506040513d60208110156200010757600080fd5b505160038054600160a060020a031916600160a060020a03928316179055604080517fd0496d6a00000000000000000000000000000000000000000000000000000000815290519184169163d0496d6a916004808201926020929091908290030181600087803b1580156200017b57600080fd5b505af115801562000190573d6000803e3d6000fd5b505050506040513d6020811015620001a757600080fd5b505160028054600160a060020a031916600160a060020a03928316178082556040517f693ec85e00000000000000000000000000000000000000000000000000000000815260206004820190815260018054610100818316150260001901169490940460248301819052929094169363693ec85e939290918291604490910190849080156200027a5780601f106200024e576101008083540402835291602001916200027a565b820191906000526020600020905b8154815290600101906020018083116200025c57829003601f168201915b505092505050602060405180830381600087803b1580156200029b57600080fd5b505af1158015620002b0573d6000803e3d6000fd5b505050506040513d6020811015620002c757600080fd5b50519050600160a060020a038116156200034d5780600160a060020a03166341c0e1b56040518163ffffffff167c0100000000000000000000000000000000000000000000000000000000028152600401600060405180830381600087803b1580156200033357600080fd5b505af115801562000348573d6000803e3d6000fd5b505050505b600280546040517ff2c298be00000000000000000000000000000000000000000000000000000000815260206004820190815260018054600019818316156101000201169490940460248301819052600160a060020a039093169363f2c298be9390928291604490910190849080156200040b5780601f10620003df576101008083540402835291602001916200040b565b820191906000526020600020905b815481529060010190602001808311620003ed57829003601f168201915b505092505050600060405180830381600087803b1580156200042c57600080fd5b505af115801562000441573d6000803e3d6000fd5b50505050505050620004f3565b828054600181600116156101000203166002900490600052602060002090601f016020900481019282601f106200049157805160ff1916838001178555620004c1565b82800160010185558215620004c1579182015b82811115620004c1578251825591602001919060010190620004a4565b50620004cf929150620004d3565b5090565b620004f091905b80821115620004cf5760008155600101620004da565b90565b61143980620005036000396000f30060806040526004361061008a5763ffffffff60e060020a60003504166306fdde03811461008f5780630f9cac12146101195780631986721a146101f557806341c0e1b51461020d57806369bb807b146102225780638da5cb5b1461024e578063b9641d831461027f578063b9bd330d14610297578063edbf5060146102f5578063f2d9a2b11461030d575b600080fd5b34801561009b57600080fd5b506100a4610325565b6040805160208082528351818301528351919283929083019185019080838360005b838110156100de5781810151838201526020016100c6565b50505050905090810190601f16801561010b5780820380516001836020036101000a031916815260200191505b509250505060405180910390f35b34801561012557600080fd5b5060408051602060046024803582810135601f81018590048502860185019096528585526101f395833595369560449491939091019190819084018382808284375050604080516020601f89358b018035918201839004830284018301909452808352979a99988101979196509182019450925082915084018382808284375050604080516020601f89358b018035918201839004830284018301909452808352979a9998810197919650918201945092508291508401838280828437509497506103b29650505050505050565b005b34801561020157600080fd5b506101f3600435610660565b34801561021957600080fd5b506101f36107d3565b34801561022e57600080fd5b5061023a600435610850565b604080519115158252519081900360200190f35b34801561025a57600080fd5b506102636108b8565b60408051600160a060020a039092168252519081900360200190f35b34801561028b57600080fd5b506101f36004356108c7565b3480156102a357600080fd5b5060408051602060046024803582810135601f81018590048502860185019096528585526101f3958335953695604494919390910191908190840183828082843750949750610a1f9650505050505050565b34801561030157600080fd5b506101f3600435610bfb565b34801561031957600080fd5b5061023a600435610d53565b60018054604080516020600284861615610100026000190190941693909304601f810184900484028201840190925281815292918301828280156103aa5780601f1061037f576101008083540402835291602001916103aa565b820191906000526020600020905b81548152906001019060200180831161038d57829003601f168201915b505050505081565b600254604080518082018252600e81526000805160206113ee8339815191526020808301918252925160e160020a63349f642f02815260048101938452825160248201528251600160a060020a039095169463693ec85e949283926044019180838360005b8381101561042f578181015183820152602001610417565b50505050905090810190601f16801561045c5780820380516001836020036101000a031916815260200191505b5092505050602060405180830381600087803b15801561047b57600080fd5b505af115801561048f573d6000803e3d6000fd5b505050506040513d60208110156104a557600080fd5b50516040517fd511529f00000000000000000000000000000000000000000000000000000000815260048101868152608060248301908152865160848401528651600160a060020a039094169363d511529f9389938993899389936044810191606482019160a40190602089019080838360005b83811015610531578181015183820152602001610519565b50505050905090810190601f16801561055e5780820380516001836020036101000a031916815260200191505b50848103835286518152865160209182019188019080838360005b83811015610591578181015183820152602001610579565b50505050905090810190601f1680156105be5780820380516001836020036101000a031916815260200191505b50848103825285518152855160209182019187019080838360005b838110156105f15781810151838201526020016105d9565b50505050905090810190601f16801561061e5780820380516001836020036101000a031916815260200191505b50975050505050505050600060405180830381600087803b15801561064257600080fd5b505af1158015610656573d6000803e3d6000fd5b5050505050505050565b600254604080518082018252600e81526000805160206113ee8339815191526020808301918252925160e160020a63349f642f02815260048101938452825160248201528251600160a060020a039095169463693ec85e949283926044019180838360005b838110156106dd5781810151838201526020016106c5565b50505050905090810190601f16801561070a5780820380516001836020036101000a031916815260200191505b5092505050602060405180830381600087803b15801561072957600080fd5b505af115801561073d573d6000803e3d6000fd5b505050506040513d602081101561075357600080fd5b5051604080517f0c965f0b000000000000000000000000000000000000000000000000000000008152600481018490529051600160a060020a0390921691630c965f0b9160248082019260009290919082900301818387803b1580156107b857600080fd5b505af11580156107cc573d6000803e3d6000fd5b5050505050565b600054600160a060020a0316321461084c57604080517f08c379a000000000000000000000000000000000000000000000000000000000815260206004820152601260248201527f6f6e6c79206f776e657220616c6c6f7765640000000000000000000000000000604482015290519081900360640190fd5b6000ff5b600354600090819061087190600160a060020a03168463ffffffff610dc816565b604080518581526020810183905281519293507f16de1666eb16a2670c9d390205bb86bc674940dc7eb116416cdbcdeaeedf6bd6929081900390910190a150600192915050565b600054600160a060020a031681565b600254604080518082018252600e81526000805160206113ee8339815191526020808301918252925160e160020a63349f642f02815260048101938452825160248201528251600160a060020a039095169463693ec85e949283926044019180838360005b8381101561094457818101518382015260200161092c565b50505050905090810190601f1680156109715780820380516001836020036101000a031916815260200191505b5092505050602060405180830381600087803b15801561099057600080fd5b505af11580156109a4573d6000803e3d6000fd5b505050506040513d60208110156109ba57600080fd5b5051604080517f6d0fd4e2000000000000000000000000000000000000000000000000000000008152600481018490529051600160a060020a0390921691636d0fd4e29160248082019260009290919082900301818387803b1580156107b857600080fd5b600254604080518082018252600e81526000805160206113ee8339815191526020808301918252925160e160020a63349f642f02815260048101938452825160248201528251600160a060020a039095169463693ec85e949283926044019180838360005b83811015610a9c578181015183820152602001610a84565b50505050905090810190601f168015610ac95780820380516001836020036101000a031916815260200191505b5092505050602060405180830381600087803b158015610ae857600080fd5b505af1158015610afc573d6000803e3d6000fd5b505050506040513d6020811015610b1257600080fd5b5051604080517f4be833ff0000000000000000000000000000000000000000000000000000000081526004810185815260248201928352845160448301528451600160a060020a0390941693634be833ff938793879392606490910190602085019080838360005b83811015610b92578181015183820152602001610b7a565b50505050905090810190601f168015610bbf5780820380516001836020036101000a031916815260200191505b509350505050600060405180830381600087803b158015610bdf57600080fd5b505af1158015610bf3573d6000803e3d6000fd5b505050505050565b600254604080518082018252600e81526000805160206113ee8339815191526020808301918252925160e160020a63349f642f02815260048101938452825160248201528251600160a060020a039095169463693ec85e949283926044019180838360005b83811015610c78578181015183820152602001610c60565b50505050905090810190601f168015610ca55780820380516001836020036101000a031916815260200191505b5092505050602060405180830381600087803b158015610cc457600080fd5b505af1158015610cd8573d6000803e3d6000fd5b505050506040513d6020811015610cee57600080fd5b5051604080517f26811a0e000000000000000000000000000000000000000000000000000000008152600481018490529051600160a060020a03909216916326811a0e9160248082019260009290919082900301818387803b1580156107b857600080fd5b60035460009081908190610d7690600160a060020a03168563ffffffff610fad16565b60408051878152602081018490528215158183015290519294509092507f91b0050209d6ad8c284e25db5226a5a47b480d0d53da14b53e1c84439d5a44a2919081900360600190a15060019392505050565b6000610dd483836112fb565b1515610e4157604080517f08c379a000000000000000000000000000000000000000000000000000000000815260206004820152601a60248201527f53746f70205152207363616e206973206e6f7420657869737473000000000000604482015290519081900360640190fd5b82600160a060020a031663e82617fb6040805190810160405280601781526020017f73746f702d71722d7363616e2e73657373696f6e2e6964000000000000000000815250846040516020018083805190602001908083835b60208310610eb95780518252601f199092019160209182019101610e9a565b51815160209384036101000a600019018019909216911617905292019384525060408051808503815293820190819052835193945092839250908401908083835b60208310610f195780518252601f199092019160209182019101610efa565b51815160209384036101000a60001901801990921691161790526040805192909401829003822063ffffffff881660e060020a0283526004830152925160248083019650939450929083900301905081600087803b158015610f7a57600080fd5b505af1158015610f8e573d6000803e3d6000fd5b505050506040513d6020811015610fa457600080fd5b50519392505050565b600080610fba8484611374565b151561102757604080517f08c379a000000000000000000000000000000000000000000000000000000000815260206004820152601b60248201527f5374617274205152207363616e206973206e6f74206578697374730000000000604482015290519081900360640190fd5b83600160a060020a031663e82617fb6040805190810160405280601281526020017f7363616e2d71722e73657373696f6e2e69640000000000000000000000000000815250856040516020018083805190602001908083835b6020831061109f5780518252601f199092019160209182019101611080565b51815160209384036101000a600019018019909216911617905292019384525060408051808503815293820190819052835193945092839250908401908083835b602083106110ff5780518252601f1990920191602091820191016110e0565b51815160209384036101000a60001901801990921691161790526040805192909401829003822063ffffffff881660e060020a0283526004830152925160248083019650939450929083900301905081600087803b15801561116057600080fd5b505af1158015611174573d6000803e3d6000fd5b505050506040513d602081101561118a57600080fd5b5051604080518082018252600e8082527f7363616e2d71722e6c696768747300000000000000000000000000000000000060208381019182529351949650600160a060020a038916946317e7dd2294899391019182918083835b602083106112035780518252601f1990920191602091820191016111e4565b51815160209384036101000a600019018019909216911617905292019384525060408051808503815293820190819052835193945092839250908401908083835b602083106112635780518252601f199092019160209182019101611244565b51815160209384036101000a60001901801990921691161790526040805192909401829003822063ffffffff881660e060020a0283526004830152925160248083019650939450929083900301905081600087803b1580156112c457600080fd5b505af11580156112d8573d6000803e3d6000fd5b505050506040513d60208110156112ee57600080fd5b5051919491935090915050565b600082600160a060020a03166317e7dd226040805190810160405280601381526020017f73746f702d71722d7363616e2e657869737473000000000000000000000000008152508460405160200180838051906020019080838360208310610eb95780518252601f199092019160209182019101610e9a565b600082600160a060020a03166317e7dd226040805190810160405280600e81526020017f7363616e2d71722e6578697374730000000000000000000000000000000000008152508460405160200180838051906020019080838360208310610eb95780518252601f199092019160209182019101610e9a560063616d6572612d6d616e61676572000000000000000000000000000000000000a165627a7a7230582084bbed406ee3f441120bc112c1124d570520777bc13bc3a82f93f2fbbd71e9760029",
  "source": "pragma solidity 0.4.24;\n\nimport {ACameraOracle} from \"./Oracles.sol\";\nimport {CameraLib} from \"../libs/Libraries.sol\";\nimport {ACameraManager} from \"../managers/Managers.sol\";\nimport \"../Platform.sol\";\n\ncontract CameraOracle is ACameraOracle, Mortal, Named(\"camera-oracle\"), Component {\n\n    using CameraLib for address;\n\n    string constant MANAGER = \"camera-manager\";\n\n    constructor(address _config) Component(_config) public {}\n\n    function onNextStartQRScan(uint256 _commandId) public returns (bool _accepted) {\n        (uint256 sessionId, bool lights) = database.retrieveStartQRScanSessionIdLights(_commandId);\n        emit StartScanQR(_commandId, sessionId, lights);\n        _accepted = true;\n    }\n\n    function successStart(uint256 _commandId, string memory _port, string memory _url, string memory _href) public {\n        ACameraManager(context.get(MANAGER)).confirmStart(_commandId, _port, _url, _href);\n    }\n\n    function failStart(uint256 _commandId) public {\n        ACameraManager(context.get(MANAGER)).confirmFailStart(_commandId);\n    }\n\n    function scanned(uint256 _sessionId, string memory _qr) public {\n        ACameraManager(context.get(MANAGER)).confirmScanned(_sessionId, _qr);\n    }\n\n    function onNextStopQRScan(uint256 _commandId) public returns (bool _accepted) {\n        uint256 sessionId = database.retrieveStopQRScanSessionId(_commandId);\n        emit StopScanQR(_commandId, sessionId);\n        _accepted = true;\n    }\n\n    function successStop(uint256 _commandId) public {\n        ACameraManager(context.get(MANAGER)).confirmStop(_commandId);\n    }\n\n    function failStop(uint256 _commandId) public {\n        ACameraManager(context.get(MANAGER)).confirmFailStop(_commandId);\n    }\n\n}\n",
  "sourcePath": "/home/andrew/vault-logic-project/Development/test/vault-logic-api/truffle/contracts/oracles/CameraOracle.sol",
  "compiler": {
    "name": "solc",
    "version": "0.4.24+commit.e67f0147.Emscripten.clang"
  },
  "schemaVersion": "2.0.1",
  "updatedAt": "2018-10-24T08:37:43.228Z"
}