{
  "contractName": "CapitalHero",
  "abi": [
    {
      "inputs": [
        {
          "name": "_context",
          "type": "address"
        }
      ],
      "payable": false,
      "stateMutability": "nonpayable",
      "type": "constructor"
    },
    {
      "anonymous": false,
      "inputs": [],
      "name": "OpenCashOutAccepted",
      "type": "event"
    },
    {
      "anonymous": false,
      "inputs": [
        {
          "indexed": false,
          "name": "_kioskId",
          "type": "string"
        },
        {
          "indexed": false,
          "name": "_cashOutId",
          "type": "uint256"
        }
      ],
      "name": "OpenCashOutSuccess",
      "type": "event"
    },
    {
      "anonymous": false,
      "inputs": [
        {
          "indexed": false,
          "name": "_kioskId",
          "type": "string"
        }
      ],
      "name": "OpenCashOutFailed",
      "type": "event"
    },
    {
      "anonymous": false,
      "inputs": [],
      "name": "ValidateCashOutAccepted",
      "type": "event"
    },
    {
      "anonymous": false,
      "inputs": [
        {
          "indexed": false,
          "name": "_sessionId",
          "type": "uint256"
        },
        {
          "indexed": false,
          "name": "_cashOutId",
          "type": "uint256"
        }
      ],
      "name": "ValidateCashOutSuccess",
      "type": "event"
    },
    {
      "anonymous": false,
      "inputs": [
        {
          "indexed": false,
          "name": "_sessionId",
          "type": "uint256"
        },
        {
          "indexed": false,
          "name": "_cashOutId",
          "type": "uint256"
        }
      ],
      "name": "ValidateCashOutFailed",
      "type": "event"
    },
    {
      "anonymous": false,
      "inputs": [],
      "name": "CloseCashOutAccepted",
      "type": "event"
    },
    {
      "anonymous": false,
      "inputs": [
        {
          "indexed": false,
          "name": "_sessionId",
          "type": "uint256"
        },
        {
          "indexed": false,
          "name": "_cashOutId",
          "type": "uint256"
        }
      ],
      "name": "CloseCashOutSuccess",
      "type": "event"
    },
    {
      "anonymous": false,
      "inputs": [
        {
          "indexed": false,
          "name": "_sessionId",
          "type": "uint256"
        },
        {
          "indexed": false,
          "name": "_cashOutId",
          "type": "uint256"
        }
      ],
      "name": "CloseCashOutFailed",
      "type": "event"
    },
    {
      "anonymous": false,
      "inputs": [],
      "name": "RollbackCashOutAccepted",
      "type": "event"
    },
    {
      "anonymous": false,
      "inputs": [
        {
          "indexed": false,
          "name": "_cashOutId",
          "type": "uint256"
        }
      ],
      "name": "RollbackCashOutSuccess",
      "type": "event"
    },
    {
      "anonymous": false,
      "inputs": [
        {
          "indexed": false,
          "name": "_cashOutId",
          "type": "uint256"
        }
      ],
      "name": "RollbackCashOutFailed",
      "type": "event"
    },
    {
      "constant": false,
      "inputs": [
        {
          "name": "_kioskId",
          "type": "string"
        },
        {
          "name": "_toWithdraw",
          "type": "uint256"
        },
        {
          "name": "_fees",
          "type": "uint256[]"
        },
        {
          "name": "_parties",
          "type": "address[]"
        }
      ],
      "name": "openCashOut",
      "outputs": [],
      "payable": false,
      "stateMutability": "nonpayable",
      "type": "function"
    },
    {
      "constant": false,
      "inputs": [
        {
          "name": "_kioskId",
          "type": "string"
        },
        {
          "name": "_cashOutId",
          "type": "uint256"
        }
      ],
      "name": "__successOpenCashOut",
      "outputs": [],
      "payable": false,
      "stateMutability": "nonpayable",
      "type": "function"
    },
    {
      "constant": false,
      "inputs": [
        {
          "name": "_kioskId",
          "type": "string"
        }
      ],
      "name": "__failOpenCashOut",
      "outputs": [],
      "payable": false,
      "stateMutability": "nonpayable",
      "type": "function"
    },
    {
      "constant": false,
      "inputs": [
        {
          "name": "_sessionId",
          "type": "uint256"
        },
        {
          "name": "_cashOutId",
          "type": "uint256"
        }
      ],
      "name": "validateCashOut",
      "outputs": [],
      "payable": false,
      "stateMutability": "nonpayable",
      "type": "function"
    },
    {
      "constant": false,
      "inputs": [
        {
          "name": "_sessionId",
          "type": "uint256"
        },
        {
          "name": "_cashOutId",
          "type": "uint256"
        }
      ],
      "name": "__successValidateCashOut",
      "outputs": [],
      "payable": false,
      "stateMutability": "nonpayable",
      "type": "function"
    },
    {
      "constant": false,
      "inputs": [
        {
          "name": "_sessionId",
          "type": "uint256"
        },
        {
          "name": "_cashOutId",
          "type": "uint256"
        }
      ],
      "name": "__failValidateCashOut",
      "outputs": [],
      "payable": false,
      "stateMutability": "nonpayable",
      "type": "function"
    },
    {
      "constant": false,
      "inputs": [
        {
          "name": "_sessionId",
          "type": "uint256"
        },
        {
          "name": "_cashOutId",
          "type": "uint256"
        }
      ],
      "name": "closeCashOut",
      "outputs": [],
      "payable": false,
      "stateMutability": "nonpayable",
      "type": "function"
    },
    {
      "constant": false,
      "inputs": [
        {
          "name": "_sessionId",
          "type": "uint256"
        },
        {
          "name": "_cashOutId",
          "type": "uint256"
        }
      ],
      "name": "__successCloseCashOut",
      "outputs": [],
      "payable": false,
      "stateMutability": "nonpayable",
      "type": "function"
    },
    {
      "constant": false,
      "inputs": [
        {
          "name": "_sessionId",
          "type": "uint256"
        },
        {
          "name": "_cashOutId",
          "type": "uint256"
        }
      ],
      "name": "__failCloseCashOut",
      "outputs": [],
      "payable": false,
      "stateMutability": "nonpayable",
      "type": "function"
    },
    {
      "constant": false,
      "inputs": [
        {
          "name": "_cashOutId",
          "type": "uint256"
        }
      ],
      "name": "rollbackCashOut",
      "outputs": [],
      "payable": false,
      "stateMutability": "nonpayable",
      "type": "function"
    },
    {
      "constant": false,
      "inputs": [
        {
          "name": "_cashOutId",
          "type": "uint256"
        }
      ],
      "name": "__successRollbackCashOut",
      "outputs": [],
      "payable": false,
      "stateMutability": "nonpayable",
      "type": "function"
    },
    {
      "constant": false,
      "inputs": [
        {
          "name": "_cashOutId",
          "type": "uint256"
        }
      ],
      "name": "__failRollbackCashOut",
      "outputs": [],
      "payable": false,
      "stateMutability": "nonpayable",
      "type": "function"
    }
  ],
  "bytecode": "0x608060405234801561001057600080fd5b50604051602080610e7a833981016040525160008054600160a060020a03909216600160a060020a0319909216919091179055610e28806100526000396000f3006080604052600436106100b95763ffffffff7c010000000000000000000000000000000000000000000000000000000060003504166312bb5b4d81146100be5780632816170214610192578063448c7512146101ad578063497343c1146102085780636b26412c146102205780636c1a42d11461023b578063968a329f14610256578063a7fed0a71461026e578063b91df46014610289578063c25f1cef146102a1578063ee3f5b51146102bc578063efe6c3e9146102d7575b600080fd5b3480156100ca57600080fd5b506040805160206004803580820135601f810184900484028501840190955284845261019094369492936024939284019190819084018382808284375050604080516020808901358a01803580830284810184018652818552999c8b359c909b909a950198509296508101945090925082919085019084908082843750506040805187358901803560208181028481018201909552818452989b9a9989019892975090820195509350839250850190849080828437509497506103309650505050505050565b005b34801561019e57600080fd5b50610190600435602435610608565b3480156101b957600080fd5b506040805160206004803580820135601f810184900484028501840190955284845261019094369492936024939284019190819084018382808284375094975050933594506106479350505050565b34801561021457600080fd5b506101906004356106ec565b34801561022c57600080fd5b50610190600435602435610892565b34801561024757600080fd5b506101906004356024356108d1565b34801561026257600080fd5b50610190600435610aa8565b34801561027a57600080fd5b50610190600435602435610ade565b34801561029557600080fd5b50610190600435610c8c565b3480156102ad57600080fd5b50610190600435602435610cc2565b3480156102c857600080fd5b50610190600435602435610d01565b3480156102e357600080fd5b506040805160206004803580820135601f8101849004840285018401909552848452610190943694929360249392840191908190840183828082843750949750610d409650505050505050565b6000805460408051808201825260138152600080516020610ddd8339815191526020808301918252925160e160020a63349f642f02815260048101938452825160248201528251600160a060020a039095169563693ec85e959394938493604490930192918190849084905b838110156103b457818101518382015260200161039c565b50505050905090810190601f1680156103e15780820380516001836020036101000a031916815260200191505b5092505050602060405180830381600087803b15801561040057600080fd5b505af1158015610414573d6000803e3d6000fd5b505050506040513d602081101561042a57600080fd5b50516040517fb8adcca70000000000000000000000000000000000000000000000000000000081526024810185905263efe6c3e930640100000000810282811768010000000000000000908102608486015263448c75129182170260a485015260c060048501908152895160c48601528951600160a060020a039096169563b8adcca7958b958b958b958b9591949293859391929182916044810191606482019160e4019060208e019080838360005b838110156104f25781810151838201526020016104da565b50505050905090810190601f16801561051f5780820380516001836020036101000a031916815260200191505b5084810383528a5181528a51602091820191808d01910280838360005b8381101561055457818101518382015260200161053c565b50505050905001848103825289818151815260200191508051906020019060200280838360005b8381101561059357818101518382015260200161057b565b505050509050019b505050505050505050505050600060405180830381600087803b1580156105c157600080fd5b505af11580156105d5573d6000803e3d6000fd5b50506040517f24a400b68736c8b428a71a5fd0ee4286f47636c4b7aed7e795f9ac0901c9ce17925060009150a150505050565b604080518381526020810183905281517f40ad38faf799d92da3321afd5a9d1083af4d20f1629b6e62340fcb0957188006929181900390910190a15050565b7ff37fd75227efcc04955fba39f4940ceddc5fc29ddaf48002de1bb37c88f7899b82826040518080602001838152602001828103825284818151815260200191508051906020019080838360005b838110156106ad578181015183820152602001610695565b50505050905090810190601f1680156106da5780820380516001836020036101000a031916815260200191505b50935050505060405180910390a15050565b6000805460408051808201825260138152600080516020610ddd8339815191526020808301918252925160e160020a63349f642f02815260048101938452825160248201528251600160a060020a039095169563693ec85e959394938493604490930192918190849084905b83811015610770578181015183820152602001610758565b50505050905090810190601f16801561079d5780820380516001836020036101000a031916815260200191505b5092505050602060405180830381600087803b1580156107bc57600080fd5b505af11580156107d0573d6000803e3d6000fd5b505050506040513d60208110156107e657600080fd5b5051604080517f819432740000000000000000000000000000000000000000000000000000000081526004810184905268010000000000000000640100000000300263b91df46081178202602484015263968a329f170260448201529051600160a060020a039092169163819432749160648082019260009290919082900301818387803b15801561087757600080fd5b505af115801561088b573d6000803e3d6000fd5b5050505050565b604080518381526020810183905281517f76521613b06b893d0b9a0b3429e7be48c9b6e7d90e7b8e76256a827eb6e2966a929181900390910190a15050565b6000805460408051808201825260138152600080516020610ddd8339815191526020808301918252925160e160020a63349f642f02815260048101938452825160248201528251600160a060020a039095169563693ec85e959394938493604490930192918190849084905b8381101561095557818101518382015260200161093d565b50505050905090810190601f1680156109825780820380516001836020036101000a031916815260200191505b5092505050602060405180830381600087803b1580156109a157600080fd5b505af11580156109b5573d6000803e3d6000fd5b505050506040513d60208110156109cb57600080fd5b5051604080517f5caae8ff0000000000000000000000000000000000000000000000000000000081526004810185905260248101849052680100000000000000006401000000003002636b26412c8117820260448401526328161702170260648201529051600160a060020a0390921691635caae8ff9160848082019260009290919082900301818387803b158015610a6357600080fd5b505af1158015610a77573d6000803e3d6000fd5b50506040517f2483a4452e0fa8b936893537883f8468c693710c88d794b2ec80fe230f77419e925060009150a15050565b6040805182815290517ff289636d9120474a5a40eaba226e0f9b59c21c684329879c9712a3510e34e0419181900360200190a150565b6000805460408051808201825260138152600080516020610ddd8339815191526020808301918252925160e160020a63349f642f02815260048101938452825160248201528251600160a060020a039095169563693ec85e959394938493604490930192918190849084905b83811015610b62578181015183820152602001610b4a565b50505050905090810190601f168015610b8f5780820380516001836020036101000a031916815260200191505b5092505050602060405180830381600087803b158015610bae57600080fd5b505af1158015610bc2573d6000803e3d6000fd5b505050506040513d6020811015610bd857600080fd5b5051604080517f17eea922000000000000000000000000000000000000000000000000000000008152600481018590526024810184905268010000000000000000640100000000300263c25f1cef81178202604484015263ee3f5b51170260648201529051600160a060020a03909216916317eea9229160848082019260009290919082900301818387803b158015610c7057600080fd5b505af1158015610c84573d6000803e3d6000fd5b505050505050565b6040805182815290517f385f6d093252552f44f20819c2c4370ed7f944bd81a74925f1729f5508abd88c9181900360200190a150565b604080518381526020810183905281517f2d715a98b70bbdc731f6bcca7bcb8596a34fc232688bafe63446d5eb912c9398929181900390910190a15050565b604080518381526020810183905281517f13c295bdcd4e7d1039f96ec3ac272ef5f0f046858bccdbdca919a0e519630a5f929181900390910190a15050565b7f19b1abf20bce21109a74a6dc801525a68d1a755d3f2694a0fab59587b937c7d4816040518080602001828103825283818151815260200191508051906020019080838360005b83811015610d9f578181015183820152602001610d87565b50505050905090810190601f168015610dcc5780820380516001836020036101000a031916815260200191505b509250505060405180910390a1505600636173682d6f75742d636f6e74726f6c6c657200000000000000000000000000a165627a7a7230582002374e1fe42eb7fd42d7e662da0e452aff11e30e8a4fd7c4d185eabfff25b1e20029",
  "source": "pragma solidity 0.4.24;\n\nimport \"../platform/Context.sol\";\nimport \"../controllers/api/public/CashOutApi.sol\";\n\ncontract CapitalHero {\n\n    string constant CONTROLLER = \"cash-in-controller\";\n\n    Context private context;\n\n    constructor(address _context) public {\n        context = Context(_context);\n    }\n\n    /*\n        Example of CashOutApi workflow\n    */\n\n    string constant CASH_OUT_API = \"cash-out-controller\";\n\n    // Open cash out components:\n\n    event OpenCashOutAccepted();\n    event OpenCashOutSuccess(string _kioskId, uint256 _cashOutId);\n    event OpenCashOutFailed(string _kioskId);\n\n    function openCashOut(\n        string _kioskId,\n        uint256 _toWithdraw,\n        uint256[] _fees,\n        address[] _parties\n    )\n    public\n    {\n        CashOutApi(context.get(CASH_OUT_API)).openCashOutChannel(\n            _kioskId, _toWithdraw, _fees, _parties, this.__failOpenCashOut, this.__successOpenCashOut\n        );\n        emit OpenCashOutAccepted();\n    }\n\n    function __successOpenCashOut(string _kioskId, uint256 _cashOutId) public {\n        emit OpenCashOutSuccess(_kioskId, _cashOutId);\n    }\n\n    function __failOpenCashOut(string _kioskId) public {\n        emit OpenCashOutFailed(_kioskId);\n    }\n\n    // Validate cash out components:\n\n    event ValidateCashOutAccepted();\n    event ValidateCashOutSuccess(uint256 _sessionId, uint256 _cashOutId);\n    event ValidateCashOutFailed(uint256 _sessionId, uint256 _cashOutId);\n\n    function validateCashOut(uint256 _sessionId, uint256 _cashOutId) public {\n        CashOutApi(context.get(CASH_OUT_API)).validateCashOutChannel(\n            _sessionId,\n            _cashOutId,\n            this.__failValidateCashOut,\n            this.__successValidateCashOut\n        );\n        emit ValidateCashOutAccepted();\n    }\n\n    function __successValidateCashOut(uint256 _sessionId, uint256 _cashOutId) public {\n        emit ValidateCashOutSuccess(_sessionId, _cashOutId);\n    }\n\n    function __failValidateCashOut(uint256 _sessionId, uint256 _cashOutId) public {\n        emit ValidateCashOutFailed(_sessionId, _cashOutId);\n    }\n\n    // Close cash out components:\n\n    event CloseCashOutAccepted();\n    event CloseCashOutSuccess(uint256 _sessionId, uint256 _cashOutId);\n    event CloseCashOutFailed(uint256 _sessionId, uint256 _cashOutId);\n\n    function closeCashOut(uint256 _sessionId, uint256 _cashOutId) public {\n        CashOutApi(context.get(CASH_OUT_API)).closeCashOutChannel(\n            _sessionId,\n            _cashOutId,\n            this.__failCloseCashOut,\n            this.__successCloseCashOut\n        );\n    }\n\n    function __successCloseCashOut(uint256 _sessionId, uint256 _cashOutId) public {\n        emit CloseCashOutSuccess(_sessionId, _cashOutId);\n    }\n\n    function __failCloseCashOut(uint256 _sessionId, uint256 _cashOutId) public {\n        emit CloseCashOutFailed(_sessionId, _cashOutId);\n    }\n\n    // Rollback cash out components:\n\n    event RollbackCashOutAccepted();\n    event RollbackCashOutSuccess(uint256 _cashOutId);\n    event RollbackCashOutFailed(uint256 _cashOutId);\n\n    function rollbackCashOut(uint256 _cashOutId) public {\n        CashOutApi(context.get(CASH_OUT_API)).rollbackCashOutChannel(\n            _cashOutId,\n            this.__failRollbackCashOut,\n            this.__successRollbackCashOut\n        );\n    }\n\n    function __successRollbackCashOut(uint256 _cashOutId) public {\n        emit RollbackCashOutSuccess(_cashOutId);\n    }\n\n    function __failRollbackCashOut(uint256 _cashOutId) public {\n        emit RollbackCashOutFailed(_cashOutId);\n    }\n\n}",
  "sourcePath": "/home/user/IdeaProjects/Main/VaultLogic/POC/vl-api-pos/truffle/contracts/application/CapitalHero.sol",
  "compiler": {
    "name": "solc",
    "version": "0.4.24+commit.e67f0147.Emscripten.clang"
  },
  "schemaVersion": "2.0.1",
  "updatedAt": "2018-11-19T14:08:51.303Z"
}