{
  "contractName": "CapitalHero",
  "abi": [
    {
      "inputs": [
        {
          "name": "_context",
          "type": "address"
        }
      ],
      "payable": false,
      "stateMutability": "nonpayable",
      "type": "constructor"
    },
    {
      "anonymous": false,
      "inputs": [],
      "name": "OpenCashOutAccepted",
      "type": "event"
    },
    {
      "anonymous": false,
      "inputs": [
        {
          "indexed": false,
          "name": "_requestId",
          "type": "string"
        },
        {
          "indexed": false,
          "name": "_kioskId",
          "type": "string"
        },
        {
          "indexed": false,
          "name": "_cashOutId",
          "type": "uint256"
        },
        {
          "indexed": false,
          "name": "_fee",
          "type": "uint256"
        }
      ],
      "name": "OpenCashOutSuccess",
      "type": "event"
    },
    {
      "anonymous": false,
      "inputs": [
        {
          "indexed": false,
          "name": "_kioskId",
          "type": "string"
        },
        {
          "indexed": false,
          "name": "_requestId",
          "type": "string"
        }
      ],
      "name": "OpenCashOutFailed",
      "type": "event"
    },
    {
      "anonymous": false,
      "inputs": [],
      "name": "ValidateCashOutAccepted",
      "type": "event"
    },
    {
      "anonymous": false,
      "inputs": [
        {
          "indexed": false,
          "name": "_sessionId",
          "type": "uint256"
        },
        {
          "indexed": false,
          "name": "_cashOutId",
          "type": "uint256"
        }
      ],
      "name": "ValidateCashOutSuccess",
      "type": "event"
    },
    {
      "anonymous": false,
      "inputs": [
        {
          "indexed": false,
          "name": "_sessionId",
          "type": "uint256"
        },
        {
          "indexed": false,
          "name": "_cashOutId",
          "type": "uint256"
        }
      ],
      "name": "ValidateCashOutFailed",
      "type": "event"
    },
    {
      "anonymous": false,
      "inputs": [],
      "name": "CloseCashOutAccepted",
      "type": "event"
    },
    {
      "anonymous": false,
      "inputs": [
        {
          "indexed": false,
          "name": "_sessionId",
          "type": "uint256"
        },
        {
          "indexed": false,
          "name": "_cashOutId",
          "type": "uint256"
        }
      ],
      "name": "CloseCashOutSuccess",
      "type": "event"
    },
    {
      "anonymous": false,
      "inputs": [
        {
          "indexed": false,
          "name": "_sessionId",
          "type": "uint256"
        },
        {
          "indexed": false,
          "name": "_cashOutId",
          "type": "uint256"
        }
      ],
      "name": "CloseCashOutFailed",
      "type": "event"
    },
    {
      "anonymous": false,
      "inputs": [],
      "name": "RollbackCashOutAccepted",
      "type": "event"
    },
    {
      "anonymous": false,
      "inputs": [
        {
          "indexed": false,
          "name": "_cashOutId",
          "type": "uint256"
        }
      ],
      "name": "RollbackCashOutSuccess",
      "type": "event"
    },
    {
      "anonymous": false,
      "inputs": [
        {
          "indexed": false,
          "name": "_cashOutId",
          "type": "uint256"
        }
      ],
      "name": "RollbackCashOutFailed",
      "type": "event"
    },
    {
      "constant": false,
      "inputs": [
        {
          "name": "_requestId",
          "type": "string"
        },
        {
          "name": "_kioskId",
          "type": "string"
        },
        {
          "name": "_toWithdraw",
          "type": "uint256"
        },
        {
          "name": "_fees",
          "type": "uint256[]"
        },
        {
          "name": "_parties",
          "type": "address[]"
        }
      ],
      "name": "openCashOut",
      "outputs": [],
      "payable": false,
      "stateMutability": "nonpayable",
      "type": "function"
    },
    {
      "constant": false,
      "inputs": [
        {
          "name": "_requestId",
          "type": "string"
        },
        {
          "name": "_kioskId",
          "type": "string"
        },
        {
          "name": "_cashOutId",
          "type": "uint256"
        },
        {
          "name": "_fee",
          "type": "uint256"
        }
      ],
      "name": "__successOpenCashOut",
      "outputs": [],
      "payable": false,
      "stateMutability": "nonpayable",
      "type": "function"
    },
    {
      "constant": false,
      "inputs": [
        {
          "name": "_requestId",
          "type": "string"
        },
        {
          "name": "_kioskId",
          "type": "string"
        }
      ],
      "name": "__failOpenCashOut",
      "outputs": [],
      "payable": false,
      "stateMutability": "nonpayable",
      "type": "function"
    },
    {
      "constant": false,
      "inputs": [
        {
          "name": "_sessionId",
          "type": "uint256"
        },
        {
          "name": "_cashOutId",
          "type": "uint256"
        }
      ],
      "name": "validateCashOut",
      "outputs": [],
      "payable": false,
      "stateMutability": "nonpayable",
      "type": "function"
    },
    {
      "constant": false,
      "inputs": [
        {
          "name": "_sessionId",
          "type": "uint256"
        },
        {
          "name": "_cashOutId",
          "type": "uint256"
        }
      ],
      "name": "__successValidateCashOut",
      "outputs": [],
      "payable": false,
      "stateMutability": "nonpayable",
      "type": "function"
    },
    {
      "constant": false,
      "inputs": [
        {
          "name": "_sessionId",
          "type": "uint256"
        },
        {
          "name": "_cashOutId",
          "type": "uint256"
        }
      ],
      "name": "__failValidateCashOut",
      "outputs": [],
      "payable": false,
      "stateMutability": "nonpayable",
      "type": "function"
    },
    {
      "constant": false,
      "inputs": [
        {
          "name": "_sessionId",
          "type": "uint256"
        },
        {
          "name": "_cashOutId",
          "type": "uint256"
        }
      ],
      "name": "closeCashOut",
      "outputs": [],
      "payable": false,
      "stateMutability": "nonpayable",
      "type": "function"
    },
    {
      "constant": false,
      "inputs": [
        {
          "name": "_sessionId",
          "type": "uint256"
        },
        {
          "name": "_cashOutId",
          "type": "uint256"
        }
      ],
      "name": "__successCloseCashOut",
      "outputs": [],
      "payable": false,
      "stateMutability": "nonpayable",
      "type": "function"
    },
    {
      "constant": false,
      "inputs": [
        {
          "name": "_sessionId",
          "type": "uint256"
        },
        {
          "name": "_cashOutId",
          "type": "uint256"
        }
      ],
      "name": "__failCloseCashOut",
      "outputs": [],
      "payable": false,
      "stateMutability": "nonpayable",
      "type": "function"
    },
    {
      "constant": false,
      "inputs": [
        {
          "name": "_cashOutId",
          "type": "uint256"
        }
      ],
      "name": "rollbackCashOut",
      "outputs": [],
      "payable": false,
      "stateMutability": "nonpayable",
      "type": "function"
    },
    {
      "constant": false,
      "inputs": [
        {
          "name": "_cashOutId",
          "type": "uint256"
        }
      ],
      "name": "__successRollbackCashOut",
      "outputs": [],
      "payable": false,
      "stateMutability": "nonpayable",
      "type": "function"
    },
    {
      "constant": false,
      "inputs": [
        {
          "name": "_cashOutId",
          "type": "uint256"
        }
      ],
      "name": "__failRollbackCashOut",
      "outputs": [],
      "payable": false,
      "stateMutability": "nonpayable",
      "type": "function"
    }
  ],
  "bytecode": "0x608060405234801561001057600080fd5b506040516020806110ff833981016040525160008054600160a060020a03909216600160a060020a03199092169190911790556110ad806100526000396000f3006080604052600436106100b95763ffffffff7c010000000000000000000000000000000000000000000000000000000060003504166321c22cbf81146100be57806328161702146101d0578063497343c1146101eb5780636b26412c146102035780636c1a42d11461021e578063892b6bcb14610239578063968a329f146102d95780639b0e292d146102f1578063a7fed0a714610388578063b91df460146103a3578063c25f1cef146103bb578063ee3f5b51146103d6575b600080fd5b3480156100ca57600080fd5b506040805160206004803580820135601f81018490048402850184019095528484526101ce94369492936024939284019190819084018382808284375050604080516020601f89358b018035918201839004830284018301909452808352979a99988101979196509182019450925082915084018382808284375050604080516020808901358a01803580830284810184018652818552999c8b359c909b909a950198509296508101945090925082919085019084908082843750506040805187358901803560208181028481018201909552818452989b9a9989019892975090820195509350839250850190849080828437509497506103f19650505050505050565b005b3480156101dc57600080fd5b506101ce600435602435610762565b3480156101f757600080fd5b506101ce6004356107a1565b34801561020f57600080fd5b506101ce600435602435610970565b34801561022a57600080fd5b506101ce6004356024356109af565b34801561024557600080fd5b506040805160206004803580820135601f81018490048402850184019095528484526101ce94369492936024939284019190819084018382808284375050604080516020601f89358b018035918201839004830284018301909452808352979a999881019791965091820194509250829150840183828082843750949750508435955050506020909201359150610b869050565b3480156102e557600080fd5b506101ce600435610c9c565b3480156102fd57600080fd5b506040805160206004803580820135601f81018490048402850184019095528484526101ce94369492936024939284019190819084018382808284375050604080516020601f89358b018035918201839004830284018301909452808352979a999881019791965091820194509250829150840183828082843750949750610cd29650505050505050565b34801561039457600080fd5b506101ce600435602435610dd6565b3480156103af57600080fd5b506101ce600435610fad565b3480156103c757600080fd5b506101ce600435602435610fe3565b3480156103e257600080fd5b506101ce600435602435611022565b60008054604080518082018252601381526000805160206110628339815191526020808301918252925160e160020a63349f642f02815260048101938452825160248201528251600160a060020a039095169563693ec85e959394938493604490930192918190849084905b8381101561047557818101518382015260200161045d565b50505050905090810190601f1680156104a25780820380516001836020036101000a031916815260200191505b5092505050602060405180830381600087803b1580156104c157600080fd5b505af11580156104d5573d6000803e3d6000fd5b505050506040513d60208110156104eb57600080fd5b8101908080519060200190929190505050600160a060020a031663472536b2868686868630600160a060020a0316639b0e292d30600160a060020a031663892b6bcb6040518a63ffffffff167c01000000000000000000000000000000000000000000000000000000000281526004018080602001806020018a81526020018060200180602001898963ffffffff1690640100000000021768010000000000000000028152602001878763ffffffff169064010000000002176801000000000000000002815260200185810385528e818151815260200191508051906020019080838360005b838110156105e95781810151838201526020016105d1565b50505050905090810190601f1680156106165780820380516001836020036101000a031916815260200191505b5085810384528d5181528d516020918201918f019080838360005b83811015610649578181015183820152602001610631565b50505050905090810190601f1680156106765780820380516001836020036101000a031916815260200191505b5085810383528b5181528b51602091820191808e01910280838360005b838110156106ab578181015183820152602001610693565b5050505090500185810382528a818151815260200191508051906020019060200280838360005b838110156106ea5781810151838201526020016106d2565b505050509050019d5050505050505050505050505050600060405180830381600087803b15801561071a57600080fd5b505af115801561072e573d6000803e3d6000fd5b50506040517f24a400b68736c8b428a71a5fd0ee4286f47636c4b7aed7e795f9ac0901c9ce17925060009150a15050505050565b604080518381526020810183905281517f40ad38faf799d92da3321afd5a9d1083af4d20f1629b6e62340fcb0957188006929181900390910190a15050565b60008054604080518082018252601381526000805160206110628339815191526020808301918252925160e160020a63349f642f02815260048101938452825160248201528251600160a060020a039095169563693ec85e959394938493604490930192918190849084905b8381101561082557818101518382015260200161080d565b50505050905090810190601f1680156108525780820380516001836020036101000a031916815260200191505b5092505050602060405180830381600087803b15801561087157600080fd5b505af1158015610885573d6000803e3d6000fd5b505050506040513d602081101561089b57600080fd5b5051604080517f819432740000000000000000000000000000000000000000000000000000000081526004810184905268010000000000000000640100000000300263b91df46081178202602484015263968a329f170260448201529051600160a060020a039092169163819432749160648082019260009290919082900301818387803b15801561092c57600080fd5b505af1158015610940573d6000803e3d6000fd5b50506040517fd7215d0d4ca48b3d86b40bd63d01a5526d51b47906b1eeab836e370ee25c29ec925060009150a150565b604080518381526020810183905281517f76521613b06b893d0b9a0b3429e7be48c9b6e7d90e7b8e76256a827eb6e2966a929181900390910190a15050565b60008054604080518082018252601381526000805160206110628339815191526020808301918252925160e160020a63349f642f02815260048101938452825160248201528251600160a060020a039095169563693ec85e959394938493604490930192918190849084905b83811015610a33578181015183820152602001610a1b565b50505050905090810190601f168015610a605780820380516001836020036101000a031916815260200191505b5092505050602060405180830381600087803b158015610a7f57600080fd5b505af1158015610a93573d6000803e3d6000fd5b505050506040513d6020811015610aa957600080fd5b5051604080517f5caae8ff0000000000000000000000000000000000000000000000000000000081526004810185905260248101849052680100000000000000006401000000003002636b26412c8117820260448401526328161702170260648201529051600160a060020a0390921691635caae8ff9160848082019260009290919082900301818387803b158015610b4157600080fd5b505af1158015610b55573d6000803e3d6000fd5b50506040517f2483a4452e0fa8b936893537883f8468c693710c88d794b2ec80fe230f77419e925060009150a15050565b7f72246bf964abd136b99fef8286eba99780e3a2ac47c139f56b60fbc49f8cf96384848484604051808060200180602001858152602001848152602001838103835287818151815260200191508051906020019080838360005b83811015610bf8578181015183820152602001610be0565b50505050905090810190601f168015610c255780820380516001836020036101000a031916815260200191505b50838103825286518152865160209182019188019080838360005b83811015610c58578181015183820152602001610c40565b50505050905090810190601f168015610c855780820380516001836020036101000a031916815260200191505b50965050505050505060405180910390a150505050565b6040805182815290517ff289636d9120474a5a40eaba226e0f9b59c21c684329879c9712a3510e34e0419181900360200190a150565b7f1bbdf9354448d31bf733a45dbf641a731a6178a54b241f73c4dda5118407de658282604051808060200180602001838103835285818151815260200191508051906020019080838360005b83811015610d36578181015183820152602001610d1e565b50505050905090810190601f168015610d635780820380516001836020036101000a031916815260200191505b50838103825284518152845160209182019186019080838360005b83811015610d96578181015183820152602001610d7e565b50505050905090810190601f168015610dc35780820380516001836020036101000a031916815260200191505b5094505050505060405180910390a15050565b60008054604080518082018252601381526000805160206110628339815191526020808301918252925160e160020a63349f642f02815260048101938452825160248201528251600160a060020a039095169563693ec85e959394938493604490930192918190849084905b83811015610e5a578181015183820152602001610e42565b50505050905090810190601f168015610e875780820380516001836020036101000a031916815260200191505b5092505050602060405180830381600087803b158015610ea657600080fd5b505af1158015610eba573d6000803e3d6000fd5b505050506040513d6020811015610ed057600080fd5b5051604080517f17eea922000000000000000000000000000000000000000000000000000000008152600481018590526024810184905268010000000000000000640100000000300263c25f1cef81178202604484015263ee3f5b51170260648201529051600160a060020a03909216916317eea9229160848082019260009290919082900301818387803b158015610f6857600080fd5b505af1158015610f7c573d6000803e3d6000fd5b50506040517f5ede4b87e8ee3e8e910ec11aa49f420e35e8fdc83e7ea390c48aea0cc2bc2203925060009150a15050565b6040805182815290517f385f6d093252552f44f20819c2c4370ed7f944bd81a74925f1729f5508abd88c9181900360200190a150565b604080518381526020810183905281517f2d715a98b70bbdc731f6bcca7bcb8596a34fc232688bafe63446d5eb912c9398929181900390910190a15050565b604080518381526020810183905281517f13c295bdcd4e7d1039f96ec3ac272ef5f0f046858bccdbdca919a0e519630a5f929181900390910190a150505600636173682d6f75742d636f6e74726f6c6c657200000000000000000000000000a165627a7a72305820c2ebf449afd793a7f286c3663f5a2c837f63f67cfa08d4b265c1068fea53d94b0029",
  "source": "pragma solidity 0.4.24;\n\nimport \"../platform/Context.sol\";\nimport \"../controllers/api/public/CashOutApi.sol\";\n\ncontract CapitalHero {\n\n    string constant CONTROLLER = \"cash-in-controller\";\n\n    Context private context;\n\n    constructor(address _context) public {\n        context = Context(_context);\n    }\n\n    /*\n        Example of CashOutApi workflow\n    */\n\n    string constant CASH_OUT_API = \"cash-out-controller\";\n\n    // Open cash out components:\n\n    event OpenCashOutAccepted();\n    event OpenCashOutSuccess(string _requestId, string _kioskId, uint256 _cashOutId, uint256 _fee);\n    event OpenCashOutFailed(string _kioskId, string _requestId);\n\n    function openCashOut(\n        string _requestId,\n        string _kioskId,\n        uint256 _toWithdraw,\n        uint256[] _fees,\n        address[] _parties\n    )\n    public\n    {\n        CashOutApi(context.get(CASH_OUT_API)).openCashOutChannel(\n            _requestId,\n            _kioskId,\n            _toWithdraw,\n            _fees,\n            _parties,\n            this.__failOpenCashOut,\n            this.__successOpenCashOut\n        );\n        emit OpenCashOutAccepted();\n    }\n\n    function __successOpenCashOut(string _requestId, string _kioskId, uint256 _cashOutId, uint256 _fee) public {\n        emit OpenCashOutSuccess(_requestId, _kioskId, _cashOutId, _fee);\n    }\n\n    function __failOpenCashOut( string _requestId, string _kioskId) public {\n        emit OpenCashOutFailed(_requestId, _kioskId);\n    }\n\n    // Validate cash out components:\n\n    event ValidateCashOutAccepted();\n    event ValidateCashOutSuccess(uint256 _sessionId, uint256 _cashOutId);\n    event ValidateCashOutFailed(uint256 _sessionId, uint256 _cashOutId);\n\n    function validateCashOut(uint256 _sessionId, uint256 _cashOutId) public {\n        CashOutApi(context.get(CASH_OUT_API)).validateCashOutChannel(\n            _sessionId,\n            _cashOutId,\n            this.__failValidateCashOut,\n            this.__successValidateCashOut\n        );\n        emit ValidateCashOutAccepted();\n    }\n\n    function __successValidateCashOut(uint256 _sessionId, uint256 _cashOutId) public {\n        emit ValidateCashOutSuccess(_sessionId, _cashOutId);\n    }\n\n    function __failValidateCashOut(uint256 _sessionId, uint256 _cashOutId) public {\n        emit ValidateCashOutFailed(_sessionId, _cashOutId);\n    }\n\n    // Close cash out components:\n\n    event CloseCashOutAccepted();\n    event CloseCashOutSuccess(uint256 _sessionId, uint256 _cashOutId);\n    event CloseCashOutFailed(uint256 _sessionId, uint256 _cashOutId);\n\n    function closeCashOut(uint256 _sessionId, uint256 _cashOutId) public {\n        CashOutApi(context.get(CASH_OUT_API)).closeCashOutChannel(\n            _sessionId,\n            _cashOutId,\n            this.__failCloseCashOut,\n            this.__successCloseCashOut\n        );\n        emit CloseCashOutAccepted();\n    }\n\n    function __successCloseCashOut(uint256 _sessionId, uint256 _cashOutId) public {\n        emit CloseCashOutSuccess(_sessionId, _cashOutId);\n    }\n\n    function __failCloseCashOut(uint256 _sessionId, uint256 _cashOutId) public {\n        emit CloseCashOutFailed(_sessionId, _cashOutId);\n    }\n\n    // Rollback cash out components:\n\n    event RollbackCashOutAccepted();\n    event RollbackCashOutSuccess(uint256 _cashOutId);\n    event RollbackCashOutFailed(uint256 _cashOutId);\n\n    function rollbackCashOut(uint256 _cashOutId) public {\n        CashOutApi(context.get(CASH_OUT_API)).rollbackCashOutChannel(\n            _cashOutId,\n            this.__failRollbackCashOut,\n            this.__successRollbackCashOut\n        );\n        emit RollbackCashOutAccepted();\n    }\n\n    function __successRollbackCashOut(uint256 _cashOutId) public {\n        emit RollbackCashOutSuccess(_cashOutId);\n    }\n\n    function __failRollbackCashOut(uint256 _cashOutId) public {\n        emit RollbackCashOutFailed(_cashOutId);\n    }\n\n}",
  "sourcePath": "/home/andrew/vault-logic-project/Development/test/vault-logic-api/truffle/contracts/application/CapitalHero.sol",
  "compiler": {
    "name": "solc",
    "version": "0.4.24+commit.e67f0147.Emscripten.clang"
  },
  "schemaVersion": "2.0.1",
  "updatedAt": "2018-11-20T09:03:32.504Z"
}