{
  "contractName": "CapitalHero",
  "abi": [
    {
      "constant": true,
      "inputs": [],
      "name": "lastBalanceUpdateSession",
      "outputs": [
        {
          "name": "",
          "type": "uint256"
        }
      ],
      "payable": false,
      "stateMutability": "view",
      "type": "function"
    },
    {
      "constant": true,
      "inputs": [],
      "name": "lastBalanceUpdateChannel",
      "outputs": [
        {
          "name": "",
          "type": "uint256"
        }
      ],
      "payable": false,
      "stateMutability": "view",
      "type": "function"
    },
    {
      "constant": true,
      "inputs": [],
      "name": "lastBalanceUpdateAmount",
      "outputs": [
        {
          "name": "",
          "type": "uint256"
        }
      ],
      "payable": false,
      "stateMutability": "view",
      "type": "function"
    },
    {
      "constant": true,
      "inputs": [],
      "name": "lastSuccessOpenSession",
      "outputs": [
        {
          "name": "",
          "type": "uint256"
        }
      ],
      "payable": false,
      "stateMutability": "view",
      "type": "function"
    },
    {
      "constant": true,
      "inputs": [],
      "name": "lastOpenAcceptedSession",
      "outputs": [
        {
          "name": "",
          "type": "uint256"
        }
      ],
      "payable": false,
      "stateMutability": "view",
      "type": "function"
    },
    {
      "constant": true,
      "inputs": [],
      "name": "lastSuccessOpenChannel",
      "outputs": [
        {
          "name": "",
          "type": "uint256"
        }
      ],
      "payable": false,
      "stateMutability": "view",
      "type": "function"
    },
    {
      "inputs": [
        {
          "name": "_context",
          "type": "address"
        }
      ],
      "payable": false,
      "stateMutability": "nonpayable",
      "type": "constructor"
    },
    {
      "anonymous": false,
      "inputs": [
        {
          "indexed": false,
          "name": "_sessionId",
          "type": "uint256"
        }
      ],
      "name": "OpenAccepted",
      "type": "event"
    },
    {
      "anonymous": false,
      "inputs": [
        {
          "indexed": false,
          "name": "_sessionId",
          "type": "uint256"
        },
        {
          "indexed": false,
          "name": "_cashInId",
          "type": "uint256"
        }
      ],
      "name": "SuccessOpen",
      "type": "event"
    },
    {
      "anonymous": false,
      "inputs": [
        {
          "indexed": false,
          "name": "_sessionId",
          "type": "uint256"
        },
        {
          "indexed": false,
          "name": "_cashInId",
          "type": "uint256"
        },
        {
          "indexed": false,
          "name": "_amount",
          "type": "uint256"
        }
      ],
      "name": "BalanceUpdate",
      "type": "event"
    },
    {
      "anonymous": false,
      "inputs": [
        {
          "indexed": false,
          "name": "_sessionId",
          "type": "uint256"
        }
      ],
      "name": "FailOpen",
      "type": "event"
    },
    {
      "anonymous": false,
      "inputs": [
        {
          "indexed": false,
          "name": "_sessionId",
          "type": "uint256"
        }
      ],
      "name": "CloseAccepted",
      "type": "event"
    },
    {
      "anonymous": false,
      "inputs": [
        {
          "indexed": false,
          "name": "_sessionId",
          "type": "uint256"
        },
        {
          "indexed": false,
          "name": "_cashInId",
          "type": "uint256"
        }
      ],
      "name": "SuccessClose",
      "type": "event"
    },
    {
      "anonymous": false,
      "inputs": [
        {
          "indexed": false,
          "name": "_sessionId",
          "type": "uint256"
        },
        {
          "indexed": false,
          "name": "_cashInId",
          "type": "uint256"
        }
      ],
      "name": "FailClose",
      "type": "event"
    },
    {
      "constant": false,
      "inputs": [
        {
          "name": "_sessionId",
          "type": "uint256"
        },
        {
          "name": "_maxAmount",
          "type": "uint256"
        }
      ],
      "name": "openCashInChannel",
      "outputs": [],
      "payable": false,
      "stateMutability": "nonpayable",
      "type": "function"
    },
    {
      "constant": false,
      "inputs": [
        {
          "name": "_sessionId",
          "type": "uint256"
        },
        {
          "name": "_cashInId",
          "type": "uint256"
        }
      ],
      "name": "successOpen",
      "outputs": [],
      "payable": false,
      "stateMutability": "nonpayable",
      "type": "function"
    },
    {
      "constant": false,
      "inputs": [
        {
          "name": "_sessionId",
          "type": "uint256"
        },
        {
          "name": "_cashInId",
          "type": "uint256"
        },
        {
          "name": "_amount",
          "type": "uint256"
        }
      ],
      "name": "balanceUpdate",
      "outputs": [],
      "payable": false,
      "stateMutability": "nonpayable",
      "type": "function"
    },
    {
      "constant": false,
      "inputs": [
        {
          "name": "_sessionId",
          "type": "uint256"
        }
      ],
      "name": "failOpen",
      "outputs": [],
      "payable": false,
      "stateMutability": "nonpayable",
      "type": "function"
    },
    {
      "constant": false,
      "inputs": [
        {
          "name": "_sessionId",
          "type": "uint256"
        },
        {
          "name": "_cashInId",
          "type": "uint256"
        }
      ],
      "name": "closeCashInChannel",
      "outputs": [],
      "payable": false,
      "stateMutability": "nonpayable",
      "type": "function"
    },
    {
      "constant": false,
      "inputs": [
        {
          "name": "_sessionId",
          "type": "uint256"
        },
        {
          "name": "_cashInId",
          "type": "uint256"
        }
      ],
      "name": "successClose",
      "outputs": [],
      "payable": false,
      "stateMutability": "nonpayable",
      "type": "function"
    },
    {
      "constant": false,
      "inputs": [
        {
          "name": "_sessionId",
          "type": "uint256"
        },
        {
          "name": "_cashInId",
          "type": "uint256"
        }
      ],
      "name": "failClose",
      "outputs": [],
      "payable": false,
      "stateMutability": "nonpayable",
      "type": "function"
    }
  ],
  "bytecode": "0x608060405234801561001057600080fd5b5060405160208061094c833981016040525160008054600160a060020a03909216600160a060020a03199092169190911790556108fa806100526000396000f3006080604052600436106100c45763ffffffff7c01000000000000000000000000000000000000000000000000000000006000350416630c0c628e81146100c957806313e70896146100e6578063599529e41461010157806383a37dee146101285780638bdd902f146101435780639c5c6b9a1461015e578063b23b31c014610173578063c2a9219214610188578063e9d116ab146101a0578063edcaeb24146101b5578063f391d78d146101ca578063f9df808a146101e5578063fd721c16146101fa575b600080fd5b3480156100d557600080fd5b506100e4600435602435610218565b005b3480156100f257600080fd5b506100e460043560243561050b565b34801561010d57600080fd5b50610116610759565b60408051918252519081900360200190f35b34801561013457600080fd5b506100e460043560243561075f565b34801561014f57600080fd5b506100e460043560243561079e565b34801561016a57600080fd5b506101166107e7565b34801561017f57600080fd5b506101166107ed565b34801561019457600080fd5b506100e46004356107f3565b3480156101ac57600080fd5b50610116610829565b3480156101c157600080fd5b5061011661082f565b3480156101d657600080fd5b506100e4600435602435610835565b3480156101f157600080fd5b50610116610874565b34801561020657600080fd5b506100e460043560243560443561087a565b6040805160008082526020808301828152825460808501865260128587019081527f636173682d696e2d636f6e74726f6c6c657200000000000000000000000000006060870190815296517f693ec85e000000000000000000000000000000000000000000000000000000008152600481019485528151602482015281519697939673ffffffffffffffffffffffffffffffffffffffff9093169463693ec85e94929390928392604401918083838b5b838110156102e05781810151838201526020016102c8565b50505050905090810190601f16801561030d5780820380516001836020036101000a031916815260200191505b5092505050602060405180830381600087803b15801561032c57600080fd5b505af1158015610340573d6000803e3d6000fd5b505050506040513d602081101561035657600080fd5b50516040517f352c414c00000000000000000000000000000000000000000000000000000000815260048101878152602482018790526383a37dee30640100000000810282811768010000000000000000908102608487015263f391d78d9182170260a486015260c060448601908152895160c4870152895173ffffffffffffffffffffffffffffffffffffffff9097169663352c414c968d968d968d968d9690959194869491939291606481019160e4909101906020808c01910280838360005b83811015610430578181015183820152602001610418565b50505050905001838103825288818151815260200191508051906020019060200280838360005b8381101561046f578181015183820152602001610457565b505050509050019a5050505050505050505050602060405180830381600087803b15801561049c57600080fd5b505af11580156104b0573d6000803e3d6000fd5b505050506040513d60208110156104c657600080fd5b505190508015610504576040805186815290517fc30e01dec4847b728523d59dfa3cc011df28c8c575f1a740df536f6de2cdcb829181900360200190a15b5050505050565b60008054604080518082018252601281527f636173682d696e2d636f6e74726f6c6c65720000000000000000000000000000602080830191825292517f693ec85e0000000000000000000000000000000000000000000000000000000081526004810193845282516024820152825173ffffffffffffffffffffffffffffffffffffffff9095169463693ec85e94928392604401918083838b5b838110156105bd5781810151838201526020016105a5565b50505050905090810190601f1680156105ea5780820380516001836020036101000a031916815260200191505b5092505050602060405180830381600087803b15801561060957600080fd5b505af115801561061d573d6000803e3d6000fd5b505050506040513d602081101561063357600080fd5b5051604080517fe5be8eec0000000000000000000000000000000000000000000000000000000081526004810186905260248101859052680100000000000000006401000000003002638bdd902f81178202604484015263fd721c1681178202606484015263c2a9219217026084820152905173ffffffffffffffffffffffffffffffffffffffff9092169163e5be8eec9160a4808201926020929091908290030181600087803b1580156106e757600080fd5b505af11580156106fb573d6000803e3d6000fd5b505050506040513d602081101561071157600080fd5b5051905080156107545760018390556040805184815290517f17d78b8713d172d99cd762a9783a1afcdd2fe1da07fb8680ff91bb611bc4044e9181900360200190a15b505050565b60045481565b604080518381526020810183905281517f56599de87eb9dacfc736f3644ece08f97fb3ee567173eeef964163990e6d6028929181900390910190a15050565b60028290556003819055604080518381526020810183905281517f046cd7c0f9475bdcc2bccb30738c935672ccd94d920724c9007a0b37be87eddf929181900390910190a15050565b60055481565b60065481565b6040805182815290517fb1e95e836b94de0679eabf7c724e2f17b4943d19c55c83042472490ea708794c9181900360200190a150565b60025481565b60015481565b604080518381526020810183905281517f3a560a5b11e09c59628b311f70e7bb3d743003b32d2e0f9ae38174a2c187d9ed929181900390910190a15050565b60035481565b600483905560058290556006819055604080518481526020810184905280820183905290517f6c0357152e8cad202681a829285fb50149a2ae043c139d8668872f2c45cd4a2b9181900360600190a15050505600a165627a7a72305820abfaaff62f80d829a886a7e7fcd15a0e9fd278c54c92ccd36105a420f3e20fdc0029",
  "source": "pragma solidity 0.4.24;\n\nimport \"../Platform.sol\";\nimport \"../controllers/Controllers.sol\";\n\ncontract CapitalHero {\n\n    event OpenAccepted(uint256 _sessionId);\n    event SuccessOpen(uint256 _sessionId, uint256 _cashInId);\n    event BalanceUpdate(uint256 _sessionId, uint256 _cashInId, uint256 _amount);\n    event FailOpen(uint256 _sessionId);\n\n    event CloseAccepted(uint256 _sessionId);\n    event SuccessClose(uint256 _sessionId, uint256 _cashInId);\n    event FailClose(uint256 _sessionId, uint256 _cashInId);\n\n    string constant CASH_IN_CONTROLLER = \"cash-in-controller\";\n\n    Context private context;\n\n    uint256 public lastOpenAcceptedSession;\n\n    uint256 public lastSuccessOpenSession;\n    uint256 public lastSuccessOpenChannel;\n\n    uint256 public lastBalanceUpdateSession;\n    uint256 public lastBalanceUpdateChannel;\n    uint256 public lastBalanceUpdateAmount;\n\n    constructor(address _context) public {\n        context = Context(_context);\n    }\n\n    function openCashInChannel(uint256 _sessionId, uint256 _maxAmount) external {\n        bool accepted = ACashInController(context.get(CASH_IN_CONTROLLER)).openCashInChannel(\n            _sessionId,\n            _maxAmount,\n            this.successOpen,\n            this.balanceUpdate,\n            this.failOpen\n        );\n        if (accepted) {\n            lastOpenAcceptedSession = _sessionId;\n            emit OpenAccepted(_sessionId);\n        }\n    }\n\n    function successOpen(uint256 _sessionId, uint256 _cashInId) public {\n        lastSuccessOpenSession = _sessionId;\n        lastSuccessOpenChannel = _cashInId;\n        emit SuccessOpen(_sessionId, _cashInId);\n    }\n\n    function balanceUpdate(uint256 _sessionId, uint256 _cashInId, uint256 _amount) public {\n        lastBalanceUpdateSession = _sessionId;\n        lastBalanceUpdateChannel = _cashInId;\n        lastBalanceUpdateAmount = _amount;\n        emit BalanceUpdate(_sessionId, _cashInId, _amount);\n    }\n\n    function failOpen(uint256 _sessionId) public {\n        emit FailOpen(_sessionId);\n    }\n\n    function closeCashInChannel(uint256 _sessionId, uint256 _cashInId) public {\n        uint256[] memory fees = new uint256[](0);\n        address[] memory parties = new address[](0);\n        bool accepted = ACashInController(context.get(CASH_IN_CONTROLLER)).closeCashInChannel(\n            _sessionId,\n            _cashInId,\n            fees,\n            parties,\n            this.successClose,\n            this.failClose\n        );\n        if (accepted) emit CloseAccepted(_sessionId);\n    }\n\n    function successClose(uint256 _sessionId, uint256 _cashInId) public {\n        emit SuccessClose(_sessionId, _cashInId);\n    }\n\n    function failClose(uint256 _sessionId, uint256 _cashInId) public {\n        emit FailClose(_sessionId, _cashInId);\n    }\n\n}",
  "sourcePath": "/home/andrew/vault-logic-project/Development/test/vault-logic-api/truffle/contracts/application/CapitalHero.sol",
  "compiler": {
    "name": "solc",
    "version": "0.4.24+commit.e67f0147.Emscripten.clang"
  },
  "schemaVersion": "2.0.1",
  "updatedAt": "2018-10-23T12:03:03.275Z"
}