{
  "contractName": "CapitalHero",
  "abi": [
    {
      "inputs": [
        {
          "name": "regAddr",
          "type": "address"
        }
      ],
      "payable": false,
      "stateMutability": "nonpayable",
      "type": "constructor"
    },
    {
      "anonymous": false,
      "inputs": [
        {
          "indexed": false,
          "name": "channelId",
          "type": "uint256"
        },
        {
          "indexed": false,
          "name": "sessionId",
          "type": "uint256"
        }
      ],
      "name": "CashInOpened",
      "type": "event"
    },
    {
      "anonymous": false,
      "inputs": [
        {
          "indexed": false,
          "name": "channelId",
          "type": "uint256"
        },
        {
          "indexed": false,
          "name": "sessionId",
          "type": "uint256"
        }
      ],
      "name": "CashInClosed",
      "type": "event"
    },
    {
      "anonymous": false,
      "inputs": [
        {
          "indexed": false,
          "name": "channelId",
          "type": "uint256"
        },
        {
          "indexed": false,
          "name": "balance",
          "type": "uint256"
        },
        {
          "indexed": false,
          "name": "sessionId",
          "type": "uint256"
        }
      ],
      "name": "CashInBalanceUpdated",
      "type": "event"
    },
    {
      "anonymous": false,
      "inputs": [
        {
          "indexed": false,
          "name": "timestamp",
          "type": "uint256"
        },
        {
          "indexed": false,
          "name": "sessionId",
          "type": "uint256"
        }
      ],
      "name": "SessionCreated",
      "type": "event"
    },
    {
      "anonymous": false,
      "inputs": [
        {
          "indexed": false,
          "name": "timestamp",
          "type": "uint256"
        },
        {
          "indexed": false,
          "name": "sessionId",
          "type": "uint256"
        }
      ],
      "name": "SessionClosed",
      "type": "event"
    },
    {
      "anonymous": false,
      "inputs": [
        {
          "indexed": false,
          "name": "sessionId",
          "type": "uint256"
        },
        {
          "indexed": false,
          "name": "url",
          "type": "string"
        }
      ],
      "name": "QRCodeScanned",
      "type": "event"
    },
    {
      "anonymous": false,
      "inputs": [
        {
          "indexed": false,
          "name": "sessionId",
          "type": "uint256"
        }
      ],
      "name": "QRScanningStopped",
      "type": "event"
    },
    {
      "anonymous": false,
      "inputs": [
        {
          "indexed": false,
          "name": "sessionId",
          "type": "uint256"
        },
        {
          "indexed": false,
          "name": "id",
          "type": "string"
        },
        {
          "indexed": false,
          "name": "url",
          "type": "string"
        }
      ],
      "name": "ReceiptURLReceived",
      "type": "event"
    },
    {
      "anonymous": false,
      "inputs": [
        {
          "indexed": false,
          "name": "sessionId",
          "type": "uint256"
        },
        {
          "indexed": false,
          "name": "id",
          "type": "string"
        },
        {
          "indexed": false,
          "name": "data",
          "type": "string"
        }
      ],
      "name": "ReceiptPrinted",
      "type": "event"
    },
    {
      "constant": false,
      "inputs": [
        {
          "name": "sessionId",
          "type": "uint256"
        }
      ],
      "name": "openCashInChannel",
      "outputs": [],
      "payable": false,
      "stateMutability": "nonpayable",
      "type": "function"
    },
    {
      "constant": false,
      "inputs": [
        {
          "name": "sessionId",
          "type": "uint256"
        },
        {
          "name": "channelId",
          "type": "uint256"
        },
        {
          "name": "_fees",
          "type": "uint256[]"
        },
        {
          "name": "_parties",
          "type": "address[]"
        }
      ],
      "name": "closeCashInChannel",
      "outputs": [],
      "payable": false,
      "stateMutability": "nonpayable",
      "type": "function"
    },
    {
      "constant": false,
      "inputs": [
        {
          "name": "channelId",
          "type": "uint256"
        },
        {
          "name": "sessionId",
          "type": "uint256"
        }
      ],
      "name": "cashInChannelOpened",
      "outputs": [],
      "payable": false,
      "stateMutability": "nonpayable",
      "type": "function"
    },
    {
      "constant": false,
      "inputs": [
        {
          "name": "channelId",
          "type": "uint256"
        },
        {
          "name": "balance",
          "type": "uint256"
        },
        {
          "name": "sessionId",
          "type": "uint256"
        }
      ],
      "name": "cashInBalanceUpdate",
      "outputs": [],
      "payable": false,
      "stateMutability": "nonpayable",
      "type": "function"
    },
    {
      "constant": false,
      "inputs": [
        {
          "name": "channelId",
          "type": "uint256"
        },
        {
          "name": "sessionId",
          "type": "uint256"
        }
      ],
      "name": "cashInChannelClosed",
      "outputs": [],
      "payable": false,
      "stateMutability": "nonpayable",
      "type": "function"
    },
    {
      "constant": false,
      "inputs": [
        {
          "name": "_sessionId",
          "type": "uint256"
        }
      ],
      "name": "newSessionCreated",
      "outputs": [],
      "payable": false,
      "stateMutability": "nonpayable",
      "type": "function"
    },
    {
      "constant": false,
      "inputs": [
        {
          "name": "sessionId",
          "type": "uint256"
        }
      ],
      "name": "closeSession",
      "outputs": [],
      "payable": false,
      "stateMutability": "nonpayable",
      "type": "function"
    },
    {
      "constant": false,
      "inputs": [
        {
          "name": "sessionId",
          "type": "uint256"
        }
      ],
      "name": "sessionClosed",
      "outputs": [],
      "payable": false,
      "stateMutability": "nonpayable",
      "type": "function"
    },
    {
      "constant": true,
      "inputs": [
        {
          "name": "_sessionId",
          "type": "uint256"
        }
      ],
      "name": "getKioskInfo",
      "outputs": [
        {
          "name": "_id",
          "type": "string"
        },
        {
          "name": "_location",
          "type": "string"
        },
        {
          "name": "_name",
          "type": "string"
        },
        {
          "name": "_timezone",
          "type": "string"
        }
      ],
      "payable": false,
      "stateMutability": "view",
      "type": "function"
    },
    {
      "constant": false,
      "inputs": [
        {
          "name": "_sessionId",
          "type": "uint256"
        }
      ],
      "name": "scanQRCodeWithLights",
      "outputs": [],
      "payable": false,
      "stateMutability": "nonpayable",
      "type": "function"
    },
    {
      "constant": false,
      "inputs": [
        {
          "name": "_sessionId",
          "type": "uint256"
        }
      ],
      "name": "scanQRCode",
      "outputs": [],
      "payable": false,
      "stateMutability": "nonpayable",
      "type": "function"
    },
    {
      "constant": false,
      "inputs": [
        {
          "name": "_sessionId",
          "type": "uint256"
        }
      ],
      "name": "stopQRScanning",
      "outputs": [],
      "payable": false,
      "stateMutability": "nonpayable",
      "type": "function"
    },
    {
      "constant": false,
      "inputs": [
        {
          "name": "_sessionId",
          "type": "uint256"
        }
      ],
      "name": "getReceiptUrl",
      "outputs": [],
      "payable": false,
      "stateMutability": "nonpayable",
      "type": "function"
    },
    {
      "constant": false,
      "inputs": [
        {
          "name": "_sessionId",
          "type": "uint256"
        },
        {
          "name": "_id",
          "type": "string"
        },
        {
          "name": "_data",
          "type": "string"
        }
      ],
      "name": "printReceipt",
      "outputs": [],
      "payable": false,
      "stateMutability": "nonpayable",
      "type": "function"
    }
  ],
  "bytecode": "0x608060405234801561001057600080fd5b506040516020806119c48339810180604052810190808051906020019092919050505080806000806101000a81548173ffffffffffffffffffffffffffffffffffffffff021916908373ffffffffffffffffffffffffffffffffffffffff160217905550505061193f806100856000396000f3006080604052600436106100d0576000357c0100000000000000000000000000000000000000000000000000000000900463ffffffff1680630cb35bff146100d55780630cb4004d146102bf578063500260381461032657806352fd43a1146103535780635b56a8fa1461038a5780635f3062cd146103b7578063636b5409146103e45780636886a5c2146104115780639fc78a9114610448578063a3bfdf4714610475578063abccc23f146104a2578063ae1f1ee11461055b578063d7bbd1d414610588578063fc7055dd146105b5575b600080fd5b3480156100e157600080fd5b50610100600480360381019080803590602001909291905050506105f6565b6040518080602001806020018060200180602001858103855289818151815260200191508051906020019080838360005b8381101561014c578082015181840152602081019050610131565b50505050905090810190601f1680156101795780820380516001836020036101000a031916815260200191505b50858103845288818151815260200191508051906020019080838360005b838110156101b2578082015181840152602081019050610197565b50505050905090810190601f1680156101df5780820380516001836020036101000a031916815260200191505b50858103835287818151815260200191508051906020019080838360005b838110156102185780820151818401526020810190506101fd565b50505050905090810190601f1680156102455780820380516001836020036101000a031916815260200191505b50858103825286818151815260200191508051906020019080838360005b8381101561027e578082015181840152602081019050610263565b50505050905090810190601f1680156102ab5780820380516001836020036101000a031916815260200191505b509850505050505050505060405180910390f35b3480156102cb57600080fd5b506103246004803603810190808035906020019092919080359060200190929190803590602001908201803590602001919091929391929390803590602001908201803590602001919091929391929390505050610835565b005b34801561033257600080fd5b5061035160048036038101908080359060200190929190505050610977565b005b34801561035f57600080fd5b506103886004803603810190808035906020019092919080359060200190929190505050610aa4565b005b34801561039657600080fd5b506103b560048036038101908080359060200190929190505050610ae7565b005b3480156103c357600080fd5b506103e260048036038101908080359060200190929190505050610ce6565b005b3480156103f057600080fd5b5061040f60048036038101908080359060200190929190505050610dd1565b005b34801561041d57600080fd5b506104466004803603810190808035906020019092919080359060200190929190505050610fd0565b005b34801561045457600080fd5b5061047360048036038101908080359060200190929190505050611013565b005b34801561048157600080fd5b506104a0600480360381019080803590602001909291905050506112d2565b005b3480156104ae57600080fd5b5061055960048036038101908080359060200190929190803590602001908201803590602001908080601f0160208091040260200160405190810160405280939291908181526020018383808284378201915050505050509192919290803590602001908201803590602001908080601f0160208091040260200160405190810160405280939291908181526020018383808284378201915050505050509192919290505050611399565b005b34801561056757600080fd5b506105866004803603810190808035906020019092919050505061167b565b005b34801561059457600080fd5b506105b3600480360381019080803590602001909291905050506116bd565b005b3480156105c157600080fd5b506105f46004803603810190808035906020019092919080359060200190929190803590602001909291905050506116ff565b005b60608060608061063a6040805190810160405280601281526020017f73657373696f6e2d636f6e74726f6c6c6572000000000000000000000000000081525061174b565b73ffffffffffffffffffffffffffffffffffffffff166339df5dcd866040518263ffffffff167c010000000000000000000000000000000000000000000000000000000002815260040180828152602001915050600060405180830381600087803b1580156106a857600080fd5b505af11580156106bc573d6000803e3d6000fd5b505050506040513d6000823e3d601f19601f8201168201806040525060808110156106e657600080fd5b8101908080516401000000008111156106fe57600080fd5b8281019050602081018481111561071457600080fd5b815185600182028301116401000000008211171561073157600080fd5b5050929190602001805164010000000081111561074d57600080fd5b8281019050602081018481111561076357600080fd5b815185600182028301116401000000008211171561078057600080fd5b5050929190602001805164010000000081111561079c57600080fd5b828101905060208101848111156107b257600080fd5b81518560018202830111640100000000821117156107cf57600080fd5b505092919060200180516401000000008111156107eb57600080fd5b8281019050602081018481111561080157600080fd5b815185600182028301116401000000008211171561081e57600080fd5b505092919050505093509350935093509193509193565b6108736040805190810160405280601281526020017f636173682d696e2d636f6e74726f6c6c6572000000000000000000000000000081525061174b565b73ffffffffffffffffffffffffffffffffffffffff1663a97364058787878787876040518763ffffffff167c0100000000000000000000000000000000000000000000000000000000028152600401808781526020018681526020018060200180602001838103835287878281815260200192506020028082843782019150508381038252858582818152602001925060200280828437820191505098505050505050505050602060405180830381600087803b15801561093357600080fd5b505af1158015610947573d6000803e3d6000fd5b505050506040513d602081101561095d57600080fd5b810190808051906020019092919050505050505050505050565b60006109b76040805190810160405280601281526020017f73657373696f6e2d636f6e74726f6c6c6572000000000000000000000000000081525061174b565b73ffffffffffffffffffffffffffffffffffffffff166350026038836040518263ffffffff167c010000000000000000000000000000000000000000000000000000000002815260040180828152602001915050602060405180830381600087803b158015610a2557600080fd5b505af1158015610a39573d6000803e3d6000fd5b505050506040513d6020811015610a4f57600080fd5b810190808051906020019092919050505090508015610aa0577f0ad40631c90676315d189df642d606c501fa8fcfafa9deaa586576125c9acd57826040518082815260200191505060405180910390a15b5050565b7f280af031364d964d103568f906663e7e73cc09811a104da2ebfe8f65bdd185098282604051808381526020018281526020019250505060405180910390a15050565b60006060610b296040805190810160405280601281526020017f73657373696f6e2d636f6e74726f6c6c6572000000000000000000000000000081525061174b565b73ffffffffffffffffffffffffffffffffffffffff16635b56a8fa846040518263ffffffff167c010000000000000000000000000000000000000000000000000000000002815260040180828152602001915050600060405180830381600087803b158015610b9757600080fd5b505af1158015610bab573d6000803e3d6000fd5b505050506040513d6000823e3d601f19601f820116820180604052506040811015610bd557600080fd5b81019080805190602001909291908051640100000000811115610bf757600080fd5b82810190506020810184811115610c0d57600080fd5b8151856001820283011164010000000082111715610c2a57600080fd5b5050929190505050915091508115610ce1577f8710178e04e67e1032df473edb0aa71d941562b1e2e7ca6054384c0d9f84c05583826040518083815260200180602001828103825283818151815260200191508051906020019080838360005b83811015610ca5578082015181840152602081019050610c8a565b50505050905090810190601f168015610cd25780820380516001836020036101000a031916815260200191505b50935050505060405180910390a15b505050565b610d246040805190810160405280601281526020017f636173682d696e2d636f6e74726f6c6c6572000000000000000000000000000081525061174b565b73ffffffffffffffffffffffffffffffffffffffff1663690e7c09826040518263ffffffff167c010000000000000000000000000000000000000000000000000000000002815260040180828152602001915050602060405180830381600087803b158015610d9257600080fd5b505af1158015610da6573d6000803e3d6000fd5b505050506040513d6020811015610dbc57600080fd5b81019080805190602001909291905050505050565b60006060610e136040805190810160405280601281526020017f73657373696f6e2d636f6e74726f6c6c6572000000000000000000000000000081525061174b565b73ffffffffffffffffffffffffffffffffffffffff1663636b5409846040518263ffffffff167c010000000000000000000000000000000000000000000000000000000002815260040180828152602001915050600060405180830381600087803b158015610e8157600080fd5b505af1158015610e95573d6000803e3d6000fd5b505050506040513d6000823e3d601f19601f820116820180604052506040811015610ebf57600080fd5b81019080805190602001909291908051640100000000811115610ee157600080fd5b82810190506020810184811115610ef757600080fd5b8151856001820283011164010000000082111715610f1457600080fd5b5050929190505050915091508115610fcb577f8710178e04e67e1032df473edb0aa71d941562b1e2e7ca6054384c0d9f84c05583826040518083815260200180602001828103825283818151815260200191508051906020019080838360005b83811015610f8f578082015181840152602081019050610f74565b50505050905090810190601f168015610fbc5780820380516001836020036101000a031916815260200191505b50935050505060405180910390a15b505050565b7fc5056889444309461095c5b36d568a7e37e4e0114c283a3f59810e6e7d5e1b838282604051808381526020018281526020019250505060405180910390a15050565b60006060806110566040805190810160405280601281526020017f73657373696f6e2d636f6e74726f6c6c6572000000000000000000000000000081525061174b565b73ffffffffffffffffffffffffffffffffffffffff16639fc78a91856040518263ffffffff167c010000000000000000000000000000000000000000000000000000000002815260040180828152602001915050600060405180830381600087803b1580156110c457600080fd5b505af11580156110d8573d6000803e3d6000fd5b505050506040513d6000823e3d601f19601f82011682018060405250606081101561110257600080fd5b8101908080519060200190929190805164010000000081111561112457600080fd5b8281019050602081018481111561113a57600080fd5b815185600182028301116401000000008211171561115757600080fd5b5050929190602001805164010000000081111561117357600080fd5b8281019050602081018481111561118957600080fd5b81518560018202830111640100000000821117156111a657600080fd5b505092919050505092509250925082156112cc577ff9d12c94bc5aee6b5b70f5e27e34a1065cba2fd55e708a2603d0c6d050738f87848383604051808481526020018060200180602001838103835285818151815260200191508051906020019080838360005b8381101561122857808201518184015260208101905061120d565b50505050905090810190601f1680156112555780820380516001836020036101000a031916815260200191505b50838103825284818151815260200191508051906020019080838360005b8381101561128e578082015181840152602081019050611273565b50505050905090810190601f1680156112bb5780820380516001836020036101000a031916815260200191505b509550505050505060405180910390a15b50505050565b6113106040805190810160405280600f81526020017f73657373696f6e2d6d616e61676572000000000000000000000000000000000081525061174b565b73ffffffffffffffffffffffffffffffffffffffff1663a3bfdf47826040518263ffffffff167c010000000000000000000000000000000000000000000000000000000002815260040180828152602001915050600060405180830381600087803b15801561137e57600080fd5b505af1158015611392573d6000803e3d6000fd5b5050505050565b60006113d96040805190810160405280601281526020017f73657373696f6e2d636f6e74726f6c6c6572000000000000000000000000000081525061174b565b73ffffffffffffffffffffffffffffffffffffffff1663abccc23f8585856040518463ffffffff167c0100000000000000000000000000000000000000000000000000000000028152600401808481526020018060200180602001838103835285818151815260200191508051906020019080838360005b8381101561146c578082015181840152602081019050611451565b50505050905090810190601f1680156114995780820380516001836020036101000a031916815260200191505b50838103825284818151815260200191508051906020019080838360005b838110156114d25780820151818401526020810190506114b7565b50505050905090810190601f1680156114ff5780820380516001836020036101000a031916815260200191505b5095505050505050602060405180830381600087803b15801561152157600080fd5b505af1158015611535573d6000803e3d6000fd5b505050506040513d602081101561154b57600080fd5b810190808051906020019092919050505090508015611675577e2244f9b4aab5a13dd33698ab25337ce091fd3ba4ebffde5a0c283ae2ec7a9f848484604051808481526020018060200180602001838103835285818151815260200191508051906020019080838360005b838110156115d15780820151818401526020810190506115b6565b50505050905090810190601f1680156115fe5780820380516001836020036101000a031916815260200191505b50838103825284818151815260200191508051906020019080838360005b8381101561163757808201518184015260208101905061161c565b50505050905090810190601f1680156116645780820380516001836020036101000a031916815260200191505b509550505050505060405180910390a15b50505050565b7fd2fe606d6e5a1d7a66766fa1df5b7868957cdeb3e929db537e6cea563a79e8e64282604051808381526020018281526020019250505060405180910390a150565b7f315accd74fc751a34409a65dfa01d8f9e8f1993869804f95ccdf4bc31a3fd8d94282604051808381526020018281526020019250505060405180910390a150565b7f935559313f338876d604cab515bcfd3d59ab91abd80afb5d5344c27ae379389f83838360405180848152602001838152602001828152602001935050505060405180910390a1505050565b60008060009054906101000a900473ffffffffffffffffffffffffffffffffffffffff1673ffffffffffffffffffffffffffffffffffffffff1663693ec85e836040518263ffffffff167c01000000000000000000000000000000000000000000000000000000000281526004018080602001828103825283818151815260200191508051906020019080838360005b838110156117f65780820151818401526020810190506117db565b50505050905090810190601f1680156118235780820380516001836020036101000a031916815260200191505b5092505050602060405180830381600087803b15801561184257600080fd5b505af1158015611856573d6000803e3d6000fd5b505050506040513d602081101561186c57600080fd5b8101908080519060200190929190505050905060008173ffffffffffffffffffffffffffffffffffffffff161415151561190e576040517f08c379a00000000000000000000000000000000000000000000000000000000081526004018080602001828103825260158152602001807f52656769737472792072657475726e656420307830000000000000000000000081525060200191505060405180910390fd5b9190505600a165627a7a7230582075cc9a228f5e0450f7f5fe62f1104992e7263d49a4edddd1febe81c80d61a5cd0029",
  "source": "pragma solidity 0.4.24;\n\nimport \"./IApplication.sol\";\nimport \"./RegistryDependent.sol\";\nimport \"../managers/Managers.sol\";\nimport {ASessionController} from \"../controllers/Controllers.sol\";\nimport {ACashInController} from \"../controllers/Controllers.sol\";\n\ncontract CapitalHero is IApplication, RegistryDependent {\n\n    string constant CASH_IN_CONTROLLER = \"cash-in-controller\";\n    string constant SESSION_MANAGER = \"session-manager\";\n    string constant SESSION_CONTROLLER = \"session-controller\";\n\n    event CashInOpened(uint256 channelId, uint256 sessionId);\n    event CashInClosed(uint256 channelId, uint256 sessionId);\n    event CashInBalanceUpdated(uint256 channelId, uint256 balance, uint256 sessionId);\n    event SessionCreated(uint256 timestamp, uint256 sessionId);\n    event SessionClosed(uint256 timestamp, uint256 sessionId);\n\n    constructor(address regAddr) RegistryDependent(regAddr) public {}\n\n    function openCashInChannel(uint256 sessionId) external {\n        ACashInController(componentForName(CASH_IN_CONTROLLER)).open(sessionId);\n    }\n\n    function closeCashInChannel(uint256 sessionId, uint256 channelId, uint256[] _fees, address[] _parties) external {\n        ACashInController(componentForName(CASH_IN_CONTROLLER)).close(sessionId, channelId, _fees, _parties);\n    }\n\n    function cashInChannelOpened(uint256 channelId, uint256 sessionId) external {\n        emit CashInOpened(channelId, sessionId);\n    }\n\n    function cashInBalanceUpdate(uint256 channelId, uint256 balance, uint256 sessionId) external {\n        emit CashInBalanceUpdated(channelId, balance, sessionId);\n    }\n\n    function cashInChannelClosed(uint256 channelId, uint256 sessionId) external {\n        emit CashInClosed(channelId, sessionId);\n    }\n\n    function newSessionCreated(uint256 _sessionId) external {\n        emit SessionCreated(now, _sessionId);\n    }\n\n    function closeSession(uint256 sessionId) external {\n        ASessionManager(componentForName(SESSION_MANAGER)).closeSession(sessionId);\n    }\n\n    function sessionClosed(uint256 sessionId) external {\n        emit SessionClosed(now, sessionId);\n    }\n\n    function getKioskInfo(uint256 _sessionId) public view returns (string memory _id, string memory _location, string memory _name, string memory _timezone) {\n        return ASessionController(componentForName(SESSION_CONTROLLER)).getKiosk(_sessionId);\n    }\n\n    event QRCodeScanned(uint256 sessionId, string url);\n    event QRScanningStopped(uint256 sessionId);\n    event ReceiptURLReceived(uint256 sessionId, string id, string url);\n    event ReceiptPrinted(uint256 sessionId, string id, string data);\n\n    function scanQRCodeWithLights(uint256 _sessionId) public {\n        (bool success, string memory url) = ASessionController(componentForName(SESSION_CONTROLLER)).scanQRCodeWithLights(_sessionId);\n        if (success) emit QRCodeScanned(_sessionId, url);\n    }\n\n    function scanQRCode(uint256 _sessionId) public {\n        (bool success, string memory url) = ASessionController(componentForName(SESSION_CONTROLLER)).scanQRCode(_sessionId);\n        if (success) emit QRCodeScanned(_sessionId, url);\n    }\n\n    function stopQRScanning(uint256 _sessionId) public {\n        bool success = ASessionController(componentForName(SESSION_CONTROLLER)).stopQRScanning(_sessionId);\n        if (success) emit QRScanningStopped(_sessionId);\n    }\n\n    function getReceiptUrl(uint256 _sessionId) public {\n        (bool success, string memory id, string memory url) = ASessionController(componentForName(SESSION_CONTROLLER)).getReceiptUrl(_sessionId);\n        if (success) emit ReceiptURLReceived(_sessionId, id, url);\n    }\n\n    function printReceipt(uint256 _sessionId, string _id, string _data) public {\n        bool success = ASessionController(componentForName(SESSION_CONTROLLER)).printReceipt(_sessionId, _id, _data);\n        if (success) emit ReceiptPrinted(_sessionId, _id, _data);\n    }\n\n}",
  "sourcePath": "/home/andrew/vault-logic-project/Development/test/vault-logic-api/truffle/contracts/application/CapitalHero.sol",
  "compiler": {
    "name": "solc",
    "version": "0.4.24+commit.e67f0147.Emscripten.clang"
  },
  "schemaVersion": "2.0.1",
  "updatedAt": "2018-10-16T12:45:45.750Z"
}