{
  "contractName": "CapitalHero",
  "abi": [
    {
      "inputs": [
        {
          "name": "_context",
          "type": "address"
        }
      ],
      "payable": false,
      "stateMutability": "nonpayable",
      "type": "constructor"
    },
    {
      "anonymous": false,
      "inputs": [
        {
          "indexed": false,
          "name": "_sessionId",
          "type": "uint256"
        },
        {
          "indexed": false,
          "name": "_maxBalance",
          "type": "uint256"
        }
      ],
      "name": "RequestSended",
      "type": "event"
    },
    {
      "anonymous": false,
      "inputs": [
        {
          "indexed": false,
          "name": "_sessionId",
          "type": "uint256"
        },
        {
          "indexed": false,
          "name": "_cashInId",
          "type": "uint256"
        }
      ],
      "name": "CashInOpened",
      "type": "event"
    },
    {
      "anonymous": false,
      "inputs": [
        {
          "indexed": false,
          "name": "_sessionId",
          "type": "uint256"
        },
        {
          "indexed": false,
          "name": "_cashInId",
          "type": "uint256"
        },
        {
          "indexed": false,
          "name": "_amount",
          "type": "uint256"
        }
      ],
      "name": "CashInUpdate",
      "type": "event"
    },
    {
      "anonymous": false,
      "inputs": [
        {
          "indexed": false,
          "name": "_sessionId",
          "type": "uint256"
        }
      ],
      "name": "CashInFail",
      "type": "event"
    },
    {
      "anonymous": false,
      "inputs": [
        {
          "indexed": false,
          "name": "_sessionId",
          "type": "uint256"
        }
      ],
      "name": "ScanAccepted",
      "type": "event"
    },
    {
      "anonymous": false,
      "inputs": [
        {
          "indexed": false,
          "name": "_sessionId",
          "type": "uint256"
        },
        {
          "indexed": false,
          "name": "_port",
          "type": "string"
        },
        {
          "indexed": false,
          "name": "_url",
          "type": "string"
        },
        {
          "indexed": false,
          "name": "_href",
          "type": "string"
        }
      ],
      "name": "SuccessQR",
      "type": "event"
    },
    {
      "anonymous": false,
      "inputs": [
        {
          "indexed": false,
          "name": "_sessionId",
          "type": "uint256"
        },
        {
          "indexed": false,
          "name": "_data",
          "type": "string"
        }
      ],
      "name": "QRScanned",
      "type": "event"
    },
    {
      "anonymous": false,
      "inputs": [
        {
          "indexed": false,
          "name": "_sessionId",
          "type": "uint256"
        }
      ],
      "name": "QRFail",
      "type": "event"
    },
    {
      "constant": false,
      "inputs": [
        {
          "name": "_sessionId",
          "type": "uint256"
        },
        {
          "name": "_maxBalance",
          "type": "uint256"
        }
      ],
      "name": "open",
      "outputs": [],
      "payable": false,
      "stateMutability": "nonpayable",
      "type": "function"
    },
    {
      "constant": false,
      "inputs": [
        {
          "name": "_sessionId",
          "type": "uint256"
        }
      ],
      "name": "_openFail",
      "outputs": [],
      "payable": false,
      "stateMutability": "nonpayable",
      "type": "function"
    },
    {
      "constant": false,
      "inputs": [
        {
          "name": "_sessionId",
          "type": "uint256"
        },
        {
          "name": "_cashInId",
          "type": "uint256"
        }
      ],
      "name": "_openSuccess",
      "outputs": [],
      "payable": false,
      "stateMutability": "nonpayable",
      "type": "function"
    },
    {
      "constant": false,
      "inputs": [
        {
          "name": "_sessionId",
          "type": "uint256"
        },
        {
          "name": "_cashInId",
          "type": "uint256"
        },
        {
          "name": "_amount",
          "type": "uint256"
        }
      ],
      "name": "_balanceUpdate",
      "outputs": [],
      "payable": false,
      "stateMutability": "nonpayable",
      "type": "function"
    },
    {
      "constant": false,
      "inputs": [
        {
          "name": "_sessionId",
          "type": "uint256"
        }
      ],
      "name": "scanQRWithLights",
      "outputs": [],
      "payable": false,
      "stateMutability": "nonpayable",
      "type": "function"
    },
    {
      "constant": false,
      "inputs": [
        {
          "name": "_sessionId",
          "type": "uint256"
        },
        {
          "name": "_port",
          "type": "string"
        },
        {
          "name": "_url",
          "type": "string"
        },
        {
          "name": "_href",
          "type": "string"
        }
      ],
      "name": "__successStartScan",
      "outputs": [],
      "payable": false,
      "stateMutability": "nonpayable",
      "type": "function"
    },
    {
      "constant": false,
      "inputs": [
        {
          "name": "_sessionId",
          "type": "uint256"
        },
        {
          "name": "_data",
          "type": "string"
        }
      ],
      "name": "__QRScanned",
      "outputs": [],
      "payable": false,
      "stateMutability": "nonpayable",
      "type": "function"
    },
    {
      "constant": false,
      "inputs": [
        {
          "name": "_sessionId",
          "type": "uint256"
        }
      ],
      "name": "__QRFail",
      "outputs": [],
      "payable": false,
      "stateMutability": "nonpayable",
      "type": "function"
    }
  ],
  "bytecode": "0x608060405234801561001057600080fd5b506040516020806109f0833981016040525160008054600160a060020a03909216600160a060020a031990921691909117905561099e806100526000396000f30060806040526004361061008d5763ffffffff7c010000000000000000000000000000000000000000000000000000000060003504166317bd8ac881146100925780633c3972ad1461016e5780634082de671461018657806355b0117a146101a15780637792c9bb146101ff578063b8e8d9f31461021a578063bed1348714610232578063e19866281461024a575b600080fd5b34801561009e57600080fd5b5060408051602060046024803582810135601f810185900485028601850190965285855261016c95833595369560449491939091019190819084018382808284375050604080516020601f89358b018035918201839004830284018301909452808352979a99988101979196509182019450925082915084018382808284375050604080516020601f89358b018035918201839004830284018301909452808352979a9998810197919650918201945092508291508401838280828437509497506102689650505050505050565b005b34801561017a57600080fd5b5061016c6004356103dd565b34801561019257600080fd5b5061016c600435602435610413565b3480156101ad57600080fd5b5060408051602060046024803582810135601f810185900485028601850190965285855261016c95833595369560449491939091019190819084018382808284375094975061064c9650505050505050565b34801561020b57600080fd5b5061016c6004356024356106f1565b34801561022657600080fd5b5061016c600435610730565b34801561023e57600080fd5b5061016c6004356108f7565b34801561025657600080fd5b5061016c60043560243560443561092d565b7f5aa762a71fc9052fd096e25c33ec980a5d92a7ed64a106c1c0adc7b584ec67298484848460405180858152602001806020018060200180602001848103845287818151815260200191508051906020019080838360005b838110156102d85781810151838201526020016102c0565b50505050905090810190601f1680156103055780820380516001836020036101000a031916815260200191505b50848103835286518152865160209182019188019080838360005b83811015610338578181015183820152602001610320565b50505050905090810190601f1680156103655780820380516001836020036101000a031916815260200191505b50848103825285518152855160209182019187019080838360005b83811015610398578181015183820152602001610380565b50505050905090810190601f1680156103c55780820380516001836020036101000a031916815260200191505b5097505050505050505060405180910390a150505050565b6040805182815290517fd5a4f36edd330e00bf453f88f2b2303f2ea783b4e3c560613bcd2c8a5c01f1e29181900360200190a150565b60008054604080518082018252601281527f636173682d696e2d636f6e74726f6c6c65720000000000000000000000000000602080830191825292517f693ec85e0000000000000000000000000000000000000000000000000000000081526004810193845282516024820152825173ffffffffffffffffffffffffffffffffffffffff9095169563693ec85e959394938493604490930192918190849084905b838110156104cc5781810151838201526020016104b4565b50505050905090810190601f1680156104f95780820380516001836020036101000a031916815260200191505b5092505050602060405180830381600087803b15801561051857600080fd5b505af115801561052c573d6000803e3d6000fd5b505050506040513d602081101561054257600080fd5b5051604080517fe5be8eec000000000000000000000000000000000000000000000000000000008152600481018590526024810184905268010000000000000000640100000000300263bed13487811782026044840152637792c9bb81178202606484015263e198662817026084820152905173ffffffffffffffffffffffffffffffffffffffff9092169163e5be8eec9160a48082019260009290919082900301818387803b1580156105f557600080fd5b505af1158015610609573d6000803e3d6000fd5b5050604080518581526020810185905281517f647cba28e04f550f0f4b65117e955dbbe9cce598f331c2a7ad84a19cc8706d879450908190039091019150a15050565b7ff4290e594ef3655b34ee7ff780b836ef65a92ad35737a1f15350dc9ccada25d182826040518083815260200180602001828103825283818151815260200191508051906020019080838360005b838110156106b257818101518382015260200161069a565b50505050905090810190601f1680156106df5780820380516001836020036101000a031916815260200191505b50935050505060405180910390a15050565b604080518381526020810183905281517fc5056889444309461095c5b36d568a7e37e4e0114c283a3f59810e6e7d5e1b83929181900390910190a15050565b60008054604080517f693ec85e000000000000000000000000000000000000000000000000000000008152602060048201819052601160248301527f63616d6572612d636f6e74726f6c6c65720000000000000000000000000000006044830152915173ffffffffffffffffffffffffffffffffffffffff9093169363693ec85e93606480840194939192918390030190829087803b1580156107d257600080fd5b505af11580156107e6573d6000803e3d6000fd5b505050506040513d60208110156107fc57600080fd5b5051604080517f41ad3c6f000000000000000000000000000000000000000000000000000000008152600481018490526801000000000000000064010000000030026317bd8ac88117820260248401526355b0117a811782026044840152633c3972ad17026064820152905173ffffffffffffffffffffffffffffffffffffffff909216916341ad3c6f9160848082019260009290919082900301818387803b1580156108a857600080fd5b505af11580156108bc573d6000803e3d6000fd5b50506040805184815290517f47df8815d9cc5f0c5865fe0f72a2d229fd7006c3dd73f45d67793866399623b89350908190036020019150a150565b6040805182815290517ffa8aefc80899a624d8ea76e5b5ee8c91ca4bf59d5abab5b8462d52aa4bb057ec9181900360200190a150565b604080518481526020810184905280820183905290517fe78061f1ecca254f11af5ba62050f89f89ab45a16cf807ce56e3cd61a8b9d4e39181900360600190a15050505600a165627a7a7230582048d7cbe408c9576dd9b47a82b88f1af3ec87d898c2a7eeb4d2b29addcd49c9480029",
  "source": "pragma solidity 0.4.24;\n\nimport \"../platform/Context.sol\";\nimport \"../controllers/api/public/CashInApi.sol\";\nimport \"../controllers/api/public/CameraApi.sol\";\n\ncontract CapitalHero {\n\n    string constant CONTROLLER = \"cash-in-controller\";\n\n    Context private context;\n\n    constructor(address _context) public {\n        context = Context(_context);\n    }\n\n    event RequestSended(uint256 _sessionId, uint256 _maxBalance);\n    event CashInOpened(uint256 _sessionId, uint256 _cashInId);\n    event CashInUpdate(uint256 _sessionId, uint256 _cashInId, uint256 _amount);\n    event CashInFail(uint256 _sessionId);\n\n    function open(uint256 _sessionId, uint256 _maxBalance) public {\n        CashInApi(context.get(CONTROLLER)).openCashInChannel(\n            _sessionId,\n            _maxBalance,\n            this._openFail,\n            this._openSuccess,\n            this._balanceUpdate\n        );\n        emit RequestSended(_sessionId, _maxBalance);\n    }\n\n    function _openFail(uint256 _sessionId) public {\n        emit CashInFail(_sessionId);\n    }\n\n    function _openSuccess(uint256 _sessionId, uint256 _cashInId) public {\n        emit CashInOpened(_sessionId, _cashInId);\n    }\n\n    function _balanceUpdate(uint256 _sessionId, uint256 _cashInId, uint256 _amount) public {\n        emit CashInUpdate(_sessionId, _cashInId, _amount);\n    }\n\n    event ScanAccepted(uint256 _sessionId);\n    event SuccessQR(uint256 _sessionId, string _port, string _url, string _href);\n    event QRScanned(uint256 _sessionId, string _data);\n    event QRFail(uint256 _sessionId);\n\n    function scanQRWithLights(uint256 _sessionId) public {\n        CameraApi(context.get(\"camera-controller\")).scanQRCodeWithLights(\n            _sessionId,\n            this.__successStartScan,\n            this.__QRScanned,\n            this.__QRFail\n        );\n        emit ScanAccepted(_sessionId);\n    }\n\n    function __successStartScan(uint256 _sessionId, string _port, string _url, string _href) public {\n        emit SuccessQR(_sessionId, _port, _url, _href);\n    }\n\n    function __QRScanned(uint256 _sessionId, string _data) public {\n        emit QRScanned(_sessionId, _data);\n    }\n\n    function __QRFail(uint256 _sessionId) public {\n        emit QRFail(_sessionId);\n    }\n\n}",
  "sourcePath": "/home/andrew/vault-logic-project/Development/test/vault-logic-api/truffle/contracts/application/CapitalHero.sol",
  "compiler": {
    "name": "solc",
    "version": "0.4.24+commit.e67f0147.Emscripten.clang"
  },
  "schemaVersion": "2.0.1",
  "updatedAt": "2018-11-05T14:19:22.283Z"
}