{
  "contractName": "CapitalHero",
  "abi": [
    {
      "inputs": [
        {
          "name": "regAddr",
          "type": "address"
        }
      ],
      "payable": false,
      "stateMutability": "nonpayable",
      "type": "constructor"
    },
    {
      "anonymous": false,
      "inputs": [
        {
          "indexed": false,
          "name": "channelId",
          "type": "uint256"
        },
        {
          "indexed": false,
          "name": "sessionId",
          "type": "uint256"
        }
      ],
      "name": "CashInOpened",
      "type": "event"
    },
    {
      "anonymous": false,
      "inputs": [
        {
          "indexed": false,
          "name": "channelId",
          "type": "uint256"
        },
        {
          "indexed": false,
          "name": "sessionId",
          "type": "uint256"
        }
      ],
      "name": "CashInClosed",
      "type": "event"
    },
    {
      "anonymous": false,
      "inputs": [
        {
          "indexed": false,
          "name": "channelId",
          "type": "uint256"
        },
        {
          "indexed": false,
          "name": "balance",
          "type": "uint256"
        },
        {
          "indexed": false,
          "name": "sessionId",
          "type": "uint256"
        }
      ],
      "name": "CashInBalanceUpdated",
      "type": "event"
    },
    {
      "anonymous": false,
      "inputs": [
        {
          "indexed": false,
          "name": "timestamp",
          "type": "uint256"
        },
        {
          "indexed": false,
          "name": "sessionId",
          "type": "uint256"
        }
      ],
      "name": "SessionCreated",
      "type": "event"
    },
    {
      "anonymous": false,
      "inputs": [
        {
          "indexed": false,
          "name": "timestamp",
          "type": "uint256"
        },
        {
          "indexed": false,
          "name": "sessionId",
          "type": "uint256"
        }
      ],
      "name": "SessionClosed",
      "type": "event"
    },
    {
      "anonymous": false,
      "inputs": [
        {
          "indexed": false,
          "name": "sessionId",
          "type": "uint256"
        },
        {
          "indexed": false,
          "name": "url",
          "type": "string"
        }
      ],
      "name": "QRCodeScanned",
      "type": "event"
    },
    {
      "anonymous": false,
      "inputs": [
        {
          "indexed": false,
          "name": "sessionId",
          "type": "uint256"
        }
      ],
      "name": "QRScanningStopped",
      "type": "event"
    },
    {
      "anonymous": false,
      "inputs": [
        {
          "indexed": false,
          "name": "sessionId",
          "type": "uint256"
        },
        {
          "indexed": false,
          "name": "id",
          "type": "string"
        },
        {
          "indexed": false,
          "name": "url",
          "type": "string"
        }
      ],
      "name": "ReceiptURLReceived",
      "type": "event"
    },
    {
      "anonymous": false,
      "inputs": [
        {
          "indexed": false,
          "name": "sessionId",
          "type": "uint256"
        },
        {
          "indexed": false,
          "name": "id",
          "type": "string"
        },
        {
          "indexed": false,
          "name": "data",
          "type": "string"
        }
      ],
      "name": "ReceiptPrinted",
      "type": "event"
    },
    {
      "constant": false,
      "inputs": [
        {
          "name": "sessionId",
          "type": "uint256"
        },
        {
          "name": "_maxAmount",
          "type": "uint256"
        }
      ],
      "name": "openCashInChannel",
      "outputs": [],
      "payable": false,
      "stateMutability": "nonpayable",
      "type": "function"
    },
    {
      "constant": false,
      "inputs": [
        {
          "name": "sessionId",
          "type": "uint256"
        },
        {
          "name": "channelId",
          "type": "uint256"
        },
        {
          "name": "_fees",
          "type": "uint256[]"
        },
        {
          "name": "_parties",
          "type": "address[]"
        }
      ],
      "name": "closeCashInChannel",
      "outputs": [],
      "payable": false,
      "stateMutability": "nonpayable",
      "type": "function"
    },
    {
      "constant": false,
      "inputs": [
        {
          "name": "channelId",
          "type": "uint256"
        },
        {
          "name": "sessionId",
          "type": "uint256"
        }
      ],
      "name": "cashInChannelOpened",
      "outputs": [],
      "payable": false,
      "stateMutability": "nonpayable",
      "type": "function"
    },
    {
      "constant": false,
      "inputs": [
        {
          "name": "channelId",
          "type": "uint256"
        },
        {
          "name": "balance",
          "type": "uint256"
        },
        {
          "name": "sessionId",
          "type": "uint256"
        }
      ],
      "name": "cashInBalanceUpdate",
      "outputs": [],
      "payable": false,
      "stateMutability": "nonpayable",
      "type": "function"
    },
    {
      "constant": false,
      "inputs": [
        {
          "name": "channelId",
          "type": "uint256"
        },
        {
          "name": "sessionId",
          "type": "uint256"
        }
      ],
      "name": "cashInChannelClosed",
      "outputs": [],
      "payable": false,
      "stateMutability": "nonpayable",
      "type": "function"
    },
    {
      "constant": false,
      "inputs": [
        {
          "name": "_sessionId",
          "type": "uint256"
        }
      ],
      "name": "newSessionCreated",
      "outputs": [],
      "payable": false,
      "stateMutability": "nonpayable",
      "type": "function"
    },
    {
      "constant": false,
      "inputs": [
        {
          "name": "sessionId",
          "type": "uint256"
        }
      ],
      "name": "closeSession",
      "outputs": [],
      "payable": false,
      "stateMutability": "nonpayable",
      "type": "function"
    },
    {
      "constant": false,
      "inputs": [
        {
          "name": "sessionId",
          "type": "uint256"
        }
      ],
      "name": "sessionClosed",
      "outputs": [],
      "payable": false,
      "stateMutability": "nonpayable",
      "type": "function"
    },
    {
      "constant": true,
      "inputs": [
        {
          "name": "_sessionId",
          "type": "uint256"
        }
      ],
      "name": "getKioskInfo",
      "outputs": [
        {
          "name": "_id",
          "type": "string"
        },
        {
          "name": "_location",
          "type": "string"
        },
        {
          "name": "_name",
          "type": "string"
        },
        {
          "name": "_timezone",
          "type": "string"
        }
      ],
      "payable": false,
      "stateMutability": "view",
      "type": "function"
    },
    {
      "constant": false,
      "inputs": [
        {
          "name": "_sessionId",
          "type": "uint256"
        }
      ],
      "name": "scanQRCodeWithLights",
      "outputs": [],
      "payable": false,
      "stateMutability": "nonpayable",
      "type": "function"
    },
    {
      "constant": false,
      "inputs": [
        {
          "name": "_sessionId",
          "type": "uint256"
        }
      ],
      "name": "scanQRCode",
      "outputs": [],
      "payable": false,
      "stateMutability": "nonpayable",
      "type": "function"
    },
    {
      "constant": false,
      "inputs": [
        {
          "name": "_sessionId",
          "type": "uint256"
        }
      ],
      "name": "stopQRScanning",
      "outputs": [],
      "payable": false,
      "stateMutability": "nonpayable",
      "type": "function"
    },
    {
      "constant": false,
      "inputs": [
        {
          "name": "_sessionId",
          "type": "uint256"
        }
      ],
      "name": "getReceiptUrl",
      "outputs": [],
      "payable": false,
      "stateMutability": "nonpayable",
      "type": "function"
    },
    {
      "constant": false,
      "inputs": [
        {
          "name": "_sessionId",
          "type": "uint256"
        },
        {
          "name": "_id",
          "type": "string"
        },
        {
          "name": "_data",
          "type": "string"
        }
      ],
      "name": "printReceipt",
      "outputs": [],
      "payable": false,
      "stateMutability": "nonpayable",
      "type": "function"
    }
  ],
  "bytecode": "0x608060405234801561001057600080fd5b506040516020806119d78339810180604052810190808051906020019092919050505080806000806101000a81548173ffffffffffffffffffffffffffffffffffffffff021916908373ffffffffffffffffffffffffffffffffffffffff1602179055505050611952806100856000396000f3006080604052600436106100d0576000357c0100000000000000000000000000000000000000000000000000000000900463ffffffff1680630cb35bff146100d55780630cb4004d146102bf57806313e7089614610326578063500260381461035d57806352fd43a11461038a5780635b56a8fa146103c1578063636b5409146103ee5780636886a5c21461041b5780639fc78a9114610452578063a3bfdf471461047f578063abccc23f146104ac578063ae1f1ee114610565578063d7bbd1d414610592578063fc7055dd146105bf575b600080fd5b3480156100e157600080fd5b5061010060048036038101908080359060200190929190505050610600565b6040518080602001806020018060200180602001858103855289818151815260200191508051906020019080838360005b8381101561014c578082015181840152602081019050610131565b50505050905090810190601f1680156101795780820380516001836020036101000a031916815260200191505b50858103845288818151815260200191508051906020019080838360005b838110156101b2578082015181840152602081019050610197565b50505050905090810190601f1680156101df5780820380516001836020036101000a031916815260200191505b50858103835287818151815260200191508051906020019080838360005b838110156102185780820151818401526020810190506101fd565b50505050905090810190601f1680156102455780820380516001836020036101000a031916815260200191505b50858103825286818151815260200191508051906020019080838360005b8381101561027e578082015181840152602081019050610263565b50505050905090810190601f1680156102ab5780820380516001836020036101000a031916815260200191505b509850505050505050505060405180910390f35b3480156102cb57600080fd5b50610324600480360381019080803590602001909291908035906020019092919080359060200190820180359060200191909192939192939080359060200190820180359060200191909192939192939050505061083f565b005b34801561033257600080fd5b5061035b6004803603810190808035906020019092919080359060200190929190505050610981565b005b34801561036957600080fd5b5061038860048036038101908080359060200190929190505050610a75565b005b34801561039657600080fd5b506103bf6004803603810190808035906020019092919080359060200190929190505050610ba2565b005b3480156103cd57600080fd5b506103ec60048036038101908080359060200190929190505050610be5565b005b3480156103fa57600080fd5b5061041960048036038101908080359060200190929190505050610de4565b005b34801561042757600080fd5b506104506004803603810190808035906020019092919080359060200190929190505050610fe3565b005b34801561045e57600080fd5b5061047d60048036038101908080359060200190929190505050611026565b005b34801561048b57600080fd5b506104aa600480360381019080803590602001909291905050506112e5565b005b3480156104b857600080fd5b5061056360048036038101908080359060200190929190803590602001908201803590602001908080601f0160208091040260200160405190810160405280939291908181526020018383808284378201915050505050509192919290803590602001908201803590602001908080601f01602080910402602001604051908101604052809392919081815260200183838082843782019150505050505091929192905050506113ac565b005b34801561057157600080fd5b506105906004803603810190808035906020019092919050505061168e565b005b34801561059e57600080fd5b506105bd600480360381019080803590602001909291905050506116d0565b005b3480156105cb57600080fd5b506105fe600480360381019080803590602001909291908035906020019092919080359060200190929190505050611712565b005b6060806060806106446040805190810160405280601281526020017f73657373696f6e2d636f6e74726f6c6c6572000000000000000000000000000081525061175e565b73ffffffffffffffffffffffffffffffffffffffff166339df5dcd866040518263ffffffff167c010000000000000000000000000000000000000000000000000000000002815260040180828152602001915050600060405180830381600087803b1580156106b257600080fd5b505af11580156106c6573d6000803e3d6000fd5b505050506040513d6000823e3d601f19601f8201168201806040525060808110156106f057600080fd5b81019080805164010000000081111561070857600080fd5b8281019050602081018481111561071e57600080fd5b815185600182028301116401000000008211171561073b57600080fd5b5050929190602001805164010000000081111561075757600080fd5b8281019050602081018481111561076d57600080fd5b815185600182028301116401000000008211171561078a57600080fd5b505092919060200180516401000000008111156107a657600080fd5b828101905060208101848111156107bc57600080fd5b81518560018202830111640100000000821117156107d957600080fd5b505092919060200180516401000000008111156107f557600080fd5b8281019050602081018481111561080b57600080fd5b815185600182028301116401000000008211171561082857600080fd5b505092919050505093509350935093509193509193565b61087d6040805190810160405280601281526020017f636173682d696e2d636f6e74726f6c6c6572000000000000000000000000000081525061175e565b73ffffffffffffffffffffffffffffffffffffffff1663a97364058787878787876040518763ffffffff167c0100000000000000000000000000000000000000000000000000000000028152600401808781526020018681526020018060200180602001838103835287878281815260200192506020028082843782019150508381038252858582818152602001925060200280828437820191505098505050505050505050602060405180830381600087803b15801561093d57600080fd5b505af1158015610951573d6000803e3d6000fd5b505050506040513d602081101561096757600080fd5b810190808051906020019092919050505050505050505050565b6109bf6040805190810160405280601281526020017f636173682d696e2d636f6e74726f6c6c6572000000000000000000000000000081525061175e565b73ffffffffffffffffffffffffffffffffffffffff16634082de6783836040518363ffffffff167c01000000000000000000000000000000000000000000000000000000000281526004018083815260200182815260200192505050602060405180830381600087803b158015610a3557600080fd5b505af1158015610a49573d6000803e3d6000fd5b505050506040513d6020811015610a5f57600080fd5b8101908080519060200190929190505050505050565b6000610ab56040805190810160405280601281526020017f73657373696f6e2d636f6e74726f6c6c6572000000000000000000000000000081525061175e565b73ffffffffffffffffffffffffffffffffffffffff166350026038836040518263ffffffff167c010000000000000000000000000000000000000000000000000000000002815260040180828152602001915050602060405180830381600087803b158015610b2357600080fd5b505af1158015610b37573d6000803e3d6000fd5b505050506040513d6020811015610b4d57600080fd5b810190808051906020019092919050505090508015610b9e577f0ad40631c90676315d189df642d606c501fa8fcfafa9deaa586576125c9acd57826040518082815260200191505060405180910390a15b5050565b7f280af031364d964d103568f906663e7e73cc09811a104da2ebfe8f65bdd185098282604051808381526020018281526020019250505060405180910390a15050565b60006060610c276040805190810160405280601281526020017f73657373696f6e2d636f6e74726f6c6c6572000000000000000000000000000081525061175e565b73ffffffffffffffffffffffffffffffffffffffff16635b56a8fa846040518263ffffffff167c010000000000000000000000000000000000000000000000000000000002815260040180828152602001915050600060405180830381600087803b158015610c9557600080fd5b505af1158015610ca9573d6000803e3d6000fd5b505050506040513d6000823e3d601f19601f820116820180604052506040811015610cd357600080fd5b81019080805190602001909291908051640100000000811115610cf557600080fd5b82810190506020810184811115610d0b57600080fd5b8151856001820283011164010000000082111715610d2857600080fd5b5050929190505050915091508115610ddf577f8710178e04e67e1032df473edb0aa71d941562b1e2e7ca6054384c0d9f84c05583826040518083815260200180602001828103825283818151815260200191508051906020019080838360005b83811015610da3578082015181840152602081019050610d88565b50505050905090810190601f168015610dd05780820380516001836020036101000a031916815260200191505b50935050505060405180910390a15b505050565b60006060610e266040805190810160405280601281526020017f73657373696f6e2d636f6e74726f6c6c6572000000000000000000000000000081525061175e565b73ffffffffffffffffffffffffffffffffffffffff1663636b5409846040518263ffffffff167c010000000000000000000000000000000000000000000000000000000002815260040180828152602001915050600060405180830381600087803b158015610e9457600080fd5b505af1158015610ea8573d6000803e3d6000fd5b505050506040513d6000823e3d601f19601f820116820180604052506040811015610ed257600080fd5b81019080805190602001909291908051640100000000811115610ef457600080fd5b82810190506020810184811115610f0a57600080fd5b8151856001820283011164010000000082111715610f2757600080fd5b5050929190505050915091508115610fde577f8710178e04e67e1032df473edb0aa71d941562b1e2e7ca6054384c0d9f84c05583826040518083815260200180602001828103825283818151815260200191508051906020019080838360005b83811015610fa2578082015181840152602081019050610f87565b50505050905090810190601f168015610fcf5780820380516001836020036101000a031916815260200191505b50935050505060405180910390a15b505050565b7fc5056889444309461095c5b36d568a7e37e4e0114c283a3f59810e6e7d5e1b838282604051808381526020018281526020019250505060405180910390a15050565b60006060806110696040805190810160405280601281526020017f73657373696f6e2d636f6e74726f6c6c6572000000000000000000000000000081525061175e565b73ffffffffffffffffffffffffffffffffffffffff16639fc78a91856040518263ffffffff167c010000000000000000000000000000000000000000000000000000000002815260040180828152602001915050600060405180830381600087803b1580156110d757600080fd5b505af11580156110eb573d6000803e3d6000fd5b505050506040513d6000823e3d601f19601f82011682018060405250606081101561111557600080fd5b8101908080519060200190929190805164010000000081111561113757600080fd5b8281019050602081018481111561114d57600080fd5b815185600182028301116401000000008211171561116a57600080fd5b5050929190602001805164010000000081111561118657600080fd5b8281019050602081018481111561119c57600080fd5b81518560018202830111640100000000821117156111b957600080fd5b505092919050505092509250925082156112df577ff9d12c94bc5aee6b5b70f5e27e34a1065cba2fd55e708a2603d0c6d050738f87848383604051808481526020018060200180602001838103835285818151815260200191508051906020019080838360005b8381101561123b578082015181840152602081019050611220565b50505050905090810190601f1680156112685780820380516001836020036101000a031916815260200191505b50838103825284818151815260200191508051906020019080838360005b838110156112a1578082015181840152602081019050611286565b50505050905090810190601f1680156112ce5780820380516001836020036101000a031916815260200191505b509550505050505060405180910390a15b50505050565b6113236040805190810160405280600f81526020017f73657373696f6e2d6d616e61676572000000000000000000000000000000000081525061175e565b73ffffffffffffffffffffffffffffffffffffffff1663a3bfdf47826040518263ffffffff167c010000000000000000000000000000000000000000000000000000000002815260040180828152602001915050600060405180830381600087803b15801561139157600080fd5b505af11580156113a5573d6000803e3d6000fd5b5050505050565b60006113ec6040805190810160405280601281526020017f73657373696f6e2d636f6e74726f6c6c6572000000000000000000000000000081525061175e565b73ffffffffffffffffffffffffffffffffffffffff1663abccc23f8585856040518463ffffffff167c0100000000000000000000000000000000000000000000000000000000028152600401808481526020018060200180602001838103835285818151815260200191508051906020019080838360005b8381101561147f578082015181840152602081019050611464565b50505050905090810190601f1680156114ac5780820380516001836020036101000a031916815260200191505b50838103825284818151815260200191508051906020019080838360005b838110156114e55780820151818401526020810190506114ca565b50505050905090810190601f1680156115125780820380516001836020036101000a031916815260200191505b5095505050505050602060405180830381600087803b15801561153457600080fd5b505af1158015611548573d6000803e3d6000fd5b505050506040513d602081101561155e57600080fd5b810190808051906020019092919050505090508015611688577e2244f9b4aab5a13dd33698ab25337ce091fd3ba4ebffde5a0c283ae2ec7a9f848484604051808481526020018060200180602001838103835285818151815260200191508051906020019080838360005b838110156115e45780820151818401526020810190506115c9565b50505050905090810190601f1680156116115780820380516001836020036101000a031916815260200191505b50838103825284818151815260200191508051906020019080838360005b8381101561164a57808201518184015260208101905061162f565b50505050905090810190601f1680156116775780820380516001836020036101000a031916815260200191505b509550505050505060405180910390a15b50505050565b7fd2fe606d6e5a1d7a66766fa1df5b7868957cdeb3e929db537e6cea563a79e8e64282604051808381526020018281526020019250505060405180910390a150565b7f315accd74fc751a34409a65dfa01d8f9e8f1993869804f95ccdf4bc31a3fd8d94282604051808381526020018281526020019250505060405180910390a150565b7f935559313f338876d604cab515bcfd3d59ab91abd80afb5d5344c27ae379389f83838360405180848152602001838152602001828152602001935050505060405180910390a1505050565b60008060009054906101000a900473ffffffffffffffffffffffffffffffffffffffff1673ffffffffffffffffffffffffffffffffffffffff1663693ec85e836040518263ffffffff167c01000000000000000000000000000000000000000000000000000000000281526004018080602001828103825283818151815260200191508051906020019080838360005b838110156118095780820151818401526020810190506117ee565b50505050905090810190601f1680156118365780820380516001836020036101000a031916815260200191505b5092505050602060405180830381600087803b15801561185557600080fd5b505af1158015611869573d6000803e3d6000fd5b505050506040513d602081101561187f57600080fd5b8101908080519060200190929190505050905060008173ffffffffffffffffffffffffffffffffffffffff1614151515611921576040517f08c379a00000000000000000000000000000000000000000000000000000000081526004018080602001828103825260158152602001807f52656769737472792072657475726e656420307830000000000000000000000081525060200191505060405180910390fd5b9190505600a165627a7a72305820a67fb535ae4dc6356df3c9656dae5822d8160e60d503002f25660bd0e3387c100029",
  "source": "pragma solidity 0.4.24;\n\nimport \"./IApplication.sol\";\nimport \"./RegistryDependent.sol\";\nimport \"../managers/Managers.sol\";\nimport {ASessionController} from \"../controllers/Controllers.sol\";\nimport {ACashInController} from \"../controllers/Controllers.sol\";\n\ncontract CapitalHero is IApplication, RegistryDependent {\n\n    string constant CASH_IN_CONTROLLER = \"cash-in-controller\";\n    string constant SESSION_MANAGER = \"session-manager\";\n    string constant SESSION_CONTROLLER = \"session-controller\";\n\n    event CashInOpened(uint256 channelId, uint256 sessionId);\n    event CashInClosed(uint256 channelId, uint256 sessionId);\n    event CashInBalanceUpdated(uint256 channelId, uint256 balance, uint256 sessionId);\n    event SessionCreated(uint256 timestamp, uint256 sessionId);\n    event SessionClosed(uint256 timestamp, uint256 sessionId);\n\n    constructor(address regAddr) RegistryDependent(regAddr) public {}\n\n    function openCashInChannel(uint256 sessionId, uint256 _maxAmount) external {\n        ACashInController(componentForName(CASH_IN_CONTROLLER)).open(sessionId, _maxAmount);\n    }\n\n    function closeCashInChannel(uint256 sessionId, uint256 channelId, uint256[] _fees, address[] _parties) external {\n        ACashInController(componentForName(CASH_IN_CONTROLLER)).close(sessionId, channelId, _fees, _parties);\n    }\n\n    function cashInChannelOpened(uint256 channelId, uint256 sessionId) external {\n        emit CashInOpened(channelId, sessionId);\n    }\n\n    function cashInBalanceUpdate(uint256 channelId, uint256 balance, uint256 sessionId) external {\n        emit CashInBalanceUpdated(channelId, balance, sessionId);\n    }\n\n    function cashInChannelClosed(uint256 channelId, uint256 sessionId) external {\n        emit CashInClosed(channelId, sessionId);\n    }\n\n    function newSessionCreated(uint256 _sessionId) external {\n        emit SessionCreated(now, _sessionId);\n    }\n\n    function closeSession(uint256 sessionId) external {\n        ASessionManager(componentForName(SESSION_MANAGER)).closeSession(sessionId);\n    }\n\n    function sessionClosed(uint256 sessionId) external {\n        emit SessionClosed(now, sessionId);\n    }\n\n    function getKioskInfo(uint256 _sessionId) public view returns (string memory _id, string memory _location, string memory _name, string memory _timezone) {\n        return ASessionController(componentForName(SESSION_CONTROLLER)).getKiosk(_sessionId);\n    }\n\n    event QRCodeScanned(uint256 sessionId, string url);\n    event QRScanningStopped(uint256 sessionId);\n    event ReceiptURLReceived(uint256 sessionId, string id, string url);\n    event ReceiptPrinted(uint256 sessionId, string id, string data);\n\n    function scanQRCodeWithLights(uint256 _sessionId) public {\n        (bool success, string memory url) = ASessionController(componentForName(SESSION_CONTROLLER)).scanQRCodeWithLights(_sessionId);\n        if (success) emit QRCodeScanned(_sessionId, url);\n    }\n\n    function scanQRCode(uint256 _sessionId) public {\n        (bool success, string memory url) = ASessionController(componentForName(SESSION_CONTROLLER)).scanQRCode(_sessionId);\n        if (success) emit QRCodeScanned(_sessionId, url);\n    }\n\n    function stopQRScanning(uint256 _sessionId) public {\n        bool success = ASessionController(componentForName(SESSION_CONTROLLER)).stopQRScanning(_sessionId);\n        if (success) emit QRScanningStopped(_sessionId);\n    }\n\n    function getReceiptUrl(uint256 _sessionId) public {\n        (bool success, string memory id, string memory url) = ASessionController(componentForName(SESSION_CONTROLLER)).getReceiptUrl(_sessionId);\n        if (success) emit ReceiptURLReceived(_sessionId, id, url);\n    }\n\n    function printReceipt(uint256 _sessionId, string _id, string _data) public {\n        bool success = ASessionController(componentForName(SESSION_CONTROLLER)).printReceipt(_sessionId, _id, _data);\n        if (success) emit ReceiptPrinted(_sessionId, _id, _data);\n    }\n\n}",
  "sourcePath": "/home/andrew/vault-logic-project/Development/test/vault-logic-api/truffle/contracts/application/CapitalHero.sol",
  "compiler": {
    "name": "solc",
    "version": "0.4.24+commit.e67f0147.Emscripten.clang"
  },
  "schemaVersion": "2.0.1",
  "updatedAt": "2018-10-17T14:12:00.426Z"
}