{
  "contractName": "CashOutController",
  "abi": [
    {
      "constant": true,
      "inputs": [],
      "name": "name",
      "outputs": [
        {
          "name": "",
          "type": "string"
        }
      ],
      "payable": false,
      "stateMutability": "view",
      "type": "function"
    },
    {
      "constant": false,
      "inputs": [],
      "name": "kill",
      "outputs": [],
      "payable": false,
      "stateMutability": "nonpayable",
      "type": "function"
    },
    {
      "constant": true,
      "inputs": [],
      "name": "owner",
      "outputs": [
        {
          "name": "",
          "type": "address"
        }
      ],
      "payable": false,
      "stateMutability": "view",
      "type": "function"
    },
    {
      "inputs": [
        {
          "name": "_config",
          "type": "address"
        }
      ],
      "payable": false,
      "stateMutability": "nonpayable",
      "type": "constructor"
    },
    {
      "constant": true,
      "inputs": [],
      "name": "getFeePercent",
      "outputs": [
        {
          "name": "",
          "type": "uint256"
        }
      ],
      "payable": false,
      "stateMutability": "view",
      "type": "function"
    },
    {
      "constant": false,
      "inputs": [
        {
          "name": "_requestId",
          "type": "string"
        },
        {
          "name": "_kioskId",
          "type": "string"
        },
        {
          "name": "_toWithdraw",
          "type": "uint256"
        },
        {
          "name": "_fees",
          "type": "uint256[]"
        },
        {
          "name": "_parties",
          "type": "address[]"
        },
        {
          "name": "_fail",
          "type": "function"
        },
        {
          "name": "_success",
          "type": "function"
        }
      ],
      "name": "openCashOutChannel",
      "outputs": [],
      "payable": false,
      "stateMutability": "nonpayable",
      "type": "function"
    },
    {
      "constant": false,
      "inputs": [
        {
          "name": "_sessionId",
          "type": "uint256"
        },
        {
          "name": "_cashOutId",
          "type": "uint256"
        },
        {
          "name": "_fail",
          "type": "function"
        },
        {
          "name": "_success",
          "type": "function"
        }
      ],
      "name": "validateCashOutChannel",
      "outputs": [],
      "payable": false,
      "stateMutability": "nonpayable",
      "type": "function"
    },
    {
      "constant": false,
      "inputs": [
        {
          "name": "_sessionId",
          "type": "uint256"
        },
        {
          "name": "_cashOutId",
          "type": "uint256"
        },
        {
          "name": "_fail",
          "type": "function"
        },
        {
          "name": "_success",
          "type": "function"
        }
      ],
      "name": "closeCashOutChannel",
      "outputs": [],
      "payable": false,
      "stateMutability": "nonpayable",
      "type": "function"
    },
    {
      "constant": false,
      "inputs": [
        {
          "name": "_cashOutId",
          "type": "uint256"
        },
        {
          "name": "_fail",
          "type": "function"
        },
        {
          "name": "_success",
          "type": "function"
        }
      ],
      "name": "rollbackCashOutChannel",
      "outputs": [],
      "payable": false,
      "stateMutability": "nonpayable",
      "type": "function"
    },
    {
      "constant": false,
      "inputs": [
        {
          "name": "_requestId",
          "type": "string"
        },
        {
          "name": "_kioskId",
          "type": "string"
        },
        {
          "name": "_cashOutId",
          "type": "uint256"
        },
        {
          "name": "_fee",
          "type": "uint256"
        },
        {
          "name": "_callback",
          "type": "function"
        }
      ],
      "name": "respondOpened",
      "outputs": [],
      "payable": false,
      "stateMutability": "nonpayable",
      "type": "function"
    },
    {
      "constant": false,
      "inputs": [
        {
          "name": "_requestId",
          "type": "string"
        },
        {
          "name": "_kioskId",
          "type": "string"
        },
        {
          "name": "_callback",
          "type": "function"
        }
      ],
      "name": "respondFailOpen",
      "outputs": [],
      "payable": false,
      "stateMutability": "nonpayable",
      "type": "function"
    },
    {
      "constant": false,
      "inputs": [
        {
          "name": "_sessionId",
          "type": "uint256"
        },
        {
          "name": "_cashOutId",
          "type": "uint256"
        },
        {
          "name": "_callback",
          "type": "function"
        }
      ],
      "name": "respondValidated",
      "outputs": [],
      "payable": false,
      "stateMutability": "nonpayable",
      "type": "function"
    },
    {
      "constant": false,
      "inputs": [
        {
          "name": "_sessionId",
          "type": "uint256"
        },
        {
          "name": "_cashOutId",
          "type": "uint256"
        },
        {
          "name": "_callback",
          "type": "function"
        }
      ],
      "name": "respondClosed",
      "outputs": [],
      "payable": false,
      "stateMutability": "nonpayable",
      "type": "function"
    },
    {
      "constant": false,
      "inputs": [
        {
          "name": "_cashOutId",
          "type": "uint256"
        },
        {
          "name": "_callback",
          "type": "function"
        }
      ],
      "name": "respondRolledBack",
      "outputs": [],
      "payable": false,
      "stateMutability": "nonpayable",
      "type": "function"
    }
  ],
  "bytecode": "0x60806040523480156200001157600080fd5b50604051602080620015b8833981016040818152915182820190925260138082527f636173682d6f75742d636f6e74726f6c6c6572000000000000000000000000006020830190815260008054600160a060020a031916331790558392916200007d91600191620002b8565b505080600160a060020a031663713b563f6040518163ffffffff167c0100000000000000000000000000000000000000000000000000000000028152600401602060405180830381600087803b158015620000d757600080fd5b505af1158015620000ec573d6000803e3d6000fd5b505050506040513d60208110156200010357600080fd5b505160038054600160a060020a031916600160a060020a03928316179055604080517fd0496d6a00000000000000000000000000000000000000000000000000000000815290519183169163d0496d6a916004808201926020929091908290030181600087803b1580156200017757600080fd5b505af11580156200018c573d6000803e3d6000fd5b505050506040513d6020811015620001a357600080fd5b505160028054600160a060020a031916600160a060020a03928316178082556040517ff2c298be00000000000000000000000000000000000000000000000000000000815260206004820190815260018054610100818316150260001901169490940460248301819052929094169363f2c298be93929091829160449091019084908015620002765780601f106200024a5761010080835404028352916020019162000276565b820191906000526020600020905b8154815290600101906020018083116200025857829003601f168201915b505092505050600060405180830381600087803b1580156200029757600080fd5b505af1158015620002ac573d6000803e3d6000fd5b5050505050506200035d565b828054600181600116156101000203166002900490600052602060002090601f016020900481019282601f10620002fb57805160ff19168380011785556200032b565b828001600101855582156200032b579182015b828111156200032b5782518255916020019190600101906200030e565b50620003399291506200033d565b5090565b6200035a91905b8082111562000339576000815560010162000344565b90565b61124b806200036d6000396000f3006080604052600436106100ab5763ffffffff60e060020a600035041663011c6d2081146100b057806306fdde03146100f157806314eaeb101461017b57806317eea92214610239578063192aed201461028857806330fc80dc1461028857806341c0e1b5146102ca578063472536b2146102df57806356d9278f146104245780635caae8ff146104ed578063819432741461053c5780638da5cb5b14610588578063be74264d146105b9575b600080fd5b3480156100bc57600080fd5b506100ef6004356c010000000000000000000000006024359081049068010000000000000000900463ffffffff166105e0565b005b3480156100fd57600080fd5b50610106610639565b6040805160208082528351818301528351919283929083019185019080838360005b83811015610140578181015183820152602001610128565b50505050905090810190601f16801561016d5780820380516001836020036101000a031916815260200191505b509250505060405180910390f35b34801561018757600080fd5b506040805160206004803580820135601f81018490048402850184019095528484526100ef94369492936024939284019190819084018382808284375050604080516020601f89358b018035918201839004830284018301909452808352979a999881019791965091820194509250829150840183828082843750949750506c010000000000000000000000009435948504955050506801000000000000000090920463ffffffff1691506106c69050565b34801561024557600080fd5b506100ef6004356024356c010000000000000000000000006044358181049163ffffffff68010000000000000000928390048116926064359283049204166107e9565b34801561029457600080fd5b506100ef6004356024356c010000000000000000000000006044359081049068010000000000000000900463ffffffff166109a1565b3480156102d657600080fd5b506100ef6109e5565b3480156102eb57600080fd5b506040805160206004803580820135601f81018490048402850184019095528484526100ef94369492936024939284019190819084018382808284375050604080516020601f89358b018035918201839004830284018301909452808352979a99988101979196509182019450925082915084018382808284375050604080516020808901358a01803580830284810184018652818552999c8b359c909b909a950198509296508101945090925082919085019084908082843750506040805187358901803560208181028481018201909552818452989b9a998901989297509082019550935083925085019084908082843750949750506c010000000000000000000000008535818104975063ffffffff68010000000000000000918290048116976020013592830496509104169250610a62915050565b34801561043057600080fd5b506040805160206004803580820135601f81018490048402850184019095528484526100ef94369492936024939284019190819084018382808284375050604080516020601f89358b018035918201839004830284018301909452808352979a999881019791965091820194509250829150840183828082843750949750508435955050506020830135926c01000000000000000000000000604090910135908104925068010000000000000000900463ffffffff169050610d8e565b3480156104f957600080fd5b506100ef6004356024356c010000000000000000000000006044358181049163ffffffff6801000000000000000092839004811692606435928304920416610ea3565b34801561054857600080fd5b506100ef6004356c010000000000000000000000006024358181049163ffffffff680100000000000000009283900481169260443592830492041661103b565b34801561059457600080fd5b5061059d6111eb565b60408051600160a060020a039092168252519081900360200190f35b3480156105c557600080fd5b506105ce6111fa565b60408051918252519081900360200190f35b8181846040518263ffffffff1660e060020a02815260040180828152602001915050600060405180830381600087803b15801561061c57600080fd5b505af1158015610630573d6000803e3d6000fd5b50505050505050565b60018054604080516020600284861615610100026000190190941693909304601f810184900484028201840190925281815292918301828280156106be5780601f10610693576101008083540402835291602001916106be565b820191906000526020600020905b8154815290600101906020018083116106a157829003601f168201915b505050505081565b818185856040518363ffffffff1660e060020a028152600401808060200180602001838103835285818151815260200191508051906020019080838360005b8381101561071d578181015183820152602001610705565b50505050905090810190601f16801561074a5780820380516001836020036101000a031916815260200191505b50838103825284518152845160209182019186019080838360005b8381101561077d578181015183820152602001610765565b50505050905090810190601f1680156107aa5780820380516001836020036101000a031916815260200191505b50945050505050600060405180830381600087803b1580156107cb57600080fd5b505af11580156107df573d6000803e3d6000fd5b5050505050505050565b600254604080518082018252601081526000805160206112008339815191526020808301918252925160e160020a63349f642f02815260048101938452825160248201528251600160a060020a039095169463693ec85e949283926044019180838360005b8381101561086657818101518382015260200161084e565b50505050905090810190601f1680156108935780820380516001836020036101000a031916815260200191505b5092505050602060405180830381600087803b1580156108b257600080fd5b505af11580156108c6573d6000803e3d6000fd5b505050506040513d60208110156108dc57600080fd5b5051604080517f8439715800000000000000000000000000000000000000000000000000000000815233600482015260248101899052604481018890526801000000000000000064010000000080890263ffffffff808a169190911783026064850152908702908616170260848201529051600160a060020a039092169163843971589160a48082019260009290919082900301818387803b15801561098157600080fd5b505af1158015610995573d6000803e3d6000fd5b50505050505050505050565b818185856040518363ffffffff1660e060020a0281526004018083815260200182815260200192505050600060405180830381600087803b1580156107cb57600080fd5b600054600160a060020a03163214610a5e57604080517f08c379a000000000000000000000000000000000000000000000000000000000815260206004820152601260248201527f6f6e6c79206f776e657220616c6c6f7765640000000000000000000000000000604482015290519081900360640190fd5b6000ff5b600254604080518082018252601081526000805160206112008339815191526020808301918252925160e160020a63349f642f02815260048101938452825160248201528251600160a060020a039095169463693ec85e949283926044019180838360005b83811015610adf578181015183820152602001610ac7565b50505050905090810190601f168015610b0c5780820380516001836020036101000a031916815260200191505b5092505050602060405180830381600087803b158015610b2b57600080fd5b505af1158015610b3f573d6000803e3d6000fd5b505050506040513d6020811015610b5557600080fd5b8101908080519060200190929190505050600160a060020a03166330dc18c6338b8b8b8b8b8b8b8b8b6040518b63ffffffff1660e060020a028152600401808b600160a060020a0316600160a060020a0316815260200180602001806020018a81526020018060200180602001898963ffffffff1690640100000000021768010000000000000000028152602001878763ffffffff169064010000000002176801000000000000000002815260200185810385528e818151815260200191508051906020019080838360005b83811015610c39578181015183820152602001610c21565b50505050905090810190601f168015610c665780820380516001836020036101000a031916815260200191505b5085810384528d5181528d516020918201918f019080838360005b83811015610c99578181015183820152602001610c81565b50505050905090810190601f168015610cc65780820380516001836020036101000a031916815260200191505b5085810383528b5181528b51602091820191808e01910280838360005b83811015610cfb578181015183820152602001610ce3565b5050505090500185810382528a818151815260200191508051906020019060200280838360005b83811015610d3a578181015183820152602001610d22565b505050509050019e505050505050505050505050505050600060405180830381600087803b158015610d6b57600080fd5b505af1158015610d7f573d6000803e3d6000fd5b50505050505050505050505050565b8181878787876040518563ffffffff1660e060020a028152600401808060200180602001858152602001848152602001838103835287818151815260200191508051906020019080838360005b83811015610df3578181015183820152602001610ddb565b50505050905090810190601f168015610e205780820380516001836020036101000a031916815260200191505b50838103825286518152865160209182019188019080838360005b83811015610e53578181015183820152602001610e3b565b50505050905090810190601f168015610e805780820380516001836020036101000a031916815260200191505b509650505050505050600060405180830381600087803b15801561098157600080fd5b600254604080518082018252601081526000805160206112008339815191526020808301918252925160e160020a63349f642f02815260048101938452825160248201528251600160a060020a039095169463693ec85e949283926044019180838360005b83811015610f20578181015183820152602001610f08565b50505050905090810190601f168015610f4d5780820380516001836020036101000a031916815260200191505b5092505050602060405180830381600087803b158015610f6c57600080fd5b505af1158015610f80573d6000803e3d6000fd5b505050506040513d6020811015610f9657600080fd5b5051604080517ff4cea1ac00000000000000000000000000000000000000000000000000000000815233600482015260248101899052604481018890526801000000000000000064010000000080890263ffffffff808a169190911783026064850152908702908616170260848201529051600160a060020a039092169163f4cea1ac9160a48082019260009290919082900301818387803b15801561098157600080fd5b600254604080518082018252601081526000805160206112008339815191526020808301918252925160e160020a63349f642f02815260048101938452825160248201528251600160a060020a039095169463693ec85e949283926044019180838360005b838110156110b85781810151838201526020016110a0565b50505050905090810190601f1680156110e55780820380516001836020036101000a031916815260200191505b5092505050602060405180830381600087803b15801561110457600080fd5b505af1158015611118573d6000803e3d6000fd5b505050506040513d602081101561112e57600080fd5b5051604080517f4250e51b000000000000000000000000000000000000000000000000000000008152336004820152602481018890526801000000000000000064010000000080890263ffffffff808a169190911783026044850152908702908616170260648201529051600160a060020a0390921691634250e51b9160848082019260009290919082900301818387803b1580156111cc57600080fd5b505af11580156111e0573d6000803e3d6000fd5b505050505050505050565b600054600160a060020a031681565b6001905600636173682d6f75742d6d616e6167657200000000000000000000000000000000a165627a7a723058206dab181d5816d9860629eca1449d6186bc322ea8ba12bdae838462332420bfe10029",
  "source": "pragma solidity 0.4.24;\n\nimport \"../platform/Named.sol\";\nimport \"../platform/Mortal.sol\";\nimport \"../platform/Component.sol\";\nimport \"./api/ACashOutController.sol\";\nimport \"../managers/api/ACashOutManager.sol\";\n\ncontract CashOutController is ACashOutController, Named(\"cash-out-controller\"), Mortal, Component {\n\n    string constant MANAGER = \"cash-out-manager\";\n\n    constructor(address _config) Component(_config) public {}\n\n    // @formatter:off\n    function getFeePercent() external view returns (uint256) {\n        // fetch actual value from MANAGER contract in future\n        return 1;\n    }\n    // @formatter:on\n\n    // @formatter:off\n    function openCashOutChannel(\n        string _requestId,\n        string _kioskId,\n        uint256 _toWithdraw,\n        uint256[] _fees,\n        address[] _parties,\n        function(string memory, string memory) external _fail,\n        function(string memory, string memory, uint256, uint256) external _success\n    )\n        public\n    // @formatter:on\n    {\n        //TODO:implementation: check that msg.sender is registered application, validate parameters\n        ACashOutManager(context.get(MANAGER)).openCashOutChannel(\n            msg.sender,\n            _requestId,\n            _kioskId,\n            _toWithdraw,\n            _fees,\n            _parties,\n            _fail,\n            _success\n        );\n    }\n\n    // @formatter:off\n    function validateCashOutChannel(\n        uint256 _sessionId,\n        uint256 _cashOutId,\n        function(uint256, uint256) external _fail,\n        function(uint256, uint256) external _success\n    )\n        public\n    // @formatter:on\n    {\n        //TODO:implementation: check that msg.sender is registered application, validate parameters\n        ACashOutManager(context.get(MANAGER)).validateCashOutChannel(\n            msg.sender,\n            _sessionId,\n            _cashOutId,\n            _fail,\n            _success\n        );\n    }\n\n    // @formatter:off\n    function closeCashOutChannel(\n        uint256 _sessionId,\n        uint256 _cashOutId,\n        function(uint256, uint256) external _fail,\n        function(uint256, uint256) external _success\n    )\n        public\n    // @formatter:on\n    {\n        //TODO:implementation: check that msg.sender is registered application, validate parameters\n        ACashOutManager(context.get(MANAGER)).closeCashOutChannel(\n            msg.sender,\n            _sessionId,\n            _cashOutId,\n            _fail,\n            _success\n        );\n    }\n\n    // @formatter:off\n    function rollbackCashOutChannel(\n        uint256 _cashOutId,\n        function(uint256) external _fail,\n        function(uint256) external _success\n    )\n        public\n    // @formatter:on\n    {\n        //TODO:implementation: check that msg.sender is registered application, validate parameters\n        ACashOutManager(context.get(MANAGER)).rollbackCashOutChannel(\n            msg.sender,\n            _cashOutId,\n            _fail,\n            _success\n        );\n    }\n\n    // @formatter:off\n    function respondOpened(\n        string _requestId,\n        string _kioskId,\n        uint256 _cashOutId,\n        uint256 _fee,\n        function(string memory, string memory, uint256, uint256) external _callback\n    )\n        public\n    // @formatter:on\n    {\n        _callback(_requestId, _kioskId, _cashOutId, _fee);\n    }\n\n    // @formatter:off\n    function respondFailOpen(\n        string _requestId,\n        string _kioskId,\n        function(string memory, string memory) external _callback\n    )\n        public\n    // @formatter:on\n    {\n        _callback(_requestId, _kioskId);\n    }\n\n    // @formatter:off\n    function respondValidated(\n        uint256 _sessionId,\n        uint256 _cashOutId,\n        function(uint256, uint256) external _callback\n    )\n        public\n    // @formatter:on\n    {\n        _callback(_sessionId, _cashOutId);\n    }\n\n    // @formatter:off\n    function respondClosed(\n        uint256 _sessionId,\n        uint256 _cashOutId,\n        function(uint256, uint256) external _callback\n    )\n        public\n    // @formatter:on\n    {\n        _callback(_sessionId, _cashOutId);\n    }\n\n    // @formatter:off\n    function respondRolledBack(\n        uint256 _cashOutId,\n        function(uint256) external _callback\n    )\n        public\n    // @formatter:on\n    {\n        _callback(_cashOutId);\n    }\n\n}\n",
  "sourcePath": "/home/andrew/vault-logic-project/Development/test/vault-logic-api/truffle/contracts/controllers/CashOutController.sol",
  "compiler": {
    "name": "solc",
    "version": "0.4.24+commit.e67f0147.Emscripten.clang"
  },
  "schemaVersion": "2.0.1",
  "updatedAt": "2018-11-26T09:18:36.421Z"
}