{
  "contractName": "CashOutStorage",
  "abi": [
    {
      "constant": true,
      "inputs": [],
      "name": "name",
      "outputs": [
        {
          "name": "",
          "type": "string"
        }
      ],
      "payable": false,
      "stateMutability": "view",
      "type": "function"
    },
    {
      "constant": false,
      "inputs": [],
      "name": "kill",
      "outputs": [],
      "payable": false,
      "stateMutability": "nonpayable",
      "type": "function"
    },
    {
      "constant": true,
      "inputs": [],
      "name": "owner",
      "outputs": [
        {
          "name": "",
          "type": "address"
        }
      ],
      "payable": false,
      "stateMutability": "view",
      "type": "function"
    },
    {
      "inputs": [
        {
          "name": "_config",
          "type": "address"
        }
      ],
      "payable": false,
      "stateMutability": "nonpayable",
      "type": "constructor"
    },
    {
      "anonymous": false,
      "inputs": [
        {
          "indexed": false,
          "name": "channelId",
          "type": "uint256"
        },
        {
          "indexed": false,
          "name": "kioskId",
          "type": "string"
        },
        {
          "indexed": false,
          "name": "sessionId",
          "type": "uint256"
        },
        {
          "indexed": false,
          "name": "application",
          "type": "address"
        },
        {
          "indexed": false,
          "name": "status",
          "type": "uint256"
        }
      ],
      "name": "CashOutSaved",
      "type": "event"
    },
    {
      "anonymous": false,
      "inputs": [
        {
          "indexed": false,
          "name": "channelId",
          "type": "uint256"
        },
        {
          "indexed": false,
          "name": "status",
          "type": "uint256"
        }
      ],
      "name": "CashOutStatusUpdated",
      "type": "event"
    },
    {
      "anonymous": false,
      "inputs": [
        {
          "indexed": false,
          "name": "channelId",
          "type": "uint256"
        },
        {
          "indexed": false,
          "name": "party",
          "type": "address"
        },
        {
          "indexed": false,
          "name": "amount",
          "type": "uint256"
        }
      ],
      "name": "CashOutSplitAdded",
      "type": "event"
    },
    {
      "constant": false,
      "inputs": [
        {
          "name": "kioskId",
          "type": "string"
        },
        {
          "name": "sessionId",
          "type": "uint256"
        },
        {
          "name": "application",
          "type": "address"
        },
        {
          "name": "status",
          "type": "uint256"
        },
        {
          "name": "vaultLogicPercent",
          "type": "uint256"
        },
        {
          "name": "vaultLogicAmount",
          "type": "uint256"
        },
        {
          "name": "withdrawAmount",
          "type": "uint256"
        },
        {
          "name": "reservedAmount",
          "type": "uint256"
        },
        {
          "name": "parties",
          "type": "address[]"
        },
        {
          "name": "fees",
          "type": "uint256[]"
        }
      ],
      "name": "save",
      "outputs": [
        {
          "name": "channelId",
          "type": "uint256"
        }
      ],
      "payable": false,
      "stateMutability": "nonpayable",
      "type": "function"
    },
    {
      "constant": true,
      "inputs": [
        {
          "name": "channelId",
          "type": "uint256"
        }
      ],
      "name": "get",
      "outputs": [
        {
          "name": "kioskId",
          "type": "string"
        },
        {
          "name": "sessionId",
          "type": "uint256"
        },
        {
          "name": "application",
          "type": "address"
        },
        {
          "name": "status",
          "type": "uint256"
        },
        {
          "name": "vaultLogicPercent",
          "type": "uint256"
        },
        {
          "name": "vaultLogicAmount",
          "type": "uint256"
        },
        {
          "name": "withdrawAmount",
          "type": "uint256"
        },
        {
          "name": "reservedAmount",
          "type": "uint256"
        },
        {
          "name": "splitSize",
          "type": "uint256"
        }
      ],
      "payable": false,
      "stateMutability": "view",
      "type": "function"
    },
    {
      "constant": true,
      "inputs": [
        {
          "name": "channelId",
          "type": "uint256"
        }
      ],
      "name": "getKioskId",
      "outputs": [
        {
          "name": "",
          "type": "string"
        }
      ],
      "payable": false,
      "stateMutability": "view",
      "type": "function"
    },
    {
      "constant": true,
      "inputs": [
        {
          "name": "channelId",
          "type": "uint256"
        }
      ],
      "name": "getSessionId",
      "outputs": [
        {
          "name": "",
          "type": "uint256"
        }
      ],
      "payable": false,
      "stateMutability": "view",
      "type": "function"
    },
    {
      "constant": true,
      "inputs": [
        {
          "name": "channelId",
          "type": "uint256"
        }
      ],
      "name": "getApplication",
      "outputs": [
        {
          "name": "",
          "type": "address"
        }
      ],
      "payable": false,
      "stateMutability": "view",
      "type": "function"
    },
    {
      "constant": false,
      "inputs": [
        {
          "name": "channelId",
          "type": "uint256"
        },
        {
          "name": "status",
          "type": "uint256"
        }
      ],
      "name": "setStatus",
      "outputs": [],
      "payable": false,
      "stateMutability": "nonpayable",
      "type": "function"
    },
    {
      "constant": true,
      "inputs": [
        {
          "name": "channelId",
          "type": "uint256"
        }
      ],
      "name": "getStatus",
      "outputs": [
        {
          "name": "",
          "type": "uint256"
        }
      ],
      "payable": false,
      "stateMutability": "view",
      "type": "function"
    },
    {
      "constant": true,
      "inputs": [
        {
          "name": "channelId",
          "type": "uint256"
        }
      ],
      "name": "getWithdrawAmount",
      "outputs": [
        {
          "name": "",
          "type": "uint256"
        }
      ],
      "payable": false,
      "stateMutability": "view",
      "type": "function"
    },
    {
      "constant": true,
      "inputs": [
        {
          "name": "channelId",
          "type": "uint256"
        }
      ],
      "name": "getReservedAmount",
      "outputs": [
        {
          "name": "",
          "type": "uint256"
        }
      ],
      "payable": false,
      "stateMutability": "view",
      "type": "function"
    },
    {
      "constant": true,
      "inputs": [
        {
          "name": "channelId",
          "type": "uint256"
        }
      ],
      "name": "getVaultLogicAmount",
      "outputs": [
        {
          "name": "",
          "type": "uint256"
        }
      ],
      "payable": false,
      "stateMutability": "view",
      "type": "function"
    },
    {
      "constant": false,
      "inputs": [
        {
          "name": "channelId",
          "type": "uint256"
        },
        {
          "name": "vaultLogicPercent",
          "type": "uint256"
        }
      ],
      "name": "setVaultLogicPercent",
      "outputs": [],
      "payable": false,
      "stateMutability": "nonpayable",
      "type": "function"
    },
    {
      "constant": true,
      "inputs": [
        {
          "name": "channelId",
          "type": "uint256"
        }
      ],
      "name": "getVaultLogicPercent",
      "outputs": [
        {
          "name": "",
          "type": "uint256"
        }
      ],
      "payable": false,
      "stateMutability": "view",
      "type": "function"
    },
    {
      "constant": false,
      "inputs": [
        {
          "name": "channelId",
          "type": "uint256"
        },
        {
          "name": "party",
          "type": "address"
        },
        {
          "name": "amount",
          "type": "uint256"
        }
      ],
      "name": "addSplit",
      "outputs": [],
      "payable": false,
      "stateMutability": "nonpayable",
      "type": "function"
    },
    {
      "constant": false,
      "inputs": [
        {
          "name": "channelId",
          "type": "uint256"
        },
        {
          "name": "parties",
          "type": "address[]"
        },
        {
          "name": "amounts",
          "type": "uint256[]"
        }
      ],
      "name": "addSplits",
      "outputs": [],
      "payable": false,
      "stateMutability": "nonpayable",
      "type": "function"
    },
    {
      "constant": true,
      "inputs": [
        {
          "name": "channelId",
          "type": "uint256"
        }
      ],
      "name": "getSplitSize",
      "outputs": [
        {
          "name": "",
          "type": "uint256"
        }
      ],
      "payable": false,
      "stateMutability": "view",
      "type": "function"
    },
    {
      "constant": true,
      "inputs": [
        {
          "name": "channelId",
          "type": "uint256"
        },
        {
          "name": "subIndex",
          "type": "uint256"
        }
      ],
      "name": "getSplit",
      "outputs": [
        {
          "name": "",
          "type": "address"
        },
        {
          "name": "",
          "type": "uint256"
        }
      ],
      "payable": false,
      "stateMutability": "view",
      "type": "function"
    }
  ],
  "bytecode": "0x60806040523480156200001157600080fd5b5060405160208062002f12833981016040818152915182820190925260108082527f636173682d6f75742d73746f72616765000000000000000000000000000000006020830190815260008054600160a060020a031916331790558392916200007d91600191620002b8565b505080600160a060020a031663713b563f6040518163ffffffff167c0100000000000000000000000000000000000000000000000000000000028152600401602060405180830381600087803b158015620000d757600080fd5b505af1158015620000ec573d6000803e3d6000fd5b505050506040513d60208110156200010357600080fd5b505160038054600160a060020a031916600160a060020a03928316179055604080517fd0496d6a00000000000000000000000000000000000000000000000000000000815290519183169163d0496d6a916004808201926020929091908290030181600087803b1580156200017757600080fd5b505af11580156200018c573d6000803e3d6000fd5b505050506040513d6020811015620001a357600080fd5b505160028054600160a060020a031916600160a060020a03928316178082556040517ff2c298be00000000000000000000000000000000000000000000000000000000815260206004820190815260018054610100818316150260001901169490940460248301819052929094169363f2c298be93929091829160449091019084908015620002765780601f106200024a5761010080835404028352916020019162000276565b820191906000526020600020905b8154815290600101906020018083116200025857829003601f168201915b505092505050600060405180830381600087803b1580156200029757600080fd5b505af1158015620002ac573d6000803e3d6000fd5b5050505050506200035d565b828054600181600116156101000203166002900490600052602060002090601f016020900481019282601f10620002fb57805160ff19168380011785556200032b565b828001600101855582156200032b579182015b828111156200032b5782518255916020019190600101906200030e565b50620003399291506200033d565b5090565b6200035a91905b8082111562000339576000815560010162000344565b90565b612ba5806200036d6000396000f3006080604052600436106100ed5763ffffffff60e060020a60003504166306fdde0381146100f25780631f2f4bfd1461017c57806326d3e999146101b057806333263ad6146101c857806333d43dbd146101f257806339350ccc1461023057806341c0e1b514610248578063446e43a71461025f5780635c622a0e146102775780636660808b1461028f5780636e19cb18146102a75780637849fbf8146102bf57806382e40813146102da5780638da5cb5b146102f557806390bf10b01461030a57806390eb1ad41461039d5780639507d39a1461049d578063a9bdb60114610577578063e445dc431461059e575b600080fd5b3480156100fe57600080fd5b506101076105b6565b6040805160208082528351818301528351919283929083019185019080838360005b83811015610141578181015183820152602001610129565b50505050905090810190601f16801561016e5780820380516001836020036101000a031916815260200191505b509250505060405180910390f35b34801561018857600080fd5b50610194600435610643565b60408051600160a060020a039092168252519081900360200190f35b3480156101bc57600080fd5b50610107600435610668565b3480156101d457600080fd5b506101e0600435610687565b60408051918252519081900360200190f35b3480156101fe57600080fd5b5061020d6004356024356106a6565b60408051600160a060020a03909316835260208301919091528051918290030190f35b34801561023c57600080fd5b506101e06004356106d3565b34801561025457600080fd5b5061025d6106f2565b005b34801561026b57600080fd5b506101e060043561076f565b34801561028357600080fd5b506101e060043561078e565b34801561029b57600080fd5b506101e06004356107ad565b3480156102b357600080fd5b506101e06004356107cc565b3480156102cb57600080fd5b5061025d6004356024356107eb565b3480156102e657600080fd5b5061025d60043560243561080c565b34801561030157600080fd5b50610194610868565b34801561031657600080fd5b5060408051602060046024803582810135848102808701860190975280865261025d96843596369660449591949091019291829185019084908082843750506040805187358901803560208181028481018201909552818452989b9a9989019892975090820195509350839250850190849080828437509497506108779650505050505050565b3480156103a957600080fd5b506040805160206004803580820135601f81018490048402850184019095528484526101e09436949293602493928401919081908401838280828437505060408051602060e08901358a01803582810280850184018652818552999c8b359c848d0135600160a060020a03169c968701359b60608801359b5060808801359a5060a0880135995060c088013598509196909561010090910194909381019291829185019084908082843750506040805187358901803560208181028481018201909552818452989b9a99890198929750908201955093508392508501908490808284375094975061089a9650505050505050565b3480156104a957600080fd5b506104b560043561099d565b60405180806020018a815260200189600160a060020a0316600160a060020a0316815260200188815260200187815260200186815260200185815260200184815260200183815260200182810382528b818151815260200191508051906020019080838360005b8381101561053457818101518382015260200161051c565b50505050905090810190601f1680156105615780820380516001836020036101000a031916815260200191505b509a505050505050505050505060405180910390f35b34801561058357600080fd5b5061025d600435600160a060020a03602435166044356109ec565b3480156105aa57600080fd5b506101e0600435610a57565b60018054604080516020600284861615610100026000190190941693909304601f8101849004840282018401909252818152929183018282801561063b5780601f106106105761010080835404028352916020019161063b565b820191906000526020600020905b81548152906001019060200180831161061e57829003601f168201915b505050505081565b60035460009061066290600160a060020a03168363ffffffff610a7616565b92915050565b60035460609061066290600160a060020a03168363ffffffff610b3616565b60035460009061066290600160a060020a03168363ffffffff610c5116565b60035460009081906106c890600160a060020a0316858563ffffffff610c8f16565b915091509250929050565b60035460009061066290600160a060020a03168363ffffffff610e1216565b600054600160a060020a0316321461076b57604080517f08c379a000000000000000000000000000000000000000000000000000000000815260206004820152601260248201527f6f6e6c79206f776e657220616c6c6f7765640000000000000000000000000000604482015290519081900360640190fd5b6000ff5b60035460009061066290600160a060020a03168363ffffffff610e6216565b60035460009061066290600160a060020a03168363ffffffff610ea016565b60035460009061066290600160a060020a03168363ffffffff610ede16565b60035460009061066290600160a060020a03168363ffffffff610f2e16565b60035461080890600160a060020a0316838363ffffffff610f7e16565b5050565b60035461082990600160a060020a0316838363ffffffff61101a16565b604080518381526020810183905281517fe43bd3cfa78b241289464e192a0203aa25050f24bb1f4c9e5965ff25adeae753929181900390910190a15050565b600054600160a060020a031681565b60035461089590600160a060020a031684848463ffffffff61105616565b505050565b6003546000906108c290600160a060020a03168c8c8c8c8c8c8c8c8c8c63ffffffff6110ab16565b90507f45835541a6d5574a89ac141d21f93168dabfe40f5469e7070b9ca6b8f0bb872c818c8c8c8c604051808681526020018060200185815260200184600160a060020a0316600160a060020a03168152602001838152602001828103825286818151815260200191508051906020019080838360005b83811015610951578181015183820152602001610939565b50505050905090810190601f16801561097e5780820380516001836020036101000a031916815260200191505b50965050505050505060405180910390a19a9950505050505050505050565b60035460609060009081908190819081908190819081906109cd90600160a060020a03168b63ffffffff611fb416565b9850985098509850985098509850985098509193959799909294969850565b600354610a0a90600160a060020a031684848463ffffffff61268a16565b60408051848152600160a060020a038416602082015280820183905290517f23579f011bd916315a062a8f316b4904a92546cdf2b2ba00571a1a6d0c90c8f79181900360600190a1505050565b60035460009061066290600160a060020a03168363ffffffff61293116565b600082600160a060020a0316634c77e5ba610ac66040805190810160405280601c81526020017f636173682d6f75742e6170706c69636174696f6e2e61646472657373000000008152508561297d565b6040805160e060020a63ffffffff851602815260048101929092525160248083019260209291908290030181600087803b158015610b0357600080fd5b505af1158015610b17573d6000803e3d6000fd5b505050506040513d6020811015610b2d57600080fd5b50519392505050565b606082600160a060020a031663a209a29c610b866040805190810160405280601181526020017f636173682d6f75742e6b696f736b2e69640000000000000000000000000000008152508561297d565b6040805160e060020a63ffffffff8516028152600481019290925251602480830192600092919082900301818387803b158015610bc257600080fd5b505af1158015610bd6573d6000803e3d6000fd5b505050506040513d6000823e601f3d908101601f191682016040526020811015610bff57600080fd5b810190808051640100000000811115610c1757600080fd5b82016020810184811115610c2a57600080fd5b8151640100000000811182820187101715610c4457600080fd5b5090979650505050505050565b600082600160a060020a031663e82617fb610ac6604080519081016040528060138152602001600080516020612b1a8339815191528152508561297d565b60008084600160a060020a0316634c77e5ba610ce16040805190810160405280601681526020017f636173682d6f75742e73706c69745f70617274696573000000000000000000008152508787612a46565b6040805160e060020a63ffffffff851602815260048101929092525160248083019260209291908290030181600087803b158015610d1e57600080fd5b505af1158015610d32573d6000803e3d6000fd5b505050506040513d6020811015610d4857600080fd5b505160408051808201909152601381527f636173682d6f75742e73706c69745f66656573000000000000000000000000006020820152909250600160a060020a0386169063e82617fb90610d9d908787612a46565b6040805160e060020a63ffffffff851602815260048101929092525160248083019260209291908290030181600087803b158015610dda57600080fd5b505af1158015610dee573d6000803e3d6000fd5b505050506040513d6020811015610e0457600080fd5b505191959194509092505050565b600082600160a060020a031663e82617fb610ac66040805190810160405280601881526020017f636173682d6f75742e72657365727665645f616d6f756e7400000000000000008152508561297d565b600082600160a060020a031663e82617fb610ac66040805190810160405280601c8152602001600080516020612b5a8339815191528152508561297d565b600082600160a060020a031663e82617fb610ac66040805190810160405280600f8152602001600080516020612b3a8339815191528152508561297d565b600082600160a060020a031663e82617fb610ac66040805190810160405280601a81526020017f636173682d696e2e7661756c745f6c6f6769635f616d6f756e740000000000008152508561297d565b600082600160a060020a031663e82617fb610ac66040805190810160405280601381526020017f636173682d6f75742e73657373696f6e2e6964000000000000000000000000008152508561297d565b82600160a060020a031663ffb4f623610fba6040805190810160405280601c8152602001600080516020612b5a8339815191528152508561297d565b6040805160e060020a63ffffffff851602815260048101929092526024820185905251604480830192600092919082900301818387803b158015610ffd57600080fd5b505af1158015611011573d6000803e3d6000fd5b50505050505050565b82600160a060020a031663ffb4f623610fba6040805190810160405280600f8152602001600080516020612b3a8339815191528152508561297d565b60005b82518110156110a45761109c8585858481518110151561107557fe5b90602001906020020151858581518110151561108d57fe5b9060200190602002015161268a565b600101611059565b5050505050565b60008b600160a060020a031663e82617fb60405160200180806020018281038252600c8152602001807f436173684f7574496e64657800000000000000000000000000000000000000008152506020019150506040516020818303038152906040526040518082805190602001908083835b6020831061113c5780518252601f19909201916020918201910161111d565b51815160209384036101000a60001901801990921691161790526040805192909401829003822063ffffffff881660e060020a0283526004830152925160248083019650939450929083900301905081600087803b15801561119d57600080fd5b505af11580156111b1573d6000803e3d6000fd5b505050506040513d60208110156111c757600080fd5b810190808051906020019092919050505090508b600160a060020a031663f58660666040805190810160405280601181526020017f636173682d6f75742e6b696f736b2e6964000000000000000000000000000000815250836040516020018083805190602001908083835b602083106112525780518252601f199092019160209182019101611233565b51815160209384036101000a600019018019909216911617905292019384525060408051808503815293820190819052835193945092839250908401908083835b602083106112b25780518252601f199092019160209182019101611293565b6001836020036101000a03801982511681845116808217855250505050505090500191505060405180910390208d6040518363ffffffff1660e060020a02815260040180836000191660001916815260200180602001828103825283818151815260200191508051906020019080838360005b8381101561133d578181015183820152602001611325565b50505050905090810190601f16801561136a5780820380516001836020036101000a031916815260200191505b509350505050600060405180830381600087803b15801561138a57600080fd5b505af115801561139e573d6000803e3d6000fd5b505050508b600160a060020a031663ffb4f6236040805190810160405280601381526020017f636173682d6f75742e73657373696f6e2e696400000000000000000000000000815250836040516020018083805190602001908083835b6020831061141a5780518252601f1990920191602091820191016113fb565b51815160209384036101000a600019018019909216911617905292019384525060408051808503815293820190819052835193945092839250908401908083835b6020831061147a5780518252601f19909201916020918201910161145b565b6001836020036101000a03801982511681845116808217855250505050505090500191505060405180910390208c6040518363ffffffff1660e060020a02815260040180836000191660001916815260200182815260200192505050600060405180830381600087803b1580156114f057600080fd5b505af1158015611504573d6000803e3d6000fd5b505050508b600160a060020a0316635a2bf25a6040805190810160405280601c81526020017f636173682d6f75742e6170706c69636174696f6e2e6164647265737300000000815250836040516020018083805190602001908083835b602083106115805780518252601f199092019160209182019101611561565b51815160209384036101000a600019018019909216911617905292019384525060408051808503815293820190819052835193945092839250908401908083835b602083106115e05780518252601f1990920191602091820191016115c1565b6001836020036101000a03801982511681845116808217855250505050505090500191505060405180910390208b6040518363ffffffff1660e060020a02815260040180836000191660001916815260200182600160a060020a0316600160a060020a0316815260200192505050600060405180830381600087803b15801561166857600080fd5b505af115801561167c573d6000803e3d6000fd5b505050508b600160a060020a031663ffb4f6236040805190810160405280600f8152602001600080516020612b3a833981519152815250836040516020018083805190602001908083835b602083106116e65780518252601f1990920191602091820191016116c7565b51815160209384036101000a600019018019909216911617905292019384525060408051808503815293820190819052835193945092839250908401908083835b602083106117465780518252601f199092019160209182019101611727565b5181516020939093036101000a60001901801990911692169190911790526040805191909301819003812063ffffffff871660e060020a0282526004820152602481018f9052915160448084019550600094509092839003019050818387803b1580156117b257600080fd5b505af11580156117c6573d6000803e3d6000fd5b505050508b600160a060020a031663ffb4f6236040805190810160405280601c8152602001600080516020612b5a833981519152815250836040516020018083805190602001908083835b602083106118305780518252601f199092019160209182019101611811565b51815160209384036101000a600019018019909216911617905292019384525060408051808503815293820190819052835193945092839250908401908083835b602083106118905780518252601f199092019160209182019101611871565b5181516020939093036101000a60001901801990911692169190911790526040805191909301819003812063ffffffff871660e060020a0282526004820152602481018e9052915160448084019550600094509092839003019050818387803b1580156118fc57600080fd5b505af1158015611910573d6000803e3d6000fd5b505050508b600160a060020a031663ffb4f6236040805190810160405280601a81526020017f636173682d696e2e7661756c745f6c6f6769635f616d6f756e74000000000000815250836040516020018083805190602001908083835b6020831061198c5780518252601f19909201916020918201910161196d565b51815160209384036101000a600019018019909216911617905292019384525060408051808503815293820190819052835193945092839250908401908083835b602083106119ec5780518252601f1990920191602091820191016119cd565b5181516020939093036101000a60001901801990911692169190911790526040805191909301819003812063ffffffff871660e060020a0282526004820152602481018d9052915160448084019550600094509092839003019050818387803b158015611a5857600080fd5b505af1158015611a6c573d6000803e3d6000fd5b505050508b600160a060020a031663ffb4f6236040805190810160405280601881526020017f636173682d6f75742e77697468647261775f616d6f756e740000000000000000815250836040516020018083805190602001908083835b60208310611ae85780518252601f199092019160209182019101611ac9565b51815160209384036101000a600019018019909216911617905292019384525060408051808503815293820190819052835193945092839250908401908083835b60208310611b485780518252601f199092019160209182019101611b29565b5181516020939093036101000a60001901801990911692169190911790526040805191909301819003812063ffffffff871660e060020a0282526004820152602481018c9052915160448084019550600094509092839003019050818387803b158015611bb457600080fd5b505af1158015611bc8573d6000803e3d6000fd5b505050508b600160a060020a031663ffb4f6236040805190810160405280601881526020017f636173682d6f75742e72657365727665645f616d6f756e740000000000000000815250836040516020018083805190602001908083835b60208310611c445780518252601f199092019160209182019101611c25565b51815160209384036101000a600019018019909216911617905292019384525060408051808503815293820190819052835193945092839250908401908083835b60208310611ca45780518252601f199092019160209182019101611c85565b5181516020939093036101000a60001901801990911692169190911790526040805191909301819003812063ffffffff871660e060020a0282526004820152602481018b9052915160448084019550600094509092839003019050818387803b158015611d1057600080fd5b505af1158015611d24573d6000803e3d6000fd5b50505050611d348c828585611056565b8b600160a060020a0316633eba9ed26040805190810160405280600f81526020017f636173682d6f75742e6578697374730000000000000000000000000000000000815250836040516020018083805190602001908083835b60208310611dac5780518252601f199092019160209182019101611d8d565b51815160209384036101000a600019018019909216911617905292019384525060408051808503815293820190819052835193945092839250908401908083835b60208310611e0c5780518252601f199092019160209182019101611ded565b5181516020939093036101000a60001901801990911692169190911790526040805191909301819003812063ffffffff871660e060020a028252600482015260016024820152915160448084019550600094509092839003019050818387803b158015611e7857600080fd5b505af1158015611e8c573d6000803e3d6000fd5b505050508b600160a060020a031663ffb4f62360405160200180806020018281038252600c8152602001807f436173684f7574496e64657800000000000000000000000000000000000000008152506020019150506040516020818303038152906040526040518082805190602001908083835b60208310611f1f5780518252601f199092019160209182019101611f00565b5181516020939093036101000a60001901801990911692169190911790526040805191909301819003812063ffffffff871660e060020a0282526004820152600188016024820152915160448084019550600094509092839003019050818387803b158015611f8d57600080fd5b505af1158015611fa1573d6000803e3d6000fd5b505050509b9a5050505050505050505050565b60606000806000806000806000808a600160a060020a031663a209a29c6120106040805190810160405280601181526020017f636173682d6f75742e6b696f736b2e69640000000000000000000000000000008152508d61297d565b6040805160e060020a63ffffffff8516028152600481019290925251602480830192600092919082900301818387803b15801561204c57600080fd5b505af1158015612060573d6000803e3d6000fd5b505050506040513d6000823e601f3d908101601f19168201604052602081101561208957600080fd5b8101908080516401000000008111156120a157600080fd5b820160208101848111156120b457600080fd5b81516401000000008111828201871017156120ce57600080fd5b505092919050505098508a600160a060020a031663e82617fb6121266040805190810160405280601381526020017f636173682d6f75742e73657373696f6e2e6964000000000000000000000000008152508d61297d565b6040805160e060020a63ffffffff851602815260048101929092525160248083019260209291908290030181600087803b15801561216357600080fd5b505af1158015612177573d6000803e3d6000fd5b505050506040513d602081101561218d57600080fd5b505160408051808201909152601c81527f636173682d6f75742e6170706c69636174696f6e2e61646472657373000000006020820152909850600160a060020a038c1690634c77e5ba906121e1908d61297d565b6040805160e060020a63ffffffff851602815260048101929092525160248083019260209291908290030181600087803b15801561221e57600080fd5b505af1158015612232573d6000803e3d6000fd5b505050506040513d602081101561224857600080fd5b505160408051808201909152600f8152600080516020612b3a8339815191526020820152909750600160a060020a038c169063e82617fb9061228a908d61297d565b6040805160e060020a63ffffffff851602815260048101929092525160248083019260209291908290030181600087803b1580156122c757600080fd5b505af11580156122db573d6000803e3d6000fd5b505050506040513d60208110156122f157600080fd5b505160408051808201909152601c8152600080516020612b5a8339815191526020820152909650600160a060020a038c169063e82617fb90612333908d61297d565b6040805160e060020a63ffffffff851602815260048101929092525160248083019260209291908290030181600087803b15801561237057600080fd5b505af1158015612384573d6000803e3d6000fd5b505050506040513d602081101561239a57600080fd5b505160408051808201909152601a81527f636173682d696e2e7661756c745f6c6f6769635f616d6f756e740000000000006020820152909550600160a060020a038c169063e82617fb906123ee908d61297d565b6040805160e060020a63ffffffff851602815260048101929092525160248083019260209291908290030181600087803b15801561242b57600080fd5b505af115801561243f573d6000803e3d6000fd5b505050506040513d602081101561245557600080fd5b505160408051808201909152601881527f636173682d6f75742e77697468647261775f616d6f756e7400000000000000006020820152909450600160a060020a038c169063e82617fb906124a9908d61297d565b6040805160e060020a63ffffffff851602815260048101929092525160248083019260209291908290030181600087803b1580156124e657600080fd5b505af11580156124fa573d6000803e3d6000fd5b505050506040513d602081101561251057600080fd5b505160408051808201909152601881527f636173682d6f75742e72657365727665645f616d6f756e7400000000000000006020820152909350600160a060020a038c169063e82617fb90612564908d61297d565b6040805160e060020a63ffffffff851602815260048101929092525160248083019260209291908290030181600087803b1580156125a157600080fd5b505af11580156125b5573d6000803e3d6000fd5b505050506040513d60208110156125cb57600080fd5b50516040805180820190915260138152600080516020612b1a8339815191526020820152909250600160a060020a038c169063e82617fb9061260d908d61297d565b6040805160e060020a63ffffffff851602815260048101929092525160248083019260209291908290030181600087803b15801561264a57600080fd5b505af115801561265e573d6000803e3d6000fd5b505050506040513d602081101561267457600080fd5b5051989b979a5095985093969295919450929190565b600084600160a060020a031663e82617fb6126c8604080519081016040528060138152602001600080516020612b1a8339815191528152508761297d565b6040805160e060020a63ffffffff851602815260048101929092525160248083019260209291908290030181600087803b15801561270557600080fd5b505af1158015612719573d6000803e3d6000fd5b505050506040513d602081101561272f57600080fd5b505160408051808201909152601681527f636173682d6f75742e73706c69745f70617274696573000000000000000000006020820152909150600160a060020a03861690635a2bf25a90612784908785612a46565b6040805160e060020a63ffffffff85160281526004810192909252600160a060020a038716602483015251604480830192600092919082900301818387803b1580156127cf57600080fd5b505af11580156127e3573d6000803e3d6000fd5b5050505084600160a060020a031663ffb4f6236128366040805190810160405280601381526020017f636173682d6f75742e73706c69745f66656573000000000000000000000000008152508785612a46565b6040805160e060020a63ffffffff851602815260048101929092526024820186905251604480830192600092919082900301818387803b15801561287957600080fd5b505af115801561288d573d6000803e3d6000fd5b5050505084600160a060020a031663ffb4f6236128cd604080519081016040528060138152602001600080516020612b1a8339815191528152508761297d565b6040805160e060020a63ffffffff8516028152600481019290925260018501602483015251604480830192600092919082900301818387803b15801561291257600080fd5b505af1158015612926573d6000803e3d6000fd5b505050505050505050565b600082600160a060020a031663e82617fb610ac66040805190810160405280601881526020017f636173682d6f75742e77697468647261775f616d6f756e740000000000000000815250855b600082826040516020018083805190602001908083835b602083106129b35780518252601f199092019160209182019101612994565b51815160209384036101000a600019018019909216911617905292019384525060408051808503815293820190819052835193945092839250908401908083835b60208310612a135780518252601f1990920191602091820191016129f4565b5181516020939093036101000a600019018019909116921691909117905260405192018290039091209695505050505050565b60008383836040516020018084805190602001908083835b60208310612a7d5780518252601f199092019160209182019101612a5e565b51815160209384036101000a6000190180199092169116179052920194855250838101929092525060408051808403830181529281019081905282519293509182918401908083835b60208310612ae55780518252601f199092019160209182019101612ac6565b5181516020939093036101000a600019018019909116921691909117905260405192018290039091209796505050505050505600636173682d6f75742e73706c69745f73697a6500000000000000000000000000636173682d6f75742e7374617475730000000000000000000000000000000000636173682d6f75742e7661756c745f6c6f6769632d70657263656e7400000000a165627a7a7230582079a54061b8241fb05f38c91ce987a17b54c788fe94369200093f4853d2859f710029",
  "source": "pragma solidity 0.4.24;\n\nimport \"../platform/Named.sol\";\nimport \"../platform/Mortal.sol\";\nimport \"../platform/Component.sol\";\nimport \"./api/ACashOutStorage.sol\";\nimport {CashOutLib} from \"../libs/Libraries.sol\";\n\ncontract CashOutStorage is ACashOutStorage, Named(\"cash-out-storage\"), Mortal, Component {\n\n    string constant DATABASE = \"database\";\n\n    using CashOutLib for address;\n\n    constructor(address _config) Component(_config) public {}\n\n    function save(string kioskId, uint256 sessionId, address application, uint256 status, uint256 vaultLogicPercent,\n        uint256 vaultLogicAmount, uint256 withdrawAmount, uint256 reservedAmount, address[] parties, uint256[] fees) public returns (uint256 channelId) {\n        channelId = database.save(kioskId, sessionId, application, status, vaultLogicPercent, vaultLogicAmount, withdrawAmount, reservedAmount, parties, fees);\n        emit CashOutSaved(channelId, kioskId, sessionId, application, status);\n    }\n\n    function get(uint256 channelId) public view\n    returns(\n        string kioskId,\n        uint256 sessionId,\n        address application,\n        uint256 status,\n        uint256 vaultLogicPercent,\n        uint256 vaultLogicAmount,\n        uint256 withdrawAmount,\n        uint256 reservedAmount,\n        uint256 splitSize\n    ) {\n        return database.get(channelId);\n    }\n\n    function getKioskId(uint256 channelId) public view returns(string) {\n        return database.getKioskId(channelId);\n    }\n\n    function getSessionId(uint256 channelId) public view returns(uint256) {\n        return database.getSessionId(channelId);\n    }\n\n    function getApplication(uint256 channelId) public view returns(address) {\n        return database.getApplication(channelId);\n    }\n\n    function setStatus(uint256 channelId, uint256 status) public {\n        database.setStatus(channelId, status);\n        emit CashOutStatusUpdated(channelId, status);\n    }\n\n    function getStatus(uint256 channelId) public view returns(uint256) {\n        return database.getStatus(channelId);\n    }\n\n    function getWithdrawAmount(uint256 channelId) public view returns(uint256) {\n        return database.getWithdrawAmount(channelId);\n    }\n\n    function getReservedAmount(uint256 channelId) public view returns(uint256) {\n        return database.getReservedAmount(channelId);\n    }\n\n    function getVaultLogicAmount(uint256 channelId) public view returns(uint256) {\n        return database.getVaultLogicAmount(channelId);\n    }\n\n    function setVaultLogicPercent(uint256 channelId, uint256 vaultLogicPercent) public {\n        database.setVaultLogicPercent(channelId, vaultLogicPercent);\n    }\n\n    function getVaultLogicPercent(uint256 channelId) public view returns(uint256){\n        return database.getVaultLogicPercent(channelId);\n    }\n\n    function addSplit(uint256 channelId, address party, uint256 amount) public {\n        database.addSplit(channelId, party, amount);\n        emit CashOutSplitAdded(channelId, party, amount);\n    }\n\n    function addSplits(uint256 channelId, address[] parties, uint256[] amounts) public {\n        database.addSplits(channelId, parties, amounts);\n    }\n\n    function getSplitSize(uint256 channelId) public view returns(uint256) {\n        return database.getSplitSize(channelId);\n    }\n\n    function getSplit(uint256 channelId, uint256 subIndex) public view returns(address, uint256) {\n        return database.getSplit(channelId, subIndex);\n    }\n\n}",
  "sourcePath": "/home/andrew/vault-logic-project/Development/test/vault-logic-api/truffle/contracts/storages/CashOutStorage.sol",
  "compiler": {
    "name": "solc",
    "version": "0.4.24+commit.e67f0147.Emscripten.clang"
  },
  "schemaVersion": "2.0.1",
  "updatedAt": "2018-11-05T14:11:27.320Z"
}