{
  "contractName": "CashInManager",
  "abi": [
    {
      "constant": true,
      "inputs": [],
      "name": "name",
      "outputs": [
        {
          "name": "",
          "type": "string"
        }
      ],
      "payable": false,
      "stateMutability": "view",
      "type": "function"
    },
    {
      "constant": false,
      "inputs": [],
      "name": "kill",
      "outputs": [],
      "payable": false,
      "stateMutability": "nonpayable",
      "type": "function"
    },
    {
      "constant": true,
      "inputs": [],
      "name": "owner",
      "outputs": [
        {
          "name": "",
          "type": "address"
        }
      ],
      "payable": false,
      "stateMutability": "view",
      "type": "function"
    },
    {
      "inputs": [
        {
          "name": "_config",
          "type": "address"
        }
      ],
      "payable": false,
      "stateMutability": "nonpayable",
      "type": "constructor"
    },
    {
      "constant": false,
      "inputs": [
        {
          "name": "_application",
          "type": "address"
        },
        {
          "name": "_sessionId",
          "type": "uint256"
        },
        {
          "name": "_maxBalance",
          "type": "uint256"
        },
        {
          "name": "_fail",
          "type": "function"
        },
        {
          "name": "_success",
          "type": "function"
        },
        {
          "name": "_update",
          "type": "function"
        }
      ],
      "name": "openCashInChannel",
      "outputs": [],
      "payable": false,
      "stateMutability": "nonpayable",
      "type": "function"
    },
    {
      "constant": false,
      "inputs": [
        {
          "name": "_commandId",
          "type": "uint256"
        }
      ],
      "name": "confirmOpen",
      "outputs": [],
      "payable": false,
      "stateMutability": "nonpayable",
      "type": "function"
    },
    {
      "constant": false,
      "inputs": [
        {
          "name": "_channelId",
          "type": "uint256"
        },
        {
          "name": "_amount",
          "type": "uint256"
        }
      ],
      "name": "updateCashInBalance",
      "outputs": [],
      "payable": false,
      "stateMutability": "nonpayable",
      "type": "function"
    },
    {
      "constant": false,
      "inputs": [
        {
          "name": "_application",
          "type": "address"
        },
        {
          "name": "_sessionId",
          "type": "uint256"
        },
        {
          "name": "_channelId",
          "type": "uint256"
        },
        {
          "name": "_fees",
          "type": "uint256[]"
        },
        {
          "name": "_parties",
          "type": "address[]"
        },
        {
          "name": "_success",
          "type": "function"
        },
        {
          "name": "_fail",
          "type": "function"
        }
      ],
      "name": "closeCashInChannel",
      "outputs": [],
      "payable": false,
      "stateMutability": "nonpayable",
      "type": "function"
    },
    {
      "constant": true,
      "inputs": [
        {
          "name": "_application",
          "type": "address"
        },
        {
          "name": "_channelId",
          "type": "uint256"
        }
      ],
      "name": "balanceOf",
      "outputs": [
        {
          "name": "_balance",
          "type": "uint256"
        }
      ],
      "payable": false,
      "stateMutability": "view",
      "type": "function"
    },
    {
      "constant": false,
      "inputs": [
        {
          "name": "_commandId",
          "type": "uint256"
        }
      ],
      "name": "confirmClose",
      "outputs": [],
      "payable": false,
      "stateMutability": "nonpayable",
      "type": "function"
    }
  ],
  "bytecode": "0x60806040523480156200001157600080fd5b50604051602080620034d68339810160408181529151828201909252600f8082527f636173682d696e2d6d616e6167657200000000000000000000000000000000006020830190815260008054600160a060020a031916331790558392916200007d91600191620002b8565b505080600160a060020a031663713b563f6040518163ffffffff167c0100000000000000000000000000000000000000000000000000000000028152600401602060405180830381600087803b158015620000d757600080fd5b505af1158015620000ec573d6000803e3d6000fd5b505050506040513d60208110156200010357600080fd5b505160038054600160a060020a031916600160a060020a03928316179055604080517fd0496d6a00000000000000000000000000000000000000000000000000000000815290519183169163d0496d6a916004808201926020929091908290030181600087803b1580156200017757600080fd5b505af11580156200018c573d6000803e3d6000fd5b505050506040513d6020811015620001a357600080fd5b505160028054600160a060020a031916600160a060020a03928316178082556040517ff2c298be00000000000000000000000000000000000000000000000000000000815260206004820190815260018054610100818316150260001901169490940460248301819052929094169363f2c298be93929091829160449091019084908015620002765780601f106200024a5761010080835404028352916020019162000276565b820191906000526020600020905b8154815290600101906020018083116200025857829003601f168201915b505092505050600060405180830381600087803b1580156200029757600080fd5b505af1158015620002ac573d6000803e3d6000fd5b5050505050506200035d565b828054600181600116156101000203166002900490600052602060002090601f016020900481019282601f10620002fb57805160ff19168380011785556200032b565b828001600101855582156200032b579182015b828111156200032b5782518255916020019190600101906200030e565b50620003399291506200033d565b5090565b6200035a91905b8082111562000339576000815560010162000344565b90565b613169806200036d6000396000f30060806040526004361061007e5763ffffffff60e060020a600035041662fdd58e811461008357806306fdde03146100b957806341c0e1b51461014357806354e027d81461015a5780635940c65514610175578063882d5f7a1461018d5780638da5cb5b146101a55780639b4908d6146101d6578063b05405e4146102b1575b600080fd5b34801561008f57600080fd5b506100a7600160a060020a036004351660243561031c565b60408051918252519081900360200190f35b3480156100c557600080fd5b506100ce6106a5565b6040805160208082528351818301528351919283929083019185019080838360005b838110156101085781810151838201526020016100f0565b50505050905090810190601f1680156101355780820380516001836020036101000a031916815260200191505b509250505060405180910390f35b34801561014f57600080fd5b50610158610732565b005b34801561016657600080fd5b50610158600435602435610798565b34801561018157600080fd5b50610158600435610ff0565b34801561019957600080fd5b50610158600435611778565b3480156101b157600080fd5b506101ba611e78565b60408051600160a060020a039092168252519081900360200190f35b3480156101e257600080fd5b50604080516064356004818101356020818102858101820190965281855261015895600160a060020a03843516956024803596604435963696909560849592909301929091829185019084908082843750506040805187358901803560208181028481018201909552818452989b9a998901989297509082019550935083925085019084908082843750949750506c010000000000000000000000008535818104975063ffffffff68010000000000000000918290048116976020013592830496509104169250611e87915050565b3480156102bd57600080fd5b50610158600160a060020a03600435166024356044356c010000000000000000000000006064358181049163ffffffff6801000000000000000092839004811692608435838104939082900483169260a4359182049290910416612666565b600254604080518082018252600f81526000805160206130be8339815191526020808301918252925160e160020a63349f642f0281526004810193845282516024820152825160009586958695600160a060020a039092169463693ec85e94929391928392604490910191908083838b5b838110156103a557818101518382015260200161038d565b50505050905090810190601f1680156103d25780820380516001836020036101000a031916815260200191505b5092505050602060405180830381600087803b1580156103f157600080fd5b505af1158015610405573d6000803e3d6000fd5b505050506040513d602081101561041b57600080fd5b5051604080517fb70d0b0c000000000000000000000000000000000000000000000000000000008152600481018790529051919350600160a060020a0384169163b70d0b0c916024808201926060929091908290030181600087803b15801561048357600080fd5b505af1158015610497573d6000803e3d6000fd5b505050506040513d60608110156104ad57600080fd5b50602001519050600160a060020a0385811690821614610517576040805160e560020a62461bcd02815260206004820152600d60248201527f696c6c6567612061636365737300000000000000000000000000000000000000604482015290519081900360640190fd5b600254604080518082018252600f81526000805160206130be8339815191526020808301918252925160e160020a63349f642f02815260048101938452825160248201528251600160a060020a039095169463693ec85e949283926044019180838360005b8381101561059457818101518382015260200161057c565b50505050905090810190601f1680156105c15780820380516001836020036101000a031916815260200191505b5092505050602060405180830381600087803b1580156105e057600080fd5b505af11580156105f4573d6000803e3d6000fd5b505050506040513d602081101561060a57600080fd5b5051604080517fc0f962ae000000000000000000000000000000000000000000000000000000008152600481018790529051600160a060020a039092169163c0f962ae916024808201926060929091908290030181600087803b15801561067057600080fd5b505af1158015610684573d6000803e3d6000fd5b505050506040513d606081101561069a57600080fd5b505195945050505050565b60018054604080516020600284861615610100026000190190941693909304601f8101849004840282018401909252818152929183018282801561072a5780601f106106ff5761010080835404028352916020019161072a565b820191906000526020600020905b81548152906001019060200180831161070d57829003601f168201915b505050505081565b600054600160a060020a03163214610794576040805160e560020a62461bcd02815260206004820152601260248201527f6f6e6c79206f776e657220616c6c6f7765640000000000000000000000000000604482015290519081900360640190fd5b6000ff5b6000808080808087600180600254604080518082018252600f81526000805160206130be8339815191526020808301918252925160e160020a63349f642f02815260048101938452825160248201528251600160a060020a039095169463693ec85e949283926044019180838360005b83811015610820578181015183820152602001610808565b50505050905090810190601f16801561084d5780820380516001836020036101000a031916815260200191505b5092505050602060405180830381600087803b15801561086c57600080fd5b505af1158015610880573d6000803e3d6000fd5b505050506040513d602081101561089657600080fd5b50516040805160e060020a638813bc05028152600481018690529051600160a060020a0390921691638813bc05916024808201926020929091908290030181600087803b1580156108e657600080fd5b505af11580156108fa573d6000803e3d6000fd5b505050506040513d602081101561091057600080fd5b5051600581111561091d57fe5b1461096e576040805160e560020a62461bcd02815260206004820152602260248201526000805160206130de833981519152604482015260f160020a6137b702606482015290519081900360840190fd5b604080518082018252600e815260008051602061311e8339815191526020808301918252600254935160e160020a63349f642f0281526004810191825283516024820152835193943394600160a060020a039091169363693ec85e938793909283926044909201919080838360005b838110156109f55781810151838201526020016109dd565b50505050905090810190601f168015610a225780820380516001836020036101000a031916815260200191505b5092505050602060405180830381600087803b158015610a4157600080fd5b505af1158015610a55573d6000803e3d6000fd5b505050506040513d6020811015610a6b57600080fd5b5051600160a060020a031614610ab9576040805160e560020a62461bcd02815260206004820152601260248201526000805160206130fe833981519152604482015290519081900360640190fd5b600254604080518082018252600f81526000805160206130be8339815191526020808301918252925160e160020a63349f642f02815260048101938452825160248201528251600160a060020a039095169463693ec85e949283926044019180838360005b83811015610b36578181015183820152602001610b1e565b50505050905090810190601f168015610b635780820380516001836020036101000a031916815260200191505b5092505050602060405180830381600087803b158015610b8257600080fd5b505af1158015610b96573d6000803e3d6000fd5b505050506040513d6020811015610bac57600080fd5b5051604080517fb70d0b0c000000000000000000000000000000000000000000000000000000008152600481018e90529051919a50600160a060020a038b169163b70d0b0c916024808201926060929091908290030181600087803b158015610c1457600080fd5b505af1158015610c28573d6000803e3d6000fd5b505050506040513d6060811015610c3e57600080fd5b5051604080517fc0f962ae000000000000000000000000000000000000000000000000000000008152600481018e90529051919950600160a060020a038b169163c0f962ae916024808201926060929091908290030181600087803b158015610ca657600080fd5b505af1158015610cba573d6000803e3d6000fd5b505050506040513d6060811015610cd057600080fd5b5080516020909101519097509550898701861015610d38576040805160e560020a62461bcd02815260206004820152601860248201527f636173682d696e2062616c616e6365206f766572666c6f770000000000000000604482015290519081900360640190fd5b88600160a060020a031662d7dceb8c8c8a016040518363ffffffff1660e060020a0281526004018083815260200182815260200192505050600060405180830381600087803b158015610d8a57600080fd5b505af1158015610d9e573d6000803e3d6000fd5b5050505088600160a060020a031663c9d88c248c6040518263ffffffff1660e060020a0281526004018082815260200191505060a060405180830381600087803b158015610deb57600080fd5b505af1158015610dff573d6000803e3d6000fd5b505050506040513d60a0811015610e1557600080fd5b50608001516002546040805180820182526012815260008051602061309e8339815191526020828101918252925160e160020a63349f642f028152600481019384528251602482015282516c0100000000000000000000000087049b506801000000000000000090960463ffffffff169950600160a060020a039094169463693ec85e94929392839260449091019180838360005b83811015610ec2578181015183820152602001610eaa565b50505050905090810190601f168015610eef5780820380516001836020036101000a031916815260200191505b5092505050602060405180830381600087803b158015610f0e57600080fd5b505af1158015610f22573d6000803e3d6000fd5b505050506040513d6020811015610f3857600080fd5b5051604080517f2c903d11000000000000000000000000000000000000000000000000000000008152600481018b9052602481018e9052604481018d905268010000000000000000640100000000890263ffffffff8916170260648201529051600160a060020a0390921691632c903d119160848082019260009290919082900301818387803b158015610fcb57600080fd5b505af1158015610fdf573d6000803e3d6000fd5b505050505050505050505050505050565b600080808080858180600254604080518082018252600f81526000805160206130be8339815191526020808301918252925160e160020a63349f642f02815260048101938452825160248201528251600160a060020a039095169463693ec85e949283926044019180838360005b8381101561107657818101518382015260200161105e565b50505050905090810190601f1680156110a35780820380516001836020036101000a031916815260200191505b5092505050602060405180830381600087803b1580156110c257600080fd5b505af11580156110d6573d6000803e3d6000fd5b505050506040513d60208110156110ec57600080fd5b50516040805160e060020a638813bc05028152600481018690529051600160a060020a0390921691638813bc05916024808201926020929091908290030181600087803b15801561113c57600080fd5b505af1158015611150573d6000803e3d6000fd5b505050506040513d602081101561116657600080fd5b5051600581111561117357fe5b146111c4576040805160e560020a62461bcd02815260206004820152602260248201526000805160206130de833981519152604482015260f160020a6137b702606482015290519081900360840190fd5b604080518082018252600e815260008051602061311e8339815191526020808301918252600254935160e160020a63349f642f0281526004810191825283516024820152835193943394600160a060020a039091169363693ec85e938793909283926044909201919080838360005b8381101561124b578181015183820152602001611233565b50505050905090810190601f1680156112785780820380516001836020036101000a031916815260200191505b5092505050602060405180830381600087803b15801561129757600080fd5b505af11580156112ab573d6000803e3d6000fd5b505050506040513d60208110156112c157600080fd5b5051600160a060020a03161461130f576040805160e560020a62461bcd02815260206004820152601260248201526000805160206130fe833981519152604482015290519081900360640190fd5b600254604080518082018252600f81526000805160206130be8339815191526020808301918252925160e160020a63349f642f02815260048101938452825160248201528251600160a060020a039095169463693ec85e949283926044019180838360005b8381101561138c578181015183820152602001611374565b50505050905090810190601f1680156113b95780820380516001836020036101000a031916815260200191505b5092505050602060405180830381600087803b1580156113d857600080fd5b505af11580156113ec573d6000803e3d6000fd5b505050506040513d602081101561140257600080fd5b5051604080517fc9d88c24000000000000000000000000000000000000000000000000000000008152600481018c90529051919950600160a060020a038a169163c9d88c249160248082019260a0929091908290030181600087803b15801561146a57600080fd5b505af115801561147e573d6000803e3d6000fd5b505050506040513d60a081101561149457600080fd5b5080516020820151606090920151604080517f4c1ed7f5000000000000000000000000000000000000000000000000000000008152600481018e9052602481018590526064604482018190529151939b509399506c01000000000000000000000000820498506801000000000000000090910463ffffffff169650600160a060020a038b1692634c1ed7f5928183019260009282900301818387803b15801561153c57600080fd5b505af1158015611550573d6000803e3d6000fd5b5050604080517fb1cc2bd1000000000000000000000000000000000000000000000000000000008152600481018d9052600160248201529051600160a060020a038c16935063b1cc2bd19250604480830192600092919082900301818387803b1580156115bc57600080fd5b505af11580156115d0573d6000803e3d6000fd5b50506002546040805180820182526012815260008051602061309e8339815191526020808301918252925160e160020a63349f642f02815260048101938452825160248201528251600160a060020a03909516965063693ec85e955091938392604401919080838360005b8381101561165357818101518382015260200161163b565b50505050905090810190601f1680156116805780820380516001836020036101000a031916815260200191505b5092505050602060405180830381600087803b15801561169f57600080fd5b505af11580156116b3573d6000803e3d6000fd5b505050506040513d60208110156116c957600080fd5b5051604080517f8a933400000000000000000000000000000000000000000000000000000000008152600481018a9052602481018c905268010000000000000000640100000000890263ffffffff8916170260448201529051600160a060020a0390921691638a9334009160648082019260009290919082900301818387803b15801561175557600080fd5b505af1158015611769573d6000803e3d6000fd5b50505050505050505050505050565b600080808084600380600254604080518082018252600f81526000805160206130be8339815191526020808301918252925160e160020a63349f642f02815260048101938452825160248201528251600160a060020a039095169463693ec85e949283926044019180838360005b838110156117fe5781810151838201526020016117e6565b50505050905090810190601f16801561182b5780820380516001836020036101000a031916815260200191505b5092505050602060405180830381600087803b15801561184a57600080fd5b505af115801561185e573d6000803e3d6000fd5b505050506040513d602081101561187457600080fd5b50516040805160e060020a638813bc05028152600481018690529051600160a060020a0390921691638813bc05916024808201926020929091908290030181600087803b1580156118c457600080fd5b505af11580156118d8573d6000803e3d6000fd5b505050506040513d60208110156118ee57600080fd5b505160058111156118fb57fe5b1461194c576040805160e560020a62461bcd02815260206004820152602260248201526000805160206130de833981519152604482015260f160020a6137b702606482015290519081900360840190fd5b604080518082018252600e815260008051602061311e8339815191526020808301918252600254935160e160020a63349f642f0281526004810191825283516024820152835193943394600160a060020a039091169363693ec85e938793909283926044909201919080838360005b838110156119d35781810151838201526020016119bb565b50505050905090810190601f168015611a005780820380516001836020036101000a031916815260200191505b5092505050602060405180830381600087803b158015611a1f57600080fd5b505af1158015611a33573d6000803e3d6000fd5b505050506040513d6020811015611a4957600080fd5b5051600160a060020a031614611a97576040805160e560020a62461bcd02815260206004820152601260248201526000805160206130fe833981519152604482015290519081900360640190fd5b600254604080518082018252600f81526000805160206130be8339815191526020808301918252925160e160020a63349f642f02815260048101938452825160248201528251600160a060020a039095169463693ec85e949283926044019180838360005b83811015611b14578181015183820152602001611afc565b50505050905090810190601f168015611b415780820380516001836020036101000a031916815260200191505b5092505050602060405180830381600087803b158015611b6057600080fd5b505af1158015611b74573d6000803e3d6000fd5b505050506040513d6020811015611b8a57600080fd5b5051604080517ff9029bc3000000000000000000000000000000000000000000000000000000008152600481018b90529051919850600160a060020a0389169163f9029bc3916024808201926060929091908290030181600087803b158015611bf257600080fd5b505af1158015611c06573d6000803e3d6000fd5b505050506040513d6060811015611c1c57600080fd5b5080516020909101516040517fb1cc2bd100000000000000000000000000000000000000000000000000000000815260048082018c81529399506c01000000000000000000000000830498506801000000000000000090920463ffffffff169650600160a060020a038a169263b1cc2bd1928c929091906024018260ff16815260200192505050600060405180830381600087803b158015611cbd57600080fd5b505af1158015611cd1573d6000803e3d6000fd5b50506002546040805180820182526012815260008051602061309e8339815191526020808301918252925160e160020a63349f642f02815260048101938452825160248201528251600160a060020a03909516965063693ec85e955091938392604401919080838360005b83811015611d54578181015183820152602001611d3c565b50505050905090810190601f168015611d815780820380516001836020036101000a031916815260200191505b5092505050602060405180830381600087803b158015611da057600080fd5b505af1158015611db4573d6000803e3d6000fd5b505050506040513d6020811015611dca57600080fd5b5051604080517f192aed2000000000000000000000000000000000000000000000000000000000815260048101899052602481018b905268010000000000000000640100000000890263ffffffff8916170260448201529051600160a060020a039092169163192aed209160648082019260009290919082900301818387803b158015611e5657600080fd5b505af1158015611e6a573d6000803e3d6000fd5b505050505050505050505050565b600054600160a060020a031681565b600087600180600254604080518082018252600f81526000805160206130be8339815191526020808301918252925160e160020a63349f642f02815260048101938452825160248201528251600160a060020a039095169463693ec85e949283926044019180838360005b83811015611f0a578181015183820152602001611ef2565b50505050905090810190601f168015611f375780820380516001836020036101000a031916815260200191505b5092505050602060405180830381600087803b158015611f5657600080fd5b505af1158015611f6a573d6000803e3d6000fd5b505050506040513d6020811015611f8057600080fd5b50516040805160e060020a638813bc05028152600481018690529051600160a060020a0390921691638813bc05916024808201926020929091908290030181600087803b158015611fd057600080fd5b505af1158015611fe4573d6000803e3d6000fd5b505050506040513d6020811015611ffa57600080fd5b5051600581111561200757fe5b14612058576040805160e560020a62461bcd02815260206004820152602260248201526000805160206130de833981519152604482015260f160020a6137b702606482015290519081900360840190fd5b6040805180820182526012815260008051602061309e8339815191526020808301918252600254935160e160020a63349f642f0281526004810191825283516024820152835193943394600160a060020a039091169363693ec85e938793909283926044909201919080838360005b838110156120df5781810151838201526020016120c7565b50505050905090810190601f16801561210c5780820380516001836020036101000a031916815260200191505b5092505050602060405180830381600087803b15801561212b57600080fd5b505af115801561213f573d6000803e3d6000fd5b505050506040513d602081101561215557600080fd5b5051600160a060020a0316146121a3576040805160e560020a62461bcd02815260206004820152601260248201526000805160206130fe833981519152604482015290519081900360640190fd5b6121ae8d8d8d612b9a565b6121b88b8b612e5f565b600254604080518082018252600f81526000805160206130be8339815191526020808301918252925160e160020a63349f642f02815260048101938452825160248201528251600160a060020a039095169463693ec85e949283926044019180838360005b8381101561223557818101518382015260200161221d565b50505050905090810190601f1680156122625780820380516001836020036101000a031916815260200191505b5092505050602060405180830381600087803b15801561228157600080fd5b505af1158015612295573d6000803e3d6000fd5b505050506040513d60208110156122ab57600080fd5b8101908080519060200190929190505050935083600160a060020a0316636ef612718c8c8c6040518463ffffffff1660e060020a028152600401808481526020018060200180602001838103835285818151815260200191508051906020019060200280838360005b8381101561232c578181015183820152602001612314565b50505050905001838103825284818151815260200191508051906020019060200280838360005b8381101561236b578181015183820152602001612353565b5050505090500195505050505050600060405180830381600087803b15801561239357600080fd5b505af11580156123a7573d6000803e3d6000fd5b5050505083600160a060020a03166311ac7c7c8c8e8b8b8b8b6040518763ffffffff1660e060020a02815260040180878152602001868152602001858563ffffffff1690640100000000021768010000000000000000028152602001838363ffffffff16906401000000000217680100000000000000000281526020019650505050505050600060405180830381600087803b15801561244657600080fd5b505af115801561245a573d6000803e3d6000fd5b5050604080517fb1cc2bd1000000000000000000000000000000000000000000000000000000008152600481018f9052600360248201529051600160a060020a038816935063b1cc2bd19250604480830192600092919082900301818387803b1580156124c657600080fd5b505af11580156124da573d6000803e3d6000fd5b5050600254604080518082018252600e815260008051602061311e8339815191526020808301918252925160e160020a63349f642f02815260048101938452825160248201528251600160a060020a03909516965063693ec85e955091938392604401919080838360005b8381101561255d578181015183820152602001612545565b50505050905090810190601f16801561258a5780820380516001836020036101000a031916815260200191505b5092505050602060405180830381600087803b1580156125a957600080fd5b505af11580156125bd573d6000803e3d6000fd5b505050506040513d60208110156125d357600080fd5b5051604080517f28ac7118000000000000000000000000000000000000000000000000000000008152600481018e9052602481018f90529051600160a060020a03909216916328ac71189160448082019260009290919082900301818387803b15801561263f57600080fd5b505af1158015612653573d6000803e3d6000fd5b5050505050505050505050505050505050565b6040805180820182526012815260008051602061309e8339815191526020808301918252600254935160e160020a63349f642f028152600481019182528351602482015283516000958695943394600160a060020a039092169363693ec85e938793928392604401918083838d5b838110156126ec5781810151838201526020016126d4565b50505050905090810190601f1680156127195780820380516001836020036101000a031916815260200191505b5092505050602060405180830381600087803b15801561273857600080fd5b505af115801561274c573d6000803e3d6000fd5b505050506040513d602081101561276257600080fd5b5051600160a060020a0316146127b0576040805160e560020a62461bcd02815260206004820152601260248201526000805160206130fe833981519152604482015290519081900360640190fd5b600254604080518082018252600f81526000805160206130be8339815191526020808301918252925160e160020a63349f642f02815260048101938452825160248201528251600160a060020a039095169463693ec85e949283926044019180838360005b8381101561282d578181015183820152602001612815565b50505050905090810190601f16801561285a5780820380516001836020036101000a031916815260200191505b5092505050602060405180830381600087803b15801561287957600080fd5b505af115801561288d573d6000803e3d6000fd5b505050506040513d60208110156128a357600080fd5b5051604080517f2d980d61000000000000000000000000000000000000000000000000000000008152600481018e9052600160a060020a038f81166024830152915192955090851691632d980d61916044808201926020929091908290030181600087803b15801561291457600080fd5b505af1158015612928573d6000803e3d6000fd5b505050506040513d602081101561293e57600080fd5b5051604080517ff6497a7d00000000000000000000000000000000000000000000000000000000815260048101839052602481018e9052604481018d905268010000000000000000640100000000808e0263ffffffff808f169190911783026064850152818d02818d161783026084850152908a02908916170260a48201529051919350600160a060020a0385169163f6497a7d9160c48082019260009290919082900301818387803b1580156129f457600080fd5b505af1158015612a08573d6000803e3d6000fd5b5050600254604080518082018252600e815260008051602061311e8339815191526020808301918252925160e160020a63349f642f02815260048101938452825160248201528251600160a060020a03909516965063693ec85e955091938392604401919080838360005b83811015612a8b578181015183820152602001612a73565b50505050905090810190601f168015612ab85780820380516001836020036101000a031916815260200191505b5092505050602060405180830381600087803b158015612ad757600080fd5b505af1158015612aeb573d6000803e3d6000fd5b505050506040513d6020811015612b0157600080fd5b5051604080517ff61f069c00000000000000000000000000000000000000000000000000000000815260048101859052602481018e9052604481018d90529051600160a060020a039092169163f61f069c9160648082019260009290919082900301818387803b158015612b7457600080fd5b505af1158015612b88573d6000803e3d6000fd5b50505050505050505050505050505050565b600254604080518082018252600f81526000805160206130be8339815191526020808301918252925160e160020a63349f642f02815260048101938452825160248201528251600095600160a060020a03169463693ec85e949390928392604490910191908083838b5b83811015612c1c578181015183820152602001612c04565b50505050905090810190601f168015612c495780820380516001836020036101000a031916815260200191505b5092505050602060405180830381600087803b158015612c6857600080fd5b505af1158015612c7c573d6000803e3d6000fd5b505050506040513d6020811015612c9257600080fd5b5051604080517f890b954d0000000000000000000000000000000000000000000000000000000081526004810185905290519192508491600160a060020a0384169163890b954d9160248083019260209291908290030181600087803b158015612cfb57600080fd5b505af1158015612d0f573d6000803e3d6000fd5b505050506040513d6020811015612d2557600080fd5b505114612d7c576040805160e560020a62461bcd02815260206004820152600f60248201527f73657373696f6e20646966666572730000000000000000000000000000000000604482015290519081900360640190fd5b83600160a060020a031681600160a060020a0316630b6d1823846040518263ffffffff1660e060020a02815260040180828152602001915050602060405180830381600087803b158015612dcf57600080fd5b505af1158015612de3573d6000803e3d6000fd5b505050506040513d6020811015612df957600080fd5b5051600160a060020a031614612e59576040805160e560020a62461bcd02815260206004820152600e60248201527f696c6c6567616c20616363657373000000000000000000000000000000000000604482015290519081900360640190fd5b50505050565b600254604080518082018252600f81526000805160206130be8339815191526020808301918252925160e160020a63349f642f0281526004810193845282516024820152825160009586958695869586958695600160a060020a039095169463693ec85e94928392604401918083838b5b83811015612ee8578181015183820152602001612ed0565b50505050905090810190601f168015612f155780820380516001836020036101000a031916815260200191505b5092505050602060405180830381600087803b158015612f3457600080fd5b505af1158015612f48573d6000803e3d6000fd5b505050506040513d6020811015612f5e57600080fd5b5051604080517fc0f962ae000000000000000000000000000000000000000000000000000000008152600481018b90529051919750600160a060020a0388169163c0f962ae916024808201926060929091908290030181600087803b158015612fc657600080fd5b505af1158015612fda573d6000803e3d6000fd5b505050506040513d6060811015612ff057600080fd5b50805160409091015190955093505061271083850204915060005b865181101561303957868181518110151561302257fe5b60209081029091010151919091019060010161300b565b818301851015613093576040805160e560020a62461bcd02815260206004820152601860248201527f636173682d696e2062616c616e6365206f766572666c6f770000000000000000604482015290519081900360640190fd5b50505050505050505600636173682d696e2d636f6e74726f6c6c65720000000000000000000000000000636173682d696e2d73746f726167650000000000000000000000000000000000696c6c6567616c20636173682d696e207374617465206d6f6469666963617469616363657373206e6f7420616c6c6f7765640000000000000000000000000000636173682d696e2d6f7261636c65000000000000000000000000000000000000a165627a7a7230582028080ec3fbfd6a75c39f5f1ff0b1edb3fca862a3c2e62b1c8cf1d2cbde852a8e0029",
  "source": "pragma solidity 0.4.24;\n\nimport \"../platform/Named.sol\";\nimport \"../platform/Mortal.sol\";\nimport \"./api/ACashInManager.sol\";\nimport \"../platform/Component.sol\";\nimport \"../oracles/api/ACashInOracle.sol\";\nimport \"../storages/api/ACashInStorage.sol\";\nimport \"../controllers/api/ACashInController.sol\";\n\ncontract CashInManager is ACashInManager, Named(\"cash-in-manager\"), Mortal, Component {\n\n    string constant CONTROLLER = \"cash-in-controller\";\n    string constant STORAGE = \"cash-in-storage\";\n    string constant ORACLE = \"cash-in-oracle\";\n\n    string constant TOKEN_MANAGER = \"token-manager\";\n\n    modifier channelInState(uint256 _cashInId, CashInLib.Status _status) {\n        require(\n            ACashInStorage(context.get(STORAGE)).retrieveCashInStatus(_cashInId) == _status,\n            \"illegal cash-in state modification\"\n        );\n        _;\n    }\n\n    modifier onlyBy(string _name) {\n        require(context.get(_name) == msg.sender, \"access not allowed\");\n        _;\n    }\n\n    constructor(address _config) Component(_config) public {}\n\n    function openCashInChannel(\n        address _application,\n        uint256 _sessionId,\n        uint256 _maxBalance,\n        function(uint256) external _fail,\n        function(uint256, uint256) external _success,\n        function(uint256, uint256, uint256) external _update\n    )\n        public\n        onlyBy(CONTROLLER)\n    {\n        //TODO:implementation: check if msg.sender is registered application\n        //TODO:implementation: check if session can hold open cash-in channel\n        //TODO:implementation SET SESSION HAS ACTIVE CASH-IN CHANNEL FLAG\n        ACashInStorage cashInStorage = ACashInStorage(context.get(STORAGE));\n        uint256 id = cashInStorage.createCashIn(_sessionId, _application);\n        cashInStorage.createOpen(id, _sessionId, _maxBalance, _fail, _success, _update);\n        ACashInOracle(context.get(ORACLE)).onNextOpenCashIn(id, _sessionId, _maxBalance);\n    }\n\n    function confirmOpen(\n        uint256 _commandId\n    )\n        public\n        channelInState(_commandId, CashInLib.Status.CREATING)\n        onlyBy(ORACLE)\n    {\n\n        ACashInStorage cashInStorage = ACashInStorage(context.get(STORAGE));\n        (uint256 sessionId, uint256 maxBalance,,function(uint256, uint256) external success,) = cashInStorage.retrieveOpen(_commandId);\n        //TODO:discuss WHERE AND WHEN RETRIEVE FEE PERCENT?\n        //TODO:implementation: refactor session-storage to set up hasActiveCashIn flag\n        cashInStorage.createAccount(_commandId, maxBalance, 100);\n        cashInStorage.setCashInStatus(_commandId, CashInLib.Status.ACTIVE);\n        ACashInController(context.get(CONTROLLER)).respondOpened(sessionId, _commandId, success);\n    }\n\n    function updateCashInBalance(\n        uint256 _channelId,\n        uint256 _amount\n    )\n        public\n        channelInState(_channelId, CashInLib.Status.ACTIVE)\n        onlyBy(ORACLE)\n    {\n        ACashInStorage cashInStorage = ACashInStorage(context.get(STORAGE));\n        (uint256 sessionId,,) = cashInStorage.retrieveCashIn(_channelId);\n        (uint256 balance, uint256 maxBalance,) = cashInStorage.retrieveAccount(_channelId);\n        require(balance + _amount <= maxBalance, \"cash-in balance overflow\");\n        cashInStorage.setAccountBalance(_channelId, balance + _amount);\n        (,,,,function(uint256, uint256, uint256) external update) = cashInStorage.retrieveOpen(_channelId);\n        ACashInController(context.get(CONTROLLER)).respondUpdate(sessionId, _channelId, _amount, update);\n    }\n\n    function closeCashInChannel(\n        address _application,\n        uint256 _sessionId,\n        uint256 _channelId,\n        uint256[] _fees,\n        address[] _parties,\n        function(uint256, uint256) external _success,\n        function(uint256, uint256) external _fail\n    )\n        public\n        channelInState(_channelId, CashInLib.Status.ACTIVE)\n        onlyBy(CONTROLLER)\n    {\n        //TODO:implementation: check if msg.sender is registered application\n        _validateCanBeClosed(_application, _sessionId, _channelId);\n        _validateSplits(_channelId, _fees);\n        ACashInStorage cashInStorage = ACashInStorage(context.get(STORAGE));\n        cashInStorage.createSplit(_channelId, _fees, _parties);\n        cashInStorage.createClose(_channelId, _sessionId, _success, _fail);\n        cashInStorage.setCashInStatus(_channelId, CashInLib.Status.CLOSE_REQUESTED);\n        ACashInOracle(context.get(ORACLE)).onNextCloseCashIn(_channelId, _sessionId);\n    }\n\n    function _validateCanBeClosed(address _application, uint256 _sessionId, uint256 _cashInId) private view {\n        ACashInStorage cashInStorage = ACashInStorage(context.get(STORAGE));\n        require(cashInStorage.retrieveCashInSessionId(_cashInId) == _sessionId, \"session differs\");\n        require(cashInStorage.retrieveCashInApplication(_cashInId) == _application, \"illegal access\");\n    }\n\n    function _validateSplits(uint256 _cashInId, uint256[] _fees) private view {\n        ACashInStorage cashInStorage = ACashInStorage(context.get(STORAGE));\n        (uint256 balance,,uint256 fee) = cashInStorage.retrieveAccount(_cashInId);\n        uint256 vaultLogicFee = (balance * fee) / 10000;\n        uint256 feesAmount;\n        for (uint256 i = 0; i < _fees.length; i++) feesAmount = feesAmount + _fees[i];\n        require((feesAmount + vaultLogicFee) <= balance, \"cash-in balance overflow\");\n    }\n\n    function balanceOf(\n        address _application,\n        uint256 _channelId\n    )\n        public\n        view\n        returns (\n            uint256 _balance\n        )\n    {\n        ACashInStorage cashInStorage = ACashInStorage(context.get(STORAGE));\n        (,address application,) = cashInStorage.retrieveCashIn(_channelId);\n        require(_application == application, \"illega access\");\n        (_balance,,) = ACashInStorage(context.get(STORAGE)).retrieveAccount(_channelId);\n    }\n\n    function confirmClose(\n        uint256 _commandId\n    )\n        public\n        channelInState(_commandId, CashInLib.Status.CLOSE_REQUESTED)\n        onlyBy(ORACLE)\n    {\n        ACashInStorage cashInStorage = ACashInStorage(context.get(STORAGE));\n        (uint256 sessionId,function(uint256, uint256) external success,) = cashInStorage.retrieveClose(_commandId);\n        //TODO:implementation: CALL TOKEN-MANAGER::performCashInTransfer(uint256 cashInBalance, uint256 fee, uint256[] fees, address[] parties, address _application)\n        //TODO:implementation SET SESSION HAS NO ACTIVE CASH-IN CHANNEL FLAG\n        cashInStorage.setCashInStatus(_commandId, CashInLib.Status.CLOSED);\n        ACashInController(context.get(CONTROLLER)).respondClosed(sessionId, _commandId, success);\n    }\n\n}",
  "sourcePath": "/home/andrew/vault-logic-project/Development/test/vault-logic-api/truffle/contracts/managers/CashInManager.sol",
  "compiler": {
    "name": "solc",
    "version": "0.4.24+commit.e67f0147.Emscripten.clang"
  },
  "schemaVersion": "2.0.1",
  "updatedAt": "2018-11-09T09:37:02.791Z"
}