{
  "contractName": "CashOutOracle",
  "abi": [
    {
      "constant": true,
      "inputs": [],
      "name": "name",
      "outputs": [
        {
          "name": "",
          "type": "string"
        }
      ],
      "payable": false,
      "stateMutability": "view",
      "type": "function"
    },
    {
      "constant": false,
      "inputs": [],
      "name": "kill",
      "outputs": [],
      "payable": false,
      "stateMutability": "nonpayable",
      "type": "function"
    },
    {
      "constant": true,
      "inputs": [],
      "name": "owner",
      "outputs": [
        {
          "name": "",
          "type": "address"
        }
      ],
      "payable": false,
      "stateMutability": "view",
      "type": "function"
    },
    {
      "inputs": [
        {
          "name": "_config",
          "type": "address"
        }
      ],
      "payable": false,
      "stateMutability": "nonpayable",
      "type": "constructor"
    },
    {
      "anonymous": false,
      "inputs": [
        {
          "indexed": false,
          "name": "_commandId",
          "type": "uint256"
        }
      ],
      "name": "OpenCashOut",
      "type": "event"
    },
    {
      "anonymous": false,
      "inputs": [
        {
          "indexed": false,
          "name": "_commandId",
          "type": "uint256"
        },
        {
          "indexed": false,
          "name": "_sessionId",
          "type": "uint256"
        },
        {
          "indexed": false,
          "name": "_toWithdraw",
          "type": "uint256"
        },
        {
          "indexed": false,
          "name": "_bills",
          "type": "uint256[]"
        }
      ],
      "name": "ValidateCashOut",
      "type": "event"
    },
    {
      "anonymous": false,
      "inputs": [
        {
          "indexed": false,
          "name": "_commandId",
          "type": "uint256"
        },
        {
          "indexed": false,
          "name": "_sessionId",
          "type": "uint256"
        },
        {
          "indexed": false,
          "name": "_toWithdraw",
          "type": "uint256"
        },
        {
          "indexed": false,
          "name": "_bills",
          "type": "uint256[]"
        }
      ],
      "name": "CloseCashOut",
      "type": "event"
    },
    {
      "anonymous": false,
      "inputs": [
        {
          "indexed": false,
          "name": "_commandId",
          "type": "uint256"
        }
      ],
      "name": "RollbackCashOut",
      "type": "event"
    },
    {
      "constant": false,
      "inputs": [
        {
          "name": "_commandId",
          "type": "uint256"
        }
      ],
      "name": "onNextOpenCashOut",
      "outputs": [],
      "payable": false,
      "stateMutability": "nonpayable",
      "type": "function"
    },
    {
      "constant": false,
      "inputs": [
        {
          "name": "_commandId",
          "type": "uint256"
        }
      ],
      "name": "successOpen",
      "outputs": [],
      "payable": false,
      "stateMutability": "nonpayable",
      "type": "function"
    },
    {
      "constant": false,
      "inputs": [
        {
          "name": "_commandId",
          "type": "uint256"
        }
      ],
      "name": "failOpen",
      "outputs": [],
      "payable": false,
      "stateMutability": "nonpayable",
      "type": "function"
    },
    {
      "constant": false,
      "inputs": [
        {
          "name": "_commandId",
          "type": "uint256"
        },
        {
          "name": "_sessionId",
          "type": "uint256"
        },
        {
          "name": "_toWithdraw",
          "type": "uint256"
        },
        {
          "name": "_bills",
          "type": "uint256[]"
        }
      ],
      "name": "onNextValidateCashOut",
      "outputs": [],
      "payable": false,
      "stateMutability": "nonpayable",
      "type": "function"
    },
    {
      "constant": false,
      "inputs": [
        {
          "name": "_commandId",
          "type": "uint256"
        }
      ],
      "name": "successValidate",
      "outputs": [],
      "payable": false,
      "stateMutability": "nonpayable",
      "type": "function"
    },
    {
      "constant": false,
      "inputs": [
        {
          "name": "_commandId",
          "type": "uint256"
        }
      ],
      "name": "failValidate",
      "outputs": [],
      "payable": false,
      "stateMutability": "nonpayable",
      "type": "function"
    },
    {
      "constant": false,
      "inputs": [
        {
          "name": "_commandId",
          "type": "uint256"
        },
        {
          "name": "_sessionId",
          "type": "uint256"
        },
        {
          "name": "_toWithdraw",
          "type": "uint256"
        },
        {
          "name": "_bills",
          "type": "uint256[]"
        }
      ],
      "name": "onNextCloseCashOut",
      "outputs": [],
      "payable": false,
      "stateMutability": "nonpayable",
      "type": "function"
    },
    {
      "constant": false,
      "inputs": [
        {
          "name": "_commandId",
          "type": "uint256"
        }
      ],
      "name": "successClose",
      "outputs": [],
      "payable": false,
      "stateMutability": "nonpayable",
      "type": "function"
    },
    {
      "constant": false,
      "inputs": [
        {
          "name": "_commandId",
          "type": "uint256"
        }
      ],
      "name": "failClose",
      "outputs": [],
      "payable": false,
      "stateMutability": "nonpayable",
      "type": "function"
    },
    {
      "constant": false,
      "inputs": [
        {
          "name": "_commandId",
          "type": "uint256"
        }
      ],
      "name": "onNextRollbackCashOut",
      "outputs": [],
      "payable": false,
      "stateMutability": "nonpayable",
      "type": "function"
    },
    {
      "constant": false,
      "inputs": [
        {
          "name": "_commandId",
          "type": "uint256"
        }
      ],
      "name": "successRollback",
      "outputs": [],
      "payable": false,
      "stateMutability": "nonpayable",
      "type": "function"
    },
    {
      "constant": false,
      "inputs": [
        {
          "name": "_commandId",
          "type": "uint256"
        }
      ],
      "name": "failRollback",
      "outputs": [],
      "payable": false,
      "stateMutability": "nonpayable",
      "type": "function"
    }
  ],
  "bytecode": "0x60806040523480156200001157600080fd5b506040516020806200148b8339810160408181529151828201909252600f8082527f636173682d6f75742d6f7261636c6500000000000000000000000000000000006020830190815260008054600160a060020a031916331790558392916200007d91600191620002b8565b505080600160a060020a031663713b563f6040518163ffffffff167c0100000000000000000000000000000000000000000000000000000000028152600401602060405180830381600087803b158015620000d757600080fd5b505af1158015620000ec573d6000803e3d6000fd5b505050506040513d60208110156200010357600080fd5b505160038054600160a060020a031916600160a060020a03928316179055604080517fd0496d6a00000000000000000000000000000000000000000000000000000000815290519183169163d0496d6a916004808201926020929091908290030181600087803b1580156200017757600080fd5b505af11580156200018c573d6000803e3d6000fd5b505050506040513d6020811015620001a357600080fd5b505160028054600160a060020a031916600160a060020a03928316178082556040517ff2c298be00000000000000000000000000000000000000000000000000000000815260206004820190815260018054610100818316150260001901169490940460248301819052929094169363f2c298be93929091829160449091019084908015620002765780601f106200024a5761010080835404028352916020019162000276565b820191906000526020600020905b8154815290600101906020018083116200025857829003601f168201915b505092505050600060405180830381600087803b1580156200029757600080fd5b505af1158015620002ac573d6000803e3d6000fd5b5050505050506200035d565b828054600181600116156101000203166002900490600052602060002090601f016020900481019282601f10620002fb57805160ff19168380011785556200032b565b828001600101855582156200032b579182015b828111156200032b5782518255916020019190600101906200030e565b50620003399291506200033d565b5090565b6200035a91905b8082111562000339576000815560010162000344565b90565b61111e806200036d6000396000f3006080604052600436106100da5763ffffffff7c010000000000000000000000000000000000000000000000000000000060003504166306fdde0381146100df578063105ecd49146101695780631188ad251461018357806341c0e1b5146101e757806352bfd1ce146101fc5780635a2c5cd0146102145780635d51e5b51461022c57806375da247a14610244578063874e44b91461025c5780638da5cb5b14610274578063a0e36aba146102a5578063c2a92192146102bd578063cd0ce82a146102d5578063db118f2f146102ed578063ed57310714610351575b600080fd5b3480156100eb57600080fd5b506100f4610369565b6040805160208082528351818301528351919283929083019185019080838360005b8381101561012e578181015183820152602001610116565b50505050905090810190601f16801561015b5780820380516001836020036101000a031916815260200191505b509250505060405180910390f35b34801561017557600080fd5b506101816004356103f6565b005b34801561018f57600080fd5b50604080516064356004818101356020818102858101820190965281855261018195833595602480359660443596369690956084959290930192909182918501908490808284375094975061042c9650505050505050565b3480156101f357600080fd5b506101816104bf565b34801561020857600080fd5b5061018160043561053c565b34801561022057600080fd5b506101816004356106af565b34801561023857600080fd5b506101816004356106e5565b34801561025057600080fd5b5061018160043561083d565b34801561026857600080fd5b50610181600435610995565b34801561028057600080fd5b50610289610aed565b60408051600160a060020a039092168252519081900360200190f35b3480156102b157600080fd5b50610181600435610afc565b3480156102c957600080fd5b50610181600435610c54565b3480156102e157600080fd5b50610181600435610dac565b3480156102f957600080fd5b506040805160643560048181013560208181028581018201909652818552610181958335956024803596604435963696909560849592909301929091829185019084908082843750949750610f049650505050505050565b34801561035d57600080fd5b50610181600435610f7a565b60018054604080516020600284861615610100026000190190941693909304601f810184900484028201840190925281815292918301828280156103ee5780601f106103c3576101008083540402835291602001916103ee565b820191906000526020600020905b8154815290600101906020018083116103d157829003601f168201915b505050505081565b6040805182815290517f2967346fffed0ad64b0253ca5c77f4c36508615c35af3ca38a34302eeb36d1789181900360200190a150565b7ff0fb88fbd2e502da9cf0967d342066f74c1dc15370c2059a458ff31b1d3267e4848484846040518085815260200184815260200183815260200180602001828103825283818151815260200191508051906020019060200280838360005b838110156104a357818101518382015260200161048b565b505050509050019550505050505060405180910390a150505050565b600054600160a060020a0316321461053857604080517f08c379a000000000000000000000000000000000000000000000000000000000815260206004820152601260248201527f6f6e6c79206f776e657220616c6c6f7765640000000000000000000000000000604482015290519081900360640190fd5b6000ff5b600254604080518082018252601081526000805160206110d38339815191526020808301918252925160e160020a63349f642f02815260048101938452825160248201528251600160a060020a039095169463693ec85e949283926044019180838360005b838110156105b95781810151838201526020016105a1565b50505050905090810190601f1680156105e65780820380516001836020036101000a031916815260200191505b5092505050602060405180830381600087803b15801561060557600080fd5b505af1158015610619573d6000803e3d6000fd5b505050506040513d602081101561062f57600080fd5b5051604080517f882d5f7a000000000000000000000000000000000000000000000000000000008152600481018490529051600160a060020a039092169163882d5f7a9160248082019260009290919082900301818387803b15801561069457600080fd5b505af11580156106a8573d6000803e3d6000fd5b5050505050565b6040805182815290517fc9d1053d14afbe69aa453e0292458589d5a5497bae1ab0d880f327d8fe12f6b09181900360200190a150565b600254604080518082018252601081526000805160206110d38339815191526020808301918252925160e160020a63349f642f02815260048101938452825160248201528251600160a060020a039095169463693ec85e949283926044019180838360005b8381101561076257818101518382015260200161074a565b50505050905090810190601f16801561078f5780820380516001836020036101000a031916815260200191505b5092505050602060405180830381600087803b1580156107ae57600080fd5b505af11580156107c2573d6000803e3d6000fd5b505050506040513d60208110156107d857600080fd5b5051604080517fd8fb4c60000000000000000000000000000000000000000000000000000000008152600481018490529051600160a060020a039092169163d8fb4c609160248082019260009290919082900301818387803b15801561069457600080fd5b600254604080518082018252601081526000805160206110d38339815191526020808301918252925160e160020a63349f642f02815260048101938452825160248201528251600160a060020a039095169463693ec85e949283926044019180838360005b838110156108ba5781810151838201526020016108a2565b50505050905090810190601f1680156108e75780820380516001836020036101000a031916815260200191505b5092505050602060405180830381600087803b15801561090657600080fd5b505af115801561091a573d6000803e3d6000fd5b505050506040513d602081101561093057600080fd5b5051604080517f5940c655000000000000000000000000000000000000000000000000000000008152600481018490529051600160a060020a0390921691635940c6559160248082019260009290919082900301818387803b15801561069457600080fd5b600254604080518082018252601081526000805160206110d38339815191526020808301918252925160e160020a63349f642f02815260048101938452825160248201528251600160a060020a039095169463693ec85e949283926044019180838360005b83811015610a125781810151838201526020016109fa565b50505050905090810190601f168015610a3f5780820380516001836020036101000a031916815260200191505b5092505050602060405180830381600087803b158015610a5e57600080fd5b505af1158015610a72573d6000803e3d6000fd5b505050506040513d6020811015610a8857600080fd5b5051604080517fe79be969000000000000000000000000000000000000000000000000000000008152600481018490529051600160a060020a039092169163e79be9699160248082019260009290919082900301818387803b15801561069457600080fd5b600054600160a060020a031681565b600254604080518082018252601081526000805160206110d38339815191526020808301918252925160e160020a63349f642f02815260048101938452825160248201528251600160a060020a039095169463693ec85e949283926044019180838360005b83811015610b79578181015183820152602001610b61565b50505050905090810190601f168015610ba65780820380516001836020036101000a031916815260200191505b5092505050602060405180830381600087803b158015610bc557600080fd5b505af1158015610bd9573d6000803e3d6000fd5b505050506040513d6020811015610bef57600080fd5b5051604080517fc61307af000000000000000000000000000000000000000000000000000000008152600481018490529051600160a060020a039092169163c61307af9160248082019260009290919082900301818387803b15801561069457600080fd5b600254604080518082018252601081526000805160206110d38339815191526020808301918252925160e160020a63349f642f02815260048101938452825160248201528251600160a060020a039095169463693ec85e949283926044019180838360005b83811015610cd1578181015183820152602001610cb9565b50505050905090810190601f168015610cfe5780820380516001836020036101000a031916815260200191505b5092505050602060405180830381600087803b158015610d1d57600080fd5b505af1158015610d31573d6000803e3d6000fd5b505050506040513d6020811015610d4757600080fd5b5051604080517f7eaa901f000000000000000000000000000000000000000000000000000000008152600481018490529051600160a060020a0390921691637eaa901f9160248082019260009290919082900301818387803b15801561069457600080fd5b600254604080518082018252601081526000805160206110d38339815191526020808301918252925160e160020a63349f642f02815260048101938452825160248201528251600160a060020a039095169463693ec85e949283926044019180838360005b83811015610e29578181015183820152602001610e11565b50505050905090810190601f168015610e565780820380516001836020036101000a031916815260200191505b5092505050602060405180830381600087803b158015610e7557600080fd5b505af1158015610e89573d6000803e3d6000fd5b505050506040513d6020811015610e9f57600080fd5b5051604080517fdf37e8d8000000000000000000000000000000000000000000000000000000008152600481018490529051600160a060020a039092169163df37e8d89160248082019260009290919082900301818387803b15801561069457600080fd5b7fa9834ca918477210355c5749bed6bba83abd538c47bdd0c0f3a32cd7c6930e9184848484604051808581526020018481526020018381526020018060200182810382528381815181526020019150805190602001906020028083836000838110156104a357818101518382015260200161048b565b600254604080518082018252601081526000805160206110d38339815191526020808301918252925160e160020a63349f642f02815260048101938452825160248201528251600160a060020a039095169463693ec85e949283926044019180838360005b83811015610ff7578181015183820152602001610fdf565b50505050905090810190601f1680156110245780820380516001836020036101000a031916815260200191505b5092505050602060405180830381600087803b15801561104357600080fd5b505af1158015611057573d6000803e3d6000fd5b505050506040513d602081101561106d57600080fd5b5051604080517f94024af4000000000000000000000000000000000000000000000000000000008152600481018490529051600160a060020a03909216916394024af49160248082019260009290919082900301818387803b15801561069457600080fd00636173682d6f75742d6d616e6167657200000000000000000000000000000000a165627a7a72305820bb4a64dfe448667170a9ca2dd64614f5d5fac1d0434a3e37d53fb27333204b020029",
  "source": "pragma solidity 0.4.24;\n\nimport \"../platform/Named.sol\";\nimport \"../platform/Mortal.sol\";\nimport \"../platform/Component.sol\";\nimport \"./api/ACashOutOracle.sol\";\nimport \"../managers/api/ACashOutManager.sol\";\n\ncontract CashOutOracle is ACashOutOracle, Named(\"cash-out-oracle\"), Mortal, Component {\n\n    string constant MANAGER = \"cash-out-manager\";\n\n    constructor(address _config) Component(_config) public {}\n\n    function onNextOpenCashOut(uint256 _commandId) public {\n        emit OpenCashOut(_commandId);\n    }\n\n    function successOpen(uint256 _commandId) public {\n        ACashOutManager(context.get(MANAGER)).confirmOpen(_commandId);\n    }\n\n    function failOpen(uint256 _commandId) public {\n        ACashOutManager(context.get(MANAGER)).confirmFailOpen(_commandId);\n    }\n\n    function onNextValidateCashOut(uint256 _commandId, uint256 _sessionId, uint256 _toWithdraw, uint256[] _bills) public {\n        emit ValidateCashOut(_commandId, _sessionId, _toWithdraw, _bills);\n    }\n\n    function successValidate(uint256 _commandId) public {\n        ACashOutManager(context.get(MANAGER)).confirmValidate(_commandId);\n    }\n\n    function failValidate(uint256 _commandId) public {\n        ACashOutManager(context.get(MANAGER)).confirmFailValidate(_commandId);\n    }\n\n    function onNextCloseCashOut(uint256 _commandId, uint256 _sessionId, uint256 _toWithdraw, uint256[] _bills) public {\n        emit CloseCashOut(_commandId, _sessionId, _toWithdraw, _bills);\n    }\n\n    function successClose(uint256 _commandId) public {\n        ACashOutManager(context.get(MANAGER)).confirmClose(_commandId);\n    }\n\n    function failClose(uint256 _commandId) public {\n        ACashOutManager(context.get(MANAGER)).confirmFailClose(_commandId);\n    }\n\n    function onNextRollbackCashOut(uint256 _commandId) public {\n        emit RollbackCashOut(_commandId);\n    }\n\n    function successRollback(uint256 _commandId) public {\n        ACashOutManager(context.get(MANAGER)).confirmRollback(_commandId);\n    }\n\n    function failRollback(uint256 _commandId) public {\n        ACashOutManager(context.get(MANAGER)).confirmFailRollback(_commandId);\n    }\n\n}",
  "sourcePath": "/home/andrew/vault-logic-project/Development/test/vault-logic-api/truffle/contracts/oracles/CashOutOracle.sol",
  "compiler": {
    "name": "solc",
    "version": "0.4.24+commit.e67f0147.Emscripten.clang"
  },
  "schemaVersion": "2.0.1",
  "updatedAt": "2018-11-20T09:03:36.634Z"
}