{
  "contractName": "CashInStorage",
  "abi": [
    {
      "constant": true,
      "inputs": [],
      "name": "name",
      "outputs": [
        {
          "name": "",
          "type": "string"
        }
      ],
      "payable": false,
      "stateMutability": "view",
      "type": "function"
    },
    {
      "constant": false,
      "inputs": [],
      "name": "kill",
      "outputs": [],
      "payable": false,
      "stateMutability": "nonpayable",
      "type": "function"
    },
    {
      "constant": true,
      "inputs": [],
      "name": "owner",
      "outputs": [
        {
          "name": "",
          "type": "address"
        }
      ],
      "payable": false,
      "stateMutability": "view",
      "type": "function"
    },
    {
      "inputs": [
        {
          "name": "_config",
          "type": "address"
        }
      ],
      "payable": false,
      "stateMutability": "nonpayable",
      "type": "constructor"
    },
    {
      "constant": false,
      "inputs": [
        {
          "name": "_sessionId",
          "type": "uint256"
        },
        {
          "name": "_application",
          "type": "address"
        }
      ],
      "name": "createCashIn",
      "outputs": [
        {
          "name": "_id",
          "type": "uint256"
        }
      ],
      "payable": false,
      "stateMutability": "nonpayable",
      "type": "function"
    },
    {
      "constant": true,
      "inputs": [
        {
          "name": "_id",
          "type": "uint256"
        }
      ],
      "name": "retrieveCashIn",
      "outputs": [
        {
          "name": "_sessionId",
          "type": "uint256"
        },
        {
          "name": "_application",
          "type": "address"
        },
        {
          "name": "_status",
          "type": "uint8"
        }
      ],
      "payable": false,
      "stateMutability": "view",
      "type": "function"
    },
    {
      "constant": true,
      "inputs": [
        {
          "name": "_id",
          "type": "uint256"
        }
      ],
      "name": "retrieveCashInSessionId",
      "outputs": [
        {
          "name": "_sessionId",
          "type": "uint256"
        }
      ],
      "payable": false,
      "stateMutability": "view",
      "type": "function"
    },
    {
      "constant": true,
      "inputs": [
        {
          "name": "_id",
          "type": "uint256"
        }
      ],
      "name": "retrieveCashInApplication",
      "outputs": [
        {
          "name": "_application",
          "type": "address"
        }
      ],
      "payable": false,
      "stateMutability": "view",
      "type": "function"
    },
    {
      "constant": false,
      "inputs": [
        {
          "name": "_cashInId",
          "type": "uint256"
        },
        {
          "name": "_status",
          "type": "uint8"
        }
      ],
      "name": "setCashInStatus",
      "outputs": [],
      "payable": false,
      "stateMutability": "nonpayable",
      "type": "function"
    },
    {
      "constant": true,
      "inputs": [
        {
          "name": "_cashInId",
          "type": "uint256"
        }
      ],
      "name": "retrieveCashInStatus",
      "outputs": [
        {
          "name": "_status",
          "type": "uint8"
        }
      ],
      "payable": false,
      "stateMutability": "view",
      "type": "function"
    },
    {
      "constant": false,
      "inputs": [
        {
          "name": "_cashInId",
          "type": "uint256"
        },
        {
          "name": "_fees",
          "type": "uint256[]"
        },
        {
          "name": "_parties",
          "type": "address[]"
        }
      ],
      "name": "createSplit",
      "outputs": [],
      "payable": false,
      "stateMutability": "nonpayable",
      "type": "function"
    },
    {
      "constant": true,
      "inputs": [
        {
          "name": "_cashInId",
          "type": "uint256"
        }
      ],
      "name": "retrieveSplit",
      "outputs": [
        {
          "name": "_fees",
          "type": "uint256[]"
        },
        {
          "name": "_parties",
          "type": "address[]"
        }
      ],
      "payable": false,
      "stateMutability": "view",
      "type": "function"
    },
    {
      "constant": false,
      "inputs": [
        {
          "name": "_cashInId",
          "type": "uint256"
        },
        {
          "name": "_maxBalance",
          "type": "uint256"
        },
        {
          "name": "_fee",
          "type": "uint256"
        }
      ],
      "name": "createAccount",
      "outputs": [],
      "payable": false,
      "stateMutability": "nonpayable",
      "type": "function"
    },
    {
      "constant": true,
      "inputs": [
        {
          "name": "_cashInId",
          "type": "uint256"
        }
      ],
      "name": "retrieveAccount",
      "outputs": [
        {
          "name": "_balance",
          "type": "uint256"
        },
        {
          "name": "_maxBalance",
          "type": "uint256"
        },
        {
          "name": "_fee",
          "type": "uint256"
        }
      ],
      "payable": false,
      "stateMutability": "view",
      "type": "function"
    },
    {
      "constant": false,
      "inputs": [
        {
          "name": "_cashInId",
          "type": "uint256"
        },
        {
          "name": "_amount",
          "type": "uint256"
        }
      ],
      "name": "setAccountBalance",
      "outputs": [],
      "payable": false,
      "stateMutability": "nonpayable",
      "type": "function"
    },
    {
      "constant": false,
      "inputs": [
        {
          "name": "_cashInId",
          "type": "uint256"
        },
        {
          "name": "_sessionId",
          "type": "uint256"
        },
        {
          "name": "_success",
          "type": "function"
        },
        {
          "name": "_fail",
          "type": "function"
        }
      ],
      "name": "createClose",
      "outputs": [],
      "payable": false,
      "stateMutability": "nonpayable",
      "type": "function"
    },
    {
      "constant": true,
      "inputs": [
        {
          "name": "_cashInId",
          "type": "uint256"
        }
      ],
      "name": "retrieveClose",
      "outputs": [
        {
          "name": "_sessionId",
          "type": "uint256"
        },
        {
          "name": "_success",
          "type": "function"
        },
        {
          "name": "_fail",
          "type": "function"
        }
      ],
      "payable": false,
      "stateMutability": "view",
      "type": "function"
    },
    {
      "constant": false,
      "inputs": [
        {
          "name": "_cashInId",
          "type": "uint256"
        },
        {
          "name": "_sessionId",
          "type": "uint256"
        },
        {
          "name": "_maxBalance",
          "type": "uint256"
        },
        {
          "name": "_fail",
          "type": "function"
        },
        {
          "name": "_success",
          "type": "function"
        },
        {
          "name": "_update",
          "type": "function"
        }
      ],
      "name": "createOpen",
      "outputs": [],
      "payable": false,
      "stateMutability": "nonpayable",
      "type": "function"
    },
    {
      "constant": true,
      "inputs": [
        {
          "name": "_cashInId",
          "type": "uint256"
        }
      ],
      "name": "retrieveOpen",
      "outputs": [
        {
          "name": "_sessionId",
          "type": "uint256"
        },
        {
          "name": "_maxBalance",
          "type": "uint256"
        },
        {
          "name": "_fail",
          "type": "function"
        },
        {
          "name": "_success",
          "type": "function"
        },
        {
          "name": "_update",
          "type": "function"
        }
      ],
      "payable": false,
      "stateMutability": "view",
      "type": "function"
    }
  ],
  "bytecode": "0x60806040523480156200001157600080fd5b506040516020806200124a8339810160408181529151828201909252600f8082527f636173682d696e2d73746f7261676500000000000000000000000000000000006020830190815260008054600160a060020a031916331790558392916200007d91600191620002b8565b505080600160a060020a031663713b563f6040518163ffffffff167c0100000000000000000000000000000000000000000000000000000000028152600401602060405180830381600087803b158015620000d757600080fd5b505af1158015620000ec573d6000803e3d6000fd5b505050506040513d60208110156200010357600080fd5b505160038054600160a060020a031916600160a060020a03928316179055604080517fd0496d6a00000000000000000000000000000000000000000000000000000000815290519183169163d0496d6a916004808201926020929091908290030181600087803b1580156200017757600080fd5b505af11580156200018c573d6000803e3d6000fd5b505050506040513d6020811015620001a357600080fd5b505160028054600160a060020a031916600160a060020a03928316178082556040517ff2c298be00000000000000000000000000000000000000000000000000000000815260206004820190815260018054610100818316150260001901169490940460248301819052929094169363f2c298be93929091829160449091019084908015620002765780601f106200024a5761010080835404028352916020019162000276565b820191906000526020600020905b8154815290600101906020018083116200025857829003601f168201915b505092505050600060405180830381600087803b1580156200029757600080fd5b505af1158015620002ac573d6000803e3d6000fd5b5050505050506200035d565b828054600181600116156101000203166002900490600052602060002090601f016020900481019282601f10620002fb57805160ff19168380011785556200032b565b828001600101855582156200032b579182015b828111156200032b5782518255916020019190600101906200030e565b50620003399291506200033d565b5090565b6200035a91905b8082111562000339576000815560010162000344565b90565b610edd806200036d6000396000f3006080604052600436106100fa5763ffffffff7c0100000000000000000000000000000000000000000000000000000000600035041662d7dceb81146100ff57806306fdde031461011c5780630b6d1823146101a657806311ac7c7c146101da5780632d980d611461022957806341c0e1b51461025f5780634c1ed7f5146102745780636ef61271146102925780638813bc0514610325578063890b954d146103615780638da5cb5b14610379578063b1cc2bd11461038e578063b70d0b0c146103ac578063c0f962ae146103ff578063c9d88c2414610435578063ed3ed6d6146104ab578063f6497a7d1461055c578063f9029bc3146105be575b600080fd5b34801561010b57600080fd5b5061011a60043560243561061a565b005b34801561012857600080fd5b5061013161062c565b6040805160208082528351818301528351919283929083019185019080838360005b8381101561016b578181015183820152602001610153565b50505050905090810190601f1680156101985780820380516001836020036101000a031916815260200191505b509250505060405180910390f35b3480156101b257600080fd5b506101be6004356106b9565b60408051600160a060020a039092168252519081900360200190f35b3480156101e657600080fd5b5061011a6004356024356c010000000000000000000000006044358181049163ffffffff68010000000000000000928390048116926064359283049204166106ed565b34801561023557600080fd5b5061024d600435600160a060020a03602435166107b7565b60408051918252519081900360200190f35b34801561026b57600080fd5b5061011a610883565b34801561028057600080fd5b5061011a600435602435604435610900565b34801561029e57600080fd5b5060408051602060046024803582810135848102808701860190975280865261011a96843596369660449591949091019291829185019084908082843750506040805187358901803560208181028481018201909552818452989b9a99890198929750908201955093508392508501908490808284375094975061093b9650505050505050565b34801561033157600080fd5b5061033d600435610992565b6040518082600581111561034d57fe5b60ff16815260200191505060405180910390f35b34801561036d57600080fd5b5061024d6004356109d8565b34801561038557600080fd5b506101be610a02565b34801561039a57600080fd5b5061011a60043560ff60243516610a11565b3480156103b857600080fd5b506103c4600435610a79565b60408051848152600160a060020a03841660208201529081018260058111156103e957fe5b60ff168152602001935050505060405180910390f35b34801561040b57600080fd5b50610417600435610b08565b60408051938452602084019290925282820152519081900360600190f35b34801561044157600080fd5b5061044d600435610b27565b6040805198895260208901979097526801000000000000000064010000000096870263ffffffff9687161781028989015293860292851692909217830260608801529093029290911691909117026080830152519081900360a00190f35b3480156104b757600080fd5b506104c3600435610b83565b604051808060200180602001838103835285818151815260200191508051906020019060200280838360005b838110156105075781810151838201526020016104ef565b50505050905001838103825284818151815260200191508051906020019060200280838360005b8381101561054657818101518382015260200161052e565b5050505090500194505050505060405180910390f35b34801561056857600080fd5b5061011a6004356024356044356c010000000000000000000000006064358181049163ffffffff6801000000000000000092839004811692608435838104939082900483169260a4359182049290910416610c5b565b3480156105ca57600080fd5b506105d6600435610d64565b604080519586526801000000000000000064010000000095860263ffffffff9586161781026020880152929094029216919091170282820152519081900360600190f35b60009182526006602052604090912055565b60018054604080516020600284861615610100026000190190941693909304601f810184900484028201840190925281815292918301828280156106b15780601f10610686576101008083540402835291602001916106b1565b820191906000526020600020905b81548152906001019060200180831161069457829003601f168201915b505050505081565b60006004828154811015156106ca57fe5b6000918252602090912060016002909202010154600160a060020a031692915050565b604080516060810182529586526801000000000000000064010000000095860263ffffffff95861617810260208089019182529487029386169390931781028783019081526000988952600790945296209451855551600185018054600160a060020a036c0100000000000000000000000080850482168802948a900487169490941777ffffffffffffffffffffffffffffffffffffffffffffffff1992831617909255925160029096018054928704909116909402959094049091169390931791909216179055565b60408051606081018252838152600160a060020a03831660208201526000916001916004918101849052815460018082018085556000948552602094859020845160029094020192835593830151908201805473ffffffffffffffffffffffffffffffffffffffff1916600160a060020a03909216919091178082556040840151919074ff000000000000000000000000000000000000000019167401000000000000000000000000000000000000000083600581111561087457fe5b02179055505050039392505050565b600054600160a060020a031632146108fc57604080517f08c379a000000000000000000000000000000000000000000000000000000000815260206004820152601260248201527f6f6e6c79206f776e657220616c6c6f7765640000000000000000000000000000604482015290519081900360640190fd5b6000ff5b604080516060810182526000808252602080830195865282840194855295815260069095529320925183559051600183015551600290910155565b60408051808201825283815260208082018490526000868152600582529290922081518051929391926109719284920190610daa565b50602082810151805161098a9260018501920190610df5565b505050505050565b60006004828154811015156109a357fe5b600091825260209091206002909102016001015474010000000000000000000000000000000000000000900460ff1692915050565b60006004828154811015156109e957fe5b9060005260206000209060020201600001549050919050565b600054600160a060020a031681565b80600483815481101515610a2157fe5b60009182526020909120600160029092020101805474ff0000000000000000000000000000000000000000191674010000000000000000000000000000000000000000836005811115610a7057fe5b02179055505050565b6000806000600484815481101515610a8d57fe5b9060005260206000209060020201600001549250600484815481101515610ab057fe5b600091825260209091206001600290920201015460048054600160a060020a0390921693509085908110610ae057fe5b906000526020600020906002020160010160149054906101000a900460ff1690509193909250565b6000908152600660205260409020805460018201546002909201549092565b6000908152600860205260409020805460018201546002830154600384015460049094015492949193600160a060020a0364010000000080840482169563ffffffff948516958285048416959485169492820490931692911690565b6000818152600560209081526040918290208054835181840281018401909452808452606093849390929190830182828015610bde57602002820191906000526020600020905b815481526020019060010190808311610bca575b5050505050915060056000848152602001908152602001600020600101805480602002602001604051908101604052809291908181526020018280548015610c4f57602002820191906000526020600020905b8154600160a060020a03168152600190910190602001808311610c31575b50505050509050915091565b6040805160a0810182529889526020808a019889526801000000000000000064010000000098890263ffffffff9889161781028b840190815296890295881695909517850260608b0190815293880292871692909217840260808a0190815260009a8b52600890925290982096518755945160018701559051600286018054600160a060020a036c01000000000000000000000000808504821688029486900487169490941777ffffffffffffffffffffffffffffffffffffffffffffffff199283161790925595516003880180548483048416880292869004871692909217918816919091179055965160049096018054918704909716909302940416929092179116179055565b6000908152600760205260409020805460018201546002909201549092600160a060020a0364010000000080850482169463ffffffff9081169491820490921692911690565b828054828255906000526020600020908101928215610de5579160200282015b82811115610de5578251825591602001919060010190610dca565b50610df1929150610e63565b5090565b828054828255906000526020600020908101928215610e57579160200282015b82811115610e57578251825473ffffffffffffffffffffffffffffffffffffffff1916600160a060020a03909116178255602090920191600190910190610e15565b50610df1929150610e80565b610e7d91905b80821115610df15760008155600101610e69565b90565b610e7d91905b80821115610df157805473ffffffffffffffffffffffffffffffffffffffff19168155600101610e865600a165627a7a7230582090ecd19c323fc2031f0eebc5a5a2a5f318ac2bc864720e606ec303ca789ce67c0029",
  "source": "pragma solidity 0.4.24;\n\nimport \"../platform/Named.sol\";\nimport \"../platform/Component.sol\";\nimport \"../platform/Mortal.sol\";\nimport \"./api/ACashInStorage.sol\";\n\ncontract CashInStorage is ACashInStorage, Named(\"cash-in-storage\"), Mortal, Component {\n\n    using CashInLib for *;\n\n    CashInLib.CashIn[] private channels;\n\n    mapping(uint256 => CashInLib.Split) private channelSplit;\n\n    mapping(uint256 => CashInLib.Account) private channelAccount;\n\n    mapping(uint256 => CashInLib.Close) private channelClose;\n\n    mapping(uint256 => CashInLib.Open) private channelOpen;\n\n    constructor(address _config) Component(_config) public {}\n\n    function createCashIn(\n        uint256 _sessionId,\n        address _application\n    )\n        public\n        returns (\n            uint256 _id\n        )\n    {\n        _id = channels.push(CashInLib.CashIn(_sessionId, _application, CashInLib.Status.CREATING)) - 1;\n    }\n\n    function retrieveCashIn(\n        uint256 _id\n    )\n        public\n        view\n        returns (\n            uint256 _sessionId,\n            address _application,\n            CashInLib.Status _status\n        )\n    {\n        _sessionId = channels[_id].sessionId;\n        _application = channels[_id].application;\n        _status = channels[_id].status;\n    }\n\n    function retrieveCashInSessionId(\n        uint256 _id\n    )\n        public\n        view\n        returns (\n            uint256 _sessionId\n        )\n    {\n        _sessionId = channels[_id].sessionId;\n    }\n\n    function retrieveCashInApplication(\n        uint256 _id\n    )\n        public\n        view\n        returns (\n            address _application\n        )\n    {\n        _application = channels[_id].application;\n    }\n\n    function setCashInStatus(\n        uint256 _cashInId,\n        CashInLib.Status _status\n    )\n        public\n    {\n        channels[_cashInId].status = _status;\n    }\n\n    function retrieveCashInStatus(\n        uint256 _cashInId\n    )\n        public\n        view\n        returns (\n            CashInLib.Status _status\n        )\n    {\n        _status = channels[_cashInId].status;\n    }\n\n    function createSplit(\n        uint256 _cashInId,\n        uint256[] _fees,\n        address[] _parties\n    )\n        public\n    {\n        channelSplit[_cashInId] = CashInLib.Split(_fees, _parties);\n    }\n\n    function retrieveSplit(\n        uint256 _cashInId\n    )\n        public\n        view\n        returns (\n            uint256[] _fees,\n            address[] _parties\n        )\n    {\n        _fees = channelSplit[_cashInId].fees;\n        _parties = channelSplit[_cashInId].parties;\n    }\n\n    function createAccount(\n        uint256 _cashInId,\n        uint256 _maxBalance,\n        uint256 _fee\n    )\n        public\n    {\n        channelAccount[_cashInId] = CashInLib.Account(0, _maxBalance, _fee);\n    }\n\n    function retrieveAccount(\n        uint256 _cashInId\n    )\n        public\n        view\n        returns (\n            uint256 _balance,\n            uint256 _maxBalance,\n            uint256 _fee\n    )\n    {\n        _balance = channelAccount[_cashInId].balance;\n        _maxBalance = channelAccount[_cashInId].maxBalance;\n        _fee = channelAccount[_cashInId].fee;\n    }\n\n    function setAccountBalance(\n        uint256 _cashInId,\n        uint256 _amount\n    )\n        public\n    {\n        channelAccount[_cashInId].balance = _amount;\n    }\n\n    function createClose(\n        uint256 _cashInId,\n        uint256 _sessionId,\n        function(uint256, uint256) external _success,\n        function(uint256, uint256) external _fail\n    )\n        public\n    {\n        channelClose[_cashInId] = CashInLib.Close(_sessionId, _success, _fail);\n    }\n\n    function retrieveClose(\n        uint256 _cashInId\n    )\n        public\n        view\n        returns (\n            uint256 _sessionId,\n            function(uint256, uint256) external _success,\n            function(uint256, uint256) external _fail\n    )\n    {\n        _sessionId = channelClose[_cashInId].sessionId;\n        _success = channelClose[_cashInId].success;\n        _fail = channelClose[_cashInId].fail;\n    }\n\n    function createOpen(\n        uint256 _cashInId,\n        uint256 _sessionId,\n        uint256 _maxBalance,\n        function(uint256) external _fail,\n        function(uint256, uint256) external _success,\n        function(uint256, uint256, uint256) external _update\n    )\n        public\n    {\n        channelOpen[_cashInId] = CashInLib.Open(_sessionId, _maxBalance, _fail, _success, _update);\n    }\n\n    function retrieveOpen(\n        uint256 _cashInId\n    )\n        public\n        view\n        returns (\n            uint256 _sessionId,\n            uint256 _maxBalance,\n            function(uint256) external _fail,\n            function(uint256, uint256) external _success,\n            function(uint256, uint256, uint256) external _update\n    )\n    {\n        _sessionId = channelOpen[_cashInId].sessionId;\n        _maxBalance = channelOpen[_cashInId].maxBalance;\n        _fail = channelOpen[_cashInId].fail;\n        _success = channelOpen[_cashInId].success;\n        _update = channelOpen[_cashInId].update;\n    }\n\n}",
  "sourcePath": "/home/andrew/vault-logic-project/Development/test/vault-logic-api/truffle/contracts/storages/CashInStorage.sol",
  "compiler": {
    "name": "solc",
    "version": "0.4.24+commit.e67f0147.Emscripten.clang"
  },
  "schemaVersion": "2.0.1",
  "updatedAt": "2018-11-26T09:18:03.031Z"
}