{
  "contractName": "CashChannelsManager",
  "abi": [
    {
      "constant": true,
      "inputs": [],
      "name": "name",
      "outputs": [
        {
          "name": "",
          "type": "string"
        }
      ],
      "payable": false,
      "stateMutability": "view",
      "type": "function"
    },
    {
      "constant": false,
      "inputs": [],
      "name": "kill",
      "outputs": [],
      "payable": false,
      "stateMutability": "nonpayable",
      "type": "function"
    },
    {
      "constant": true,
      "inputs": [],
      "name": "owner",
      "outputs": [
        {
          "name": "",
          "type": "address"
        }
      ],
      "payable": false,
      "stateMutability": "view",
      "type": "function"
    },
    {
      "inputs": [
        {
          "name": "_config",
          "type": "address"
        }
      ],
      "payable": false,
      "stateMutability": "nonpayable",
      "type": "constructor"
    },
    {
      "constant": false,
      "inputs": [
        {
          "name": "_application",
          "type": "address"
        },
        {
          "name": "_sessionId",
          "type": "uint256"
        }
      ],
      "name": "openCashInChannel",
      "outputs": [
        {
          "name": "channelId",
          "type": "uint256"
        }
      ],
      "payable": false,
      "stateMutability": "nonpayable",
      "type": "function"
    },
    {
      "constant": false,
      "inputs": [
        {
          "name": "channelId",
          "type": "uint256"
        },
        {
          "name": "amount",
          "type": "uint256"
        }
      ],
      "name": "updateCashInBalance",
      "outputs": [],
      "payable": false,
      "stateMutability": "nonpayable",
      "type": "function"
    },
    {
      "constant": true,
      "inputs": [
        {
          "name": "_application",
          "type": "address"
        },
        {
          "name": "_channelId",
          "type": "uint256"
        }
      ],
      "name": "balanceOf",
      "outputs": [
        {
          "name": "",
          "type": "uint256"
        }
      ],
      "payable": false,
      "stateMutability": "view",
      "type": "function"
    },
    {
      "constant": false,
      "inputs": [
        {
          "name": "_application",
          "type": "address"
        },
        {
          "name": "_sessionId",
          "type": "uint256"
        },
        {
          "name": "_channelId",
          "type": "uint256"
        },
        {
          "name": "fees",
          "type": "uint256[]"
        },
        {
          "name": "parties",
          "type": "address[]"
        }
      ],
      "name": "closeCashInChannel",
      "outputs": [
        {
          "name": "",
          "type": "bool"
        }
      ],
      "payable": false,
      "stateMutability": "nonpayable",
      "type": "function"
    },
    {
      "constant": false,
      "inputs": [
        {
          "name": "channelId",
          "type": "uint256"
        }
      ],
      "name": "confirmOpen",
      "outputs": [],
      "payable": false,
      "stateMutability": "nonpayable",
      "type": "function"
    },
    {
      "constant": false,
      "inputs": [
        {
          "name": "channelId",
          "type": "uint256"
        }
      ],
      "name": "confirmClose",
      "outputs": [],
      "payable": false,
      "stateMutability": "nonpayable",
      "type": "function"
    }
  ],
  "bytecode": "0x60806040523480156200001157600080fd5b5060405160208062005c69833981018060405281019080805190602001909291905050508060006040805190810160405280601581526020017f636173682d6368616e6e656c732d6d616e616765720000000000000000000000815250336000806101000a81548173ffffffffffffffffffffffffffffffffffffffff021916908373ffffffffffffffffffffffffffffffffffffffff1602179055508060019080519060200190620000c6929190620005bf565b50508173ffffffffffffffffffffffffffffffffffffffff1663713b563f6040518163ffffffff167c0100000000000000000000000000000000000000000000000000000000028152600401602060405180830381600087803b1580156200012d57600080fd5b505af115801562000142573d6000803e3d6000fd5b505050506040513d60208110156200015957600080fd5b8101908080519060200190929190505050600360006101000a81548173ffffffffffffffffffffffffffffffffffffffff021916908373ffffffffffffffffffffffffffffffffffffffff1602179055508173ffffffffffffffffffffffffffffffffffffffff1663d0496d6a6040518163ffffffff167c0100000000000000000000000000000000000000000000000000000000028152600401602060405180830381600087803b1580156200020f57600080fd5b505af115801562000224573d6000803e3d6000fd5b505050506040513d60208110156200023b57600080fd5b8101908080519060200190929190505050600260006101000a81548173ffffffffffffffffffffffffffffffffffffffff021916908373ffffffffffffffffffffffffffffffffffffffff160217905550600260009054906101000a900473ffffffffffffffffffffffffffffffffffffffff1673ffffffffffffffffffffffffffffffffffffffff1663693ec85e60016040518263ffffffff167c01000000000000000000000000000000000000000000000000000000000281526004018080602001828103825283818154600181600116156101000203166002900481526020019150805460018160011615610100020316600290048015620003845780601f10620003585761010080835404028352916020019162000384565b820191906000526020600020905b8154815290600101906020018083116200036657829003601f168201915b505092505050602060405180830381600087803b158015620003a557600080fd5b505af1158015620003ba573d6000803e3d6000fd5b505050506040513d6020811015620003d157600080fd5b8101908080519060200190929190505050905060008173ffffffffffffffffffffffffffffffffffffffff1614151562000484578073ffffffffffffffffffffffffffffffffffffffff166341c0e1b56040518163ffffffff167c0100000000000000000000000000000000000000000000000000000000028152600401600060405180830381600087803b1580156200046a57600080fd5b505af11580156200047f573d6000803e3d6000fd5b505050505b600260009054906101000a900473ffffffffffffffffffffffffffffffffffffffff1673ffffffffffffffffffffffffffffffffffffffff1663f2c298be60016040518263ffffffff167c010000000000000000000000000000000000000000000000000000000002815260040180806020018281038252838181546001816001161561010002031660029004815260200191508054600181600116156101000203166002900480156200057c5780601f1062000550576101008083540402835291602001916200057c565b820191906000526020600020905b8154815290600101906020018083116200055e57829003601f168201915b505092505050600060405180830381600087803b1580156200059d57600080fd5b505af1158015620005b2573d6000803e3d6000fd5b505050505050506200066e565b828054600181600116156101000203166002900490600052602060002090601f016020900481019282601f106200060257805160ff191683800117855562000633565b8280016001018555821562000633579182015b828111156200063257825182559160200191906001019062000615565b5b50905062000642919062000646565b5090565b6200066b91905b80821115620006675760008160009055506001016200064d565b5090565b90565b6155eb806200067e6000396000f300608060405260043610610098576000357c0100000000000000000000000000000000000000000000000000000000900463ffffffff168062fdd58e1461009d57806305253018146100fe57806306fdde031461015f57806341c0e1b5146101ef5780634ce915721461020657806354e027d8146102fb5780635940c65514610332578063882d5f7a1461035f5780638da5cb5b1461038c575b600080fd5b3480156100a957600080fd5b506100e8600480360381019080803573ffffffffffffffffffffffffffffffffffffffff169060200190929190803590602001909291905050506103e3565b6040518082815260200191505060405180910390f35b34801561010a57600080fd5b50610149600480360381019080803573ffffffffffffffffffffffffffffffffffffffff1690602001909291908035906020019092919050505061074d565b6040518082815260200191505060405180910390f35b34801561016b57600080fd5b506101746117a0565b6040518080602001828103825283818151815260200191508051906020019080838360005b838110156101b4578082015181840152602081019050610199565b50505050905090810190601f1680156101e15780820380516001836020036101000a031916815260200191505b509250505060405180910390f35b3480156101fb57600080fd5b5061020461183e565b005b34801561021257600080fd5b506102e1600480360381019080803573ffffffffffffffffffffffffffffffffffffffff16906020019092919080359060200190929190803590602001909291908035906020019082018035906020019080806020026020016040519081016040528093929190818152602001838360200280828437820191505050505050919291929080359060200190820180359060200190808060200260200160405190810160405280939291908181526020018383602002808284378201915050505050509192919290505050611906565b604051808215151515815260200191505060405180910390f35b34801561030757600080fd5b5061033060048036038101908080359060200190929190803590602001909291905050506130b6565b005b34801561033e57600080fd5b5061035d60048036038101908080359060200190929190505050613a0f565b005b34801561036b57600080fd5b5061038a600480360381019080803590602001909291905050506140ea565b005b34801561039857600080fd5b506103a161527c565b604051808273ffffffffffffffffffffffffffffffffffffffff1673ffffffffffffffffffffffffffffffffffffffff16815260200191505060405180910390f35b600080600260009054906101000a900473ffffffffffffffffffffffffffffffffffffffff1673ffffffffffffffffffffffffffffffffffffffff1663693ec85e6040805190810160405280600f81526020017f636173682d696e2d73746f7261676500000000000000000000000000000000008152506040518263ffffffff167c01000000000000000000000000000000000000000000000000000000000281526004018080602001828103825283818151815260200191508051906020019080838360005b838110156104c55780820151818401526020810190506104aa565b50505050905090810190601f1680156104f25780820380516001836020036101000a031916815260200191505b5092505050602060405180830381600087803b15801561051157600080fd5b505af1158015610525573d6000803e3d6000fd5b505050506040513d602081101561053b57600080fd5b810190808051906020019092919050505090508373ffffffffffffffffffffffffffffffffffffffff168173ffffffffffffffffffffffffffffffffffffffff16631f2f4bfd856040518263ffffffff167c010000000000000000000000000000000000000000000000000000000002815260040180828152602001915050602060405180830381600087803b1580156105d457600080fd5b505af11580156105e8573d6000803e3d6000fd5b505050506040513d60208110156105fe57600080fd5b810190808051906020019092919050505073ffffffffffffffffffffffffffffffffffffffff1614151561069a576040517f08c379a000000000000000000000000000000000000000000000000000000000815260040180806020018281038252600e8152602001807f496c6c6567616c2061636365737300000000000000000000000000000000000081525060200191505060405180910390fd5b8073ffffffffffffffffffffffffffffffffffffffff16631e010439846040518263ffffffff167c010000000000000000000000000000000000000000000000000000000002815260040180828152602001915050602060405180830381600087803b15801561070957600080fd5b505af115801561071d573d6000803e3d6000fd5b505050506040513d602081101561073357600080fd5b810190808051906020019092919050505091505092915050565b600080600260009054906101000a900473ffffffffffffffffffffffffffffffffffffffff1673ffffffffffffffffffffffffffffffffffffffff1663693ec85e6040805190810160405280600f81526020017f73657373696f6e2d6d616e6167657200000000000000000000000000000000008152506040518263ffffffff167c01000000000000000000000000000000000000000000000000000000000281526004018080602001828103825283818151815260200191508051906020019080838360005b8381101561082f578082015181840152602081019050610814565b50505050905090810190601f16801561085c5780820380516001836020036101000a031916815260200191505b5092505050602060405180830381600087803b15801561087b57600080fd5b505af115801561088f573d6000803e3d6000fd5b505050506040513d60208110156108a557600080fd5b810190808051906020019092919050505073ffffffffffffffffffffffffffffffffffffffff166382afd23b846040518263ffffffff167c010000000000000000000000000000000000000000000000000000000002815260040180828152602001915050602060405180830381600087803b15801561092457600080fd5b505af1158015610938573d6000803e3d6000fd5b505050506040513d602081101561094e57600080fd5b810190808051906020019092919050505015156109d3576040517f08c379a000000000000000000000000000000000000000000000000000000000815260040180806020018281038252601c8152602001807f496c6c6567616c207374617465206f66207468652073657373696f6e0000000081525060200191505060405180910390fd5b600260009054906101000a900473ffffffffffffffffffffffffffffffffffffffff1673ffffffffffffffffffffffffffffffffffffffff1663693ec85e6040805190810160405280600f81526020017f73657373696f6e2d73746f7261676500000000000000000000000000000000008152506040518263ffffffff167c01000000000000000000000000000000000000000000000000000000000281526004018080602001828103825283818151815260200191508051906020019080838360005b83811015610ab2578082015181840152602081019050610a97565b50505050905090810190601f168015610adf5780820380516001836020036101000a031916815260200191505b5092505050602060405180830381600087803b158015610afe57600080fd5b505af1158015610b12573d6000803e3d6000fd5b505050506040513d6020811015610b2857600080fd5b810190808051906020019092919050505073ffffffffffffffffffffffffffffffffffffffff16635a1695af846040518263ffffffff167c010000000000000000000000000000000000000000000000000000000002815260040180828152602001915050602060405180830381600087803b158015610ba757600080fd5b505af1158015610bbb573d6000803e3d6000fd5b505050506040513d6020811015610bd157600080fd5b8101908080519060200190929190505050151515610c7d576040517f08c379a00000000000000000000000000000000000000000000000000000000081526004018080602001828103825260278152602001807f546865726520697320616c7265616479206f70656e656420636173682d696e2081526020017f6368616e6e656c0000000000000000000000000000000000000000000000000081525060400191505060405180910390fd5b600260009054906101000a900473ffffffffffffffffffffffffffffffffffffffff1673ffffffffffffffffffffffffffffffffffffffff1663693ec85e6040805190810160405280600f81526020017f73657373696f6e2d73746f7261676500000000000000000000000000000000008152506040518263ffffffff167c01000000000000000000000000000000000000000000000000000000000281526004018080602001828103825283818151815260200191508051906020019080838360005b83811015610d5c578082015181840152602081019050610d41565b50505050905090810190601f168015610d895780820380516001836020036101000a031916815260200191505b5092505050602060405180830381600087803b158015610da857600080fd5b505af1158015610dbc573d6000803e3d6000fd5b505050506040513d6020811015610dd257600080fd5b810190808051906020019092919050505073ffffffffffffffffffffffffffffffffffffffff1663fd198b2c8460016040518363ffffffff167c0100000000000000000000000000000000000000000000000000000000028152600401808381526020018215151515815260200192505050600060405180830381600087803b158015610e5e57600080fd5b505af1158015610e72573d6000803e3d6000fd5b50505050600260009054906101000a900473ffffffffffffffffffffffffffffffffffffffff1673ffffffffffffffffffffffffffffffffffffffff1663693ec85e6040805190810160405280601381526020017f6170706c69636174696f6e2d73746f72616765000000000000000000000000008152506040518263ffffffff167c01000000000000000000000000000000000000000000000000000000000281526004018080602001828103825283818151815260200191508051906020019080838360005b83811015610f55578082015181840152602081019050610f3a565b50505050905090810190601f168015610f825780820380516001836020036101000a031916815260200191505b5092505050602060405180830381600087803b158015610fa157600080fd5b505af1158015610fb5573d6000803e3d6000fd5b505050506040513d6020811015610fcb57600080fd5b810190808051906020019092919050505073ffffffffffffffffffffffffffffffffffffffff1663ff78b452600260009054906101000a900473ffffffffffffffffffffffffffffffffffffffff1673ffffffffffffffffffffffffffffffffffffffff1663693ec85e6040805190810160405280600f81526020017f73657373696f6e2d73746f7261676500000000000000000000000000000000008152506040518263ffffffff167c01000000000000000000000000000000000000000000000000000000000281526004018080602001828103825283818151815260200191508051906020019080838360005b838110156110d65780820151818401526020810190506110bb565b50505050905090810190601f1680156111035780820380516001836020036101000a031916815260200191505b5092505050602060405180830381600087803b15801561112257600080fd5b505af1158015611136573d6000803e3d6000fd5b505050506040513d602081101561114c57600080fd5b810190808051906020019092919050505073ffffffffffffffffffffffffffffffffffffffff1663985d7b7d866040518263ffffffff167c010000000000000000000000000000000000000000000000000000000002815260040180828152602001915050602060405180830381600087803b1580156111cb57600080fd5b505af11580156111df573d6000803e3d6000fd5b505050506040513d60208110156111f557600080fd5b81019080805190602001909291905050506040518263ffffffff167c010000000000000000000000000000000000000000000000000000000002815260040180828152602001915050602060405180830381600087803b15801561125857600080fd5b505af115801561126c573d6000803e3d6000fd5b505050506040513d602081101561128257600080fd5b810190808051906020019092919050505090508373ffffffffffffffffffffffffffffffffffffffff168173ffffffffffffffffffffffffffffffffffffffff16141515611338576040517f08c379a000000000000000000000000000000000000000000000000000000000815260040180806020018281038252600e8152602001807f496c6c6567616c2061636365737300000000000000000000000000000000000081525060200191505060405180910390fd5b600260009054906101000a900473ffffffffffffffffffffffffffffffffffffffff1673ffffffffffffffffffffffffffffffffffffffff1663693ec85e6040805190810160405280600f81526020017f636173682d696e2d73746f7261676500000000000000000000000000000000008152506040518263ffffffff167c01000000000000000000000000000000000000000000000000000000000281526004018080602001828103825283818151815260200191508051906020019080838360005b838110156114175780820151818401526020810190506113fc565b50505050905090810190601f1680156114445780820380516001836020036101000a031916815260200191505b5092505050602060405180830381600087803b15801561146357600080fd5b505af1158015611477573d6000803e3d6000fd5b505050506040513d602081101561148d57600080fd5b810190808051906020019092919050505073ffffffffffffffffffffffffffffffffffffffff16636a84f7178483600060058111156114c857fe5b6040518463ffffffff167c0100000000000000000000000000000000000000000000000000000000028152600401808481526020018373ffffffffffffffffffffffffffffffffffffffff1673ffffffffffffffffffffffffffffffffffffffff1681526020018281526020019350505050602060405180830381600087803b15801561155457600080fd5b505af1158015611568573d6000803e3d6000fd5b505050506040513d602081101561157e57600080fd5b81019080805190602001909291905050509150600260009054906101000a900473ffffffffffffffffffffffffffffffffffffffff1673ffffffffffffffffffffffffffffffffffffffff1663693ec85e6040805190810160405280600e81526020017f636173682d696e2d6f7261636c650000000000000000000000000000000000008152506040518263ffffffff167c01000000000000000000000000000000000000000000000000000000000281526004018080602001828103825283818151815260200191508051906020019080838360005b83811015611670578082015181840152602081019050611655565b50505050905090810190601f16801561169d5780820380516001836020036101000a031916815260200191505b5092505050602060405180830381600087803b1580156116bc57600080fd5b505af11580156116d0573d6000803e3d6000fd5b505050506040513d60208110156116e657600080fd5b810190808051906020019092919050505073ffffffffffffffffffffffffffffffffffffffff16633d57b2a984846000600581111561172157fe5b6040518463ffffffff167c0100000000000000000000000000000000000000000000000000000000028152600401808481526020018381526020018281526020019350505050600060405180830381600087803b15801561178157600080fd5b505af1158015611795573d6000803e3d6000fd5b505050505092915050565b60018054600181600116156101000203166002900480601f0160208091040260200160405190810160405280929190818152602001828054600181600116156101000203166002900480156118365780601f1061180b57610100808354040283529160200191611836565b820191906000526020600020905b81548152906001019060200180831161181957829003601f168201915b505050505081565b6000809054906101000a900473ffffffffffffffffffffffffffffffffffffffff1673ffffffffffffffffffffffffffffffffffffffff163273ffffffffffffffffffffffffffffffffffffffff16141515611902576040517f08c379a00000000000000000000000000000000000000000000000000000000081526004018080602001828103825260128152602001807f6f6e6c79206f776e657220616c6c6f776564000000000000000000000000000081525060200191505060405180910390fd5b6000ff5b600080600080866001600581111561191a57fe5b600260009054906101000a900473ffffffffffffffffffffffffffffffffffffffff1673ffffffffffffffffffffffffffffffffffffffff1663693ec85e6040805190810160405280600f81526020017f636173682d696e2d73746f7261676500000000000000000000000000000000008152506040518263ffffffff167c01000000000000000000000000000000000000000000000000000000000281526004018080602001828103825283818151815260200191508051906020019080838360005b838110156119f95780820151818401526020810190506119de565b50505050905090810190601f168015611a265780820380516001836020036101000a031916815260200191505b5092505050602060405180830381600087803b158015611a4557600080fd5b505af1158015611a59573d6000803e3d6000fd5b505050506040513d6020811015611a6f57600080fd5b810190808051906020019092919050505073ffffffffffffffffffffffffffffffffffffffff16635c622a0e836040518263ffffffff167c010000000000000000000000000000000000000000000000000000000002815260040180828152602001915050602060405180830381600087803b158015611aee57600080fd5b505af1158015611b02573d6000803e3d6000fd5b505050506040513d6020811015611b1857600080fd5b8101908080519060200190929190505050141515611b9e576040517f08c379a00000000000000000000000000000000000000000000000000000000081526004018080602001828103825260178152602001807f43617368496e20696e20696c6c6567616c20737461746500000000000000000081525060200191505060405180910390fd5b878a8073ffffffffffffffffffffffffffffffffffffffff16600260009054906101000a900473ffffffffffffffffffffffffffffffffffffffff1673ffffffffffffffffffffffffffffffffffffffff1663693ec85e6040805190810160405280600f81526020017f636173682d696e2d73746f7261676500000000000000000000000000000000008152506040518263ffffffff167c01000000000000000000000000000000000000000000000000000000000281526004018080602001828103825283818151815260200191508051906020019080838360005b83811015611c96578082015181840152602081019050611c7b565b50505050905090810190601f168015611cc35780820380516001836020036101000a031916815260200191505b5092505050602060405180830381600087803b158015611ce257600080fd5b505af1158015611cf6573d6000803e3d6000fd5b505050506040513d6020811015611d0c57600080fd5b810190808051906020019092919050505073ffffffffffffffffffffffffffffffffffffffff16631f2f4bfd846040518263ffffffff167c010000000000000000000000000000000000000000000000000000000002815260040180828152602001915050602060405180830381600087803b158015611d8b57600080fd5b505af1158015611d9f573d6000803e3d6000fd5b505050506040513d6020811015611db557600080fd5b810190808051906020019092919050505073ffffffffffffffffffffffffffffffffffffffff16141515611e51576040517f08c379a000000000000000000000000000000000000000000000000000000000815260040180806020018281038252600e8152602001807f496c6c6567616c2061636365737300000000000000000000000000000000000081525060200191505060405180910390fd5b898b80600260009054906101000a900473ffffffffffffffffffffffffffffffffffffffff1673ffffffffffffffffffffffffffffffffffffffff1663693ec85e6040805190810160405280600f81526020017f636173682d696e2d73746f7261676500000000000000000000000000000000008152506040518263ffffffff167c01000000000000000000000000000000000000000000000000000000000281526004018080602001828103825283818151815260200191508051906020019080838360005b83811015611f33578082015181840152602081019050611f18565b50505050905090810190601f168015611f605780820380516001836020036101000a031916815260200191505b5092505050602060405180830381600087803b158015611f7f57600080fd5b505af1158015611f93573d6000803e3d6000fd5b505050506040513d6020811015611fa957600080fd5b810190808051906020019092919050505073ffffffffffffffffffffffffffffffffffffffff16636e19cb18846040518263ffffffff167c010000000000000000000000000000000000000000000000000000000002815260040180828152602001915050602060405180830381600087803b15801561202857600080fd5b505af115801561203c573d6000803e3d6000fd5b505050506040513d602081101561205257600080fd5b81019080805190602001909291905050501415156120d8576040517f08c379a00000000000000000000000000000000000000000000000000000000081526004018080602001828103825260128152602001807f417267756d656e7473206d69736d61746368000000000000000000000000000081525060200191505060405180910390fd5b89518b51141515612151576040517f08c379a00000000000000000000000000000000000000000000000000000000081526004018080602001828103825260118152602001807f496c6c6567616c20617267756d656e747300000000000000000000000000000081525060200191505060405180910390fd5b600260009054906101000a900473ffffffffffffffffffffffffffffffffffffffff1673ffffffffffffffffffffffffffffffffffffffff1663693ec85e6040805190810160405280600f81526020017f636173682d696e2d73746f7261676500000000000000000000000000000000008152506040518263ffffffff167c01000000000000000000000000000000000000000000000000000000000281526004018080602001828103825283818151815260200191508051906020019080838360005b83811015612230578082015181840152602081019050612215565b50505050905090810190601f16801561225d5780820380516001836020036101000a031916815260200191505b5092505050602060405180830381600087803b15801561227c57600080fd5b505af1158015612290573d6000803e3d6000fd5b505050506040513d60208110156122a657600080fd5b810190808051906020019092919050505073ffffffffffffffffffffffffffffffffffffffff16631e0104398d6040518263ffffffff167c010000000000000000000000000000000000000000000000000000000002815260040180828152602001915050602060405180830381600087803b15801561232557600080fd5b505af1158015612339573d6000803e3d6000fd5b505050506040513d602081101561234f57600080fd5b8101908080519060200190929190505050975061258c61271061257e600260009054906101000a900473ffffffffffffffffffffffffffffffffffffffff1673ffffffffffffffffffffffffffffffffffffffff1663693ec85e6040805190810160405280601181526020017f706172616d657465722d73746f726167650000000000000000000000000000008152506040518263ffffffff167c01000000000000000000000000000000000000000000000000000000000281526004018080602001828103825283818151815260200191508051906020019080838360005b8381101561244a57808201518184015260208101905061242f565b50505050905090810190601f1680156124775780820380516001836020036101000a031916815260200191505b5092505050602060405180830381600087803b15801561249657600080fd5b505af11580156124aa573d6000803e3d6000fd5b505050506040513d60208110156124c057600080fd5b810190808051906020019092919050505073ffffffffffffffffffffffffffffffffffffffff1663cc0a29e66040518163ffffffff167c0100000000000000000000000000000000000000000000000000000000028152600401602060405180830381600087803b15801561253457600080fd5b505af1158015612548573d6000803e3d6000fd5b505050506040513d602081101561255e57600080fd5b81019080805190602001909291905050508b6152a190919063ffffffff16565b6152df90919063ffffffff16565b96506125978b615309565b9550876125ad888861535990919063ffffffff16565b11151515612623576040517f08c379a00000000000000000000000000000000000000000000000000000000081526004018080602001828103825260188152602001807f4368616e6e656c2062616c616e6365206f766572666c6f77000000000000000081525060200191505060405180910390fd5b600260009054906101000a900473ffffffffffffffffffffffffffffffffffffffff1673ffffffffffffffffffffffffffffffffffffffff1663693ec85e6040805190810160405280600f81526020017f636173682d696e2d73746f7261676500000000000000000000000000000000008152506040518263ffffffff167c01000000000000000000000000000000000000000000000000000000000281526004018080602001828103825283818151815260200191508051906020019080838360005b838110156127025780820151818401526020810190506126e7565b50505050905090810190601f16801561272f5780820380516001836020036101000a031916815260200191505b5092505050602060405180830381600087803b15801561274e57600080fd5b505af1158015612762573d6000803e3d6000fd5b505050506040513d602081101561277857600080fd5b810190808051906020019092919050505073ffffffffffffffffffffffffffffffffffffffff1663c06e88648d896040518363ffffffff167c01000000000000000000000000000000000000000000000000000000000281526004018083815260200182815260200192505050600060405180830381600087803b1580156127ff57600080fd5b505af1158015612813573d6000803e3d6000fd5b50505050600260009054906101000a900473ffffffffffffffffffffffffffffffffffffffff1673ffffffffffffffffffffffffffffffffffffffff1663693ec85e6040805190810160405280600f81526020017f636173682d696e2d73746f7261676500000000000000000000000000000000008152506040518263ffffffff167c01000000000000000000000000000000000000000000000000000000000281526004018080602001828103825283818151815260200191508051906020019080838360005b838110156128f65780820151818401526020810190506128db565b50505050905090810190601f1680156129235780820380516001836020036101000a031916815260200191505b5092505050602060405180830381600087803b15801561294257600080fd5b505af1158015612956573d6000803e3d6000fd5b505050506040513d602081101561296c57600080fd5b810190808051906020019092919050505073ffffffffffffffffffffffffffffffffffffffff166390fea94a8d6129be896129b08c8e61537a90919063ffffffff16565b61537a90919063ffffffff16565b6040518363ffffffff167c01000000000000000000000000000000000000000000000000000000000281526004018083815260200182815260200192505050600060405180830381600087803b158015612a1757600080fd5b505af1158015612a2b573d6000803e3d6000fd5b50505050600260009054906101000a900473ffffffffffffffffffffffffffffffffffffffff1673ffffffffffffffffffffffffffffffffffffffff1663693ec85e6040805190810160405280600f81526020017f636173682d696e2d73746f7261676500000000000000000000000000000000008152506040518263ffffffff167c01000000000000000000000000000000000000000000000000000000000281526004018080602001828103825283818151815260200191508051906020019080838360005b83811015612b0e578082015181840152602081019050612af3565b50505050905090810190601f168015612b3b5780820380516001836020036101000a031916815260200191505b5092505050602060405180830381600087803b158015612b5a57600080fd5b505af1158015612b6e573d6000803e3d6000fd5b505050506040513d6020811015612b8457600080fd5b810190808051906020019092919050505073ffffffffffffffffffffffffffffffffffffffff166390bf10b08d8c8e6040518463ffffffff167c0100000000000000000000000000000000000000000000000000000000028152600401808481526020018060200180602001838103835285818151815260200191508051906020019060200280838360005b83811015612c2b578082015181840152602081019050612c10565b50505050905001838103825284818151815260200191508051906020019060200280838360005b83811015612c6d578082015181840152602081019050612c52565b5050505090500195505050505050600060405180830381600087803b158015612c9557600080fd5b505af1158015612ca9573d6000803e3d6000fd5b50505050600260009054906101000a900473ffffffffffffffffffffffffffffffffffffffff1673ffffffffffffffffffffffffffffffffffffffff1663693ec85e6040805190810160405280600f81526020017f636173682d696e2d73746f7261676500000000000000000000000000000000008152506040518263ffffffff167c01000000000000000000000000000000000000000000000000000000000281526004018080602001828103825283818151815260200191508051906020019080838360005b83811015612d8c578082015181840152602081019050612d71565b50505050905090810190601f168015612db95780820380516001836020036101000a031916815260200191505b5092505050602060405180830381600087803b158015612dd857600080fd5b505af1158015612dec573d6000803e3d6000fd5b505050506040513d6020811015612e0257600080fd5b810190808051906020019092919050505073ffffffffffffffffffffffffffffffffffffffff166382e408138d60036005811115612e3c57fe5b6040518363ffffffff167c01000000000000000000000000000000000000000000000000000000000281526004018083815260200182815260200192505050600060405180830381600087803b158015612e9557600080fd5b505af1158015612ea9573d6000803e3d6000fd5b50505050600260009054906101000a900473ffffffffffffffffffffffffffffffffffffffff1673ffffffffffffffffffffffffffffffffffffffff1663693ec85e6040805190810160405280600e81526020017f636173682d696e2d6f7261636c650000000000000000000000000000000000008152506040518263ffffffff167c01000000000000000000000000000000000000000000000000000000000281526004018080602001828103825283818151815260200191508051906020019080838360005b83811015612f8c578082015181840152602081019050612f71565b50505050905090810190601f168015612fb95780820380516001836020036101000a031916815260200191505b5092505050602060405180830381600087803b158015612fd857600080fd5b505af1158015612fec573d6000803e3d6000fd5b505050506040513d602081101561300257600080fd5b810190808051906020019092919050505073ffffffffffffffffffffffffffffffffffffffff1663596c89768e8e6040518363ffffffff167c01000000000000000000000000000000000000000000000000000000000281526004018083815260200182815260200192505050600060405180830381600087803b15801561308957600080fd5b505af115801561309d573d6000803e3d6000fd5b5050505060019850505050505050505095945050505050565b600080600084600160058111156130c957fe5b600260009054906101000a900473ffffffffffffffffffffffffffffffffffffffff1673ffffffffffffffffffffffffffffffffffffffff1663693ec85e6040805190810160405280600f81526020017f636173682d696e2d73746f7261676500000000000000000000000000000000008152506040518263ffffffff167c01000000000000000000000000000000000000000000000000000000000281526004018080602001828103825283818151815260200191508051906020019080838360005b838110156131a857808201518184015260208101905061318d565b50505050905090810190601f1680156131d55780820380516001836020036101000a031916815260200191505b5092505050602060405180830381600087803b1580156131f457600080fd5b505af1158015613208573d6000803e3d6000fd5b505050506040513d602081101561321e57600080fd5b810190808051906020019092919050505073ffffffffffffffffffffffffffffffffffffffff16635c622a0e836040518263ffffffff167c010000000000000000000000000000000000000000000000000000000002815260040180828152602001915050602060405180830381600087803b15801561329d57600080fd5b505af11580156132b1573d6000803e3d6000fd5b505050506040513d60208110156132c757600080fd5b810190808051906020019092919050505014151561334d576040517f08c379a00000000000000000000000000000000000000000000000000000000081526004018080602001828103825260178152602001807f43617368496e20696e20696c6c6567616c20737461746500000000000000000081525060200191505060405180910390fd5b600260009054906101000a900473ffffffffffffffffffffffffffffffffffffffff1673ffffffffffffffffffffffffffffffffffffffff1663693ec85e6040805190810160405280600f81526020017f636173682d696e2d73746f7261676500000000000000000000000000000000008152506040518263ffffffff167c01000000000000000000000000000000000000000000000000000000000281526004018080602001828103825283818151815260200191508051906020019080838360005b8381101561342c578082015181840152602081019050613411565b50505050905090810190601f1680156134595780820380516001836020036101000a031916815260200191505b5092505050602060405180830381600087803b15801561347857600080fd5b505af115801561348c573d6000803e3d6000fd5b505050506040513d60208110156134a257600080fd5b810190808051906020019092919050505073ffffffffffffffffffffffffffffffffffffffff16631e010439876040518263ffffffff167c010000000000000000000000000000000000000000000000000000000002815260040180828152602001915050602060405180830381600087803b15801561352157600080fd5b505af1158015613535573d6000803e3d6000fd5b505050506040513d602081101561354b57600080fd5b81019080805190602001909291905050509350600260009054906101000a900473ffffffffffffffffffffffffffffffffffffffff1673ffffffffffffffffffffffffffffffffffffffff1663693ec85e6040805190810160405280600f81526020017f636173682d696e2d73746f7261676500000000000000000000000000000000008152506040518263ffffffff167c01000000000000000000000000000000000000000000000000000000000281526004018080602001828103825283818151815260200191508051906020019080838360005b8381101561363d578082015181840152602081019050613622565b50505050905090810190601f16801561366a5780820380516001836020036101000a031916815260200191505b5092505050602060405180830381600087803b15801561368957600080fd5b505af115801561369d573d6000803e3d6000fd5b505050506040513d60208110156136b357600080fd5b810190808051906020019092919050505073ffffffffffffffffffffffffffffffffffffffff16634a4b9feb878787016040518363ffffffff167c01000000000000000000000000000000000000000000000000000000000281526004018083815260200182815260200192505050600060405180830381600087803b15801561373c57600080fd5b505af1158015613750573d6000803e3d6000fd5b50505050600260009054906101000a900473ffffffffffffffffffffffffffffffffffffffff1673ffffffffffffffffffffffffffffffffffffffff1663693ec85e6040805190810160405280600f81526020017f636173682d696e2d73746f7261676500000000000000000000000000000000008152506040518263ffffffff167c01000000000000000000000000000000000000000000000000000000000281526004018080602001828103825283818151815260200191508051906020019080838360005b83811015613833578082015181840152602081019050613818565b50505050905090810190601f1680156138605780820380516001836020036101000a031916815260200191505b5092505050602060405180830381600087803b15801561387f57600080fd5b505af1158015613893573d6000803e3d6000fd5b505050506040513d60208110156138a957600080fd5b810190808051906020019092919050505073ffffffffffffffffffffffffffffffffffffffff1663baa135d4876040518263ffffffff167c0100000000000000000000000000000000000000000000000000000000028152600401808281526020019150506040805180830381600087803b15801561392757600080fd5b505af115801561393b573d6000803e3d6000fd5b505050506040513d604081101561395157600080fd5b810190808051906020019092919080519060200190929190505050925092508273ffffffffffffffffffffffffffffffffffffffff1663fc7055dd8787856040518463ffffffff167c0100000000000000000000000000000000000000000000000000000000028152600401808481526020018381526020018281526020019350505050600060405180830381600087803b1580156139ef57600080fd5b505af1158015613a03573d6000803e3d6000fd5b50505050505050505050565b60008060006005811115613a1f57fe5b600260009054906101000a900473ffffffffffffffffffffffffffffffffffffffff1673ffffffffffffffffffffffffffffffffffffffff1663693ec85e6040805190810160405280600f81526020017f636173682d696e2d73746f7261676500000000000000000000000000000000008152506040518263ffffffff167c01000000000000000000000000000000000000000000000000000000000281526004018080602001828103825283818151815260200191508051906020019080838360005b83811015613afe578082015181840152602081019050613ae3565b50505050905090810190601f168015613b2b5780820380516001836020036101000a031916815260200191505b5092505050602060405180830381600087803b158015613b4a57600080fd5b505af1158015613b5e573d6000803e3d6000fd5b505050506040513d6020811015613b7457600080fd5b810190808051906020019092919050505073ffffffffffffffffffffffffffffffffffffffff16635c622a0e856040518263ffffffff167c010000000000000000000000000000000000000000000000000000000002815260040180828152602001915050602060405180830381600087803b158015613bf357600080fd5b505af1158015613c07573d6000803e3d6000fd5b505050506040513d6020811015613c1d57600080fd5b8101908080519060200190929190505050141515613c3a57600080fd5b600260009054906101000a900473ffffffffffffffffffffffffffffffffffffffff1673ffffffffffffffffffffffffffffffffffffffff1663693ec85e6040805190810160405280600f81526020017f636173682d696e2d73746f7261676500000000000000000000000000000000008152506040518263ffffffff167c01000000000000000000000000000000000000000000000000000000000281526004018080602001828103825283818151815260200191508051906020019080838360005b83811015613d19578082015181840152602081019050613cfe565b50505050905090810190601f168015613d465780820380516001836020036101000a031916815260200191505b5092505050602060405180830381600087803b158015613d6557600080fd5b505af1158015613d79573d6000803e3d6000fd5b505050506040513d6020811015613d8f57600080fd5b810190808051906020019092919050505073ffffffffffffffffffffffffffffffffffffffff1663baa135d4846040518263ffffffff167c0100000000000000000000000000000000000000000000000000000000028152600401808281526020019150506040805180830381600087803b158015613e0d57600080fd5b505af1158015613e21573d6000803e3d6000fd5b505050506040513d6040811015613e3757600080fd5b81019080805190602001909291908051906020019092919050505091509150600260009054906101000a900473ffffffffffffffffffffffffffffffffffffffff1673ffffffffffffffffffffffffffffffffffffffff1663693ec85e6040805190810160405280600f81526020017f636173682d696e2d73746f7261676500000000000000000000000000000000008152506040518263ffffffff167c01000000000000000000000000000000000000000000000000000000000281526004018080602001828103825283818151815260200191508051906020019080838360005b83811015613f35578082015181840152602081019050613f1a565b50505050905090810190601f168015613f625780820380516001836020036101000a031916815260200191505b5092505050602060405180830381600087803b158015613f8157600080fd5b505af1158015613f95573d6000803e3d6000fd5b505050506040513d6020811015613fab57600080fd5b810190808051906020019092919050505073ffffffffffffffffffffffffffffffffffffffff166382e408138460016005811115613fe557fe5b6040518363ffffffff167c01000000000000000000000000000000000000000000000000000000000281526004018083815260200182815260200192505050600060405180830381600087803b15801561403e57600080fd5b505af1158015614052573d6000803e3d6000fd5b505050508173ffffffffffffffffffffffffffffffffffffffff16636886a5c284836040518363ffffffff167c01000000000000000000000000000000000000000000000000000000000281526004018083815260200182815260200192505050600060405180830381600087803b1580156140cd57600080fd5b505af11580156140e1573d6000803e3d6000fd5b50505050505050565b6000806000806000806003600581111561410057fe5b600260009054906101000a900473ffffffffffffffffffffffffffffffffffffffff1673ffffffffffffffffffffffffffffffffffffffff1663693ec85e6040805190810160405280600f81526020017f636173682d696e2d73746f7261676500000000000000000000000000000000008152506040518263ffffffff167c01000000000000000000000000000000000000000000000000000000000281526004018080602001828103825283818151815260200191508051906020019080838360005b838110156141df5780820151818401526020810190506141c4565b50505050905090810190601f16801561420c5780820380516001836020036101000a031916815260200191505b5092505050602060405180830381600087803b15801561422b57600080fd5b505af115801561423f573d6000803e3d6000fd5b505050506040513d602081101561425557600080fd5b810190808051906020019092919050505073ffffffffffffffffffffffffffffffffffffffff16635c622a0e896040518263ffffffff167c010000000000000000000000000000000000000000000000000000000002815260040180828152602001915050602060405180830381600087803b1580156142d457600080fd5b505af11580156142e8573d6000803e3d6000fd5b505050506040513d60208110156142fe57600080fd5b810190808051906020019092919050505014151561431b57600080fd5b600260009054906101000a900473ffffffffffffffffffffffffffffffffffffffff1673ffffffffffffffffffffffffffffffffffffffff1663693ec85e6040805190810160405280600f81526020017f636173682d696e2d73746f7261676500000000000000000000000000000000008152506040518263ffffffff167c01000000000000000000000000000000000000000000000000000000000281526004018080602001828103825283818151815260200191508051906020019080838360005b838110156143fa5780820151818401526020810190506143df565b50505050905090810190601f1680156144275780820380516001836020036101000a031916815260200191505b5092505050602060405180830381600087803b15801561444657600080fd5b505af115801561445a573d6000803e3d6000fd5b505050506040513d602081101561447057600080fd5b810190808051906020019092919050505073ffffffffffffffffffffffffffffffffffffffff1663baa135d4886040518263ffffffff167c0100000000000000000000000000000000000000000000000000000000028152600401808281526020019150506040805180830381600087803b1580156144ee57600080fd5b505af1158015614502573d6000803e3d6000fd5b505050506040513d604081101561451857600080fd5b810190808051906020019092919080519060200190929190505050955095506147706000809054906101000a900473ffffffffffffffffffffffffffffffffffffffff16600260009054906101000a900473ffffffffffffffffffffffffffffffffffffffff1673ffffffffffffffffffffffffffffffffffffffff1663693ec85e6040805190810160405280600f81526020017f636173682d696e2d73746f7261676500000000000000000000000000000000008152506040518263ffffffff167c01000000000000000000000000000000000000000000000000000000000281526004018080602001828103825283818151815260200191508051906020019080838360005b8381101561463b578082015181840152602081019050614620565b50505050905090810190601f1680156146685780820380516001836020036101000a031916815260200191505b5092505050602060405180830381600087803b15801561468757600080fd5b505af115801561469b573d6000803e3d6000fd5b505050506040513d60208110156146b157600080fd5b810190808051906020019092919050505073ffffffffffffffffffffffffffffffffffffffff1663e63f44c88a6040518263ffffffff167c010000000000000000000000000000000000000000000000000000000002815260040180828152602001915050602060405180830381600087803b15801561473057600080fd5b505af1158015614744573d6000803e3d6000fd5b505050506040513d602081101561475a57600080fd5b810190808051906020019092919050505061539b565b600260009054906101000a900473ffffffffffffffffffffffffffffffffffffffff1673ffffffffffffffffffffffffffffffffffffffff1663693ec85e6040805190810160405280600f81526020017f636173682d696e2d73746f7261676500000000000000000000000000000000008152506040518263ffffffff167c01000000000000000000000000000000000000000000000000000000000281526004018080602001828103825283818151815260200191508051906020019080838360005b8381101561484f578082015181840152602081019050614834565b50505050905090810190601f16801561487c5780820380516001836020036101000a031916815260200191505b5092505050602060405180830381600087803b15801561489b57600080fd5b505af11580156148af573d6000803e3d6000fd5b505050506040513d60208110156148c557600080fd5b810190808051906020019092919050505073ffffffffffffffffffffffffffffffffffffffff16636b2611b8886040518263ffffffff167c010000000000000000000000000000000000000000000000000000000002815260040180828152602001915050602060405180830381600087803b15801561494457600080fd5b505af1158015614958573d6000803e3d6000fd5b505050506040513d602081101561496e57600080fd5b81019080805190602001909291905050509350600084111561499557614994868561539b565b5b600092505b600260009054906101000a900473ffffffffffffffffffffffffffffffffffffffff1673ffffffffffffffffffffffffffffffffffffffff1663693ec85e6040805190810160405280600f81526020017f636173682d696e2d73746f7261676500000000000000000000000000000000008152506040518263ffffffff167c01000000000000000000000000000000000000000000000000000000000281526004018080602001828103825283818151815260200191508051906020019080838360005b83811015614a79578082015181840152602081019050614a5e565b50505050905090810190601f168015614aa65780820380516001836020036101000a031916815260200191505b5092505050602060405180830381600087803b158015614ac557600080fd5b505af1158015614ad9573d6000803e3d6000fd5b505050506040513d6020811015614aef57600080fd5b810190808051906020019092919050505073ffffffffffffffffffffffffffffffffffffffff166333263ad6886040518263ffffffff167c010000000000000000000000000000000000000000000000000000000002815260040180828152602001915050602060405180830381600087803b158015614b6e57600080fd5b505af1158015614b82573d6000803e3d6000fd5b505050506040513d6020811015614b9857600080fd5b8101908080519060200190929190505050831015614deb57600260009054906101000a900473ffffffffffffffffffffffffffffffffffffffff1673ffffffffffffffffffffffffffffffffffffffff1663693ec85e6040805190810160405280600f81526020017f636173682d696e2d73746f7261676500000000000000000000000000000000008152506040518263ffffffff167c01000000000000000000000000000000000000000000000000000000000281526004018080602001828103825283818151815260200191508051906020019080838360005b83811015614c8f578082015181840152602081019050614c74565b50505050905090810190601f168015614cbc5780820380516001836020036101000a031916815260200191505b5092505050602060405180830381600087803b158015614cdb57600080fd5b505af1158015614cef573d6000803e3d6000fd5b505050506040513d6020811015614d0557600080fd5b810190808051906020019092919050505073ffffffffffffffffffffffffffffffffffffffff166333d43dbd88856040518363ffffffff167c010000000000000000000000000000000000000000000000000000000002815260040180838152602001828152602001925050506040805180830381600087803b158015614d8b57600080fd5b505af1158015614d9f573d6000803e3d6000fd5b505050506040513d6040811015614db557600080fd5b81019080805190602001909291908051906020019092919050505091509150614dde828261539b565b828060010193505061499a565b600260009054906101000a900473ffffffffffffffffffffffffffffffffffffffff1673ffffffffffffffffffffffffffffffffffffffff1663693ec85e6040805190810160405280600f81526020017f636173682d696e2d73746f7261676500000000000000000000000000000000008152506040518263ffffffff167c01000000000000000000000000000000000000000000000000000000000281526004018080602001828103825283818151815260200191508051906020019080838360005b83811015614eca578082015181840152602081019050614eaf565b50505050905090810190601f168015614ef75780820380516001836020036101000a031916815260200191505b5092505050602060405180830381600087803b158015614f1657600080fd5b505af1158015614f2a573d6000803e3d6000fd5b505050506040513d6020811015614f4057600080fd5b810190808051906020019092919050505073ffffffffffffffffffffffffffffffffffffffff166382e408138860046005811115614f7a57fe5b6040518363ffffffff167c01000000000000000000000000000000000000000000000000000000000281526004018083815260200182815260200192505050600060405180830381600087803b158015614fd357600080fd5b505af1158015614fe7573d6000803e3d6000fd5b50505050600260009054906101000a900473ffffffffffffffffffffffffffffffffffffffff1673ffffffffffffffffffffffffffffffffffffffff1663693ec85e6040805190810160405280600f81526020017f73657373696f6e2d73746f7261676500000000000000000000000000000000008152506040518263ffffffff167c01000000000000000000000000000000000000000000000000000000000281526004018080602001828103825283818151815260200191508051906020019080838360005b838110156150ca5780820151818401526020810190506150af565b50505050905090810190601f1680156150f75780820380516001836020036101000a031916815260200191505b5092505050602060405180830381600087803b15801561511657600080fd5b505af115801561512a573d6000803e3d6000fd5b505050506040513d602081101561514057600080fd5b810190808051906020019092919050505073ffffffffffffffffffffffffffffffffffffffff1663fd198b2c8660006040518363ffffffff167c0100000000000000000000000000000000000000000000000000000000028152600401808381526020018215151515815260200192505050600060405180830381600087803b1580156151cc57600080fd5b505af11580156151e0573d6000803e3d6000fd5b505050508573ffffffffffffffffffffffffffffffffffffffff166352fd43a188876040518363ffffffff167c01000000000000000000000000000000000000000000000000000000000281526004018083815260200182815260200192505050600060405180830381600087803b15801561525b57600080fd5b505af115801561526f573d6000803e3d6000fd5b5050505050505050505050565b6000809054906101000a900473ffffffffffffffffffffffffffffffffffffffff1681565b60008060008414156152b657600091506152d8565b82840290508284828115156152c757fe5b041415156152d457600080fd5b8091505b5092915050565b6000806000831115156152f157600080fd5b82848115156152fc57fe5b0490508091505092915050565b600080600090505b825181101561535357615344838281518110151561532b57fe5b906020019060200201518361535990919063ffffffff16565b91508080600101915050615311565b50919050565b600080828401905083811015151561537057600080fd5b8091505092915050565b60008083831115151561538c57600080fd5b82840390508091505092915050565b600260009054906101000a900473ffffffffffffffffffffffffffffffffffffffff1673ffffffffffffffffffffffffffffffffffffffff1663693ec85e6040805190810160405280600d81526020017f746f6b656e2d6d616e61676572000000000000000000000000000000000000008152506040518263ffffffff167c01000000000000000000000000000000000000000000000000000000000281526004018080602001828103825283818151815260200191508051906020019080838360005b8381101561547a57808201518184015260208101905061545f565b50505050905090810190601f1680156154a75780820380516001836020036101000a031916815260200191505b5092505050602060405180830381600087803b1580156154c657600080fd5b505af11580156154da573d6000803e3d6000fd5b505050506040513d60208110156154f057600080fd5b810190808051906020019092919050505073ffffffffffffffffffffffffffffffffffffffff1663a9059cbb83836040518363ffffffff167c0100000000000000000000000000000000000000000000000000000000028152600401808373ffffffffffffffffffffffffffffffffffffffff1673ffffffffffffffffffffffffffffffffffffffff16815260200182815260200192505050600060405180830381600087803b1580156155a357600080fd5b505af11580156155b7573d6000803e3d6000fd5b5050505050505600a165627a7a7230582039138b9c614815373048adb394cb964bbea407a0925cd3d2c84cb65dbe9599db0029",
  "source": "pragma solidity 0.4.24;\n\nimport \"../application/IApplication.sol\";\nimport {ACashInOracle} from \"../oracles/Oracles.sol\";\nimport {SafeMath} from \"../libs/Libraries.sol\";\nimport {ACashChannelsManager, ASessionManager, ATokenManager} from \"./Managers.sol\";\nimport \"../storages/Storages.sol\";\nimport \"../Platform.sol\";\n\ncontract CashChannelsManager is ACashChannelsManager, Named(\"cash-channels-manager\"), Mortal, Component {\n\n    using SafeMath for uint256;\n\n    string constant CASH_IN_STORAGE = \"cash-in-storage\";\n    string constant SESSION_STORAGE = \"session-storage\";\n    string constant APPLICATION_STORAGE = \"application-storage\";\n    string constant PARAMETER_STORAGE = \"parameter-storage\";\n    string constant SESSION_MANAGER = \"session-manager\";\n    string constant TOKEN_MANAGER = \"token-manager\";\n    string constant CASH_IN_ORACLE = \"cash-in-oracle\";\n\n    modifier cashInActive(uint256 _channelId) {\n        require(ACashInStorage(context.get(CASH_IN_STORAGE)).getStatus(_channelId) == uint256(CashInStatus.ACTIVE), \"CashIn in illegal state\");\n        _;\n    }\n\n    modifier appOwnsChannel(uint256 _channelId, address _application) {\n        require(ACashInStorage(context.get(CASH_IN_STORAGE)).getApplication(_channelId) == _application, \"Illegal access\");\n        _;\n    }\n\n    modifier channelBelongsToSession(uint256 _channelId, uint256 _sessionId) {\n        require(ACashInStorage(context.get(CASH_IN_STORAGE)).getSessionId(_channelId) == _sessionId, \"Arguments mismatch\");\n        _;\n    }\n\n    constructor(address _config) Component(_config) public {}\n\n    ///@dev cash-in channel could be created only if:\n    ///session is active; application owns the session; there is no active channels in the session\n    function openCashInChannel(address _application, uint256 _sessionId) public returns (uint256 channelId) {\n        require(ASessionManager(context.get(SESSION_MANAGER)).isActive(_sessionId), \"Illegal state of the session\");\n        require(!ASessionStorage(context.get(SESSION_STORAGE)).isHasActiveCashIn(_sessionId), \"There is already opened cash-in channel\");\n        ASessionStorage(context.get(SESSION_STORAGE)).setHasActiveCashIn(_sessionId, true);\n        address application = AnApplicationStorage(context.get(APPLICATION_STORAGE)).getApplicationAddress(ASessionStorage(context.get(SESSION_STORAGE)).getAppId(_sessionId));\n        require(application == _application, \"Illegal access\");\n        channelId = ACashInStorage(context.get(CASH_IN_STORAGE)).save(_sessionId, application, uint256(CashInStatus.CREATING));\n        ACashInOracle(context.get(CASH_IN_ORACLE)).open(_sessionId, channelId, uint256(CashInStatus.CREATING));\n    }\n\n    function updateCashInBalance(uint256 channelId, uint256 amount) public cashInActive(channelId) {\n        uint256 currentBalance = ACashInStorage(context.get(CASH_IN_STORAGE)).getBalance(channelId);\n        ACashInStorage(context.get(CASH_IN_STORAGE)).setBalance(channelId, currentBalance + amount);\n        (address application, uint256 sessionId) = ACashInStorage(context.get(CASH_IN_STORAGE)).getApplicationAndSessionId(channelId);\n        IApplication(application).cashInBalanceUpdate(channelId, amount, sessionId);\n    }\n\n    function balanceOf(address _application, uint256 _channelId) public view returns (uint256) {\n        ACashInStorage cashInStorage = ACashInStorage(context.get(CASH_IN_STORAGE));\n        require(cashInStorage.getApplication(_channelId) == _application, \"Illegal access\");\n        return cashInStorage.getBalance(_channelId);\n    }\n\n    function closeCashInChannel(address _application, uint256 _sessionId, uint256 _channelId, uint256[] fees, address[] parties)\n    cashInActive(_channelId)\n    appOwnsChannel(_channelId, _application)\n    channelBelongsToSession(_channelId, _sessionId)\n    public returns (bool){\n        require(fees.length == parties.length, \"Illegal arguments\");\n        uint256 channelBalance = ACashInStorage(context.get(CASH_IN_STORAGE)).getBalance(_channelId);\n        uint256 vaultLogicFee = channelBalance.mul(AParameterStorage(context.get(PARAMETER_STORAGE)).getVLFee()).div(10000);\n        uint256 feesAmount = _sumOf(fees);\n        require(feesAmount.add(vaultLogicFee) <= channelBalance, \"Channel balance overflow\");\n        ACashInStorage(context.get(CASH_IN_STORAGE)).setVLFee(_channelId, vaultLogicFee);\n        ACashInStorage(context.get(CASH_IN_STORAGE)).setApplicationBalance(_channelId, channelBalance.sub(vaultLogicFee).sub(feesAmount));\n        ACashInStorage(context.get(CASH_IN_STORAGE)).addSplits(_channelId, parties, fees);\n        ACashInStorage(context.get(CASH_IN_STORAGE)).setStatus(_channelId, uint256(CashInStatus.CLOSE_REQUESTED));\n        ACashInOracle(context.get(CASH_IN_ORACLE)).close(_sessionId, _channelId);\n        return true;\n    }\n\n    function _sumOf(uint256[] _elements) private pure returns (uint256 _sum) {\n        for (uint256 i = 0; i < _elements.length; i++) _sum = _sum.add(_elements[i]);\n    }\n\n    function _transferAll(address[] _recepients, uint256[] _amounts) private {\n        for (uint256 j = 0; j < _recepients.length; j++) _transfer(_recepients[j], _amounts[j]);\n    }\n\n    function _transfer(address _recepient, uint256 amount) private {\n        ATokenManager(context.get(TOKEN_MANAGER)).transfer(_recepient, amount);\n    }\n\n    function confirmOpen(uint256 channelId) public {\n        require(ACashInStorage(context.get(CASH_IN_STORAGE)).getStatus(channelId) == uint256(CashInStatus.CREATING));\n        (address application, uint256 sessionId) = ACashInStorage(context.get(CASH_IN_STORAGE)).getApplicationAndSessionId(channelId);\n        ACashInStorage(context.get(CASH_IN_STORAGE)).setStatus(channelId, uint256(CashInStatus.ACTIVE));\n        IApplication(application).cashInChannelOpened(channelId, sessionId);\n    }\n\n    function confirmClose(uint256 channelId) public {\n        require(ACashInStorage(context.get(CASH_IN_STORAGE)).getStatus(channelId) == uint256(CashInStatus.CLOSE_REQUESTED));\n        (address application, uint256 sessionId) = ACashInStorage(context.get(CASH_IN_STORAGE)).getApplicationAndSessionId(channelId);\n        _transfer(owner, ACashInStorage(context.get(CASH_IN_STORAGE)).getVLFee(channelId));\n        uint256 applicationBalance = ACashInStorage(context.get(CASH_IN_STORAGE)).getApplicationBalance(channelId);\n        if (applicationBalance > 0) _transfer(application, applicationBalance);\n        for (uint256 i = 0; i < ACashInStorage(context.get(CASH_IN_STORAGE)).getSplitSize(channelId); i++) {\n            (address party, uint256 fee) = ACashInStorage(context.get(CASH_IN_STORAGE)).getSplit(channelId, i);\n            _transfer(party, fee);\n        }\n        ACashInStorage(context.get(CASH_IN_STORAGE)).setStatus(channelId, uint256(CashInStatus.CLOSED));\n        ASessionStorage(context.get(SESSION_STORAGE)).setHasActiveCashIn(sessionId, false);\n        IApplication(application).cashInChannelClosed(channelId, sessionId);\n    }\n\n}",
  "sourcePath": "/home/andrew/vault-logic-project/Development/test/vault-logic-api/truffle/contracts/managers/CashChannelsManager.sol",
  "compiler": {
    "name": "solc",
    "version": "0.4.24+commit.e67f0147.Emscripten.clang"
  },
  "schemaVersion": "2.0.1",
  "updatedAt": "2018-10-16T08:22:15.346Z"
}