{
  "contractName": "CashChannelsManager",
  "abi": [
    {
      "constant": true,
      "inputs": [],
      "name": "name",
      "outputs": [
        {
          "name": "",
          "type": "string"
        }
      ],
      "payable": false,
      "stateMutability": "view",
      "type": "function"
    },
    {
      "constant": false,
      "inputs": [],
      "name": "kill",
      "outputs": [],
      "payable": false,
      "stateMutability": "nonpayable",
      "type": "function"
    },
    {
      "constant": true,
      "inputs": [],
      "name": "owner",
      "outputs": [
        {
          "name": "",
          "type": "address"
        }
      ],
      "payable": false,
      "stateMutability": "view",
      "type": "function"
    },
    {
      "inputs": [
        {
          "name": "_config",
          "type": "address"
        }
      ],
      "payable": false,
      "stateMutability": "nonpayable",
      "type": "constructor"
    },
    {
      "constant": false,
      "inputs": [
        {
          "name": "_application",
          "type": "address"
        },
        {
          "name": "_sessionId",
          "type": "uint256"
        },
        {
          "name": "_maxBalance",
          "type": "uint256"
        },
        {
          "name": "_success",
          "type": "function"
        },
        {
          "name": "_update",
          "type": "function"
        },
        {
          "name": "_fail",
          "type": "function"
        }
      ],
      "name": "openCashInChannel",
      "outputs": [
        {
          "name": "_accepted",
          "type": "bool"
        }
      ],
      "payable": false,
      "stateMutability": "nonpayable",
      "type": "function"
    },
    {
      "constant": false,
      "inputs": [
        {
          "name": "_commandId",
          "type": "uint256"
        }
      ],
      "name": "confirmOpen",
      "outputs": [],
      "payable": false,
      "stateMutability": "nonpayable",
      "type": "function"
    },
    {
      "constant": false,
      "inputs": [
        {
          "name": "_channelId",
          "type": "uint256"
        },
        {
          "name": "_amount",
          "type": "uint256"
        }
      ],
      "name": "updateCashInBalance",
      "outputs": [],
      "payable": false,
      "stateMutability": "nonpayable",
      "type": "function"
    },
    {
      "constant": false,
      "inputs": [
        {
          "name": "_application",
          "type": "address"
        },
        {
          "name": "_sessionId",
          "type": "uint256"
        },
        {
          "name": "_channelId",
          "type": "uint256"
        },
        {
          "name": "_fees",
          "type": "uint256[]"
        },
        {
          "name": "_parties",
          "type": "address[]"
        },
        {
          "name": "_success",
          "type": "function"
        },
        {
          "name": "_fail",
          "type": "function"
        }
      ],
      "name": "closeCashInChannel",
      "outputs": [
        {
          "name": "_accepted",
          "type": "bool"
        }
      ],
      "payable": false,
      "stateMutability": "nonpayable",
      "type": "function"
    },
    {
      "constant": true,
      "inputs": [
        {
          "name": "_application",
          "type": "address"
        },
        {
          "name": "_channelId",
          "type": "uint256"
        }
      ],
      "name": "balanceOf",
      "outputs": [
        {
          "name": "",
          "type": "uint256"
        }
      ],
      "payable": false,
      "stateMutability": "view",
      "type": "function"
    },
    {
      "constant": false,
      "inputs": [
        {
          "name": "_commandId",
          "type": "uint256"
        }
      ],
      "name": "confirmClose",
      "outputs": [],
      "payable": false,
      "stateMutability": "nonpayable",
      "type": "function"
    }
  ],
  "bytecode": "0x60806040523480156200001157600080fd5b506040516020806200624c833981016040818152915182820190925260158082527f636173682d6368616e6e656c732d6d616e6167657200000000000000000000006020830190815260008054600160a060020a031916331781558493909290916200008191600191906200044e565b505081600160a060020a031663713b563f6040518163ffffffff167c0100000000000000000000000000000000000000000000000000000000028152600401602060405180830381600087803b158015620000db57600080fd5b505af1158015620000f0573d6000803e3d6000fd5b505050506040513d60208110156200010757600080fd5b505160038054600160a060020a031916600160a060020a03928316179055604080517fd0496d6a00000000000000000000000000000000000000000000000000000000815290519184169163d0496d6a916004808201926020929091908290030181600087803b1580156200017b57600080fd5b505af115801562000190573d6000803e3d6000fd5b505050506040513d6020811015620001a757600080fd5b505160028054600160a060020a031916600160a060020a03928316178082556040517f693ec85e00000000000000000000000000000000000000000000000000000000815260206004820190815260018054610100818316150260001901169490940460248301819052929094169363693ec85e939290918291604490910190849080156200027a5780601f106200024e576101008083540402835291602001916200027a565b820191906000526020600020905b8154815290600101906020018083116200025c57829003601f168201915b505092505050602060405180830381600087803b1580156200029b57600080fd5b505af1158015620002b0573d6000803e3d6000fd5b505050506040513d6020811015620002c757600080fd5b50519050600160a060020a038116156200034d5780600160a060020a03166341c0e1b56040518163ffffffff167c0100000000000000000000000000000000000000000000000000000000028152600401600060405180830381600087803b1580156200033357600080fd5b505af115801562000348573d6000803e3d6000fd5b505050505b600280546040517ff2c298be00000000000000000000000000000000000000000000000000000000815260206004820190815260018054600019818316156101000201169490940460248301819052600160a060020a039093169363f2c298be9390928291604490910190849080156200040b5780601f10620003df576101008083540402835291602001916200040b565b820191906000526020600020905b815481529060010190602001808311620003ed57829003601f168201915b505092505050600060405180830381600087803b1580156200042c57600080fd5b505af115801562000441573d6000803e3d6000fd5b50505050505050620004f3565b828054600181600116156101000203166002900490600052602060002090601f016020900481019282601f106200049157805160ff1916838001178555620004c1565b82800160010185558215620004c1579182015b82811115620004c1578251825591602001919060010190620004a4565b50620004cf929150620004d3565b5090565b620004f091905b80821115620004cf5760008155600101620004da565b90565b615d4980620005036000396000f30060806040526004361061007e5763ffffffff60e060020a600035041662fdd58e811461008357806306fdde03146100b957806341c0e1b51461014357806354e027d81461015a5780635940c65514610175578063882d5f7a1461018d5780638da5cb5b146101a55780639b4908d6146101d6578063b05405e4146102b7575b600080fd5b34801561008f57600080fd5b506100a7600160a060020a0360043516602435610314565b60408051918252519081900360200190f35b3480156100c557600080fd5b506100ce610596565b6040805160208082528351818301528351919283929083019185019080838360005b838110156101085781810151838201526020016100f0565b50505050905090810190601f1680156101355780820380516001836020036101000a031916815260200191505b509250505060405180910390f35b34801561014f57600080fd5b50610158610623565b005b34801561016657600080fd5b50610158600435602435610689565b34801561018157600080fd5b50610158600435610aa3565b34801561019957600080fd5b5061015860043561108c565b3480156101b157600080fd5b506101ba6118f0565b60408051600160a060020a039092168252519081900360200190f35b3480156101e257600080fd5b5060408051606435600481810135602081810285810182019096528185526102a395600160a060020a03843516956024803596604435963696909560849592909301929091829185019084908082843750506040805187358901803560208181028481018201909552818452989b9a99890198929750908201955093508392508501908490808284375094975050606060020a8535818104975063ffffffff604060020a9182900481169760200135928304965091041692506118ff915050565b604080519115158252519081900360200190f35b3480156102c357600080fd5b506102a3600160a060020a0360043516602435604435606060020a6064358181049163ffffffff604060020a92839004811692608435838104939082900483169260a4359182049290910416611bd4565b600254604080518082018252600f81527f636173682d696e2d73746f7261676500000000000000000000000000000000006020808301918252925160e160020a63349f642f028152600481019384528251602482015282516000958695600160a060020a039091169463693ec85e9490939192839260440191908083838b5b838110156103ab578181015183820152602001610393565b50505050905090810190601f1680156103d85780820380516001836020036101000a031916815260200191505b5092505050602060405180830381600087803b1580156103f757600080fd5b505af115801561040b573d6000803e3d6000fd5b505050506040513d602081101561042157600080fd5b5051604080517f1f2f4bfd000000000000000000000000000000000000000000000000000000008152600481018690529051919250600160a060020a038087169290841691631f2f4bfd9160248083019260209291908290030181600087803b15801561048d57600080fd5b505af11580156104a1573d6000803e3d6000fd5b505050506040513d60208110156104b757600080fd5b5051600160a060020a031614610517576040805160e560020a62461bcd02815260206004820152600e60248201527f496c6c6567616c20616363657373000000000000000000000000000000000000604482015290519081900360640190fd5b80600160a060020a0316631e010439846040518263ffffffff1660e060020a02815260040180828152602001915050602060405180830381600087803b15801561056057600080fd5b505af1158015610574573d6000803e3d6000fd5b505050506040513d602081101561058a57600080fd5b505191505b5092915050565b60018054604080516020600284861615610100026000190190941693909304601f8101849004840282018401909252818152929183018282801561061b5780601f106105f05761010080835404028352916020019161061b565b820191906000526020600020905b8154815290600101906020018083116105fe57829003601f168201915b505050505081565b600054600160a060020a03163214610685576040805160e560020a62461bcd02815260206004820152601260248201527f6f6e6c79206f776e657220616c6c6f7765640000000000000000000000000000604482015290519081900360640190fd5b6000ff5b610691615c41565b610699615c66565b600254604080518082018252600e81527f636173682d696e2d6f7261636c650000000000000000000000000000000000006020808301918252925160e160020a63349f642f02815260048101938452825160248201528251600160a060020a039095169463693ec85e949283926044019180838360005b83811015610728578181015183820152602001610710565b50505050905090810190601f1680156107555780820380516001836020036101000a031916815260200191505b5092505050602060405180830381600087803b15801561077457600080fd5b505af1158015610788573d6000803e3d6000fd5b505050506040513d602081101561079e57600080fd5b5051600160a060020a031633146107ff576040805160e560020a62461bcd02815260206004820152601360248201527f6f6e6c79206f7261636c6520616c6c6f77656400000000000000000000000000604482015290519081900360640190fd5b60035461081b90600160a060020a03168563ffffffff611fbb16565b60035490925061083a90600160a060020a03168563ffffffff61244616565b6020810151815191925090610855908563ffffffff612a3716565b11156108ab576040805160e560020a62461bcd02815260206004820152601860248201527f636173682d696e2062616c616e6365206f766572666c6f770000000000000000604482015290519081900360640190fd5b80516108dc9085906108c3908663ffffffff612a3716565b600354600160a060020a0316919063ffffffff612a5016565b600254604080518082018252601281527f636173682d696e2d636f6e74726f6c6c657200000000000000000000000000006020808301918252925160e160020a63349f642f02815260048101938452825160248201528251600160a060020a039095169463693ec85e949283926044019180838360005b8381101561096b578181015183820152602001610953565b50505050905090810190601f1680156109985780820380516001836020036101000a031916815260200191505b5092505050602060405180830381600087803b1580156109b757600080fd5b505af11580156109cb573d6000803e3d6000fd5b505050506040513d60208110156109e157600080fd5b5051602083015183516060840151604080517f2c903d110000000000000000000000000000000000000000000000000000000081526004810194909452602484019290925260448301879052640100000000606060020a82040263ffffffff604060020a92839004161702606483015251600160a060020a0390921691632c903d119160848082019260009290919082900301818387803b158015610a8557600080fd5b505af1158015610a99573d6000803e3d6000fd5b5050505050505050565b610aab615c8d565b600354610ac790600160a060020a03168363ffffffff612bb116565b600354909150610ae690600160a060020a03168363ffffffff61332b16565b1515610b62576040805160e560020a62461bcd02815260206004820152602160248201527f6361736820696e206d75737420626520696e204352454154494e47207374617460448201527f6500000000000000000000000000000000000000000000000000000000000000606482015290519081900360840190fd5b602080820151600254604080518082018252601181527f706172616d657465722d6d616e61676572000000000000000000000000000000818601908152915160e160020a63349f642f02815260048101958652815160248201528151610d3196899695600160a060020a03169463693ec85e949391928392604401919080838360005b83811015610bfd578181015183820152602001610be5565b50505050905090810190601f168015610c2a5780820380516001836020036101000a031916815260200191505b5092505050602060405180830381600087803b158015610c4957600080fd5b505af1158015610c5d573d6000803e3d6000fd5b505050506040513d6020811015610c7357600080fd5b5051604080517fcc0a29e60000000000000000000000000000000000000000000000000000000081529051600160a060020a039092169163cc0a29e6916004808201926020929091908290030181600087803b158015610cd257600080fd5b505af1158015610ce6573d6000803e3d6000fd5b505050506040513d6020811015610cfc57600080fd5b50516060850151600354600160a060020a031693929190606060020a81049063ffffffff604060020a9091048116906134a016565b600354610d4f90600160a060020a031683600163ffffffff6138fe16565b600254604080518082018252600f81527f73657373696f6e2d6d616e6167657200000000000000000000000000000000006020808301918252925160e160020a63349f642f02815260048101938452825160248201528251600160a060020a039095169463693ec85e949283926044019180838360005b83811015610dde578181015183820152602001610dc6565b50505050905090810190601f168015610e0b5780820380516001836020036101000a031916815260200191505b5092505050602060405180830381600087803b158015610e2a57600080fd5b505af1158015610e3e573d6000803e3d6000fd5b505050506040513d6020811015610e5457600080fd5b50518151604080517fcf82c582000000000000000000000000000000000000000000000000000000008152600481019290925251600160a060020a039092169163cf82c5829160248082019260009290919082900301818387803b158015610ebb57600080fd5b505af1158015610ecf573d6000803e3d6000fd5b5050600254604080518082018252601281527f636173682d696e2d636f6e74726f6c6c657200000000000000000000000000006020808301918252925160e160020a63349f642f02815260048101938452825160248201528251600160a060020a03909516965063693ec85e955091938392604401919080838360005b83811015610f64578181015183820152602001610f4c565b50505050905090810190601f168015610f915780820380516001836020036101000a031916815260200191505b5092505050602060405180830381600087803b158015610fb057600080fd5b505af1158015610fc4573d6000803e3d6000fd5b505050506040513d6020811015610fda57600080fd5b5051815160408084015181517f8a933400000000000000000000000000000000000000000000000000000000008152600481019390935260248301869052640100000000606060020a82040263ffffffff604060020a92839004161702604483015251600160a060020a0390921691638a9334009160648082019260009290919082900301818387803b15801561107057600080fd5b505af1158015611084573d6000803e3d6000fd5b505050505050565b611094615c41565b61109c615cbb565b6110a4615c66565b6110ac615cdb565b6003805460009182918291829182916110d691600160a060020a0316908c9063ffffffff613a4516565b151561112c576040805160e560020a62461bcd02815260206004820152601f60248201527f636173682d696e206d75737420626520434c4f53455f52455155455354454400604482015290519081900360640190fd5b60035461114890600160a060020a03168b63ffffffff611fbb16565b60035490995061116790600160a060020a03168b63ffffffff613bc516565b60035490985061118690600160a060020a03168b63ffffffff61244616565b6003549097506111a590600160a060020a03168b63ffffffff61404c16565b600254604080518082018252600d81527f746f6b656e2d6d616e61676572000000000000000000000000000000000000006020808301918252925160e160020a63349f642f02815260048101938452825160248201528251959b50600160a060020a039094169463693ec85e94929392839260449091019180838360005b8381101561123b578181015183820152602001611223565b50505050905090810190601f1680156112685780820380516001836020036101000a031916815260200191505b5092505050602060405180830381600087803b15801561128757600080fd5b505af115801561129b573d6000803e3d6000fd5b505050506040513d60208110156112b157600080fd5b5051604088015188519196506112e191612710916112d5919063ffffffff6144f516565b9063ffffffff61452316565b9350600086600001511115611475576112fd8660200151614546565b8751909350611324908490611318908763ffffffff61458b16565b9063ffffffff61458b16565b915084600160a060020a031663a9059cbb8a60400151846040518363ffffffff1660e060020a0281526004018083600160a060020a0316600160a060020a0316815260200182815260200192505050600060405180830381600087803b15801561138d57600080fd5b505af11580156113a1573d6000803e3d6000fd5b50505050600090505b85518110156114705784600160a060020a031663a9059cbb8760400151838151811015156113d457fe5b906020019060200201518860200151848151811015156113f057fe5b906020019060200201516040518363ffffffff1660e060020a0281526004018083600160a060020a0316600160a060020a0316815260200182815260200192505050600060405180830381600087803b15801561144c57600080fd5b505af1158015611460573d6000803e3d6000fd5b5050600190920191506113aa9050565b611508565b60408901518751600160a060020a0387169163a9059cbb9161149d908863ffffffff61458b16565b6040518363ffffffff1660e060020a0281526004018083600160a060020a0316600160a060020a0316815260200182815260200192505050600060405180830381600087803b1580156114ef57600080fd5b505af1158015611503573d6000803e3d6000fd5b505050505b60008054604080517fa9059cbb000000000000000000000000000000000000000000000000000000008152600160a060020a0392831660048201526024810188905290519188169263a9059cbb9260448084019382900301818387803b15801561157157600080fd5b505af1158015611585573d6000803e3d6000fd5b50506003546115a89250600160a060020a031690508b600463ffffffff6138fe16565b600254604080518082018252600f81527f73657373696f6e2d6d616e6167657200000000000000000000000000000000006020808301918252925160e160020a63349f642f02815260048101938452825160248201528251600160a060020a039095169463693ec85e949283926044019180838360005b8381101561163757818101518382015260200161161f565b50505050905090810190601f1680156116645780820380516001836020036101000a031916815260200191505b5092505050602060405180830381600087803b15801561168357600080fd5b505af1158015611697573d6000803e3d6000fd5b505050506040513d60208110156116ad57600080fd5b50518851604080517f4c4d4dba000000000000000000000000000000000000000000000000000000008152600481019290925251600160a060020a0390921691634c4d4dba9160248082019260009290919082900301818387803b15801561171457600080fd5b505af1158015611728573d6000803e3d6000fd5b5050600254604080518082018252601281527f636173682d696e2d636f6e74726f6c6c657200000000000000000000000000006020808301918252925160e160020a63349f642f02815260048101938452825160248201528251600160a060020a03909516965063693ec85e955091938392604401919080838360005b838110156117bd5781810151838201526020016117a5565b50505050905090810190601f1680156117ea5780820380516001836020036101000a031916815260200191505b5092505050602060405180830381600087803b15801561180957600080fd5b505af115801561181d573d6000803e3d6000fd5b505050506040513d602081101561183357600080fd5b5051885160208a0151604080517f192aed200000000000000000000000000000000000000000000000000000000081526004810193909352602483018e9052640100000000606060020a83040263ffffffff604060020a938490041617909102604483015251600160a060020a039092169163192aed209160648082019260009290919082900301818387803b1580156118cc57600080fd5b505af11580156118e0573d6000803e3d6000fd5b5050505050505050505050505050565b600054600160a060020a031681565b6000611909615c66565b6000806119178d8d8d6145a2565b60035461193390600160a060020a03168c63ffffffff61244616565b92506119566127106112d5856040015186600001516144f590919063ffffffff16565b91506119618a614546565b8351909150611976828463ffffffff612a3716565b11156119cc576040805160e560020a62461bcd02815260206004820152601860248201527f4368616e6e656c2062616c616e6365206f766572666c6f770000000000000000604482015290519081900360640190fd5b6003546119ea90600160a060020a03168c8c8c63ffffffff61470b16565b60038054611a0b91600160a060020a03909116908d9063ffffffff6138fe16565b600354611a2c90600160a060020a03168c8e8b8b8b8b63ffffffff614b9d16565b600254604080518082018252600e81527f636173682d696e2d6f7261636c650000000000000000000000000000000000006020808301918252925160e160020a63349f642f02815260048101938452825160248201528251600160a060020a039095169463693ec85e949283926044019180838360005b83811015611abb578181015183820152602001611aa3565b50505050905090810190601f168015611ae85780820380516001836020036101000a031916815260200191505b5092505050602060405180830381600087803b158015611b0757600080fd5b505af1158015611b1b573d6000803e3d6000fd5b505050506040513d6020811015611b3157600080fd5b5051604080517fc6669ec8000000000000000000000000000000000000000000000000000000008152600481018e90529051600160a060020a039092169163c6669ec8916024808201926020929091908290030181600087803b158015611b9757600080fd5b505af1158015611bab573d6000803e3d6000fd5b505050506040513d6020811015611bc157600080fd5b50519d9c50505050505050505050505050565b600254604080518082018252600f81527f73657373696f6e2d6d616e6167657200000000000000000000000000000000006020808301918252925160e160020a63349f642f028152600481019384528251602482015282516000958695600160a060020a039091169463693ec85e9490939192839260440191908083838b5b83811015611c6b578181015183820152602001611c53565b50505050905090810190601f168015611c985780820380516001836020036101000a031916815260200191505b5092505050602060405180830381600087803b158015611cb757600080fd5b505af1158015611ccb573d6000803e3d6000fd5b505050506040513d6020811015611ce157600080fd5b5051604080517fdcc22cfe000000000000000000000000000000000000000000000000000000008152600481018d9052600160a060020a038e811660248301529151919092169163dcc22cfe9160448083019260209291908290030181600087803b158015611d4f57600080fd5b505af1158015611d63573d6000803e3d6000fd5b505050506040513d6020811015611d7957600080fd5b50511515611dd1576040805160e560020a62461bcd02815260206004820152601960248201527f6361736820696e2063616e206e6f74206265206f70656e656400000000000000604482015290519081900360640190fd5b600354611dee90600160a060020a03168b8d63ffffffff614ffe16565b600354909150611e1590600160a060020a0316828c8c8c8c8c8c8c8c63ffffffff61551e16565b600254604080518082018252600e81527f636173682d696e2d6f7261636c650000000000000000000000000000000000006020808301918252925160e160020a63349f642f02815260048101938452825160248201528251600160a060020a039095169463693ec85e949283926044019180838360005b83811015611ea4578181015183820152602001611e8c565b50505050905090810190601f168015611ed15780820380516001836020036101000a031916815260200191505b5092505050602060405180830381600087803b158015611ef057600080fd5b505af1158015611f04573d6000803e3d6000fd5b505050506040513d6020811015611f1a57600080fd5b5051604080517f054fa677000000000000000000000000000000000000000000000000000000008152600481018490529051600160a060020a039092169163054fa677916024808201926020929091908290030181600087803b158015611f8057600080fd5b505af1158015611f94573d6000803e3d6000fd5b505050506040513d6020811015611faa57600080fd5b50519b9a5050505050505050505050565b611fc3615c41565b818152604080518082018252601a8082527f636173682d696e2e73657373696f6e2e69643a75696e7432353600000000000060208084019182529351600160a060020a0388169463e82617fb94938893929091019182918083835b6020831061203d5780518252601f19909201916020918201910161201e565b51815160209384036101000a600019018019909216911617905292019384525060408051808503815293820190819052835193945092839250908401908083835b6020831061209d5780518252601f19909201916020918201910161207e565b51815160209384036101000a60001901801990921691161790526040805192909401829003822063ffffffff881660e060020a0283526004830152925160248083019650939450929083900301905081600087803b1580156120fe57600080fd5b505af1158015612112573d6000803e3d6000fd5b505050506040513d602081101561212857600080fd5b50516020828101919091526040805160608101825260238082527f636173682d696e2e6170706c69636174696f6e2e616464726573733a616464728285019081527f6573730000000000000000000000000000000000000000000000000000000000838501529251600160a060020a03881694634c77e5ba94889392909101918291908083835b602083106121ce5780518252601f1990920191602091820191016121af565b51815160209384036101000a600019018019909216911617905292019384525060408051808503815293820190819052835193945092839250908401908083835b6020831061222e5780518252601f19909201916020918201910161220f565b51815160209384036101000a60001901801990921691161790526040805192909401829003822063ffffffff881660e060020a0283526004830152925160248083019650939450929083900301905081600087803b15801561228f57600080fd5b505af11580156122a3573d6000803e3d6000fd5b505050506040513d60208110156122b957600080fd5b5051600160a060020a03908116604080840191909152805180820182526016808252600080516020615cfe833981519152602083810191825293519488169463e82617fb94889391019182918083835b602083106123285780518252601f199092019160209182019101612309565b51815160209384036101000a600019018019909216911617905292019384525060408051808503815293820190819052835193945092839250908401908083835b602083106123885780518252601f199092019160209182019101612369565b51815160209384036101000a60001901801990921691161790526040805192909401829003822063ffffffff881660e060020a0283526004830152925160248083019650939450929083900301905081600087803b1580156123e957600080fd5b505af11580156123fd573d6000803e3d6000fd5b505050506040513d602081101561241357600080fd5b5051600581111561242057fe5b8160600190600581111561243057fe5b9081600581111561243d57fe5b90525092915050565b61244e615c66565b82600160a060020a031663e82617fb6040805190810160405280601f81526020017f636173682d696e2e6163636f756e742e62616c616e63653a75696e7432353600815250846040516020018083805190602001908083835b602083106124c65780518252601f1990920191602091820191016124a7565b51815160209384036101000a600019018019909216911617905292019384525060408051808503815293820190819052835193945092839250908401908083835b602083106125265780518252601f199092019160209182019101612507565b51815160209384036101000a60001901801990921691161790526040805192909401829003822063ffffffff881660e060020a0283526004830152925160248083019650939450929083900301905081600087803b15801561258757600080fd5b505af115801561259b573d6000803e3d6000fd5b505050506040513d60208110156125b157600080fd5b505181526040805160608101825260238082527f636173682d696e2e6163636f756e742e6d61782d62616c616e63653a75696e74602083810191825260e960020a62191a9b02848601529351600160a060020a0388169463e82617fb94938893929091019182918083835b6020831061263b5780518252601f19909201916020918201910161261c565b51815160209384036101000a600019018019909216911617905292019384525060408051808503815293820190819052835193945092839250908401908083835b6020831061269b5780518252601f19909201916020918201910161267c565b51815160209384036101000a60001901801990921691161790526040805192909401829003822063ffffffff881660e060020a0283526004830152925160248083019650939450929083900301905081600087803b1580156126fc57600080fd5b505af1158015612710573d6000803e3d6000fd5b505050506040513d602081101561272657600080fd5b50516020828101919091526040805160608101825260238082527f636173682d696e2e6163636f756e742e6665652d70657263656e743a75696e7482850190815260e960020a62191a9b02838501529251600160a060020a0388169463e82617fb94889392909101918291908083835b602083106127b55780518252601f199092019160209182019101612796565b51815160209384036101000a600019018019909216911617905292019384525060408051808503815293820190819052835193945092839250908401908083835b602083106128155780518252601f1990920191602091820191016127f6565b51815160209384036101000a60001901801990921691161790526040805192909401829003822063ffffffff881660e060020a0283526004830152925160248083019650939450929083900301905081600087803b15801561287657600080fd5b505af115801561288a573d6000803e3d6000fd5b505050506040513d60208110156128a057600080fd5b505160408083019190915280518082018252601f8082527f636173682d696e2e6163636f756e742e7570646174653a66756e6374696f6e0060208381019182529351600160a060020a038816946377e645a294938893929091019182918083835b602083106129205780518252601f199092019160209182019101612901565b51815160209384036101000a600019018019909216911617905292019384525060408051808503815293820190819052835193945092839250908401908083835b602083106129805780518252601f199092019160209182019101612961565b51815160209384036101000a60001901801990921691161790526040805192909401829003822063ffffffff881660e060020a0283526004830152925160248083019650939450929083900301905081600087803b1580156129e157600080fd5b505af11580156129f5573d6000803e3d6000fd5b505050506040513d6020811015612a0b57600080fd5b5051640100000000606060020a82040263ffffffff604060020a92839004161702606082015292915050565b600082820183811015612a4957600080fd5b9392505050565b82600160a060020a031663ffb4f6236040805190810160405280601f81526020017f636173682d696e2e6163636f756e742e62616c616e63653a75696e7432353600815250846040516020018083805190602001908083835b60208310612ac85780518252601f199092019160209182019101612aa9565b51815160209384036101000a600019018019909216911617905292019384525060408051808503815293820190819052835193945092839250908401908083835b60208310612b285780518252601f199092019160209182019101612b09565b5181516020939093036101000a60001901801990911692169190911790526040805191909301819003812063ffffffff871660e060020a028252600482015260248101889052915160448084019550600094509092839003019050818387803b158015612b9457600080fd5b505af1158015612ba8573d6000803e3d6000fd5b50505050505050565b612bb9615c8d565b82600160a060020a031663e82617fb6040805190810160405280601f81526020017f636173682d696e2e6f70656e2e73657373696f6e2e69643a75696e7432353600815250846040516020018083805190602001908083835b60208310612c315780518252601f199092019160209182019101612c12565b51815160209384036101000a600019018019909216911617905292019384525060408051808503815293820190819052835193945092839250908401908083835b60208310612c915780518252601f199092019160209182019101612c72565b51815160209384036101000a60001901801990921691161790526040805192909401829003822063ffffffff881660e060020a0283526004830152925160248083019650939450929083900301905081600087803b158015612cf257600080fd5b505af1158015612d06573d6000803e3d6000fd5b505050506040513d6020811015612d1c57600080fd5b50518152604080518082018252601f8082527f636173682d696e2e6f70656e2e6d61782d616d6f756e743a75696e743235360060208381019182529351600160a060020a0388169463e82617fb94938893929091019182918083835b60208310612d975780518252601f199092019160209182019101612d78565b51815160209384036101000a600019018019909216911617905292019384525060408051808503815293820190819052835193945092839250908401908083835b60208310612df75780518252601f199092019160209182019101612dd8565b51815160209384036101000a60001901801990921691161790526040805192909401829003822063ffffffff881660e060020a0283526004830152925160248083019650939450929083900301905081600087803b158015612e5857600080fd5b505af1158015612e6c573d6000803e3d6000fd5b505050506040513d6020811015612e8257600080fd5b5051602082810191909152604080518082018252601d8082527f636173682d696e2e6f70656e2e737563636573733a66756e6374696f6e0000008285019081529251600160a060020a038816946350ca291d94889392909101918291908083835b60208310612f025780518252601f199092019160209182019101612ee3565b51815160209384036101000a600019018019909216911617905292019384525060408051808503815293820190819052835193945092839250908401908083835b60208310612f625780518252601f199092019160209182019101612f43565b51815160209384036101000a60001901801990921691161790526040805192909401829003822063ffffffff881660e060020a0283526004830152925160248083019650939450929083900301905081600087803b158015612fc357600080fd5b505af1158015612fd7573d6000803e3d6000fd5b505050506040513d6020811015612fed57600080fd5b5051640100000000606060020a82040263ffffffff604060020a9283900416170260408083019190915280518082018252601c8082527f636173682d696e2e6f70656e2e7570646174653a66756e6374696f6e0000000060208381019182529351600160a060020a038816946377e645a294938893929091019182918083835b6020831061308c5780518252601f19909201916020918201910161306d565b51815160209384036101000a600019018019909216911617905292019384525060408051808503815293820190819052835193945092839250908401908083835b602083106130ec5780518252601f1990920191602091820191016130cd565b51815160209384036101000a60001901801990921691161790526040805192909401829003822063ffffffff881660e060020a0283526004830152925160248083019650939450929083900301905081600087803b15801561314d57600080fd5b505af1158015613161573d6000803e3d6000fd5b505050506040513d602081101561317757600080fd5b5051640100000000606060020a82040263ffffffff604060020a928390041617026060820152604080518082018252601a8082527f636173682d696e2e6f70656e2e6661696c3a66756e6374696f6e00000000000060208381019182529351600160a060020a0388169463f8b98ab194938893929091019182918083835b602083106132145780518252601f1990920191602091820191016131f5565b51815160209384036101000a600019018019909216911617905292019384525060408051808503815293820190819052835193945092839250908401908083835b602083106132745780518252601f199092019160209182019101613255565b51815160209384036101000a60001901801990921691161790526040805192909401829003822063ffffffff881660e060020a0283526004830152925160248083019650939450929083900301905081600087803b1580156132d557600080fd5b505af11580156132e9573d6000803e3d6000fd5b505050506040513d60208110156132ff57600080fd5b5051640100000000606060020a82040263ffffffff604060020a92839004161702608082015292915050565b6000805b83600160a060020a031663e82617fb604080519081016040528060168152602001600080516020615cfe833981519152815250856040516020018083805190602001908083835b602083106133955780518252601f199092019160209182019101613376565b51815160209384036101000a600019018019909216911617905292019384525060408051808503815293820190819052835193945092839250908401908083835b602083106133f55780518252601f1990920191602091820191016133d6565b51815160209384036101000a60001901801990921691161790526040805192909401829003822063ffffffff881660e060020a0283526004830152925160248083019650939450929083900301905081600087803b15801561345657600080fd5b505af115801561346a573d6000803e3d6000fd5b505050506040513d602081101561348057600080fd5b5051600581111561348d57fe5b600581111561349857fe5b149392505050565b85600160a060020a031663ffb4f623606060405190810160405280602381526020017f636173682d696e2e6163636f756e742e6d61782d62616c616e63653a75696e74815260200160e960020a62191a9b02815250876040516020018083805190602001908083835b602083106135285780518252601f199092019160209182019101613509565b51815160209384036101000a600019018019909216911617905292019384525060408051808503815293820190819052835193945092839250908401908083835b602083106135885780518252601f199092019160209182019101613569565b5181516020939093036101000a60001901801990911692169190911790526040805191909301819003812063ffffffff871660e060020a0282526004820152602481018b9052915160448084019550600094509092839003019050818387803b1580156135f457600080fd5b505af1158015613608573d6000803e3d6000fd5b5050505085600160a060020a031663ffb4f623606060405190810160405280602381526020017f636173682d696e2e6163636f756e742e6665652d70657263656e743a75696e74815260200160e960020a62191a9b02815250876040516020018083805190602001908083835b602083106136945780518252601f199092019160209182019101613675565b51815160209384036101000a600019018019909216911617905292019384525060408051808503815293820190819052835193945092839250908401908083835b602083106136f45780518252601f1990920191602091820191016136d5565b5181516020939093036101000a60001901801990911692169190911790526040805191909301819003812063ffffffff871660e060020a0282526004820152602481018a9052915160448084019550600094509092839003019050818387803b15801561376057600080fd5b505af1158015613774573d6000803e3d6000fd5b5050505085600160a060020a0316630615444a6040805190810160405280601f81526020017f636173682d696e2e6163636f756e742e7570646174653a66756e6374696f6e00815250876040516020018083805190602001908083835b602083106137f05780518252601f1990920191602091820191016137d1565b51815160209384036101000a600019018019909216911617905292019384525060408051808503815293820190819052835193945092839250908401908083835b602083106138505780518252601f199092019160209182019101613831565b6001836020036101000a038019825116818451168082178552505050505050905001915050604051809103902084846040518463ffffffff1660e060020a028152600401808460001916600019168152602001838363ffffffff16906401000000000217604060020a0281526020019350505050600060405180830381600087803b1580156138de57600080fd5b505af11580156138f2573d6000803e3d6000fd5b50505050505050505050565b82600160a060020a031663ffb4f623604080519081016040528060168152602001600080516020615cfe833981519152815250846040516020018083805190602001908083835b602083106139645780518252601f199092019160209182019101613945565b51815160209384036101000a600019018019909216911617905292019384525060408051808503815293820190819052835193945092839250908401908083835b602083106139c45780518252601f1990920191602091820191016139a5565b6001836020036101000a03801982511681845116808217855250505050505090500191505060405180910390208360058111156139fd57fe5b6040518363ffffffff1660e060020a02815260040180836000191660001916815260200182815260200192505050600060405180830381600087803b158015612b9457600080fd5b6000816005811115613a5357fe5b84600160a060020a031663e82617fb604080519081016040528060168152602001600080516020615cfe833981519152815250866040516020018083805190602001908083835b60208310613ab95780518252601f199092019160209182019101613a9a565b51815160209384036101000a600019018019909216911617905292019384525060408051808503815293820190819052835193945092839250908401908083835b60208310613b195780518252601f199092019160209182019101613afa565b51815160209384036101000a60001901801990921691161790526040805192909401829003822063ffffffff881660e060020a0283526004830152925160248083019650939450929083900301905081600087803b158015613b7a57600080fd5b505af1158015613b8e573d6000803e3d6000fd5b505050506040513d6020811015613ba457600080fd5b50516005811115613bb157fe5b6005811115613bbc57fe5b14949350505050565b613bcd615cbb565b82600160a060020a031663e82617fb6040805190810160405280602081526020017f636173682d696e2e636c6f73652e73657373696f6e2e69643a75696e74323536815250846040516020018083805190602001908083835b60208310613c455780518252601f199092019160209182019101613c26565b51815160209384036101000a600019018019909216911617905292019384525060408051808503815293820190819052835193945092839250908401908083835b60208310613ca55780518252601f199092019160209182019101613c86565b51815160209384036101000a60001901801990921691161790526040805192909401829003822063ffffffff881660e060020a0283526004830152925160248083019650939450929083900301905081600087803b158015613d0657600080fd5b505af1158015613d1a573d6000803e3d6000fd5b505050506040513d6020811015613d3057600080fd5b50518152604080518082018252601e8082527f636173682d696e2e636c6f73652e737563636573733a66756e6374696f6e000060208381019182529351600160a060020a038816946350ca291d94938893929091019182918083835b60208310613dab5780518252601f199092019160209182019101613d8c565b51815160209384036101000a600019018019909216911617905292019384525060408051808503815293820190819052835193945092839250908401908083835b60208310613e0b5780518252601f199092019160209182019101613dec565b51815160209384036101000a60001901801990921691161790526040805192909401829003822063ffffffff881660e060020a0283526004830152925160248083019650939450929083900301905081600087803b158015613e6c57600080fd5b505af1158015613e80573d6000803e3d6000fd5b505050506040513d6020811015613e9657600080fd5b5051640100000000606060020a82040263ffffffff604060020a92839004161702602082810191909152604080518082018252601b8082527f636173682d696e2e636c6f73652e6661696c3a66756e6374696f6e00000000008285019081529251600160a060020a038816946350ca291d94889392909101918291908083835b60208310613f355780518252601f199092019160209182019101613f16565b51815160209384036101000a600019018019909216911617905292019384525060408051808503815293820190819052835193945092839250908401908083835b60208310613f955780518252601f199092019160209182019101613f76565b51815160209384036101000a60001901801990921691161790526040805192909401829003822063ffffffff881660e060020a0283526004830152925160248083019650939450929083900301905081600087803b158015613ff657600080fd5b505af115801561400a573d6000803e3d6000fd5b505050506040513d602081101561402057600080fd5b5051640100000000606060020a82040263ffffffff604060020a92839004161702604082015292915050565b614054615cdb565b600083600160a060020a031663e82617fb6040805190810160405280601a81526020017f636173682d696e2e73706c69742e73697a653a75696e74323536000000000000815250856040516020018083805190602001908083835b602083106140ce5780518252601f1990920191602091820191016140af565b51815160209384036101000a600019018019909216911617905292019384525060408051808503815293820190819052835193945092839250908401908083835b6020831061412e5780518252601f19909201916020918201910161410f565b51815160209384036101000a60001901801990921691161790526040805192909401829003822063ffffffff881660e060020a0283526004830152925160248083019650939450929083900301905081600087803b15801561418f57600080fd5b505af11580156141a3573d6000803e3d6000fd5b505050506040513d60208110156141b957600080fd5b505182525060005b815181101561058f5783600160a060020a031663e82617fb6040805190810160405280601981526020017f636173682d696e2e73706c69742e6665653a75696e743235360000000000000081525085846040516020018084805190602001908083835b602083106142435780518252601f199092019160209182019101614224565b51815160209384036101000a6000190180199092169116179052920194855250838101929092525060408051808403830181529281019081905282519293509182918401908083835b602083106142ab5780518252601f19909201916020918201910161428c565b51815160209384036101000a60001901801990921691161790526040805192909401829003822063ffffffff881660e060020a0283526004830152925160248083019650939450929083900301905081600087803b15801561430c57600080fd5b505af1158015614320573d6000803e3d6000fd5b505050506040513d602081101561433657600080fd5b5051602083015180518390811061434957fe5b906020019060200201818152505083600160a060020a0316634c77e5ba6040805190810160405280601b81526020017f636173682d696e2e73706c69742e70617274793a61646472657373000000000081525085846040516020018084805190602001908083835b602083106143d05780518252601f1990920191602091820191016143b1565b51815160209384036101000a6000190180199092169116179052920194855250838101929092525060408051808403830181529281019081905282519293509182918401908083835b602083106144385780518252601f199092019160209182019101614419565b51815160209384036101000a60001901801990921691161790526040805192909401829003822063ffffffff881660e060020a0283526004830152925160248083019650939450929083900301905081600087803b15801561449957600080fd5b505af11580156144ad573d6000803e3d6000fd5b505050506040513d60208110156144c357600080fd5b505160408301518051839081106144d657fe5b600160a060020a039092166020928302909101909101526001016141c1565b600080831515614508576000915061058f565b5082820282848281151561451857fe5b0414612a4957600080fd5b60008080831161453257600080fd5b828481151561453d57fe5b04949350505050565b6000805b82518110156145855761457b838281518110151561456457fe5b60209081029091010151839063ffffffff612a3716565b915060010161454a565b50919050565b6000808383111561459b57600080fd5b5050900390565b6145aa615c41565b6003546145c690600160a060020a03168363ffffffff611fbb16565b6003549091506145e590600160a060020a03168363ffffffff615c3816565b151561463b576040805160e560020a62461bcd02815260206004820152601560248201527f636173682d696e206973206e6f74206163746976650000000000000000000000604482015290519081900360640190fd5b83600160a060020a03168160400151600160a060020a03161415156146aa576040805160e560020a62461bcd02815260206004820152600e60248201527f696c6c6567616c20616363657373000000000000000000000000000000000000604482015290519081900360640190fd5b60208101518314614705576040805160e560020a62461bcd02815260206004820152600e60248201527f696c6c6567616c20616363657373000000000000000000000000000000000000604482015290519081900360640190fd5b50505050565b600084600160a060020a031663ffb4f6236040805190810160405280601a81526020017f636173682d696e2e73706c69742e73697a653a75696e74323536000000000000815250866040516020018083805190602001908083835b602083106147855780518252601f199092019160209182019101614766565b51815160209384036101000a600019018019909216911617905292019384525060408051808503815293820190819052835193945092839250908401908083835b602083106147e55780518252601f1990920191602091820191016147c6565b5181516020939093036101000a6000190180199091169216919091179052604080519190930181900381208a5163ffffffff881660e060020a02835260048301919091526024820152915160448084019550600094509092839003019050818387803b15801561485457600080fd5b505af1158015614868573d6000803e3d6000fd5b50505050600090505b8251811015614b965784600160a060020a031663ffb4f6236040805190810160405280601981526020017f636173682d696e2e73706c69742e6665653a75696e743235360000000000000081525086846040516020018084805190602001908083835b602083106148f35780518252601f1990920191602091820191016148d4565b51815160209384036101000a6000190180199092169116179052920194855250838101929092525060408051808403830181529281019081905282519293509182918401908083835b6020831061495b5780518252601f19909201916020918201910161493c565b6001836020036101000a0380198251168184511680821785525050505050509050019150506040518091039020858481518110151561499657fe5b906020019060200201516040518363ffffffff1660e060020a02815260040180836000191660001916815260200182815260200192505050600060405180830381600087803b1580156149e857600080fd5b505af11580156149fc573d6000803e3d6000fd5b5050505084600160a060020a0316635a2bf25a6040805190810160405280601b81526020017f636173682d696e2e73706c69742e70617274793a61646472657373000000000081525086846040516020018084805190602001908083835b60208310614a795780518252601f199092019160209182019101614a5a565b51815160209384036101000a6000190180199092169116179052920194855250838101929092525060408051808403830181529281019081905282519293509182918401908083835b60208310614ae15780518252601f199092019160209182019101614ac2565b6001836020036101000a03801982511681845116808217855250505050505090500191505060405180910390208484815181101515614b1c57fe5b602090810290910101516040805160e060020a63ffffffff86160281526004810193909352600160a060020a03909116602483015251604480830192600092919082900301818387803b158015614b7257600080fd5b505af1158015614b86573d6000803e3d6000fd5b5050600190920191506148719050565b5050505050565b86600160a060020a031663ffb4f6236040805190810160405280602081526020017f636173682d696e2e636c6f73652e73657373696f6e2e69643a75696e74323536815250886040516020018083805190602001908083835b60208310614c155780518252601f199092019160209182019101614bf6565b51815160209384036101000a600019018019909216911617905292019384525060408051808503815293820190819052835193945092839250908401908083835b60208310614c755780518252601f199092019160209182019101614c56565b5181516020939093036101000a60001901801990911692169190911790526040805191909301819003812063ffffffff871660e060020a0282526004820152602481018c9052915160448084019550600094509092839003019050818387803b158015614ce157600080fd5b505af1158015614cf5573d6000803e3d6000fd5b5050505086600160a060020a0316639107f7456040805190810160405280601e81526020017f636173682d696e2e636c6f73652e737563636573733a66756e6374696f6e0000815250886040516020018083805190602001908083835b60208310614d715780518252601f199092019160209182019101614d52565b51815160209384036101000a600019018019909216911617905292019384525060408051808503815293820190819052835193945092839250908401908083835b60208310614dd15780518252601f199092019160209182019101614db2565b6001836020036101000a038019825116818451168082178552505050505050905001915050604051809103902086866040518463ffffffff1660e060020a028152600401808460001916600019168152602001838363ffffffff16906401000000000217604060020a0281526020019350505050600060405180830381600087803b158015614e5f57600080fd5b505af1158015614e73573d6000803e3d6000fd5b5050505086600160a060020a0316639107f7456040805190810160405280601b81526020017f636173682d696e2e636c6f73652e6661696c3a66756e6374696f6e0000000000815250886040516020018083805190602001908083835b60208310614eef5780518252601f199092019160209182019101614ed0565b51815160209384036101000a600019018019909216911617905292019384525060408051808503815293820190819052835193945092839250908401908083835b60208310614f4f5780518252601f199092019160209182019101614f30565b6001836020036101000a038019825116818451168082178552505050505050905001915050604051809103902084846040518463ffffffff1660e060020a028152600401808460001916600019168152602001838363ffffffff16906401000000000217604060020a0281526020019350505050600060405180830381600087803b158015614fdd57600080fd5b505af1158015614ff1573d6000803e3d6000fd5b5050505050505050505050565b600083600160a060020a031663e82617fb60405160200180806020018281038252600b8152602001807f43617368496e496e6465780000000000000000000000000000000000000000008152506020019150506040516020818303038152906040526040518082805190602001908083835b6020831061508f5780518252601f199092019160209182019101615070565b51815160209384036101000a60001901801990921691161790526040805192909401829003822063ffffffff881660e060020a0283526004830152925160248083019650939450929083900301905081600087803b1580156150f057600080fd5b505af1158015615104573d6000803e3d6000fd5b505050506040513d602081101561511a57600080fd5b5051604080518082018252601a8082527f636173682d696e2e73657373696f6e2e69643a75696e7432353600000000000060208381019182529351949550600160a060020a0389169463ffb4f62394879391019182918083835b602083106151935780518252601f199092019160209182019101615174565b51815160209384036101000a600019018019909216911617905292019384525060408051808503815293820190819052835193945092839250908401908083835b602083106151f35780518252601f1990920191602091820191016151d4565b5181516020939093036101000a60001901801990911692169190911790526040805191909301819003812063ffffffff871660e060020a0282526004820152602481018a9052915160448084019550600094509092839003019050818387803b15801561525f57600080fd5b505af1158015615273573d6000803e3d6000fd5b5050505083600160a060020a0316635a2bf25a606060405190810160405280602381526020017f636173682d696e2e6170706c69636174696f6e2e616464726573733a6164647281526020017f6573730000000000000000000000000000000000000000000000000000000000815250836040516020018083805190602001908083835b602083106153165780518252601f1990920191602091820191016152f7565b51815160209384036101000a600019018019909216911617905292019384525060408051808503815293820190819052835193945092839250908401908083835b602083106153765780518252601f199092019160209182019101615357565b5181516020939093036101000a60001901801990911692169190911790526040805191909301819003812063ffffffff871660e060020a0282526004820152600160a060020a0389166024820152915160448084019550600094509092839003019050818387803b1580156153ea57600080fd5b505af11580156153fe573d6000803e3d6000fd5b5050505083600160a060020a031663ffb4f62360405160200180806020018281038252600b8152602001807f43617368496e496e6465780000000000000000000000000000000000000000008152506020019150506040516020818303038152906040526040518082805190602001908083835b602083106154915780518252601f199092019160209182019101615472565b5181516020939093036101000a60001901801990911692169190911790526040805191909301819003812063ffffffff871660e060020a0282526004820152600188016024820152915160448084019550600094509092839003019050818387803b1580156154ff57600080fd5b505af1158015615513573d6000803e3d6000fd5b505050509392505050565b89600160a060020a031663ffb4f6236040805190810160405280601f81526020017f636173682d696e2e6f70656e2e73657373696f6e2e69643a75696e74323536008152508b6040516020018083805190602001908083835b602083106155965780518252601f199092019160209182019101615577565b51815160209384036101000a600019018019909216911617905292019384525060408051808503815293820190819052835193945092839250908401908083835b602083106155f65780518252601f1990920191602091820191016155d7565b5181516020939093036101000a60001901801990911692169190911790526040805191909301819003812063ffffffff871660e060020a0282526004820152602481018f9052915160448084019550600094509092839003019050818387803b15801561566257600080fd5b505af1158015615676573d6000803e3d6000fd5b5050505089600160a060020a031663ffb4f6236040805190810160405280601f81526020017f636173682d696e2e6f70656e2e6d61782d616d6f756e743a75696e74323536008152508b6040516020018083805190602001908083835b602083106156f25780518252601f1990920191602091820191016156d3565b51815160209384036101000a600019018019909216911617905292019384525060408051808503815293820190819052835193945092839250908401908083835b602083106157525780518252601f199092019160209182019101615733565b5181516020939093036101000a60001901801990911692169190911790526040805191909301819003812063ffffffff871660e060020a0282526004820152602481018e9052915160448084019550600094509092839003019050818387803b1580156157be57600080fd5b505af11580156157d2573d6000803e3d6000fd5b5050505089600160a060020a0316639107f7456040805190810160405280601d81526020017f636173682d696e2e6f70656e2e737563636573733a66756e6374696f6e0000008152508b6040516020018083805190602001908083835b6020831061584e5780518252601f19909201916020918201910161582f565b51815160209384036101000a600019018019909216911617905292019384525060408051808503815293820190819052835193945092839250908401908083835b602083106158ae5780518252601f19909201916020918201910161588f565b6001836020036101000a038019825116818451168082178552505050505050905001915050604051809103902088886040518463ffffffff1660e060020a028152600401808460001916600019168152602001838363ffffffff16906401000000000217604060020a0281526020019350505050600060405180830381600087803b15801561593c57600080fd5b505af1158015615950573d6000803e3d6000fd5b5050505089600160a060020a0316630615444a6040805190810160405280601c81526020017f636173682d696e2e6f70656e2e7570646174653a66756e6374696f6e000000008152508b6040516020018083805190602001908083835b602083106159cc5780518252601f1990920191602091820191016159ad565b51815160209384036101000a600019018019909216911617905292019384525060408051808503815293820190819052835193945092839250908401908083835b60208310615a2c5780518252601f199092019160209182019101615a0d565b6001836020036101000a038019825116818451168082178552505050505050905001915050604051809103902086866040518463ffffffff1660e060020a028152600401808460001916600019168152602001838363ffffffff16906401000000000217604060020a0281526020019350505050600060405180830381600087803b158015615aba57600080fd5b505af1158015615ace573d6000803e3d6000fd5b5050505089600160a060020a0316634c0a4ced6040805190810160405280601a81526020017f636173682d696e2e6f70656e2e6661696c3a66756e6374696f6e0000000000008152508b6040516020018083805190602001908083835b60208310615b4a5780518252601f199092019160209182019101615b2b565b51815160209384036101000a600019018019909216911617905292019384525060408051808503815293820190819052835193945092839250908401908083835b60208310615baa5780518252601f199092019160209182019101615b8b565b6001836020036101000a038019825116818451168082178552505050505050905001915050604051809103902084846040518463ffffffff1660e060020a028152600401808460001916600019168152602001838363ffffffff16906401000000000217604060020a0281526020019350505050600060405180830381600087803b1580156118cc57600080fd5b6000600161332f565b6040805160808101825260008082526020820181905291810182905290606082015290565b60408051608081018252600080825260208201819052918101829052606081019190915290565b6040805160a08101825260008082526020820181905291810182905260608101829052608081019190915290565b604080516060810182526000808252602082018190529181019190915290565b60606040519081016040528060008152602001606081526020016060815250905600636173682d696e2e7374617475733a75696e7432353600000000000000000000a165627a7a72305820da699855b7f65c684a5d4c2967aa1d89e5003385be4ac9d6c9a1f60a7f009cb80029",
  "source": "pragma solidity 0.4.24;\n\nimport \"./Managers.sol\";\nimport \"../Platform.sol\";\nimport \"../libs/Libraries.sol\";\nimport \"../storages/Storages.sol\";\nimport {ACashInOracle} from \"../oracles/Oracles.sol\";\nimport {ACashInController} from \"../controllers/Controllers.sol\";\n\ncontract CashChannelsManager is ACashChannelsManager, Named(\"cash-channels-manager\"), Mortal, Component {\n\n    using SafeMath for uint256;\n    using CashInLib for address;\n\n    string constant CASH_IN_STORAGE = \"cash-in-storage\";\n    string constant SESSION_STORAGE = \"session-storage\";\n    string constant APPLICATION_STORAGE = \"application-storage\";\n    string constant PARAMETER_MANAGER = \"parameter-manager\";\n    string constant SESSION_MANAGER = \"session-manager\";\n    string constant TOKEN_MANAGER = \"token-manager\";\n    string constant ORACLE = \"cash-in-oracle\";\n\n    string constant CONTROLLER = \"cash-in-controller\";\n\n    constructor(address _config) Component(_config) public {}\n\n    //TODO: can not deploy contract: OUT OF GAS\n    function openCashInChannel(\n        address _application,\n        uint256 _sessionId,\n        uint256 _maxBalance,\n        function(uint256, uint256) external _success,\n        function(uint256, uint256, uint256) external _update,\n        function(uint256) external _fail\n    )\n        public\n        returns (bool _accepted)\n    {\n        require(\n            ASessionManager(context.get(SESSION_MANAGER)).validateCanOpenCashIn(_sessionId, _application),\n            \"cash in can not be opened\"\n        );\n        uint256 cashInId = database.createCashIn(_sessionId, _application);\n        database.createCashInOpen(cashInId, _sessionId, _maxBalance, _success, _update, _fail);\n        _accepted = ACashInOracle(context.get(ORACLE)).onNextOpenCashIn(cashInId);\n    }\n\n    function confirmOpen(uint256 _commandId) public {\n        CashInLib.Open memory command = database.retrieveCashInOpen(_commandId);\n        require(database.cashInIsCreating(_commandId), \"cash in must be in CREATING state\");\n        database.createCashInAccount(\n            _commandId,\n            command.maxBalance,\n            AParameterManager(context.get(PARAMETER_MANAGER)).getVLFee(),\n            command.update\n        );\n        database.setCashInStatus(_commandId, CashInLib.Status.ACTIVE);\n        ASessionManager(context.get(SESSION_MANAGER)).setSessionHasActiveCashIn(command.sessionId);\n        ACashInController(context.get(CONTROLLER)).respondOpened(command.sessionId, _commandId, command.success);\n    }\n\n    function updateCashInBalance(uint256 _channelId, uint256 _amount) public {\n        require(msg.sender == context.get(ORACLE), \"only oracle allowed\");\n        CashInLib.CashIn memory cashIn = database.retrieveCashIn(_channelId);\n        CashInLib.Account memory account = database.retrieveCashInAccount(_channelId);\n        require(account.balance.add(_amount) <= account.maxBalance, \"cash-in balance overflow\");\n        database.setCashInAccountBalance(_channelId, account.balance.add(_amount));\n        ACashInController(context.get(CONTROLLER)).respondUpdate(cashIn.sessionId, cashIn.id, _amount, account.update);\n    }\n\n    function closeCashInChannel(\n        address _application,\n        uint256 _sessionId,\n        uint256 _channelId,\n        uint256[] _fees,\n        address[] _parties,\n        function(uint256, uint256) external _success,\n        function(uint256, uint256) external _fail\n    )\n        public\n        returns (bool _accepted)\n    {\n        _validateCanBeClosed(_application, _sessionId, _channelId);\n        CashInLib.Account memory account = database.retrieveCashInAccount(_channelId);\n        uint256 vaultLogicFee = account.balance.mul(account.fee).div(10000);\n        uint256 feesAmount = _sumOf(_fees);\n        require(feesAmount.add(vaultLogicFee) <= account.balance, \"Channel balance overflow\");\n        database.createCashInSplit(_channelId, _fees, _parties);\n        database.setCashInStatus(_channelId, CashInLib.Status.CLOSE_REQUESTED);\n        database.createCashInClose(_channelId, _sessionId, _success, _fail);\n        _accepted = ACashInOracle(context.get(ORACLE)).onNextCloseCashIn(_channelId);\n    }\n\n    function _validateCanBeClosed(address _application, uint256 _sessionId, uint256 _cashInId) private view {\n        CashInLib.CashIn memory cashIn = database.retrieveCashIn(_cashInId);\n        require(database.cashInIsActive(_cashInId), \"cash-in is not active\");\n        require(cashIn.application == _application, \"illegal access\");\n        require(cashIn.sessionId == _sessionId, \"illegal access\");\n    }\n\n    function balanceOf(address _application, uint256 _channelId) public view returns (uint256) {\n        ACashInStorage cashInStorage = ACashInStorage(context.get(CASH_IN_STORAGE));\n        require(cashInStorage.getApplication(_channelId) == _application, \"Illegal access\");\n        return cashInStorage.getBalance(_channelId);\n    }\n\n    function _sumOf(uint256[] _elements) private pure returns (uint256 _sum) {\n        for (uint256 i = 0; i < _elements.length; i++) _sum = _sum.add(_elements[i]);\n    }\n\n    function confirmClose(uint256 _commandId) public {\n        require(database.cashInInStatus(_commandId, CashInLib.Status.CLOSE_REQUESTED), \"cash-in must be CLOSE_REQUESTED\");\n        CashInLib.CashIn memory cashIn = database.retrieveCashIn(_commandId);\n        CashInLib.Close memory command = database.retrieveCashInClose(_commandId);\n        CashInLib.Account memory account = database.retrieveCashInAccount(_commandId);\n        CashInLib.Split memory split = database.retrieveCashInSplit(_commandId);\n        ATokenManager tokenManager = ATokenManager(context.get(TOKEN_MANAGER));\n        uint256 vaultLogicFee = account.balance.mul(account.fee).div(10000);\n        if (split.size > 0) {\n            uint256 sumOfSplitFees = _sumOf(split.fees);\n            uint256 applicationBalance = account.balance.sub(vaultLogicFee).sub(sumOfSplitFees);\n            tokenManager.transfer(cashIn.application, applicationBalance);\n            for (uint256 i = 0; i < split.size; i++) tokenManager.transfer(split.parties[i], split.fees[i]);\n        } else {\n            tokenManager.transfer(cashIn.application, account.balance.sub(vaultLogicFee));\n        }\n        tokenManager.transfer(owner, vaultLogicFee);\n        database.setCashInStatus(_commandId, CashInLib.Status.CLOSED);\n        ASessionManager(context.get(SESSION_MANAGER)).setSessionIsNotHasActiveCashIn(command.sessionId);\n        ACashInController(context.get(CONTROLLER)).respondClosed(command.sessionId, _commandId, command.success);\n    }\n\n}",
  "sourcePath": "/home/andrew/vault-logic-project/Development/test/vault-logic-api/truffle/contracts/managers/CashChannelsManager.sol",
  "compiler": {
    "name": "solc",
    "version": "0.4.24+commit.e67f0147.Emscripten.clang"
  },
  "schemaVersion": "2.0.1",
  "updatedAt": "2018-10-23T12:02:42.451Z"
}