{
  "contractName": "CashOutStorage",
  "abi": [
    {
      "constant": true,
      "inputs": [],
      "name": "name",
      "outputs": [
        {
          "name": "",
          "type": "string"
        }
      ],
      "payable": false,
      "stateMutability": "view",
      "type": "function"
    },
    {
      "constant": false,
      "inputs": [],
      "name": "kill",
      "outputs": [],
      "payable": false,
      "stateMutability": "nonpayable",
      "type": "function"
    },
    {
      "constant": true,
      "inputs": [],
      "name": "owner",
      "outputs": [
        {
          "name": "",
          "type": "address"
        }
      ],
      "payable": false,
      "stateMutability": "view",
      "type": "function"
    },
    {
      "inputs": [
        {
          "name": "_config",
          "type": "address"
        }
      ],
      "payable": false,
      "stateMutability": "nonpayable",
      "type": "constructor"
    },
    {
      "constant": false,
      "inputs": [
        {
          "name": "_application",
          "type": "address"
        }
      ],
      "name": "createCashOut",
      "outputs": [
        {
          "name": "_cashOutId",
          "type": "uint256"
        }
      ],
      "payable": false,
      "stateMutability": "nonpayable",
      "type": "function"
    },
    {
      "constant": false,
      "inputs": [
        {
          "name": "_cashOutId",
          "type": "uint256"
        },
        {
          "name": "_requestId",
          "type": "string"
        },
        {
          "name": "_kioskId",
          "type": "string"
        },
        {
          "name": "_fail",
          "type": "function"
        },
        {
          "name": "_success",
          "type": "function"
        }
      ],
      "name": "createOpen",
      "outputs": [],
      "payable": false,
      "stateMutability": "nonpayable",
      "type": "function"
    },
    {
      "constant": false,
      "inputs": [
        {
          "name": "_cashOutId",
          "type": "uint256"
        },
        {
          "name": "_toWithdraw",
          "type": "uint256"
        },
        {
          "name": "_VLFee",
          "type": "uint256"
        },
        {
          "name": "_reserve",
          "type": "uint256"
        },
        {
          "name": "_fees",
          "type": "uint256[]"
        },
        {
          "name": "_parties",
          "type": "address[]"
        }
      ],
      "name": "createAccount",
      "outputs": [],
      "payable": false,
      "stateMutability": "nonpayable",
      "type": "function"
    },
    {
      "constant": false,
      "inputs": [
        {
          "name": "_cashOutId",
          "type": "uint256"
        },
        {
          "name": "_sessionId",
          "type": "uint256"
        },
        {
          "name": "_fail",
          "type": "function"
        },
        {
          "name": "_success",
          "type": "function"
        }
      ],
      "name": "createValidate",
      "outputs": [],
      "payable": false,
      "stateMutability": "nonpayable",
      "type": "function"
    },
    {
      "constant": false,
      "inputs": [
        {
          "name": "_cashOutId",
          "type": "uint256"
        },
        {
          "name": "_sessionId",
          "type": "uint256"
        },
        {
          "name": "_fail",
          "type": "function"
        },
        {
          "name": "_success",
          "type": "function"
        }
      ],
      "name": "createClose",
      "outputs": [],
      "payable": false,
      "stateMutability": "nonpayable",
      "type": "function"
    },
    {
      "constant": false,
      "inputs": [
        {
          "name": "_cashOutId",
          "type": "uint256"
        },
        {
          "name": "_fail",
          "type": "function"
        },
        {
          "name": "_success",
          "type": "function"
        }
      ],
      "name": "createRollback",
      "outputs": [],
      "payable": false,
      "stateMutability": "nonpayable",
      "type": "function"
    },
    {
      "constant": true,
      "inputs": [
        {
          "name": "_cashOutId",
          "type": "uint256"
        }
      ],
      "name": "retrieveCashOut",
      "outputs": [
        {
          "name": "_application",
          "type": "address"
        },
        {
          "name": "_status",
          "type": "uint8"
        }
      ],
      "payable": false,
      "stateMutability": "view",
      "type": "function"
    },
    {
      "constant": true,
      "inputs": [
        {
          "name": "_cashOutId",
          "type": "uint256"
        }
      ],
      "name": "retrieveAccount",
      "outputs": [
        {
          "name": "_toWithdraw",
          "type": "uint256"
        },
        {
          "name": "_VLFee",
          "type": "uint256"
        },
        {
          "name": "_reserve",
          "type": "uint256"
        },
        {
          "name": "_fees",
          "type": "uint256[]"
        },
        {
          "name": "_parties",
          "type": "address[]"
        }
      ],
      "payable": false,
      "stateMutability": "view",
      "type": "function"
    },
    {
      "constant": true,
      "inputs": [
        {
          "name": "_cashOutId",
          "type": "uint256"
        }
      ],
      "name": "retrieveOpen",
      "outputs": [
        {
          "name": "_requestId",
          "type": "string"
        },
        {
          "name": "_kioskId",
          "type": "string"
        },
        {
          "name": "_fail",
          "type": "function"
        },
        {
          "name": "_success",
          "type": "function"
        }
      ],
      "payable": false,
      "stateMutability": "view",
      "type": "function"
    },
    {
      "constant": true,
      "inputs": [
        {
          "name": "_cashOutId",
          "type": "uint256"
        }
      ],
      "name": "retrieveValidate",
      "outputs": [
        {
          "name": "_sessionId",
          "type": "uint256"
        },
        {
          "name": "_fail",
          "type": "function"
        },
        {
          "name": "_success",
          "type": "function"
        }
      ],
      "payable": false,
      "stateMutability": "view",
      "type": "function"
    },
    {
      "constant": true,
      "inputs": [
        {
          "name": "_cashOutId",
          "type": "uint256"
        }
      ],
      "name": "retrieveClose",
      "outputs": [
        {
          "name": "_sessionId",
          "type": "uint256"
        },
        {
          "name": "_fail",
          "type": "function"
        },
        {
          "name": "_success",
          "type": "function"
        }
      ],
      "payable": false,
      "stateMutability": "view",
      "type": "function"
    },
    {
      "constant": true,
      "inputs": [
        {
          "name": "_cashOutId",
          "type": "uint256"
        }
      ],
      "name": "retrieveRollback",
      "outputs": [
        {
          "name": "_fail",
          "type": "function"
        },
        {
          "name": "_success",
          "type": "function"
        }
      ],
      "payable": false,
      "stateMutability": "view",
      "type": "function"
    }
  ],
  "bytecode": "0x60806040523480156200001157600080fd5b50604051602080620015dc833981016040818152915182820190925260108082527f636173682d6f75742d73746f72616765000000000000000000000000000000006020830190815260008054600160a060020a031916331790558392916200007d91600191620002b8565b505080600160a060020a031663713b563f6040518163ffffffff167c0100000000000000000000000000000000000000000000000000000000028152600401602060405180830381600087803b158015620000d757600080fd5b505af1158015620000ec573d6000803e3d6000fd5b505050506040513d60208110156200010357600080fd5b505160038054600160a060020a031916600160a060020a03928316179055604080517fd0496d6a00000000000000000000000000000000000000000000000000000000815290519183169163d0496d6a916004808201926020929091908290030181600087803b1580156200017757600080fd5b505af11580156200018c573d6000803e3d6000fd5b505050506040513d6020811015620001a357600080fd5b505160028054600160a060020a031916600160a060020a03928316178082556040517ff2c298be00000000000000000000000000000000000000000000000000000000815260206004820190815260018054610100818316150260001901169490940460248301819052929094169363f2c298be93929091829160449091019084908015620002765780601f106200024a5761010080835404028352916020019162000276565b820191906000526020600020905b8154815290600101906020018083116200025857829003601f168201915b505092505050600060405180830381600087803b1580156200029757600080fd5b505af1158015620002ac573d6000803e3d6000fd5b5050505050506200035d565b828054600181600116156101000203166002900490600052602060002090601f016020900481019282601f10620002fb57805160ff19168380011785556200032b565b828001600101855582156200032b579182015b828111156200032b5782518255916020019190600101906200030e565b50620003399291506200033d565b5090565b6200035a91905b8082111562000339576000815560010162000344565b90565b61126f806200036d6000396000f3006080604052600436106100da5763ffffffff7c010000000000000000000000000000000000000000000000000000000060003504166306fdde0381146100df57806309a9f7891461016957806311ac7c7c146101be5780631cd556591461020f57806322c53b3c146102e057806336b70c611461033c57806341c0e1b51461036f5780634918b33d146103845780636fc6974a146103d05780638073ed071461041f5780638da5cb5b146104bf5780639f7cf095146104f0578063c0f962ae1461053c578063c9d88c2414610602578063f9029bc31461073e575b600080fd5b3480156100eb57600080fd5b506100f4610756565b6040805160208082528351818301528351919283929083019185019080838360005b8381101561012e578181015183820152602001610116565b50505050905090810190601f16801561015b5780820380516001836020036101000a031916815260200191505b509250505060405180910390f35b34801561017557600080fd5b506101816004356107e3565b604080516801000000000000000064010000000096870263ffffffff96871617810282529390950291909316170260208301528051918290030190f35b3480156101ca57600080fd5b5061020d6004356024356c010000000000000000000000006044358181049163ffffffff6801000000000000000092839004811692606435928304920416610821565b005b34801561021b57600080fd5b5060408051602060046024803582810135601f810185900485028601850190965285855261020d95833595369560449491939091019190819084018382808284375050604080516020601f89358b018035918201839004830284018301909452808352979a999881019791965091820194509250829150840183828082843750949750506c010000000000000000000000008535818104975063ffffffff680100000000000000009182900481169760200135928304965091041692506108eb915050565b3480156102ec57600080fd5b506102f8600435610a08565b604080519586526801000000000000000064010000000095860263ffffffff9586161781026020880152929094029216919091170282820152519081900360600190f35b34801561034857600080fd5b5061035d600160a060020a0360043516610a4e565b60408051918252519081900360200190f35b34801561037b57600080fd5b5061020d610b10565b34801561039057600080fd5b5061039c600435610b8d565b604051600160a060020a0383168152602081018260088111156103bb57fe5b60ff1681526020019250505060405180910390f35b3480156103dc57600080fd5b5061020d6004356024356c010000000000000000000000006044358181049163ffffffff6801000000000000000092839004811692606435928304920416610be9565b34801561042b57600080fd5b50604080516020600460843581810135838102808601850190965280855261020d95833595602480359660443596606435963696919560a495949091019282919085019084908082843750506040805187358901803560208181028481018201909552818452989b9a998901989297509082019550935083925085019084908082843750949750610cb39650505050505050565b3480156104cb57600080fd5b506104d4610d38565b60408051600160a060020a039092168252519081900360200190f35b3480156104fc57600080fd5b5061020d6004356c010000000000000000000000006024358181049163ffffffff6801000000000000000092839004811692604435928304920416610d47565b34801561054857600080fd5b50610554600435610dfb565b604051808681526020018581526020018481526020018060200180602001838103835285818151815260200191508051906020019060200280838360005b838110156105aa578181015183820152602001610592565b50505050905001838103825284818151815260200191508051906020019060200280838360005b838110156105e95781810151838201526020016105d1565b5050505090500197505050505050505060405180910390f35b34801561060e57600080fd5b5061061a600435610eea565b604051808060200180602001878763ffffffff1690640100000000021768010000000000000000028152602001858563ffffffff1690640100000000021768010000000000000000028152602001838103835289818151815260200191508051906020019080838360005b8381101561069d578181015183820152602001610685565b50505050905090810190601f1680156106ca5780820380516001836020036101000a031916815260200191505b5083810382528851815288516020918201918a019080838360005b838110156106fd5781810151838201526020016106e5565b50505050905090810190601f16801561072a5780820380516001836020036101000a031916815260200191505b509850505050505050505060405180910390f35b34801561074a57600080fd5b506102f8600435611089565b60018054604080516020600284861615610100026000190190941693909304601f810184900484028201840190925281815292918301828280156107db5780601f106107b0576101008083540402835291602001916107db565b820191906000526020600020905b8154815290600101906020018083116107be57829003601f168201915b505050505081565b60009081526009602052604090208054600190910154600160a060020a0364010000000080840482169463ffffffff94851694918404909216921690565b604080516060810182529586526801000000000000000064010000000095860263ffffffff95861617810260208089019182529487029386169390931781028783019081526000988952600890945296209451855551600185018054600160a060020a036c0100000000000000000000000080850482168802948a900487169490941777ffffffffffffffffffffffffffffffffffffffffffffffff1992831617909255925160029096018054928704909116909402959094049091169390931791909216179055565b6040805160808101825287815260208082018890526801000000000000000064010000000080890263ffffffff808a16919091178302858701529087029086161702606083015260008a81526005825292909220815180519293919261095492849201906110cf565b50602082810151805161096d92600185019201906110cf565b506040820151600282018054640100000000600160a060020a036c010000000000000000000000008086048216830263ffffffff680100000000000000009788900481169190911777ffffffffffffffffffffffffffffffffffffffffffffffff1995861617909555606090970151600390960180549787049091169091029390940490911691909117921691909117905550505050505050565b6000908152600760205260409020805460018201546002909201549092600160a060020a0364010000000080850482169463ffffffff9081169491820490921692911690565b600060016004604080519081016040528085600160a060020a0316815260200160006008811115610a7b57fe5b9052815460018101808455600093845260209384902083519201805473ffffffffffffffffffffffffffffffffffffffff1916600160a060020a0390931692909217808355938301519093829074ff0000000000000000000000000000000000000000191674010000000000000000000000000000000000000000836008811115610b0257fe5b021790555050500392915050565b600054600160a060020a03163214610b8957604080517f08c379a000000000000000000000000000000000000000000000000000000000815260206004820152601260248201527f6f6e6c79206f776e657220616c6c6f7765640000000000000000000000000000604482015290519081900360640190fd5b6000ff5b600080600483815481101515610b9f57fe5b60009182526020909120015460048054600160a060020a0390921693509084908110610bc757fe5b9060005260206000200160000160149054906101000a900460ff169050915091565b604080516060810182529586526801000000000000000064010000000095860263ffffffff95861617810260208089019182529487029386169390931781028783019081526000988952600790945296209451855551600185018054600160a060020a036c0100000000000000000000000080850482168802948a900487169490941777ffffffffffffffffffffffffffffffffffffffffffffffff1992831617909255925160029096018054928704909116909402959094049091169390931791909216179055565b6040805160a0810182528681526020808201878152828401878152606084018781526080850187905260008c81526006855295909520845181559151600183015551600282015592518051929392610d11926003850192019061114d565b5060808201518051610d2d916004840191602090910190611187565b505050505050505050565b600054600160a060020a031681565b6040805180820182526801000000000000000064010000000096870263ffffffff96871617810282529386029285169290921783026020808401918252600097885260099052952090518154600160a060020a036c01000000000000000000000000808404821688029386900487169390931777ffffffffffffffffffffffffffffffffffffffffffffffff1992831617845596516001909301805492840490971690950292909104909216179116179055565b600081815260066020908152604091829020805460018201546002830154600390930180548651818702810187019097528087529295919460609384939291830182828015610e6957602002820191906000526020600020905b815481526020019060010190808311610e55575b5050505050915060066000878152602001908152602001600020600401805480602002602001604051908101604052809291908181526020018280548015610eda57602002820191906000526020600020905b8154600160a060020a03168152600190910190602001808311610ebc575b5050505050905091939590929450565b600081815260056020908152604080832080548251601f6002600019610100600186161502019093169290920491820185900485028101850190935280835260609485949093849384938493830182828015610f875780601f10610f5c57610100808354040283529160200191610f87565b820191906000526020600020905b815481529060010190602001808311610f6a57829003601f168201915b50505050509550600560008881526020019081526020016000206001018054600181600116156101000203166002900480601f0160208091040260200160405190810160405280929190818152602001828054600181600116156101000203166002900480156110385780601f1061100d57610100808354040283529160200191611038565b820191906000526020600020905b81548152906001019060200180831161101b57829003601f168201915b5050506000998a5250506005602052604090972060028101546003909101549698600160a060020a0364010000000080840482169963ffffffff948516995090810490911696509091169350915050565b6000908152600860205260409020805460018201546002909201549092600160a060020a0364010000000080850482169463ffffffff9081169491820490921692911690565b828054600181600116156101000203166002900490600052602060002090601f016020900481019282601f1061111057805160ff191683800117855561113d565b8280016001018555821561113d579182015b8281111561113d578251825591602001919060010190611122565b506111499291506111f5565b5090565b82805482825590600052602060002090810192821561113d579160200282018281111561113d578251825591602001919060010190611122565b8280548282559060005260206000209081019282156111e9579160200282015b828111156111e9578251825473ffffffffffffffffffffffffffffffffffffffff1916600160a060020a039091161782556020909201916001909101906111a7565b50611149929150611212565b61120f91905b8082111561114957600081556001016111fb565b90565b61120f91905b8082111561114957805473ffffffffffffffffffffffffffffffffffffffff191681556001016112185600a165627a7a72305820bfda05cd85725dbc28de09275e41d39c2eb5900475e4bfac0366ba1e148b8c050029",
  "source": "pragma solidity 0.4.24;\n\nimport \"../platform/Named.sol\";\nimport \"../platform/Component.sol\";\nimport \"../platform/Mortal.sol\";\nimport \"./api/ACashOutStorage.sol\";\n\ncontract CashOutStorage is ACashOutStorage, Named(\"cash-out-storage\"), Mortal, Component {\n\n    using CashOutLib for *;\n\n    CashOutLib.CashOut[] private channels;\n    mapping(uint256 => CashOutLib.Open) private channelOpen;\n    mapping(uint256 => CashOutLib.Account) private channelAccount;\n    mapping(uint256 => CashOutLib.Validate) private channelValidate;\n    mapping(uint256 => CashOutLib.Close) private channelClose;\n    mapping(uint256 => CashOutLib.Rollback) private channelRollback;\n\n    constructor(address _config) Component(_config) public {}\n\n    // @formatter:off\n    function createCashOut(\n        address _application\n    )\n        public\n        returns (\n            uint256 _cashOutId\n        )\n    {\n        _cashOutId = channels.push(CashOutLib.CashOut(_application, CashOutLib.Status.CREATING)) - 1;\n    }\n    // @formatter:on\n\n    // @formatter:off\n    function createOpen(\n        uint256 _cashOutId,\n        string _requestId,\n        string _kioskId,\n        function(string memory, string memory) external _fail,\n        function(string memory, string memory, uint256, uint256) external _success\n    )\n        public\n    {\n        channelOpen[_cashOutId] = CashOutLib.Open(_requestId, _kioskId, _fail, _success);\n    }\n    // @formatter:on\n\n    // @formatter:off\n    function createAccount(\n        uint256 _cashOutId,\n        uint256 _toWithdraw,\n        uint256 _VLFee,\n        uint256 _reserve,\n        uint256[] _fees,\n        address[] _parties\n    )\n        public\n    {\n        channelAccount[_cashOutId] = CashOutLib.Account(_toWithdraw, _VLFee, _reserve, _fees, _parties);\n    }\n    // @formatter:on\n\n    // @formatter:off\n    function createValidate(\n        uint256 _cashOutId,\n        uint256 _sessionId,\n        function(uint256, uint256) external _fail,\n        function(uint256, uint256) external _success\n    )\n        public\n    {\n        channelValidate[_cashOutId] = CashOutLib.Validate(_sessionId, _fail, _success);\n    }\n    // @formatter:on\n\n    // @formatter:off\n    function createClose(\n        uint256 _cashOutId,\n        uint256 _sessionId,\n        function(uint256, uint256) external _fail,\n        function(uint256, uint256) external _success\n    )\n        public\n    {\n        channelClose[_cashOutId] = CashOutLib.Close(_sessionId, _fail, _success);\n    }\n    // @formatter:on\n\n    // @formatter:off\n    function createRollback(\n        uint256 _cashOutId,\n        function(uint256) external _fail,\n        function(uint256) external _success\n    )\n        public\n    {\n        channelRollback[_cashOutId] = CashOutLib.Rollback(_fail, _success);\n    }\n    // @formatter:on\n\n    // @formatter:off\n    function retrieveCashOut(\n        uint256 _cashOutId\n    )\n        public\n        view\n        returns (\n            address _application,\n            CashOutLib.Status _status\n        )\n    {\n        _application = channels[_cashOutId].application;\n        _status = channels[_cashOutId].status;\n    }\n    // @formatter:on\n\n    // @formatter:off\n    function retrieveAccount(\n        uint256 _cashOutId\n    )\n        public\n        view\n        returns (\n            uint256 _toWithdraw,\n            uint256 _VLFee,\n            uint256 _reserve,\n            uint256[] _fees,\n            address[] _parties\n        )\n    {\n        _toWithdraw = channelAccount[_cashOutId].toWithdraw;\n        _VLFee = channelAccount[_cashOutId].VLFee;\n        _reserve = channelAccount[_cashOutId].reserve;\n        _fees = channelAccount[_cashOutId].fees;\n        _parties = channelAccount[_cashOutId].parties;\n    }\n    // @formatter:on\n\n    // @formatter:off\n    function retrieveOpen(\n        uint256 _cashOutId\n    )\n        public\n        view\n        returns (\n            string memory _requestId,\n            string memory _kioskId,\n            function(string memory, string memory) external _fail,\n            function(string memory, string memory, uint256, uint256) external _success\n        )\n    {\n        _requestId = channelOpen[_cashOutId].requestId;\n        _kioskId = channelOpen[_cashOutId].kioskId;\n        _fail = channelOpen[_cashOutId].fail;\n        _success = channelOpen[_cashOutId].success;\n    }\n    // @formatter:on\n\n    // @formatter:off\n    function retrieveValidate(\n        uint256 _cashOutId\n    )\n        public\n        view\n        returns (\n            uint256 _sessionId,\n            function(uint256, uint256) external _fail,\n            function(uint256, uint256) external _success\n        )\n    {\n        _sessionId = channelValidate[_cashOutId].sessionId;\n        _fail = channelValidate[_cashOutId].fail;\n        _success = channelValidate[_cashOutId].success;\n    }\n    // @formatter:on\n\n    // @formatter:off\n    function retrieveClose(\n        uint256 _cashOutId\n    )\n        public\n        view\n        returns (\n            uint256 _sessionId,\n            function(uint256, uint256) external _fail,\n            function(uint256, uint256) external _success\n        )\n    {\n        _sessionId = channelClose[_cashOutId].sessionId;\n        _fail = channelClose[_cashOutId].fail;\n        _success = channelClose[_cashOutId].success;\n    }\n    // @formatter:on\n\n    // @formatter:off\n    function retrieveRollback(\n        uint256 _cashOutId\n    )\n        public\n        view\n        returns (\n            function(uint256) external _fail,\n            function(uint256) external _success\n        )\n    {\n        _fail = channelRollback[_cashOutId].fail;\n        _success = channelRollback[_cashOutId].success;\n    }\n    // @formatter:on\n\n}",
  "sourcePath": "/home/andrew/vault-logic-project/Development/test/vault-logic-api/truffle/contracts/storages/CashOutStorage.sol",
  "compiler": {
    "name": "solc",
    "version": "0.4.24+commit.e67f0147.Emscripten.clang"
  },
  "schemaVersion": "2.0.1",
  "updatedAt": "2018-11-20T09:03:36.638Z"
}