{
  "contractName": "CashInController",
  "abi": [
    {
      "constant": true,
      "inputs": [],
      "name": "name",
      "outputs": [
        {
          "name": "",
          "type": "string"
        }
      ],
      "payable": false,
      "stateMutability": "view",
      "type": "function"
    },
    {
      "constant": false,
      "inputs": [],
      "name": "kill",
      "outputs": [],
      "payable": false,
      "stateMutability": "nonpayable",
      "type": "function"
    },
    {
      "constant": true,
      "inputs": [],
      "name": "owner",
      "outputs": [
        {
          "name": "",
          "type": "address"
        }
      ],
      "payable": false,
      "stateMutability": "view",
      "type": "function"
    },
    {
      "inputs": [
        {
          "name": "_config",
          "type": "address"
        }
      ],
      "payable": false,
      "stateMutability": "nonpayable",
      "type": "constructor"
    },
    {
      "constant": false,
      "inputs": [
        {
          "name": "_sessionId",
          "type": "uint256"
        },
        {
          "name": "_maxAmount",
          "type": "uint256"
        }
      ],
      "name": "open",
      "outputs": [
        {
          "name": "_channelId",
          "type": "uint256"
        }
      ],
      "payable": false,
      "stateMutability": "nonpayable",
      "type": "function"
    },
    {
      "constant": false,
      "inputs": [
        {
          "name": "_sessionId",
          "type": "uint256"
        },
        {
          "name": "_channelId",
          "type": "uint256"
        },
        {
          "name": "_fees",
          "type": "uint256[]"
        },
        {
          "name": "_parties",
          "type": "address[]"
        }
      ],
      "name": "close",
      "outputs": [
        {
          "name": "",
          "type": "bool"
        }
      ],
      "payable": false,
      "stateMutability": "nonpayable",
      "type": "function"
    },
    {
      "constant": true,
      "inputs": [
        {
          "name": "_channelId",
          "type": "uint256"
        }
      ],
      "name": "balanceOf",
      "outputs": [
        {
          "name": "",
          "type": "uint256"
        }
      ],
      "payable": false,
      "stateMutability": "view",
      "type": "function"
    }
  ],
  "bytecode": "0x60806040523480156200001157600080fd5b50604051602080620016dc833981018060405281019080805190602001909291905050508060006040805190810160405280601281526020017f636173682d696e2d636f6e74726f6c6c65720000000000000000000000000000815250336000806101000a81548173ffffffffffffffffffffffffffffffffffffffff021916908373ffffffffffffffffffffffffffffffffffffffff1602179055508060019080519060200190620000c6929190620005bf565b50508173ffffffffffffffffffffffffffffffffffffffff1663713b563f6040518163ffffffff167c0100000000000000000000000000000000000000000000000000000000028152600401602060405180830381600087803b1580156200012d57600080fd5b505af115801562000142573d6000803e3d6000fd5b505050506040513d60208110156200015957600080fd5b8101908080519060200190929190505050600360006101000a81548173ffffffffffffffffffffffffffffffffffffffff021916908373ffffffffffffffffffffffffffffffffffffffff1602179055508173ffffffffffffffffffffffffffffffffffffffff1663d0496d6a6040518163ffffffff167c0100000000000000000000000000000000000000000000000000000000028152600401602060405180830381600087803b1580156200020f57600080fd5b505af115801562000224573d6000803e3d6000fd5b505050506040513d60208110156200023b57600080fd5b8101908080519060200190929190505050600260006101000a81548173ffffffffffffffffffffffffffffffffffffffff021916908373ffffffffffffffffffffffffffffffffffffffff160217905550600260009054906101000a900473ffffffffffffffffffffffffffffffffffffffff1673ffffffffffffffffffffffffffffffffffffffff1663693ec85e60016040518263ffffffff167c01000000000000000000000000000000000000000000000000000000000281526004018080602001828103825283818154600181600116156101000203166002900481526020019150805460018160011615610100020316600290048015620003845780601f10620003585761010080835404028352916020019162000384565b820191906000526020600020905b8154815290600101906020018083116200036657829003601f168201915b505092505050602060405180830381600087803b158015620003a557600080fd5b505af1158015620003ba573d6000803e3d6000fd5b505050506040513d6020811015620003d157600080fd5b8101908080519060200190929190505050905060008173ffffffffffffffffffffffffffffffffffffffff1614151562000484578073ffffffffffffffffffffffffffffffffffffffff166341c0e1b56040518163ffffffff167c0100000000000000000000000000000000000000000000000000000000028152600401600060405180830381600087803b1580156200046a57600080fd5b505af11580156200047f573d6000803e3d6000fd5b505050505b600260009054906101000a900473ffffffffffffffffffffffffffffffffffffffff1673ffffffffffffffffffffffffffffffffffffffff1663f2c298be60016040518263ffffffff167c010000000000000000000000000000000000000000000000000000000002815260040180806020018281038252838181546001816001161561010002031660029004815260200191508054600181600116156101000203166002900480156200057c5780601f1062000550576101008083540402835291602001916200057c565b820191906000526020600020905b8154815290600101906020018083116200055e57829003601f168201915b505092505050600060405180830381600087803b1580156200059d57600080fd5b505af1158015620005b2573d6000803e3d6000fd5b505050505050506200066e565b828054600181600116156101000203166002900490600052602060002090601f016020900481019282601f106200060257805160ff191683800117855562000633565b8280016001018555821562000633579182015b828111156200063257825182559160200191906001019062000615565b5b50905062000642919062000646565b5090565b6200066b91905b80821115620006675760008160009055506001016200064d565b5090565b90565b61105e806200067e6000396000f300608060405260043610610078576000357c0100000000000000000000000000000000000000000000000000000000900463ffffffff16806306fdde031461007d5780634082de671461010d57806341c0e1b5146101585780638da5cb5b1461016f5780639cc7f708146101c6578063a973640514610207575b600080fd5b34801561008957600080fd5b506100926102dc565b6040518080602001828103825283818151815260200191508051906020019080838360005b838110156100d25780820151818401526020810190506100b7565b50505050905090810190601f1680156100ff5780820380516001836020036101000a031916815260200191505b509250505060405180910390f35b34801561011957600080fd5b50610142600480360381019080803590602001909291908035906020019092919050505061037a565b6040518082815260200191505060405180910390f35b34801561016457600080fd5b5061016d61068e565b005b34801561017b57600080fd5b50610184610756565b604051808273ffffffffffffffffffffffffffffffffffffffff1673ffffffffffffffffffffffffffffffffffffffff16815260200191505060405180910390f35b3480156101d257600080fd5b506101f16004803603810190808035906020019092919050505061077b565b6040518082815260200191505060405180910390f35b34801561021357600080fd5b506102c260048036038101908080359060200190929190803590602001909291908035906020019082018035906020019080806020026020016040519081016040528093929190818152602001838360200280828437820191505050505050919291929080359060200190820180359060200190808060200260200160405190810160405280939291908181526020018383602002808284378201915050505050509192919290505050610a85565b604051808215151515815260200191505060405180910390f35b60018054600181600116156101000203166002900480601f0160208091040260200160405190810160405280929190818152602001828054600181600116156101000203166002900480156103725780601f1061034757610100808354040283529160200191610372565b820191906000526020600020905b81548152906001019060200180831161035557829003601f168201915b505050505081565b60006103c733600360009054906101000a900473ffffffffffffffffffffffffffffffffffffffff1673ffffffffffffffffffffffffffffffffffffffff16610e3090919063ffffffff16565b151561043b576040517f08c379a00000000000000000000000000000000000000000000000000000000081526004018080602001828103825260178152602001807f6f6e6c79207265676973746572656420616c6c6f77656400000000000000000081525060200191505060405180910390fd5b600260009054906101000a900473ffffffffffffffffffffffffffffffffffffffff1673ffffffffffffffffffffffffffffffffffffffff1663693ec85e6040805190810160405280601581526020017f636173682d6368616e6e656c732d6d616e6167657200000000000000000000008152506040518263ffffffff167c01000000000000000000000000000000000000000000000000000000000281526004018080602001828103825283818151815260200191508051906020019080838360005b8381101561051a5780820151818401526020810190506104ff565b50505050905090810190601f1680156105475780820380516001836020036101000a031916815260200191505b5092505050602060405180830381600087803b15801561056657600080fd5b505af115801561057a573d6000803e3d6000fd5b505050506040513d602081101561059057600080fd5b810190808051906020019092919050505073ffffffffffffffffffffffffffffffffffffffff1663a58c52b83385856040518463ffffffff167c0100000000000000000000000000000000000000000000000000000000028152600401808473ffffffffffffffffffffffffffffffffffffffff1673ffffffffffffffffffffffffffffffffffffffff1681526020018381526020018281526020019350505050602060405180830381600087803b15801561064b57600080fd5b505af115801561065f573d6000803e3d6000fd5b505050506040513d602081101561067557600080fd5b8101908080519060200190929190505050905092915050565b6000809054906101000a900473ffffffffffffffffffffffffffffffffffffffff1673ffffffffffffffffffffffffffffffffffffffff163273ffffffffffffffffffffffffffffffffffffffff16141515610752576040517f08c379a00000000000000000000000000000000000000000000000000000000081526004018080602001828103825260128152602001807f6f6e6c79206f776e657220616c6c6f776564000000000000000000000000000081525060200191505060405180910390fd5b6000ff5b6000809054906101000a900473ffffffffffffffffffffffffffffffffffffffff1681565b60006107c833600360009054906101000a900473ffffffffffffffffffffffffffffffffffffffff1673ffffffffffffffffffffffffffffffffffffffff16610e3090919063ffffffff16565b151561083c576040517f08c379a00000000000000000000000000000000000000000000000000000000081526004018080602001828103825260178152602001807f6f6e6c79207265676973746572656420616c6c6f77656400000000000000000081525060200191505060405180910390fd5b600260009054906101000a900473ffffffffffffffffffffffffffffffffffffffff1673ffffffffffffffffffffffffffffffffffffffff1663693ec85e6040805190810160405280601581526020017f636173682d6368616e6e656c732d6d616e6167657200000000000000000000008152506040518263ffffffff167c01000000000000000000000000000000000000000000000000000000000281526004018080602001828103825283818151815260200191508051906020019080838360005b8381101561091b578082015181840152602081019050610900565b50505050905090810190601f1680156109485780820380516001836020036101000a031916815260200191505b5092505050602060405180830381600087803b15801561096757600080fd5b505af115801561097b573d6000803e3d6000fd5b505050506040513d602081101561099157600080fd5b810190808051906020019092919050505073ffffffffffffffffffffffffffffffffffffffff1662fdd58e33846040518363ffffffff167c0100000000000000000000000000000000000000000000000000000000028152600401808373ffffffffffffffffffffffffffffffffffffffff1673ffffffffffffffffffffffffffffffffffffffff16815260200182815260200192505050602060405180830381600087803b158015610a4357600080fd5b505af1158015610a57573d6000803e3d6000fd5b505050506040513d6020811015610a6d57600080fd5b81019080805190602001909291905050509050919050565b6000610ad233600360009054906101000a900473ffffffffffffffffffffffffffffffffffffffff1673ffffffffffffffffffffffffffffffffffffffff16610e3090919063ffffffff16565b1515610b46576040517f08c379a00000000000000000000000000000000000000000000000000000000081526004018080602001828103825260178152602001807f6f6e6c79207265676973746572656420616c6c6f77656400000000000000000081525060200191505060405180910390fd5b600260009054906101000a900473ffffffffffffffffffffffffffffffffffffffff1673ffffffffffffffffffffffffffffffffffffffff1663693ec85e6040805190810160405280601581526020017f636173682d6368616e6e656c732d6d616e6167657200000000000000000000008152506040518263ffffffff167c01000000000000000000000000000000000000000000000000000000000281526004018080602001828103825283818151815260200191508051906020019080838360005b83811015610c25578082015181840152602081019050610c0a565b50505050905090810190601f168015610c525780820380516001836020036101000a031916815260200191505b5092505050602060405180830381600087803b158015610c7157600080fd5b505af1158015610c85573d6000803e3d6000fd5b505050506040513d6020811015610c9b57600080fd5b810190808051906020019092919050505073ffffffffffffffffffffffffffffffffffffffff16634ce9157233878787876040518663ffffffff167c0100000000000000000000000000000000000000000000000000000000028152600401808673ffffffffffffffffffffffffffffffffffffffff1673ffffffffffffffffffffffffffffffffffffffff1681526020018581526020018481526020018060200180602001838103835285818151815260200191508051906020019060200280838360005b83811015610d7c578082015181840152602081019050610d61565b50505050905001838103825284818151815260200191508051906020019060200280838360005b83811015610dbe578082015181840152602081019050610da3565b50505050905001975050505050505050602060405180830381600087803b158015610de857600080fd5b505af1158015610dfc573d6000803e3d6000fd5b505050506040513d6020811015610e1257600080fd5b81019080805190602001909291905050505060019050949350505050565b60008273ffffffffffffffffffffffffffffffffffffffff166317e7dd226040805190810160405280601681526020017f6170706c69636174696f6e5f7265676973746572656400000000000000000000815250846040516020018083805190602001908083835b602083101515610ebd5780518252602082019150602081019050602083039250610e98565b6001836020036101000a0380198251168184511680821785525050505050509050018273ffffffffffffffffffffffffffffffffffffffff1673ffffffffffffffffffffffffffffffffffffffff166c01000000000000000000000000028152601401925050506040516020818303038152906040526040518082805190602001908083835b602083101515610f685780518252602082019150602081019050602083039250610f43565b6001836020036101000a03801982511681845116808217855250505050505090500191505060405180910390206040518263ffffffff167c0100000000000000000000000000000000000000000000000000000000028152600401808260001916600019168152602001915050602060405180830381600087803b158015610fef57600080fd5b505af1158015611003573d6000803e3d6000fd5b505050506040513d602081101561101957600080fd5b81019080805190602001909291905050509050929150505600a165627a7a7230582070d6dea72dc0143b343833754bff1ec9201ee87c3352217b084620c46b84a5bb0029",
  "source": "pragma solidity 0.4.24;\n\nimport {ApplicationLib} from \"../libs/Libraries.sol\";\nimport {ACashInController} from \"./Controllers.sol\";\nimport {ACashChannelsManager} from \"../managers/Managers.sol\";\nimport \"../Platform.sol\";\n\ncontract CashInController is ACashInController, Named(\"cash-in-controller\"), Mortal, Component {\n\n    using ApplicationLib for address;\n\n    string constant MANAGER = \"cash-channels-manager\";\n\n    modifier isRegistered {\n        require(database.isRegistered(msg.sender), \"only registered allowed\");\n        _;\n    }\n\n    constructor(address _config) Component(_config) public {}\n\n    function open(uint256 _sessionId, uint256 _maxAmount) public isRegistered returns (uint256 _channelId) {\n        _channelId = ACashChannelsManager(context.get(MANAGER)).openCashInChannel(msg.sender, _sessionId, _maxAmount);\n    }\n\n    function close(uint256 _sessionId, uint256 _channelId, uint256[] _fees, address[] _parties) public isRegistered returns (bool) {\n        ACashChannelsManager(context.get(MANAGER)).closeCashInChannel(msg.sender, _sessionId, _channelId, _fees, _parties);\n        return true;\n    }\n\n    function balanceOf(uint256 _channelId) public view isRegistered returns (uint256) {\n        return ACashChannelsManager(context.get(MANAGER)).balanceOf(msg.sender, _channelId);\n    }\n\n}\n",
  "sourcePath": "/home/andrew/vault-logic-project/Development/test/vault-logic-api/truffle/contracts/controllers/CashInController.sol",
  "compiler": {
    "name": "solc",
    "version": "0.4.24+commit.e67f0147.Emscripten.clang"
  },
  "schemaVersion": "2.0.1",
  "updatedAt": "2018-10-17T14:12:00.422Z"
}