{
  "contractName": "CashChannelsManager",
  "abi": [
    {
      "constant": true,
      "inputs": [],
      "name": "name",
      "outputs": [
        {
          "name": "",
          "type": "string"
        }
      ],
      "payable": false,
      "stateMutability": "view",
      "type": "function"
    },
    {
      "constant": false,
      "inputs": [],
      "name": "kill",
      "outputs": [],
      "payable": false,
      "stateMutability": "nonpayable",
      "type": "function"
    },
    {
      "constant": true,
      "inputs": [],
      "name": "owner",
      "outputs": [
        {
          "name": "",
          "type": "address"
        }
      ],
      "payable": false,
      "stateMutability": "view",
      "type": "function"
    },
    {
      "inputs": [
        {
          "name": "_config",
          "type": "address"
        }
      ],
      "payable": false,
      "stateMutability": "nonpayable",
      "type": "constructor"
    },
    {
      "constant": false,
      "inputs": [
        {
          "name": "_application",
          "type": "address"
        },
        {
          "name": "_sessionId",
          "type": "uint256"
        },
        {
          "name": "_maxAmount",
          "type": "uint256"
        }
      ],
      "name": "openCashInChannel",
      "outputs": [
        {
          "name": "_channelId",
          "type": "uint256"
        }
      ],
      "payable": false,
      "stateMutability": "nonpayable",
      "type": "function"
    },
    {
      "constant": false,
      "inputs": [
        {
          "name": "channelId",
          "type": "uint256"
        },
        {
          "name": "amount",
          "type": "uint256"
        }
      ],
      "name": "updateCashInBalance",
      "outputs": [],
      "payable": false,
      "stateMutability": "nonpayable",
      "type": "function"
    },
    {
      "constant": true,
      "inputs": [
        {
          "name": "_application",
          "type": "address"
        },
        {
          "name": "_channelId",
          "type": "uint256"
        }
      ],
      "name": "balanceOf",
      "outputs": [
        {
          "name": "",
          "type": "uint256"
        }
      ],
      "payable": false,
      "stateMutability": "view",
      "type": "function"
    },
    {
      "constant": false,
      "inputs": [
        {
          "name": "_application",
          "type": "address"
        },
        {
          "name": "_sessionId",
          "type": "uint256"
        },
        {
          "name": "_channelId",
          "type": "uint256"
        },
        {
          "name": "fees",
          "type": "uint256[]"
        },
        {
          "name": "parties",
          "type": "address[]"
        }
      ],
      "name": "closeCashInChannel",
      "outputs": [
        {
          "name": "",
          "type": "bool"
        }
      ],
      "payable": false,
      "stateMutability": "nonpayable",
      "type": "function"
    },
    {
      "constant": false,
      "inputs": [
        {
          "name": "channelId",
          "type": "uint256"
        }
      ],
      "name": "confirmOpen",
      "outputs": [],
      "payable": false,
      "stateMutability": "nonpayable",
      "type": "function"
    },
    {
      "constant": false,
      "inputs": [
        {
          "name": "channelId",
          "type": "uint256"
        }
      ],
      "name": "confirmClose",
      "outputs": [],
      "payable": false,
      "stateMutability": "nonpayable",
      "type": "function"
    }
  ],
  "bytecode": "0x60806040523480156200001157600080fd5b5060405160208062005e95833981018060405281019080805190602001909291905050508060006040805190810160405280601581526020017f636173682d6368616e6e656c732d6d616e616765720000000000000000000000815250336000806101000a81548173ffffffffffffffffffffffffffffffffffffffff021916908373ffffffffffffffffffffffffffffffffffffffff1602179055508060019080519060200190620000c6929190620005bf565b50508173ffffffffffffffffffffffffffffffffffffffff1663713b563f6040518163ffffffff167c0100000000000000000000000000000000000000000000000000000000028152600401602060405180830381600087803b1580156200012d57600080fd5b505af115801562000142573d6000803e3d6000fd5b505050506040513d60208110156200015957600080fd5b8101908080519060200190929190505050600360006101000a81548173ffffffffffffffffffffffffffffffffffffffff021916908373ffffffffffffffffffffffffffffffffffffffff1602179055508173ffffffffffffffffffffffffffffffffffffffff1663d0496d6a6040518163ffffffff167c0100000000000000000000000000000000000000000000000000000000028152600401602060405180830381600087803b1580156200020f57600080fd5b505af115801562000224573d6000803e3d6000fd5b505050506040513d60208110156200023b57600080fd5b8101908080519060200190929190505050600260006101000a81548173ffffffffffffffffffffffffffffffffffffffff021916908373ffffffffffffffffffffffffffffffffffffffff160217905550600260009054906101000a900473ffffffffffffffffffffffffffffffffffffffff1673ffffffffffffffffffffffffffffffffffffffff1663693ec85e60016040518263ffffffff167c01000000000000000000000000000000000000000000000000000000000281526004018080602001828103825283818154600181600116156101000203166002900481526020019150805460018160011615610100020316600290048015620003845780601f10620003585761010080835404028352916020019162000384565b820191906000526020600020905b8154815290600101906020018083116200036657829003601f168201915b505092505050602060405180830381600087803b158015620003a557600080fd5b505af1158015620003ba573d6000803e3d6000fd5b505050506040513d6020811015620003d157600080fd5b8101908080519060200190929190505050905060008173ffffffffffffffffffffffffffffffffffffffff1614151562000484578073ffffffffffffffffffffffffffffffffffffffff166341c0e1b56040518163ffffffff167c0100000000000000000000000000000000000000000000000000000000028152600401600060405180830381600087803b1580156200046a57600080fd5b505af11580156200047f573d6000803e3d6000fd5b505050505b600260009054906101000a900473ffffffffffffffffffffffffffffffffffffffff1673ffffffffffffffffffffffffffffffffffffffff1663f2c298be60016040518263ffffffff167c010000000000000000000000000000000000000000000000000000000002815260040180806020018281038252838181546001816001161561010002031660029004815260200191508054600181600116156101000203166002900480156200057c5780601f1062000550576101008083540402835291602001916200057c565b820191906000526020600020905b8154815290600101906020018083116200055e57829003601f168201915b505092505050600060405180830381600087803b1580156200059d57600080fd5b505af1158015620005b2573d6000803e3d6000fd5b505050505050506200066e565b828054600181600116156101000203166002900490600052602060002090601f016020900481019282601f106200060257805160ff191683800117855562000633565b8280016001018555821562000633579182015b828111156200063257825182559160200191906001019062000615565b5b50905062000642919062000646565b5090565b6200066b91905b80821115620006675760008160009055506001016200064d565b5090565b90565b615817806200067e6000396000f300608060405260043610610098576000357c0100000000000000000000000000000000000000000000000000000000900463ffffffff168062fdd58e1461009d57806306fdde03146100fe57806341c0e1b51461018e5780634ce91572146101a557806354e027d81461029a5780635940c655146102d1578063882d5f7a146102fe5780638da5cb5b1461032b578063a58c52b814610382575b600080fd5b3480156100a957600080fd5b506100e8600480360381019080803573ffffffffffffffffffffffffffffffffffffffff169060200190929190803590602001909291905050506103ed565b6040518082815260200191505060405180910390f35b34801561010a57600080fd5b50610113610757565b6040518080602001828103825283818151815260200191508051906020019080838360005b83811015610153578082015181840152602081019050610138565b50505050905090810190601f1680156101805780820380516001836020036101000a031916815260200191505b509250505060405180910390f35b34801561019a57600080fd5b506101a36107f5565b005b3480156101b157600080fd5b50610280600480360381019080803573ffffffffffffffffffffffffffffffffffffffff169060200190929190803590602001909291908035906020019092919080359060200190820180359060200190808060200260200160405190810160405280939291908181526020018383602002808284378201915050505050509192919290803590602001908201803590602001908080602002602001604051908101604052809392919081815260200183836020028082843782019150505050505091929192905050506108bd565b604051808215151515815260200191505060405180910390f35b3480156102a657600080fd5b506102cf600480360381019080803590602001909291908035906020019092919050505061206d565b005b3480156102dd57600080fd5b506102fc600480360381019080803590602001909291905050506129c6565b005b34801561030a57600080fd5b50610329600480360381019080803590602001909291905050506130a1565b005b34801561033757600080fd5b50610340614233565b604051808273ffffffffffffffffffffffffffffffffffffffff1673ffffffffffffffffffffffffffffffffffffffff16815260200191505060405180910390f35b34801561038e57600080fd5b506103d7600480360381019080803573ffffffffffffffffffffffffffffffffffffffff1690602001909291908035906020019092919080359060200190929190505050614258565b6040518082815260200191505060405180910390f35b600080600260009054906101000a900473ffffffffffffffffffffffffffffffffffffffff1673ffffffffffffffffffffffffffffffffffffffff1663693ec85e6040805190810160405280600f81526020017f636173682d696e2d73746f7261676500000000000000000000000000000000008152506040518263ffffffff167c01000000000000000000000000000000000000000000000000000000000281526004018080602001828103825283818151815260200191508051906020019080838360005b838110156104cf5780820151818401526020810190506104b4565b50505050905090810190601f1680156104fc5780820380516001836020036101000a031916815260200191505b5092505050602060405180830381600087803b15801561051b57600080fd5b505af115801561052f573d6000803e3d6000fd5b505050506040513d602081101561054557600080fd5b810190808051906020019092919050505090508373ffffffffffffffffffffffffffffffffffffffff168173ffffffffffffffffffffffffffffffffffffffff16631f2f4bfd856040518263ffffffff167c010000000000000000000000000000000000000000000000000000000002815260040180828152602001915050602060405180830381600087803b1580156105de57600080fd5b505af11580156105f2573d6000803e3d6000fd5b505050506040513d602081101561060857600080fd5b810190808051906020019092919050505073ffffffffffffffffffffffffffffffffffffffff161415156106a4576040517f08c379a000000000000000000000000000000000000000000000000000000000815260040180806020018281038252600e8152602001807f496c6c6567616c2061636365737300000000000000000000000000000000000081525060200191505060405180910390fd5b8073ffffffffffffffffffffffffffffffffffffffff16631e010439846040518263ffffffff167c010000000000000000000000000000000000000000000000000000000002815260040180828152602001915050602060405180830381600087803b15801561071357600080fd5b505af1158015610727573d6000803e3d6000fd5b505050506040513d602081101561073d57600080fd5b810190808051906020019092919050505091505092915050565b60018054600181600116156101000203166002900480601f0160208091040260200160405190810160405280929190818152602001828054600181600116156101000203166002900480156107ed5780601f106107c2576101008083540402835291602001916107ed565b820191906000526020600020905b8154815290600101906020018083116107d057829003601f168201915b505050505081565b6000809054906101000a900473ffffffffffffffffffffffffffffffffffffffff1673ffffffffffffffffffffffffffffffffffffffff163273ffffffffffffffffffffffffffffffffffffffff161415156108b9576040517f08c379a00000000000000000000000000000000000000000000000000000000081526004018080602001828103825260128152602001807f6f6e6c79206f776e657220616c6c6f776564000000000000000000000000000081525060200191505060405180910390fd5b6000ff5b60008060008086600160058111156108d157fe5b600260009054906101000a900473ffffffffffffffffffffffffffffffffffffffff1673ffffffffffffffffffffffffffffffffffffffff1663693ec85e6040805190810160405280600f81526020017f636173682d696e2d73746f7261676500000000000000000000000000000000008152506040518263ffffffff167c01000000000000000000000000000000000000000000000000000000000281526004018080602001828103825283818151815260200191508051906020019080838360005b838110156109b0578082015181840152602081019050610995565b50505050905090810190601f1680156109dd5780820380516001836020036101000a031916815260200191505b5092505050602060405180830381600087803b1580156109fc57600080fd5b505af1158015610a10573d6000803e3d6000fd5b505050506040513d6020811015610a2657600080fd5b810190808051906020019092919050505073ffffffffffffffffffffffffffffffffffffffff16635c622a0e836040518263ffffffff167c010000000000000000000000000000000000000000000000000000000002815260040180828152602001915050602060405180830381600087803b158015610aa557600080fd5b505af1158015610ab9573d6000803e3d6000fd5b505050506040513d6020811015610acf57600080fd5b8101908080519060200190929190505050141515610b55576040517f08c379a00000000000000000000000000000000000000000000000000000000081526004018080602001828103825260178152602001807f43617368496e20696e20696c6c6567616c20737461746500000000000000000081525060200191505060405180910390fd5b878a8073ffffffffffffffffffffffffffffffffffffffff16600260009054906101000a900473ffffffffffffffffffffffffffffffffffffffff1673ffffffffffffffffffffffffffffffffffffffff1663693ec85e6040805190810160405280600f81526020017f636173682d696e2d73746f7261676500000000000000000000000000000000008152506040518263ffffffff167c01000000000000000000000000000000000000000000000000000000000281526004018080602001828103825283818151815260200191508051906020019080838360005b83811015610c4d578082015181840152602081019050610c32565b50505050905090810190601f168015610c7a5780820380516001836020036101000a031916815260200191505b5092505050602060405180830381600087803b158015610c9957600080fd5b505af1158015610cad573d6000803e3d6000fd5b505050506040513d6020811015610cc357600080fd5b810190808051906020019092919050505073ffffffffffffffffffffffffffffffffffffffff16631f2f4bfd846040518263ffffffff167c010000000000000000000000000000000000000000000000000000000002815260040180828152602001915050602060405180830381600087803b158015610d4257600080fd5b505af1158015610d56573d6000803e3d6000fd5b505050506040513d6020811015610d6c57600080fd5b810190808051906020019092919050505073ffffffffffffffffffffffffffffffffffffffff16141515610e08576040517f08c379a000000000000000000000000000000000000000000000000000000000815260040180806020018281038252600e8152602001807f496c6c6567616c2061636365737300000000000000000000000000000000000081525060200191505060405180910390fd5b898b80600260009054906101000a900473ffffffffffffffffffffffffffffffffffffffff1673ffffffffffffffffffffffffffffffffffffffff1663693ec85e6040805190810160405280600f81526020017f636173682d696e2d73746f7261676500000000000000000000000000000000008152506040518263ffffffff167c01000000000000000000000000000000000000000000000000000000000281526004018080602001828103825283818151815260200191508051906020019080838360005b83811015610eea578082015181840152602081019050610ecf565b50505050905090810190601f168015610f175780820380516001836020036101000a031916815260200191505b5092505050602060405180830381600087803b158015610f3657600080fd5b505af1158015610f4a573d6000803e3d6000fd5b505050506040513d6020811015610f6057600080fd5b810190808051906020019092919050505073ffffffffffffffffffffffffffffffffffffffff16636e19cb18846040518263ffffffff167c010000000000000000000000000000000000000000000000000000000002815260040180828152602001915050602060405180830381600087803b158015610fdf57600080fd5b505af1158015610ff3573d6000803e3d6000fd5b505050506040513d602081101561100957600080fd5b810190808051906020019092919050505014151561108f576040517f08c379a00000000000000000000000000000000000000000000000000000000081526004018080602001828103825260128152602001807f417267756d656e7473206d69736d61746368000000000000000000000000000081525060200191505060405180910390fd5b89518b51141515611108576040517f08c379a00000000000000000000000000000000000000000000000000000000081526004018080602001828103825260118152602001807f496c6c6567616c20617267756d656e747300000000000000000000000000000081525060200191505060405180910390fd5b600260009054906101000a900473ffffffffffffffffffffffffffffffffffffffff1673ffffffffffffffffffffffffffffffffffffffff1663693ec85e6040805190810160405280600f81526020017f636173682d696e2d73746f7261676500000000000000000000000000000000008152506040518263ffffffff167c01000000000000000000000000000000000000000000000000000000000281526004018080602001828103825283818151815260200191508051906020019080838360005b838110156111e75780820151818401526020810190506111cc565b50505050905090810190601f1680156112145780820380516001836020036101000a031916815260200191505b5092505050602060405180830381600087803b15801561123357600080fd5b505af1158015611247573d6000803e3d6000fd5b505050506040513d602081101561125d57600080fd5b810190808051906020019092919050505073ffffffffffffffffffffffffffffffffffffffff16631e0104398d6040518263ffffffff167c010000000000000000000000000000000000000000000000000000000002815260040180828152602001915050602060405180830381600087803b1580156112dc57600080fd5b505af11580156112f0573d6000803e3d6000fd5b505050506040513d602081101561130657600080fd5b81019080805190602001909291905050509750611543612710611535600260009054906101000a900473ffffffffffffffffffffffffffffffffffffffff1673ffffffffffffffffffffffffffffffffffffffff1663693ec85e6040805190810160405280601181526020017f706172616d657465722d73746f726167650000000000000000000000000000008152506040518263ffffffff167c01000000000000000000000000000000000000000000000000000000000281526004018080602001828103825283818151815260200191508051906020019080838360005b838110156114015780820151818401526020810190506113e6565b50505050905090810190601f16801561142e5780820380516001836020036101000a031916815260200191505b5092505050602060405180830381600087803b15801561144d57600080fd5b505af1158015611461573d6000803e3d6000fd5b505050506040513d602081101561147757600080fd5b810190808051906020019092919050505073ffffffffffffffffffffffffffffffffffffffff1663cc0a29e66040518163ffffffff167c0100000000000000000000000000000000000000000000000000000000028152600401602060405180830381600087803b1580156114eb57600080fd5b505af11580156114ff573d6000803e3d6000fd5b505050506040513d602081101561151557600080fd5b81019080805190602001909291905050508b6154cd90919063ffffffff16565b61550b90919063ffffffff16565b965061154e8b615535565b955087611564888861558590919063ffffffff16565b111515156115da576040517f08c379a00000000000000000000000000000000000000000000000000000000081526004018080602001828103825260188152602001807f4368616e6e656c2062616c616e6365206f766572666c6f77000000000000000081525060200191505060405180910390fd5b600260009054906101000a900473ffffffffffffffffffffffffffffffffffffffff1673ffffffffffffffffffffffffffffffffffffffff1663693ec85e6040805190810160405280600f81526020017f636173682d696e2d73746f7261676500000000000000000000000000000000008152506040518263ffffffff167c01000000000000000000000000000000000000000000000000000000000281526004018080602001828103825283818151815260200191508051906020019080838360005b838110156116b957808201518184015260208101905061169e565b50505050905090810190601f1680156116e65780820380516001836020036101000a031916815260200191505b5092505050602060405180830381600087803b15801561170557600080fd5b505af1158015611719573d6000803e3d6000fd5b505050506040513d602081101561172f57600080fd5b810190808051906020019092919050505073ffffffffffffffffffffffffffffffffffffffff1663c06e88648d896040518363ffffffff167c01000000000000000000000000000000000000000000000000000000000281526004018083815260200182815260200192505050600060405180830381600087803b1580156117b657600080fd5b505af11580156117ca573d6000803e3d6000fd5b50505050600260009054906101000a900473ffffffffffffffffffffffffffffffffffffffff1673ffffffffffffffffffffffffffffffffffffffff1663693ec85e6040805190810160405280600f81526020017f636173682d696e2d73746f7261676500000000000000000000000000000000008152506040518263ffffffff167c01000000000000000000000000000000000000000000000000000000000281526004018080602001828103825283818151815260200191508051906020019080838360005b838110156118ad578082015181840152602081019050611892565b50505050905090810190601f1680156118da5780820380516001836020036101000a031916815260200191505b5092505050602060405180830381600087803b1580156118f957600080fd5b505af115801561190d573d6000803e3d6000fd5b505050506040513d602081101561192357600080fd5b810190808051906020019092919050505073ffffffffffffffffffffffffffffffffffffffff166390fea94a8d611975896119678c8e6155a690919063ffffffff16565b6155a690919063ffffffff16565b6040518363ffffffff167c01000000000000000000000000000000000000000000000000000000000281526004018083815260200182815260200192505050600060405180830381600087803b1580156119ce57600080fd5b505af11580156119e2573d6000803e3d6000fd5b50505050600260009054906101000a900473ffffffffffffffffffffffffffffffffffffffff1673ffffffffffffffffffffffffffffffffffffffff1663693ec85e6040805190810160405280600f81526020017f636173682d696e2d73746f7261676500000000000000000000000000000000008152506040518263ffffffff167c01000000000000000000000000000000000000000000000000000000000281526004018080602001828103825283818151815260200191508051906020019080838360005b83811015611ac5578082015181840152602081019050611aaa565b50505050905090810190601f168015611af25780820380516001836020036101000a031916815260200191505b5092505050602060405180830381600087803b158015611b1157600080fd5b505af1158015611b25573d6000803e3d6000fd5b505050506040513d6020811015611b3b57600080fd5b810190808051906020019092919050505073ffffffffffffffffffffffffffffffffffffffff166390bf10b08d8c8e6040518463ffffffff167c0100000000000000000000000000000000000000000000000000000000028152600401808481526020018060200180602001838103835285818151815260200191508051906020019060200280838360005b83811015611be2578082015181840152602081019050611bc7565b50505050905001838103825284818151815260200191508051906020019060200280838360005b83811015611c24578082015181840152602081019050611c09565b5050505090500195505050505050600060405180830381600087803b158015611c4c57600080fd5b505af1158015611c60573d6000803e3d6000fd5b50505050600260009054906101000a900473ffffffffffffffffffffffffffffffffffffffff1673ffffffffffffffffffffffffffffffffffffffff1663693ec85e6040805190810160405280600f81526020017f636173682d696e2d73746f7261676500000000000000000000000000000000008152506040518263ffffffff167c01000000000000000000000000000000000000000000000000000000000281526004018080602001828103825283818151815260200191508051906020019080838360005b83811015611d43578082015181840152602081019050611d28565b50505050905090810190601f168015611d705780820380516001836020036101000a031916815260200191505b5092505050602060405180830381600087803b158015611d8f57600080fd5b505af1158015611da3573d6000803e3d6000fd5b505050506040513d6020811015611db957600080fd5b810190808051906020019092919050505073ffffffffffffffffffffffffffffffffffffffff166382e408138d60036005811115611df357fe5b6040518363ffffffff167c01000000000000000000000000000000000000000000000000000000000281526004018083815260200182815260200192505050600060405180830381600087803b158015611e4c57600080fd5b505af1158015611e60573d6000803e3d6000fd5b50505050600260009054906101000a900473ffffffffffffffffffffffffffffffffffffffff1673ffffffffffffffffffffffffffffffffffffffff1663693ec85e6040805190810160405280600e81526020017f636173682d696e2d6f7261636c650000000000000000000000000000000000008152506040518263ffffffff167c01000000000000000000000000000000000000000000000000000000000281526004018080602001828103825283818151815260200191508051906020019080838360005b83811015611f43578082015181840152602081019050611f28565b50505050905090810190601f168015611f705780820380516001836020036101000a031916815260200191505b5092505050602060405180830381600087803b158015611f8f57600080fd5b505af1158015611fa3573d6000803e3d6000fd5b505050506040513d6020811015611fb957600080fd5b810190808051906020019092919050505073ffffffffffffffffffffffffffffffffffffffff1663596c89768e8e6040518363ffffffff167c01000000000000000000000000000000000000000000000000000000000281526004018083815260200182815260200192505050600060405180830381600087803b15801561204057600080fd5b505af1158015612054573d6000803e3d6000fd5b5050505060019850505050505050505095945050505050565b6000806000846001600581111561208057fe5b600260009054906101000a900473ffffffffffffffffffffffffffffffffffffffff1673ffffffffffffffffffffffffffffffffffffffff1663693ec85e6040805190810160405280600f81526020017f636173682d696e2d73746f7261676500000000000000000000000000000000008152506040518263ffffffff167c01000000000000000000000000000000000000000000000000000000000281526004018080602001828103825283818151815260200191508051906020019080838360005b8381101561215f578082015181840152602081019050612144565b50505050905090810190601f16801561218c5780820380516001836020036101000a031916815260200191505b5092505050602060405180830381600087803b1580156121ab57600080fd5b505af11580156121bf573d6000803e3d6000fd5b505050506040513d60208110156121d557600080fd5b810190808051906020019092919050505073ffffffffffffffffffffffffffffffffffffffff16635c622a0e836040518263ffffffff167c010000000000000000000000000000000000000000000000000000000002815260040180828152602001915050602060405180830381600087803b15801561225457600080fd5b505af1158015612268573d6000803e3d6000fd5b505050506040513d602081101561227e57600080fd5b8101908080519060200190929190505050141515612304576040517f08c379a00000000000000000000000000000000000000000000000000000000081526004018080602001828103825260178152602001807f43617368496e20696e20696c6c6567616c20737461746500000000000000000081525060200191505060405180910390fd5b600260009054906101000a900473ffffffffffffffffffffffffffffffffffffffff1673ffffffffffffffffffffffffffffffffffffffff1663693ec85e6040805190810160405280600f81526020017f636173682d696e2d73746f7261676500000000000000000000000000000000008152506040518263ffffffff167c01000000000000000000000000000000000000000000000000000000000281526004018080602001828103825283818151815260200191508051906020019080838360005b838110156123e35780820151818401526020810190506123c8565b50505050905090810190601f1680156124105780820380516001836020036101000a031916815260200191505b5092505050602060405180830381600087803b15801561242f57600080fd5b505af1158015612443573d6000803e3d6000fd5b505050506040513d602081101561245957600080fd5b810190808051906020019092919050505073ffffffffffffffffffffffffffffffffffffffff16631e010439876040518263ffffffff167c010000000000000000000000000000000000000000000000000000000002815260040180828152602001915050602060405180830381600087803b1580156124d857600080fd5b505af11580156124ec573d6000803e3d6000fd5b505050506040513d602081101561250257600080fd5b81019080805190602001909291905050509350600260009054906101000a900473ffffffffffffffffffffffffffffffffffffffff1673ffffffffffffffffffffffffffffffffffffffff1663693ec85e6040805190810160405280600f81526020017f636173682d696e2d73746f7261676500000000000000000000000000000000008152506040518263ffffffff167c01000000000000000000000000000000000000000000000000000000000281526004018080602001828103825283818151815260200191508051906020019080838360005b838110156125f45780820151818401526020810190506125d9565b50505050905090810190601f1680156126215780820380516001836020036101000a031916815260200191505b5092505050602060405180830381600087803b15801561264057600080fd5b505af1158015612654573d6000803e3d6000fd5b505050506040513d602081101561266a57600080fd5b810190808051906020019092919050505073ffffffffffffffffffffffffffffffffffffffff16634a4b9feb878787016040518363ffffffff167c01000000000000000000000000000000000000000000000000000000000281526004018083815260200182815260200192505050600060405180830381600087803b1580156126f357600080fd5b505af1158015612707573d6000803e3d6000fd5b50505050600260009054906101000a900473ffffffffffffffffffffffffffffffffffffffff1673ffffffffffffffffffffffffffffffffffffffff1663693ec85e6040805190810160405280600f81526020017f636173682d696e2d73746f7261676500000000000000000000000000000000008152506040518263ffffffff167c01000000000000000000000000000000000000000000000000000000000281526004018080602001828103825283818151815260200191508051906020019080838360005b838110156127ea5780820151818401526020810190506127cf565b50505050905090810190601f1680156128175780820380516001836020036101000a031916815260200191505b5092505050602060405180830381600087803b15801561283657600080fd5b505af115801561284a573d6000803e3d6000fd5b505050506040513d602081101561286057600080fd5b810190808051906020019092919050505073ffffffffffffffffffffffffffffffffffffffff1663baa135d4876040518263ffffffff167c0100000000000000000000000000000000000000000000000000000000028152600401808281526020019150506040805180830381600087803b1580156128de57600080fd5b505af11580156128f2573d6000803e3d6000fd5b505050506040513d604081101561290857600080fd5b810190808051906020019092919080519060200190929190505050925092508273ffffffffffffffffffffffffffffffffffffffff1663fc7055dd8787856040518463ffffffff167c0100000000000000000000000000000000000000000000000000000000028152600401808481526020018381526020018281526020019350505050600060405180830381600087803b1580156129a657600080fd5b505af11580156129ba573d6000803e3d6000fd5b50505050505050505050565b600080600060058111156129d657fe5b600260009054906101000a900473ffffffffffffffffffffffffffffffffffffffff1673ffffffffffffffffffffffffffffffffffffffff1663693ec85e6040805190810160405280600f81526020017f636173682d696e2d73746f7261676500000000000000000000000000000000008152506040518263ffffffff167c01000000000000000000000000000000000000000000000000000000000281526004018080602001828103825283818151815260200191508051906020019080838360005b83811015612ab5578082015181840152602081019050612a9a565b50505050905090810190601f168015612ae25780820380516001836020036101000a031916815260200191505b5092505050602060405180830381600087803b158015612b0157600080fd5b505af1158015612b15573d6000803e3d6000fd5b505050506040513d6020811015612b2b57600080fd5b810190808051906020019092919050505073ffffffffffffffffffffffffffffffffffffffff16635c622a0e856040518263ffffffff167c010000000000000000000000000000000000000000000000000000000002815260040180828152602001915050602060405180830381600087803b158015612baa57600080fd5b505af1158015612bbe573d6000803e3d6000fd5b505050506040513d6020811015612bd457600080fd5b8101908080519060200190929190505050141515612bf157600080fd5b600260009054906101000a900473ffffffffffffffffffffffffffffffffffffffff1673ffffffffffffffffffffffffffffffffffffffff1663693ec85e6040805190810160405280600f81526020017f636173682d696e2d73746f7261676500000000000000000000000000000000008152506040518263ffffffff167c01000000000000000000000000000000000000000000000000000000000281526004018080602001828103825283818151815260200191508051906020019080838360005b83811015612cd0578082015181840152602081019050612cb5565b50505050905090810190601f168015612cfd5780820380516001836020036101000a031916815260200191505b5092505050602060405180830381600087803b158015612d1c57600080fd5b505af1158015612d30573d6000803e3d6000fd5b505050506040513d6020811015612d4657600080fd5b810190808051906020019092919050505073ffffffffffffffffffffffffffffffffffffffff1663baa135d4846040518263ffffffff167c0100000000000000000000000000000000000000000000000000000000028152600401808281526020019150506040805180830381600087803b158015612dc457600080fd5b505af1158015612dd8573d6000803e3d6000fd5b505050506040513d6040811015612dee57600080fd5b81019080805190602001909291908051906020019092919050505091509150600260009054906101000a900473ffffffffffffffffffffffffffffffffffffffff1673ffffffffffffffffffffffffffffffffffffffff1663693ec85e6040805190810160405280600f81526020017f636173682d696e2d73746f7261676500000000000000000000000000000000008152506040518263ffffffff167c01000000000000000000000000000000000000000000000000000000000281526004018080602001828103825283818151815260200191508051906020019080838360005b83811015612eec578082015181840152602081019050612ed1565b50505050905090810190601f168015612f195780820380516001836020036101000a031916815260200191505b5092505050602060405180830381600087803b158015612f3857600080fd5b505af1158015612f4c573d6000803e3d6000fd5b505050506040513d6020811015612f6257600080fd5b810190808051906020019092919050505073ffffffffffffffffffffffffffffffffffffffff166382e408138460016005811115612f9c57fe5b6040518363ffffffff167c01000000000000000000000000000000000000000000000000000000000281526004018083815260200182815260200192505050600060405180830381600087803b158015612ff557600080fd5b505af1158015613009573d6000803e3d6000fd5b505050508173ffffffffffffffffffffffffffffffffffffffff16636886a5c284836040518363ffffffff167c01000000000000000000000000000000000000000000000000000000000281526004018083815260200182815260200192505050600060405180830381600087803b15801561308457600080fd5b505af1158015613098573d6000803e3d6000fd5b50505050505050565b600080600080600080600360058111156130b757fe5b600260009054906101000a900473ffffffffffffffffffffffffffffffffffffffff1673ffffffffffffffffffffffffffffffffffffffff1663693ec85e6040805190810160405280600f81526020017f636173682d696e2d73746f7261676500000000000000000000000000000000008152506040518263ffffffff167c01000000000000000000000000000000000000000000000000000000000281526004018080602001828103825283818151815260200191508051906020019080838360005b8381101561319657808201518184015260208101905061317b565b50505050905090810190601f1680156131c35780820380516001836020036101000a031916815260200191505b5092505050602060405180830381600087803b1580156131e257600080fd5b505af11580156131f6573d6000803e3d6000fd5b505050506040513d602081101561320c57600080fd5b810190808051906020019092919050505073ffffffffffffffffffffffffffffffffffffffff16635c622a0e896040518263ffffffff167c010000000000000000000000000000000000000000000000000000000002815260040180828152602001915050602060405180830381600087803b15801561328b57600080fd5b505af115801561329f573d6000803e3d6000fd5b505050506040513d60208110156132b557600080fd5b81019080805190602001909291905050501415156132d257600080fd5b600260009054906101000a900473ffffffffffffffffffffffffffffffffffffffff1673ffffffffffffffffffffffffffffffffffffffff1663693ec85e6040805190810160405280600f81526020017f636173682d696e2d73746f7261676500000000000000000000000000000000008152506040518263ffffffff167c01000000000000000000000000000000000000000000000000000000000281526004018080602001828103825283818151815260200191508051906020019080838360005b838110156133b1578082015181840152602081019050613396565b50505050905090810190601f1680156133de5780820380516001836020036101000a031916815260200191505b5092505050602060405180830381600087803b1580156133fd57600080fd5b505af1158015613411573d6000803e3d6000fd5b505050506040513d602081101561342757600080fd5b810190808051906020019092919050505073ffffffffffffffffffffffffffffffffffffffff1663baa135d4886040518263ffffffff167c0100000000000000000000000000000000000000000000000000000000028152600401808281526020019150506040805180830381600087803b1580156134a557600080fd5b505af11580156134b9573d6000803e3d6000fd5b505050506040513d60408110156134cf57600080fd5b810190808051906020019092919080519060200190929190505050955095506137276000809054906101000a900473ffffffffffffffffffffffffffffffffffffffff16600260009054906101000a900473ffffffffffffffffffffffffffffffffffffffff1673ffffffffffffffffffffffffffffffffffffffff1663693ec85e6040805190810160405280600f81526020017f636173682d696e2d73746f7261676500000000000000000000000000000000008152506040518263ffffffff167c01000000000000000000000000000000000000000000000000000000000281526004018080602001828103825283818151815260200191508051906020019080838360005b838110156135f25780820151818401526020810190506135d7565b50505050905090810190601f16801561361f5780820380516001836020036101000a031916815260200191505b5092505050602060405180830381600087803b15801561363e57600080fd5b505af1158015613652573d6000803e3d6000fd5b505050506040513d602081101561366857600080fd5b810190808051906020019092919050505073ffffffffffffffffffffffffffffffffffffffff1663e63f44c88a6040518263ffffffff167c010000000000000000000000000000000000000000000000000000000002815260040180828152602001915050602060405180830381600087803b1580156136e757600080fd5b505af11580156136fb573d6000803e3d6000fd5b505050506040513d602081101561371157600080fd5b81019080805190602001909291905050506155c7565b600260009054906101000a900473ffffffffffffffffffffffffffffffffffffffff1673ffffffffffffffffffffffffffffffffffffffff1663693ec85e6040805190810160405280600f81526020017f636173682d696e2d73746f7261676500000000000000000000000000000000008152506040518263ffffffff167c01000000000000000000000000000000000000000000000000000000000281526004018080602001828103825283818151815260200191508051906020019080838360005b838110156138065780820151818401526020810190506137eb565b50505050905090810190601f1680156138335780820380516001836020036101000a031916815260200191505b5092505050602060405180830381600087803b15801561385257600080fd5b505af1158015613866573d6000803e3d6000fd5b505050506040513d602081101561387c57600080fd5b810190808051906020019092919050505073ffffffffffffffffffffffffffffffffffffffff16636b2611b8886040518263ffffffff167c010000000000000000000000000000000000000000000000000000000002815260040180828152602001915050602060405180830381600087803b1580156138fb57600080fd5b505af115801561390f573d6000803e3d6000fd5b505050506040513d602081101561392557600080fd5b81019080805190602001909291905050509350600084111561394c5761394b86856155c7565b5b600092505b600260009054906101000a900473ffffffffffffffffffffffffffffffffffffffff1673ffffffffffffffffffffffffffffffffffffffff1663693ec85e6040805190810160405280600f81526020017f636173682d696e2d73746f7261676500000000000000000000000000000000008152506040518263ffffffff167c01000000000000000000000000000000000000000000000000000000000281526004018080602001828103825283818151815260200191508051906020019080838360005b83811015613a30578082015181840152602081019050613a15565b50505050905090810190601f168015613a5d5780820380516001836020036101000a031916815260200191505b5092505050602060405180830381600087803b158015613a7c57600080fd5b505af1158015613a90573d6000803e3d6000fd5b505050506040513d6020811015613aa657600080fd5b810190808051906020019092919050505073ffffffffffffffffffffffffffffffffffffffff166333263ad6886040518263ffffffff167c010000000000000000000000000000000000000000000000000000000002815260040180828152602001915050602060405180830381600087803b158015613b2557600080fd5b505af1158015613b39573d6000803e3d6000fd5b505050506040513d6020811015613b4f57600080fd5b8101908080519060200190929190505050831015613da257600260009054906101000a900473ffffffffffffffffffffffffffffffffffffffff1673ffffffffffffffffffffffffffffffffffffffff1663693ec85e6040805190810160405280600f81526020017f636173682d696e2d73746f7261676500000000000000000000000000000000008152506040518263ffffffff167c01000000000000000000000000000000000000000000000000000000000281526004018080602001828103825283818151815260200191508051906020019080838360005b83811015613c46578082015181840152602081019050613c2b565b50505050905090810190601f168015613c735780820380516001836020036101000a031916815260200191505b5092505050602060405180830381600087803b158015613c9257600080fd5b505af1158015613ca6573d6000803e3d6000fd5b505050506040513d6020811015613cbc57600080fd5b810190808051906020019092919050505073ffffffffffffffffffffffffffffffffffffffff166333d43dbd88856040518363ffffffff167c010000000000000000000000000000000000000000000000000000000002815260040180838152602001828152602001925050506040805180830381600087803b158015613d4257600080fd5b505af1158015613d56573d6000803e3d6000fd5b505050506040513d6040811015613d6c57600080fd5b81019080805190602001909291908051906020019092919050505091509150613d9582826155c7565b8280600101935050613951565b600260009054906101000a900473ffffffffffffffffffffffffffffffffffffffff1673ffffffffffffffffffffffffffffffffffffffff1663693ec85e6040805190810160405280600f81526020017f636173682d696e2d73746f7261676500000000000000000000000000000000008152506040518263ffffffff167c01000000000000000000000000000000000000000000000000000000000281526004018080602001828103825283818151815260200191508051906020019080838360005b83811015613e81578082015181840152602081019050613e66565b50505050905090810190601f168015613eae5780820380516001836020036101000a031916815260200191505b5092505050602060405180830381600087803b158015613ecd57600080fd5b505af1158015613ee1573d6000803e3d6000fd5b505050506040513d6020811015613ef757600080fd5b810190808051906020019092919050505073ffffffffffffffffffffffffffffffffffffffff166382e408138860046005811115613f3157fe5b6040518363ffffffff167c01000000000000000000000000000000000000000000000000000000000281526004018083815260200182815260200192505050600060405180830381600087803b158015613f8a57600080fd5b505af1158015613f9e573d6000803e3d6000fd5b50505050600260009054906101000a900473ffffffffffffffffffffffffffffffffffffffff1673ffffffffffffffffffffffffffffffffffffffff1663693ec85e6040805190810160405280600f81526020017f73657373696f6e2d73746f7261676500000000000000000000000000000000008152506040518263ffffffff167c01000000000000000000000000000000000000000000000000000000000281526004018080602001828103825283818151815260200191508051906020019080838360005b83811015614081578082015181840152602081019050614066565b50505050905090810190601f1680156140ae5780820380516001836020036101000a031916815260200191505b5092505050602060405180830381600087803b1580156140cd57600080fd5b505af11580156140e1573d6000803e3d6000fd5b505050506040513d60208110156140f757600080fd5b810190808051906020019092919050505073ffffffffffffffffffffffffffffffffffffffff1663fd198b2c8660006040518363ffffffff167c0100000000000000000000000000000000000000000000000000000000028152600401808381526020018215151515815260200192505050600060405180830381600087803b15801561418357600080fd5b505af1158015614197573d6000803e3d6000fd5b505050508573ffffffffffffffffffffffffffffffffffffffff166352fd43a188876040518363ffffffff167c01000000000000000000000000000000000000000000000000000000000281526004018083815260200182815260200192505050600060405180830381600087803b15801561421257600080fd5b505af1158015614226573d6000803e3d6000fd5b5050505050505050505050565b6000809054906101000a900473ffffffffffffffffffffffffffffffffffffffff1681565b6000806000600260009054906101000a900473ffffffffffffffffffffffffffffffffffffffff1673ffffffffffffffffffffffffffffffffffffffff1663693ec85e6040805190810160405280600f81526020017f73657373696f6e2d6d616e6167657200000000000000000000000000000000008152506040518263ffffffff167c01000000000000000000000000000000000000000000000000000000000281526004018080602001828103825283818151815260200191508051906020019080838360005b8381101561433c578082015181840152602081019050614321565b50505050905090810190601f1680156143695780820380516001836020036101000a031916815260200191505b5092505050602060405180830381600087803b15801561438857600080fd5b505af115801561439c573d6000803e3d6000fd5b505050506040513d60208110156143b257600080fd5b810190808051906020019092919050505073ffffffffffffffffffffffffffffffffffffffff166382afd23b866040518263ffffffff167c010000000000000000000000000000000000000000000000000000000002815260040180828152602001915050602060405180830381600087803b15801561443157600080fd5b505af1158015614445573d6000803e3d6000fd5b505050506040513d602081101561445b57600080fd5b810190808051906020019092919050505015156144e0576040517f08c379a000000000000000000000000000000000000000000000000000000000815260040180806020018281038252601c8152602001807f496c6c6567616c207374617465206f66207468652073657373696f6e0000000081525060200191505060405180910390fd5b600260009054906101000a900473ffffffffffffffffffffffffffffffffffffffff1673ffffffffffffffffffffffffffffffffffffffff1663693ec85e6040805190810160405280600f81526020017f73657373696f6e2d73746f7261676500000000000000000000000000000000008152506040518263ffffffff167c01000000000000000000000000000000000000000000000000000000000281526004018080602001828103825283818151815260200191508051906020019080838360005b838110156145bf5780820151818401526020810190506145a4565b50505050905090810190601f1680156145ec5780820380516001836020036101000a031916815260200191505b5092505050602060405180830381600087803b15801561460b57600080fd5b505af115801561461f573d6000803e3d6000fd5b505050506040513d602081101561463557600080fd5b810190808051906020019092919050505073ffffffffffffffffffffffffffffffffffffffff16635a1695af866040518263ffffffff167c010000000000000000000000000000000000000000000000000000000002815260040180828152602001915050602060405180830381600087803b1580156146b457600080fd5b505af11580156146c8573d6000803e3d6000fd5b505050506040513d60208110156146de57600080fd5b810190808051906020019092919050505015151561478a576040517f08c379a00000000000000000000000000000000000000000000000000000000081526004018080602001828103825260278152602001807f546865726520697320616c7265616479206f70656e656420636173682d696e2081526020017f6368616e6e656c0000000000000000000000000000000000000000000000000081525060400191505060405180910390fd5b600260009054906101000a900473ffffffffffffffffffffffffffffffffffffffff1673ffffffffffffffffffffffffffffffffffffffff1663693ec85e6040805190810160405280600f81526020017f73657373696f6e2d73746f7261676500000000000000000000000000000000008152506040518263ffffffff167c01000000000000000000000000000000000000000000000000000000000281526004018080602001828103825283818151815260200191508051906020019080838360005b8381101561486957808201518184015260208101905061484e565b50505050905090810190601f1680156148965780820380516001836020036101000a031916815260200191505b5092505050602060405180830381600087803b1580156148b557600080fd5b505af11580156148c9573d6000803e3d6000fd5b505050506040513d60208110156148df57600080fd5b810190808051906020019092919050505073ffffffffffffffffffffffffffffffffffffffff1663fd198b2c8660016040518363ffffffff167c0100000000000000000000000000000000000000000000000000000000028152600401808381526020018215151515815260200192505050600060405180830381600087803b15801561496b57600080fd5b505af115801561497f573d6000803e3d6000fd5b50505050600260009054906101000a900473ffffffffffffffffffffffffffffffffffffffff1673ffffffffffffffffffffffffffffffffffffffff1663693ec85e6040805190810160405280601381526020017f6170706c69636174696f6e2d73746f72616765000000000000000000000000008152506040518263ffffffff167c01000000000000000000000000000000000000000000000000000000000281526004018080602001828103825283818151815260200191508051906020019080838360005b83811015614a62578082015181840152602081019050614a47565b50505050905090810190601f168015614a8f5780820380516001836020036101000a031916815260200191505b5092505050602060405180830381600087803b158015614aae57600080fd5b505af1158015614ac2573d6000803e3d6000fd5b505050506040513d6020811015614ad857600080fd5b810190808051906020019092919050505073ffffffffffffffffffffffffffffffffffffffff1663ff78b452600260009054906101000a900473ffffffffffffffffffffffffffffffffffffffff1673ffffffffffffffffffffffffffffffffffffffff1663693ec85e6040805190810160405280600f81526020017f73657373696f6e2d73746f7261676500000000000000000000000000000000008152506040518263ffffffff167c01000000000000000000000000000000000000000000000000000000000281526004018080602001828103825283818151815260200191508051906020019080838360005b83811015614be3578082015181840152602081019050614bc8565b50505050905090810190601f168015614c105780820380516001836020036101000a031916815260200191505b5092505050602060405180830381600087803b158015614c2f57600080fd5b505af1158015614c43573d6000803e3d6000fd5b505050506040513d6020811015614c5957600080fd5b810190808051906020019092919050505073ffffffffffffffffffffffffffffffffffffffff1663985d7b7d886040518263ffffffff167c010000000000000000000000000000000000000000000000000000000002815260040180828152602001915050602060405180830381600087803b158015614cd857600080fd5b505af1158015614cec573d6000803e3d6000fd5b505050506040513d6020811015614d0257600080fd5b81019080805190602001909291905050506040518263ffffffff167c010000000000000000000000000000000000000000000000000000000002815260040180828152602001915050602060405180830381600087803b158015614d6557600080fd5b505af1158015614d79573d6000803e3d6000fd5b505050506040513d6020811015614d8f57600080fd5b810190808051906020019092919050505091508573ffffffffffffffffffffffffffffffffffffffff168273ffffffffffffffffffffffffffffffffffffffff16141515614e45576040517f08c379a000000000000000000000000000000000000000000000000000000000815260040180806020018281038252600e8152602001807f496c6c6567616c2061636365737300000000000000000000000000000000000081525060200191505060405180910390fd5b600260009054906101000a900473ffffffffffffffffffffffffffffffffffffffff1673ffffffffffffffffffffffffffffffffffffffff1663693ec85e6040805190810160405280601181526020017f706172616d657465722d73746f726167650000000000000000000000000000008152506040518263ffffffff167c01000000000000000000000000000000000000000000000000000000000281526004018080602001828103825283818151815260200191508051906020019080838360005b83811015614f24578082015181840152602081019050614f09565b50505050905090810190601f168015614f515780820380516001836020036101000a031916815260200191505b5092505050602060405180830381600087803b158015614f7057600080fd5b505af1158015614f84573d6000803e3d6000fd5b505050506040513d6020811015614f9a57600080fd5b810190808051906020019092919050505073ffffffffffffffffffffffffffffffffffffffff1663cc0a29e66040518163ffffffff167c0100000000000000000000000000000000000000000000000000000000028152600401602060405180830381600087803b15801561500e57600080fd5b505af1158015615022573d6000803e3d6000fd5b505050506040513d602081101561503857600080fd5b81019080805190602001909291905050509050600260009054906101000a900473ffffffffffffffffffffffffffffffffffffffff1673ffffffffffffffffffffffffffffffffffffffff1663693ec85e6040805190810160405280600f81526020017f636173682d696e2d73746f7261676500000000000000000000000000000000008152506040518263ffffffff167c01000000000000000000000000000000000000000000000000000000000281526004018080602001828103825283818151815260200191508051906020019080838360005b8381101561512a57808201518184015260208101905061510f565b50505050905090810190601f1680156151575780820380516001836020036101000a031916815260200191505b5092505050602060405180830381600087803b15801561517657600080fd5b505af115801561518a573d6000803e3d6000fd5b505050506040513d60208110156151a057600080fd5b810190808051906020019092919050505073ffffffffffffffffffffffffffffffffffffffff1663678bfef18684600060058111156151db57fe5b85896040518663ffffffff167c0100000000000000000000000000000000000000000000000000000000028152600401808681526020018573ffffffffffffffffffffffffffffffffffffffff1673ffffffffffffffffffffffffffffffffffffffff16815260200184815260200183815260200182815260200195505050505050602060405180830381600087803b15801561527757600080fd5b505af115801561528b573d6000803e3d6000fd5b505050506040513d60208110156152a157600080fd5b81019080805190602001909291905050509250600260009054906101000a900473ffffffffffffffffffffffffffffffffffffffff1673ffffffffffffffffffffffffffffffffffffffff1663693ec85e6040805190810160405280600e81526020017f636173682d696e2d6f7261636c650000000000000000000000000000000000008152506040518263ffffffff167c01000000000000000000000000000000000000000000000000000000000281526004018080602001828103825283818151815260200191508051906020019080838360005b83811015615393578082015181840152602081019050615378565b50505050905090810190601f1680156153c05780820380516001836020036101000a031916815260200191505b5092505050602060405180830381600087803b1580156153df57600080fd5b505af11580156153f3573d6000803e3d6000fd5b505050506040513d602081101561540957600080fd5b810190808051906020019092919050505073ffffffffffffffffffffffffffffffffffffffff16639f82ad8c86856000600581111561544457fe5b886040518563ffffffff167c010000000000000000000000000000000000000000000000000000000002815260040180858152602001848152602001838152602001828152602001945050505050600060405180830381600087803b1580156154ac57600080fd5b505af11580156154c0573d6000803e3d6000fd5b5050505050509392505050565b60008060008414156154e25760009150615504565b82840290508284828115156154f357fe5b0414151561550057600080fd5b8091505b5092915050565b60008060008311151561551d57600080fd5b828481151561552857fe5b0490508091505092915050565b600080600090505b825181101561557f57615570838281518110151561555757fe5b906020019060200201518361558590919063ffffffff16565b9150808060010191505061553d565b50919050565b600080828401905083811015151561559c57600080fd5b8091505092915050565b6000808383111515156155b857600080fd5b82840390508091505092915050565b600260009054906101000a900473ffffffffffffffffffffffffffffffffffffffff1673ffffffffffffffffffffffffffffffffffffffff1663693ec85e6040805190810160405280600d81526020017f746f6b656e2d6d616e61676572000000000000000000000000000000000000008152506040518263ffffffff167c01000000000000000000000000000000000000000000000000000000000281526004018080602001828103825283818151815260200191508051906020019080838360005b838110156156a657808201518184015260208101905061568b565b50505050905090810190601f1680156156d35780820380516001836020036101000a031916815260200191505b5092505050602060405180830381600087803b1580156156f257600080fd5b505af1158015615706573d6000803e3d6000fd5b505050506040513d602081101561571c57600080fd5b810190808051906020019092919050505073ffffffffffffffffffffffffffffffffffffffff1663a9059cbb83836040518363ffffffff167c0100000000000000000000000000000000000000000000000000000000028152600401808373ffffffffffffffffffffffffffffffffffffffff1673ffffffffffffffffffffffffffffffffffffffff16815260200182815260200192505050600060405180830381600087803b1580156157cf57600080fd5b505af11580156157e3573d6000803e3d6000fd5b5050505050505600a165627a7a723058207a28f6f30d39144b6754db81ff63b29fbfad195fe3cf998c1aaa9c8079b312bc0029",
  "source": "pragma solidity 0.4.24;\n\nimport \"../application/IApplication.sol\";\nimport {ACashInOracle} from \"../oracles/Oracles.sol\";\nimport {SafeMath} from \"../libs/Libraries.sol\";\nimport {ACashChannelsManager, ASessionManager, ATokenManager} from \"./Managers.sol\";\nimport \"../storages/Storages.sol\";\nimport \"../Platform.sol\";\n\ncontract CashChannelsManager is ACashChannelsManager, Named(\"cash-channels-manager\"), Mortal, Component {\n\n    using SafeMath for uint256;\n\n    string constant CASH_IN_STORAGE = \"cash-in-storage\";\n    string constant SESSION_STORAGE = \"session-storage\";\n    string constant APPLICATION_STORAGE = \"application-storage\";\n    string constant PARAMETER_STORAGE = \"parameter-storage\";\n    string constant SESSION_MANAGER = \"session-manager\";\n    string constant TOKEN_MANAGER = \"token-manager\";\n    string constant CASH_IN_ORACLE = \"cash-in-oracle\";\n\n    modifier cashInActive(uint256 _channelId) {\n        require(ACashInStorage(context.get(CASH_IN_STORAGE)).getStatus(_channelId) == uint256(CashInStatus.ACTIVE), \"CashIn in illegal state\");\n        _;\n    }\n\n    modifier appOwnsChannel(uint256 _channelId, address _application) {\n        require(ACashInStorage(context.get(CASH_IN_STORAGE)).getApplication(_channelId) == _application, \"Illegal access\");\n        _;\n    }\n\n    modifier channelBelongsToSession(uint256 _channelId, uint256 _sessionId) {\n        require(ACashInStorage(context.get(CASH_IN_STORAGE)).getSessionId(_channelId) == _sessionId, \"Arguments mismatch\");\n        _;\n    }\n\n    constructor(address _config) Component(_config) public {}\n\n    ///@dev cash-in channel could be created only if:\n    ///session is active; application owns the session; there is no active channels in the session\n    function openCashInChannel(address _application, uint256 _sessionId, uint256 _maxAmount) public returns (uint256 _channelId) {\n        require(ASessionManager(context.get(SESSION_MANAGER)).isActive(_sessionId), \"Illegal state of the session\");\n        require(!ASessionStorage(context.get(SESSION_STORAGE)).isHasActiveCashIn(_sessionId), \"There is already opened cash-in channel\");\n        ASessionStorage(context.get(SESSION_STORAGE)).setHasActiveCashIn(_sessionId, true);\n        address application = AnApplicationStorage(context.get(APPLICATION_STORAGE)).getApplicationAddress(ASessionStorage(context.get(SESSION_STORAGE)).getAppId(_sessionId));\n        require(application == _application, \"Illegal access\");\n        uint256 vaultLogicFee = AParameterStorage(context.get(PARAMETER_STORAGE)).getVLFee();\n        _channelId = ACashInStorage(context.get(CASH_IN_STORAGE)).save(_sessionId, application, uint256(CashInStatus.CREATING), vaultLogicFee, _maxAmount);\n        ACashInOracle(context.get(CASH_IN_ORACLE)).open(_sessionId, _channelId, uint256(CashInStatus.CREATING), _maxAmount);\n    }\n\n    function updateCashInBalance(uint256 channelId, uint256 amount) public cashInActive(channelId) {\n        uint256 currentBalance = ACashInStorage(context.get(CASH_IN_STORAGE)).getBalance(channelId);\n        ACashInStorage(context.get(CASH_IN_STORAGE)).setBalance(channelId, currentBalance + amount);\n        (address application, uint256 sessionId) = ACashInStorage(context.get(CASH_IN_STORAGE)).getApplicationAndSessionId(channelId);\n        IApplication(application).cashInBalanceUpdate(channelId, amount, sessionId);\n    }\n\n    function balanceOf(address _application, uint256 _channelId) public view returns (uint256) {\n        ACashInStorage cashInStorage = ACashInStorage(context.get(CASH_IN_STORAGE));\n        require(cashInStorage.getApplication(_channelId) == _application, \"Illegal access\");\n        return cashInStorage.getBalance(_channelId);\n    }\n\n    function closeCashInChannel(address _application, uint256 _sessionId, uint256 _channelId, uint256[] fees, address[] parties)\n    cashInActive(_channelId)\n    appOwnsChannel(_channelId, _application)\n    channelBelongsToSession(_channelId, _sessionId)\n    public returns (bool){\n        require(fees.length == parties.length, \"Illegal arguments\");\n        uint256 channelBalance = ACashInStorage(context.get(CASH_IN_STORAGE)).getBalance(_channelId);\n        uint256 vaultLogicFee = channelBalance.mul(AParameterStorage(context.get(PARAMETER_STORAGE)).getVLFee()).div(10000);\n        uint256 feesAmount = _sumOf(fees);\n        require(feesAmount.add(vaultLogicFee) <= channelBalance, \"Channel balance overflow\");\n        ACashInStorage(context.get(CASH_IN_STORAGE)).setVLFee(_channelId, vaultLogicFee);\n        ACashInStorage(context.get(CASH_IN_STORAGE)).setApplicationBalance(_channelId, channelBalance.sub(vaultLogicFee).sub(feesAmount));\n        ACashInStorage(context.get(CASH_IN_STORAGE)).addSplits(_channelId, parties, fees);\n        ACashInStorage(context.get(CASH_IN_STORAGE)).setStatus(_channelId, uint256(CashInStatus.CLOSE_REQUESTED));\n        ACashInOracle(context.get(CASH_IN_ORACLE)).close(_sessionId, _channelId);\n        return true;\n    }\n\n    function _sumOf(uint256[] _elements) private pure returns (uint256 _sum) {\n        for (uint256 i = 0; i < _elements.length; i++) _sum = _sum.add(_elements[i]);\n    }\n\n    function _transferAll(address[] _recepients, uint256[] _amounts) private {\n        for (uint256 j = 0; j < _recepients.length; j++) _transfer(_recepients[j], _amounts[j]);\n    }\n\n    function _transfer(address _recepient, uint256 amount) private {\n        ATokenManager(context.get(TOKEN_MANAGER)).transfer(_recepient, amount);\n    }\n\n    function confirmOpen(uint256 channelId) public {\n        require(ACashInStorage(context.get(CASH_IN_STORAGE)).getStatus(channelId) == uint256(CashInStatus.CREATING));\n        (address application, uint256 sessionId) = ACashInStorage(context.get(CASH_IN_STORAGE)).getApplicationAndSessionId(channelId);\n        ACashInStorage(context.get(CASH_IN_STORAGE)).setStatus(channelId, uint256(CashInStatus.ACTIVE));\n        IApplication(application).cashInChannelOpened(channelId, sessionId);\n    }\n\n    function confirmClose(uint256 channelId) public {\n        require(ACashInStorage(context.get(CASH_IN_STORAGE)).getStatus(channelId) == uint256(CashInStatus.CLOSE_REQUESTED));\n        (address application, uint256 sessionId) = ACashInStorage(context.get(CASH_IN_STORAGE)).getApplicationAndSessionId(channelId);\n        _transfer(owner, ACashInStorage(context.get(CASH_IN_STORAGE)).getVLFee(channelId));\n        uint256 applicationBalance = ACashInStorage(context.get(CASH_IN_STORAGE)).getApplicationBalance(channelId);\n        if (applicationBalance > 0) _transfer(application, applicationBalance);\n        for (uint256 i = 0; i < ACashInStorage(context.get(CASH_IN_STORAGE)).getSplitSize(channelId); i++) {\n            (address party, uint256 fee) = ACashInStorage(context.get(CASH_IN_STORAGE)).getSplit(channelId, i);\n            _transfer(party, fee);\n        }\n        ACashInStorage(context.get(CASH_IN_STORAGE)).setStatus(channelId, uint256(CashInStatus.CLOSED));\n        ASessionStorage(context.get(SESSION_STORAGE)).setHasActiveCashIn(sessionId, false);\n        IApplication(application).cashInChannelClosed(channelId, sessionId);\n    }\n\n}",
  "sourcePath": "/home/andrew/vault-logic-project/Development/test/vault-logic-api/truffle/contracts/managers/CashChannelsManager.sol",
  "compiler": {
    "name": "solc",
    "version": "0.4.24+commit.e67f0147.Emscripten.clang"
  },
  "schemaVersion": "2.0.1",
  "updatedAt": "2018-10-17T14:12:00.821Z"
}