{
  "contractName": "CashInOracle",
  "abi": [
    {
      "constant": true,
      "inputs": [],
      "name": "name",
      "outputs": [
        {
          "name": "",
          "type": "string"
        }
      ],
      "payable": false,
      "stateMutability": "view",
      "type": "function"
    },
    {
      "constant": false,
      "inputs": [],
      "name": "kill",
      "outputs": [],
      "payable": false,
      "stateMutability": "nonpayable",
      "type": "function"
    },
    {
      "constant": true,
      "inputs": [],
      "name": "owner",
      "outputs": [
        {
          "name": "",
          "type": "address"
        }
      ],
      "payable": false,
      "stateMutability": "view",
      "type": "function"
    },
    {
      "inputs": [
        {
          "name": "_config",
          "type": "address"
        }
      ],
      "payable": false,
      "stateMutability": "nonpayable",
      "type": "constructor"
    },
    {
      "anonymous": false,
      "inputs": [
        {
          "indexed": false,
          "name": "_commandId",
          "type": "uint256"
        },
        {
          "indexed": false,
          "name": "_sessionId",
          "type": "uint256"
        },
        {
          "indexed": false,
          "name": "_maxBalance",
          "type": "uint256"
        }
      ],
      "name": "OpenCashIn",
      "type": "event"
    },
    {
      "anonymous": false,
      "inputs": [
        {
          "indexed": false,
          "name": "_cashInId",
          "type": "uint256"
        },
        {
          "indexed": false,
          "name": "_sessionId",
          "type": "uint256"
        }
      ],
      "name": "CloseCashIn",
      "type": "event"
    },
    {
      "constant": false,
      "inputs": [
        {
          "name": "_commandId",
          "type": "uint256"
        },
        {
          "name": "_sessionId",
          "type": "uint256"
        },
        {
          "name": "_maxBalance",
          "type": "uint256"
        }
      ],
      "name": "onNextOpenCashIn",
      "outputs": [],
      "payable": false,
      "stateMutability": "nonpayable",
      "type": "function"
    },
    {
      "constant": false,
      "inputs": [
        {
          "name": "_commandId",
          "type": "uint256"
        }
      ],
      "name": "successOpen",
      "outputs": [],
      "payable": false,
      "stateMutability": "nonpayable",
      "type": "function"
    },
    {
      "constant": false,
      "inputs": [
        {
          "name": "channelId",
          "type": "uint256"
        },
        {
          "name": "amount",
          "type": "uint256"
        }
      ],
      "name": "increaseBalance",
      "outputs": [],
      "payable": false,
      "stateMutability": "nonpayable",
      "type": "function"
    },
    {
      "constant": false,
      "inputs": [
        {
          "name": "_commandId",
          "type": "uint256"
        }
      ],
      "name": "failOpen",
      "outputs": [],
      "payable": false,
      "stateMutability": "nonpayable",
      "type": "function"
    },
    {
      "constant": false,
      "inputs": [
        {
          "name": "_commandId",
          "type": "uint256"
        },
        {
          "name": "_sessionId",
          "type": "uint256"
        }
      ],
      "name": "onNextCloseCashIn",
      "outputs": [],
      "payable": false,
      "stateMutability": "nonpayable",
      "type": "function"
    },
    {
      "constant": false,
      "inputs": [
        {
          "name": "_commandId",
          "type": "uint256"
        }
      ],
      "name": "successClose",
      "outputs": [],
      "payable": false,
      "stateMutability": "nonpayable",
      "type": "function"
    },
    {
      "constant": false,
      "inputs": [
        {
          "name": "_commandId",
          "type": "uint256"
        }
      ],
      "name": "failClose",
      "outputs": [],
      "payable": false,
      "stateMutability": "nonpayable",
      "type": "function"
    }
  ],
  "bytecode": "0x608060405234801561001057600080fd5b5060405160208062000cfd8339810160408181529151828201909252600e8082527f636173682d696e2d6f7261636c650000000000000000000000000000000000006020830190815260008054600160a060020a0319163317905583929161007a916001916102a8565b505080600160a060020a031663713b563f6040518163ffffffff167c0100000000000000000000000000000000000000000000000000000000028152600401602060405180830381600087803b1580156100d357600080fd5b505af11580156100e7573d6000803e3d6000fd5b505050506040513d60208110156100fd57600080fd5b505160038054600160a060020a031916600160a060020a03928316179055604080517fd0496d6a00000000000000000000000000000000000000000000000000000000815290519183169163d0496d6a916004808201926020929091908290030181600087803b15801561017057600080fd5b505af1158015610184573d6000803e3d6000fd5b505050506040513d602081101561019a57600080fd5b505160028054600160a060020a031916600160a060020a03928316178082556040517ff2c298be00000000000000000000000000000000000000000000000000000000815260206004820190815260018054610100818316150260001901169490940460248301819052929094169363f2c298be939290918291604490910190849080156102695780601f1061023e57610100808354040283529160200191610269565b820191906000526020600020905b81548152906001019060200180831161024c57829003601f168201915b505092505050600060405180830381600087803b15801561028957600080fd5b505af115801561029d573d6000803e3d6000fd5b505050505050610343565b828054600181600116156101000203166002900490600052602060002090601f016020900481019282601f106102e957805160ff1916838001178555610316565b82800160010185558215610316579182015b828111156103165782518255916020019190600101906102fb565b50610322929150610326565b5090565b61034091905b80821115610322576000815560010161032c565b90565b6109aa80620003536000396000f3006080604052600436106100a35763ffffffff7c010000000000000000000000000000000000000000000000000000000060003504166306fdde0381146100a857806328ac71181461013257806341c0e1b51461014f57806352bfd1ce1461016457806375da247a1461017c5780638da5cb5b14610194578063a0e36aba146101c5578063c2a92192146101dd578063f479d377146101f5578063f61f069c14610210575b600080fd5b3480156100b457600080fd5b506100bd61022e565b6040805160208082528351818301528351919283929083019185019080838360005b838110156100f75781810151838201526020016100df565b50505050905090810190601f1680156101245780820380516001836020036101000a031916815260200191505b509250505060405180910390f35b34801561013e57600080fd5b5061014d6004356024356102bb565b005b34801561015b57600080fd5b5061014d6102fa565b34801561017057600080fd5b5061014d600435610377565b34801561018857600080fd5b5061014d600435610512565b3480156101a057600080fd5b506101a961070b565b60408051600160a060020a039092168252519081900360200190f35b3480156101d157600080fd5b5061014d60043561071a565b3480156101e957600080fd5b5061014d60043561071d565b34801561020157600080fd5b5061014d600435602435610796565b34801561021c57600080fd5b5061014d600435602435604435610939565b60018054604080516020600284861615610100026000190190941693909304601f810184900484028201840190925281815292918301828280156102b35780601f10610288576101008083540402835291602001916102b3565b820191906000526020600020905b81548152906001019060200180831161029657829003601f168201915b505050505081565b604080518381526020810183905281517f52e3b18263b18761b9533091a4bd773927ef0f235b43d9dccb01e0c6484daf73929181900390910190a15050565b600054600160a060020a0316321461037357604080517f08c379a000000000000000000000000000000000000000000000000000000000815260206004820152601260248201527f6f6e6c79206f776e657220616c6c6f7765640000000000000000000000000000604482015290519081900360640190fd5b6000ff5b600254604080518082018252600f81527f636173682d696e2d6d616e616765720000000000000000000000000000000000602080830191825292517f693ec85e00000000000000000000000000000000000000000000000000000000815260048101938452825160248201528251600160a060020a039095169463693ec85e949283926044019180838360005b8381101561041c578181015183820152602001610404565b50505050905090810190601f1680156104495780820380516001836020036101000a031916815260200191505b5092505050602060405180830381600087803b15801561046857600080fd5b505af115801561047c573d6000803e3d6000fd5b505050506040513d602081101561049257600080fd5b5051604080517f882d5f7a000000000000000000000000000000000000000000000000000000008152600481018490529051600160a060020a039092169163882d5f7a9160248082019260009290919082900301818387803b1580156104f757600080fd5b505af115801561050b573d6000803e3d6000fd5b5050505050565b600054600160a060020a0316331461058b57604080517f08c379a000000000000000000000000000000000000000000000000000000000815260206004820152601260248201527f6f6e6c79206f776e657220616c6c6f7765640000000000000000000000000000604482015290519081900360640190fd5b600254604080518082018252600f81527f636173682d696e2d6d616e616765720000000000000000000000000000000000602080830191825292517f693ec85e00000000000000000000000000000000000000000000000000000000815260048101938452825160248201528251600160a060020a039095169463693ec85e949283926044019180838360005b83811015610630578181015183820152602001610618565b50505050905090810190601f16801561065d5780820380516001836020036101000a031916815260200191505b5092505050602060405180830381600087803b15801561067c57600080fd5b505af1158015610690573d6000803e3d6000fd5b505050506040513d60208110156106a657600080fd5b5051604080517f5940c655000000000000000000000000000000000000000000000000000000008152600481018490529051600160a060020a0390921691635940c6559160248082019260009290919082900301818387803b1580156104f757600080fd5b600054600160a060020a031681565b50565b600054600160a060020a0316331461071a57604080517f08c379a000000000000000000000000000000000000000000000000000000000815260206004820152601260248201527f6f6e6c79206f776e657220616c6c6f7765640000000000000000000000000000604482015290519081900360640190fd5b600254604080518082018252600f81527f636173682d696e2d6d616e616765720000000000000000000000000000000000602080830191825292517f693ec85e00000000000000000000000000000000000000000000000000000000815260048101938452825160248201528251600160a060020a039095169463693ec85e949283926044019180838360005b8381101561083b578181015183820152602001610823565b50505050905090810190601f1680156108685780820380516001836020036101000a031916815260200191505b5092505050602060405180830381600087803b15801561088757600080fd5b505af115801561089b573d6000803e3d6000fd5b505050506040513d60208110156108b157600080fd5b5051604080517f54e027d800000000000000000000000000000000000000000000000000000000815260048101859052602481018490529051600160a060020a03909216916354e027d89160448082019260009290919082900301818387803b15801561091d57600080fd5b505af1158015610931573d6000803e3d6000fd5b505050505050565b604080518481526020810184905280820183905290517fa0ca351a143349b8bf0cb616b17c89387132218bcb2408bd70411d906787ad2d9181900360600190a15050505600a165627a7a72305820e65a434429db831e3e84ea582b7196d9bba22a94749496363cabb67f2affb36c0029",
  "source": "pragma solidity 0.4.24;\n\nimport \"../platform/Named.sol\";\nimport \"../platform/Mortal.sol\";\nimport \"../platform/Component.sol\";\nimport \"../managers/api/ACashInManager.sol\";\nimport \"./api/ACashInOracle.sol\";\n\ncontract CashInOracle is ACashInOracle, Named(\"cash-in-oracle\"), Mortal, Component {\n\n    string constant MANAGER = \"cash-in-manager\";\n\n    constructor(address _config) Component(_config) public {}\n\n    function onNextOpenCashIn(uint256 _commandId, uint256 _sessionId, uint256 _maxBalance) public {\n        emit OpenCashIn(_commandId, _sessionId, _maxBalance);\n    }\n\n    function successOpen(uint256 _commandId) public onlyOwner {\n        ACashInManager(context.get(MANAGER)).confirmOpen(_commandId);\n    }\n\n    function increaseBalance(uint256 channelId, uint256 amount) public {\n        ACashInManager(context.get(MANAGER)).updateCashInBalance(channelId, amount);\n    }\n\n    function failOpen(uint256 _commandId) public onlyOwner {\n        //TODO:implementation: add ACashInManager::confirmFailOpen(uint256 _commandId) call\n    }\n\n    function onNextCloseCashIn(uint256 _commandId, uint256 _sessionId) public {\n        emit CloseCashIn(_commandId, _sessionId);\n    }\n\n    function successClose(uint256 _commandId) public {\n        ACashInManager(context.get(MANAGER)).confirmClose(_commandId);\n    }\n\n    function failClose(uint256 _commandId) public {\n        //TODO:implementation: add ACashInManager::confirmFailClose(uint256 _commandId) call\n    }\n\n}",
  "sourcePath": "/home/andrew/vault-logic-project/Development/test/vault-logic-api/truffle/contracts/oracles/CashInOracle.sol",
  "compiler": {
    "name": "solc",
    "version": "0.4.24+commit.e67f0147.Emscripten.clang"
  },
  "schemaVersion": "2.0.1",
  "updatedAt": "2018-11-06T08:44:56.249Z"
}