{
  "contractName": "CashInController",
  "abi": [
    {
      "constant": true,
      "inputs": [],
      "name": "name",
      "outputs": [
        {
          "name": "",
          "type": "string"
        }
      ],
      "payable": false,
      "stateMutability": "view",
      "type": "function"
    },
    {
      "constant": false,
      "inputs": [],
      "name": "kill",
      "outputs": [],
      "payable": false,
      "stateMutability": "nonpayable",
      "type": "function"
    },
    {
      "constant": true,
      "inputs": [],
      "name": "owner",
      "outputs": [
        {
          "name": "",
          "type": "address"
        }
      ],
      "payable": false,
      "stateMutability": "view",
      "type": "function"
    },
    {
      "inputs": [
        {
          "name": "_config",
          "type": "address"
        }
      ],
      "payable": false,
      "stateMutability": "nonpayable",
      "type": "constructor"
    },
    {
      "constant": false,
      "inputs": [
        {
          "name": "_sessionId",
          "type": "uint256"
        },
        {
          "name": "_maxBalance",
          "type": "uint256"
        },
        {
          "name": "_success",
          "type": "function"
        },
        {
          "name": "_update",
          "type": "function"
        },
        {
          "name": "_fail",
          "type": "function"
        }
      ],
      "name": "openCashInChannel",
      "outputs": [
        {
          "name": "_accepted",
          "type": "bool"
        }
      ],
      "payable": false,
      "stateMutability": "nonpayable",
      "type": "function"
    },
    {
      "constant": false,
      "inputs": [
        {
          "name": "_sessionId",
          "type": "uint256"
        },
        {
          "name": "_cashInId",
          "type": "uint256"
        },
        {
          "name": "_callback",
          "type": "function"
        }
      ],
      "name": "respondOpened",
      "outputs": [],
      "payable": false,
      "stateMutability": "nonpayable",
      "type": "function"
    },
    {
      "constant": false,
      "inputs": [
        {
          "name": "_sessionId",
          "type": "uint256"
        },
        {
          "name": "_callback",
          "type": "function"
        }
      ],
      "name": "respondFailOpen",
      "outputs": [],
      "payable": false,
      "stateMutability": "nonpayable",
      "type": "function"
    },
    {
      "constant": false,
      "inputs": [
        {
          "name": "_sessionId",
          "type": "uint256"
        },
        {
          "name": "_cashInId",
          "type": "uint256"
        },
        {
          "name": "_amount",
          "type": "uint256"
        },
        {
          "name": "_callback",
          "type": "function"
        }
      ],
      "name": "respondUpdate",
      "outputs": [],
      "payable": false,
      "stateMutability": "nonpayable",
      "type": "function"
    },
    {
      "constant": false,
      "inputs": [
        {
          "name": "_sessionId",
          "type": "uint256"
        },
        {
          "name": "_channelId",
          "type": "uint256"
        },
        {
          "name": "_fees",
          "type": "uint256[]"
        },
        {
          "name": "_parties",
          "type": "address[]"
        },
        {
          "name": "_success",
          "type": "function"
        },
        {
          "name": "_fail",
          "type": "function"
        }
      ],
      "name": "closeCashInChannel",
      "outputs": [
        {
          "name": "_accepted",
          "type": "bool"
        }
      ],
      "payable": false,
      "stateMutability": "nonpayable",
      "type": "function"
    },
    {
      "constant": false,
      "inputs": [
        {
          "name": "_sessionId",
          "type": "uint256"
        },
        {
          "name": "_cashInId",
          "type": "uint256"
        },
        {
          "name": "_callback",
          "type": "function"
        }
      ],
      "name": "respondClosed",
      "outputs": [],
      "payable": false,
      "stateMutability": "nonpayable",
      "type": "function"
    },
    {
      "constant": false,
      "inputs": [
        {
          "name": "_sessionId",
          "type": "uint256"
        },
        {
          "name": "_cashInId",
          "type": "uint256"
        },
        {
          "name": "_callback",
          "type": "function"
        }
      ],
      "name": "respondFailClose",
      "outputs": [],
      "payable": false,
      "stateMutability": "nonpayable",
      "type": "function"
    },
    {
      "constant": true,
      "inputs": [
        {
          "name": "_channelId",
          "type": "uint256"
        }
      ],
      "name": "balanceOf",
      "outputs": [
        {
          "name": "",
          "type": "uint256"
        }
      ],
      "payable": false,
      "stateMutability": "view",
      "type": "function"
    }
  ],
  "bytecode": "0x60806040523480156200001157600080fd5b50604051602080620016b7833981016040818152915182820190925260128082527f636173682d696e2d636f6e74726f6c6c657200000000000000000000000000006020830190815260008054600160a060020a031916331781558493909290916200008191600191906200044e565b505081600160a060020a031663713b563f6040518163ffffffff167c0100000000000000000000000000000000000000000000000000000000028152600401602060405180830381600087803b158015620000db57600080fd5b505af1158015620000f0573d6000803e3d6000fd5b505050506040513d60208110156200010757600080fd5b505160038054600160a060020a031916600160a060020a03928316179055604080517fd0496d6a00000000000000000000000000000000000000000000000000000000815290519184169163d0496d6a916004808201926020929091908290030181600087803b1580156200017b57600080fd5b505af115801562000190573d6000803e3d6000fd5b505050506040513d6020811015620001a757600080fd5b505160028054600160a060020a031916600160a060020a03928316178082556040517f693ec85e00000000000000000000000000000000000000000000000000000000815260206004820190815260018054610100818316150260001901169490940460248301819052929094169363693ec85e939290918291604490910190849080156200027a5780601f106200024e576101008083540402835291602001916200027a565b820191906000526020600020905b8154815290600101906020018083116200025c57829003601f168201915b505092505050602060405180830381600087803b1580156200029b57600080fd5b505af1158015620002b0573d6000803e3d6000fd5b505050506040513d6020811015620002c757600080fd5b50519050600160a060020a038116156200034d5780600160a060020a03166341c0e1b56040518163ffffffff167c0100000000000000000000000000000000000000000000000000000000028152600401600060405180830381600087803b1580156200033357600080fd5b505af115801562000348573d6000803e3d6000fd5b505050505b600280546040517ff2c298be00000000000000000000000000000000000000000000000000000000815260206004820190815260018054600019818316156101000201169490940460248301819052600160a060020a039093169363f2c298be9390928291604490910190849080156200040b5780601f10620003df576101008083540402835291602001916200040b565b820191906000526020600020905b815481529060010190602001808311620003ed57829003601f168201915b505092505050600060405180830381600087803b1580156200042c57600080fd5b505af115801562000441573d6000803e3d6000fd5b50505050505050620004f3565b828054600181600116156101000203166002900490600052602060002090601f016020900481019282601f106200049157805160ff1916838001178555620004c1565b82800160010185558215620004c1579182015b82811115620004c1578251825591602001919060010190620004a4565b50620004cf929150620004d3565b5090565b620004f091905b80821115620004cf5760008155600101620004da565b90565b6111b480620005036000396000f3006080604052600436106100945763ffffffff60e060020a6000350416620f1a96811461009957806306fdde03146100da578063192aed20146101645780632c903d11146101a6578063352c414c146101eb57806341c0e1b5146102cb578063455b5fc0146101645780638a933400146101645780638da5cb5b146102e05780639cc7f70814610311578063e5be8eec1461033b575b600080fd5b3480156100a557600080fd5b506100d86004356c010000000000000000000000006024359081049068010000000000000000900463ffffffff1661039a565b005b3480156100e657600080fd5b506100ef61054b565b6040805160208082528351818301528351919283929083019185019080838360005b83811015610129578181015183820152602001610111565b50505050905090810190601f1680156101565780820380516001836020036101000a031916815260200191505b509250505060405180910390f35b34801561017057600080fd5b506100d86004356024356c010000000000000000000000006044359081049068010000000000000000900463ffffffff166105d8565b3480156101b257600080fd5b506100d86004356024356044356c010000000000000000000000006064359081049068010000000000000000900463ffffffff16610792565b3480156101f757600080fd5b5060408051602060046044358181013583810280860185019096528085526102b7958335956024803596369695606495939492019291829185019084908082843750506040805187358901803560208181028481018201909552818452989b9a998901989297509082019550935083925085019084908082843750949750506c010000000000000000000000008535818104975063ffffffff680100000000000000009182900481169760200135928304965091041692506107fd915050565b604080519115158252519081900360200190f35b3480156102d757600080fd5b506100d8610b3a565b3480156102ec57600080fd5b506102f5610ba0565b60408051600160a060020a039092168252519081900360200190f35b34801561031d57600080fd5b50610329600435610baf565b60408051918252519081900360200190f35b34801561034757600080fd5b506102b76004356024356c010000000000000000000000006044358181049163ffffffff680100000000000000009283900481169260643583810493908290048316926084359182049290910416610db3565b600254604080518082018252601581526000805160206111698339815191526020808301918252925160e160020a63349f642f028152600481019384528251602482015282513395600160a060020a03169463693ec85e9493909283926044909101919080838360005b8381101561041c578181015183820152602001610404565b50505050905090810190601f1680156104495780820380516001836020036101000a031916815260200191505b5092505050602060405180830381600087803b15801561046857600080fd5b505af115801561047c573d6000803e3d6000fd5b505050506040513d602081101561049257600080fd5b5051600160a060020a0316146104f2576040805160e560020a62461bcd02815260206004820152601460248201527f6f6e6c79206d616e6167657220616c6c6f776564000000000000000000000000604482015290519081900360640190fd5b8181846040518263ffffffff1660e060020a02815260040180828152602001915050600060405180830381600087803b15801561052e57600080fd5b505af1158015610542573d6000803e3d6000fd5b50505050505050565b60018054604080516020600284861615610100026000190190941693909304601f810184900484028201840190925281815292918301828280156105d05780601f106105a5576101008083540402835291602001916105d0565b820191906000526020600020905b8154815290600101906020018083116105b357829003601f168201915b505050505081565b600254604080518082018252601581526000805160206111698339815191526020808301918252925160e160020a63349f642f028152600481019384528251602482015282513395600160a060020a03169463693ec85e9493909283926044909101919080838360005b8381101561065a578181015183820152602001610642565b50505050905090810190601f1680156106875780820380516001836020036101000a031916815260200191505b5092505050602060405180830381600087803b1580156106a657600080fd5b505af11580156106ba573d6000803e3d6000fd5b505050506040513d60208110156106d057600080fd5b5051600160a060020a031614610730576040805160e560020a62461bcd02815260206004820152601460248201527f6f6e6c79206d616e6167657220616c6c6f776564000000000000000000000000604482015290519081900360640190fd5b818185856040518363ffffffff1660e060020a0281526004018083815260200182815260200192505050600060405180830381600087803b15801561077457600080fd5b505af1158015610788573d6000803e3d6000fd5b5050505050505050565b81818686866040518463ffffffff1660e060020a028152600401808481526020018381526020018281526020019350505050600060405180830381600087803b1580156107de57600080fd5b505af11580156107f2573d6000803e3d6000fd5b505050505050505050565b60035460009061081c90600160a060020a03163363ffffffff610fcf16565b1515610872576040805160e560020a62461bcd02815260206004820152601760248201527f6f6e6c79207265676973746572656420616c6c6f776564000000000000000000604482015290519081900360640190fd5b85518751146108cb576040805160e560020a62461bcd02815260206004820152601f60248201527f73706c697420686173206e6f7420657175616c7320706172616d657465727300604482015290519081900360640190fd5b600254604080518082018252601581526000805160206111698339815191526020808301918252925160e160020a63349f642f02815260048101938452825160248201528251600160a060020a039095169463693ec85e949283926044019180838360005b83811015610948578181015183820152602001610930565b50505050905090810190601f1680156109755780820380516001836020036101000a031916815260200191505b5092505050602060405180830381600087803b15801561099457600080fd5b505af11580156109a8573d6000803e3d6000fd5b505050506040513d60208110156109be57600080fd5b50516040517f9b4908d60000000000000000000000000000000000000000000000000000000081523360048201818152602483018d9052604483018c905268010000000000000000640100000000808b0263ffffffff808c1691909117830260a4870152908902908816170260c484015260e0606484019081528b5160e48501528b51600160a060020a0390951694639b4908d6948f938f938f938f938f938f938f938f9360848101916101049091019060208b8101910280838360005b83811015610a94578181015183820152602001610a7c565b50505050905001838103825288818151815260200191508051906020019060200280838360005b83811015610ad3578181015183820152602001610abb565b505050509050019b505050505050505050505050602060405180830381600087803b158015610b0157600080fd5b505af1158015610b15573d6000803e3d6000fd5b505050506040513d6020811015610b2b57600080fd5b50519998505050505050505050565b600054600160a060020a03163214610b9c576040805160e560020a62461bcd02815260206004820152601260248201527f6f6e6c79206f776e657220616c6c6f7765640000000000000000000000000000604482015290519081900360640190fd5b6000ff5b600054600160a060020a031681565b600354600090610bce90600160a060020a03163363ffffffff610fcf16565b1515610c24576040805160e560020a62461bcd02815260206004820152601760248201527f6f6e6c79207265676973746572656420616c6c6f776564000000000000000000604482015290519081900360640190fd5b600254604080518082018252601581526000805160206111698339815191526020808301918252925160e160020a63349f642f02815260048101938452825160248201528251600160a060020a039095169463693ec85e949283926044019180838360005b83811015610ca1578181015183820152602001610c89565b50505050905090810190601f168015610cce5780820380516001836020036101000a031916815260200191505b5092505050602060405180830381600087803b158015610ced57600080fd5b505af1158015610d01573d6000803e3d6000fd5b505050506040513d6020811015610d1757600080fd5b5051604080517efdd58e000000000000000000000000000000000000000000000000000000008152336004820152602481018590529051600160a060020a039092169162fdd58e916044808201926020929091908290030181600087803b158015610d8157600080fd5b505af1158015610d95573d6000803e3d6000fd5b505050506040513d6020811015610dab57600080fd5b505192915050565b600354600090610dd290600160a060020a03163363ffffffff610fcf16565b1515610e28576040805160e560020a62461bcd02815260206004820152601760248201527f6f6e6c79207265676973746572656420616c6c6f776564000000000000000000604482015290519081900360640190fd5b600254604080518082018252601581526000805160206111698339815191526020808301918252925160e160020a63349f642f02815260048101938452825160248201528251600160a060020a039095169463693ec85e949283926044019180838360005b83811015610ea5578181015183820152602001610e8d565b50505050905090810190601f168015610ed25780820380516001836020036101000a031916815260200191505b5092505050602060405180830381600087803b158015610ef157600080fd5b505af1158015610f05573d6000803e3d6000fd5b505050506040513d6020811015610f1b57600080fd5b5051604080517fb05405e4000000000000000000000000000000000000000000000000000000008152336004820152602481018c9052604481018b905268010000000000000000640100000000808c0263ffffffff808d169190911783026064850152818b02818b161783026084850152908802908716170260a48201529051600160a060020a039092169163b05405e49160c4808201926020929091908290030181600087803b158015610b0157600080fd5b600082600160a060020a03166317e7dd226040805190810160405280601681526020017f6170706c69636174696f6e5f7265676973746572656400000000000000000000815250846040516020018083805190602001908083835b602083106110495780518252601f19909201916020918201910161102a565b6001836020036101000a03801982511681845116808217855250505050505090500182600160a060020a0316600160a060020a03166c01000000000000000000000000028152601401925050506040516020818303038152906040526040518082805190602001908083835b602083106110d45780518252601f1990920191602091820191016110b5565b51815160209384036101000a60001901801990921691161790526040805192909401829003822063ffffffff881660e060020a0283526004830152925160248083019650939450929083900301905081600087803b15801561113557600080fd5b505af1158015611149573d6000803e3d6000fd5b505050506040513d602081101561115f57600080fd5b505193925050505600636173682d6368616e6e656c732d6d616e616765720000000000000000000000a165627a7a7230582007a49dc9a5eb262f4d78014ebd7403498eaeefa44dab027654554c760f2ec03f0029",
  "source": "pragma solidity 0.4.24;\n\nimport {ApplicationLib} from \"../libs/Libraries.sol\";\nimport {ACashInController} from \"./Controllers.sol\";\nimport {ACashChannelsManager} from \"../managers/Managers.sol\";\nimport \"../Platform.sol\";\n\ncontract CashInController is ACashInController, Named(\"cash-in-controller\"), Mortal, Component {\n\n    using ApplicationLib for address;\n\n    string constant MANAGER = \"cash-channels-manager\";\n\n    modifier isRegistered {\n        require(database.isRegistered(msg.sender), \"only registered allowed\");\n        _;\n    }\n\n    modifier onlyManager {\n        require(context.get(MANAGER) == msg.sender, \"only manager allowed\");\n        _;\n    }\n\n    constructor(address _config) Component(_config) public {}\n\n    function openCashInChannel(\n        uint256 _sessionId,\n        uint256 _maxBalance,\n        function(uint256, uint256) external _success,\n        function(uint256, uint256, uint256) external _update,\n        function(uint256) external _fail\n    )\n        public\n        isRegistered\n        returns (bool _accepted)\n    {\n        _accepted = ACashChannelsManager(context.get(MANAGER)).openCashInChannel(msg.sender, _sessionId, _maxBalance, _success, _update, _fail);\n    }\n\n    function respondOpened(uint256 _sessionId, uint256 _cashInId, function(uint256, uint256) external _callback) public onlyManager {\n        _callback(_sessionId, _cashInId);\n    }\n\n    function respondFailOpen(uint256 _sessionId, function(uint256) external _callback) public onlyManager {\n        _callback(_sessionId);\n    }\n\n    function respondUpdate(\n        uint256 _sessionId,\n        uint256 _cashInId,\n        uint256 _amount,\n        function(uint256, uint256, uint256) external _callback\n    ) public\n    {\n        _callback(_sessionId, _cashInId, _amount);\n    }\n\n    function closeCashInChannel(\n        uint256 _sessionId,\n        uint256 _channelId,\n        uint256[] _fees,\n        address[] _parties,\n        function(uint256, uint256) external _success,\n        function(uint256, uint256) external _fail\n    )\n        public\n        isRegistered\n        returns (bool _accepted)\n    {\n        require(_fees.length == _parties.length, \"split has not equals parameters\");\n        _accepted = ACashChannelsManager(context.get(MANAGER)).closeCashInChannel(msg.sender, _sessionId, _channelId, _fees, _parties, _success, _fail);\n    }\n\n    function respondClosed(uint256 _sessionId, uint256 _cashInId, function(uint256, uint256) external _callback) public onlyManager {\n        _callback(_sessionId, _cashInId);\n    }\n\n    function respondFailClose(uint256 _sessionId, uint256 _cashInId, function(uint256, uint256) external _callback) public onlyManager {\n        _callback(_sessionId, _cashInId);\n    }\n\n    function balanceOf(uint256 _channelId) public view isRegistered returns (uint256) {\n        return ACashChannelsManager(context.get(MANAGER)).balanceOf(msg.sender, _channelId);\n    }\n\n}\n",
  "sourcePath": "/home/andrew/vault-logic-project/Development/test/vault-logic-api/truffle/contracts/controllers/CashInController.sol",
  "compiler": {
    "name": "solc",
    "version": "0.4.24+commit.e67f0147.Emscripten.clang"
  },
  "schemaVersion": "2.0.1",
  "updatedAt": "2018-10-24T08:36:59.846Z"
}