{
  "contractName": "CashOutManager",
  "abi": [
    {
      "constant": true,
      "inputs": [],
      "name": "name",
      "outputs": [
        {
          "name": "",
          "type": "string"
        }
      ],
      "payable": false,
      "stateMutability": "view",
      "type": "function"
    },
    {
      "constant": false,
      "inputs": [],
      "name": "kill",
      "outputs": [],
      "payable": false,
      "stateMutability": "nonpayable",
      "type": "function"
    },
    {
      "constant": true,
      "inputs": [],
      "name": "owner",
      "outputs": [
        {
          "name": "",
          "type": "address"
        }
      ],
      "payable": false,
      "stateMutability": "view",
      "type": "function"
    },
    {
      "inputs": [
        {
          "name": "_config",
          "type": "address"
        }
      ],
      "payable": false,
      "stateMutability": "nonpayable",
      "type": "constructor"
    },
    {
      "constant": false,
      "inputs": [
        {
          "name": "_application",
          "type": "address"
        },
        {
          "name": "_requestId",
          "type": "string"
        },
        {
          "name": "_kioskId",
          "type": "string"
        },
        {
          "name": "_toWithdraw",
          "type": "uint256"
        },
        {
          "name": "_fees",
          "type": "uint256[]"
        },
        {
          "name": "_parties",
          "type": "address[]"
        },
        {
          "name": "_fail",
          "type": "function"
        },
        {
          "name": "_success",
          "type": "function"
        }
      ],
      "name": "openCashOutChannel",
      "outputs": [],
      "payable": false,
      "stateMutability": "nonpayable",
      "type": "function"
    },
    {
      "constant": false,
      "inputs": [
        {
          "name": "_commandId",
          "type": "uint256"
        }
      ],
      "name": "confirmOpen",
      "outputs": [],
      "payable": false,
      "stateMutability": "nonpayable",
      "type": "function"
    },
    {
      "constant": false,
      "inputs": [
        {
          "name": "_commandId",
          "type": "uint256"
        }
      ],
      "name": "confirmFailOpen",
      "outputs": [],
      "payable": false,
      "stateMutability": "nonpayable",
      "type": "function"
    },
    {
      "constant": false,
      "inputs": [
        {
          "name": "_application",
          "type": "address"
        },
        {
          "name": "_sessionId",
          "type": "uint256"
        },
        {
          "name": "_cashOutId",
          "type": "uint256"
        },
        {
          "name": "_fail",
          "type": "function"
        },
        {
          "name": "_success",
          "type": "function"
        }
      ],
      "name": "validateCashOutChannel",
      "outputs": [],
      "payable": false,
      "stateMutability": "nonpayable",
      "type": "function"
    },
    {
      "constant": false,
      "inputs": [
        {
          "name": "_commandId",
          "type": "uint256"
        }
      ],
      "name": "confirmValidate",
      "outputs": [],
      "payable": false,
      "stateMutability": "nonpayable",
      "type": "function"
    },
    {
      "constant": false,
      "inputs": [
        {
          "name": "_commandId",
          "type": "uint256"
        }
      ],
      "name": "confirmFailValidate",
      "outputs": [],
      "payable": false,
      "stateMutability": "nonpayable",
      "type": "function"
    },
    {
      "constant": false,
      "inputs": [
        {
          "name": "_application",
          "type": "address"
        },
        {
          "name": "_sessionId",
          "type": "uint256"
        },
        {
          "name": "_cashOutId",
          "type": "uint256"
        },
        {
          "name": "_fail",
          "type": "function"
        },
        {
          "name": "_success",
          "type": "function"
        }
      ],
      "name": "closeCashOutChannel",
      "outputs": [],
      "payable": false,
      "stateMutability": "nonpayable",
      "type": "function"
    },
    {
      "constant": false,
      "inputs": [
        {
          "name": "_commandId",
          "type": "uint256"
        }
      ],
      "name": "confirmClose",
      "outputs": [],
      "payable": false,
      "stateMutability": "nonpayable",
      "type": "function"
    },
    {
      "constant": false,
      "inputs": [
        {
          "name": "_commandId",
          "type": "uint256"
        }
      ],
      "name": "confirmFailClose",
      "outputs": [],
      "payable": false,
      "stateMutability": "nonpayable",
      "type": "function"
    },
    {
      "constant": false,
      "inputs": [
        {
          "name": "_application",
          "type": "address"
        },
        {
          "name": "_cashOutId",
          "type": "uint256"
        },
        {
          "name": "_fail",
          "type": "function"
        },
        {
          "name": "_success",
          "type": "function"
        }
      ],
      "name": "rollbackCashOutChannel",
      "outputs": [],
      "payable": false,
      "stateMutability": "nonpayable",
      "type": "function"
    },
    {
      "constant": false,
      "inputs": [
        {
          "name": "_commandId",
          "type": "uint256"
        }
      ],
      "name": "confirmRollback",
      "outputs": [],
      "payable": false,
      "stateMutability": "nonpayable",
      "type": "function"
    },
    {
      "constant": false,
      "inputs": [
        {
          "name": "_commandId",
          "type": "uint256"
        }
      ],
      "name": "confirmFailRollback",
      "outputs": [],
      "payable": false,
      "stateMutability": "nonpayable",
      "type": "function"
    }
  ],
  "bytecode": "0x60806040523480156200001157600080fd5b5060405160208062003752833981016040818152915182820190925260108082527f636173682d6f75742d6d616e61676572000000000000000000000000000000006020830190815260008054600160a060020a031916331790558392916200007d91600191620002b8565b505080600160a060020a031663713b563f6040518163ffffffff167c0100000000000000000000000000000000000000000000000000000000028152600401602060405180830381600087803b158015620000d757600080fd5b505af1158015620000ec573d6000803e3d6000fd5b505050506040513d60208110156200010357600080fd5b505160038054600160a060020a031916600160a060020a03928316179055604080517fd0496d6a00000000000000000000000000000000000000000000000000000000815290519183169163d0496d6a916004808201926020929091908290030181600087803b1580156200017757600080fd5b505af11580156200018c573d6000803e3d6000fd5b505050506040513d6020811015620001a357600080fd5b505160028054600160a060020a031916600160a060020a03928316178082556040517ff2c298be00000000000000000000000000000000000000000000000000000000815260206004820190815260018054610100818316150260001901169490940460248301819052929094169363f2c298be93929091829160449091019084908015620002765780601f106200024a5761010080835404028352916020019162000276565b820191906000526020600020905b8154815290600101906020018083116200025857829003601f168201915b505092505050600060405180830381600087803b1580156200029757600080fd5b505af1158015620002ac573d6000803e3d6000fd5b5050505050506200035d565b828054600181600116156101000203166002900490600052602060002090601f016020900481019282601f10620002fb57805160ff19168380011785556200032b565b828001600101855582156200032b579182015b828111156200032b5782518255916020019190600101906200030e565b50620003399291506200033d565b5090565b6200035a91905b8082111562000339576000815560010162000344565b90565b6133e5806200036d6000396000f3006080604052600436106100c15763ffffffff60e060020a60003504166306fdde0381146100c657806330dc18c61461015057806341c0e1b5146102975780634250e51b146102ac5780635940c655146102f65780637eaa901f1461030e5780638439715814610326578063882d5f7a146103735780638da5cb5b1461038b57806394024af4146103bc578063c61307af146103d4578063d8fb4c60146103ec578063df37e8d814610404578063e79be9691461041c578063f4cea1ac14610434575b600080fd5b3480156100d257600080fd5b506100db610481565b6040805160208082528351818301528351919283929083019185019080838360005b838110156101155781810151838201526020016100fd565b50505050905090810190601f1680156101425780820380516001836020036101000a031916815260200191505b509250505060405180910390f35b34801561015c57600080fd5b5060408051602060046024803582810135601f8101859004850286018501909652858552610295958335600160a060020a031695369560449491939091019190819084018382808284375050604080516020601f89358b018035918201839004830284018301909452808352979a99988101979196509182019450925082915084018382808284375050604080516020808901358a01803580830284810184018652818552999c8b359c909b909a950198509296508101945090925082919085019084908082843750506040805187358901803560208181028481018201909552818452989b9a99890198929750908201955093508392508501908490808284375094975050606060020a8535818104975063ffffffff604060020a91829004811697602001359283049650910416925061050e915050565b005b3480156102a357600080fd5b50610295610aaa565b3480156102b857600080fd5b50610295600160a060020a0360043516602435606060020a6044358181049163ffffffff604060020a92839004811692606435928304920416610b27565b34801561030257600080fd5b50610295600435610e3f565b34801561031a57600080fd5b50610295600435611454565b34801561033257600080fd5b50610295600160a060020a0360043516602435604435606060020a6064358181049163ffffffff604060020a9283900481169260843592830492041661190d565b34801561037f57600080fd5b50610295600435611e2f565b34801561039757600080fd5b506103a061217e565b60408051600160a060020a039092168252519081900360200190f35b3480156103c857600080fd5b5061029560043561218d565b3480156103e057600080fd5b506102956004356124be565b3480156103f857600080fd5b506102956004356126f2565b34801561041057600080fd5b50610295600435612a29565b34801561042857600080fd5b50610295600435612c50565b34801561044057600080fd5b50610295600160a060020a0360043516602435604435606060020a6064358181049163ffffffff604060020a92839004811692608435928304920416612e84565b60018054604080516020600284861615610100026000190190941693909304601f810184900484028201840190925281815292918301828280156105065780601f106104db57610100808354040283529160200191610506565b820191906000526020600020905b8154815290600101906020018083116104e957829003601f168201915b505050505081565b6002546040805180820182526010815260008051602061339a8339815191526020808301918252925160e160020a63349f642f028152600481019384528251602482015282516000958695600160a060020a039091169463693ec85e9490939192839260440191908083838b5b8381101561059357818101518382015260200161057b565b50505050905090810190601f1680156105c05780820380516001836020036101000a031916815260200191505b5092505050602060405180830381600087803b1580156105df57600080fd5b505af11580156105f3573d6000803e3d6000fd5b505050506040513d602081101561060957600080fd5b5051604080517f36b70c61000000000000000000000000000000000000000000000000000000008152600160a060020a038f811660048301529151929450908416916336b70c61916024808201926020929091908290030181600087803b15801561067357600080fd5b505af1158015610687573d6000803e3d6000fd5b505050506040513d602081101561069d57600080fd5b8101908080519060200190929190505050905081600160a060020a0316631cd55659828d8d8a8a8a8a6040518863ffffffff1660e060020a028152600401808881526020018060200180602001878763ffffffff16906401000000000217604060020a028152602001858563ffffffff16906401000000000217604060020a028152602001838103835289818151815260200191508051906020019080838360005b8381101561075757818101518382015260200161073f565b50505050905090810190601f1680156107845780820380516001836020036101000a031916815260200191505b5083810382528851815288516020918201918a019080838360005b838110156107b757818101518382015260200161079f565b50505050905090810190601f1680156107e45780820380516001836020036101000a031916815260200191505b509950505050505050505050600060405180830381600087803b15801561080a57600080fd5b505af115801561081e573d6000803e3d6000fd5b5050505081600160a060020a0316638073ed07828b60016113888d8d6040518763ffffffff1660e060020a028152600401808781526020018681526020018581526020018481526020018060200180602001838103835285818151815260200191508051906020019060200280838360005b838110156108a8578181015183820152602001610890565b50505050905001838103825284818151815260200191508051906020019060200280838360005b838110156108e75781810151838201526020016108cf565b5050505090500198505050505050505050600060405180830381600087803b15801561091257600080fd5b505af1158015610926573d6000803e3d6000fd5b5050600254604080518082018252600f815260008051602061335a8339815191526020808301918252925160e160020a63349f642f02815260048101938452825160248201528251600160a060020a03909516965063693ec85e955091938392604401919080838360005b838110156109a9578181015183820152602001610991565b50505050905090810190601f1680156109d65780820380516001836020036101000a031916815260200191505b5092505050602060405180830381600087803b1580156109f557600080fd5b505af1158015610a09573d6000803e3d6000fd5b505050506040513d6020811015610a1f57600080fd5b5051604080517f105ecd49000000000000000000000000000000000000000000000000000000008152600481018490529051600160a060020a039092169163105ecd499160248082019260009290919082900301818387803b158015610a8457600080fd5b505af1158015610a98573d6000803e3d6000fd5b50505050505050505050505050505050565b600054600160a060020a03163214610b2357604080517f08c379a000000000000000000000000000000000000000000000000000000000815260206004820152601260248201527f6f6e6c79206f776e657220616c6c6f7765640000000000000000000000000000604482015290519081900360640190fd5b6000ff5b6002546040805180820182526010815260008051602061339a8339815191526020808301918252925160e160020a63349f642f02815260048101938452825160248201528251600160a060020a039095169463693ec85e949283926044019180838360005b83811015610ba4578181015183820152602001610b8c565b50505050905090810190601f168015610bd15780820380516001836020036101000a031916815260200191505b5092505050602060405180830381600087803b158015610bf057600080fd5b505af1158015610c04573d6000803e3d6000fd5b505050506040513d6020811015610c1a57600080fd5b5051604080517f9f7cf09500000000000000000000000000000000000000000000000000000000815260048101889052604060020a64010000000080890263ffffffff808a169190911783026024850152908702908616170260448201529051600160a060020a0390921691639f7cf0959160648082019260009290919082900301818387803b158015610cad57600080fd5b505af1158015610cc1573d6000803e3d6000fd5b5050600254604080518082018252600f815260008051602061335a8339815191526020808301918252925160e160020a63349f642f02815260048101938452825160248201528251600160a060020a03909516965063693ec85e955091938392604401919080838360005b83811015610d44578181015183820152602001610d2c565b50505050905090810190601f168015610d715780820380516001836020036101000a031916815260200191505b5092505050602060405180830381600087803b158015610d9057600080fd5b505af1158015610da4573d6000803e3d6000fd5b505050506040513d6020811015610dba57600080fd5b5051604080517f5a2c5cd0000000000000000000000000000000000000000000000000000000008152600481018890529051600160a060020a0390921691635a2c5cd09160248082019260009290919082900301818387803b158015610e1f57600080fd5b505af1158015610e33573d6000803e3d6000fd5b50505050505050505050565b6002546040805180820182526010815260008051602061339a8339815191526020808301918252925160e160020a63349f642f0281526004810193845282516024820152825160009560609586958895869586958695600160a060020a03169463693ec85e949390928392604490910191908083838b5b83811015610ece578181015183820152602001610eb6565b50505050905090810190601f168015610efb5780820380516001836020036101000a031916815260200191505b5092505050602060405180830381600087803b158015610f1a57600080fd5b505af1158015610f2e573d6000803e3d6000fd5b505050506040513d6020811015610f4457600080fd5b5051604080517fc9d88c24000000000000000000000000000000000000000000000000000000008152600481018b90529051919850600160a060020a0389169163c9d88c249160248082019260009290919082900301818387803b158015610fab57600080fd5b505af1158015610fbf573d6000803e3d6000fd5b505050506040513d6000823e601f3d908101601f191682016040526080811015610fe857600080fd5b81019080805164010000000081111561100057600080fd5b8201602081018481111561101357600080fd5b815164010000000081118282018710171561102d57600080fd5b5050929190602001805164010000000081111561104957600080fd5b8201602081018481111561105c57600080fd5b815164010000000081118282018710171561107657600080fd5b505060409182015182517fc0f962ae000000000000000000000000000000000000000000000000000000008152600481018f90529251959b50909950606060020a81049850604060020a900463ffffffff169650600160a060020a038b169363c0f962ae93506024808301935060009282900301818387803b1580156110fb57600080fd5b505af115801561110f573d6000803e3d6000fd5b505050506040513d6000823e601f3d908101601f1916820160405260a081101561113857600080fd5b815160208301516040840151606085018051939592949193918301929164010000000081111561116757600080fd5b8201602081018481111561117a57600080fd5b815185602082028301116401000000008211171561119757600080fd5b505092919060200180516401000000008111156111b357600080fd5b820160208101848111156111c657600080fd5b81518560208202830111640100000000821117156111e357600080fd5b50506002546040805180820182526013815260008051602061337a8339815191526020808301918252925160e160020a63349f642f028152600481019384528251602482015282519c9e509a9c50600160a060020a039093169a63693ec85e9a9199509197508796506044019450909250905080838360005b8381101561127457818101518382015260200161125c565b50505050905090810190601f1680156112a15780820380516001836020036101000a031916815260200191505b5092505050602060405180830381600087803b1580156112c057600080fd5b505af11580156112d4573d6000803e3d6000fd5b505050506040513d60208110156112ea57600080fd5b5051600160a060020a03166356d9278f87878b85606488040289896040518763ffffffff1660e060020a028152600401808060200180602001878152602001868152602001858563ffffffff16906401000000000217604060020a028152602001838103835289818151815260200191508051906020019080838360005b83811015611380578181015183820152602001611368565b50505050905090810190601f1680156113ad5780820380516001836020036101000a031916815260200191505b5083810382528851815288516020918201918a019080838360005b838110156113e05781810151838201526020016113c8565b50505050905090810190601f16801561140d5780820380516001836020036101000a031916815260200191505b5098505050505050505050600060405180830381600087803b15801561143257600080fd5b505af1158015611446573d6000803e3d6000fd5b505050505050505050505050565b6002546040805180820182526010815260008051602061339a8339815191526020808301918252925160e160020a63349f642f0281526004810193845282516024820152825160609586956000958695600160a060020a039093169463693ec85e94919383926044909201918083838b5b838110156114dd5781810151838201526020016114c5565b50505050905090810190601f16801561150a5780820380516001836020036101000a031916815260200191505b5092505050602060405180830381600087803b15801561152957600080fd5b505af115801561153d573d6000803e3d6000fd5b505050506040513d602081101561155357600080fd5b5051604080517fc9d88c24000000000000000000000000000000000000000000000000000000008152600481018890529051600160a060020a039092169163c9d88c249160248082019260009290919082900301818387803b1580156115b857600080fd5b505af11580156115cc573d6000803e3d6000fd5b505050506040513d6000823e601f3d908101601f1916820160405260808110156115f557600080fd5b81019080805164010000000081111561160d57600080fd5b8201602081018481111561162057600080fd5b815164010000000081118282018710171561163a57600080fd5b5050929190602001805164010000000081111561165657600080fd5b8201602081018481111561166957600080fd5b815164010000000081118282018710171561168357600080fd5b50506020918201516002546040805180820182526013815260008051602061337a833981519152818701908152915160e160020a63349f642f02815260048101968752815160248201528151999d50949b50606060020a84049a50604060020a90930463ffffffff169850600160a060020a039091169663693ec85e965091945083926044019180838360005b83811015611728578181015183820152602001611710565b50505050905090810190601f1680156117555780820380516001836020036101000a031916815260200191505b5092505050602060405180830381600087803b15801561177457600080fd5b505af1158015611788573d6000803e3d6000fd5b505050506040513d602081101561179e57600080fd5b50516040517f14eaeb10000000000000000000000000000000000000000000000000000000008152604060020a640100000000850263ffffffff851617026044820152606060048201908152865160648301528651600160a060020a03909316926314eaeb109288928892889288929182916024810191608490910190602089019080838360005b8381101561183e578181015183820152602001611826565b50505050905090810190601f16801561186b5780820380516001836020036101000a031916815260200191505b50838103825286518152865160209182019188019080838360005b8381101561189e578181015183820152602001611886565b50505050905090810190601f1680156118cb5780820380516001836020036101000a031916815260200191505b509650505050505050600060405180830381600087803b1580156118ee57600080fd5b505af1158015611902573d6000803e3d6000fd5b505050505050505050565b6002546040805180820182526010815260008051602061339a8339815191526020808301918252925160e160020a63349f642f028152600481019384528251602482015282516000958695606095600160a060020a039092169463693ec85e94929391928392604490910191908083838c5b8381101561199757818101518382015260200161197f565b50505050905090810190601f1680156119c45780820380516001836020036101000a031916815260200191505b5092505050602060405180830381600087803b1580156119e357600080fd5b505af11580156119f7573d6000803e3d6000fd5b505050506040513d6020811015611a0d57600080fd5b5051604080517f11ac7c7c000000000000000000000000000000000000000000000000000000008152600481018b9052602481018c9052604060020a640100000000808c0263ffffffff808d169190911783026044850152908a02908916170260648201529051919450600160a060020a038516916311ac7c7c9160848082019260009290919082900301818387803b158015611aa957600080fd5b505af1158015611abd573d6000803e3d6000fd5b5050505082600160a060020a031663c0f962ae896040518263ffffffff1660e060020a02815260040180828152602001915050600060405180830381600087803b158015611b0a57600080fd5b505af1158015611b1e573d6000803e3d6000fd5b505050506040513d6000823e601f3d908101601f1916820160405260a0811015611b4757600080fd5b8151602083015160408401516060850180519395929491939183019291640100000000811115611b7657600080fd5b82016020810184811115611b8957600080fd5b8151856020820283011164010000000082111715611ba657600080fd5b50509291906020018051640100000000811115611bc257600080fd5b82016020810184811115611bd557600080fd5b8151856020820283011164010000000082111715611bf257600080fd5b505060408051600280825260608201909252989a5096505050505050508160200160208202803883390190505090506005816000815181101515611c3257fe5b60209081029091010152805160149082906001908110611c4e57fe5b6020908102909101810191909152600254604080518082018252600f815260008051602061335a833981519152818501908152915160e160020a63349f642f02815260048101948552815160248201528151600160a060020a039094169463693ec85e94929390928392604401919080838360005b83811015611cdb578181015183820152602001611cc3565b50505050905090810190601f168015611d085780820380516001836020036101000a031916815260200191505b5092505050602060405180830381600087803b158015611d2757600080fd5b505af1158015611d3b573d6000803e3d6000fd5b505050506040513d6020811015611d5157600080fd5b50516040517f1188ad25000000000000000000000000000000000000000000000000000000008152600481018a8152602482018c905260448201859052608060648301908152845160848401528451600160a060020a0390941693631188ad25938d938f938993899360a401906020858101910280838360005b83811015611de3578181015183820152602001611dcb565b5050505090500195505050505050600060405180830381600087803b158015611e0b57600080fd5b505af1158015611e1f573d6000803e3d6000fd5b5050505050505050505050505050565b6002546040805180820182526010815260008051602061339a8339815191526020808301918252925160e160020a63349f642f0281526004810193845282516024820152825160009586958695600160a060020a039092169463693ec85e94929391928392604490910191908083838b5b83811015611eb8578181015183820152602001611ea0565b50505050905090810190601f168015611ee55780820380516001836020036101000a031916815260200191505b5092505050602060405180830381600087803b158015611f0457600080fd5b505af1158015611f18573d6000803e3d6000fd5b505050506040513d6020811015611f2e57600080fd5b5051604080517ff9029bc3000000000000000000000000000000000000000000000000000000008152600481018790529051600160a060020a039092169163f9029bc3916024808201926060929091908290030181600087803b158015611f9457600080fd5b505af1158015611fa8573d6000803e3d6000fd5b505050506040513d6060811015611fbe57600080fd5b508051604091820151600254835180850185526013815260008051602061337a8339815191526020828101918252955160e160020a63349f642f02815260048101968752825160248201528251959950606060020a85049850604060020a90940463ffffffff169650600160a060020a039092169463693ec85e9491939092839260449092019180838360005b8381101561206357818101518382015260200161204b565b50505050905090810190601f1680156120905780820380516001836020036101000a031916815260200191505b5092505050602060405180830381600087803b1580156120af57600080fd5b505af11580156120c3573d6000803e3d6000fd5b505050506040513d60208110156120d957600080fd5b5051604080517f192aed200000000000000000000000000000000000000000000000000000000081526004810186905260248101879052604060020a640100000000860263ffffffff8616170260448201529051600160a060020a039092169163192aed209160648082019260009290919082900301818387803b15801561216057600080fd5b505af1158015612174573d6000803e3d6000fd5b5050505050505050565b600054600160a060020a031681565b6002546040805180820182526010815260008051602061339a8339815191526020808301918252925160e160020a63349f642f0281526004810193845282516024820152825160009586958695600160a060020a039092169463693ec85e94929391928392604490910191908083838b5b838110156122165781810151838201526020016121fe565b50505050905090810190601f1680156122435780820380516001836020036101000a031916815260200191505b5092505050602060405180830381600087803b15801561226257600080fd5b505af1158015612276573d6000803e3d6000fd5b505050506040513d602081101561228c57600080fd5b5051604080517f22c53b3c000000000000000000000000000000000000000000000000000000008152600481018790529051600160a060020a03909216916322c53b3c916024808201926060929091908290030181600087803b1580156122f257600080fd5b505af1158015612306573d6000803e3d6000fd5b505050506040513d606081101561231c57600080fd5b508051604091820151600254835180850185526013815260008051602061337a8339815191526020828101918252955160e160020a63349f642f02815260048101968752825160248201528251959950606060020a85049850604060020a90940463ffffffff169650600160a060020a039092169463693ec85e9491939092839260449092019180838360005b838110156123c15781810151838201526020016123a9565b50505050905090810190601f1680156123ee5780820380516001836020036101000a031916815260200191505b5092505050602060405180830381600087803b15801561240d57600080fd5b505af1158015612421573d6000803e3d6000fd5b505050506040513d602081101561243757600080fd5b5051604080517f30fc80dc0000000000000000000000000000000000000000000000000000000081526004810186905260248101879052604060020a640100000000860263ffffffff8616170260448201529051600160a060020a03909216916330fc80dc9160648082019260009290919082900301818387803b15801561216057600080fd5b6002546040805180820182526010815260008051602061339a8339815191526020808301918252925160e160020a63349f642f0281526004810193845282516024820152825160009586958695600160a060020a039092169463693ec85e94929391928392604490910191908083838b5b8381101561254757818101518382015260200161252f565b50505050905090810190601f1680156125745780820380516001836020036101000a031916815260200191505b5092505050602060405180830381600087803b15801561259357600080fd5b505af11580156125a7573d6000803e3d6000fd5b505050506040513d60208110156125bd57600080fd5b5051604080517ff9029bc3000000000000000000000000000000000000000000000000000000008152600481018790529051600160a060020a039092169163f9029bc3916024808201926060929091908290030181600087803b15801561262357600080fd5b505af1158015612637573d6000803e3d6000fd5b505050506040513d606081101561264d57600080fd5b5080516020918201516002546040805180820182526013815260008051602061337a833981519152818701908152915160e160020a63349f642f02815260048101968752815160248201528151959950606060020a85049850604060020a90940463ffffffff169650600160a060020a039092169463693ec85e949293909283926044909201919080838360008381101561206357818101518382015260200161204b565b6002546040805180820182526010815260008051602061339a8339815191526020808301918252925160e160020a63349f642f028152600481019384528251602482015282516000958695600160a060020a039091169463693ec85e9490939192839260440191908083838b5b8381101561277757818101518382015260200161275f565b50505050905090810190601f1680156127a45780820380516001836020036101000a031916815260200191505b5092505050602060405180830381600087803b1580156127c357600080fd5b505af11580156127d7573d6000803e3d6000fd5b505050506040513d60208110156127ed57600080fd5b5051604080517f09a9f789000000000000000000000000000000000000000000000000000000008152600481018690528151600160a060020a03909316926309a9f789926024808401939192918290030181600087803b15801561285057600080fd5b505af1158015612864573d6000803e3d6000fd5b505050506040513d604081101561287a57600080fd5b50516002546040805180820182526013815260008051602061337a8339815191526020808301918252925160e160020a63349f642f02815260048101938452825160248201528251606060020a87049850604060020a90960463ffffffff169650600160a060020a039094169463693ec85e94929392839260449091019180838360005b838110156129165781810151838201526020016128fe565b50505050905090810190601f1680156129435780820380516001836020036101000a031916815260200191505b5092505050602060405180830381600087803b15801561296257600080fd5b505af1158015612976573d6000803e3d6000fd5b505050506040513d602081101561298c57600080fd5b5051604080517f011c6d2000000000000000000000000000000000000000000000000000000000815260048101869052604060020a640100000000860263ffffffff8616170260248201529051600160a060020a039092169163011c6d209160448082019260009290919082900301818387803b158015612a0c57600080fd5b505af1158015612a20573d6000803e3d6000fd5b50505050505050565b6002546040805180820182526010815260008051602061339a8339815191526020808301918252925160e160020a63349f642f028152600481019384528251602482015282516000958695600160a060020a039091169463693ec85e9490939192839260440191908083838b5b83811015612aae578181015183820152602001612a96565b50505050905090810190601f168015612adb5780820380516001836020036101000a031916815260200191505b5092505050602060405180830381600087803b158015612afa57600080fd5b505af1158015612b0e573d6000803e3d6000fd5b505050506040513d6020811015612b2457600080fd5b5051604080517f09a9f789000000000000000000000000000000000000000000000000000000008152600481018690528151600160a060020a03909316926309a9f789926024808401939192918290030181600087803b158015612b8757600080fd5b505af1158015612b9b573d6000803e3d6000fd5b505050506040513d6040811015612bb157600080fd5b506020908101516002546040805180820182526013815260008051602061337a833981519152818601908152915160e160020a63349f642f02815260048101958652815160248201528151606060020a86049850604060020a90950463ffffffff169650600160a060020a039093169463693ec85e949193909283926044909201918083836000838110156129165781810151838201526020016128fe565b6002546040805180820182526010815260008051602061339a8339815191526020808301918252925160e160020a63349f642f0281526004810193845282516024820152825160009586958695600160a060020a039092169463693ec85e94929391928392604490910191908083838b5b83811015612cd9578181015183820152602001612cc1565b50505050905090810190601f168015612d065780820380516001836020036101000a031916815260200191505b5092505050602060405180830381600087803b158015612d2557600080fd5b505af1158015612d39573d6000803e3d6000fd5b505050506040513d6020811015612d4f57600080fd5b5051604080517f22c53b3c000000000000000000000000000000000000000000000000000000008152600481018790529051600160a060020a03909216916322c53b3c916024808201926060929091908290030181600087803b158015612db557600080fd5b505af1158015612dc9573d6000803e3d6000fd5b505050506040513d6060811015612ddf57600080fd5b5080516020918201516002546040805180820182526013815260008051602061337a833981519152818701908152915160e160020a63349f642f02815260048101968752815160248201528151959950606060020a85049850604060020a90940463ffffffff169650600160a060020a039092169463693ec85e94929390928392604490920191908083836000838110156123c15781810151838201526020016123a9565b6002546040805180820182526010815260008051602061339a8339815191526020808301918252925160e160020a63349f642f028152600481019384528251602482015282516000958695606095600160a060020a039092169463693ec85e94929391928392604490910191908083838c5b83811015612f0e578181015183820152602001612ef6565b50505050905090810190601f168015612f3b5780820380516001836020036101000a031916815260200191505b5092505050602060405180830381600087803b158015612f5a57600080fd5b505af1158015612f6e573d6000803e3d6000fd5b505050506040513d6020811015612f8457600080fd5b5051604080517f6fc6974a000000000000000000000000000000000000000000000000000000008152600481018b9052602481018c9052604060020a640100000000808c0263ffffffff808d169190911783026044850152908a02908916170260648201529051919450600160a060020a03851691636fc6974a9160848082019260009290919082900301818387803b15801561302057600080fd5b505af1158015613034573d6000803e3d6000fd5b5050505082600160a060020a031663c0f962ae896040518263ffffffff1660e060020a02815260040180828152602001915050600060405180830381600087803b15801561308157600080fd5b505af1158015613095573d6000803e3d6000fd5b505050506040513d6000823e601f3d908101601f1916820160405260a08110156130be57600080fd5b81516020830151604084015160608501805193959294919391830192916401000000008111156130ed57600080fd5b8201602081018481111561310057600080fd5b815185602082028301116401000000008211171561311d57600080fd5b5050929190602001805164010000000081111561313957600080fd5b8201602081018481111561314c57600080fd5b815185602082028301116401000000008211171561316957600080fd5b505060408051600280825260608201909252989a50965050505050505081602001602082028038833901905050905060058160008151811015156131a957fe5b602090810290910101528051601490829060019081106131c557fe5b6020908102909101810191909152600254604080518082018252600f815260008051602061335a833981519152818501908152915160e160020a63349f642f02815260048101948552815160248201528151600160a060020a039094169463693ec85e94929390928392604401919080838360005b8381101561325257818101518382015260200161323a565b50505050905090810190601f16801561327f5780820380516001836020036101000a031916815260200191505b5092505050602060405180830381600087803b15801561329e57600080fd5b505af11580156132b2573d6000803e3d6000fd5b505050506040513d60208110156132c857600080fd5b50516040517fdb118f2f000000000000000000000000000000000000000000000000000000008152600481018a8152602482018c905260448201859052608060648301908152845160848401528451600160a060020a039094169363db118f2f938d938f938993899360a4019060208581019102808383600083811015611de3578181015183820152602001611dcb5600636173682d6f75742d6f7261636c650000000000000000000000000000000000636173682d6f75742d636f6e74726f6c6c657200000000000000000000000000636173682d6f75742d73746f7261676500000000000000000000000000000000a165627a7a723058204a06dd924879b1f5ebc0376c2154c1f49d9945f0e5506b2a2f702b73244f90d40029",
  "source": "pragma solidity 0.4.24;\n\nimport \"../platform/Named.sol\";\nimport \"../platform/Mortal.sol\";\nimport \"./api/ACashOutManager.sol\";\nimport \"../platform/Component.sol\";\nimport \"../oracles/api/ACashOutOracle.sol\";\nimport \"../storages/api/ACashOutStorage.sol\";\nimport \"../controllers/api/ACashOutController.sol\";\n\ncontract CashOutManager is ACashOutManager, Named(\"cash-out-manager\"), Mortal, Component {\n\n    string constant CONTROLLER = \"cash-out-controller\";\n    string constant STORAGE = \"cash-out-storage\";\n    string constant ORACLE = \"cash-out-oracle\";\n\n    uint256 constant VLFEE = 1;\n\n    constructor(address _config) Component(_config) public {}\n\n    function openCashOutChannel(\n        address _application,\n        string _requestId,\n        string _kioskId,\n        uint256 _toWithdraw,\n        uint256[] _fees,\n        address[] _parties,\n        function(string memory, string memory) external _fail,\n        function(string memory, string memory, uint256, uint256) external _success\n    )\n        public\n    {\n        //TODO:implementation: verify msg.sender is CashOutController\n        ACashOutStorage cashOutStorage = ACashOutStorage(context.get(STORAGE));\n        uint256 cashOutId = cashOutStorage.createCashOut(_application);\n        cashOutStorage.createOpen(cashOutId, _requestId, _kioskId, _fail, _success);\n        cashOutStorage.createAccount(cashOutId, _toWithdraw, VLFEE, 5000, _fees, _parties);\n        ACashOutOracle(context.get(ORACLE)).onNextOpenCashOut(cashOutId);\n    }\n\n    function confirmOpen(\n        uint256 _commandId\n    )\n        public\n    {\n        ACashOutStorage cashOutStorage = ACashOutStorage(context.get(STORAGE));\n        (\n        string memory requestId,\n        string memory kioskId,,\n        function(string memory, string memory, uint256, uint256) external success\n        ) = cashOutStorage.retrieveOpen(_commandId);\n        (uint256 toWithdraw,uint256 vlFee,,,) = cashOutStorage.retrieveAccount(_commandId);\n        ACashOutController(context.get(CONTROLLER)).respondOpened(\n            requestId,\n            kioskId,\n            _commandId,\n            (toWithdraw / 100) * vlFee,\n            success\n        );\n    }\n\n    function confirmFailOpen(\n        uint256 _commandId\n    )\n        public\n    {\n        (\n        string memory requestId,\n        string memory kioskId,\n        function(string memory, string memory) external fail,\n        ) = ACashOutStorage(context.get(STORAGE)).retrieveOpen(_commandId);\n        //TODO:impl: PUT BUSSINES LOGIC HERE\n        ACashOutController(context.get(CONTROLLER)).respondFailOpen(requestId, kioskId, fail);\n    }\n\n    function validateCashOutChannel(\n        address _application,\n        uint256 _sessionId,\n        uint256 _cashOutId,\n        function(uint256, uint256) external _fail,\n        function(uint256, uint256) external _success\n    )\n        public\n    {\n        //TODO:implementation: verify msg.sender is CashOutController\n        //TODO:implementation: verify _application the owner of CashOut\n        ACashOutStorage cashOutStorage = ACashOutStorage(context.get(STORAGE));\n        cashOutStorage.createValidate(_cashOutId, _sessionId, _fail, _success);\n        (uint256 toWithdraw,,,,) = cashOutStorage.retrieveAccount(_cashOutId);\n        uint256[] memory bills = new uint256[](2);\n        bills[0] = 5;\n        bills[1] = 20;\n        ACashOutOracle(context.get(ORACLE)).onNextValidateCashOut(_cashOutId, _sessionId, toWithdraw, bills);\n    }\n\n    function confirmValidate(\n        uint256 _commandId\n    )\n        public\n    {\n        (uint256 sessionId,,function(uint256, uint256) external success) = ACashOutStorage(context.get(STORAGE)).retrieveValidate(_commandId);\n        ACashOutController(context.get(CONTROLLER)).respondValidated(sessionId, _commandId, success);\n    }\n\n    function confirmFailValidate(\n        uint256 _commandId\n    )\n        public\n    {\n        (uint256 sessionId,function(uint256, uint256) external fail,) = ACashOutStorage(context.get(STORAGE)).retrieveValidate(_commandId);\n        ACashOutController(context.get(CONTROLLER)).respondValidated(sessionId, _commandId, fail);\n    }\n\n    function closeCashOutChannel(\n        address _application,\n        uint256 _sessionId,\n        uint256 _cashOutId,\n        function(uint256, uint256) external _fail,\n        function(uint256, uint256) external _success\n    )\n        public\n    {\n        //TODO:implementation: verify msg.sender is CashOutController\n        //TODO:implementation: verify _application the owner of CashOut\n        ACashOutStorage cashOutStorage = ACashOutStorage(context.get(STORAGE));\n        cashOutStorage.createClose(_cashOutId, _sessionId, _fail, _success);\n        (uint256 toWithdraw,,,,) = cashOutStorage.retrieveAccount(_cashOutId);\n        uint256[] memory bills = new uint256[](2);\n        bills[0] = 5;\n        bills[1] = 20;\n        ACashOutOracle(context.get(ORACLE)).onNextCloseCashOut(_cashOutId, _sessionId, toWithdraw, bills);\n    }\n\n    function confirmClose(\n        uint256 _commandId\n    )\n        public\n    {\n        (uint256 sessionId,,function(uint256, uint256) external success) = ACashOutStorage(context.get(STORAGE)).retrieveClose(_commandId);\n        ACashOutController(context.get(CONTROLLER)).respondClosed(sessionId, _commandId, success);\n    }\n\n    function confirmFailClose(\n        uint256 _commandId\n    )\n        public\n    {\n        (uint256 sessionId,function(uint256, uint256) external fail,) = ACashOutStorage(context.get(STORAGE)).retrieveClose(_commandId);\n        ACashOutController(context.get(CONTROLLER)).respondClosed(sessionId, _commandId, fail);\n    }\n\n    function rollbackCashOutChannel(\n        address _application,\n        uint256 _cashOutId,\n        function(uint256) external _fail,\n        function(uint256) external _success\n    )\n        public\n    {\n        //TODO:implementation: verify msg.sender is CashOutController\n        //TODO:implementation: verify _application the owner of CashOut\n        ACashOutStorage(context.get(STORAGE)).createRollback(_cashOutId, _fail, _success);\n        ACashOutOracle(context.get(ORACLE)).onNextRollbackCashOut(_cashOutId);\n    }\n\n    function confirmRollback(\n        uint256 _commandId\n    )\n        public\n    {\n        (,function(uint256) external success) = ACashOutStorage(context.get(STORAGE)).retrieveRollback(_commandId);\n        ACashOutController(context.get(CONTROLLER)).respondRolledBack(_commandId, success);\n    }\n\n    function confirmFailRollback(\n        uint256 _commandId\n    )\n        public\n    {\n        (function(uint256) external fail,) = ACashOutStorage(context.get(STORAGE)).retrieveRollback(_commandId);\n        ACashOutController(context.get(CONTROLLER)).respondRolledBack(_commandId, fail);\n    }\n\n}",
  "sourcePath": "/home/andrew/vault-logic-project/Development/test/vault-logic-api/truffle/contracts/managers/CashOutManager.sol",
  "compiler": {
    "name": "solc",
    "version": "0.4.24+commit.e67f0147.Emscripten.clang"
  },
  "schemaVersion": "2.0.1",
  "updatedAt": "2018-11-20T09:03:36.649Z"
}