{
  "contractName": "Config",
  "abi": [
    {
      "constant": true,
      "inputs": [],
      "name": "database",
      "outputs": [
        {
          "name": "",
          "type": "address"
        }
      ],
      "payable": false,
      "stateMutability": "view",
      "type": "function"
    },
    {
      "constant": true,
      "inputs": [],
      "name": "context",
      "outputs": [
        {
          "name": "",
          "type": "address"
        }
      ],
      "payable": false,
      "stateMutability": "view",
      "type": "function"
    },
    {
      "inputs": [
        {
          "name": "_context",
          "type": "address"
        },
        {
          "name": "_database",
          "type": "address"
        }
      ],
      "payable": false,
      "stateMutability": "nonpayable",
      "type": "constructor"
    }
  ],
  "bytecode": "0x608060405234801561001057600080fd5b5060405160408061016483398101604052805160209091015160008054600160a060020a03938416600160a060020a0319918216179091556001805493909216921691909117905560fe806100666000396000f30060806040526004361060485763ffffffff7c0100000000000000000000000000000000000000000000000000000000600035041663713b563f8114604d578063d0496d6a146088575b600080fd5b348015605857600080fd5b50605f609a565b6040805173ffffffffffffffffffffffffffffffffffffffff9092168252519081900360200190f35b348015609357600080fd5b50605f60b6565b60015473ffffffffffffffffffffffffffffffffffffffff1681565b60005473ffffffffffffffffffffffffffffffffffffffff16815600a165627a7a7230582025ff2787926bf75dcae8bbf8b44a13f64d1e0a84bc530012bdd9c6ff01b873950029",
  "source": "pragma solidity 0.4.24;\n\ncontract Owned {\n\n    address public owner;\n\n    modifier onlyOwner {\n        require(msg.sender == owner, \"only owner allowed\");\n        _;\n    }\n\n    modifier txOriginOwner {\n        require(tx.origin == owner, \"only owner allowed\");\n        _;\n    }\n\n    constructor() internal {\n        owner = msg.sender;\n    }\n\n}\n\ncontract Mortal is Owned {\n\n    function kill() public txOriginOwner {\n        selfdestruct(0x0);\n    }\n\n}\n\ncontract Named {\n\n    string public name;\n\n    constructor(string memory _name) internal {\n        name = _name;\n    }\n\n}\n\ncontract Component is Named {\n\n    Context internal context;\n    address internal database;\n\n    constructor(address _config) internal {\n        database = Config(_config).database();\n        context = Context(Config(_config).context());\n        address deployed = context.get(name);\n        if (deployed != 0x0) Mortal(deployed).kill();\n        context.register(name);\n    }\n\n}\n\ncontract Context {\n\n    mapping(string => address) context;\n\n    function register(string memory name) public {\n        context[name] = msg.sender;\n    }\n\n    function get(string memory name) public view returns (address) {\n        return context[name];\n    }\n\n}\n\ncontract Config {\n\n    address public context;\n    address public database;\n\n    constructor(address _context, address _database) public {\n        context = _context;\n        database = _database;\n    }\n\n}",
  "sourcePath": "/home/andrew/vault-logic-project/Development/test/vault-logic-api/truffle/contracts/Platform.sol",
  "compiler": {
    "name": "solc",
    "version": "0.4.24+commit.e67f0147.Emscripten.clang"
  },
  "schemaVersion": "2.0.1",
  "updatedAt": "2018-10-23T12:03:14.122Z"
}