{
  "contractName": "Context",
  "abi": [
    {
      "constant": false,
      "inputs": [
        {
          "name": "name",
          "type": "string"
        }
      ],
      "name": "register",
      "outputs": [],
      "payable": false,
      "stateMutability": "nonpayable",
      "type": "function"
    },
    {
      "constant": true,
      "inputs": [
        {
          "name": "name",
          "type": "string"
        }
      ],
      "name": "get",
      "outputs": [
        {
          "name": "_component",
          "type": "address"
        }
      ],
      "payable": false,
      "stateMutability": "view",
      "type": "function"
    }
  ],
  "bytecode": "0x608060405234801561001057600080fd5b506102e1806100206000396000f30060806040526004361061004b5763ffffffff7c0100000000000000000000000000000000000000000000000000000000600035041663693ec85e8114610050578063f2c298be146100d2575b600080fd5b34801561005c57600080fd5b506040805160206004803580820135601f81018490048402850184019095528484526100a994369492936024939284019190819084018382808284375094975061012d9650505050505050565b6040805173ffffffffffffffffffffffffffffffffffffffff9092168252519081900360200190f35b3480156100de57600080fd5b506040805160206004803580820135601f810184900484028501840190955284845261012b9436949293602493928401919081908401838280828437509497506102199650505050505050565b005b600080826040518082805190602001908083835b602083106101605780518252601f199092019160209182019101610141565b51815160209384036101000a600019018019909216911617905292019485525060405193849003019092205473ffffffffffffffffffffffffffffffffffffffff169250505080151561021457604080517f08c379a000000000000000000000000000000000000000000000000000000000815260206004820152601360248201527f636f6d706f6e656e74206e6f7420666f756e6400000000000000000000000000604482015290519081900360640190fd5b919050565b336000826040518082805190602001908083835b6020831061024c5780518252601f19909201916020918201910161022d565b51815160209384036101000a60001901801990921691161790529201948552506040519384900301909220805473ffffffffffffffffffffffffffffffffffffffff191673ffffffffffffffffffffffffffffffffffffffff94909416939093179092555050505600a165627a7a723058208be7e36836fc5ca2c98e2579f946e66fe3f34b616420acef85ff0ab1da6f97140029",
  "source": "pragma solidity 0.4.24;\n\ncontract Context {\n\n    mapping(string => address) context;\n\n    function register(string memory name) public {\n        context[name] = msg.sender;\n    }\n\n    function get(string name) public view returns (address _component) {\n        _component = context[name];\n        require(_component != 0x0, \"component not found\");\n    }\n\n}\n",
  "sourcePath": "/home/andrew/vault-logic-project/Development/test/vault-logic-api/truffle/contracts/platform/Context.sol",
  "compiler": {
    "name": "solc",
    "version": "0.4.24+commit.e67f0147.Emscripten.clang"
  },
  "schemaVersion": "2.0.1",
  "updatedAt": "2018-11-26T09:18:23.452Z"
}