{
  "contractName": "ContractRegistry",
  "abi": [
    {
      "constant": true,
      "inputs": [
        {
          "name": "",
          "type": "uint256"
        }
      ],
      "name": "names",
      "outputs": [
        {
          "name": "",
          "type": "string"
        }
      ],
      "payable": false,
      "stateMutability": "view",
      "type": "function"
    },
    {
      "constant": true,
      "inputs": [],
      "name": "numberOfComponents",
      "outputs": [
        {
          "name": "",
          "type": "uint256"
        }
      ],
      "payable": false,
      "stateMutability": "view",
      "type": "function"
    },
    {
      "anonymous": false,
      "inputs": [
        {
          "indexed": false,
          "name": "name",
          "type": "string"
        },
        {
          "indexed": false,
          "name": "addr",
          "type": "address"
        },
        {
          "indexed": false,
          "name": "index",
          "type": "uint256"
        }
      ],
      "name": "ComponentRegistered",
      "type": "event"
    },
    {
      "anonymous": false,
      "inputs": [
        {
          "indexed": false,
          "name": "name",
          "type": "string"
        },
        {
          "indexed": false,
          "name": "addr",
          "type": "address"
        }
      ],
      "name": "ComponentAddressUpdated",
      "type": "event"
    },
    {
      "constant": true,
      "inputs": [
        {
          "name": "name",
          "type": "string"
        }
      ],
      "name": "get",
      "outputs": [
        {
          "name": "",
          "type": "address"
        }
      ],
      "payable": false,
      "stateMutability": "view",
      "type": "function"
    },
    {
      "constant": false,
      "inputs": [
        {
          "name": "name",
          "type": "string"
        },
        {
          "name": "addr",
          "type": "address"
        }
      ],
      "name": "register",
      "outputs": [],
      "payable": false,
      "stateMutability": "nonpayable",
      "type": "function"
    },
    {
      "constant": false,
      "inputs": [
        {
          "name": "name",
          "type": "string"
        }
      ],
      "name": "disable",
      "outputs": [],
      "payable": false,
      "stateMutability": "nonpayable",
      "type": "function"
    },
    {
      "constant": false,
      "inputs": [
        {
          "name": "name",
          "type": "string"
        }
      ],
      "name": "enable",
      "outputs": [],
      "payable": false,
      "stateMutability": "nonpayable",
      "type": "function"
    },
    {
      "constant": true,
      "inputs": [
        {
          "name": "name",
          "type": "string"
        }
      ],
      "name": "getState",
      "outputs": [
        {
          "name": "",
          "type": "bool"
        }
      ],
      "payable": false,
      "stateMutability": "view",
      "type": "function"
    }
  ],
  "bytecode": "0x608060405234801561001057600080fd5b506107cf806100206000396000f3006080604052600436106100825763ffffffff7c01000000000000000000000000000000000000000000000000000000006000350416631e59c52981146100875780634622ab03146100b75780635526dd5c14610144578063693ec85e1461016b578063b8724c59146101a7578063e299838114610200578063e33f77ca14610259575b600080fd5b34801561009357600080fd5b506100b56024600480358281019291013590600160a060020a039035166102c6565b005b3480156100c357600080fd5b506100cf6004356104d7565b6040805160208082528351818301528351919283929083019185019080838360005b838110156101095781810151838201526020016100f1565b50505050905090810190601f1680156101365780820380516001836020036101000a031916815260200191505b509250505060405180910390f35b34801561015057600080fd5b5061015961057e565b60408051918252519081900360200190f35b34801561017757600080fd5b5061018b6004803560248101910135610584565b60408051600160a060020a039092168252519081900360200190f35b3480156101b357600080fd5b506040805160206004803580820135601f81018490048402850184019095528484526100b59436949293602493928401919081908401838280828437509497506105f79650505050505050565b34801561020c57600080fd5b506040805160206004803580820135601f81018490048402850184019095528484526100b594369492936024939284019190819084018382808284375094975061066a9650505050505050565b34801561026557600080fd5b506040805160206004803580820135601f81018490048402850184019095528484526102b294369492936024939284019190819084018382808284375094975061069d9650505050505050565b604080519115158252519081900360200190f35b60008084846040518083838082843790910194855250506040519283900360200190922054600160a060020a03161515915061041b905057600480546001818101808455600093909352919061033f907f8a35acfbc15ff81a39ae7d344fd709f28e8600b4aa8c65c6b64bfe7fe36bd19b018787610708565b500390508060028585604051808383808284378201915050925050509081526020016040518091039020819055506001808585604051808383808284379190910194855250506040805160209481900385018120805460ff191696151596909617909555600380546001019055600160a060020a0387169385019390935250508101829052606080825281018490527fe77d7ebdd4936d40511dbcfecf21b40bf7382331b72dcf84da3f02455f30b37e9085908590859085908060808101868680828437604051920182900397509095505050505050a161047d565b60408051600160a060020a03841660208201528181529081018490527f5833a4843901e2f97ae5b00fc81ac7fd8e0ac4e1fcf95002f1041e617e74ad2b9085908590859080606081018585808284376040519201829003965090945050505050a15b8160008585604051808383808284379091019485525050604051928390036020019092208054600160a060020a039490941673ffffffffffffffffffffffffffffffffffffffff1990941693909317909255505050505050565b60048054829081106104e557fe5b600091825260209182902001805460408051601f60026000196101006001871615020190941693909304928301859004850281018501909152818152935090918301828280156105765780601f1061054b57610100808354040283529160200191610576565b820191906000526020600020905b81548152906001019060200180831161055957829003601f168201915b505050505081565b60035481565b600060018383604051808383808284379091019485525050604051928390036020019092205460ff161591506105ed905057600083836040518083838082843790910194855250506040519283900360200190922054600160a060020a031692506105f1915050565b5060005b92915050565b600180826040518082805190602001908083835b6020831061062a5780518252601f19909201916020918201910161060b565b51815160209384036101000a60001901801990921691161790529201948552506040519384900301909220805460ff191693151593909317909255505050565b60006001826040518082805190602001908083836020831061062a5780518252601f19909201916020918201910161060b565b60006001826040518082805190602001908083835b602083106106d15780518252601f1990920191602091820191016106b2565b51815160209384036101000a600019018019909216911617905292019485525060405193849003019092205460ff16949350505050565b828054600181600116156101000203166002900490600052602060002090601f016020900481019282601f106107495782800160ff19823516178555610776565b82800160010185558215610776579182015b8281111561077657823582559160200191906001019061075b565b50610782929150610786565b5090565b6107a091905b80821115610782576000815560010161078c565b905600a165627a7a723058201c2529639d9a002ea9ac872ff7b1a37b014f0060103d01dba6d3e6f1833ca56a0029",
  "source": "pragma solidity 0.4.24;\n\nimport \"./IRegistry.sol\";\n\ncontract ContractRegistry is IRegistry {\n\n    event ComponentRegistered(string name, address addr, uint256 index);\n    event ComponentAddressUpdated(string name, address addr);\n\n    mapping(string => address) contracts;\n    mapping(string => bool) enabled;\n    mapping(string => uint256) indexOfName;\n\n    uint256 public numberOfComponents;\n\n    string[] public names;\n\n    function get(string name) external view returns(address) {\n        if (enabled[name]) return contracts[name];\n        return 0x0;\n    }\n\n    function register(string name, address addr) external {\n        if (contracts[name] == 0x0) {\n            uint256 index = names.push(name) - 1;\n            indexOfName[name] = index;\n            enabled[name] = true;\n            numberOfComponents++;\n            emit ComponentRegistered(name, addr, index);\n        } else {\n            emit ComponentAddressUpdated(name, addr);\n        }\n        contracts[name] = addr;\n    }\n\n    function disable(string name) public {\n        enabled[name] = false;\n    }\n\n    function enable(string name) public {\n        enabled[name] = true;\n    }\n\n    function getState(string name) public view returns(bool) {\n        return enabled[name];\n    }\n    \n}",
  "sourcePath": "/home/andrew/vault-logic-project/Development/test/vault-logic-api/truffle/contracts/registry/ContractRegistry.sol",
  "compiler": {
    "name": "solc",
    "version": "0.4.24+commit.e67f0147.Emscripten.clang"
  },
  "schemaVersion": "2.0.1",
  "updatedAt": "2018-11-05T10:17:28.653Z"
}