{
  "contractName": "Database",
  "abi": [
    {
      "constant": true,
      "inputs": [],
      "name": "owner",
      "outputs": [
        {
          "name": "",
          "type": "address"
        }
      ],
      "payable": false,
      "stateMutability": "view",
      "type": "function"
    },
    {
      "constant": true,
      "inputs": [
        {
          "name": "_key",
          "type": "bytes32"
        }
      ],
      "name": "getUintValue",
      "outputs": [
        {
          "name": "",
          "type": "uint256"
        }
      ],
      "payable": false,
      "stateMutability": "view",
      "type": "function"
    },
    {
      "constant": false,
      "inputs": [
        {
          "name": "_key",
          "type": "bytes32"
        },
        {
          "name": "_value",
          "type": "uint256"
        }
      ],
      "name": "setUintValue",
      "outputs": [],
      "payable": false,
      "stateMutability": "nonpayable",
      "type": "function"
    },
    {
      "constant": false,
      "inputs": [
        {
          "name": "_key",
          "type": "bytes32"
        }
      ],
      "name": "deleteUintValue",
      "outputs": [],
      "payable": false,
      "stateMutability": "nonpayable",
      "type": "function"
    },
    {
      "constant": true,
      "inputs": [
        {
          "name": "_key",
          "type": "bytes32"
        }
      ],
      "name": "getStringValue",
      "outputs": [
        {
          "name": "",
          "type": "string"
        }
      ],
      "payable": false,
      "stateMutability": "view",
      "type": "function"
    },
    {
      "constant": false,
      "inputs": [
        {
          "name": "_key",
          "type": "bytes32"
        },
        {
          "name": "_value",
          "type": "string"
        }
      ],
      "name": "setStringValue",
      "outputs": [],
      "payable": false,
      "stateMutability": "nonpayable",
      "type": "function"
    },
    {
      "constant": false,
      "inputs": [
        {
          "name": "_key",
          "type": "bytes32"
        }
      ],
      "name": "deleteStringValue",
      "outputs": [],
      "payable": false,
      "stateMutability": "nonpayable",
      "type": "function"
    },
    {
      "constant": true,
      "inputs": [
        {
          "name": "_key",
          "type": "bytes32"
        }
      ],
      "name": "getAddressValue",
      "outputs": [
        {
          "name": "",
          "type": "address"
        }
      ],
      "payable": false,
      "stateMutability": "view",
      "type": "function"
    },
    {
      "constant": false,
      "inputs": [
        {
          "name": "_key",
          "type": "bytes32"
        },
        {
          "name": "_value",
          "type": "address"
        }
      ],
      "name": "setAddressValue",
      "outputs": [],
      "payable": false,
      "stateMutability": "nonpayable",
      "type": "function"
    },
    {
      "constant": false,
      "inputs": [
        {
          "name": "_key",
          "type": "bytes32"
        }
      ],
      "name": "deleteAddressValue",
      "outputs": [],
      "payable": false,
      "stateMutability": "nonpayable",
      "type": "function"
    },
    {
      "constant": true,
      "inputs": [
        {
          "name": "_key",
          "type": "bytes32"
        }
      ],
      "name": "getBytesValue",
      "outputs": [
        {
          "name": "",
          "type": "bytes"
        }
      ],
      "payable": false,
      "stateMutability": "view",
      "type": "function"
    },
    {
      "constant": false,
      "inputs": [
        {
          "name": "_key",
          "type": "bytes32"
        },
        {
          "name": "_value",
          "type": "bytes"
        }
      ],
      "name": "setBytesValue",
      "outputs": [],
      "payable": false,
      "stateMutability": "nonpayable",
      "type": "function"
    },
    {
      "constant": false,
      "inputs": [
        {
          "name": "_key",
          "type": "bytes32"
        }
      ],
      "name": "deleteBytesValue",
      "outputs": [],
      "payable": false,
      "stateMutability": "nonpayable",
      "type": "function"
    },
    {
      "constant": true,
      "inputs": [
        {
          "name": "_key",
          "type": "bytes32"
        }
      ],
      "name": "getBytes32Value",
      "outputs": [
        {
          "name": "",
          "type": "bytes32"
        }
      ],
      "payable": false,
      "stateMutability": "view",
      "type": "function"
    },
    {
      "constant": false,
      "inputs": [
        {
          "name": "_key",
          "type": "bytes32"
        },
        {
          "name": "_value",
          "type": "bytes32"
        }
      ],
      "name": "setBytes32Value",
      "outputs": [],
      "payable": false,
      "stateMutability": "nonpayable",
      "type": "function"
    },
    {
      "constant": false,
      "inputs": [
        {
          "name": "_key",
          "type": "bytes32"
        }
      ],
      "name": "deleteBytes32Value",
      "outputs": [],
      "payable": false,
      "stateMutability": "nonpayable",
      "type": "function"
    },
    {
      "constant": true,
      "inputs": [
        {
          "name": "_key",
          "type": "bytes32"
        }
      ],
      "name": "getBooleanValue",
      "outputs": [
        {
          "name": "",
          "type": "bool"
        }
      ],
      "payable": false,
      "stateMutability": "view",
      "type": "function"
    },
    {
      "constant": false,
      "inputs": [
        {
          "name": "_key",
          "type": "bytes32"
        },
        {
          "name": "_value",
          "type": "bool"
        }
      ],
      "name": "setBooleanValue",
      "outputs": [],
      "payable": false,
      "stateMutability": "nonpayable",
      "type": "function"
    },
    {
      "constant": false,
      "inputs": [
        {
          "name": "_key",
          "type": "bytes32"
        }
      ],
      "name": "deleteBooleanValue",
      "outputs": [],
      "payable": false,
      "stateMutability": "nonpayable",
      "type": "function"
    },
    {
      "constant": true,
      "inputs": [
        {
          "name": "_key",
          "type": "bytes32"
        }
      ],
      "name": "getIntValue",
      "outputs": [
        {
          "name": "",
          "type": "int256"
        }
      ],
      "payable": false,
      "stateMutability": "view",
      "type": "function"
    },
    {
      "constant": false,
      "inputs": [
        {
          "name": "_key",
          "type": "bytes32"
        },
        {
          "name": "_value",
          "type": "int256"
        }
      ],
      "name": "setIntValue",
      "outputs": [],
      "payable": false,
      "stateMutability": "nonpayable",
      "type": "function"
    },
    {
      "constant": false,
      "inputs": [
        {
          "name": "_key",
          "type": "bytes32"
        }
      ],
      "name": "deleteIntValue",
      "outputs": [],
      "payable": false,
      "stateMutability": "nonpayable",
      "type": "function"
    },
    {
      "constant": false,
      "inputs": [
        {
          "name": "_key",
          "type": "bytes32"
        },
        {
          "name": "func",
          "type": "function"
        }
      ],
      "name": "setUint256Function",
      "outputs": [],
      "payable": false,
      "stateMutability": "nonpayable",
      "type": "function"
    },
    {
      "constant": true,
      "inputs": [
        {
          "name": "_key",
          "type": "bytes32"
        }
      ],
      "name": "getUint256Function",
      "outputs": [
        {
          "name": "",
          "type": "function"
        }
      ],
      "payable": false,
      "stateMutability": "view",
      "type": "function"
    },
    {
      "constant": false,
      "inputs": [
        {
          "name": "_key",
          "type": "bytes32"
        },
        {
          "name": "func",
          "type": "function"
        }
      ],
      "name": "setUint256stringX3Function",
      "outputs": [],
      "payable": false,
      "stateMutability": "nonpayable",
      "type": "function"
    },
    {
      "constant": true,
      "inputs": [
        {
          "name": "_key",
          "type": "bytes32"
        }
      ],
      "name": "getUint256stringX3Function",
      "outputs": [
        {
          "name": "",
          "type": "function"
        }
      ],
      "payable": false,
      "stateMutability": "view",
      "type": "function"
    },
    {
      "constant": false,
      "inputs": [
        {
          "name": "_key",
          "type": "bytes32"
        },
        {
          "name": "_func",
          "type": "function"
        }
      ],
      "name": "setUint256X1StringX1Function",
      "outputs": [],
      "payable": false,
      "stateMutability": "nonpayable",
      "type": "function"
    },
    {
      "constant": true,
      "inputs": [
        {
          "name": "_key",
          "type": "bytes32"
        }
      ],
      "name": "getUint256X1StringX1Function",
      "outputs": [
        {
          "name": "",
          "type": "function"
        }
      ],
      "payable": false,
      "stateMutability": "view",
      "type": "function"
    },
    {
      "constant": false,
      "inputs": [
        {
          "name": "_key",
          "type": "bytes32"
        },
        {
          "name": "_func",
          "type": "function"
        }
      ],
      "name": "setUint256X1StringX2Function",
      "outputs": [],
      "payable": false,
      "stateMutability": "nonpayable",
      "type": "function"
    },
    {
      "constant": true,
      "inputs": [
        {
          "name": "_key",
          "type": "bytes32"
        }
      ],
      "name": "getUint256X1StringX2Function",
      "outputs": [
        {
          "name": "",
          "type": "function"
        }
      ],
      "payable": false,
      "stateMutability": "view",
      "type": "function"
    },
    {
      "constant": false,
      "inputs": [
        {
          "name": "_key",
          "type": "bytes32"
        },
        {
          "name": "_func",
          "type": "function"
        }
      ],
      "name": "setUint256X2Function",
      "outputs": [],
      "payable": false,
      "stateMutability": "nonpayable",
      "type": "function"
    },
    {
      "constant": true,
      "inputs": [
        {
          "name": "_key",
          "type": "bytes32"
        }
      ],
      "name": "getUint256X2Function",
      "outputs": [
        {
          "name": "",
          "type": "function"
        }
      ],
      "payable": false,
      "stateMutability": "view",
      "type": "function"
    },
    {
      "constant": false,
      "inputs": [
        {
          "name": "_key",
          "type": "bytes32"
        },
        {
          "name": "_func",
          "type": "function"
        }
      ],
      "name": "setUint256X3Function",
      "outputs": [],
      "payable": false,
      "stateMutability": "nonpayable",
      "type": "function"
    },
    {
      "constant": true,
      "inputs": [
        {
          "name": "_key",
          "type": "bytes32"
        }
      ],
      "name": "getUint256X3Function",
      "outputs": [
        {
          "name": "",
          "type": "function"
        }
      ],
      "payable": false,
      "stateMutability": "view",
      "type": "function"
    },
    {
      "constant": false,
      "inputs": [
        {
          "name": "_key",
          "type": "bytes32"
        },
        {
          "name": "_func",
          "type": "function"
        }
      ],
      "name": "setUint256X2returnsFunctionUint256x3Function",
      "outputs": [],
      "payable": false,
      "stateMutability": "nonpayable",
      "type": "function"
    },
    {
      "constant": true,
      "inputs": [
        {
          "name": "_key",
          "type": "bytes32"
        }
      ],
      "name": "getUint256X2returnsFunctionUint256x3Function",
      "outputs": [
        {
          "name": "",
          "type": "function"
        }
      ],
      "payable": false,
      "stateMutability": "view",
      "type": "function"
    }
  ],
  "bytecode": "0x608060405260008054600160a060020a03191633179055610ecb806100256000396000f3006080604052600436106101c15763ffffffff7c0100000000000000000000000000000000000000000000000000000000600035041663025ec81a81146101c6578063043106c0146101f05780630615444a1461020a5780630c55d92514610249578063124f24181461026157806317e7dd221461027957806325cf512d146102a55780633cc1635c146102c05780633eba9ed2146102d857806344bfa56e146102f55780634b2dfcc8146103825780634c0a4ced146103cc5780634c77e5ba1461040b57806350ca291d1461043f5780635252e5c8146104575780635a2bf25a1461046f57806360f3c61e1461049357806377e645a2146104ab5780638267a9ee146104c35780638da5cb5b146104db5780639007127b146104f05780639107f745146105085780639b1a20d514610547578063a209a29c14610586578063a77aa49e1461059e578063ba69fcaa146105b9578063bf9f8ba9146105d1578063c6fefcbd14610610578063c9a52d2c1461064f578063d8b85d45146106ad578063e4f30231146106c5578063e82617fb146106dd578063f5866066146106f5578063f8b98ab114610753578063fe562b231461076b578063ffb4f623146107aa575b600080fd5b3480156101d257600080fd5b506101de6004356107c5565b60408051918252519081900360200190f35b3480156101fc57600080fd5b506102086004356107d7565b005b34801561021657600080fd5b506102086004356c010000000000000000000000006024359081049068010000000000000000900463ffffffff16610802565b34801561025557600080fd5b50610208600435610844565b34801561026d57600080fd5b5061020860043561085e565b34801561028557600080fd5b5061029160043561086f565b604080519115158252519081900360200190f35b3480156102b157600080fd5b50610208600435602435610884565b3480156102cc57600080fd5b50610208600435610896565b3480156102e457600080fd5b5061020860043560243515156108ae565b34801561030157600080fd5b5061030d6004356108ce565b6040805160208082528351818301528351919283929083019185019080838360005b8381101561034757818101518382015260200161032f565b50505050905090810190601f1680156103745780820380516001836020036101000a031916815260200191505b509250505060405180910390f35b34801561038e57600080fd5b5061039a60043561096f565b60405180838363ffffffff16906401000000000217680100000000000000000281526020019250505060405180910390f35b3480156103d857600080fd5b506102086004356c010000000000000000000000006024359081049068010000000000000000900463ffffffff1661099b565b34801561041757600080fd5b506104236004356109dd565b60408051600160a060020a039092168252519081900360200190f35b34801561044b57600080fd5b5061039a6004356109f8565b34801561046357600080fd5b5061039a600435610a24565b34801561047b57600080fd5b50610208600435600160a060020a0360243516610a50565b34801561049f57600080fd5b5061039a600435610a8b565b3480156104b757600080fd5b5061039a600435610ab7565b3480156104cf57600080fd5b50610208600435610ae3565b3480156104e757600080fd5b50610423610af4565b3480156104fc57600080fd5b506101de600435610b03565b34801561051457600080fd5b506102086004356c010000000000000000000000006024359081049068010000000000000000900463ffffffff16610b15565b34801561055357600080fd5b506102086004356c010000000000000000000000006024359081049068010000000000000000900463ffffffff16610b57565b34801561059257600080fd5b5061030d600435610b99565b3480156105aa57600080fd5b50610208600435602435610c01565b3480156105c557600080fd5b50610208600435610c13565b3480156105dd57600080fd5b506102086004356c010000000000000000000000006024359081049068010000000000000000900463ffffffff16610c2a565b34801561061c57600080fd5b506102086004356c010000000000000000000000006024359081049068010000000000000000900463ffffffff16610c6c565b34801561065b57600080fd5b5060408051602060046024803582810135601f8101859004850286018501909652858552610208958335953695604494919390910191908190840183828082843750949750610cae9650505050505050565b3480156106b957600080fd5b5061039a600435610cd2565b3480156106d157600080fd5b50610208600435610cfe565b3480156106e957600080fd5b506101de600435610d0f565b34801561070157600080fd5b5060408051602060046024803582810135601f8101859004850286018501909652858552610208958335953695604494919390910191908190840183828082843750949750610d219650505050505050565b34801561075f57600080fd5b5061039a600435610d40565b34801561077757600080fd5b506102086004356c010000000000000000000000006024359081049068010000000000000000900463ffffffff16610d6c565b3480156107b657600080fd5b50610208600435602435610dae565b60009081526005602052604090205490565b6000908152600360205260409020805473ffffffffffffffffffffffffffffffffffffffff19169055565b6000928352600d60205260409092208054600160c060020a03191663ffffffff909316600160a060020a03929092166401000000000291909117919091179055565b600081815260046020526040812061085b91610dc0565b50565b600090815260056020526040812055565b60009081526006602052604090205460ff1690565b60009182526005602052604090912055565b6000908152600660205260409020805460ff19169055565b600091825260066020526040909120805460ff1916911515919091179055565b60008181526004602090815260409182902080548351601f60026101006001851615026000190190931692909204918201849004840281018401909452808452606093928301828280156109635780601f1061093857610100808354040283529160200191610963565b820191906000526020600020905b81548152906001019060200180831161094657829003601f168201915b50505050509050919050565b6000818152600e6020526040902054600160a060020a036401000000008204169063ffffffff16915091565b6000928352600860205260409092208054600160c060020a03191663ffffffff909316600160a060020a03929092166401000000000291909117919091179055565b600090815260036020526040902054600160a060020a031690565b6000818152600c6020526040902054600160a060020a036401000000008204169063ffffffff16915091565b600081815260096020526040902054600160a060020a036401000000008204169063ffffffff16915091565b600091825260036020526040909120805473ffffffffffffffffffffffffffffffffffffffff1916600160a060020a03909216919091179055565b6000818152600a6020526040902054600160a060020a036401000000008204169063ffffffff16915091565b6000818152600d6020526040902054600160a060020a036401000000008204169063ffffffff16915091565b600090815260076020526040812055565b600054600160a060020a031681565b60009081526007602052604090205490565b6000928352600c60205260409092208054600160c060020a03191663ffffffff909316600160a060020a03929092166401000000000291909117919091179055565b6000928352600b60205260409092208054600160c060020a03191663ffffffff909316600160a060020a03929092166401000000000291909117919091179055565b600081815260026020818152604092839020805484516000196001831615610100020190911693909304601f810183900483028401830190945283835260609390918301828280156109635780601f1061093857610100808354040283529160200191610963565b60009182526007602052604090912055565b600081815260026020526040812061085b91610dc0565b6000928352600960205260409092208054600160c060020a03191663ffffffff909316600160a060020a03929092166401000000000291909117919091179055565b6000928352600e60205260409092208054600160c060020a03191663ffffffff909316600160a060020a03929092166401000000000291909117919091179055565b60008281526004602090815260409091208251610ccd92840190610e04565b505050565b6000818152600b6020526040902054600160a060020a036401000000008204169063ffffffff16915091565b600090815260016020526040812055565b60009081526001602052604090205490565b60008281526002602090815260409091208251610ccd92840190610e04565b600081815260086020526040902054600160a060020a036401000000008204169063ffffffff16915091565b6000928352600a60205260409092208054600160c060020a03191663ffffffff909316600160a060020a03929092166401000000000291909117919091179055565b60009182526001602052604090912055565b50805460018160011615610100020316600290046000825580601f10610de6575061085b565b601f01602090049060005260206000209081019061085b9190610e82565b828054600181600116156101000203166002900490600052602060002090601f016020900481019282601f10610e4557805160ff1916838001178555610e72565b82800160010185558215610e72579182015b82811115610e72578251825591602001919060010190610e57565b50610e7e929150610e82565b5090565b610e9c91905b80821115610e7e5760008155600101610e88565b905600a165627a7a723058203332fc298e3b4cb27fad8ed9cb32f15b3352ddd66aba79019fc9860ae17ae4a40029",
  "source": "pragma solidity 0.4.24;\n\nimport \"./platform/Owned.sol\";\n\ncontract Database is Owned {\n\n    /// UINT STORAGE\n    mapping(bytes32 => uint256) uintStorage;\n\n    function getUintValue(bytes32 _key) public view returns (uint256) {\n        return uintStorage[_key];\n    }\n\n    function setUintValue(bytes32 _key, uint256 _value) public {\n        uintStorage[_key] = _value;\n    }\n\n    function deleteUintValue(bytes32 _key) public {\n        delete uintStorage[_key];\n    }\n\n    ///STRING STORAGE\n    mapping(bytes32 => string) stringStorage;\n\n    function getStringValue(bytes32 _key) public view returns (string) {\n        return stringStorage[_key];\n    }\n\n    function setStringValue(bytes32 _key, string _value) public {\n        stringStorage[_key] = _value;\n    }\n\n    function deleteStringValue(bytes32 _key) public {\n        delete stringStorage[_key];\n    }\n\n\n    ///ADDRESS STORAGE\n    mapping(bytes32 => address) addressStorage;\n\n    function getAddressValue(bytes32 _key) public view returns (address) {\n        return addressStorage[_key];\n    }\n\n    function setAddressValue(bytes32 _key, address _value) public {\n        addressStorage[_key] = _value;\n    }\n\n    function deleteAddressValue(bytes32 _key) public {\n        delete addressStorage[_key];\n    }\n\n\n    ///BYTES STORAGE\n    mapping(bytes32 => bytes) bytesStorage;\n\n    function getBytesValue(bytes32 _key) public view returns (bytes) {\n        return bytesStorage[_key];\n    }\n\n    function setBytesValue(bytes32 _key, bytes _value) public {\n        bytesStorage[_key] = _value;\n    }\n\n    function deleteBytesValue(bytes32 _key) public {\n        delete bytesStorage[_key];\n    }\n\n\n    /// BYTES32 STORAGE\n    mapping(bytes32 => bytes32) bytes32Storage;\n\n    function getBytes32Value(bytes32 _key) public view returns (bytes32) {\n        return bytes32Storage[_key];\n    }\n\n    function setBytes32Value(bytes32 _key, bytes32 _value) public {\n        bytes32Storage[_key] = _value;\n    }\n\n    function deleteBytes32Value(bytes32 _key) public {\n        delete bytes32Storage[_key];\n    }\n\n\n    ///BOOLEAN STORAGE\n    mapping(bytes32 => bool) booleanStorage;\n\n    function getBooleanValue(bytes32 _key) public view returns (bool) {\n        return booleanStorage[_key];\n    }\n\n    function setBooleanValue(bytes32 _key, bool _value) public {\n        booleanStorage[_key] = _value;\n    }\n\n    function deleteBooleanValue(bytes32 _key) public {\n        delete booleanStorage[_key];\n    }\n\n\n    ///UINT STORAGE\n    mapping(bytes32 => int) intStorage;\n\n    function getIntValue(bytes32 _key) public view returns (int){\n        return intStorage[_key];\n    }\n\n    function setIntValue(bytes32 _key, int _value) public {\n        intStorage[_key] = _value;\n    }\n\n    function deleteIntValue(bytes32 _key) public {\n        delete intStorage[_key];\n    }\n\n    // function(uint256) external storage\n    mapping(bytes32 => function(uint256) external) uint256functions;\n\n    function setUint256Function(bytes32 _key, function(uint256) external func) public {\n        uint256functions[_key] = func;\n    }\n\n    function getUint256Function(bytes32 _key) public view returns (function(uint256) external) {\n        return uint256functions[_key];\n    }\n\n    // function(uint256, string memory, string memory, string memory) external storage\n    mapping(bytes32 => function(uint256, string memory, string memory, string memory) external) uint256stringX3Functions;\n\n    function setUint256stringX3Function(\n        bytes32 _key,\n        function(uint256, string memory, string memory, string memory) external func\n    ) public {\n        uint256stringX3Functions[_key] = func;\n    }\n\n    function getUint256stringX3Function(\n        bytes32 _key\n    )\n    public view\n    returns (function(uint256, string memory, string memory, string memory) external)\n    {\n        return uint256stringX3Functions[_key];\n    }\n\n    // function(uint256, string memory) external storage\n    mapping(bytes32 => function(uint256, string memory) external) uint256X1StringX1functions;\n\n    function setUint256X1StringX1Function(bytes32 _key, function(uint256, string memory) external _func) public {\n        uint256X1StringX1functions[_key] = _func;\n    }\n\n    function getUint256X1StringX1Function(bytes32 _key) public view returns (function(uint256, string memory) external) {\n        return uint256X1StringX1functions[_key];\n    }\n\n    //function(uint256, string memory, string memory) external storage\n    mapping(bytes32 => function(uint256, string memory, string memory) external) uint256X1StringX2Functions;\n\n    function setUint256X1StringX2Function(bytes32 _key, function(uint256, string memory, string memory) external _func) public {\n        uint256X1StringX2Functions[_key] = _func;\n    }\n\n    function getUint256X1StringX2Function(bytes32 _key) public view returns (function(uint256, string memory, string memory) external) {\n        return uint256X1StringX2Functions[_key];\n    }\n\n    //function(uint256, uint256) external storage\n    mapping(bytes32 => function(uint256, uint256) external) uint256X2Functions;\n\n    function setUint256X2Function(bytes32 _key, function(uint256, uint256) external _func) public {\n        uint256X2Functions[_key] = _func;\n    }\n\n    function getUint256X2Function(bytes32 _key) public view returns (function(uint256, uint256) external) {\n        return uint256X2Functions[_key];\n    }\n\n    //function(uint256, uint256, uint256) external storage\n    mapping(bytes32 => function(uint256, uint256, uint256) external) uint256X3Functions;\n\n    function setUint256X3Function(bytes32 _key, function(uint256, uint256, uint256) external _func) public {\n        uint256X3Functions[_key] = _func;\n    }\n\n    function getUint256X3Function(bytes32 _key) public view returns (function(uint256, uint256, uint256) external) {\n        return uint256X3Functions[_key];\n    }\n\n    //function(uint256, uint256) external returns (function(uint256, uint256, uint256) external) storage\n    mapping(bytes32 => function(uint256, uint256) external returns (function(uint256, uint256, uint256) external)) uint256X2returnsFunctionUint256x3Functions;\n\n    function setUint256X2returnsFunctionUint256x3Function(\n        bytes32 _key,\n        function(uint256, uint256) external returns (function(uint256, uint256, uint256) external) _func\n    )\n    public\n    {\n        uint256X2returnsFunctionUint256x3Functions[_key] = _func;\n    }\n\n    function getUint256X2returnsFunctionUint256x3Function(\n        bytes32 _key\n    )\n    public\n    view\n    returns (function(uint256, uint256) external returns (function(uint256, uint256, uint256) external))\n    {\n        return uint256X2returnsFunctionUint256x3Functions[_key];\n    }\n\n}\n",
  "sourcePath": "/home/andrew/vault-logic-project/Development/test/vault-logic-api/truffle/contracts/Database.sol",
  "compiler": {
    "name": "solc",
    "version": "0.4.24+commit.e67f0147.Emscripten.clang"
  },
  "schemaVersion": "2.0.1",
  "updatedAt": "2018-11-05T14:18:53.077Z"
}