{
  "contractName": "Database",
  "abi": [
    {
      "constant": true,
      "inputs": [],
      "name": "owner",
      "outputs": [
        {
          "name": "",
          "type": "address"
        }
      ],
      "payable": false,
      "stateMutability": "view",
      "type": "function"
    },
    {
      "constant": true,
      "inputs": [
        {
          "name": "_key",
          "type": "bytes32"
        }
      ],
      "name": "getUintValue",
      "outputs": [
        {
          "name": "",
          "type": "uint256"
        }
      ],
      "payable": false,
      "stateMutability": "view",
      "type": "function"
    },
    {
      "constant": false,
      "inputs": [
        {
          "name": "_key",
          "type": "bytes32"
        },
        {
          "name": "_value",
          "type": "uint256"
        }
      ],
      "name": "setUintValue",
      "outputs": [],
      "payable": false,
      "stateMutability": "nonpayable",
      "type": "function"
    },
    {
      "constant": false,
      "inputs": [
        {
          "name": "_key",
          "type": "bytes32"
        }
      ],
      "name": "deleteUintValue",
      "outputs": [],
      "payable": false,
      "stateMutability": "nonpayable",
      "type": "function"
    },
    {
      "constant": true,
      "inputs": [
        {
          "name": "_key",
          "type": "bytes32"
        }
      ],
      "name": "getStringValue",
      "outputs": [
        {
          "name": "",
          "type": "string"
        }
      ],
      "payable": false,
      "stateMutability": "view",
      "type": "function"
    },
    {
      "constant": false,
      "inputs": [
        {
          "name": "_key",
          "type": "bytes32"
        },
        {
          "name": "_value",
          "type": "string"
        }
      ],
      "name": "setStringValue",
      "outputs": [],
      "payable": false,
      "stateMutability": "nonpayable",
      "type": "function"
    },
    {
      "constant": false,
      "inputs": [
        {
          "name": "_key",
          "type": "bytes32"
        }
      ],
      "name": "deleteStringValue",
      "outputs": [],
      "payable": false,
      "stateMutability": "nonpayable",
      "type": "function"
    },
    {
      "constant": true,
      "inputs": [
        {
          "name": "_key",
          "type": "bytes32"
        }
      ],
      "name": "getAddressValue",
      "outputs": [
        {
          "name": "",
          "type": "address"
        }
      ],
      "payable": false,
      "stateMutability": "view",
      "type": "function"
    },
    {
      "constant": false,
      "inputs": [
        {
          "name": "_key",
          "type": "bytes32"
        },
        {
          "name": "_value",
          "type": "address"
        }
      ],
      "name": "setAddressValue",
      "outputs": [],
      "payable": false,
      "stateMutability": "nonpayable",
      "type": "function"
    },
    {
      "constant": false,
      "inputs": [
        {
          "name": "_key",
          "type": "bytes32"
        }
      ],
      "name": "deleteAddressValue",
      "outputs": [],
      "payable": false,
      "stateMutability": "nonpayable",
      "type": "function"
    },
    {
      "constant": true,
      "inputs": [
        {
          "name": "_key",
          "type": "bytes32"
        }
      ],
      "name": "getBytesValue",
      "outputs": [
        {
          "name": "",
          "type": "bytes"
        }
      ],
      "payable": false,
      "stateMutability": "view",
      "type": "function"
    },
    {
      "constant": false,
      "inputs": [
        {
          "name": "_key",
          "type": "bytes32"
        },
        {
          "name": "_value",
          "type": "bytes"
        }
      ],
      "name": "setBytesValue",
      "outputs": [],
      "payable": false,
      "stateMutability": "nonpayable",
      "type": "function"
    },
    {
      "constant": false,
      "inputs": [
        {
          "name": "_key",
          "type": "bytes32"
        }
      ],
      "name": "deleteBytesValue",
      "outputs": [],
      "payable": false,
      "stateMutability": "nonpayable",
      "type": "function"
    },
    {
      "constant": true,
      "inputs": [
        {
          "name": "_key",
          "type": "bytes32"
        }
      ],
      "name": "getBytes32Value",
      "outputs": [
        {
          "name": "",
          "type": "bytes32"
        }
      ],
      "payable": false,
      "stateMutability": "view",
      "type": "function"
    },
    {
      "constant": false,
      "inputs": [
        {
          "name": "_key",
          "type": "bytes32"
        },
        {
          "name": "_value",
          "type": "bytes32"
        }
      ],
      "name": "setBytes32Value",
      "outputs": [],
      "payable": false,
      "stateMutability": "nonpayable",
      "type": "function"
    },
    {
      "constant": false,
      "inputs": [
        {
          "name": "_key",
          "type": "bytes32"
        }
      ],
      "name": "deleteBytes32Value",
      "outputs": [],
      "payable": false,
      "stateMutability": "nonpayable",
      "type": "function"
    },
    {
      "constant": true,
      "inputs": [
        {
          "name": "_key",
          "type": "bytes32"
        }
      ],
      "name": "getBooleanValue",
      "outputs": [
        {
          "name": "",
          "type": "bool"
        }
      ],
      "payable": false,
      "stateMutability": "view",
      "type": "function"
    },
    {
      "constant": false,
      "inputs": [
        {
          "name": "_key",
          "type": "bytes32"
        },
        {
          "name": "_value",
          "type": "bool"
        }
      ],
      "name": "setBooleanValue",
      "outputs": [],
      "payable": false,
      "stateMutability": "nonpayable",
      "type": "function"
    },
    {
      "constant": false,
      "inputs": [
        {
          "name": "_key",
          "type": "bytes32"
        }
      ],
      "name": "deleteBooleanValue",
      "outputs": [],
      "payable": false,
      "stateMutability": "nonpayable",
      "type": "function"
    },
    {
      "constant": true,
      "inputs": [
        {
          "name": "_key",
          "type": "bytes32"
        }
      ],
      "name": "getIntValue",
      "outputs": [
        {
          "name": "",
          "type": "int256"
        }
      ],
      "payable": false,
      "stateMutability": "view",
      "type": "function"
    },
    {
      "constant": false,
      "inputs": [
        {
          "name": "_key",
          "type": "bytes32"
        },
        {
          "name": "_value",
          "type": "int256"
        }
      ],
      "name": "setIntValue",
      "outputs": [],
      "payable": false,
      "stateMutability": "nonpayable",
      "type": "function"
    },
    {
      "constant": false,
      "inputs": [
        {
          "name": "_key",
          "type": "bytes32"
        }
      ],
      "name": "deleteIntValue",
      "outputs": [],
      "payable": false,
      "stateMutability": "nonpayable",
      "type": "function"
    },
    {
      "constant": false,
      "inputs": [
        {
          "name": "_key",
          "type": "bytes32"
        },
        {
          "name": "func",
          "type": "function"
        }
      ],
      "name": "setUint256Function",
      "outputs": [],
      "payable": false,
      "stateMutability": "nonpayable",
      "type": "function"
    },
    {
      "constant": true,
      "inputs": [
        {
          "name": "_key",
          "type": "bytes32"
        }
      ],
      "name": "getUint256Function",
      "outputs": [
        {
          "name": "",
          "type": "function"
        }
      ],
      "payable": false,
      "stateMutability": "view",
      "type": "function"
    },
    {
      "constant": false,
      "inputs": [
        {
          "name": "_key",
          "type": "bytes32"
        },
        {
          "name": "func",
          "type": "function"
        }
      ],
      "name": "setUint256stringX3Function",
      "outputs": [],
      "payable": false,
      "stateMutability": "nonpayable",
      "type": "function"
    },
    {
      "constant": true,
      "inputs": [
        {
          "name": "_key",
          "type": "bytes32"
        }
      ],
      "name": "getUint256stringX3Function",
      "outputs": [
        {
          "name": "",
          "type": "function"
        }
      ],
      "payable": false,
      "stateMutability": "view",
      "type": "function"
    },
    {
      "constant": false,
      "inputs": [
        {
          "name": "_key",
          "type": "bytes32"
        },
        {
          "name": "_func",
          "type": "function"
        }
      ],
      "name": "setUint256X1StringX1Function",
      "outputs": [],
      "payable": false,
      "stateMutability": "nonpayable",
      "type": "function"
    },
    {
      "constant": true,
      "inputs": [
        {
          "name": "_key",
          "type": "bytes32"
        }
      ],
      "name": "getUint256X1StringX1Function",
      "outputs": [
        {
          "name": "",
          "type": "function"
        }
      ],
      "payable": false,
      "stateMutability": "view",
      "type": "function"
    },
    {
      "constant": false,
      "inputs": [
        {
          "name": "_key",
          "type": "bytes32"
        },
        {
          "name": "_func",
          "type": "function"
        }
      ],
      "name": "setUint256X1StringX2Function",
      "outputs": [],
      "payable": false,
      "stateMutability": "nonpayable",
      "type": "function"
    },
    {
      "constant": true,
      "inputs": [
        {
          "name": "_key",
          "type": "bytes32"
        }
      ],
      "name": "getUint256X1StringX2Function",
      "outputs": [
        {
          "name": "",
          "type": "function"
        }
      ],
      "payable": false,
      "stateMutability": "view",
      "type": "function"
    }
  ],
  "bytecode": "0x6080604052336000806101000a81548173ffffffffffffffffffffffffffffffffffffffff021916908373ffffffffffffffffffffffffffffffffffffffff1602179055506115fd806100536000396000f300608060405260043610610180576000357c0100000000000000000000000000000000000000000000000000000000900463ffffffff168063025ec81a14610185578063043106c0146101d25780630c55d92514610203578063124f24181461023457806317e7dd221461026557806325cf512d146102ae5780633cc1635c146102ed5780633eba9ed21461031e57806344bfa56e1461035b5780634c0a4ced146104055780634c77e5ba146104855780635252e5c8146104f65780635a2bf25a1461055757806360f3c61e146105a85780638267a9ee146106095780638da5cb5b1461063a5780639007127b146106915780639b1a20d5146106d6578063a209a29c14610756578063a77aa49e14610800578063ba69fcaa1461083b578063bf9f8ba91461086c578063c9a52d2c146108ec578063d8b85d4514610963578063e4f30231146109c4578063e82617fb146109f5578063f586606614610a3a578063f8b98ab114610ab1578063fe562b2314610b12578063ffb4f62314610b92575b600080fd5b34801561019157600080fd5b506101b46004803603810190808035600019169060200190929190505050610bcd565b60405180826000191660001916815260200191505060405180910390f35b3480156101de57600080fd5b506102016004803603810190808035600019169060200190929190505050610bf2565b005b34801561020f57600080fd5b506102326004803603810190808035600019169060200190929190505050610c33565b005b34801561024057600080fd5b506102636004803603810190808035600019169060200190929190505050610c5d565b005b34801561027157600080fd5b506102946004803603810190808035600019169060200190929190505050610c7f565b604051808215151515815260200191505060405180910390f35b3480156102ba57600080fd5b506102eb60048036038101908080356000191690602001909291908035600019169060200190929190505050610cb1565b005b3480156102f957600080fd5b5061031c6004803603810190808035600019169060200190929190505050610cd9565b005b34801561032a57600080fd5b506103596004803603810190808035600019169060200190929190803515159060200190929190505050610d07565b005b34801561036757600080fd5b5061038a6004803603810190808035600019169060200190929190505050610d3e565b6040518080602001828103825283818151815260200191508051906020019080838360005b838110156103ca5780820151818401526020810190506103af565b50505050905090810190601f1680156103f75780820380516001836020036101000a031916815260200191505b509250505060405180910390f35b34801561041157600080fd5b5061048360048036038101908080356000191690602001909291908035806c0100000000000000000000000090049068010000000000000000900463ffffffff1677ffffffffffffffffffffffffffffffffffffffffffffffff16909160200191909392919093929190505050610dfb565b005b34801561049157600080fd5b506104b46004803603810190808035600019169060200190929190505050610e70565b604051808273ffffffffffffffffffffffffffffffffffffffff1673ffffffffffffffffffffffffffffffffffffffff16815260200191505060405180910390f35b34801561050257600080fd5b506105256004803603810190808035600019169060200190929190505050610eb5565b60405180838363ffffffff16906401000000000217680100000000000000000281526020019250505060405180910390f35b34801561056357600080fd5b506105a66004803603810190808035600019169060200190929190803573ffffffffffffffffffffffffffffffffffffffff169060200190929190505050610f0d565b005b3480156105b457600080fd5b506105d76004803603810190808035600019169060200190929190505050610f6b565b60405180838363ffffffff16906401000000000217680100000000000000000281526020019250505060405180910390f35b34801561061557600080fd5b506106386004803603810190808035600019169060200190929190505050610fc3565b005b34801561064657600080fd5b5061064f610fe5565b604051808273ffffffffffffffffffffffffffffffffffffffff1673ffffffffffffffffffffffffffffffffffffffff16815260200191505060405180910390f35b34801561069d57600080fd5b506106c0600480360381019080803560001916906020019092919050505061100a565b6040518082815260200191505060405180910390f35b3480156106e257600080fd5b5061075460048036038101908080356000191690602001909291908035806c0100000000000000000000000090049068010000000000000000900463ffffffff1677ffffffffffffffffffffffffffffffffffffffffffffffff1690916020019190939291909392919050505061102f565b005b34801561076257600080fd5b5061078560048036038101908080356000191690602001909291905050506110a4565b6040518080602001828103825283818151815260200191508051906020019080838360005b838110156107c55780820151818401526020810190506107aa565b50505050905090810190601f1680156107f25780820380516001836020036101000a031916815260200191505b509250505060405180910390f35b34801561080c57600080fd5b50610839600480360381019080803560001916906020019092919080359060200190929190505050611161565b005b34801561084757600080fd5b5061086a6004803603810190808035600019169060200190929190505050611185565b005b34801561087857600080fd5b506108ea60048036038101908080356000191690602001909291908035806c0100000000000000000000000090049068010000000000000000900463ffffffff1677ffffffffffffffffffffffffffffffffffffffffffffffff169091602001919093929190939291905050506111af565b005b3480156108f857600080fd5b506109616004803603810190808035600019169060200190929190803590602001908201803590602001908080601f0160208091040260200160405190810160405280939291908181526020018383808284378201915050505050509192919290505050611224565b005b34801561096f57600080fd5b506109926004803603810190808035600019169060200190929190505050611258565b60405180838363ffffffff16906401000000000217680100000000000000000281526020019250505060405180910390f35b3480156109d057600080fd5b506109f360048036038101908080356000191690602001909291905050506112b0565b005b348015610a0157600080fd5b50610a2460048036038101908080356000191690602001909291905050506112d2565b6040518082815260200191505060405180910390f35b348015610a4657600080fd5b50610aaf6004803603810190808035600019169060200190929190803590602001908201803590602001908080601f01602080910402602001604051908101604052809392919081815260200183838082843782019150505050505091929192905050506112f7565b005b348015610abd57600080fd5b50610ae0600480360381019080803560001916906020019092919050505061132b565b60405180838363ffffffff16906401000000000217680100000000000000000281526020019250505060405180910390f35b348015610b1e57600080fd5b50610b9060048036038101908080356000191690602001909291908035806c0100000000000000000000000090049068010000000000000000900463ffffffff1677ffffffffffffffffffffffffffffffffffffffffffffffff16909160200191909392919093929190505050611383565b005b348015610b9e57600080fd5b50610bcb6004803603810190808035600019169060200190929190803590602001909291905050506113f8565b005b6000600560008360001916600019168152602001908152602001600020549050919050565b60036000826000191660001916815260200190815260200160002060006101000a81549073ffffffffffffffffffffffffffffffffffffffff021916905550565b6004600082600019166000191681526020019081526020016000206000610c5a919061141c565b50565b6005600082600019166000191681526020019081526020016000206000905550565b600060066000836000191660001916815260200190815260200160002060009054906101000a900460ff169050919050565b8060056000846000191660001916815260200190815260200160002081600019169055505050565b60066000826000191660001916815260200190815260200160002060006101000a81549060ff021916905550565b8060066000846000191660001916815260200190815260200160002060006101000a81548160ff0219169083151502179055505050565b60606004600083600019166000191681526020019081526020016000208054600181600116156101000203166002900480601f016020809104026020016040519081016040528092919081815260200182805460018160011615610100020316600290048015610def5780601f10610dc457610100808354040283529160200191610def565b820191906000526020600020905b815481529060010190602001808311610dd257829003601f168201915b50505050509050919050565b818160086000866000191660001916815260200190815260200160002060006101000a81548177ffffffffffffffffffffffffffffffffffffffffffffffff02191690848463ffffffff169073ffffffffffffffffffffffffffffffffffffffff166401000000000217021790555050505050565b600060036000836000191660001916815260200190815260200160002060009054906101000a900473ffffffffffffffffffffffffffffffffffffffff169050919050565b60008060096000846000191660001916815260200190815260200160002060009054906101000a900480640100000000900473ffffffffffffffffffffffffffffffffffffffff169063ffffffff1691509150915091565b8060036000846000191660001916815260200190815260200160002060006101000a81548173ffffffffffffffffffffffffffffffffffffffff021916908373ffffffffffffffffffffffffffffffffffffffff1602179055505050565b600080600a6000846000191660001916815260200190815260200160002060009054906101000a900480640100000000900473ffffffffffffffffffffffffffffffffffffffff169063ffffffff1691509150915091565b6007600082600019166000191681526020019081526020016000206000905550565b6000809054906101000a900473ffffffffffffffffffffffffffffffffffffffff1681565b6000600760008360001916600019168152602001908152602001600020549050919050565b8181600b6000866000191660001916815260200190815260200160002060006101000a81548177ffffffffffffffffffffffffffffffffffffffffffffffff02191690848463ffffffff169073ffffffffffffffffffffffffffffffffffffffff166401000000000217021790555050505050565b60606002600083600019166000191681526020019081526020016000208054600181600116156101000203166002900480601f0160208091040260200160405190810160405280929190818152602001828054600181600116156101000203166002900480156111555780601f1061112a57610100808354040283529160200191611155565b820191906000526020600020905b81548152906001019060200180831161113857829003601f168201915b50505050509050919050565b80600760008460001916600019168152602001908152602001600020819055505050565b60026000826000191660001916815260200190815260200160002060006111ac9190611464565b50565b818160096000866000191660001916815260200190815260200160002060006101000a81548177ffffffffffffffffffffffffffffffffffffffffffffffff02191690848463ffffffff169073ffffffffffffffffffffffffffffffffffffffff166401000000000217021790555050505050565b8060046000846000191660001916815260200190815260200160002090805190602001906112539291906114ac565b505050565b600080600b6000846000191660001916815260200190815260200160002060009054906101000a900480640100000000900473ffffffffffffffffffffffffffffffffffffffff169063ffffffff1691509150915091565b6001600082600019166000191681526020019081526020016000206000905550565b6000600160008360001916600019168152602001908152602001600020549050919050565b80600260008460001916600019168152602001908152602001600020908051906020019061132692919061152c565b505050565b60008060086000846000191660001916815260200190815260200160002060009054906101000a900480640100000000900473ffffffffffffffffffffffffffffffffffffffff169063ffffffff1691509150915091565b8181600a6000866000191660001916815260200190815260200160002060006101000a81548177ffffffffffffffffffffffffffffffffffffffffffffffff02191690848463ffffffff169073ffffffffffffffffffffffffffffffffffffffff166401000000000217021790555050505050565b80600160008460001916600019168152602001908152602001600020819055505050565b50805460018160011615610100020316600290046000825580601f106114425750611461565b601f01602090049060005260206000209081019061146091906115ac565b5b50565b50805460018160011615610100020316600290046000825580601f1061148a57506114a9565b601f0160209004906000526020600020908101906114a891906115ac565b5b50565b828054600181600116156101000203166002900490600052602060002090601f016020900481019282601f106114ed57805160ff191683800117855561151b565b8280016001018555821561151b579182015b8281111561151a5782518255916020019190600101906114ff565b5b50905061152891906115ac565b5090565b828054600181600116156101000203166002900490600052602060002090601f016020900481019282601f1061156d57805160ff191683800117855561159b565b8280016001018555821561159b579182015b8281111561159a57825182559160200191906001019061157f565b5b5090506115a891906115ac565b5090565b6115ce91905b808211156115ca5760008160009055506001016115b2565b5090565b905600a165627a7a7230582084a9aca5595e81b350c991fcfd996ff3f9b4d171835d3bcfbcd9baaa045aafb80029",
  "source": "pragma solidity 0.4.24;\n\nimport {Owned} from \"./Platform.sol\";\n\ncontract Database is Owned {\n\n    /// UINT STORAGE\n    mapping(bytes32 => uint256) uintStorage;\n\n    function getUintValue(bytes32 _key) public view returns (uint256) {\n        return uintStorage[_key];\n    }\n\n    function setUintValue(bytes32 _key, uint256 _value) public {\n        uintStorage[_key] = _value;\n    }\n\n    function deleteUintValue(bytes32 _key) public {\n        delete uintStorage[_key];\n    }\n\n    ///STRING STORAGE\n    mapping(bytes32 => string) stringStorage;\n\n    function getStringValue(bytes32 _key) public view returns (string) {\n        return stringStorage[_key];\n    }\n\n    function setStringValue(bytes32 _key, string _value) public {\n        stringStorage[_key] = _value;\n    }\n\n    function deleteStringValue(bytes32 _key) public {\n        delete stringStorage[_key];\n    }\n\n\n    ///ADDRESS STORAGE\n    mapping(bytes32 => address) addressStorage;\n\n    function getAddressValue(bytes32 _key) public view returns (address) {\n        return addressStorage[_key];\n    }\n\n    function setAddressValue(bytes32 _key, address _value) public {\n        addressStorage[_key] = _value;\n    }\n\n    function deleteAddressValue(bytes32 _key) public {\n        delete addressStorage[_key];\n    }\n\n\n    ///BYTES STORAGE\n    mapping(bytes32 => bytes) bytesStorage;\n\n    function getBytesValue(bytes32 _key) public view returns (bytes) {\n        return bytesStorage[_key];\n    }\n\n    function setBytesValue(bytes32 _key, bytes _value) public {\n        bytesStorage[_key] = _value;\n    }\n\n    function deleteBytesValue(bytes32 _key) public {\n        delete bytesStorage[_key];\n    }\n\n\n    /// BYTES32 STORAGE\n    mapping(bytes32 => bytes32) bytes32Storage;\n\n    function getBytes32Value(bytes32 _key) public view returns (bytes32) {\n        return bytes32Storage[_key];\n    }\n\n    function setBytes32Value(bytes32 _key, bytes32 _value) public {\n        bytes32Storage[_key] = _value;\n    }\n\n    function deleteBytes32Value(bytes32 _key) public {\n        delete bytes32Storage[_key];\n    }\n\n\n    ///BOOLEAN STORAGE\n    mapping(bytes32 => bool) booleanStorage;\n\n    function getBooleanValue(bytes32 _key) public view returns (bool) {\n        return booleanStorage[_key];\n    }\n\n    function setBooleanValue(bytes32 _key, bool _value) public {\n        booleanStorage[_key] = _value;\n    }\n\n    function deleteBooleanValue(bytes32 _key) public {\n        delete booleanStorage[_key];\n    }\n\n\n    ///UINT STORAGE\n    mapping(bytes32 => int) intStorage;\n\n    function getIntValue(bytes32 _key) public view returns (int){\n        return intStorage[_key];\n    }\n\n    function setIntValue(bytes32 _key, int _value) public {\n        intStorage[_key] = _value;\n    }\n\n    function deleteIntValue(bytes32 _key) public {\n        delete intStorage[_key];\n    }\n\n    // function(uint256) external storage\n    mapping(bytes32 => function(uint256) external) uint256functions;\n\n    function setUint256Function(bytes32 _key, function(uint256) external func) public {\n        uint256functions[_key] = func;\n    }\n\n    function getUint256Function(bytes32 _key) public view returns (function(uint256) external) {\n        return uint256functions[_key];\n    }\n\n    // function(uint256, string memory, string memory, string memory) external storage\n    mapping(bytes32 => function(uint256, string memory, string memory, string memory) external) uint256stringX3Functions;\n\n    function setUint256stringX3Function(\n        bytes32 _key,\n        function(uint256, string memory, string memory, string memory) external func\n    ) public {\n        uint256stringX3Functions[_key] = func;\n    }\n\n    function getUint256stringX3Function(\n        bytes32 _key\n    )\n    public view\n    returns (function(uint256, string memory, string memory, string memory) external)\n    {\n        return uint256stringX3Functions[_key];\n    }\n\n    // function(uint256, string memory) external storage\n    mapping(bytes32 => function(uint256, string memory) external) uint256X1StringX1functions;\n\n    function setUint256X1StringX1Function(bytes32 _key, function(uint256, string memory) external _func) public {\n        uint256X1StringX1functions[_key] = _func;\n    }\n\n    function getUint256X1StringX1Function(bytes32 _key) public view returns (function(uint256, string memory) external) {\n        return uint256X1StringX1functions[_key];\n    }\n\n    //function(uint256, string memory, string memory) external storage\n    mapping(bytes32 => function(uint256, string memory, string memory) external) uint256X1StringX2Functions;\n\n    function setUint256X1StringX2Function(bytes32 _key, function(uint256, string memory, string memory) external _func) public {\n        uint256X1StringX2Functions[_key] = _func;\n    }\n\n    function getUint256X1StringX2Function(bytes32 _key) public view returns (function(uint256, string memory, string memory) external) {\n        return uint256X1StringX2Functions[_key];\n    }\n\n}\n",
  "sourcePath": "/home/andrew/vault-logic-project/Development/test/vault-logic-api/truffle/contracts/Database.sol",
  "compiler": {
    "name": "solc",
    "version": "0.4.24+commit.e67f0147.Emscripten.clang"
  },
  "schemaVersion": "2.0.1",
  "updatedAt": "2018-10-16T12:45:45.740Z"
}