{
  "contractName": "KioskStorage",
  "abi": [
    {
      "constant": true,
      "inputs": [],
      "name": "name",
      "outputs": [
        {
          "name": "",
          "type": "string"
        }
      ],
      "payable": false,
      "stateMutability": "view",
      "type": "function"
    },
    {
      "constant": false,
      "inputs": [],
      "name": "kill",
      "outputs": [],
      "payable": false,
      "stateMutability": "nonpayable",
      "type": "function"
    },
    {
      "constant": true,
      "inputs": [],
      "name": "owner",
      "outputs": [
        {
          "name": "",
          "type": "address"
        }
      ],
      "payable": false,
      "stateMutability": "view",
      "type": "function"
    },
    {
      "inputs": [
        {
          "name": "_config",
          "type": "address"
        }
      ],
      "payable": false,
      "stateMutability": "nonpayable",
      "type": "constructor"
    },
    {
      "constant": false,
      "inputs": [
        {
          "name": "_sessionId",
          "type": "uint256"
        },
        {
          "name": "_success",
          "type": "function"
        },
        {
          "name": "_fail",
          "type": "function"
        }
      ],
      "name": "createKioskInfoRequest",
      "outputs": [
        {
          "name": "_id",
          "type": "uint256"
        }
      ],
      "payable": false,
      "stateMutability": "nonpayable",
      "type": "function"
    },
    {
      "constant": true,
      "inputs": [
        {
          "name": "_id",
          "type": "uint256"
        }
      ],
      "name": "retrieveKioskInfoRequest",
      "outputs": [
        {
          "name": "_sessionId",
          "type": "uint256"
        },
        {
          "name": "_success",
          "type": "function"
        },
        {
          "name": "_fail",
          "type": "function"
        }
      ],
      "payable": false,
      "stateMutability": "view",
      "type": "function"
    }
  ],
  "bytecode": "0x608060405234801561001057600080fd5b506040516020806108c78339810160408181529151828201909252600d8082527f6b696f736b2d73746f72616765000000000000000000000000000000000000006020830190815260008054600160a060020a03191633179055839291610079916001916102a7565b505080600160a060020a031663713b563f6040518163ffffffff167c0100000000000000000000000000000000000000000000000000000000028152600401602060405180830381600087803b1580156100d257600080fd5b505af11580156100e6573d6000803e3d6000fd5b505050506040513d60208110156100fc57600080fd5b505160038054600160a060020a031916600160a060020a03928316179055604080517fd0496d6a00000000000000000000000000000000000000000000000000000000815290519183169163d0496d6a916004808201926020929091908290030181600087803b15801561016f57600080fd5b505af1158015610183573d6000803e3d6000fd5b505050506040513d602081101561019957600080fd5b505160028054600160a060020a031916600160a060020a03928316178082556040517ff2c298be00000000000000000000000000000000000000000000000000000000815260206004820190815260018054610100818316150260001901169490940460248301819052929094169363f2c298be939290918291604490910190849080156102685780601f1061023d57610100808354040283529160200191610268565b820191906000526020600020905b81548152906001019060200180831161024b57829003601f168201915b505092505050600060405180830381600087803b15801561028857600080fd5b505af115801561029c573d6000803e3d6000fd5b505050505050610342565b828054600181600116156101000203166002900490600052602060002090601f016020900481019282601f106102e857805160ff1916838001178555610315565b82800160010185558215610315579182015b828111156103155782518255916020019190600101906102fa565b50610321929150610325565b5090565b61033f91905b80821115610321576000815560010161032b565b90565b610576806103516000396000f30060806040526004361061006c5763ffffffff7c010000000000000000000000000000000000000000000000000000000060003504166306fdde03811461007157806341c0e1b5146100fb57806372dd202e146101125780638da5cb5b1461016e578063a28e18a0146101ac575b600080fd5b34801561007d57600080fd5b5061008661020a565b6040805160208082528351818301528351919283929083019185019080838360005b838110156100c05781810151838201526020016100a8565b50505050905090810190601f1680156100ed5780820380516001836020036101000a031916815260200191505b509250505060405180910390f35b34801561010757600080fd5b50610110610297565b005b34801561011e57600080fd5b5061012a600435610321565b604080519586526801000000000000000064010000000095860263ffffffff9586161781026020880152929094029216919091170282820152519081900360600190f35b34801561017a57600080fd5b506101836103f0565b6040805173ffffffffffffffffffffffffffffffffffffffff9092168252519081900360200190f35b3480156101b857600080fd5b506101f86004356c010000000000000000000000006024358181049163ffffffff680100000000000000009283900481169260443592830492041661040c565b60408051918252519081900360200190f35b60018054604080516020600284861615610100026000190190941693909304601f8101849004840282018401909252818152929183018282801561028f5780601f106102645761010080835404028352916020019161028f565b820191906000526020600020905b81548152906001019060200180831161027257829003601f168201915b505050505081565b60005473ffffffffffffffffffffffffffffffffffffffff16321461031d57604080517f08c379a000000000000000000000000000000000000000000000000000000000815260206004820152601260248201527f6f6e6c79206f776e657220616c6c6f7765640000000000000000000000000000604482015290519081900360640190fd5b6000ff5b600080600080600060048681548110151561033857fe5b906000526020600020906003020160000154945060048681548110151561035b57fe5b60009182526020909120600160039092020101546004805473ffffffffffffffffffffffffffffffffffffffff640100000000840416965063ffffffff909216945090879081106103a857fe5b60009182526020909120600260039092020101549496939550919373ffffffffffffffffffffffffffffffffffffffff6401000000008204169363ffffffff90911692509050565b60005473ffffffffffffffffffffffffffffffffffffffff1681565b604080516060810182529586526801000000000000000064010000000095860263ffffffff95861617810260208801908152938602928516929092178202908601908152600480546001810182556000919091529551600387027f8a35acfbc15ff81a39ae7d344fd709f28e8600b4aa8c65c6b64bfe7fe36bd19b81019190915592517f8a35acfbc15ff81a39ae7d344fd709f28e8600b4aa8c65c6b64bfe7fe36bd19c8401805473ffffffffffffffffffffffffffffffffffffffff6c0100000000000000000000000080850482168a029487900489169490941777ffffffffffffffffffffffffffffffffffffffffffffffff199283161790925592517f8a35acfbc15ff81a39ae7d344fd709f28e8600b4aa8c65c6b64bfe7fe36bd19d909501805492860490911690960292909304909316179116179055905600a165627a7a72305820bb7f3c147db5e4b2bfaf2d02278c951ce6315e707a6195575155cce133dd133b0029",
  "source": "pragma solidity 0.4.24;\n\nimport \"../platform/Named.sol\";\nimport \"../platform/Mortal.sol\";\nimport \"./api/AKioskStorage.sol\";\nimport \"../platform/Component.sol\";\nimport \"./libs/KioskLib.sol\";\n\ncontract KioskStorage is AKioskStorage, Named(\"kiosk-storage\"), Mortal, Component {\n\n    using KioskLib for KioskLib.KioskInfoRequest;\n\n    KioskLib.KioskInfoRequest[] private requests;\n\n    constructor(address _config) Component(_config) public {}\n\n    // @formatter:off\n    function createKioskInfoRequest(\n        uint256 _sessionId,\n        function(\n            uint256,\n            string memory,\n            string memory,\n            string memory,\n            string memory,\n            uint256[] memory,\n            uint256[] memory\n        ) external _success,\n        function(uint256) external _fail\n    )\n        public\n        returns (\n            uint256 _id\n        )\n    // @formatter:on\n    {\n        return requests.push(KioskLib.KioskInfoRequest(_sessionId, _success, _fail)) - 1;\n    }\n\n    // @formatter:off\n    function retrieveKioskInfoRequest(\n        uint256 _id\n    )\n        public\n        view\n        returns (\n            uint256 _sessionId,\n            function(\n                uint256,\n                string memory,\n                string memory,\n                string memory,\n                string memory,\n                uint256[] memory,\n                uint256[] memory\n            ) external _success,\n            function(uint256) external _fail\n        )\n    // @formatter:on\n    {\n        _sessionId = requests[_id].sessionId;\n        _success = requests[_id].success;\n        _fail = requests[_id].fail;\n    }\n}",
  "sourcePath": "/home/andrew/vault-logic-project/Development/test/vault-logic-api/truffle/contracts/storages/KioskStorage.sol",
  "compiler": {
    "name": "solc",
    "version": "0.4.24+commit.e67f0147.Emscripten.clang"
  },
  "schemaVersion": "2.0.1",
  "updatedAt": "2018-11-20T09:03:28.643Z"
}