{
  "contractName": "KioskManager",
  "abi": [
    {
      "constant": true,
      "inputs": [],
      "name": "name",
      "outputs": [
        {
          "name": "",
          "type": "string"
        }
      ],
      "payable": false,
      "stateMutability": "view",
      "type": "function"
    },
    {
      "constant": false,
      "inputs": [],
      "name": "kill",
      "outputs": [],
      "payable": false,
      "stateMutability": "nonpayable",
      "type": "function"
    },
    {
      "constant": true,
      "inputs": [],
      "name": "owner",
      "outputs": [
        {
          "name": "",
          "type": "address"
        }
      ],
      "payable": false,
      "stateMutability": "view",
      "type": "function"
    },
    {
      "inputs": [
        {
          "name": "_config",
          "type": "address"
        }
      ],
      "payable": false,
      "stateMutability": "nonpayable",
      "type": "constructor"
    },
    {
      "constant": false,
      "inputs": [
        {
          "name": "_application",
          "type": "address"
        },
        {
          "name": "_sessionId",
          "type": "uint256"
        },
        {
          "name": "_success",
          "type": "function"
        },
        {
          "name": "_fail",
          "type": "function"
        }
      ],
      "name": "getKiosk",
      "outputs": [],
      "payable": false,
      "stateMutability": "nonpayable",
      "type": "function"
    },
    {
      "constant": false,
      "inputs": [
        {
          "name": "_commandId",
          "type": "uint256"
        },
        {
          "name": "_id",
          "type": "string"
        },
        {
          "name": "_location",
          "type": "string"
        },
        {
          "name": "_name",
          "type": "string"
        },
        {
          "name": "_timezone",
          "type": "string"
        },
        {
          "name": "_bills",
          "type": "uint256[]"
        },
        {
          "name": "_amounts",
          "type": "uint256[]"
        }
      ],
      "name": "confirmSuccessGetKioskInfo",
      "outputs": [],
      "payable": false,
      "stateMutability": "nonpayable",
      "type": "function"
    },
    {
      "constant": false,
      "inputs": [
        {
          "name": "_commandId",
          "type": "uint256"
        }
      ],
      "name": "confirmFailGetKioskInfo",
      "outputs": [],
      "payable": false,
      "stateMutability": "nonpayable",
      "type": "function"
    }
  ],
  "bytecode": "0x60806040523480156200001157600080fd5b50604051602080620014ae8339810160408181529151828201909252600d8082527f6b696f736b2d6d616e61676572000000000000000000000000000000000000006020830190815260008054600160a060020a031916331790558392916200007d91600191620002b8565b505080600160a060020a031663713b563f6040518163ffffffff167c0100000000000000000000000000000000000000000000000000000000028152600401602060405180830381600087803b158015620000d757600080fd5b505af1158015620000ec573d6000803e3d6000fd5b505050506040513d60208110156200010357600080fd5b505160038054600160a060020a031916600160a060020a03928316179055604080517fd0496d6a00000000000000000000000000000000000000000000000000000000815290519183169163d0496d6a916004808201926020929091908290030181600087803b1580156200017757600080fd5b505af11580156200018c573d6000803e3d6000fd5b505050506040513d6020811015620001a357600080fd5b505160028054600160a060020a031916600160a060020a03928316178082556040517ff2c298be00000000000000000000000000000000000000000000000000000000815260206004820190815260018054610100818316150260001901169490940460248301819052929094169363f2c298be93929091829160449091019084908015620002765780601f106200024a5761010080835404028352916020019162000276565b820191906000526020600020905b8154815290600101906020018083116200025857829003601f168201915b505092505050600060405180830381600087803b1580156200029757600080fd5b505af1158015620002ac573d6000803e3d6000fd5b5050505050506200035d565b828054600181600116156101000203166002900490600052602060002090601f016020900481019282601f10620002fb57805160ff19168380011785556200032b565b828001600101855582156200032b579182015b828111156200032b5782518255916020019190600101906200030e565b50620003399291506200033d565b5090565b6200035a91905b8082111562000339576000815560010162000344565b90565b611141806200036d6000396000f3006080604052600436106100775763ffffffff7c010000000000000000000000000000000000000000000000000000000060003504166306fdde03811461007c57806317fe110a146101065780633bf201e01461016057806341c0e1b5146102ea5780634a051595146102ff5780638da5cb5b14610317575b600080fd5b34801561008857600080fd5b50610091610348565b6040805160208082528351818301528351919283929083019185019080838360005b838110156100cb5781810151838201526020016100b3565b50505050905090810190601f1680156100f85780820380516001836020036101000a031916815260200191505b509250505060405180910390f35b34801561011257600080fd5b5061015e600160a060020a03600435166024356c010000000000000000000000006044358181049163ffffffff68010000000000000000928390048116926064359283049204166103d5565b005b34801561016c57600080fd5b5060408051602060046024803582810135601f810185900485028601850190965285855261015e95833595369560449491939091019190819084018382808284375050604080516020601f89358b018035918201839004830284018301909452808352979a99988101979196509182019450925082915084018382808284375050604080516020601f89358b018035918201839004830284018301909452808352979a99988101979196509182019450925082915084018382808284375050604080516020601f89358b018035918201839004830284018301909452808352979a999881019791965091820194509250829150840183828082843750506040805187358901803560208181028481018201909552818452989b9a998901989297509082019550935083925085019084908082843750506040805187358901803560208181028481018201909552818452989b9a99890198929750908201955093508392508501908490808284375094975061073d9650505050505050565b3480156102f657600080fd5b5061015e610cff565b34801561030b57600080fd5b5061015e600435610d7c565b34801561032357600080fd5b5061032c611106565b60408051600160a060020a039092168252519081900360200190f35b60018054604080516020600284861615610100026000190190941693909304601f810184900484028201840190925281815292918301828280156103cd5780601f106103a2576101008083540402835291602001916103cd565b820191906000526020600020905b8154815290600101906020018083116103b057829003601f168201915b505050505081565b600254604080518082018252600d81527f6b696f736b2d73746f72616765000000000000000000000000000000000000006020808301918252925160e160020a63349f642f02815260048101938452825160248201528251600095600160a060020a03169463693ec85e949390928392604490910191908083838b5b83811015610469578181015183820152602001610451565b50505050905090810190601f1680156104965780820380516001836020036101000a031916815260200191505b5092505050602060405180830381600087803b1580156104b557600080fd5b505af11580156104c9573d6000803e3d6000fd5b505050506040513d60208110156104df57600080fd5b5051604080517fa28e18a00000000000000000000000000000000000000000000000000000000081526004810189905268010000000000000000640100000000808a0263ffffffff808b169190911783026024850152908802908716170260448201529051600160a060020a039092169163a28e18a0916064808201926020929091908290030181600087803b15801561057857600080fd5b505af115801561058c573d6000803e3d6000fd5b505050506040513d60208110156105a257600080fd5b5051600254604080518082018252600c81527f6b696f736b2d6f7261636c6500000000000000000000000000000000000000006020828101918252925160e160020a63349f642f02815260048101938452825160248201528251959650600160a060020a039094169463693ec85e94929392839260449091019180838360005b8381101561063a578181015183820152602001610622565b50505050905090810190601f1680156106675780820380516001836020036101000a031916815260200191505b5092505050602060405180830381600087803b15801561068657600080fd5b505af115801561069a573d6000803e3d6000fd5b505050506040513d60208110156106b057600080fd5b5051604080517f54c4074000000000000000000000000000000000000000000000000000000000815260048101849052602481018990529051600160a060020a03909216916354c407409160448082019260009290919082900301818387803b15801561071c57600080fd5b505af1158015610730573d6000803e3d6000fd5b5050505050505050505050565b600254604080518082018252600d81527f6b696f736b2d73746f72616765000000000000000000000000000000000000006020808301918252925160e160020a63349f642f0281526004810193845282516024820152825160009586958695600160a060020a039092169463693ec85e94929391928392604490910191908083838b5b838110156107d85781810151838201526020016107c0565b50505050905090810190601f1680156108055780820380516001836020036101000a031916815260200191505b5092505050602060405180830381600087803b15801561082457600080fd5b505af1158015610838573d6000803e3d6000fd5b505050506040513d602081101561084e57600080fd5b5051604080517f72dd202e000000000000000000000000000000000000000000000000000000008152600481018d90529051600160a060020a03909216916372dd202e916024808201926060929091908290030181600087803b1580156108b457600080fd5b505af11580156108c8573d6000803e3d6000fd5b505050506040513d60608110156108de57600080fd5b508051602091820151600254604080518082018252601081527f6b696f736b2d636f6e74726f6c6c657200000000000000000000000000000000818701908152915160e160020a63349f642f028152600481019687528151602482015281519599506c01000000000000000000000000850498506801000000000000000090940463ffffffff169650600160a060020a039092169463693ec85e949293909283926044909201919080838360005b838110156109a457818101518382015260200161098c565b50505050905090810190601f1680156109d15780820380516001836020036101000a031916815260200191505b5092505050602060405180830381600087803b1580156109f057600080fd5b505af1158015610a04573d6000803e3d6000fd5b505050506040513d6020811015610a1a57600080fd5b8101908080519060200190929190505050600160a060020a0316633d093937848b8b8b8b8b8b8a8a6040518a63ffffffff167c0100000000000000000000000000000000000000000000000000000000028152600401808a8152602001806020018060200180602001806020018060200180602001898963ffffffff169064010000000002176801000000000000000002815260200187810387528f818151815260200191508051906020019080838360005b83811015610ae5578181015183820152602001610acd565b50505050905090810190601f168015610b125780820380516001836020036101000a031916815260200191505b5087810386528e818151815260200191508051906020019080838360005b83811015610b48578181015183820152602001610b30565b50505050905090810190601f168015610b755780820380516001836020036101000a031916815260200191505b5087810385528d5181528d516020918201918f019080838360005b83811015610ba8578181015183820152602001610b90565b50505050905090810190601f168015610bd55780820380516001836020036101000a031916815260200191505b5087810384528c5181528c516020918201918e019080838360005b83811015610c08578181015183820152602001610bf0565b50505050905090810190601f168015610c355780820380516001836020036101000a031916815260200191505b5087810383528b5181528b51602091820191808e01910280838360005b83811015610c6a578181015183820152602001610c52565b5050505090500187810382528a818151815260200191508051906020019060200280838360005b83811015610ca9578181015183820152602001610c91565b505050509050019f50505050505050505050505050505050600060405180830381600087803b158015610cdb57600080fd5b505af1158015610cef573d6000803e3d6000fd5b5050505050505050505050505050565b600054600160a060020a03163214610d7857604080517f08c379a000000000000000000000000000000000000000000000000000000000815260206004820152601260248201527f6f6e6c79206f776e657220616c6c6f7765640000000000000000000000000000604482015290519081900360640190fd5b6000ff5b600254604080518082018252600d81527f6b696f736b2d73746f72616765000000000000000000000000000000000000006020808301918252925160e160020a63349f642f0281526004810193845282516024820152825160009586958695600160a060020a039092169463693ec85e94929391928392604490910191908083838b5b83811015610e17578181015183820152602001610dff565b50505050905090810190601f168015610e445780820380516001836020036101000a031916815260200191505b5092505050602060405180830381600087803b158015610e6357600080fd5b505af1158015610e77573d6000803e3d6000fd5b505050506040513d6020811015610e8d57600080fd5b5051604080517f72dd202e000000000000000000000000000000000000000000000000000000008152600481018790529051600160a060020a03909216916372dd202e916024808201926060929091908290030181600087803b158015610ef357600080fd5b505af1158015610f07573d6000803e3d6000fd5b505050506040513d6060811015610f1d57600080fd5b5060208181015160409283015160025484518086018652601081527f6b696f736b2d636f6e74726f6c6c657200000000000000000000000000000000818601908152955160e160020a63349f642f028152600481019586528151602482015281516c0100000000000000000000000085049a5063ffffffff680100000000000000009586900481169a50949095049093169650600160a060020a039091169463693ec85e949193919283926044909101919080838360005b83811015610fed578181015183820152602001610fd5565b50505050905090810190601f16801561101a5780820380516001836020036101000a031916815260200191505b5092505050602060405180830381600087803b15801561103957600080fd5b505af115801561104d573d6000803e3d6000fd5b505050506040513d602081101561106357600080fd5b5051604080517f05248daa0000000000000000000000000000000000000000000000000000000081526004810184905268010000000000000000640100000000870263ffffffff8716170260248201529051600160a060020a03909216916305248daa9160448082019260009290919082900301818387803b1580156110e857600080fd5b505af11580156110fc573d6000803e3d6000fd5b5050505050505050565b600054600160a060020a0316815600a165627a7a7230582051f09c6c6442a906d885441951c9d24285545979339e28c513c3012eaf7914790029",
  "source": "pragma solidity 0.4.24;\n\nimport \"./api/AKioskManager.sol\";\nimport \"../platform/Named.sol\";\nimport \"../platform/Mortal.sol\";\nimport \"../platform/Component.sol\";\nimport \"../storages/api/AKioskStorage.sol\";\nimport \"../oracles/api/AKioskOracle.sol\";\nimport \"../controllers/api/AKioskController.sol\";\n\ncontract KioskManager is AKioskManager, Named(\"kiosk-manager\"), Mortal, Component {\n\n    string constant CONTROLLER = \"kiosk-controller\";\n    string constant ORACLE = \"kiosk-oracle\";\n    string constant STORAGE = \"kiosk-storage\";\n\n    constructor(address _config) Component(_config) public {}\n\n    // @formatter:off\n    function getKiosk(\n        address _application,\n        uint256 _sessionId,\n        function(\n            uint256,\n            string memory,\n            string memory,\n            string memory,\n            string memory,\n            uint256[] memory,\n            uint256[] memory\n        ) external _success,\n        function(uint256) external _fail\n    )\n        external\n    // @formatter:on\n    {\n        uint256 id = AKioskStorage(context.get(STORAGE)).createKioskInfoRequest(_sessionId, _success, _fail);\n        AKioskOracle(context.get(ORACLE)).onNextGetKioskInfo(id, _sessionId);\n    }\n\n    // @formatter:off\n    function confirmSuccessGetKioskInfo(\n        uint256 _commandId,\n        string _id,\n        string _location,\n        string _name,\n        string _timezone,\n        uint256[] _bills,\n        uint256[] _amounts\n    )\n        public\n    {\n        (\n            uint256 sessionId,\n            function(uint256,string memory,string memory,string memory,string memory,uint256[] memory,uint256[] memory) external success\n            ,\n        ) = AKioskStorage(context.get(STORAGE)).retrieveKioskInfoRequest(_commandId);\n        AKioskController(context.get(CONTROLLER)).respondSuccess(sessionId, _id, _location, _name, _timezone, _bills, _amounts, success);\n    }\n    // @formatter:on\n\n    // @formatter:off\n    function confirmFailGetKioskInfo(\n        uint256 _commandId\n    )\n        public\n    {\n        function(uint256) external fail;\n        uint256 sessionId;\n        (sessionId,,fail) = AKioskStorage(context.get(STORAGE)).retrieveKioskInfoRequest(_commandId);\n        AKioskController(context.get(CONTROLLER)).respondFail(sessionId, fail);\n    }\n    // @formatter:on\n\n}",
  "sourcePath": "/home/andrew/vault-logic-project/Development/test/vault-logic-api/truffle/contracts/managers/KioskManager.sol",
  "compiler": {
    "name": "solc",
    "version": "0.4.24+commit.e67f0147.Emscripten.clang"
  },
  "schemaVersion": "2.0.1",
  "updatedAt": "2018-11-26T09:18:11.082Z"
}