{
  "contractName": "KioskStorage",
  "abi": [
    {
      "constant": true,
      "inputs": [],
      "name": "name",
      "outputs": [
        {
          "name": "",
          "type": "string"
        }
      ],
      "payable": false,
      "stateMutability": "view",
      "type": "function"
    },
    {
      "constant": false,
      "inputs": [],
      "name": "kill",
      "outputs": [],
      "payable": false,
      "stateMutability": "nonpayable",
      "type": "function"
    },
    {
      "constant": true,
      "inputs": [],
      "name": "owner",
      "outputs": [
        {
          "name": "",
          "type": "address"
        }
      ],
      "payable": false,
      "stateMutability": "view",
      "type": "function"
    },
    {
      "inputs": [
        {
          "name": "_config",
          "type": "address"
        }
      ],
      "payable": false,
      "stateMutability": "nonpayable",
      "type": "constructor"
    },
    {
      "anonymous": false,
      "inputs": [
        {
          "indexed": false,
          "name": "_kioskId",
          "type": "string"
        },
        {
          "indexed": false,
          "name": "_location",
          "type": "string"
        },
        {
          "indexed": false,
          "name": "_name",
          "type": "string"
        },
        {
          "indexed": false,
          "name": "_timezone",
          "type": "string"
        }
      ],
      "name": "Saved",
      "type": "event"
    },
    {
      "constant": false,
      "inputs": [
        {
          "name": "_kioskId",
          "type": "string"
        },
        {
          "name": "_location",
          "type": "string"
        },
        {
          "name": "_name",
          "type": "string"
        },
        {
          "name": "_timezone",
          "type": "string"
        }
      ],
      "name": "save",
      "outputs": [],
      "payable": false,
      "stateMutability": "nonpayable",
      "type": "function"
    },
    {
      "constant": true,
      "inputs": [
        {
          "name": "_kioskId",
          "type": "string"
        }
      ],
      "name": "get",
      "outputs": [
        {
          "name": "_location",
          "type": "string"
        },
        {
          "name": "_name",
          "type": "string"
        },
        {
          "name": "_timezone",
          "type": "string"
        }
      ],
      "payable": false,
      "stateMutability": "view",
      "type": "function"
    }
  ],
  "bytecode": "0x60806040523480156200001157600080fd5b50604051602080620020928339810160408181529151828201909252600d8082527f6b696f736b2d73746f72616765000000000000000000000000000000000000006020830190815260008054600160a060020a031916331781558493909290916200008191600191906200044e565b505081600160a060020a031663713b563f6040518163ffffffff167c0100000000000000000000000000000000000000000000000000000000028152600401602060405180830381600087803b158015620000db57600080fd5b505af1158015620000f0573d6000803e3d6000fd5b505050506040513d60208110156200010757600080fd5b505160038054600160a060020a031916600160a060020a03928316179055604080517fd0496d6a00000000000000000000000000000000000000000000000000000000815290519184169163d0496d6a916004808201926020929091908290030181600087803b1580156200017b57600080fd5b505af115801562000190573d6000803e3d6000fd5b505050506040513d6020811015620001a757600080fd5b505160028054600160a060020a031916600160a060020a03928316178082556040517f693ec85e00000000000000000000000000000000000000000000000000000000815260206004820190815260018054610100818316150260001901169490940460248301819052929094169363693ec85e939290918291604490910190849080156200027a5780601f106200024e576101008083540402835291602001916200027a565b820191906000526020600020905b8154815290600101906020018083116200025c57829003601f168201915b505092505050602060405180830381600087803b1580156200029b57600080fd5b505af1158015620002b0573d6000803e3d6000fd5b505050506040513d6020811015620002c757600080fd5b50519050600160a060020a038116156200034d5780600160a060020a03166341c0e1b56040518163ffffffff167c0100000000000000000000000000000000000000000000000000000000028152600401600060405180830381600087803b1580156200033357600080fd5b505af115801562000348573d6000803e3d6000fd5b505050505b600280546040517ff2c298be00000000000000000000000000000000000000000000000000000000815260206004820190815260018054600019818316156101000201169490940460248301819052600160a060020a039093169363f2c298be9390928291604490910190849080156200040b5780601f10620003df576101008083540402835291602001916200040b565b820191906000526020600020905b815481529060010190602001808311620003ed57829003601f168201915b505092505050600060405180830381600087803b1580156200042c57600080fd5b505af115801562000441573d6000803e3d6000fd5b50505050505050620004f3565b828054600181600116156101000203166002900490600052602060002090601f016020900481019282601f106200049157805160ff1916838001178555620004c1565b82800160010185558215620004c1579182015b82811115620004c1578251825591602001919060010190620004a4565b50620004cf929150620004d3565b5090565b620004f091905b80821115620004cf5760008155600101620004da565b90565b611b8f80620005036000396000f3006080604052600436106100535763ffffffff60e060020a60003504166306fdde038114610058578063314fd4dc146100e257806341c0e1b5146101f7578063693ec85e1461020c5780638da5cb5b146103a9575b600080fd5b34801561006457600080fd5b5061006d6103da565b6040805160208082528351818301528351919283929083019185019080838360005b838110156100a757818101518382015260200161008f565b50505050905090810190601f1680156100d45780820380516001836020036101000a031916815260200191505b509250505060405180910390f35b3480156100ee57600080fd5b506040805160206004803580820135601f81018490048402850184019095528484526101f594369492936024939284019190819084018382808284375050604080516020601f89358b018035918201839004830284018301909452808352979a99988101979196509182019450925082915084018382808284375050604080516020601f89358b018035918201839004830284018301909452808352979a99988101979196509182019450925082915084018382808284375050604080516020601f89358b018035918201839004830284018301909452808352979a9998810197919650918201945092508291508401838280828437509497506104679650505050505050565b005b34801561020357600080fd5b506101f561065b565b34801561021857600080fd5b506040805160206004803580820135601f81018490048402850184019095528484526102659436949293602493928401919081908401838280828437509497506106d89650505050505050565b60405180806020018060200180602001848103845287818151815260200191508051906020019080838360005b838110156102aa578181015183820152602001610292565b50505050905090810190601f1680156102d75780820380516001836020036101000a031916815260200191505b50848103835286518152865160209182019188019080838360005b8381101561030a5781810151838201526020016102f2565b50505050905090810190601f1680156103375780820380516001836020036101000a031916815260200191505b50848103825285518152855160209182019187019080838360005b8381101561036a578181015183820152602001610352565b50505050905090810190601f1680156103975780820380516001836020036101000a031916815260200191505b50965050505050505060405180910390f35b3480156103b557600080fd5b506103be610708565b60408051600160a060020a039092168252519081900360200190f35b60018054604080516020600284861615610100026000190190941693909304601f8101849004840282018401909252818152929183018282801561045f5780601f106104345761010080835404028352916020019161045f565b820191906000526020600020905b81548152906001019060200180831161044257829003601f168201915b505050505081565b60035461048690600160a060020a03168585858563ffffffff61071716565b507f9a70d206ebfed2a7f1731124889425f55cd2eafea00afdf1805f8183bbdd0a28848484846040518080602001806020018060200180602001858103855289818151815260200191508051906020019080838360005b838110156104f55781810151838201526020016104dd565b50505050905090810190601f1680156105225780820380516001836020036101000a031916815260200191505b5085810384528851815288516020918201918a019080838360005b8381101561055557818101518382015260200161053d565b50505050905090810190601f1680156105825780820380516001836020036101000a031916815260200191505b50858103835287518152875160209182019189019080838360005b838110156105b557818101518382015260200161059d565b50505050905090810190601f1680156105e25780820380516001836020036101000a031916815260200191505b50858103825286518152865160209182019188019080838360005b838110156106155781810151838201526020016105fd565b50505050905090810190601f1680156106425780820380516001836020036101000a031916815260200191505b509850505050505050505060405180910390a150505050565b600054600160a060020a031632146106d457604080517f08c379a000000000000000000000000000000000000000000000000000000000815260206004820152601260248201527f6f6e6c79206f776e657220616c6c6f7765640000000000000000000000000000604482015290519081900360640190fd5b6000ff5b600354606090819081906106fb90600160a060020a03168563ffffffff61123f16565b9250925092509193909250565b600054600160a060020a031681565b600061072386866119a9565b1561078f57604080517f08c379a000000000000000000000000000000000000000000000000000000000815260206004820152601460248201527f4b696f736b20616c726561647920657869737473000000000000000000000000604482015290519081900360640190fd5b85600160a060020a031663f58660666040805190810160405280600e81526020017f6b696f736b5f73686f72745f696400000000000000000000000000000000000081525087604051602001808060200180602001838103835285818151815260200191508051906020019080838360005b83811015610819578181015183820152602001610801565b50505050905090810190601f1680156108465780820380516001836020036101000a031916815260200191505b50838103825284518152845160209182019186019080838360005b83811015610879578181015183820152602001610861565b50505050905090810190601f1680156108a65780820380516001836020036101000a031916815260200191505b509450505050506040516020818303038152906040526040518082805190602001908083835b602083106108eb5780518252601f1990920191602091820191016108cc565b51815160209384036101000a60001901801990921691161790526040805192909401829003822063ffffffff881660e060020a02835260048301818152602484019586528e5160448501528e519197508e96509493506064909201919085019080838360005b83811015610969578181015183820152602001610951565b50505050905090810190601f1680156109965780820380516001836020036101000a031916815260200191505b509350505050600060405180830381600087803b1580156109b657600080fd5b505af11580156109ca573d6000803e3d6000fd5b5050505085600160a060020a031663f58660666040805190810160405280601681526020017f6b696f736b5f6c6f636174696f6e5f616464726573730000000000000000000081525087604051602001808060200180602001838103835285818151815260200191508051906020019080838360005b83811015610a58578181015183820152602001610a40565b50505050905090810190601f168015610a855780820380516001836020036101000a031916815260200191505b50838103825284518152845160209182019186019080838360005b83811015610ab8578181015183820152602001610aa0565b50505050905090810190601f168015610ae55780820380516001836020036101000a031916815260200191505b509450505050506040516020818303038152906040526040518082805190602001908083835b60208310610b2a5780518252601f199092019160209182019101610b0b565b51815160209384036101000a60001901801990921691161790526040805192909401829003822063ffffffff881660e060020a02835260048301818152602484019586528d5160448501528d519197508d96509493506064909201919085019080838360005b83811015610ba8578181015183820152602001610b90565b50505050905090810190601f168015610bd55780820380516001836020036101000a031916815260200191505b509350505050600060405180830381600087803b158015610bf557600080fd5b505af1158015610c09573d6000803e3d6000fd5b5050505085600160a060020a031663f58660666040805190810160405280600a81526020017f6b696f736b5f6e616d650000000000000000000000000000000000000000000081525087604051602001808060200180602001838103835285818151815260200191508051906020019080838360005b83811015610c97578181015183820152602001610c7f565b50505050905090810190601f168015610cc45780820380516001836020036101000a031916815260200191505b50838103825284518152845160209182019186019080838360005b83811015610cf7578181015183820152602001610cdf565b50505050905090810190601f168015610d245780820380516001836020036101000a031916815260200191505b509450505050506040516020818303038152906040526040518082805190602001908083835b60208310610d695780518252601f199092019160209182019101610d4a565b51815160209384036101000a60001901801990921691161790526040805192909401829003822063ffffffff881660e060020a02835260048301818152602484019586528c5160448501528c519197508c96509493506064909201919085019080838360005b83811015610de7578181015183820152602001610dcf565b50505050905090810190601f168015610e145780820380516001836020036101000a031916815260200191505b509350505050600060405180830381600087803b158015610e3457600080fd5b505af1158015610e48573d6000803e3d6000fd5b5050505085600160a060020a031663f58660666040805190810160405280600f81526020017f6b696f736b5f74696d655f7a6f6e65000000000000000000000000000000000081525087604051602001808060200180602001838103835285818151815260200191508051906020019080838360005b83811015610ed6578181015183820152602001610ebe565b50505050905090810190601f168015610f035780820380516001836020036101000a031916815260200191505b50838103825284518152845160209182019186019080838360005b83811015610f36578181015183820152602001610f1e565b50505050905090810190601f168015610f635780820380516001836020036101000a031916815260200191505b509450505050506040516020818303038152906040526040518082805190602001908083835b60208310610fa85780518252601f199092019160209182019101610f89565b51815160209384036101000a60001901801990921691161790526040805192909401829003822063ffffffff881660e060020a02835260048301818152602484019586528b5160448501528b519197508b96509493506064909201919085019080838360005b8381101561102657818101518382015260200161100e565b50505050905090810190601f1680156110535780820380516001836020036101000a031916815260200191505b509350505050600060405180830381600087803b15801561107357600080fd5b505af1158015611087573d6000803e3d6000fd5b5050505085600160a060020a0316633eba9ed26040805190810160405280600c81526020017f6b696f736b2e6578697374730000000000000000000000000000000000000000815250876040516020018083805190602001908083835b602083106111035780518252601f1990920191602091820191016110e4565b51815160209384036101000a600019018019909216911617905285519190930192850191508083835b6020831061114b5780518252601f19909201916020918201910161112c565b6001836020036101000a038019825116818451168082178552505050505050905001925050506040516020818303038152906040526040518082805190602001908083835b602083106111af5780518252601f199092019160209182019101611190565b5181516020939093036101000a60001901801990911692169190911790526040805191909301819003812063ffffffff871660e060020a028252600482015260016024820152915160448084019550600094509092839003019050818387803b15801561121b57600080fd5b505af115801561122f573d6000803e3d6000fd5b5060019998505050505050505050565b606080606061124e85856119a9565b15156112bb57604080517f08c379a000000000000000000000000000000000000000000000000000000000815260206004820152601360248201527f4b696f736b206973206e6f742065786973747300000000000000000000000000604482015290519081900360640190fd5b84600160a060020a031663a209a29c6040805190810160405280601681526020017f6b696f736b5f6c6f636174696f6e5f616464726573730000000000000000000081525086604051602001808060200180602001838103835285818151815260200191508051906020019080838360005b8381101561134557818101518382015260200161132d565b50505050905090810190601f1680156113725780820380516001836020036101000a031916815260200191505b50838103825284518152845160209182019186019080838360005b838110156113a557818101518382015260200161138d565b50505050905090810190601f1680156113d25780820380516001836020036101000a031916815260200191505b509450505050506040516020818303038152906040526040518082805190602001908083835b602083106114175780518252601f1990920191602091820191016113f8565b5181516020939093036101000a60001901801990911692169190911790526040805191909301819003812063ffffffff871660e060020a0282526004820152915160248084019550600094509092839003019050818387803b15801561147c57600080fd5b505af1158015611490573d6000803e3d6000fd5b505050506040513d6000823e601f3d908101601f1916820160405260208110156114b957600080fd5b8101908080516401000000008111156114d157600080fd5b820160208101848111156114e457600080fd5b81516401000000008111828201871017156114fe57600080fd5b5050929190505050925084600160a060020a031663a209a29c6040805190810160405280600a81526020017f6b696f736b5f6e616d650000000000000000000000000000000000000000000081525086604051602001808060200180602001838103835285818151815260200191508051906020019080838360005b8381101561159257818101518382015260200161157a565b50505050905090810190601f1680156115bf5780820380516001836020036101000a031916815260200191505b50838103825284518152845160209182019186019080838360005b838110156115f25781810151838201526020016115da565b50505050905090810190601f16801561161f5780820380516001836020036101000a031916815260200191505b509450505050506040516020818303038152906040526040518082805190602001908083835b602083106116645780518252601f199092019160209182019101611645565b5181516020939093036101000a60001901801990911692169190911790526040805191909301819003812063ffffffff871660e060020a0282526004820152915160248084019550600094509092839003019050818387803b1580156116c957600080fd5b505af11580156116dd573d6000803e3d6000fd5b505050506040513d6000823e601f3d908101601f19168201604052602081101561170657600080fd5b81019080805164010000000081111561171e57600080fd5b8201602081018481111561173157600080fd5b815164010000000081118282018710171561174b57600080fd5b5050929190505050915084600160a060020a031663a209a29c6040805190810160405280600f81526020017f6b696f736b5f74696d655f7a6f6e65000000000000000000000000000000000081525086604051602001808060200180602001838103835285818151815260200191508051906020019080838360005b838110156117df5781810151838201526020016117c7565b50505050905090810190601f16801561180c5780820380516001836020036101000a031916815260200191505b50838103825284518152845160209182019186019080838360005b8381101561183f578181015183820152602001611827565b50505050905090810190601f16801561186c5780820380516001836020036101000a031916815260200191505b509450505050506040516020818303038152906040526040518082805190602001908083835b602083106118b15780518252601f199092019160209182019101611892565b5181516020939093036101000a60001901801990911692169190911790526040805191909301819003812063ffffffff871660e060020a0282526004820152915160248084019550600094509092839003019050818387803b15801561191657600080fd5b505af115801561192a573d6000803e3d6000fd5b505050506040513d6000823e601f3d908101601f19168201604052602081101561195357600080fd5b81019080805164010000000081111561196b57600080fd5b8201602081018481111561197e57600080fd5b815164010000000081118282018710171561199857600080fd5b505092919050505090509250925092565b600082600160a060020a03166317e7dd226040805190810160405280600c81526020017f6b696f736b2e6578697374730000000000000000000000000000000000000000815250846040516020018083805190602001908083835b60208310611a235780518252601f199092019160209182019101611a04565b51815160209384036101000a600019018019909216911617905285519190930192850191508083835b60208310611a6b5780518252601f199092019160209182019101611a4c565b6001836020036101000a038019825116818451168082178552505050505050905001925050506040516020818303038152906040526040518082805190602001908083835b60208310611acf5780518252601f199092019160209182019101611ab0565b51815160209384036101000a60001901801990921691161790526040805192909401829003822063ffffffff881660e060020a0283526004830152925160248083019650939450929083900301905081600087803b158015611b3057600080fd5b505af1158015611b44573d6000803e3d6000fd5b505050506040513d6020811015611b5a57600080fd5b505193925050505600a165627a7a72305820d2f7d81305c66602b490cd3a0ce6bf9a1eefb6b8f08bfcef921a46834461cc730029",
  "source": "pragma solidity 0.4.24;\n\nimport {KioskLib} from \"../libs/Libraries.sol\";\nimport {AKioskStorage} from \"./Storages.sol\";\nimport \"../Platform.sol\";\n\ncontract KioskStorage is AKioskStorage, Named(\"kiosk-storage\"), Mortal, Component {\n\n    using KioskLib for address;\n\n    constructor(address _config) Component(_config) public {}\n\n    function save(string memory _kioskId, string memory _location, string memory _name, string memory _timezone) public {\n        database.save(_kioskId, _location, _name, _timezone);\n        emit Saved(_kioskId, _location, _name, _timezone);\n    }\n\n    function get(string _kioskId) public view returns (string memory _location, string memory _name, string memory _timezone) {\n        return database.get(_kioskId);\n    }\n\n}",
  "sourcePath": "/home/andrew/vault-logic-project/Development/test/vault-logic-api/truffle/contracts/storages/KioskStorage.sol",
  "compiler": {
    "name": "solc",
    "version": "0.4.24+commit.e67f0147.Emscripten.clang"
  },
  "schemaVersion": "2.0.1",
  "updatedAt": "2018-10-23T12:03:01.320Z"
}