{
  "contractName": "KioskController",
  "abi": [
    {
      "constant": false,
      "inputs": [
        {
          "name": "_sessionId",
          "type": "uint256"
        },
        {
          "name": "_callback",
          "type": "function"
        }
      ],
      "name": "respondFail",
      "outputs": [],
      "payable": false,
      "stateMutability": "nonpayable",
      "type": "function"
    },
    {
      "constant": true,
      "inputs": [],
      "name": "name",
      "outputs": [
        {
          "name": "",
          "type": "string"
        }
      ],
      "payable": false,
      "stateMutability": "view",
      "type": "function"
    },
    {
      "constant": false,
      "inputs": [
        {
          "name": "_sessionId",
          "type": "uint256"
        },
        {
          "name": "_id",
          "type": "string"
        },
        {
          "name": "_location",
          "type": "string"
        },
        {
          "name": "_name",
          "type": "string"
        },
        {
          "name": "_timezone",
          "type": "string"
        },
        {
          "name": "_bills",
          "type": "uint256[]"
        },
        {
          "name": "_amounts",
          "type": "uint256[]"
        },
        {
          "name": "_callback",
          "type": "function"
        }
      ],
      "name": "respondSuccess",
      "outputs": [],
      "payable": false,
      "stateMutability": "nonpayable",
      "type": "function"
    },
    {
      "constant": false,
      "inputs": [],
      "name": "kill",
      "outputs": [],
      "payable": false,
      "stateMutability": "nonpayable",
      "type": "function"
    },
    {
      "constant": true,
      "inputs": [],
      "name": "owner",
      "outputs": [
        {
          "name": "",
          "type": "address"
        }
      ],
      "payable": false,
      "stateMutability": "view",
      "type": "function"
    },
    {
      "inputs": [
        {
          "name": "_config",
          "type": "address"
        }
      ],
      "payable": false,
      "stateMutability": "nonpayable",
      "type": "constructor"
    },
    {
      "constant": false,
      "inputs": [
        {
          "name": "_sessionId",
          "type": "uint256"
        },
        {
          "name": "_success",
          "type": "function"
        },
        {
          "name": "_fail",
          "type": "function"
        }
      ],
      "name": "getKiosk",
      "outputs": [],
      "payable": false,
      "stateMutability": "nonpayable",
      "type": "function"
    }
  ],
  "bytecode": "0x60806040523480156200001157600080fd5b5060405160208062000d1b833981016040818152915182820190925260108082527f6b696f736b2d636f6e74726f6c6c6572000000000000000000000000000000006020830190815260008054600160a060020a031916331790558392916200007d91600191620002b8565b505080600160a060020a031663713b563f6040518163ffffffff167c0100000000000000000000000000000000000000000000000000000000028152600401602060405180830381600087803b158015620000d757600080fd5b505af1158015620000ec573d6000803e3d6000fd5b505050506040513d60208110156200010357600080fd5b505160038054600160a060020a031916600160a060020a03928316179055604080517fd0496d6a00000000000000000000000000000000000000000000000000000000815290519183169163d0496d6a916004808201926020929091908290030181600087803b1580156200017757600080fd5b505af11580156200018c573d6000803e3d6000fd5b505050506040513d6020811015620001a357600080fd5b505160028054600160a060020a031916600160a060020a03928316178082556040517ff2c298be00000000000000000000000000000000000000000000000000000000815260206004820190815260018054610100818316150260001901169490940460248301819052929094169363f2c298be93929091829160449091019084908015620002765780601f106200024a5761010080835404028352916020019162000276565b820191906000526020600020905b8154815290600101906020018083116200025857829003601f168201915b505092505050600060405180830381600087803b1580156200029757600080fd5b505af1158015620002ac573d6000803e3d6000fd5b5050505050506200035d565b828054600181600116156101000203166002900490600052602060002090601f016020900481019282601f10620002fb57805160ff19168380011785556200032b565b828001600101855582156200032b579182015b828111156200032b5782518255916020019190600101906200030e565b50620003399291506200033d565b5090565b6200035a91905b8082111562000339576000815560010162000344565b90565b6109ae806200036d6000396000f30060806040526004361061005e5763ffffffff60e060020a60003504166305248daa811461006357806306fdde03146100a457806328eb3f5c1461012e5780633d0939371461017a57806341c0e1b51461032b5780638da5cb5b14610340575b600080fd5b34801561006f57600080fd5b506100a26004356c010000000000000000000000006024359081049068010000000000000000900463ffffffff1661037e565b005b3480156100b057600080fd5b506100b96103d7565b6040805160208082528351818301528351919283929083019185019080838360005b838110156100f35781810151838201526020016100db565b50505050905090810190601f1680156101205780820380516001836020036101000a031916815260200191505b509250505060405180910390f35b34801561013a57600080fd5b506100a26004356c010000000000000000000000006024358181049163ffffffff6801000000000000000092839004811692604435928304920416610464565b34801561018657600080fd5b5060408051602060046024803582810135601f81018590048502860185019096528585526100a295833595369560449491939091019190819084018382808284375050604080516020601f89358b018035918201839004830284018301909452808352979a99988101979196509182019450925082915084018382808284375050604080516020601f89358b018035918201839004830284018301909452808352979a99988101979196509182019450925082915084018382808284375050604080516020601f89358b018035918201839004830284018301909452808352979a999881019791965091820194509250829150840183828082843750506040805187358901803560208181028481018201909552818452989b9a998901989297509082019550935083925085019084908082843750506040805187358901803560208181028481018201909552818452989b9a998901989297509082019550935083925085019084908082843750949750506c010000000000000000000000009435948504955050506801000000000000000090920463ffffffff1691506106569050565b34801561033757600080fd5b506100a26108dc565b34801561034c57600080fd5b50610355610966565b6040805173ffffffffffffffffffffffffffffffffffffffff9092168252519081900360200190f35b8181846040518263ffffffff1660e060020a02815260040180828152602001915050600060405180830381600087803b1580156103ba57600080fd5b505af11580156103ce573d6000803e3d6000fd5b50505050505050565b60018054604080516020600284861615610100026000190190941693909304601f8101849004840282018401909252818152929183018282801561045c5780601f106104315761010080835404028352916020019161045c565b820191906000526020600020905b81548152906001019060200180831161043f57829003601f168201915b505050505081565b600254604080518082018252600d81527f6b696f736b2d6d616e6167657200000000000000000000000000000000000000602080830191825292517f693ec85e0000000000000000000000000000000000000000000000000000000081526004810193845282516024820152825173ffffffffffffffffffffffffffffffffffffffff9095169463693ec85e949283926044019180838360005b838110156105165781810151838201526020016104fe565b50505050905090810190601f1680156105435780820380516001836020036101000a031916815260200191505b5092505050602060405180830381600087803b15801561056257600080fd5b505af1158015610576573d6000803e3d6000fd5b505050506040513d602081101561058c57600080fd5b5051604080517f17fe110a000000000000000000000000000000000000000000000000000000008152336004820152602481018890526801000000000000000064010000000080890263ffffffff808a16919091178302604485015290870290861617026064820152905173ffffffffffffffffffffffffffffffffffffffff909216916317fe110a9160848082019260009290919082900301818387803b15801561063757600080fd5b505af115801561064b573d6000803e3d6000fd5b505050505050505050565b81818a8a8a8a8a8a8a6040518863ffffffff1660e060020a0281526004018088815260200180602001806020018060200180602001806020018060200187810387528d818151815260200191508051906020019080838360005b838110156106c85781810151838201526020016106b0565b50505050905090810190601f1680156106f55780820380516001836020036101000a031916815260200191505b5087810386528c5181528c516020918201918e019080838360005b83811015610728578181015183820152602001610710565b50505050905090810190601f1680156107555780820380516001836020036101000a031916815260200191505b5087810385528b5181528b516020918201918d019080838360005b83811015610788578181015183820152602001610770565b50505050905090810190601f1680156107b55780820380516001836020036101000a031916815260200191505b5087810384528a5181528a516020918201918c019080838360005b838110156107e85781810151838201526020016107d0565b50505050905090810190601f1680156108155780820380516001836020036101000a031916815260200191505b508781038352895181528951602091820191808c01910280838360005b8381101561084a578181015183820152602001610832565b50505050905001878103825288818151815260200191508051906020019060200280838360005b83811015610889578181015183820152602001610871565b505050509050019d5050505050505050505050505050600060405180830381600087803b1580156108b957600080fd5b505af11580156108cd573d6000803e3d6000fd5b50505050505050505050505050565b60005473ffffffffffffffffffffffffffffffffffffffff16321461096257604080517f08c379a000000000000000000000000000000000000000000000000000000000815260206004820152601260248201527f6f6e6c79206f776e657220616c6c6f7765640000000000000000000000000000604482015290519081900360640190fd5b6000ff5b60005473ffffffffffffffffffffffffffffffffffffffff16815600a165627a7a723058209ae2b2eecf415c833ce2944fd5358aba479de625314d6b5b65a909294777a8710029",
  "source": "pragma solidity 0.4.24;\n\nimport \"../managers/api/AKioskManager.sol\";\nimport \"./api/AKioskController.sol\";\nimport \"../platform/Named.sol\";\nimport \"../platform/Mortal.sol\";\nimport \"../platform/Component.sol\";\n\ncontract KioskController is AKioskController, Named(\"kiosk-controller\"), Mortal, Component {\n\n    string constant MANAGER = \"kiosk-manager\";\n\n    constructor(address _config) Component(_config) public {}\n\n    // @formatter:off\n    function getKiosk(\n        uint256 _sessionId,\n        function(\n            uint256,\n            string memory,\n            string memory,\n            string memory,\n            string memory,\n            uint256[] memory,\n            uint256[] memory\n        ) external _success,\n        function(uint256) external _fail\n    )\n        external\n    // @formatter:on\n    {\n        AKioskManager(context.get(MANAGER)).getKiosk(msg.sender, _sessionId, _success, _fail);\n    }\n\n}\n",
  "sourcePath": "/home/user/IdeaProjects/Main/VaultLogic/POC/vl-api-pos/truffle/contracts/controllers/KioskController.sol",
  "compiler": {
    "name": "solc",
    "version": "0.4.24+commit.e67f0147.Emscripten.clang"
  },
  "schemaVersion": "2.0.1",
  "updatedAt": "2018-11-19T14:08:47.345Z"
}