{
  "contractName": "Mortal",
  "abi": [
    {
      "constant": true,
      "inputs": [],
      "name": "owner",
      "outputs": [
        {
          "name": "",
          "type": "address"
        }
      ],
      "payable": false,
      "stateMutability": "view",
      "type": "function"
    },
    {
      "constant": false,
      "inputs": [],
      "name": "kill",
      "outputs": [],
      "payable": false,
      "stateMutability": "nonpayable",
      "type": "function"
    }
  ],
  "bytecode": "0x608060405260008054600160a060020a03191633179055610177806100256000396000f30060806040526004361061004b5763ffffffff7c010000000000000000000000000000000000000000000000000000000060003504166341c0e1b581146100505780638da5cb5b14610067575b600080fd5b34801561005c57600080fd5b506100656100a5565b005b34801561007357600080fd5b5061007c61012f565b6040805173ffffffffffffffffffffffffffffffffffffffff9092168252519081900360200190f35b60005473ffffffffffffffffffffffffffffffffffffffff16321461012b57604080517f08c379a000000000000000000000000000000000000000000000000000000000815260206004820152601260248201527f6f6e6c79206f776e657220616c6c6f7765640000000000000000000000000000604482015290519081900360640190fd5b6000ff5b60005473ffffffffffffffffffffffffffffffffffffffff16815600a165627a7a7230582052d098c0f7482adf13217243b84d217abc25b61984845fd654c296d1fcb9888b0029",
  "source": "pragma solidity 0.4.24;\n\nimport \"./Owned.sol\";\n\ncontract Mortal is Owned {\n\n    function kill() public txOriginOwner {\n        selfdestruct(0x0);\n    }\n\n}\n",
  "sourcePath": "/home/user/IdeaProjects/Main/VaultLogic/POC/vl-api-pos/truffle/contracts/platform/Mortal.sol",
  "compiler": {
    "name": "solc",
    "version": "0.4.24+commit.e67f0147.Emscripten.clang"
  },
  "schemaVersion": "2.0.1",
  "updatedAt": "2018-11-19T14:08:41.673Z"
}