{
  "contractName": "PrinterManager",
  "abi": [
    {
      "constant": true,
      "inputs": [],
      "name": "name",
      "outputs": [
        {
          "name": "",
          "type": "string"
        }
      ],
      "payable": false,
      "stateMutability": "view",
      "type": "function"
    },
    {
      "constant": false,
      "inputs": [],
      "name": "kill",
      "outputs": [],
      "payable": false,
      "stateMutability": "nonpayable",
      "type": "function"
    },
    {
      "constant": true,
      "inputs": [],
      "name": "owner",
      "outputs": [
        {
          "name": "",
          "type": "address"
        }
      ],
      "payable": false,
      "stateMutability": "view",
      "type": "function"
    },
    {
      "inputs": [
        {
          "name": "_config",
          "type": "address"
        }
      ],
      "payable": false,
      "stateMutability": "nonpayable",
      "type": "constructor"
    },
    {
      "constant": false,
      "inputs": [
        {
          "name": "_application",
          "type": "address"
        },
        {
          "name": "_sessionId",
          "type": "uint256"
        },
        {
          "name": "_success",
          "type": "function"
        },
        {
          "name": "_fail",
          "type": "function"
        }
      ],
      "name": "createReceipt",
      "outputs": [],
      "payable": false,
      "stateMutability": "nonpayable",
      "type": "function"
    },
    {
      "constant": false,
      "inputs": [
        {
          "name": "_commandId",
          "type": "uint256"
        },
        {
          "name": "_receiptId",
          "type": "string"
        },
        {
          "name": "_url",
          "type": "string"
        }
      ],
      "name": "confirmCreate",
      "outputs": [],
      "payable": false,
      "stateMutability": "nonpayable",
      "type": "function"
    },
    {
      "constant": false,
      "inputs": [
        {
          "name": "_commandId",
          "type": "uint256"
        }
      ],
      "name": "confirmFailCreate",
      "outputs": [],
      "payable": false,
      "stateMutability": "nonpayable",
      "type": "function"
    },
    {
      "constant": false,
      "inputs": [
        {
          "name": "_application",
          "type": "address"
        },
        {
          "name": "_sessionId",
          "type": "uint256"
        },
        {
          "name": "_receiptId",
          "type": "string"
        },
        {
          "name": "_data",
          "type": "string"
        },
        {
          "name": "_params",
          "type": "string"
        },
        {
          "name": "_success",
          "type": "function"
        },
        {
          "name": "_fail",
          "type": "function"
        }
      ],
      "name": "printReceipt",
      "outputs": [],
      "payable": false,
      "stateMutability": "nonpayable",
      "type": "function"
    },
    {
      "constant": false,
      "inputs": [
        {
          "name": "_commandId",
          "type": "uint256"
        }
      ],
      "name": "confirmPrint",
      "outputs": [],
      "payable": false,
      "stateMutability": "nonpayable",
      "type": "function"
    },
    {
      "constant": false,
      "inputs": [
        {
          "name": "_commandId",
          "type": "uint256"
        }
      ],
      "name": "confirmFailPrint",
      "outputs": [],
      "payable": false,
      "stateMutability": "nonpayable",
      "type": "function"
    }
  ],
  "bytecode": "0x60806040523480156200001157600080fd5b50604051602080620020e38339810160408181529151828201909252600f8082527f7072696e7465722d6d616e6167657200000000000000000000000000000000006020830190815260008054600160a060020a031916331790558392916200007d91600191620002b8565b505080600160a060020a031663713b563f6040518163ffffffff167c0100000000000000000000000000000000000000000000000000000000028152600401602060405180830381600087803b158015620000d757600080fd5b505af1158015620000ec573d6000803e3d6000fd5b505050506040513d60208110156200010357600080fd5b505160038054600160a060020a031916600160a060020a03928316179055604080517fd0496d6a00000000000000000000000000000000000000000000000000000000815290519183169163d0496d6a916004808201926020929091908290030181600087803b1580156200017757600080fd5b505af11580156200018c573d6000803e3d6000fd5b505050506040513d6020811015620001a357600080fd5b505160028054600160a060020a031916600160a060020a03928316178082556040517ff2c298be00000000000000000000000000000000000000000000000000000000815260206004820190815260018054610100818316150260001901169490940460248301819052929094169363f2c298be93929091829160449091019084908015620002765780601f106200024a5761010080835404028352916020019162000276565b820191906000526020600020905b8154815290600101906020018083116200025857829003601f168201915b505092505050600060405180830381600087803b1580156200029757600080fd5b505af1158015620002ac573d6000803e3d6000fd5b5050505050506200035d565b828054600181600116156101000203166002900490600052602060002090601f016020900481019282601f10620002fb57805160ff19168380011785556200032b565b828001600101855582156200032b579182015b828111156200032b5782518255916020019190600101906200030e565b50620003399291506200033d565b5090565b6200035a91905b8082111562000339576000815560010162000344565b90565b611d76806200036d6000396000f3006080604052600436106100985763ffffffff7c010000000000000000000000000000000000000000000000000000000060003504166306fdde03811461009d57806307fac4961461012757806331e2ab8a146101c557806341c0e1b5146101dd57806352e215ef146101f2578063618752251461020a57806376eefe27146103245780638da5cb5b1461033c578063bbc979a21461036d575b600080fd5b3480156100a957600080fd5b506100b26103c5565b6040805160208082528351818301528351919283929083019185019080838360005b838110156100ec5781810151838201526020016100d4565b50505050905090810190601f1680156101195780820380516001836020036101000a031916815260200191505b509250505060405180910390f35b34801561013357600080fd5b5060408051602060046024803582810135601f81018590048502860185019096528585526101c395833595369560449491939091019190819084018382808284375050604080516020601f89358b018035918201839004830284018301909452808352979a9998810197919650918201945092508291508401838280828437509497506104529650505050505050565b005b3480156101d157600080fd5b506101c3600435610887565b3480156101e957600080fd5b506101c3610cd8565b3480156101fe57600080fd5b506101c3600435610d55565b34801561021657600080fd5b50604080516020600460443581810135601f81018490048402850184019095528484526101c3948235600160a060020a031694602480359536959460649492019190819084018382808284375050604080516020601f89358b018035918201839004830284018301909452808352979a99988101979196509182019450925082915084018382808284375050604080516020601f89358b018035918201839004830284018301909452808352979a999881019791965091820194509250829150840183828082843750949750506c010000000000000000000000008535818104975063ffffffff6801000000000000000091829004811697602001359283049650910416925061108d915050565b34801561033057600080fd5b506101c3600435611668565b34801561034857600080fd5b506103516119a5565b60408051600160a060020a039092168252519081900360200190f35b34801561037957600080fd5b506101c3600160a060020a03600435166024356c010000000000000000000000006044358181049163ffffffff68010000000000000000928390048116926064359283049204166119b4565b60018054604080516020600284861615610100026000190190941693909304601f8101849004840282018401909252818152929183018282801561044a5780601f1061041f5761010080835404028352916020019161044a565b820191906000526020600020905b81548152906001019060200180831161042d57829003601f168201915b505050505081565b600254604080518082018252600f8152600080516020611d2b8339815191526020808301918252925160e160020a63349f642f0281526004810193845282516024820152825160009586958695600160a060020a039092169463693ec85e94929391928392604490910191908083838b5b838110156104db5781810151838201526020016104c3565b50505050905090810190601f1680156105085780820380516001836020036101000a031916815260200191505b5092505050602060405180830381600087803b15801561052757600080fd5b505af115801561053b573d6000803e3d6000fd5b505050506040513d602081101561055157600080fd5b5051604080517fc178019d000000000000000000000000000000000000000000000000000000008152600481018990529051600160a060020a039092169163c178019d916024808201926060929091908290030181600087803b1580156105b757600080fd5b505af11580156105cb573d6000803e3d6000fd5b505050506040513d60608110156105e157600080fd5b50805160209182015160025460408051808201825260128152600080516020611d0b833981519152818701908152915160e160020a63349f642f028152600481019687528151602482015281519599506c01000000000000000000000000850498506801000000000000000090940463ffffffff169650600160a060020a039092169463693ec85e949293909283926044909201919080838360005b8381101561069557818101518382015260200161067d565b50505050905090810190601f1680156106c25780820380516001836020036101000a031916815260200191505b5092505050602060405180830381600087803b1580156106e157600080fd5b505af11580156106f5573d6000803e3d6000fd5b505050506040513d602081101561070b57600080fd5b50516040517f34db07760000000000000000000000000000000000000000000000000000000081526004810185815268010000000000000000640100000000860263ffffffff861617026064830152608060248301908152885160848401528851600160a060020a03909416936334db07769388938b938b938a938a939291604482019160a40190602089019080838360005b838110156107b657818101518382015260200161079e565b50505050905090810190601f1680156107e35780820380516001836020036101000a031916815260200191505b50838103825286518152865160209182019188019080838360005b838110156108165781810151838201526020016107fe565b50505050905090810190601f1680156108435780820380516001836020036101000a031916815260200191505b50975050505050505050600060405180830381600087803b15801561086757600080fd5b505af115801561087b573d6000803e3d6000fd5b50505050505050505050565b600254604080518082018252600f8152600080516020611d2b8339815191526020808301918252925160e160020a63349f642f0281526004810193845282516024820152825160009586958695600160a060020a039092169463693ec85e94929391928392604490910191908083838b5b838110156109105781810151838201526020016108f8565b50505050905090810190601f16801561093d5780820380516001836020036101000a031916815260200191505b5092505050602060405180830381600087803b15801561095c57600080fd5b505af1158015610970573d6000803e3d6000fd5b505050506040513d602081101561098657600080fd5b5051604080517f04c4b7cf000000000000000000000000000000000000000000000000000000008152600481018790529051600160a060020a03909216916304c4b7cf9160248082019260009290919082900301818387803b1580156109eb57600080fd5b505af11580156109ff573d6000803e3d6000fd5b505050506040513d6000823e601f3d908101601f1916820160405260c0811015610a2857600080fd5b815160208301805191939283019291640100000000811115610a4957600080fd5b82016020810184811115610a5c57600080fd5b8151640100000000811182820187101715610a7657600080fd5b50509291906020018051640100000000811115610a9257600080fd5b82016020810184811115610aa557600080fd5b8151640100000000811182820187101715610abf57600080fd5b50509291906020018051640100000000811115610adb57600080fd5b82016020810184811115610aee57600080fd5b8151640100000000811182820187101715610b0857600080fd5b5050506040908101516002548251808401845260128152600080516020611d0b8339815191526020828101918252945160e160020a63349f642f028152600481019586528251602482015282519a9d506c0100000000000000000000000085049c506801000000000000000090940463ffffffff169a50600160a060020a039092169863693ec85e985090965092945084935060449091019180838360005b83811015610bbf578181015183820152602001610ba7565b50505050905090810190601f168015610bec5780820380516001836020036101000a031916815260200191505b5092505050602060405180830381600087803b158015610c0b57600080fd5b505af1158015610c1f573d6000803e3d6000fd5b505050506040513d6020811015610c3557600080fd5b5051604080517f682e916d0000000000000000000000000000000000000000000000000000000081526004810186905268010000000000000000640100000000860263ffffffff8616170260248201529051600160a060020a039092169163682e916d9160448082019260009290919082900301818387803b158015610cba57600080fd5b505af1158015610cce573d6000803e3d6000fd5b5050505050505050565b600054600160a060020a03163214610d5157604080517f08c379a000000000000000000000000000000000000000000000000000000000815260206004820152601260248201527f6f6e6c79206f776e657220616c6c6f7765640000000000000000000000000000604482015290519081900360640190fd5b6000ff5b600254604080518082018252600f8152600080516020611d2b8339815191526020808301918252925160e160020a63349f642f0281526004810193845282516024820152825160009586958695600160a060020a039092169463693ec85e94929391928392604490910191908083838b5b83811015610dde578181015183820152602001610dc6565b50505050905090810190601f168015610e0b5780820380516001836020036101000a031916815260200191505b5092505050602060405180830381600087803b158015610e2a57600080fd5b505af1158015610e3e573d6000803e3d6000fd5b505050506040513d6020811015610e5457600080fd5b5051604080517f04c4b7cf000000000000000000000000000000000000000000000000000000008152600481018790529051600160a060020a03909216916304c4b7cf9160248082019260009290919082900301818387803b158015610eb957600080fd5b505af1158015610ecd573d6000803e3d6000fd5b505050506040513d6000823e601f3d908101601f1916820160405260c0811015610ef657600080fd5b815160208301805191939283019291640100000000811115610f1757600080fd5b82016020810184811115610f2a57600080fd5b8151640100000000811182820187101715610f4457600080fd5b50509291906020018051640100000000811115610f6057600080fd5b82016020810184811115610f7357600080fd5b8151640100000000811182820187101715610f8d57600080fd5b50509291906020018051640100000000811115610fa957600080fd5b82016020810184811115610fbc57600080fd5b8151640100000000811182820187101715610fd657600080fd5b50505060209081015160025460408051808201825260128152600080516020611d0b833981519152818601908152915160e160020a63349f642f028152600481019586528151602482015281519a9d506c0100000000000000000000000085049c506801000000000000000090940463ffffffff169a50600160a060020a039092169863693ec85e985091965092945084935060449091019190808383600083811015610bbf578181015183820152602001610ba7565b600254604080518082018252600f8152600080516020611d2b8339815191526020808301918252925160e160020a63349f642f02815260048101938452825160248201528251600095600160a060020a03169463693ec85e949390928392604490910191908083838b5b8381101561110f5781810151838201526020016110f7565b50505050905090810190601f16801561113c5780820380516001836020036101000a031916815260200191505b5092505050602060405180830381600087803b15801561115b57600080fd5b505af115801561116f573d6000803e3d6000fd5b505050506040513d602081101561118557600080fd5b50516040517fed551c8e000000000000000000000000000000000000000000000000000000008152600481018b815268010000000000000000640100000000808a0263ffffffff808b169190911783026084860152908802908716170260a483015260c0602483019081528b5160c48401528b51600160a060020a039094169363ed551c8e938e938e938e938e938e938e938e938e936044810191606482019160e4019060208d019080838360005b8381101561124c578181015183820152602001611234565b50505050905090810190601f1680156112795780820380516001836020036101000a031916815260200191505b5084810383528a5181528a516020918201918c019080838360005b838110156112ac578181015183820152602001611294565b50505050905090810190601f1680156112d95780820380516001836020036101000a031916815260200191505b5084810382528951815289516020918201918b019080838360005b8381101561130c5781810151838201526020016112f4565b50505050905090810190601f1680156113395780820380516001836020036101000a031916815260200191505b509b505050505050505050505050602060405180830381600087803b15801561136157600080fd5b505af1158015611375573d6000803e3d6000fd5b505050506040513d602081101561138b57600080fd5b5051600254604080518082018252600e81527f7072696e7465722d6f7261636c650000000000000000000000000000000000006020828101918252925160e160020a63349f642f02815260048101938452825160248201528251959650600160a060020a039094169463693ec85e94929392839260449091019180838360005b8381101561142357818101518382015260200161140b565b50505050905090810190601f1680156114505780820380516001836020036101000a031916815260200191505b5092505050602060405180830381600087803b15801561146f57600080fd5b505af1158015611483573d6000803e3d6000fd5b505050506040513d602081101561149957600080fd5b50516040517f7ac514d100000000000000000000000000000000000000000000000000000000815260048101838152602482018c905260a0604483019081528b5160a48401528b51600160a060020a0390941693637ac514d19386938f938f938f938f9392916064820191608481019160c490910190602089019080838360005b8381101561153257818101518382015260200161151a565b50505050905090810190601f16801561155f5780820380516001836020036101000a031916815260200191505b50848103835286518152865160209182019188019080838360005b8381101561159257818101518382015260200161157a565b50505050905090810190601f1680156115bf5780820380516001836020036101000a031916815260200191505b50848103825285518152855160209182019187019080838360005b838110156115f25781810151838201526020016115da565b50505050905090810190601f16801561161f5780820380516001836020036101000a031916815260200191505b5098505050505050505050600060405180830381600087803b15801561164457600080fd5b505af1158015611658573d6000803e3d6000fd5b5050505050505050505050505050565b600254604080518082018252600f8152600080516020611d2b8339815191526020808301918252925160e160020a63349f642f0281526004810193845282516024820152825160009586958695600160a060020a039092169463693ec85e94929391928392604490910191908083838b5b838110156116f15781810151838201526020016116d9565b50505050905090810190601f16801561171e5780820380516001836020036101000a031916815260200191505b5092505050602060405180830381600087803b15801561173d57600080fd5b505af1158015611751573d6000803e3d6000fd5b505050506040513d602081101561176757600080fd5b5051604080517fc178019d000000000000000000000000000000000000000000000000000000008152600481018790529051600160a060020a039092169163c178019d916024808201926060929091908290030181600087803b1580156117cd57600080fd5b505af11580156117e1573d6000803e3d6000fd5b505050506040513d60608110156117f757600080fd5b5080516040918201516002548351808501855260128152600080516020611d0b8339815191526020828101918252955160e160020a63349f642f028152600481019687528251602482015282519599506c01000000000000000000000000850498506801000000000000000090940463ffffffff169650600160a060020a039092169463693ec85e9491939092839260449092019180838360005b838110156118aa578181015183820152602001611892565b50505050905090810190601f1680156118d75780820380516001836020036101000a031916815260200191505b5092505050602060405180830381600087803b1580156118f657600080fd5b505af115801561190a573d6000803e3d6000fd5b505050506040513d602081101561192057600080fd5b5051604080517ff65444e10000000000000000000000000000000000000000000000000000000081526004810186905268010000000000000000640100000000860263ffffffff8616170260248201529051600160a060020a039092169163f65444e19160448082019260009290919082900301818387803b158015610cba57600080fd5b600054600160a060020a031681565b600254604080518082018252600f8152600080516020611d2b8339815191526020808301918252925160e160020a63349f642f02815260048101938452825160248201528251600095600160a060020a03169463693ec85e949390928392604490910191908083838b5b83811015611a36578181015183820152602001611a1e565b50505050905090810190601f168015611a635780820380516001836020036101000a031916815260200191505b5092505050602060405180830381600087803b158015611a8257600080fd5b505af1158015611a96573d6000803e3d6000fd5b505050506040513d6020811015611aac57600080fd5b5051604080517f8e203ae00000000000000000000000000000000000000000000000000000000081526004810189905268010000000000000000640100000000808a0263ffffffff808b169190911783026024850152908802908716170260448201529051600160a060020a0390921691638e203ae0916064808201926020929091908290030181600087803b158015611b4557600080fd5b505af1158015611b59573d6000803e3d6000fd5b505050506040513d6020811015611b6f57600080fd5b5051600254604080518082018252600e81527f7072696e7465722d6f7261636c650000000000000000000000000000000000006020828101918252925160e160020a63349f642f02815260048101938452825160248201528251959650600160a060020a039094169463693ec85e94929392839260449091019180838360005b83811015611c07578181015183820152602001611bef565b50505050905090810190601f168015611c345780820380516001836020036101000a031916815260200191505b5092505050602060405180830381600087803b158015611c5357600080fd5b505af1158015611c67573d6000803e3d6000fd5b505050506040513d6020811015611c7d57600080fd5b5051604080517f5e4a213e00000000000000000000000000000000000000000000000000000000815260048101849052602481018990529051600160a060020a0390921691635e4a213e9160448082019260009290919082900301818387803b158015611ce957600080fd5b505af1158015611cfd573d6000803e3d6000fd5b505050505050505050505056007072696e7465722d636f6e74726f6c6c657200000000000000000000000000007072696e7465722d73746f726167650000000000000000000000000000000000a165627a7a72305820a0710c51908adabdbd3b77a34d8a7d057743b62b7fd7b4b0057b49abbea73c9b0029",
  "source": "pragma solidity 0.4.24;\n\nimport \"../platform/Named.sol\";\nimport \"../platform/Mortal.sol\";\nimport \"../platform/Component.sol\";\nimport \"./api/APrinterManager.sol\";\nimport \"../oracles/api/APrinterOracle.sol\";\nimport \"../storages/api/APrinterStorage.sol\";\nimport \"../controllers/api/APrinterController.sol\";\n\ncontract PrinterManager is APrinterManager, Mortal, Named(\"printer-manager\"), Component {\n\n    string constant STORAGE = \"printer-storage\";\n    string constant ORACLE = \"printer-oracle\";\n    string constant CONTROLLER = \"printer-controller\";\n\n    constructor(address _config) Component(_config) public {}\n\n    // @formatter:off\n    function createReceipt(\n        address _application,\n        uint256 _sessionId,\n        function(uint256, string memory, string memory) external _success,\n        function(uint256) external _fail\n    )\n        public\n    // @formatter:on\n    {\n        uint256 _id = APrinterStorage(context.get(STORAGE)).createReceiptCreate(_sessionId, _success, _fail);\n        APrinterOracle(context.get(ORACLE)).onNextReceiptCreate(_id, _sessionId);\n    }\n\n    function confirmCreate(uint256 _commandId, string _receiptId, string _url) public {\n        (uint256 _sessionId,function(uint256, string memory, string memory) external callback,) = APrinterStorage(context.get(STORAGE)).\n        getReceiptCreate(_commandId);\n        APrinterController(context.get(CONTROLLER)).respondCreate(_sessionId, _receiptId, _url, callback);\n    }\n\n    function confirmFailCreate(uint256 _commandId) public {\n        (uint256 _sessionId,,function(uint256) external callback) = APrinterStorage(context.get(STORAGE)).getReceiptCreate(_commandId);\n        APrinterController(context.get(CONTROLLER)).respondFailCreate(_sessionId, callback);\n    }\n\n    // @formatter:off\n    function printReceipt(\n        address _application,\n        uint256 _sessionId,\n        string _receiptId,\n        string _data,\n        string _params,\n        function(uint256) external _success,\n        function(uint256) external _fail\n    )\n    public\n    // @formatter:on\n    {\n        uint256 _id = APrinterStorage(context.get(STORAGE)).createReceiptPrint(_sessionId, _receiptId, _data, _params, _success, _fail);\n        APrinterOracle(context.get(ORACLE)).onNextReceiptPrint(_id, _sessionId, _receiptId, _data, _params);\n    }\n\n    function confirmPrint(uint256 _commandId) public {\n        (uint256 _sessionId,,,,function(uint256) external callback,) = APrinterStorage(context.get(STORAGE)).getReceiptPrint(_commandId);\n        APrinterController(context.get(CONTROLLER)).respondPrint(_sessionId, callback);\n    }\n\n    function confirmFailPrint(uint256 _commandId) public {\n        (uint256 _sessionId,,,,,function(uint256) external callback) = APrinterStorage(context.get(STORAGE)).getReceiptPrint(_commandId);\n        APrinterController(context.get(CONTROLLER)).respondPrint(_sessionId, callback);\n    }\n\n}\n",
  "sourcePath": "/home/andrew/vault-logic-project/Development/test/vault-logic-api/truffle/contracts/managers/PrinterManager.sol",
  "compiler": {
    "name": "solc",
    "version": "0.4.24+commit.e67f0147.Emscripten.clang"
  },
  "schemaVersion": "2.0.1",
  "updatedAt": "2018-11-07T14:43:55.604Z"
}