{
  "contractName": "PrinterController",
  "abi": [
    {
      "constant": true,
      "inputs": [],
      "name": "name",
      "outputs": [
        {
          "name": "",
          "type": "string"
        }
      ],
      "payable": false,
      "stateMutability": "view",
      "type": "function"
    },
    {
      "constant": false,
      "inputs": [],
      "name": "kill",
      "outputs": [],
      "payable": false,
      "stateMutability": "nonpayable",
      "type": "function"
    },
    {
      "constant": true,
      "inputs": [],
      "name": "owner",
      "outputs": [
        {
          "name": "",
          "type": "address"
        }
      ],
      "payable": false,
      "stateMutability": "view",
      "type": "function"
    },
    {
      "inputs": [
        {
          "name": "_config",
          "type": "address"
        }
      ],
      "payable": false,
      "stateMutability": "nonpayable",
      "type": "constructor"
    },
    {
      "constant": false,
      "inputs": [
        {
          "name": "_sessionId",
          "type": "uint256"
        },
        {
          "name": "_success",
          "type": "function"
        },
        {
          "name": "_fail",
          "type": "function"
        }
      ],
      "name": "createReceipt",
      "outputs": [],
      "payable": false,
      "stateMutability": "nonpayable",
      "type": "function"
    },
    {
      "constant": false,
      "inputs": [
        {
          "name": "_sessionId",
          "type": "uint256"
        },
        {
          "name": "_receiptId",
          "type": "string"
        },
        {
          "name": "_url",
          "type": "string"
        },
        {
          "name": "_callback",
          "type": "function"
        }
      ],
      "name": "respondCreate",
      "outputs": [],
      "payable": false,
      "stateMutability": "nonpayable",
      "type": "function"
    },
    {
      "constant": false,
      "inputs": [
        {
          "name": "_sessionId",
          "type": "uint256"
        },
        {
          "name": "_callback",
          "type": "function"
        }
      ],
      "name": "respondFailCreate",
      "outputs": [],
      "payable": false,
      "stateMutability": "nonpayable",
      "type": "function"
    },
    {
      "constant": false,
      "inputs": [
        {
          "name": "_sessionId",
          "type": "uint256"
        },
        {
          "name": "_receiptId",
          "type": "string"
        },
        {
          "name": "_data",
          "type": "string"
        },
        {
          "name": "_paramNames",
          "type": "bytes32[]"
        },
        {
          "name": "_paramValues",
          "type": "bytes32[]"
        },
        {
          "name": "_success",
          "type": "function"
        },
        {
          "name": "_fail",
          "type": "function"
        }
      ],
      "name": "printReceipt",
      "outputs": [],
      "payable": false,
      "stateMutability": "nonpayable",
      "type": "function"
    },
    {
      "constant": false,
      "inputs": [
        {
          "name": "_sessionId",
          "type": "uint256"
        },
        {
          "name": "_callback",
          "type": "function"
        }
      ],
      "name": "respondPrint",
      "outputs": [],
      "payable": false,
      "stateMutability": "nonpayable",
      "type": "function"
    },
    {
      "constant": false,
      "inputs": [
        {
          "name": "_sessionId",
          "type": "uint256"
        },
        {
          "name": "_callback",
          "type": "function"
        }
      ],
      "name": "respondFailPrint",
      "outputs": [],
      "payable": false,
      "stateMutability": "nonpayable",
      "type": "function"
    }
  ],
  "bytecode": "0x60806040523480156200001157600080fd5b5060405160208062000fb8833981016040818152915182820190925260128082527f7072696e7465722d636f6e74726f6c6c657200000000000000000000000000006020830190815260008054600160a060020a031916331790558392916200007d91600191620002b8565b505080600160a060020a031663713b563f6040518163ffffffff167c0100000000000000000000000000000000000000000000000000000000028152600401602060405180830381600087803b158015620000d757600080fd5b505af1158015620000ec573d6000803e3d6000fd5b505050506040513d60208110156200010357600080fd5b505160038054600160a060020a031916600160a060020a03928316179055604080517fd0496d6a00000000000000000000000000000000000000000000000000000000815290519183169163d0496d6a916004808201926020929091908290030181600087803b1580156200017757600080fd5b505af11580156200018c573d6000803e3d6000fd5b505050506040513d6020811015620001a357600080fd5b505160028054600160a060020a031916600160a060020a03928316178082556040517ff2c298be00000000000000000000000000000000000000000000000000000000815260206004820190815260018054610100818316150260001901169490940460248301819052929094169363f2c298be93929091829160449091019084908015620002765780601f106200024a5761010080835404028352916020019162000276565b820191906000526020600020905b8154815290600101906020018083116200025857829003601f168201915b505092505050600060405180830381600087803b1580156200029757600080fd5b505af1158015620002ac573d6000803e3d6000fd5b5050505050506200035d565b828054600181600116156101000203166002900490600052602060002090601f016020900481019282601f10620002fb57805160ff19168380011785556200032b565b828001600101855582156200032b579182015b828111156200032b5782518255916020019190600101906200030e565b50620003399291506200033d565b5090565b6200035a91905b8082111562000339576000815560010162000344565b90565b610c4b806200036d6000396000f30060806040526004361061007f5763ffffffff60e060020a60003504166306fdde03811461008457806334db07761461010e57806341c0e1b5146101d357806347dab9df146101e857806351fedc4014610234578063682e916d146102345780637f3521e7146102735780638da5cb5b146103b6578063f65444e114610234575b600080fd5b34801561009057600080fd5b506100996103e7565b6040805160208082528351818301528351919283929083019185019080838360005b838110156100d35781810151838201526020016100bb565b50505050905090810190601f1680156101005780820380516001836020036101000a031916815260200191505b509250505060405180910390f35b34801561011a57600080fd5b5060408051602060046024803582810135601f81018590048502860185019096528585526101d195833595369560449491939091019190819084018382808284375050604080516020601f89358b018035918201839004830284018301909452808352979a999881019791965091820194509250829150840183828082843750949750506c010000000000000000000000009435948504955050506801000000000000000090920463ffffffff1691506104749050565b005b3480156101df57600080fd5b506101d16105a0565b3480156101f457600080fd5b506101d16004356c010000000000000000000000006024358181049163ffffffff680100000000000000009283900481169260443592830492041661061d565b34801561024057600080fd5b506101d16004356c010000000000000000000000006024359081049068010000000000000000900463ffffffff166107d6565b34801561027f57600080fd5b5060408051602060046024803582810135601f81018590048502860185019096528585526101d195833595369560449491939091019190819084018382808284375050604080516020601f89358b018035918201839004830284018301909452808352979a999881019791965091820194509250829150840183828082843750506040805187358901803560208181028481018201909552818452989b9a998901989297509082019550935083925085019084908082843750506040805187358901803560208181028481018201909552818452989b9a998901989297509082019550935083925085019084908082843750949750506c010000000000000000000000008535818104975063ffffffff6801000000000000000091829004811697602001359283049650910416925061082f915050565b3480156103c257600080fd5b506103cb610c10565b60408051600160a060020a039092168252519081900360200190f35b60018054604080516020600284861615610100026000190190941693909304601f8101849004840282018401909252818152929183018282801561046c5780601f106104415761010080835404028352916020019161046c565b820191906000526020600020905b81548152906001019060200180831161044f57829003601f168201915b505050505081565b81818686866040518463ffffffff1660e060020a028152600401808481526020018060200180602001838103835285818151815260200191508051906020019080838360005b838110156104d25781810151838201526020016104ba565b50505050905090810190601f1680156104ff5780820380516001836020036101000a031916815260200191505b50838103825284518152845160209182019186019080838360005b8381101561053257818101518382015260200161051a565b50505050905090810190601f16801561055f5780820380516001836020036101000a031916815260200191505b5095505050505050600060405180830381600087803b15801561058157600080fd5b505af1158015610595573d6000803e3d6000fd5b505050505050505050565b600054600160a060020a0316321461061957604080517f08c379a000000000000000000000000000000000000000000000000000000000815260206004820152601260248201527f6f6e6c79206f776e657220616c6c6f7765640000000000000000000000000000604482015290519081900360640190fd5b6000ff5b600254604080518082018252600f81527f7072696e7465722d6d616e616765720000000000000000000000000000000000602080830191825292517f693ec85e00000000000000000000000000000000000000000000000000000000815260048101938452825160248201528251600160a060020a039095169463693ec85e949283926044019180838360005b838110156106c25781810151838201526020016106aa565b50505050905090810190601f1680156106ef5780820380516001836020036101000a031916815260200191505b5092505050602060405180830381600087803b15801561070e57600080fd5b505af1158015610722573d6000803e3d6000fd5b505050506040513d602081101561073857600080fd5b5051604080517fbbc979a2000000000000000000000000000000000000000000000000000000008152336004820152602481018890526801000000000000000064010000000080890263ffffffff808a169190911783026044850152908702908616170260648201529051600160a060020a039092169163bbc979a29160848082019260009290919082900301818387803b15801561058157600080fd5b8181846040518263ffffffff1660e060020a02815260040180828152602001915050600060405180830381600087803b15801561081257600080fd5b505af1158015610826573d6000803e3d6000fd5b50505050505050565b84518651146108c557604080517f08c379a000000000000000000000000000000000000000000000000000000000815260206004820152602260248201527f7072696e7465722068617665206e6f7420657175616c7320706172616d65746560448201527f7273000000000000000000000000000000000000000000000000000000000000606482015290519081900360840190fd5b600254604080518082018252600f81527f7072696e7465722d6d616e616765720000000000000000000000000000000000602080830191825292517f693ec85e00000000000000000000000000000000000000000000000000000000815260048101938452825160248201528251600160a060020a039095169463693ec85e949283926044019180838360005b8381101561096a578181015183820152602001610952565b50505050905090810190601f1680156109975780820380516001836020036101000a031916815260200191505b5092505050602060405180830381600087803b1580156109b657600080fd5b505af11580156109ca573d6000803e3d6000fd5b505050506040513d60208110156109e057600080fd5b50516040517fbb255f2d0000000000000000000000000000000000000000000000000000000081523360048201818152602483018d905268010000000000000000640100000000808a0263ffffffff808b1691909117830260c4870152908802908716170260e4840152610100604484019081528c516101048501528c51600160a060020a039095169463bb255f2d948f938f938f938f938f938f938f938f938f9392916064820191608481019160a4820191610124019060208f019080838360005b83811015610abb578181015183820152602001610aa3565b50505050905090810190601f168015610ae85780820380516001836020036101000a031916815260200191505b5085810384528c5181528c516020918201918e019080838360005b83811015610b1b578181015183820152602001610b03565b50505050905090810190601f168015610b485780820380516001836020036101000a031916815260200191505b5085810383528b5181528b51602091820191808e01910280838360005b83811015610b7d578181015183820152602001610b65565b5050505090500185810382528a818151815260200191508051906020019060200280838360005b83811015610bbc578181015183820152602001610ba4565b505050509050019e505050505050505050505050505050600060405180830381600087803b158015610bed57600080fd5b505af1158015610c01573d6000803e3d6000fd5b50505050505050505050505050565b600054600160a060020a0316815600a165627a7a723058207b25352e9e7c2a0034518080c6d30851380cc55eae5ec5d3d4c1002fe9acd54c0029",
  "source": "pragma solidity 0.4.24;\n\nimport \"../platform/Named.sol\";\nimport \"../platform/Mortal.sol\";\nimport \"../platform/Component.sol\";\nimport \"./api/APrinterController.sol\";\nimport \"../managers/api/APrinterManager.sol\";\n\ncontract PrinterController is APrinterController, Named(\"printer-controller\"), Mortal, Component {\n\n    string constant MANAGER = \"printer-manager\";\n\n    constructor(address _config) Component(_config) public {}\n\n    function createReceipt(\n        uint256 _sessionId,\n        function(uint256, string memory, string memory) external _success,\n        function(uint256) external _fail\n    )\n        public\n    {\n        APrinterManager(context.get(MANAGER)).createReceipt(msg.sender, _sessionId, _success, _fail);\n    }\n\n    function respondCreate(\n        uint256 _sessionId,\n        string _receiptId,\n        string _url,\n        function(uint256, string memory, string memory) external _callback\n    )\n        public\n    {\n        _callback(_sessionId, _receiptId, _url);\n    }\n\n    function respondFailCreate(uint256 _sessionId, function(uint256) external _callback) public {\n        _callback(_sessionId);\n    }\n\n    function printReceipt(\n        uint256 _sessionId,\n        string _receiptId,\n        string _data,\n        bytes32[] _paramNames,\n        bytes32[] _paramValues,\n        function(uint256) external _success,\n        function(uint256) external _fail\n    )\n        public\n    {\n        require(_paramNames.length == _paramValues.length, \"printer have not equals parameters\");\n        APrinterManager(context.get(MANAGER)).printReceipt(msg.sender, _sessionId, _receiptId, _data, _paramNames, _paramValues, _success, _fail);\n    }\n\n    function respondPrint(uint256 _sessionId, function(uint256) external _callback) public {\n        _callback(_sessionId);\n    }\n\n    function respondFailPrint(uint256 _sessionId, function(uint256) external _callback) public {\n        _callback(_sessionId);\n    }\n\n}\n",
  "sourcePath": "/home/andrew/vault-logic-project/Development/test/vault-logic-api/truffle/contracts/controllers/PrinterController.sol",
  "compiler": {
    "name": "solc",
    "version": "0.4.24+commit.e67f0147.Emscripten.clang"
  },
  "schemaVersion": "2.0.1",
  "updatedAt": "2018-11-08T11:31:48.293Z"
}