{
  "contractName": "PrinterManager",
  "abi": [
    {
      "constant": true,
      "inputs": [],
      "name": "name",
      "outputs": [
        {
          "name": "",
          "type": "string"
        }
      ],
      "payable": false,
      "stateMutability": "view",
      "type": "function"
    },
    {
      "constant": false,
      "inputs": [],
      "name": "kill",
      "outputs": [],
      "payable": false,
      "stateMutability": "nonpayable",
      "type": "function"
    },
    {
      "constant": true,
      "inputs": [],
      "name": "owner",
      "outputs": [
        {
          "name": "",
          "type": "address"
        }
      ],
      "payable": false,
      "stateMutability": "view",
      "type": "function"
    },
    {
      "inputs": [
        {
          "name": "_config",
          "type": "address"
        }
      ],
      "payable": false,
      "stateMutability": "nonpayable",
      "type": "constructor"
    },
    {
      "constant": false,
      "inputs": [
        {
          "name": "_application",
          "type": "address"
        },
        {
          "name": "_sessionId",
          "type": "uint256"
        },
        {
          "name": "_success",
          "type": "function"
        },
        {
          "name": "_fail",
          "type": "function"
        }
      ],
      "name": "createReceipt",
      "outputs": [],
      "payable": false,
      "stateMutability": "nonpayable",
      "type": "function"
    },
    {
      "constant": false,
      "inputs": [
        {
          "name": "_commandId",
          "type": "uint256"
        },
        {
          "name": "_receiptId",
          "type": "string"
        },
        {
          "name": "_url",
          "type": "string"
        }
      ],
      "name": "confirmCreate",
      "outputs": [],
      "payable": false,
      "stateMutability": "nonpayable",
      "type": "function"
    },
    {
      "constant": false,
      "inputs": [
        {
          "name": "_commandId",
          "type": "uint256"
        }
      ],
      "name": "confirmFailCreate",
      "outputs": [],
      "payable": false,
      "stateMutability": "nonpayable",
      "type": "function"
    },
    {
      "constant": false,
      "inputs": [
        {
          "name": "_application",
          "type": "address"
        },
        {
          "name": "_sessionId",
          "type": "uint256"
        },
        {
          "name": "_receiptId",
          "type": "string"
        },
        {
          "name": "_data",
          "type": "string"
        },
        {
          "name": "_paramNames",
          "type": "bytes32[]"
        },
        {
          "name": "_paramValues",
          "type": "bytes32[]"
        },
        {
          "name": "_success",
          "type": "function"
        },
        {
          "name": "_fail",
          "type": "function"
        }
      ],
      "name": "printReceipt",
      "outputs": [],
      "payable": false,
      "stateMutability": "nonpayable",
      "type": "function"
    },
    {
      "constant": false,
      "inputs": [
        {
          "name": "_commandId",
          "type": "uint256"
        }
      ],
      "name": "confirmPrint",
      "outputs": [],
      "payable": false,
      "stateMutability": "nonpayable",
      "type": "function"
    },
    {
      "constant": false,
      "inputs": [
        {
          "name": "_commandId",
          "type": "uint256"
        }
      ],
      "name": "confirmFailPrint",
      "outputs": [],
      "payable": false,
      "stateMutability": "nonpayable",
      "type": "function"
    }
  ],
  "bytecode": "0x60806040523480156200001157600080fd5b50604051602080620023028339810160408181529151828201909252600f8082527f7072696e7465722d6d616e6167657200000000000000000000000000000000006020830190815260008054600160a060020a031916331790558392916200007d91600191620002b8565b505080600160a060020a031663713b563f6040518163ffffffff167c0100000000000000000000000000000000000000000000000000000000028152600401602060405180830381600087803b158015620000d757600080fd5b505af1158015620000ec573d6000803e3d6000fd5b505050506040513d60208110156200010357600080fd5b505160038054600160a060020a031916600160a060020a03928316179055604080517fd0496d6a00000000000000000000000000000000000000000000000000000000815290519183169163d0496d6a916004808201926020929091908290030181600087803b1580156200017757600080fd5b505af11580156200018c573d6000803e3d6000fd5b505050506040513d6020811015620001a357600080fd5b505160028054600160a060020a031916600160a060020a03928316178082556040517ff2c298be00000000000000000000000000000000000000000000000000000000815260206004820190815260018054610100818316150260001901169490940460248301819052929094169363f2c298be93929091829160449091019084908015620002765780601f106200024a5761010080835404028352916020019162000276565b820191906000526020600020905b8154815290600101906020018083116200025857829003601f168201915b505092505050600060405180830381600087803b1580156200029757600080fd5b505af1158015620002ac573d6000803e3d6000fd5b5050505050506200035d565b828054600181600116156101000203166002900490600052602060002090601f016020900481019282601f10620002fb57805160ff19168380011785556200032b565b828001600101855582156200032b579182015b828111156200032b5782518255916020019190600101906200030e565b50620003399291506200033d565b5090565b6200035a91905b8082111562000339576000815560010162000344565b90565b611f95806200036d6000396000f3006080604052600436106100985763ffffffff7c010000000000000000000000000000000000000000000000000000000060003504166306fdde03811461009d57806307fac4961461012757806331e2ab8a146101c557806341c0e1b5146101dd57806352e215ef146101f257806376eefe271461020a5780638da5cb5b14610222578063bb255f2d14610253578063bbc979a2146103a1575b600080fd5b3480156100a957600080fd5b506100b26103f9565b6040805160208082528351818301528351919283929083019185019080838360005b838110156100ec5781810151838201526020016100d4565b50505050905090810190601f1680156101195780820380516001836020036101000a031916815260200191505b509250505060405180910390f35b34801561013357600080fd5b5060408051602060046024803582810135601f81018590048502860185019096528585526101c395833595369560449491939091019190819084018382808284375050604080516020601f89358b018035918201839004830284018301909452808352979a9998810197919650918201945092508291508401838280828437509497506104869650505050505050565b005b3480156101d157600080fd5b506101c36004356108bb565b3480156101e957600080fd5b506101c3610d5d565b3480156101fe57600080fd5b506101c3600435610dda565b34801561021657600080fd5b506101c360043561125d565b34801561022e57600080fd5b5061023761159a565b60408051600160a060020a039092168252519081900360200190f35b34801561025f57600080fd5b50604080516020600460443581810135601f81018490048402850184019095528484526101c3948235600160a060020a031694602480359536959460649492019190819084018382808284375050604080516020601f89358b018035918201839004830284018301909452808352979a999881019791965091820194509250829150840183828082843750506040805187358901803560208181028481018201909552818452989b9a998901989297509082019550935083925085019084908082843750506040805187358901803560208181028481018201909552818452989b9a998901989297509082019550935083925085019084908082843750949750506c010000000000000000000000008535818104975063ffffffff680100000000000000009182900481169760200135928304965091041692506115a9915050565b3480156103ad57600080fd5b506101c3600160a060020a03600435166024356c010000000000000000000000006044358181049163ffffffff6801000000000000000092839004811692606435928304920416611bd3565b60018054604080516020600284861615610100026000190190941693909304601f8101849004840282018401909252818152929183018282801561047e5780601f106104535761010080835404028352916020019161047e565b820191906000526020600020905b81548152906001019060200180831161046157829003601f168201915b505050505081565b600254604080518082018252600f8152600080516020611f4a8339815191526020808301918252925160e160020a63349f642f0281526004810193845282516024820152825160009586958695600160a060020a039092169463693ec85e94929391928392604490910191908083838b5b8381101561050f5781810151838201526020016104f7565b50505050905090810190601f16801561053c5780820380516001836020036101000a031916815260200191505b5092505050602060405180830381600087803b15801561055b57600080fd5b505af115801561056f573d6000803e3d6000fd5b505050506040513d602081101561058557600080fd5b5051604080517fc178019d000000000000000000000000000000000000000000000000000000008152600481018990529051600160a060020a039092169163c178019d916024808201926060929091908290030181600087803b1580156105eb57600080fd5b505af11580156105ff573d6000803e3d6000fd5b505050506040513d606081101561061557600080fd5b50805160209182015160025460408051808201825260128152600080516020611f2a833981519152818701908152915160e160020a63349f642f028152600481019687528151602482015281519599506c01000000000000000000000000850498506801000000000000000090940463ffffffff169650600160a060020a039092169463693ec85e949293909283926044909201919080838360005b838110156106c95781810151838201526020016106b1565b50505050905090810190601f1680156106f65780820380516001836020036101000a031916815260200191505b5092505050602060405180830381600087803b15801561071557600080fd5b505af1158015610729573d6000803e3d6000fd5b505050506040513d602081101561073f57600080fd5b50516040517f34db07760000000000000000000000000000000000000000000000000000000081526004810185815268010000000000000000640100000000860263ffffffff861617026064830152608060248301908152885160848401528851600160a060020a03909416936334db07769388938b938b938a938a939291604482019160a40190602089019080838360005b838110156107ea5781810151838201526020016107d2565b50505050905090810190601f1680156108175780820380516001836020036101000a031916815260200191505b50838103825286518152865160209182019188019080838360005b8381101561084a578181015183820152602001610832565b50505050905090810190601f1680156108775780820380516001836020036101000a031916815260200191505b50975050505050505050600060405180830381600087803b15801561089b57600080fd5b505af11580156108af573d6000803e3d6000fd5b50505050505050505050565b600254604080518082018252600f8152600080516020611f4a8339815191526020808301918252925160e160020a63349f642f0281526004810193845282516024820152825160009586958695600160a060020a039092169463693ec85e94929391928392604490910191908083838b5b8381101561094457818101518382015260200161092c565b50505050905090810190601f1680156109715780820380516001836020036101000a031916815260200191505b5092505050602060405180830381600087803b15801561099057600080fd5b505af11580156109a4573d6000803e3d6000fd5b505050506040513d60208110156109ba57600080fd5b5051604080517f04c4b7cf000000000000000000000000000000000000000000000000000000008152600481018790529051600160a060020a03909216916304c4b7cf9160248082019260009290919082900301818387803b158015610a1f57600080fd5b505af1158015610a33573d6000803e3d6000fd5b505050506040513d6000823e601f3d908101601f1916820160405260e0811015610a5c57600080fd5b815160208301805191939283019291640100000000811115610a7d57600080fd5b82016020810184811115610a9057600080fd5b8151640100000000811182820187101715610aaa57600080fd5b50509291906020018051640100000000811115610ac657600080fd5b82016020810184811115610ad957600080fd5b8151640100000000811182820187101715610af357600080fd5b50509291906020018051640100000000811115610b0f57600080fd5b82016020810184811115610b2257600080fd5b8151856020820283011164010000000082111715610b3f57600080fd5b50509291906020018051640100000000811115610b5b57600080fd5b82016020810184811115610b6e57600080fd5b8151856020820283011164010000000082111715610b8b57600080fd5b5050506040908101516002548251808401845260128152600080516020611f2a8339815191526020828101918252945160e160020a63349f642f028152600481019586528251602482015282519b9e506c0100000000000000000000000085049d506801000000000000000090940463ffffffff169b50600160a060020a039092169963693ec85e9950909750929550859450604490910192509080838360005b83811015610c44578181015183820152602001610c2c565b50505050905090810190601f168015610c715780820380516001836020036101000a031916815260200191505b5092505050602060405180830381600087803b158015610c9057600080fd5b505af1158015610ca4573d6000803e3d6000fd5b505050506040513d6020811015610cba57600080fd5b5051604080517f51fedc400000000000000000000000000000000000000000000000000000000081526004810186905268010000000000000000640100000000860263ffffffff8616170260248201529051600160a060020a03909216916351fedc409160448082019260009290919082900301818387803b158015610d3f57600080fd5b505af1158015610d53573d6000803e3d6000fd5b5050505050505050565b600054600160a060020a03163214610dd657604080517f08c379a000000000000000000000000000000000000000000000000000000000815260206004820152601260248201527f6f6e6c79206f776e657220616c6c6f7765640000000000000000000000000000604482015290519081900360640190fd5b6000ff5b600254604080518082018252600f8152600080516020611f4a8339815191526020808301918252925160e160020a63349f642f0281526004810193845282516024820152825160009586958695600160a060020a039092169463693ec85e94929391928392604490910191908083838b5b83811015610e63578181015183820152602001610e4b565b50505050905090810190601f168015610e905780820380516001836020036101000a031916815260200191505b5092505050602060405180830381600087803b158015610eaf57600080fd5b505af1158015610ec3573d6000803e3d6000fd5b505050506040513d6020811015610ed957600080fd5b5051604080517f04c4b7cf000000000000000000000000000000000000000000000000000000008152600481018790529051600160a060020a03909216916304c4b7cf9160248082019260009290919082900301818387803b158015610f3e57600080fd5b505af1158015610f52573d6000803e3d6000fd5b505050506040513d6000823e601f3d908101601f1916820160405260e0811015610f7b57600080fd5b815160208301805191939283019291640100000000811115610f9c57600080fd5b82016020810184811115610faf57600080fd5b8151640100000000811182820187101715610fc957600080fd5b50509291906020018051640100000000811115610fe557600080fd5b82016020810184811115610ff857600080fd5b815164010000000081118282018710171561101257600080fd5b5050929190602001805164010000000081111561102e57600080fd5b8201602081018481111561104157600080fd5b815185602082028301116401000000008211171561105e57600080fd5b5050929190602001805164010000000081111561107a57600080fd5b8201602081018481111561108d57600080fd5b81518560208202830111640100000000821117156110aa57600080fd5b50505060209081015160025460408051808201825260128152600080516020611f2a833981519152818601908152915160e160020a63349f642f028152600481019586528151602482015281519b9e506c0100000000000000000000000085049d506801000000000000000090940463ffffffff169b50600160a060020a039092169963693ec85e99509197509295508594506044909101925080838360005b8381101561116257818101518382015260200161114a565b50505050905090810190601f16801561118f5780820380516001836020036101000a031916815260200191505b5092505050602060405180830381600087803b1580156111ae57600080fd5b505af11580156111c2573d6000803e3d6000fd5b505050506040513d60208110156111d857600080fd5b5051604080517f682e916d0000000000000000000000000000000000000000000000000000000081526004810186905268010000000000000000640100000000860263ffffffff8616170260248201529051600160a060020a039092169163682e916d9160448082019260009290919082900301818387803b158015610d3f57600080fd5b600254604080518082018252600f8152600080516020611f4a8339815191526020808301918252925160e160020a63349f642f0281526004810193845282516024820152825160009586958695600160a060020a039092169463693ec85e94929391928392604490910191908083838b5b838110156112e65781810151838201526020016112ce565b50505050905090810190601f1680156113135780820380516001836020036101000a031916815260200191505b5092505050602060405180830381600087803b15801561133257600080fd5b505af1158015611346573d6000803e3d6000fd5b505050506040513d602081101561135c57600080fd5b5051604080517fc178019d000000000000000000000000000000000000000000000000000000008152600481018790529051600160a060020a039092169163c178019d916024808201926060929091908290030181600087803b1580156113c257600080fd5b505af11580156113d6573d6000803e3d6000fd5b505050506040513d60608110156113ec57600080fd5b5080516040918201516002548351808501855260128152600080516020611f2a8339815191526020828101918252955160e160020a63349f642f028152600481019687528251602482015282519599506c01000000000000000000000000850498506801000000000000000090940463ffffffff169650600160a060020a039092169463693ec85e9491939092839260449092019180838360005b8381101561149f578181015183820152602001611487565b50505050905090810190601f1680156114cc5780820380516001836020036101000a031916815260200191505b5092505050602060405180830381600087803b1580156114eb57600080fd5b505af11580156114ff573d6000803e3d6000fd5b505050506040513d602081101561151557600080fd5b5051604080517ff65444e10000000000000000000000000000000000000000000000000000000081526004810186905268010000000000000000640100000000860263ffffffff8616170260248201529051600160a060020a039092169163f65444e19160448082019260009290919082900301818387803b158015610d3f57600080fd5b600054600160a060020a031681565b600254604080518082018252600f8152600080516020611f4a8339815191526020808301918252925160e160020a63349f642f02815260048101938452825160248201528251600095600160a060020a03169463693ec85e949390928392604490910191908083838b5b8381101561162b578181015183820152602001611613565b50505050905090810190601f1680156116585780820380516001836020036101000a031916815260200191505b5092505050602060405180830381600087803b15801561167757600080fd5b505af115801561168b573d6000803e3d6000fd5b505050506040513d60208110156116a157600080fd5b50516040517f2de62bee000000000000000000000000000000000000000000000000000000008152600481018c815268010000000000000000640100000000808a0263ffffffff808b1691909117830260a4860152908802908716170260c483015260e0602483019081528c5160e48401528c51600160a060020a0390941693632de62bee938f938f938f938f938f938f938f938f938f939291604482019160648101916084820191610104019060208f019080838360005b8381101561177257818101518382015260200161175a565b50505050905090810190601f16801561179f5780820380516001836020036101000a031916815260200191505b5085810384528c5181528c516020918201918e019080838360005b838110156117d25781810151838201526020016117ba565b50505050905090810190601f1680156117ff5780820380516001836020036101000a031916815260200191505b5085810383528b5181528b51602091820191808e01910280838360005b8381101561183457818101518382015260200161181c565b5050505090500185810382528a818151815260200191508051906020019060200280838360005b8381101561187357818101518382015260200161185b565b505050509050019d5050505050505050505050505050602060405180830381600087803b1580156118a357600080fd5b505af11580156118b7573d6000803e3d6000fd5b505050506040513d60208110156118cd57600080fd5b5051600254604080518082018252600e81527f7072696e7465722d6f7261636c650000000000000000000000000000000000006020828101918252925160e160020a63349f642f02815260048101938452825160248201528251959650600160a060020a039094169463693ec85e94929392839260449091019180838360005b8381101561196557818101518382015260200161194d565b50505050905090810190601f1680156119925780820380516001836020036101000a031916815260200191505b5092505050602060405180830381600087803b1580156119b157600080fd5b505af11580156119c5573d6000803e3d6000fd5b505050506040513d60208110156119db57600080fd5b8101908080519060200190929190505050600160a060020a0316637bdf7ed7828c8c8c8c8c6040518763ffffffff167c01000000000000000000000000000000000000000000000000000000000281526004018087815260200186815260200180602001806020018060200180602001858103855289818151815260200191508051906020019080838360005b83811015611a80578181015183820152602001611a68565b50505050905090810190601f168015611aad5780820380516001836020036101000a031916815260200191505b5085810384528851815288516020918201918a019080838360005b83811015611ae0578181015183820152602001611ac8565b50505050905090810190601f168015611b0d5780820380516001836020036101000a031916815260200191505b508581038352875181528751602091820191808a01910280838360005b83811015611b42578181015183820152602001611b2a565b50505050905001858103825286818151815260200191508051906020019060200280838360005b83811015611b81578181015183820152602001611b69565b505050509050019a5050505050505050505050600060405180830381600087803b158015611bae57600080fd5b505af1158015611bc2573d6000803e3d6000fd5b505050505050505050505050505050565b600254604080518082018252600f8152600080516020611f4a8339815191526020808301918252925160e160020a63349f642f02815260048101938452825160248201528251600095600160a060020a03169463693ec85e949390928392604490910191908083838b5b83811015611c55578181015183820152602001611c3d565b50505050905090810190601f168015611c825780820380516001836020036101000a031916815260200191505b5092505050602060405180830381600087803b158015611ca157600080fd5b505af1158015611cb5573d6000803e3d6000fd5b505050506040513d6020811015611ccb57600080fd5b5051604080517f8e203ae00000000000000000000000000000000000000000000000000000000081526004810189905268010000000000000000640100000000808a0263ffffffff808b169190911783026024850152908802908716170260448201529051600160a060020a0390921691638e203ae0916064808201926020929091908290030181600087803b158015611d6457600080fd5b505af1158015611d78573d6000803e3d6000fd5b505050506040513d6020811015611d8e57600080fd5b5051600254604080518082018252600e81527f7072696e7465722d6f7261636c650000000000000000000000000000000000006020828101918252925160e160020a63349f642f02815260048101938452825160248201528251959650600160a060020a039094169463693ec85e94929392839260449091019180838360005b83811015611e26578181015183820152602001611e0e565b50505050905090810190601f168015611e535780820380516001836020036101000a031916815260200191505b5092505050602060405180830381600087803b158015611e7257600080fd5b505af1158015611e86573d6000803e3d6000fd5b505050506040513d6020811015611e9c57600080fd5b5051604080517f5e4a213e00000000000000000000000000000000000000000000000000000000815260048101849052602481018990529051600160a060020a0390921691635e4a213e9160448082019260009290919082900301818387803b158015611f0857600080fd5b505af1158015611f1c573d6000803e3d6000fd5b505050505050505050505056007072696e7465722d636f6e74726f6c6c657200000000000000000000000000007072696e7465722d73746f726167650000000000000000000000000000000000a165627a7a72305820ffdc786ad5c462c5503b7841a3699bd3900574b2962cff9f4605603006556eee0029",
  "source": "pragma solidity 0.4.24;\n\nimport \"../platform/Named.sol\";\nimport \"../platform/Mortal.sol\";\nimport \"../platform/Component.sol\";\nimport \"./api/APrinterManager.sol\";\nimport \"../oracles/api/APrinterOracle.sol\";\nimport \"../storages/api/APrinterStorage.sol\";\nimport \"../controllers/api/APrinterController.sol\";\n\ncontract PrinterManager is APrinterManager, Mortal, Named(\"printer-manager\"), Component {\n\n    string constant STORAGE = \"printer-storage\";\n    string constant ORACLE = \"printer-oracle\";\n    string constant CONTROLLER = \"printer-controller\";\n\n    constructor(address _config) Component(_config) public {}\n\n    // @formatter:off\n    function createReceipt(\n        address _application,\n        uint256 _sessionId,\n        function(uint256, string memory, string memory) external _success,\n        function(uint256) external _fail\n    )\n        public\n    // @formatter:on\n    {\n        uint256 _id = APrinterStorage(context.get(STORAGE)).createReceiptCreate(_sessionId, _success, _fail);\n        APrinterOracle(context.get(ORACLE)).onNextReceiptCreate(_id, _sessionId);\n    }\n\n    function confirmCreate(uint256 _commandId, string _receiptId, string _url) public {\n        (uint256 _sessionId,function(uint256, string memory, string memory) external callback,) = APrinterStorage(context.get(STORAGE)).\n        getReceiptCreate(_commandId);\n        APrinterController(context.get(CONTROLLER)).respondCreate(_sessionId, _receiptId, _url, callback);\n    }\n\n    function confirmFailCreate(uint256 _commandId) public {\n        (uint256 _sessionId,,function(uint256) external callback) = APrinterStorage(context.get(STORAGE)).getReceiptCreate(_commandId);\n        APrinterController(context.get(CONTROLLER)).respondFailCreate(_sessionId, callback);\n    }\n\n    // @formatter:off\n    function printReceipt(\n        address _application,\n        uint256 _sessionId,\n        string _receiptId,\n        string _data,\n        bytes32[] _paramNames,\n        bytes32[] _paramValues,\n        function(uint256) external _success,\n        function(uint256) external _fail\n    )\n        public\n    // @formatter:on\n    {\n        uint256 _id = APrinterStorage(context.get(STORAGE)).createReceiptPrint(_sessionId, _receiptId, _data, _paramNames, _paramValues, _success, _fail);\n        APrinterOracle(context.get(ORACLE)).onNextReceiptPrint(_id, _sessionId, _receiptId, _data, _paramNames, _paramValues);\n    }\n\n    function confirmPrint(uint256 _commandId) public {\n        (uint256 _sessionId,,,,,function(uint256) external callback,) = APrinterStorage(context.get(STORAGE)).getReceiptPrint(_commandId);\n        APrinterController(context.get(CONTROLLER)).respondPrint(_sessionId, callback);\n    }\n\n    function confirmFailPrint(uint256 _commandId) public {\n        (uint256 _sessionId,,,,,,function(uint256) external callback) = APrinterStorage(context.get(STORAGE)).getReceiptPrint(_commandId);\n        APrinterController(context.get(CONTROLLER)).respondFailPrint(_sessionId, callback);\n    }\n\n}\n",
  "sourcePath": "/home/andrew/vault-logic-project/Development/test/vault-logic-api/truffle/contracts/managers/PrinterManager.sol",
  "compiler": {
    "name": "solc",
    "version": "0.4.24+commit.e67f0147.Emscripten.clang"
  },
  "schemaVersion": "2.0.1",
  "updatedAt": "2018-11-26T09:18:32.076Z"
}