{
  "contractName": "PrinterStorage",
  "abi": [
    {
      "constant": true,
      "inputs": [],
      "name": "name",
      "outputs": [
        {
          "name": "",
          "type": "string"
        }
      ],
      "payable": false,
      "stateMutability": "view",
      "type": "function"
    },
    {
      "constant": false,
      "inputs": [],
      "name": "kill",
      "outputs": [],
      "payable": false,
      "stateMutability": "nonpayable",
      "type": "function"
    },
    {
      "constant": true,
      "inputs": [],
      "name": "owner",
      "outputs": [
        {
          "name": "",
          "type": "address"
        }
      ],
      "payable": false,
      "stateMutability": "view",
      "type": "function"
    },
    {
      "inputs": [
        {
          "name": "_config",
          "type": "address"
        }
      ],
      "payable": false,
      "stateMutability": "nonpayable",
      "type": "constructor"
    },
    {
      "constant": false,
      "inputs": [
        {
          "name": "_sessionId",
          "type": "uint256"
        },
        {
          "name": "_success",
          "type": "function"
        },
        {
          "name": "_fail",
          "type": "function"
        }
      ],
      "name": "createReceiptCreate",
      "outputs": [
        {
          "name": "_id",
          "type": "uint256"
        }
      ],
      "payable": false,
      "stateMutability": "nonpayable",
      "type": "function"
    },
    {
      "constant": true,
      "inputs": [
        {
          "name": "_id",
          "type": "uint256"
        }
      ],
      "name": "getReceiptCreate",
      "outputs": [
        {
          "name": "_sessionId",
          "type": "uint256"
        },
        {
          "name": "_success",
          "type": "function"
        },
        {
          "name": "_fail",
          "type": "function"
        }
      ],
      "payable": false,
      "stateMutability": "view",
      "type": "function"
    },
    {
      "constant": false,
      "inputs": [
        {
          "name": "_sessionId",
          "type": "uint256"
        },
        {
          "name": "_receiptId",
          "type": "string"
        },
        {
          "name": "_data",
          "type": "string"
        },
        {
          "name": "_paramNames",
          "type": "bytes32[]"
        },
        {
          "name": "_paramValues",
          "type": "bytes32[]"
        },
        {
          "name": "_success",
          "type": "function"
        },
        {
          "name": "_fail",
          "type": "function"
        }
      ],
      "name": "createReceiptPrint",
      "outputs": [
        {
          "name": "_id",
          "type": "uint256"
        }
      ],
      "payable": false,
      "stateMutability": "nonpayable",
      "type": "function"
    },
    {
      "constant": true,
      "inputs": [
        {
          "name": "_id",
          "type": "uint256"
        }
      ],
      "name": "getReceiptPrint",
      "outputs": [
        {
          "name": "_sessionId",
          "type": "uint256"
        },
        {
          "name": "_receiptId",
          "type": "string"
        },
        {
          "name": "_data",
          "type": "string"
        },
        {
          "name": "_paramNames",
          "type": "bytes32[]"
        },
        {
          "name": "_paramValues",
          "type": "bytes32[]"
        },
        {
          "name": "_success",
          "type": "function"
        },
        {
          "name": "_fail",
          "type": "function"
        }
      ],
      "payable": false,
      "stateMutability": "view",
      "type": "function"
    }
  ],
  "bytecode": "0x60806040523480156200001157600080fd5b506040516020806200116c8339810160408181529151828201909252600f8082527f7072696e7465722d73746f7261676500000000000000000000000000000000006020830190815260008054600160a060020a031916331790558392916200007d91600191620002b8565b505080600160a060020a031663713b563f6040518163ffffffff167c0100000000000000000000000000000000000000000000000000000000028152600401602060405180830381600087803b158015620000d757600080fd5b505af1158015620000ec573d6000803e3d6000fd5b505050506040513d60208110156200010357600080fd5b505160038054600160a060020a031916600160a060020a03928316179055604080517fd0496d6a00000000000000000000000000000000000000000000000000000000815290519183169163d0496d6a916004808201926020929091908290030181600087803b1580156200017757600080fd5b505af11580156200018c573d6000803e3d6000fd5b505050506040513d6020811015620001a357600080fd5b505160028054600160a060020a031916600160a060020a03928316178082556040517ff2c298be00000000000000000000000000000000000000000000000000000000815260206004820190815260018054610100818316150260001901169490940460248301819052929094169363f2c298be93929091829160449091019084908015620002765780601f106200024a5761010080835404028352916020019162000276565b820191906000526020600020905b8154815290600101906020018083116200025857829003601f168201915b505092505050600060405180830381600087803b1580156200029757600080fd5b505af1158015620002ac573d6000803e3d6000fd5b5050505050506200035d565b828054600181600116156101000203166002900490600052602060002090601f016020900481019282601f10620002fb57805160ff19168380011785556200032b565b828001600101855582156200032b579182015b828111156200032b5782518255916020019190600101906200030e565b50620003399291506200033d565b5090565b6200035a91905b8082111562000339576000815560010162000344565b90565b610dff806200036d6000396000f3006080604052600436106100825763ffffffff7c010000000000000000000000000000000000000000000000000000000060003504166304c4b7cf811461008757806306fdde03146102505780632de62bee146102da57806341c0e1b51461042f5780638da5cb5b146104465780638e203ae014610477578063c178019d146104c3575b600080fd5b34801561009357600080fd5b5061009f60043561051f565b604051808a815260200180602001806020018060200180602001898963ffffffff1690640100000000021768010000000000000000028152602001878763ffffffff169064010000000002176801000000000000000002815260200185810385528d818151815260200191508051906020019080838360005b83811015610130578181015183820152602001610118565b50505050905090810190601f16801561015d5780820380516001836020036101000a031916815260200191505b5085810384528c5181528c516020918201918e019080838360005b83811015610190578181015183820152602001610178565b50505050905090810190601f1680156101bd5780820380516001836020036101000a031916815260200191505b5085810383528b5181528b51602091820191808e01910280838360005b838110156101f25781810151838201526020016101da565b5050505090500185810382528a818151815260200191508051906020019060200280838360005b83811015610231578181015183820152602001610219565b505050509050019d505050505050505050505050505060405180910390f35b34801561025c57600080fd5b50610265610830565b6040805160208082528351818301528351919283929083019185019080838360005b8381101561029f578181015183820152602001610287565b50505050905090810190601f1680156102cc5780820380516001836020036101000a031916815260200191505b509250505060405180910390f35b3480156102e657600080fd5b5060408051602060046024803582810135601f810185900485028601850190965285855261041d95833595369560449491939091019190819084018382808284375050604080516020601f89358b018035918201839004830284018301909452808352979a999881019791965091820194509250829150840183828082843750506040805187358901803560208181028481018201909552818452989b9a998901989297509082019550935083925085019084908082843750506040805187358901803560208181028481018201909552818452989b9a998901989297509082019550935083925085019084908082843750949750506c010000000000000000000000008535818104975063ffffffff680100000000000000009182900481169760200135928304965091041692506108bd915050565b60408051918252519081900360200190f35b34801561043b57600080fd5b50610444610a89565b005b34801561045257600080fd5b5061045b610b06565b60408051600160a060020a039092168252519081900360200190f35b34801561048357600080fd5b5061041d6004356c010000000000000000000000006024358181049163ffffffff6801000000000000000092839004811692604435928304920416610b15565b3480156104cf57600080fd5b506104db600435610c46565b604080519586526801000000000000000064010000000095860263ffffffff9586161781026020880152929094029216919091170282820152519081900360600190f35b600060608060608060008060008060058a81548110151561053c57fe5b906000526020600020906007020160000154985060058a81548110151561055f57fe5b90600052602060002090600702016001018054600181600116156101000203166002900480601f0160208091040260200160405190810160405280929190818152602001828054600181600116156101000203166002900480156106045780601f106105d957610100808354040283529160200191610604565b820191906000526020600020905b8154815290600101906020018083116105e757829003601f168201915b5050505050975060058a81548110151561061a57fe5b600091825260209182902060026007909202018101805460408051601f6000196101006001861615020190931694909404918201859004850284018501905280835291929091908301828280156106b25780601f10610687576101008083540402835291602001916106b2565b820191906000526020600020905b81548152906001019060200180831161069557829003601f168201915b5050505050965060058a8154811015156106c857fe5b906000526020600020906007020160030180548060200260200160405190810160405280929190818152602001828054801561072457602002820191906000526020600020905b8154815260019091019060200180831161070f575b5050505050955060058a81548110151561073a57fe5b906000526020600020906007020160040180548060200260200160405190810160405280929190818152602001828054801561079657602002820191906000526020600020905b81548152600190910190602001808311610781575b5050505050945060058a8154811015156107ac57fe5b6000918252602090912060056007909202018101548154600160a060020a03640100000000830416965063ffffffff90911694508b9081106107ea57fe5b906000526020600020906007020160060160009054906101000a9004806401000000009004600160a060020a03169063ffffffff16915091509193959799909294969850565b60018054604080516020600284861615610100026000190190941693909304601f810184900484028201840190925281815292918301828280156108b55780601f1061088a576101008083540402835291602001916108b5565b820191906000526020600020905b81548152906001019060200180831161089857829003601f168201915b505050505081565b6040805160e0810182528a815260208082018b81529282018a905260608201899052608082018890526801000000000000000064010000000080890263ffffffff808a1691909117830260a0860152908702908616170260c08301526005805460018181018084556000938452855160079093027f036b6384b5eca791c62761152d0c79bb0604c104a5fb6f4eb0703f3154bb3db08101938455965180519497929691959194610994937f036b6384b5eca791c62761152d0c79bb0604c104a5fb6f4eb0703f3154bb3db101929190910190610cfb565b50604082015180516109b0916002840191602090910190610cfb565b50606082015180516109cc916003840191602090910190610d79565b50608082015180516109e8916004840191602090910190610d79565b5060a0820151600582018054640100000000600160a060020a036c010000000000000000000000008086048216830263ffffffff680100000000000000009788900481169190911777ffffffffffffffffffffffffffffffffffffffffffffffff199586161790955560c0909701516006909601805497870490911690910293909404909116919091179216919091179055039a9950505050505050505050565b600054600160a060020a03163214610b0257604080517f08c379a000000000000000000000000000000000000000000000000000000000815260206004820152601260248201527f6f6e6c79206f776e657220616c6c6f7765640000000000000000000000000000604482015290519081900360640190fd5b6000ff5b600054600160a060020a031681565b604080516060810182529586526801000000000000000064010000000095860263ffffffff95861617810260208801908152938602928516929092178202908601908152600480546001810182556000919091529551600387027f8a35acfbc15ff81a39ae7d344fd709f28e8600b4aa8c65c6b64bfe7fe36bd19b81019190915592517f8a35acfbc15ff81a39ae7d344fd709f28e8600b4aa8c65c6b64bfe7fe36bd19c84018054600160a060020a036c0100000000000000000000000080850482168a029487900489169490941777ffffffffffffffffffffffffffffffffffffffffffffffff199283161790925592517f8a35acfbc15ff81a39ae7d344fd709f28e8600b4aa8c65c6b64bfe7fe36bd19d90950180549286049091169096029290930490931617911617905590565b6000806000806000600486815481101515610c5d57fe5b9060005260206000209060030201600001549450600486815481101515610c8057fe5b600091825260209091206001600390920201015460048054600160a060020a03640100000000840416965063ffffffff90921694509087908110610cc057fe5b600091825260209091206002600390920201015494969395509193600160a060020a036401000000008204169363ffffffff90911692509050565b828054600181600116156101000203166002900490600052602060002090601f016020900481019282601f10610d3c57805160ff1916838001178555610d69565b82800160010185558215610d69579182015b82811115610d69578251825591602001919060010190610d4e565b50610d75929150610db6565b5090565b828054828255906000526020600020908101928215610d69579160200282015b82811115610d695782518255602090920191600190910190610d99565b610dd091905b80821115610d755760008155600101610dbc565b905600a165627a7a72305820b1880fd3e60c908a03dd7ce0b84d2801306f59778741b68e83e1dede5a297e540029",
  "source": "pragma solidity 0.4.24;\n\nimport \"../platform/Named.sol\";\nimport \"../platform/Mortal.sol\";\nimport \"./api/APrinterStorage.sol\";\nimport \"../platform/Component.sol\";\nimport \"./libs/PrinterLib.sol\";\n\n\ncontract PrinterStorage is APrinterStorage, Named(\"printer-storage\"), Mortal, Component {\n\n    PrinterLib.ReceiptCreate[] private create;\n    PrinterLib.ReceiptPrint[] private print;\n\n    constructor(address _config) Component(_config) public {}\n\n    // @formatter:off\n    function createReceiptCreate(\n        uint256 _sessionId,\n        function(uint256, string memory, string memory) external _success,\n        function(uint256) external _fail\n    )\n        public\n        returns (\n            uint256 _id\n        )\n    // @formatter:on\n    {\n        _id = create.push(PrinterLib.ReceiptCreate(_sessionId, _success, _fail)) - 1;\n    }\n\n    // @formatter:off\n    function getReceiptCreate(\n        uint256 _id\n    )\n        public\n        view\n        returns (\n            uint256 _sessionId,\n            function(uint256, string memory, string memory) external _success,\n            function(uint256) external _fail\n        )\n    // @formatter:on\n    {\n        _sessionId = create[_id].sessionId;\n        _success = create[_id].success;\n        _fail = create[_id].fail;\n    }\n\n    // @formatter:off\n    function createReceiptPrint(\n        uint256 _sessionId,\n        string _receiptId,\n        string _data,\n        bytes32[] _paramNames,\n        bytes32[] _paramValues,\n        function(uint256) external _success,\n        function(uint256) external _fail\n    )\n        public\n        returns (\n            uint256 _id\n        )\n    // @formatter:on\n    {\n        _id = print.push(PrinterLib.ReceiptPrint(_sessionId, _receiptId, _data, _paramNames, _paramValues, _success, _fail)) - 1;\n    }\n\n    // @formatter:off\n    function getReceiptPrint(\n        uint256 _id\n    )\n        public\n        view\n        returns (\n            uint256 _sessionId,\n            string _receiptId,\n            string _data,\n            bytes32[] _paramNames,\n            bytes32[] _paramValues,\n            function(uint256) external _success,\n            function(uint256) external _fail\n        )\n    // @formatter:on\n    {\n        _sessionId = print[_id].sessionId;\n        _receiptId = print[_id].receiptId;\n        _data = print[_id].data;\n        _paramNames = print[_id].paramNames;\n        _paramValues = print[_id].paramValues;\n        _success = print[_id].success;\n        _fail = print[_id].fail;\n    }\n\n}",
  "sourcePath": "/home/user/IdeaProjects/Main/VaultLogic/POC/vl-api-pos/truffle/contracts/storages/PrinterStorage.sol",
  "compiler": {
    "name": "solc",
    "version": "0.4.24+commit.e67f0147.Emscripten.clang"
  },
  "schemaVersion": "2.0.1",
  "updatedAt": "2018-11-19T14:08:53.851Z"
}