{
  "contractName": "PrinterStorage",
  "abi": [
    {
      "constant": true,
      "inputs": [],
      "name": "name",
      "outputs": [
        {
          "name": "",
          "type": "string"
        }
      ],
      "payable": false,
      "stateMutability": "view",
      "type": "function"
    },
    {
      "constant": false,
      "inputs": [],
      "name": "kill",
      "outputs": [],
      "payable": false,
      "stateMutability": "nonpayable",
      "type": "function"
    },
    {
      "constant": true,
      "inputs": [],
      "name": "owner",
      "outputs": [
        {
          "name": "",
          "type": "address"
        }
      ],
      "payable": false,
      "stateMutability": "view",
      "type": "function"
    },
    {
      "inputs": [
        {
          "name": "_config",
          "type": "address"
        }
      ],
      "payable": false,
      "stateMutability": "nonpayable",
      "type": "constructor"
    },
    {
      "constant": false,
      "inputs": [
        {
          "name": "_sessionId",
          "type": "uint256"
        },
        {
          "name": "_success",
          "type": "function"
        },
        {
          "name": "_fail",
          "type": "function"
        }
      ],
      "name": "createReceiptCreate",
      "outputs": [
        {
          "name": "_id",
          "type": "uint256"
        }
      ],
      "payable": false,
      "stateMutability": "nonpayable",
      "type": "function"
    },
    {
      "constant": true,
      "inputs": [
        {
          "name": "_id",
          "type": "uint256"
        }
      ],
      "name": "getReceiptCreate",
      "outputs": [
        {
          "name": "_sessionId",
          "type": "uint256"
        },
        {
          "name": "_success",
          "type": "function"
        },
        {
          "name": "_fail",
          "type": "function"
        }
      ],
      "payable": false,
      "stateMutability": "view",
      "type": "function"
    },
    {
      "constant": false,
      "inputs": [
        {
          "name": "_sessionId",
          "type": "uint256"
        },
        {
          "name": "_receiptId",
          "type": "string"
        },
        {
          "name": "_data",
          "type": "string"
        },
        {
          "name": "_params",
          "type": "string"
        },
        {
          "name": "_success",
          "type": "function"
        },
        {
          "name": "_fail",
          "type": "function"
        }
      ],
      "name": "createReceiptPrint",
      "outputs": [
        {
          "name": "_id",
          "type": "uint256"
        }
      ],
      "payable": false,
      "stateMutability": "nonpayable",
      "type": "function"
    },
    {
      "constant": true,
      "inputs": [
        {
          "name": "_id",
          "type": "uint256"
        }
      ],
      "name": "getReceiptPrint",
      "outputs": [
        {
          "name": "_sessionId",
          "type": "uint256"
        },
        {
          "name": "_receiptId",
          "type": "string"
        },
        {
          "name": "_data",
          "type": "string"
        },
        {
          "name": "_params",
          "type": "string"
        },
        {
          "name": "_success",
          "type": "function"
        },
        {
          "name": "_fail",
          "type": "function"
        }
      ],
      "payable": false,
      "stateMutability": "view",
      "type": "function"
    }
  ],
  "bytecode": "0x60806040523480156200001157600080fd5b506040516020806200107e8339810160408181529151828201909252600f8082527f7072696e7465722d73746f7261676500000000000000000000000000000000006020830190815260008054600160a060020a031916331790558392916200007d91600191620002b8565b505080600160a060020a031663713b563f6040518163ffffffff167c0100000000000000000000000000000000000000000000000000000000028152600401602060405180830381600087803b158015620000d757600080fd5b505af1158015620000ec573d6000803e3d6000fd5b505050506040513d60208110156200010357600080fd5b505160038054600160a060020a031916600160a060020a03928316179055604080517fd0496d6a00000000000000000000000000000000000000000000000000000000815290519183169163d0496d6a916004808201926020929091908290030181600087803b1580156200017757600080fd5b505af11580156200018c573d6000803e3d6000fd5b505050506040513d6020811015620001a357600080fd5b505160028054600160a060020a031916600160a060020a03928316178082556040517ff2c298be00000000000000000000000000000000000000000000000000000000815260206004820190815260018054610100818316150260001901169490940460248301819052929094169363f2c298be93929091829160449091019084908015620002765780601f106200024a5761010080835404028352916020019162000276565b820191906000526020600020905b8154815290600101906020018083116200025857829003601f168201915b505092505050600060405180830381600087803b1580156200029757600080fd5b505af1158015620002ac573d6000803e3d6000fd5b5050505050506200035d565b828054600181600116156101000203166002900490600052602060002090601f016020900481019282601f10620002fb57805160ff19168380011785556200032b565b828001600101855582156200032b579182015b828111156200032b5782518255916020019190600101906200030e565b50620003399291506200033d565b5090565b6200035a91905b8082111562000339576000815560010162000344565b90565b610d11806200036d6000396000f3006080604052600436106100825763ffffffff7c010000000000000000000000000000000000000000000000000000000060003504166304c4b7cf811461008757806306fdde031461023057806341c0e1b5146102ba5780638da5cb5b146102d15780638e203ae014610302578063c178019d14610360578063ed551c8e146103bc575b600080fd5b34801561009357600080fd5b5061009f6004356104cb565b60405180898152602001806020018060200180602001888863ffffffff1690640100000000021768010000000000000000028152602001868663ffffffff169064010000000002176801000000000000000002815260200184810384528b818151815260200191508051906020019080838360005b8381101561012c578181015183820152602001610114565b50505050905090810190601f1680156101595780820380516001836020036101000a031916815260200191505b5084810383528a5181528a516020918201918c019080838360005b8381101561018c578181015183820152602001610174565b50505050905090810190601f1680156101b95780820380516001836020036101000a031916815260200191505b5084810382528951815289516020918201918b019080838360005b838110156101ec5781810151838201526020016101d4565b50505050905090810190601f1680156102195780820380516001836020036101000a031916815260200191505b509b50505050505050505050505060405180910390f35b34801561023c57600080fd5b506102456107a3565b6040805160208082528351818301528351919283929083019185019080838360005b8381101561027f578181015183820152602001610267565b50505050905090810190601f1680156102ac5780820380516001836020036101000a031916815260200191505b509250505060405180910390f35b3480156102c657600080fd5b506102cf610830565b005b3480156102dd57600080fd5b506102e66108ad565b60408051600160a060020a039092168252519081900360200190f35b34801561030e57600080fd5b5061034e6004356c010000000000000000000000006024358181049163ffffffff68010000000000000000928390048116926044359283049204166108bc565b60408051918252519081900360200190f35b34801561036c57600080fd5b506103786004356109ed565b604080519586526801000000000000000064010000000095860263ffffffff9586161781026020880152929094029216919091170282820152519081900360600190f35b3480156103c857600080fd5b5060408051602060046024803582810135601f810185900485028601850190965285855261034e95833595369560449491939091019190819084018382808284375050604080516020601f89358b018035918201839004830284018301909452808352979a99988101979196509182019450925082915084018382808284375050604080516020601f89358b018035918201839004830284018301909452808352979a999881019791965091820194509250829150840183828082843750949750506c010000000000000000000000008535818104975063ffffffff68010000000000000000918290048116976020013592830496509104169250610aa2915050565b600060608060606000806000806005898154811015156104e757fe5b906000526020600020906006020160000154975060058981548110151561050a57fe5b90600052602060002090600602016001018054600181600116156101000203166002900480601f0160208091040260200160405190810160405280929190818152602001828054600181600116156101000203166002900480156105af5780601f10610584576101008083540402835291602001916105af565b820191906000526020600020905b81548152906001019060200180831161059257829003601f168201915b505050505096506005898154811015156105c557fe5b600091825260209182902060026006909202018101805460408051601f60001961010060018616150201909316949094049182018590048502840185019052808352919290919083018282801561065d5780601f106106325761010080835404028352916020019161065d565b820191906000526020600020905b81548152906001019060200180831161064057829003601f168201915b5050505050955060058981548110151561067357fe5b6000918252602091829020600360069092020101805460408051601f60026000196101006001871615020190941693909304928301859004850281018501909152818152928301828280156107095780601f106106de57610100808354040283529160200191610709565b820191906000526020600020905b8154815290600101906020018083116106ec57829003601f168201915b5050505050945060058981548110151561071f57fe5b600091825260209091206004600690920201015460058054600160a060020a03640100000000840416965063ffffffff9092169450908a90811061075f57fe5b906000526020600020906006020160050160009054906101000a9004806401000000009004600160a060020a03169063ffffffff1691509150919395975091939597565b60018054604080516020600284861615610100026000190190941693909304601f810184900484028201840190925281815292918301828280156108285780601f106107fd57610100808354040283529160200191610828565b820191906000526020600020905b81548152906001019060200180831161080b57829003601f168201915b505050505081565b600054600160a060020a031632146108a957604080517f08c379a000000000000000000000000000000000000000000000000000000000815260206004820152601260248201527f6f6e6c79206f776e657220616c6c6f7765640000000000000000000000000000604482015290519081900360640190fd5b6000ff5b600054600160a060020a031681565b604080516060810182529586526801000000000000000064010000000095860263ffffffff95861617810260208801908152938602928516929092178202908601908152600480546001810182556000919091529551600387027f8a35acfbc15ff81a39ae7d344fd709f28e8600b4aa8c65c6b64bfe7fe36bd19b81019190915592517f8a35acfbc15ff81a39ae7d344fd709f28e8600b4aa8c65c6b64bfe7fe36bd19c84018054600160a060020a036c0100000000000000000000000080850482168a029487900489169490941777ffffffffffffffffffffffffffffffffffffffffffffffff199283161790925592517f8a35acfbc15ff81a39ae7d344fd709f28e8600b4aa8c65c6b64bfe7fe36bd19d90950180549286049091169096029290930490931617911617905590565b6000806000806000600486815481101515610a0457fe5b9060005260206000209060030201600001549450600486815481101515610a2757fe5b600091825260209091206001600390920201015460048054600160a060020a03640100000000840416965063ffffffff90921694509087908110610a6757fe5b600091825260209091206002600390920201015494969395509193600160a060020a036401000000008204169363ffffffff90911692509050565b6040805160c08101825289815260208082018a8152928201899052606082018890526801000000000000000064010000000080890263ffffffff808a169190911783026080860152908702908616170260a08301526005805460018181018084556000938452855160069093027f036b6384b5eca791c62761152d0c79bb0604c104a5fb6f4eb0703f3154bb3db08101938455965180519497929691959194610b72937f036b6384b5eca791c62761152d0c79bb0604c104a5fb6f4eb0703f3154bb3db101929190910190610c4a565b5060408201518051610b8e916002840191602090910190610c4a565b5060608201518051610baa916003840191602090910190610c4a565b506080820151600482018054640100000000600160a060020a036c010000000000000000000000008086048216830263ffffffff680100000000000000009788900481169190911777ffffffffffffffffffffffffffffffffffffffffffffffff199586161790955560a0909701516005909601805497870490911690910293909404909116919091179216919091179055039998505050505050505050565b828054600181600116156101000203166002900490600052602060002090601f016020900481019282601f10610c8b57805160ff1916838001178555610cb8565b82800160010185558215610cb8579182015b82811115610cb8578251825591602001919060010190610c9d565b50610cc4929150610cc8565b5090565b610ce291905b80821115610cc45760008155600101610cce565b905600a165627a7a7230582080153af6a8659baee325aec699cdd080fc82455259a8f11f76553a941000816d0029",
  "source": "pragma solidity 0.4.24;\n\nimport \"../platform/Named.sol\";\nimport \"../platform/Mortal.sol\";\nimport \"./api/APrinterStorage.sol\";\nimport \"../platform/Component.sol\";\nimport \"./libs/PrinterLib.sol\";\n\n\ncontract PrinterStorage is APrinterStorage, Named(\"printer-storage\"), Mortal, Component {\n\n    PrinterLib.ReceiptCreate[] private create;\n    PrinterLib.ReceiptPrint[] private print;\n\n    constructor(address _config) Component(_config) public {}\n\n    // @formatter:off\n    function createReceiptCreate(\n        uint256 _sessionId,\n        function(uint256, string memory, string memory) external _success,\n        function(uint256) external _fail\n    )\n        public\n        returns (\n            uint256 _id\n        )\n    // @formatter:on\n    {\n        _id = create.push(PrinterLib.ReceiptCreate(_sessionId, _success, _fail)) - 1;\n    }\n\n    // @formatter:off\n    function getReceiptCreate(\n        uint256 _id\n    )\n        public\n        view\n        returns (\n            uint256 _sessionId,\n            function(uint256, string memory, string memory) external _success,\n            function(uint256) external _fail\n        )\n    // @formatter:on\n    {\n        _sessionId = create[_id].sessionId;\n        _success = create[_id].success;\n        _fail = create[_id].fail;\n    }\n\n    // @formatter:off\n    function createReceiptPrint(\n        uint256 _sessionId,\n        string _receiptId,\n        string _data,\n        string _params,\n        function(uint256) external _success,\n        function(uint256) external _fail\n    )\n        public\n        returns (\n            uint256 _id\n        )\n    // @formatter:on\n    {\n        _id = print.push(PrinterLib.ReceiptPrint(_sessionId, _receiptId, _data, _params, _success, _fail)) - 1;\n    }\n\n    // @formatter:off\n    function getReceiptPrint(\n        uint256 _id\n    )\n        public\n        view\n        returns (\n            uint256 _sessionId,\n            string _receiptId,\n            string _data,\n            string _params,\n            function(uint256) external _success,\n            function(uint256) external _fail\n        )\n    // @formatter:on\n    {\n        _sessionId = print[_id].sessionId;\n        _receiptId = print[_id].receiptId;\n        _data = print[_id].data;\n        _params = print[_id].params;\n        _success = print[_id].success;\n        _fail = print[_id].fail;\n    }\n\n}",
  "sourcePath": "/home/andrew/vault-logic-project/Development/test/vault-logic-api/truffle/contracts/storages/PrinterStorage.sol",
  "compiler": {
    "name": "solc",
    "version": "0.4.24+commit.e67f0147.Emscripten.clang"
  },
  "schemaVersion": "2.0.1",
  "updatedAt": "2018-11-07T14:43:55.650Z"
}