{
  "contractName": "PrinterManager",
  "abi": [
    {
      "constant": true,
      "inputs": [],
      "name": "name",
      "outputs": [
        {
          "name": "",
          "type": "string"
        }
      ],
      "payable": false,
      "stateMutability": "view",
      "type": "function"
    },
    {
      "constant": false,
      "inputs": [],
      "name": "kill",
      "outputs": [],
      "payable": false,
      "stateMutability": "nonpayable",
      "type": "function"
    },
    {
      "constant": true,
      "inputs": [],
      "name": "owner",
      "outputs": [
        {
          "name": "",
          "type": "address"
        }
      ],
      "payable": false,
      "stateMutability": "view",
      "type": "function"
    },
    {
      "inputs": [
        {
          "name": "_config",
          "type": "address"
        }
      ],
      "payable": false,
      "stateMutability": "nonpayable",
      "type": "constructor"
    },
    {
      "constant": false,
      "inputs": [
        {
          "name": "_application",
          "type": "address"
        },
        {
          "name": "_sessionId",
          "type": "uint256"
        },
        {
          "name": "_success",
          "type": "function"
        },
        {
          "name": "_fail",
          "type": "function"
        }
      ],
      "name": "createReceipt",
      "outputs": [
        {
          "name": "_accepted",
          "type": "bool"
        }
      ],
      "payable": false,
      "stateMutability": "nonpayable",
      "type": "function"
    },
    {
      "constant": false,
      "inputs": [
        {
          "name": "_commandId",
          "type": "uint256"
        },
        {
          "name": "_receiptId",
          "type": "string"
        },
        {
          "name": "_url",
          "type": "string"
        }
      ],
      "name": "confirmCreate",
      "outputs": [],
      "payable": false,
      "stateMutability": "nonpayable",
      "type": "function"
    },
    {
      "constant": false,
      "inputs": [
        {
          "name": "_commandId",
          "type": "uint256"
        }
      ],
      "name": "confirmFailCreate",
      "outputs": [],
      "payable": false,
      "stateMutability": "nonpayable",
      "type": "function"
    },
    {
      "constant": false,
      "inputs": [
        {
          "name": "_application",
          "type": "address"
        },
        {
          "name": "_sessionId",
          "type": "uint256"
        },
        {
          "name": "_receiptId",
          "type": "string"
        },
        {
          "name": "_data",
          "type": "string"
        },
        {
          "name": "_params",
          "type": "string"
        },
        {
          "name": "_success",
          "type": "function"
        },
        {
          "name": "_fail",
          "type": "function"
        }
      ],
      "name": "printReceipt",
      "outputs": [
        {
          "name": "_accepted",
          "type": "bool"
        }
      ],
      "payable": false,
      "stateMutability": "nonpayable",
      "type": "function"
    },
    {
      "constant": false,
      "inputs": [
        {
          "name": "_commandId",
          "type": "uint256"
        }
      ],
      "name": "confirmPrint",
      "outputs": [],
      "payable": false,
      "stateMutability": "nonpayable",
      "type": "function"
    },
    {
      "constant": false,
      "inputs": [
        {
          "name": "_commandId",
          "type": "uint256"
        }
      ],
      "name": "confirmFailPrint",
      "outputs": [],
      "payable": false,
      "stateMutability": "nonpayable",
      "type": "function"
    }
  ],
  "bytecode": "0x60806040523480156200001157600080fd5b506040516020806200611e833981018060405281019080805190602001909291905050508060006040805190810160405280600e81526020017f63616d6572612d6d616e61676572000000000000000000000000000000000000815250336000806101000a81548173ffffffffffffffffffffffffffffffffffffffff021916908373ffffffffffffffffffffffffffffffffffffffff1602179055508060019080519060200190620000c6929190620005bf565b50508173ffffffffffffffffffffffffffffffffffffffff1663713b563f6040518163ffffffff167c0100000000000000000000000000000000000000000000000000000000028152600401602060405180830381600087803b1580156200012d57600080fd5b505af115801562000142573d6000803e3d6000fd5b505050506040513d60208110156200015957600080fd5b8101908080519060200190929190505050600360006101000a81548173ffffffffffffffffffffffffffffffffffffffff021916908373ffffffffffffffffffffffffffffffffffffffff1602179055508173ffffffffffffffffffffffffffffffffffffffff1663d0496d6a6040518163ffffffff167c0100000000000000000000000000000000000000000000000000000000028152600401602060405180830381600087803b1580156200020f57600080fd5b505af115801562000224573d6000803e3d6000fd5b505050506040513d60208110156200023b57600080fd5b8101908080519060200190929190505050600260006101000a81548173ffffffffffffffffffffffffffffffffffffffff021916908373ffffffffffffffffffffffffffffffffffffffff160217905550600260009054906101000a900473ffffffffffffffffffffffffffffffffffffffff1673ffffffffffffffffffffffffffffffffffffffff1663693ec85e60016040518263ffffffff167c01000000000000000000000000000000000000000000000000000000000281526004018080602001828103825283818154600181600116156101000203166002900481526020019150805460018160011615610100020316600290048015620003845780601f10620003585761010080835404028352916020019162000384565b820191906000526020600020905b8154815290600101906020018083116200036657829003601f168201915b505092505050602060405180830381600087803b158015620003a557600080fd5b505af1158015620003ba573d6000803e3d6000fd5b505050506040513d6020811015620003d157600080fd5b8101908080519060200190929190505050905060008173ffffffffffffffffffffffffffffffffffffffff1614151562000484578073ffffffffffffffffffffffffffffffffffffffff166341c0e1b56040518163ffffffff167c0100000000000000000000000000000000000000000000000000000000028152600401600060405180830381600087803b1580156200046a57600080fd5b505af11580156200047f573d6000803e3d6000fd5b505050505b600260009054906101000a900473ffffffffffffffffffffffffffffffffffffffff1673ffffffffffffffffffffffffffffffffffffffff1663f2c298be60016040518263ffffffff167c010000000000000000000000000000000000000000000000000000000002815260040180806020018281038252838181546001816001161561010002031660029004815260200191508054600181600116156101000203166002900480156200057c5780601f1062000550576101008083540402835291602001916200057c565b820191906000526020600020905b8154815290600101906020018083116200055e57829003601f168201915b505092505050600060405180830381600087803b1580156200059d57600080fd5b505af1158015620005b2573d6000803e3d6000fd5b505050505050506200066e565b828054600181600116156101000203166002900490600052602060002090601f016020900481019282601f106200060257805160ff191683800117855562000633565b8280016001018555821562000633579182015b828111156200063257825182559160200191906001019062000615565b5b50905062000642919062000646565b5090565b6200066b91905b80821115620006675760008160009055506001016200064d565b5090565b90565b615aa0806200067e6000396000f300608060405260043610610099576000357c0100000000000000000000000000000000000000000000000000000000900463ffffffff16806306fdde031461009e57806307fac4961461012e57806331e2ab8a146101e757806341c0e1b51461021457806352e215ef1461022b578063618752251461025857806376eefe271461042d5780638da5cb5b1461045a578063bbc979a2146104b1575b600080fd5b3480156100aa57600080fd5b506100b36105b4565b6040518080602001828103825283818151815260200191508051906020019080838360005b838110156100f35780820151818401526020810190506100d8565b50505050905090810190601f1680156101205780820380516001836020036101000a031916815260200191505b509250505060405180910390f35b34801561013a57600080fd5b506101e560048036038101908080359060200190929190803590602001908201803590602001908080601f0160208091040260200160405190810160405280939291908181526020018383808284378201915050505050509192919290803590602001908201803590602001908080601f0160208091040260200160405190810160405280939291908181526020018383808284378201915050505050509192919290505050610652565b005b3480156101f357600080fd5b50610212600480360381019080803590602001909291905050506109c3565b005b34801561022057600080fd5b50610229610c58565b005b34801561023757600080fd5b5061025660048036038101908080359060200190929190505050610d20565b005b34801561026457600080fd5b50610413600480360381019080803573ffffffffffffffffffffffffffffffffffffffff16906020019092919080359060200190929190803590602001908201803590602001908080601f0160208091040260200160405190810160405280939291908181526020018383808284378201915050505050509192919290803590602001908201803590602001908080601f0160208091040260200160405190810160405280939291908181526020018383808284378201915050505050509192919290803590602001908201803590602001908080601f01602080910402602001604051908101604052809392919081815260200183838082843782019150505050505091929192908035806c0100000000000000000000000090049068010000000000000000900463ffffffff1677ffffffffffffffffffffffffffffffffffffffffffffffff169091602001919093929190939291908035806c0100000000000000000000000090049068010000000000000000900463ffffffff1677ffffffffffffffffffffffffffffffffffffffffffffffff16909160200191909392919093929190505050610fb5565b604051808215151515815260200191505060405180910390f35b34801561043957600080fd5b5061045860048036038101908080359060200190929190505050611480565b005b34801561046657600080fd5b5061046f611715565b604051808273ffffffffffffffffffffffffffffffffffffffff1673ffffffffffffffffffffffffffffffffffffffff16815260200191505060405180910390f35b3480156104bd57600080fd5b5061059a600480360381019080803573ffffffffffffffffffffffffffffffffffffffff169060200190929190803590602001909291908035806c0100000000000000000000000090049068010000000000000000900463ffffffff1677ffffffffffffffffffffffffffffffffffffffffffffffff169091602001919093929190939291908035806c0100000000000000000000000090049068010000000000000000900463ffffffff1677ffffffffffffffffffffffffffffffffffffffffffffffff1690916020019190939291909392919050505061173a565b604051808215151515815260200191505060405180910390f35b60018054600181600116156101000203166002900480601f01602080910402602001604051908101604052809291908181526020018280546001816001161561010002031660029004801561064a5780601f1061061f5761010080835404028352916020019161064a565b820191906000526020600020905b81548152906001019060200180831161062d57829003601f168201915b505050505081565b61065a6159a1565b6106a584600360009054906101000a900473ffffffffffffffffffffffffffffffffffffffff1673ffffffffffffffffffffffffffffffffffffffff16611bf090919063ffffffff16565b9050600260009054906101000a900473ffffffffffffffffffffffffffffffffffffffff1673ffffffffffffffffffffffffffffffffffffffff1663693ec85e6040805190810160405280601281526020017f7072696e7465722d636f6e74726f6c6c657200000000000000000000000000008152506040518263ffffffff167c01000000000000000000000000000000000000000000000000000000000281526004018080602001828103825283818151815260200191508051906020019080838360005b8381101561078657808201518184015260208101905061076b565b50505050905090810190601f1680156107b35780820380516001836020036101000a031916815260200191505b5092505050602060405180830381600087803b1580156107d257600080fd5b505af11580156107e6573d6000803e3d6000fd5b505050506040513d60208110156107fc57600080fd5b810190808051906020019092919050505073ffffffffffffffffffffffffffffffffffffffff166334db0776826020015185858560400151806c0100000000000000000000000090049068010000000000000000900463ffffffff166040518663ffffffff167c0100000000000000000000000000000000000000000000000000000000028152600401808681526020018060200180602001858563ffffffff1690640100000000021768010000000000000000028152602001838103835287818151815260200191508051906020019080838360005b838110156108ee5780820151818401526020810190506108d3565b50505050905090810190601f16801561091b5780820380516001836020036101000a031916815260200191505b50838103825286818151815260200191508051906020019080838360005b83811015610954578082015181840152602081019050610939565b50505050905090810190601f1680156109815780820380516001836020036101000a031916815260200191505b50975050505050505050600060405180830381600087803b1580156109a557600080fd5b505af11580156109b9573d6000803e3d6000fd5b5050505050505050565b6109cb615a00565b610a1682600360009054906101000a900473ffffffffffffffffffffffffffffffffffffffff1673ffffffffffffffffffffffffffffffffffffffff1661228590919063ffffffff16565b9050600260009054906101000a900473ffffffffffffffffffffffffffffffffffffffff1673ffffffffffffffffffffffffffffffffffffffff1663693ec85e6040805190810160405280601281526020017f7072696e7465722d636f6e74726f6c6c657200000000000000000000000000008152506040518263ffffffff167c01000000000000000000000000000000000000000000000000000000000281526004018080602001828103825283818151815260200191508051906020019080838360005b83811015610af7578082015181840152602081019050610adc565b50505050905090810190601f168015610b245780820380516001836020036101000a031916815260200191505b5092505050602060405180830381600087803b158015610b4357600080fd5b505af1158015610b57573d6000803e3d6000fd5b505050506040513d6020811015610b6d57600080fd5b810190808051906020019092919050505073ffffffffffffffffffffffffffffffffffffffff166351fedc4082602001518360c00151806c0100000000000000000000000090049068010000000000000000900463ffffffff166040518463ffffffff167c010000000000000000000000000000000000000000000000000000000002815260040180848152602001838363ffffffff16906401000000000217680100000000000000000281526020019350505050600060405180830381600087803b158015610c3c57600080fd5b505af1158015610c50573d6000803e3d6000fd5b505050505050565b6000809054906101000a900473ffffffffffffffffffffffffffffffffffffffff1673ffffffffffffffffffffffffffffffffffffffff163273ffffffffffffffffffffffffffffffffffffffff16141515610d1c576040517f08c379a00000000000000000000000000000000000000000000000000000000081526004018080602001828103825260128152602001807f6f6e6c79206f776e657220616c6c6f776564000000000000000000000000000081525060200191505060405180910390fd5b6000ff5b610d28615a00565b610d7382600360009054906101000a900473ffffffffffffffffffffffffffffffffffffffff1673ffffffffffffffffffffffffffffffffffffffff1661228590919063ffffffff16565b9050600260009054906101000a900473ffffffffffffffffffffffffffffffffffffffff1673ffffffffffffffffffffffffffffffffffffffff1663693ec85e6040805190810160405280601281526020017f7072696e7465722d636f6e74726f6c6c657200000000000000000000000000008152506040518263ffffffff167c01000000000000000000000000000000000000000000000000000000000281526004018080602001828103825283818151815260200191508051906020019080838360005b83811015610e54578082015181840152602081019050610e39565b50505050905090810190601f168015610e815780820380516001836020036101000a031916815260200191505b5092505050602060405180830381600087803b158015610ea057600080fd5b505af1158015610eb4573d6000803e3d6000fd5b505050506040513d6020811015610eca57600080fd5b810190808051906020019092919050505073ffffffffffffffffffffffffffffffffffffffff1663682e916d82602001518360a00151806c0100000000000000000000000090049068010000000000000000900463ffffffff166040518463ffffffff167c010000000000000000000000000000000000000000000000000000000002815260040180848152602001838363ffffffff16906401000000000217680100000000000000000281526020019350505050600060405180830381600087803b158015610f9957600080fd5b505af1158015610fad573d6000803e3d6000fd5b505050505050565b60008060006110058b600360009054906101000a900473ffffffffffffffffffffffffffffffffffffffff1673ffffffffffffffffffffffffffffffffffffffff16612f3b90919063ffffffff16565b91508b73ffffffffffffffffffffffffffffffffffffffff168273ffffffffffffffffffffffffffffffffffffffff161415156110aa576040517f08c379a00000000000000000000000000000000000000000000000000000000081526004018080602001828103825260168152602001807f696c6c6567616c2073657373696f6e206163636573730000000000000000000081525060200191505060405180910390fd5b6110f58b600360009054906101000a900473ffffffffffffffffffffffffffffffffffffffff1673ffffffffffffffffffffffffffffffffffffffff16612ff590919063ffffffff16565b1515611169576040517f08c379a00000000000000000000000000000000000000000000000000000000081526004018080602001828103825260158152602001807f73657373696f6e206973206e6f7420616374697665000000000000000000000081525060200191505060405180910390fd5b6111aa600360009054906101000a900473ffffffffffffffffffffffffffffffffffffffff1673ffffffffffffffffffffffffffffffffffffffff166131e5565b905061126060e0604051908101604052808381526020018d81526020018c81526020018b81526020018a8152602001898963ffffffff1690640100000000021768010000000000000000028152602001878763ffffffff169064010000000002176801000000000000000002815250600360009054906101000a900473ffffffffffffffffffffffffffffffffffffffff1673ffffffffffffffffffffffffffffffffffffffff1661335290919063ffffffff16565b600260009054906101000a900473ffffffffffffffffffffffffffffffffffffffff1673ffffffffffffffffffffffffffffffffffffffff1663693ec85e6040805190810160405280600e81526020017f7072696e7465722d6f7261636c650000000000000000000000000000000000008152506040518263ffffffff167c01000000000000000000000000000000000000000000000000000000000281526004018080602001828103825283818151815260200191508051906020019080838360005b8381101561133f578082015181840152602081019050611324565b50505050905090810190601f16801561136c5780820380516001836020036101000a031916815260200191505b5092505050602060405180830381600087803b15801561138b57600080fd5b505af115801561139f573d6000803e3d6000fd5b505050506040513d60208110156113b557600080fd5b810190808051906020019092919050505073ffffffffffffffffffffffffffffffffffffffff16638d79e81c826040518263ffffffff167c010000000000000000000000000000000000000000000000000000000002815260040180828152602001915050602060405180830381600087803b15801561143457600080fd5b505af1158015611448573d6000803e3d6000fd5b505050506040513d602081101561145e57600080fd5b8101908080519060200190929190505050925050509998505050505050505050565b6114886159a1565b6114d382600360009054906101000a900473ffffffffffffffffffffffffffffffffffffffff1673ffffffffffffffffffffffffffffffffffffffff16611bf090919063ffffffff16565b9050600260009054906101000a900473ffffffffffffffffffffffffffffffffffffffff1673ffffffffffffffffffffffffffffffffffffffff1663693ec85e6040805190810160405280601281526020017f7072696e7465722d636f6e74726f6c6c657200000000000000000000000000008152506040518263ffffffff167c01000000000000000000000000000000000000000000000000000000000281526004018080602001828103825283818151815260200191508051906020019080838360005b838110156115b4578082015181840152602081019050611599565b50505050905090810190601f1680156115e15780820380516001836020036101000a031916815260200191505b5092505050602060405180830381600087803b15801561160057600080fd5b505af1158015611614573d6000803e3d6000fd5b505050506040513d602081101561162a57600080fd5b810190808051906020019092919050505073ffffffffffffffffffffffffffffffffffffffff1663f65444e182602001518360600151806c0100000000000000000000000090049068010000000000000000900463ffffffff166040518463ffffffff167c010000000000000000000000000000000000000000000000000000000002815260040180848152602001838363ffffffff16906401000000000217680100000000000000000281526020019350505050600060405180830381600087803b1580156116f957600080fd5b505af115801561170d573d6000803e3d6000fd5b505050505050565b6000809054906101000a900473ffffffffffffffffffffffffffffffffffffffff1681565b600080600061178a88600360009054906101000a900473ffffffffffffffffffffffffffffffffffffffff1673ffffffffffffffffffffffffffffffffffffffff16612f3b90919063ffffffff16565b91508873ffffffffffffffffffffffffffffffffffffffff168273ffffffffffffffffffffffffffffffffffffffff1614151561182f576040517f08c379a00000000000000000000000000000000000000000000000000000000081526004018080602001828103825260168152602001807f696c6c6567616c2073657373696f6e206163636573730000000000000000000081525060200191505060405180910390fd5b61187a88600360009054906101000a900473ffffffffffffffffffffffffffffffffffffffff1673ffffffffffffffffffffffffffffffffffffffff16612ff590919063ffffffff16565b15156118ee576040517f08c379a00000000000000000000000000000000000000000000000000000000081526004018080602001828103825260158152602001807f73657373696f6e206973206e6f7420616374697665000000000000000000000081525060200191505060405180910390fd5b61192f600360009054906101000a900473ffffffffffffffffffffffffffffffffffffffff1673ffffffffffffffffffffffffffffffffffffffff16614328565b90506119d36080604051908101604052808381526020018a8152602001898963ffffffff1690640100000000021768010000000000000000028152602001878763ffffffff169064010000000002176801000000000000000002815250600360009054906101000a900473ffffffffffffffffffffffffffffffffffffffff1673ffffffffffffffffffffffffffffffffffffffff1661449590919063ffffffff16565b600260009054906101000a900473ffffffffffffffffffffffffffffffffffffffff1673ffffffffffffffffffffffffffffffffffffffff1663693ec85e6040805190810160405280600e81526020017f7072696e7465722d6f7261636c650000000000000000000000000000000000008152506040518263ffffffff167c01000000000000000000000000000000000000000000000000000000000281526004018080602001828103825283818151815260200191508051906020019080838360005b83811015611ab2578082015181840152602081019050611a97565b50505050905090810190601f168015611adf5780820380516001836020036101000a031916815260200191505b5092505050602060405180830381600087803b158015611afe57600080fd5b505af1158015611b12573d6000803e3d6000fd5b505050506040513d6020811015611b2857600080fd5b810190808051906020019092919050505073ffffffffffffffffffffffffffffffffffffffff1663a30140a6826040518263ffffffff167c010000000000000000000000000000000000000000000000000000000002815260040180828152602001915050602060405180830381600087803b158015611ba757600080fd5b505af1158015611bbb573d6000803e3d6000fd5b505050506040513d6020811015611bd157600080fd5b8101908080519060200190929190505050925050509695505050505050565b611bf86159a1565b611c028383614e65565b1515611c76576040517f08c379a000000000000000000000000000000000000000000000000000000000815260040180806020018281038252601c8152602001807f7265636569707420637265617465206973206e6f74206578697374730000000081525060200191505060405180910390fd5b6080604051908101604052808381526020018473ffffffffffffffffffffffffffffffffffffffff1663e82617fb606060405190810160405280602181526020017f726563656970742d6372656174652e73657373696f6e2e69643a75696e74323581526020017f3600000000000000000000000000000000000000000000000000000000000000815250866040516020018083805190602001908083835b602083101515611d3a5780518252602082019150602081019050602083039250611d15565b6001836020036101000a038019825116818451168082178552505050505050905001828152602001925050506040516020818303038152906040526040518082805190602001908083835b602083101515611daa5780518252602082019150602081019050602083039250611d85565b6001836020036101000a03801982511681845116808217855250505050505090500191505060405180910390206040518263ffffffff167c0100000000000000000000000000000000000000000000000000000000028152600401808260001916600019168152602001915050602060405180830381600087803b158015611e3157600080fd5b505af1158015611e45573d6000803e3d6000fd5b505050506040513d6020811015611e5b57600080fd5b810190808051906020019092919050505081526020018473ffffffffffffffffffffffffffffffffffffffff1663d8b85d456040805190810160405280601f81526020017f726563656970742d6372656174652e737563636573733a66756e6374696f6e00815250866040516020018083805190602001908083835b602083101515611efc5780518252602082019150602081019050602083039250611ed7565b6001836020036101000a038019825116818451168082178552505050505050905001828152602001925050506040516020818303038152906040526040518082805190602001908083835b602083101515611f6c5780518252602082019150602081019050602083039250611f47565b6001836020036101000a03801982511681845116808217855250505050505090500191505060405180910390206040518263ffffffff167c0100000000000000000000000000000000000000000000000000000000028152600401808260001916600019168152602001915050602060405180830381600087803b158015611ff357600080fd5b505af1158015612007573d6000803e3d6000fd5b505050506040513d602081101561201d57600080fd5b810190808051806c0100000000000000000000000090049068010000000000000000900463ffffffff1690916020019190939291909392919050505063ffffffff16906401000000000217680100000000000000000281526020018473ffffffffffffffffffffffffffffffffffffffff1663f8b98ab16040805190810160405280601c81526020017f726563656970742d6372656174652e6661696c3a66756e6374696f6e00000000815250866040516020018083805190602001908083835b60208310151561210357805182526020820191506020810190506020830392506120de565b6001836020036101000a038019825116818451168082178552505050505050905001828152602001925050506040516020818303038152906040526040518082805190602001908083835b602083101515612173578051825260208201915060208101905060208303925061214e565b6001836020036101000a03801982511681845116808217855250505050505090500191505060405180910390206040518263ffffffff167c0100000000000000000000000000000000000000000000000000000000028152600401808260001916600019168152602001915050602060405180830381600087803b1580156121fa57600080fd5b505af115801561220e573d6000803e3d6000fd5b505050506040513d602081101561222457600080fd5b810190808051806c0100000000000000000000000090049068010000000000000000900463ffffffff1690916020019190939291909392919050505063ffffffff169064010000000002176801000000000000000002815250905092915050565b61228d615a00565b612297838361502c565b151561230b576040517f08c379a000000000000000000000000000000000000000000000000000000000815260040180806020018281038252601b8152602001807f72656365697074207072696e74206973206e6f7420657869737473000000000081525060200191505060405180910390fd5b60e0604051908101604052808381526020018473ffffffffffffffffffffffffffffffffffffffff1663e82617fb6040805190810160405280602081526020017f726563656970742d7072696e742e73657373696f6e2e69643a75696e74323536815250866040516020018083805190602001908083835b6020831015156123a85780518252602082019150602081019050602083039250612383565b6001836020036101000a038019825116818451168082178552505050505050905001828152602001925050506040516020818303038152906040526040518082805190602001908083835b60208310151561241857805182526020820191506020810190506020830392506123f3565b6001836020036101000a03801982511681845116808217855250505050505090500191505060405180910390206040518263ffffffff167c0100000000000000000000000000000000000000000000000000000000028152600401808260001916600019168152602001915050602060405180830381600087803b15801561249f57600080fd5b505af11580156124b3573d6000803e3d6000fd5b505050506040513d60208110156124c957600080fd5b810190808051906020019092919050505081526020018473ffffffffffffffffffffffffffffffffffffffff1663a209a29c6040805190810160405280601f81526020017f726563656970742d7072696e742e726563656970745f69643a737472696e6700815250866040516020018083805190602001908083835b60208310151561256a5780518252602082019150602081019050602083039250612545565b6001836020036101000a038019825116818451168082178552505050505050905001828152602001925050506040516020818303038152906040526040518082805190602001908083835b6020831015156125da57805182526020820191506020810190506020830392506125b5565b6001836020036101000a03801982511681845116808217855250505050505090500191505060405180910390206040518263ffffffff167c0100000000000000000000000000000000000000000000000000000000028152600401808260001916600019168152602001915050600060405180830381600087803b15801561266157600080fd5b505af1158015612675573d6000803e3d6000fd5b505050506040513d6000823e3d601f19601f82011682018060405250602081101561269f57600080fd5b8101908080516401000000008111156126b757600080fd5b828101905060208101848111156126cd57600080fd5b81518560018202830111640100000000821117156126ea57600080fd5b505092919050505081526020018473ffffffffffffffffffffffffffffffffffffffff1663a209a29c6040805190810160405280601981526020017f726563656970742d7072696e742e646174613a737472696e6700000000000000815250866040516020018083805190602001908083835b602083101515612782578051825260208201915060208101905060208303925061275d565b6001836020036101000a038019825116818451168082178552505050505050905001828152602001925050506040516020818303038152906040526040518082805190602001908083835b6020831015156127f257805182526020820191506020810190506020830392506127cd565b6001836020036101000a03801982511681845116808217855250505050505090500191505060405180910390206040518263ffffffff167c0100000000000000000000000000000000000000000000000000000000028152600401808260001916600019168152602001915050600060405180830381600087803b15801561287957600080fd5b505af115801561288d573d6000803e3d6000fd5b505050506040513d6000823e3d601f19601f8201168201806040525060208110156128b757600080fd5b8101908080516401000000008111156128cf57600080fd5b828101905060208101848111156128e557600080fd5b815185600182028301116401000000008211171561290257600080fd5b505092919050505081526020018473ffffffffffffffffffffffffffffffffffffffff1663a209a29c6040805190810160405280601b81526020017f726563656970742d7072696e742e706172616d733a737472696e670000000000815250866040516020018083805190602001908083835b60208310151561299a5780518252602082019150602081019050602083039250612975565b6001836020036101000a038019825116818451168082178552505050505050905001828152602001925050506040516020818303038152906040526040518082805190602001908083835b602083101515612a0a57805182526020820191506020810190506020830392506129e5565b6001836020036101000a03801982511681845116808217855250505050505090500191505060405180910390206040518263ffffffff167c0100000000000000000000000000000000000000000000000000000000028152600401808260001916600019168152602001915050600060405180830381600087803b158015612a9157600080fd5b505af1158015612aa5573d6000803e3d6000fd5b505050506040513d6000823e3d601f19601f820116820180604052506020811015612acf57600080fd5b810190808051640100000000811115612ae757600080fd5b82810190506020810184811115612afd57600080fd5b8151856001820283011164010000000082111715612b1a57600080fd5b505092919050505081526020018473ffffffffffffffffffffffffffffffffffffffff1663f8b98ab16040805190810160405280601e81526020017f726563656970742d7072696e742e737563636573733a66756e6374696f6e0000815250866040516020018083805190602001908083835b602083101515612bb25780518252602082019150602081019050602083039250612b8d565b6001836020036101000a038019825116818451168082178552505050505050905001828152602001925050506040516020818303038152906040526040518082805190602001908083835b602083101515612c225780518252602082019150602081019050602083039250612bfd565b6001836020036101000a03801982511681845116808217855250505050505090500191505060405180910390206040518263ffffffff167c0100000000000000000000000000000000000000000000000000000000028152600401808260001916600019168152602001915050602060405180830381600087803b158015612ca957600080fd5b505af1158015612cbd573d6000803e3d6000fd5b505050506040513d6020811015612cd357600080fd5b810190808051806c0100000000000000000000000090049068010000000000000000900463ffffffff1690916020019190939291909392919050505063ffffffff16906401000000000217680100000000000000000281526020018473ffffffffffffffffffffffffffffffffffffffff1663f8b98ab16040805190810160405280601b81526020017f726563656970742d7072696e742e6661696c3a66756e6374696f6e0000000000815250866040516020018083805190602001908083835b602083101515612db95780518252602082019150602081019050602083039250612d94565b6001836020036101000a038019825116818451168082178552505050505050905001828152602001925050506040516020818303038152906040526040518082805190602001908083835b602083101515612e295780518252602082019150602081019050602083039250612e04565b6001836020036101000a03801982511681845116808217855250505050505090500191505060405180910390206040518263ffffffff167c0100000000000000000000000000000000000000000000000000000000028152600401808260001916600019168152602001915050602060405180830381600087803b158015612eb057600080fd5b505af1158015612ec4573d6000803e3d6000fd5b505050506040513d6020811015612eda57600080fd5b810190808051806c0100000000000000000000000090049068010000000000000000900463ffffffff1690916020019190939291909392919050505063ffffffff169064010000000002176801000000000000000002815250905092915050565b6000612f4783836151f3565b1515612fbb576040517f08c379a00000000000000000000000000000000000000000000000000000000081526004018080602001828103825260158152602001807f53657373696f6e206973206e6f7420657869737473000000000000000000000081525060200191505060405180910390fd5b612fed612fc884846153ba565b8473ffffffffffffffffffffffffffffffffffffffff1661558190919063ffffffff16565b905092915050565b6000808373ffffffffffffffffffffffffffffffffffffffff1663e82617fb6040805190810160405280600e81526020017f73657373696f6e5f737461747573000000000000000000000000000000000000815250856040516020018083805190602001908083835b602083101515613083578051825260208201915060208101905060208303925061305e565b6001836020036101000a038019825116818451168082178552505050505050905001828152602001925050506040516020818303038152906040526040518082805190602001908083835b6020831015156130f357805182526020820191506020810190506020830392506130ce565b6001836020036101000a03801982511681845116808217855250505050505090500191505060405180910390206040518263ffffffff167c0100000000000000000000000000000000000000000000000000000000028152600401808260001916600019168152602001915050602060405180830381600087803b15801561317a57600080fd5b505af115801561318e573d6000803e3d6000fd5b505050506040513d60208110156131a457600080fd5b81019080805190602001909291905050509050600160048111156131c457fe5b8160048111156131d057fe5b60048111156131db57fe5b1491505092915050565b60008173ffffffffffffffffffffffffffffffffffffffff1663e82617fb6040516020018080602001828103825260148152602001807f526563656970745072696e743a75696e743235360000000000000000000000008152506020019150506040516020818303038152906040526040518082805190602001908083835b6020831015156132895780518252602082019150602081019050602083039250613264565b6001836020036101000a03801982511681845116808217855250505050505090500191505060405180910390206040518263ffffffff167c0100000000000000000000000000000000000000000000000000000000028152600401808260001916600019168152602001915050602060405180830381600087803b15801561331057600080fd5b505af1158015613324573d6000803e3d6000fd5b505050506040513d602081101561333a57600080fd5b81019080805190602001909291905050509050919050565b61336082826000015161502c565b1515156133d5576040517f08c379a000000000000000000000000000000000000000000000000000000000815260040180806020018281038252601c8152602001807f72656365697074207072696e7420616c7265616479206578697374730000000081525060200191505060405180910390fd5b80600001516133e3836131e5565b14151561347e576040517f08c379a00000000000000000000000000000000000000000000000000000000081526004018080602001828103825260268152602001807f76696f6c6174696f6e206f662072656365697074207072696e7420696420736581526020017f7175656e6365000000000000000000000000000000000000000000000000000081525060400191505060405180910390fd5b8173ffffffffffffffffffffffffffffffffffffffff16633eba9ed26040805190810160405280601c81526020017f726563656970742d7072696e742e6578697374733a626f6f6c65616e0000000081525083600001516040516020018083805190602001908083835b60208310151561350d57805182526020820191506020810190506020830392506134e8565b6001836020036101000a038019825116818451168082178552505050505050905001828152602001925050506040516020818303038152906040526040518082805190602001908083835b60208310151561357d5780518252602082019150602081019050602083039250613558565b6001836020036101000a038019825116818451168082178552505050505050905001915050604051809103902060016040518363ffffffff167c01000000000000000000000000000000000000000000000000000000000281526004018083600019166000191681526020018215151515815260200192505050600060405180830381600087803b15801561361157600080fd5b505af1158015613625573d6000803e3d6000fd5b505050508173ffffffffffffffffffffffffffffffffffffffff1663ffb4f6236040805190810160405280602081526020017f726563656970742d7072696e742e73657373696f6e2e69643a75696e7432353681525083600001516040516020018083805190602001908083835b6020831015156136b85780518252602082019150602081019050602083039250613693565b6001836020036101000a038019825116818451168082178552505050505050905001828152602001925050506040516020818303038152906040526040518082805190602001908083835b6020831015156137285780518252602082019150602081019050602083039250613703565b6001836020036101000a038019825116818451168082178552505050505050905001915050604051809103902083602001516040518363ffffffff167c010000000000000000000000000000000000000000000000000000000002815260040180836000191660001916815260200182815260200192505050600060405180830381600087803b1580156137bb57600080fd5b505af11580156137cf573d6000803e3d6000fd5b505050508173ffffffffffffffffffffffffffffffffffffffff1663f58660666040805190810160405280601f81526020017f726563656970742d7072696e742e726563656970745f69643a737472696e670081525083600001516040516020018083805190602001908083835b602083101515613862578051825260208201915060208101905060208303925061383d565b6001836020036101000a038019825116818451168082178552505050505050905001828152602001925050506040516020818303038152906040526040518082805190602001908083835b6020831015156138d257805182526020820191506020810190506020830392506138ad565b6001836020036101000a038019825116818451168082178552505050505050905001915050604051809103902083604001516040518363ffffffff167c010000000000000000000000000000000000000000000000000000000002815260040180836000191660001916815260200180602001828103825283818151815260200191508051906020019080838360005b8381101561397d578082015181840152602081019050613962565b50505050905090810190601f1680156139aa5780820380516001836020036101000a031916815260200191505b509350505050600060405180830381600087803b1580156139ca57600080fd5b505af11580156139de573d6000803e3d6000fd5b505050508173ffffffffffffffffffffffffffffffffffffffff1663f58660666040805190810160405280601981526020017f726563656970742d7072696e742e646174613a737472696e670000000000000081525083600001516040516020018083805190602001908083835b602083101515613a715780518252602082019150602081019050602083039250613a4c565b6001836020036101000a038019825116818451168082178552505050505050905001828152602001925050506040516020818303038152906040526040518082805190602001908083835b602083101515613ae15780518252602082019150602081019050602083039250613abc565b6001836020036101000a038019825116818451168082178552505050505050905001915050604051809103902083606001516040518363ffffffff167c010000000000000000000000000000000000000000000000000000000002815260040180836000191660001916815260200180602001828103825283818151815260200191508051906020019080838360005b83811015613b8c578082015181840152602081019050613b71565b50505050905090810190601f168015613bb95780820380516001836020036101000a031916815260200191505b509350505050600060405180830381600087803b158015613bd957600080fd5b505af1158015613bed573d6000803e3d6000fd5b505050508173ffffffffffffffffffffffffffffffffffffffff1663f58660666040805190810160405280601b81526020017f726563656970742d7072696e742e706172616d733a737472696e67000000000081525083600001516040516020018083805190602001908083835b602083101515613c805780518252602082019150602081019050602083039250613c5b565b6001836020036101000a038019825116818451168082178552505050505050905001828152602001925050506040516020818303038152906040526040518082805190602001908083835b602083101515613cf05780518252602082019150602081019050602083039250613ccb565b6001836020036101000a038019825116818451168082178552505050505050905001915050604051809103902083608001516040518363ffffffff167c010000000000000000000000000000000000000000000000000000000002815260040180836000191660001916815260200180602001828103825283818151815260200191508051906020019080838360005b83811015613d9b578082015181840152602081019050613d80565b50505050905090810190601f168015613dc85780820380516001836020036101000a031916815260200191505b509350505050600060405180830381600087803b158015613de857600080fd5b505af1158015613dfc573d6000803e3d6000fd5b505050508173ffffffffffffffffffffffffffffffffffffffff16634c0a4ced6040805190810160405280601e81526020017f726563656970742d7072696e742e737563636573733a66756e6374696f6e000081525083600001516040516020018083805190602001908083835b602083101515613e8f5780518252602082019150602081019050602083039250613e6a565b6001836020036101000a038019825116818451168082178552505050505050905001828152602001925050506040516020818303038152906040526040518082805190602001908083835b602083101515613eff5780518252602082019150602081019050602083039250613eda565b6001836020036101000a03801982511681845116808217855250505050505090500191505060405180910390208360a00151806c0100000000000000000000000090049068010000000000000000900463ffffffff166040518463ffffffff167c0100000000000000000000000000000000000000000000000000000000028152600401808460001916600019168152602001838363ffffffff16906401000000000217680100000000000000000281526020019350505050600060405180830381600087803b158015613fd257600080fd5b505af1158015613fe6573d6000803e3d6000fd5b505050508173ffffffffffffffffffffffffffffffffffffffff16634c0a4ced6040805190810160405280601b81526020017f726563656970742d7072696e742e6661696c3a66756e6374696f6e000000000081525083600001516040516020018083805190602001908083835b6020831015156140795780518252602082019150602081019050602083039250614054565b6001836020036101000a038019825116818451168082178552505050505050905001828152602001925050506040516020818303038152906040526040518082805190602001908083835b6020831015156140e957805182526020820191506020810190506020830392506140c4565b6001836020036101000a03801982511681845116808217855250505050505090500191505060405180910390208360c00151806c0100000000000000000000000090049068010000000000000000900463ffffffff166040518463ffffffff167c0100000000000000000000000000000000000000000000000000000000028152600401808460001916600019168152602001838363ffffffff16906401000000000217680100000000000000000281526020019350505050600060405180830381600087803b1580156141bc57600080fd5b505af11580156141d0573d6000803e3d6000fd5b505050508173ffffffffffffffffffffffffffffffffffffffff1663ffb4f6236040516020018080602001828103825260148152602001807f526563656970745072696e743a75696e743235360000000000000000000000008152506020019150506040516020818303038152906040526040518082805190602001908083835b6020831015156142765780518252602082019150602081019050602083039250614251565b6001836020036101000a038019825116818451168082178552505050505050905001915050604051809103902060018460000151016040518363ffffffff167c010000000000000000000000000000000000000000000000000000000002815260040180836000191660001916815260200182815260200192505050600060405180830381600087803b15801561430c57600080fd5b505af1158015614320573d6000803e3d6000fd5b505050505050565b60008173ffffffffffffffffffffffffffffffffffffffff1663e82617fb6040516020018080602001828103825260158152602001807f526563656970744372656174653a75696e7432353600000000000000000000008152506020019150506040516020818303038152906040526040518082805190602001908083835b6020831015156143cc57805182526020820191506020810190506020830392506143a7565b6001836020036101000a03801982511681845116808217855250505050505090500191505060405180910390206040518263ffffffff167c0100000000000000000000000000000000000000000000000000000000028152600401808260001916600019168152602001915050602060405180830381600087803b15801561445357600080fd5b505af1158015614467573d6000803e3d6000fd5b505050506040513d602081101561447d57600080fd5b81019080805190602001909291905050509050919050565b6144a3828260000151614e65565b151515614518576040517f08c379a000000000000000000000000000000000000000000000000000000000815260040180806020018281038252601d8152602001807f726563656970742063726561746520616c72656164792065786973747300000081525060200191505060405180910390fd5b806000015161452683614328565b1415156145c1576040517f08c379a00000000000000000000000000000000000000000000000000000000081526004018080602001828103825260278152602001807f76696f6c6174696f6e206f66207265636569707420637265617465206964207381526020017f657175656e63650000000000000000000000000000000000000000000000000081525060400191505060405180910390fd5b8173ffffffffffffffffffffffffffffffffffffffff16633eba9ed26040805190810160405280601d81526020017f726563656970742d6372656174652e6578697374733a626f6f6c65616e00000081525083600001516040516020018083805190602001908083835b602083101515614650578051825260208201915060208101905060208303925061462b565b6001836020036101000a038019825116818451168082178552505050505050905001828152602001925050506040516020818303038152906040526040518082805190602001908083835b6020831015156146c0578051825260208201915060208101905060208303925061469b565b6001836020036101000a038019825116818451168082178552505050505050905001915050604051809103902060016040518363ffffffff167c01000000000000000000000000000000000000000000000000000000000281526004018083600019166000191681526020018215151515815260200192505050600060405180830381600087803b15801561475457600080fd5b505af1158015614768573d6000803e3d6000fd5b505050508173ffffffffffffffffffffffffffffffffffffffff1663ffb4f623606060405190810160405280602181526020017f726563656970742d6372656174652e73657373696f6e2e69643a75696e74323581526020017f360000000000000000000000000000000000000000000000000000000000000081525083600001516040516020018083805190602001908083835b60208310151561482257805182526020820191506020810190506020830392506147fd565b6001836020036101000a038019825116818451168082178552505050505050905001828152602001925050506040516020818303038152906040526040518082805190602001908083835b602083101515614892578051825260208201915060208101905060208303925061486d565b6001836020036101000a038019825116818451168082178552505050505050905001915050604051809103902083602001516040518363ffffffff167c010000000000000000000000000000000000000000000000000000000002815260040180836000191660001916815260200182815260200192505050600060405180830381600087803b15801561492557600080fd5b505af1158015614939573d6000803e3d6000fd5b505050508173ffffffffffffffffffffffffffffffffffffffff16639b1a20d56040805190810160405280601f81526020017f726563656970742d6372656174652e737563636573733a66756e6374696f6e0081525083600001516040516020018083805190602001908083835b6020831015156149cc57805182526020820191506020810190506020830392506149a7565b6001836020036101000a038019825116818451168082178552505050505050905001828152602001925050506040516020818303038152906040526040518082805190602001908083835b602083101515614a3c5780518252602082019150602081019050602083039250614a17565b6001836020036101000a03801982511681845116808217855250505050505090500191505060405180910390208360400151806c0100000000000000000000000090049068010000000000000000900463ffffffff166040518463ffffffff167c0100000000000000000000000000000000000000000000000000000000028152600401808460001916600019168152602001838363ffffffff16906401000000000217680100000000000000000281526020019350505050600060405180830381600087803b158015614b0f57600080fd5b505af1158015614b23573d6000803e3d6000fd5b505050508173ffffffffffffffffffffffffffffffffffffffff16634c0a4ced6040805190810160405280601c81526020017f726563656970742d6372656174652e6661696c3a66756e6374696f6e0000000081525083600001516040516020018083805190602001908083835b602083101515614bb65780518252602082019150602081019050602083039250614b91565b6001836020036101000a038019825116818451168082178552505050505050905001828152602001925050506040516020818303038152906040526040518082805190602001908083835b602083101515614c265780518252602082019150602081019050602083039250614c01565b6001836020036101000a03801982511681845116808217855250505050505090500191505060405180910390208360600151806c0100000000000000000000000090049068010000000000000000900463ffffffff166040518463ffffffff167c0100000000000000000000000000000000000000000000000000000000028152600401808460001916600019168152602001838363ffffffff16906401000000000217680100000000000000000281526020019350505050600060405180830381600087803b158015614cf957600080fd5b505af1158015614d0d573d6000803e3d6000fd5b505050508173ffffffffffffffffffffffffffffffffffffffff1663ffb4f6236040516020018080602001828103825260158152602001807f526563656970744372656174653a75696e7432353600000000000000000000008152506020019150506040516020818303038152906040526040518082805190602001908083835b602083101515614db35780518252602082019150602081019050602083039250614d8e565b6001836020036101000a038019825116818451168082178552505050505050905001915050604051809103902060018460000151016040518363ffffffff167c010000000000000000000000000000000000000000000000000000000002815260040180836000191660001916815260200182815260200192505050600060405180830381600087803b158015614e4957600080fd5b505af1158015614e5d573d6000803e3d6000fd5b505050505050565b60008273ffffffffffffffffffffffffffffffffffffffff166317e7dd226040805190810160405280601d81526020017f726563656970742d6372656174652e6578697374733a626f6f6c65616e000000815250846040516020018083805190602001908083835b602083101515614ef25780518252602082019150602081019050602083039250614ecd565b6001836020036101000a038019825116818451168082178552505050505050905001828152602001925050506040516020818303038152906040526040518082805190602001908083835b602083101515614f625780518252602082019150602081019050602083039250614f3d565b6001836020036101000a03801982511681845116808217855250505050505090500191505060405180910390206040518263ffffffff167c0100000000000000000000000000000000000000000000000000000000028152600401808260001916600019168152602001915050602060405180830381600087803b158015614fe957600080fd5b505af1158015614ffd573d6000803e3d6000fd5b505050506040513d602081101561501357600080fd5b8101908080519060200190929190505050905092915050565b60008273ffffffffffffffffffffffffffffffffffffffff166317e7dd226040805190810160405280601c81526020017f726563656970742d7072696e742e6578697374733a626f6f6c65616e00000000815250846040516020018083805190602001908083835b6020831015156150b95780518252602082019150602081019050602083039250615094565b6001836020036101000a038019825116818451168082178552505050505050905001828152602001925050506040516020818303038152906040526040518082805190602001908083835b6020831015156151295780518252602082019150602081019050602083039250615104565b6001836020036101000a03801982511681845116808217855250505050505090500191505060405180910390206040518263ffffffff167c0100000000000000000000000000000000000000000000000000000000028152600401808260001916600019168152602001915050602060405180830381600087803b1580156151b057600080fd5b505af11580156151c4573d6000803e3d6000fd5b505050506040513d60208110156151da57600080fd5b8101908080519060200190929190505050905092915050565b60008273ffffffffffffffffffffffffffffffffffffffff166317e7dd226040805190810160405280600e81526020017f73657373696f6e2e657869737473000000000000000000000000000000000000815250846040516020018083805190602001908083835b602083101515615280578051825260208201915060208101905060208303925061525b565b6001836020036101000a038019825116818451168082178552505050505050905001828152602001925050506040516020818303038152906040526040518082805190602001908083835b6020831015156152f057805182526020820191506020810190506020830392506152cb565b6001836020036101000a03801982511681845116808217855250505050505090500191505060405180910390206040518263ffffffff167c0100000000000000000000000000000000000000000000000000000000028152600401808260001916600019168152602001915050602060405180830381600087803b15801561537757600080fd5b505af115801561538b573d6000803e3d6000fd5b505050506040513d60208110156153a157600080fd5b8101908080519060200190929190505050905092915050565b60008273ffffffffffffffffffffffffffffffffffffffff1663e82617fb6040805190810160405280601681526020017f73657373696f6e5f6170706c69636174696f6e5f696400000000000000000000815250846040516020018083805190602001908083835b6020831015156154475780518252602082019150602081019050602083039250615422565b6001836020036101000a038019825116818451168082178552505050505050905001828152602001925050506040516020818303038152906040526040518082805190602001908083835b6020831015156154b75780518252602082019150602081019050602083039250615492565b6001836020036101000a03801982511681845116808217855250505050505090500191505060405180910390206040518263ffffffff167c0100000000000000000000000000000000000000000000000000000000028152600401808260001916600019168152602001915050602060405180830381600087803b15801561553e57600080fd5b505af1158015615552573d6000803e3d6000fd5b505050506040513d602081101561556857600080fd5b8101908080519060200190929190505050905092915050565b600061558d83836156f9565b1515615601576040517f08c379a00000000000000000000000000000000000000000000000000000000081526004018080602001828103825260198152602001807f4170706c69636174696f6e206973206e6f74206578697374730000000000000081525060200191505060405180910390fd5b8273ffffffffffffffffffffffffffffffffffffffff16634c77e5ba61565c6040805190810160405280601381526020017f6170706c69636174696f6e5f6164647265737300000000000000000000000000815250856158c0565b6040518263ffffffff167c0100000000000000000000000000000000000000000000000000000000028152600401808260001916600019168152602001915050602060405180830381600087803b1580156156b657600080fd5b505af11580156156ca573d6000803e3d6000fd5b505050506040513d60208110156156e057600080fd5b8101908080519060200190929190505050905092915050565b60008273ffffffffffffffffffffffffffffffffffffffff166317e7dd226040805190810160405280601281526020017f6170706c69636174696f6e2e6578697374730000000000000000000000000000815250846040516020018083805190602001908083835b6020831015156157865780518252602082019150602081019050602083039250615761565b6001836020036101000a038019825116818451168082178552505050505050905001828152602001925050506040516020818303038152906040526040518082805190602001908083835b6020831015156157f657805182526020820191506020810190506020830392506157d1565b6001836020036101000a03801982511681845116808217855250505050505090500191505060405180910390206040518263ffffffff167c0100000000000000000000000000000000000000000000000000000000028152600401808260001916600019168152602001915050602060405180830381600087803b15801561587d57600080fd5b505af1158015615891573d6000803e3d6000fd5b505050506040513d60208110156158a757600080fd5b8101908080519060200190929190505050905092915050565b600082826040516020018083805190602001908083835b6020831015156158fc57805182526020820191506020810190506020830392506158d7565b6001836020036101000a038019825116818451168082178552505050505050905001828152602001925050506040516020818303038152906040526040518082805190602001908083835b60208310151561596c5780518252602082019150602081019050602083039250615947565b6001836020036101000a0380198251168184511680821785525050505050509050019150506040518091039020905092915050565b608060405190810160405280600081526020016000815260200160008063ffffffff169064010000000002176801000000000000000002815260200160008063ffffffff16906401000000000217680100000000000000000281525090565b60e060405190810160405280600081526020016000815260200160608152602001606081526020016060815260200160008063ffffffff169064010000000002176801000000000000000002815260200160008063ffffffff169064010000000002176801000000000000000002815250905600a165627a7a72305820f9e16406b52853455812256b0ea6605ec41cea8954def15382c8360307db28520029",
  "source": "pragma solidity 0.4.24;\n\nimport \"../Platform.sol\";\nimport {PrinterLib, SessionLib} from \"../libs/Libraries.sol\";\nimport {APrinterManager} from \"./Managers.sol\";\nimport {APrinterOracle} from \"../oracles/Oracles.sol\";\nimport {APrinterController} from \"../controllers/Controllers.sol\";\n\ncontract PrinterManager is APrinterManager, Mortal, Named(\"camera-manager\"), Component {\n\n    using PrinterLib for address;\n    using SessionLib for address;\n\n    string constant ORACLE = \"printer-oracle\";\n    string constant CONTROLLER = \"printer-controller\";\n\n    constructor(address _config) Component(_config) public {}\n\n    function createReceipt(\n        address _application,\n        uint256 _sessionId,\n        function(uint256, string memory, string memory) external _success,\n        function(uint256) external _fail\n    )\n        public\n        returns (bool _accepted)\n    {\n        address sessionOwner = database.retrieveSessionApplicationDeployedAddress(_sessionId);\n        require(sessionOwner == _application, \"illegal session access\");\n        require(database.sessionIsActive(_sessionId), \"session is not active\");\n        uint256 receiptCreateId = database.getNextReceiptCreateId();\n        // @formatter:off\n        database.createReceiptCreate(PrinterLib.ReceiptCreate({\n            id: receiptCreateId,\n            sessionId: _sessionId,\n            success: _success,\n            fail: _fail\n        }));\n        // @formatter:on\n        return APrinterOracle(context.get(ORACLE)).onNextReceiptCreate(receiptCreateId);\n    }\n\n    function confirmCreate(uint256 _commandId, string memory _receiptId, string memory _url) public {\n        PrinterLib.ReceiptCreate memory command = database.retrieveReceiptCreate(_commandId);\n        APrinterController(context.get(CONTROLLER)).respondCreate(command.sessionId, _receiptId, _url, command.success);\n    }\n\n    function confirmFailCreate(uint256 _commandId) public {\n        PrinterLib.ReceiptCreate memory command = database.retrieveReceiptCreate(_commandId);\n        APrinterController(context.get(CONTROLLER)).respondFailCreate(command.sessionId, command.fail);\n    }\n\n    function printReceipt(\n        address _application,\n        uint256 _sessionId,\n        string memory _receiptId,\n        string memory _data,\n        string memory _params,\n        function(uint256) external _success,\n        function(uint256) external _fail\n    )\n        public\n        returns (bool _accepted)\n    {\n        address sessionOwner = database.retrieveSessionApplicationDeployedAddress(_sessionId);\n        require(sessionOwner == _application, \"illegal session access\");\n        require(database.sessionIsActive(_sessionId), \"session is not active\");\n        uint256 receiptPrintId = database.getNextReceiptPrintId();\n        // @formatter:off\n        database.createReceiptPrint(PrinterLib.ReceiptPrint({\n            id: receiptPrintId,\n            sessionId: _sessionId,\n            receiptId: _receiptId,\n            data: _data,\n            params: _params,\n            success: _success,\n            fail: _fail\n        }));\n        // @formatter:on\n        return APrinterOracle(context.get(ORACLE)).onNextReceiptPrint(receiptPrintId);\n    }\n\n    function confirmPrint(uint256 _commandId) public {\n        PrinterLib.ReceiptPrint memory command = database.retrieveReceiptPrint(_commandId);\n        APrinterController(context.get(CONTROLLER)).respondPrint(command.sessionId, command.success);\n    }\n\n    function confirmFailPrint(uint256 _commandId) public {\n        PrinterLib.ReceiptPrint memory command = database.retrieveReceiptPrint(_commandId);\n        APrinterController(context.get(CONTROLLER)).respondFailPrint(command.sessionId, command.fail);\n    }\n\n}\n",
  "sourcePath": "/home/andrew/vault-logic-project/Development/test/vault-logic-api/truffle/contracts/managers/PrinterManager.sol",
  "compiler": {
    "name": "solc",
    "version": "0.4.24+commit.e67f0147.Emscripten.clang"
  },
  "schemaVersion": "2.0.1",
  "updatedAt": "2018-10-16T12:45:45.718Z"
}