{
  "contractName": "SessionController",
  "abi": [
    {
      "constant": true,
      "inputs": [],
      "name": "name",
      "outputs": [
        {
          "name": "",
          "type": "string"
        }
      ],
      "payable": false,
      "stateMutability": "view",
      "type": "function"
    },
    {
      "constant": false,
      "inputs": [],
      "name": "kill",
      "outputs": [],
      "payable": false,
      "stateMutability": "nonpayable",
      "type": "function"
    },
    {
      "constant": true,
      "inputs": [],
      "name": "owner",
      "outputs": [
        {
          "name": "",
          "type": "address"
        }
      ],
      "payable": false,
      "stateMutability": "view",
      "type": "function"
    },
    {
      "inputs": [
        {
          "name": "_config",
          "type": "address"
        }
      ],
      "payable": false,
      "stateMutability": "nonpayable",
      "type": "constructor"
    },
    {
      "constant": true,
      "inputs": [
        {
          "name": "_sessionId",
          "type": "uint256"
        }
      ],
      "name": "getKiosk",
      "outputs": [
        {
          "name": "_id",
          "type": "string"
        },
        {
          "name": "_location",
          "type": "string"
        },
        {
          "name": "_name",
          "type": "string"
        },
        {
          "name": "_timezone",
          "type": "string"
        }
      ],
      "payable": false,
      "stateMutability": "view",
      "type": "function"
    }
  ],
  "bytecode": "0x60806040523480156200001157600080fd5b506040516020806200174c833981016040818152915182820190925260128082527f73657373696f6e2d636f6e74726f6c6c657200000000000000000000000000006020830190815260008054600160a060020a031916331781558493909290916200008191600191906200044e565b505081600160a060020a031663713b563f6040518163ffffffff167c0100000000000000000000000000000000000000000000000000000000028152600401602060405180830381600087803b158015620000db57600080fd5b505af1158015620000f0573d6000803e3d6000fd5b505050506040513d60208110156200010757600080fd5b505160038054600160a060020a031916600160a060020a03928316179055604080517fd0496d6a00000000000000000000000000000000000000000000000000000000815290519184169163d0496d6a916004808201926020929091908290030181600087803b1580156200017b57600080fd5b505af115801562000190573d6000803e3d6000fd5b505050506040513d6020811015620001a757600080fd5b505160028054600160a060020a031916600160a060020a03928316178082556040517f693ec85e00000000000000000000000000000000000000000000000000000000815260206004820190815260018054610100818316150260001901169490940460248301819052929094169363693ec85e939290918291604490910190849080156200027a5780601f106200024e576101008083540402835291602001916200027a565b820191906000526020600020905b8154815290600101906020018083116200025c57829003601f168201915b505092505050602060405180830381600087803b1580156200029b57600080fd5b505af1158015620002b0573d6000803e3d6000fd5b505050506040513d6020811015620002c757600080fd5b50519050600160a060020a038116156200034d5780600160a060020a03166341c0e1b56040518163ffffffff167c0100000000000000000000000000000000000000000000000000000000028152600401600060405180830381600087803b1580156200033357600080fd5b505af115801562000348573d6000803e3d6000fd5b505050505b600280546040517ff2c298be00000000000000000000000000000000000000000000000000000000815260206004820190815260018054600019818316156101000201169490940460248301819052600160a060020a039093169363f2c298be9390928291604490910190849080156200040b5780601f10620003df576101008083540402835291602001916200040b565b820191906000526020600020905b815481529060010190602001808311620003ed57829003601f168201915b505092505050600060405180830381600087803b1580156200042c57600080fd5b505af115801562000441573d6000803e3d6000fd5b50505050505050620004f3565b828054600181600116156101000203166002900490600052602060002090601f016020900481019282601f106200049157805160ff1916838001178555620004c1565b82800160010185558215620004c1579182015b82811115620004c1578251825591602001919060010190620004a4565b50620004cf929150620004d3565b5090565b620004f091905b80821115620004cf5760008155600101620004da565b90565b61124980620005036000396000f3006080604052600436106100485763ffffffff60e060020a60003504166306fdde03811461004d57806339df5dcd146100d757806341c0e1b5146102995780638da5cb5b146102b0575b600080fd5b34801561005957600080fd5b506100626102e1565b6040805160208082528351818301528351919283929083019185019080838360005b8381101561009c578181015183820152602001610084565b50505050905090810190601f1680156100c95780820380516001836020036101000a031916815260200191505b509250505060405180910390f35b3480156100e357600080fd5b506100ef60043561036e565b6040518080602001806020018060200180602001858103855289818151815260200191508051906020019080838360005b83811015610138578181015183820152602001610120565b50505050905090810190601f1680156101655780820380516001836020036101000a031916815260200191505b5085810384528851815288516020918201918a019080838360005b83811015610198578181015183820152602001610180565b50505050905090810190601f1680156101c55780820380516001836020036101000a031916815260200191505b50858103835287518152875160209182019189019080838360005b838110156101f85781810151838201526020016101e0565b50505050905090810190601f1680156102255780820380516001836020036101000a031916815260200191505b50858103825286518152865160209182019188019080838360005b83811015610258578181015183820152602001610240565b50505050905090810190601f1680156102855780820380516001836020036101000a031916815260200191505b509850505050505050505060405180910390f35b3480156102a557600080fd5b506102ae61042c565b005b3480156102bc57600080fd5b506102c5610492565b60408051600160a060020a039092168252519081900360200190f35b60018054604080516020600284861615610100026000190190941693909304601f810184900484028201840190925281815292918301828280156103665780601f1061033b57610100808354040283529160200191610366565b820191906000526020600020905b81548152906001019060200180831161034957829003601f168201915b505050505081565b60608060608061037c6111f4565b60035461039890600160a060020a03163363ffffffff6104a116565b15156103ee576040805160e560020a62461bcd02815260206004820152601760248201527f6f6e6c79207265676973746572656420616c6c6f776564000000000000000000604482015290519081900360640190fd5b60035461040a90600160a060020a03168763ffffffff61063a16565b8051602082015160408301516060909301519199909850919650945092505050565b600054600160a060020a0316321461048e576040805160e560020a62461bcd02815260206004820152601260248201527f6f6e6c79206f776e657220616c6c6f7765640000000000000000000000000000604482015290519081900360640190fd5b6000ff5b600054600160a060020a031681565b600082600160a060020a03166317e7dd226040805190810160405280601681526020017f6170706c69636174696f6e5f7265676973746572656400000000000000000000815250846040516020018083805190602001908083835b6020831061051b5780518252601f1990920191602091820191016104fc565b6001836020036101000a03801982511681845116808217855250505050505090500182600160a060020a0316600160a060020a03166c01000000000000000000000000028152601401925050506040516020818303038152906040526040518082805190602001908083835b602083106105a65780518252601f199092019160209182019101610587565b51815160209384036101000a60001901801990921691161790526040805192909401829003822063ffffffff881660e060020a0283526004830152925160248083019650939450929083900301905081600087803b15801561060757600080fd5b505af115801561061b573d6000803e3d6000fd5b505050506040513d602081101561063157600080fd5b50519392505050565b6106426111f4565b61064c8383610887565b15156106a2576040805160e560020a62461bcd02815260206004820152601560248201527f53657373696f6e206973206e6f74206578697374730000000000000000000000604482015290519081900360640190fd5b61088083600160a060020a031663a209a29c6040805190810160405280601081526020017f73657373696f6e5f6b696f736b5f696400000000000000000000000000000000815250856040516020018083805190602001908083835b6020831061071d5780518252601f1990920191602091820191016106fe565b51815160209384036101000a600019018019909216911617905292019384525060408051808503815293820190819052835193945092839250908401908083835b6020831061077d5780518252601f19909201916020918201910161075e565b5181516020939093036101000a60001901801990911692169190911790526040805191909301819003812063ffffffff871660e060020a0282526004820152915160248084019550600094509092839003019050818387803b1580156107e257600080fd5b505af11580156107f6573d6000803e3d6000fd5b505050506040513d6000823e601f3d908101601f19168201604052602081101561081f57600080fd5b81019080805164010000000081111561083757600080fd5b8201602081018481111561084a57600080fd5b815164010000000081118282018710171561086457600080fd5b5050600160a060020a038816935091505063ffffffff61096216565b9392505050565b600082600160a060020a03166317e7dd226040805190810160405280600e81526020017f73657373696f6e2e657869737473000000000000000000000000000000000000815250846040516020018083805190602001908083835b602083106109015780518252601f1990920191602091820191016108e2565b51815160001960209485036101000a019081169019919091161790529201938452506040805180850381529382019081905283519394509283925090840190808383602083106105a65780518252601f199092019160209182019101610587565b61096a6111f4565b61097483836110cf565b15156109ca576040805160e560020a62461bcd02815260206004820152601360248201527f4b696f736b206973206e6f742065786973747300000000000000000000000000604482015290519081900360640190fd5b60806040519081016040528083815260200184600160a060020a031663a209a29c6040805190810160405280601681526020017f6b696f736b5f6c6f636174696f6e5f616464726573730000000000000000000081525086604051602001808060200180602001838103835285818151815260200191508051906020019080838360005b83811015610a66578181015183820152602001610a4e565b50505050905090810190601f168015610a935780820380516001836020036101000a031916815260200191505b50838103825284518152845160209182019186019080838360005b83811015610ac6578181015183820152602001610aae565b50505050905090810190601f168015610af35780820380516001836020036101000a031916815260200191505b509450505050506040516020818303038152906040526040518082805190602001908083835b60208310610b385780518252601f199092019160209182019101610b19565b5181516020939093036101000a60001901801990911692169190911790526040805191909301819003812063ffffffff871660e060020a0282526004820152915160248084019550600094509092839003019050818387803b158015610b9d57600080fd5b505af1158015610bb1573d6000803e3d6000fd5b505050506040513d6000823e601f3d908101601f191682016040526020811015610bda57600080fd5b810190808051640100000000811115610bf257600080fd5b82016020810184811115610c0557600080fd5b8151640100000000811182820187101715610c1f57600080fd5b5050929190505050815260200184600160a060020a031663a209a29c6040805190810160405280600a81526020017f6b696f736b5f6e616d650000000000000000000000000000000000000000000081525086604051602001808060200180602001838103835285818151815260200191508051906020019080838360005b83811015610cb6578181015183820152602001610c9e565b50505050905090810190601f168015610ce35780820380516001836020036101000a031916815260200191505b50838103825284518152845160209182019186019080838360005b83811015610d16578181015183820152602001610cfe565b50505050905090810190601f168015610d435780820380516001836020036101000a031916815260200191505b509450505050506040516020818303038152906040526040518082805190602001908083835b60208310610d885780518252601f199092019160209182019101610d69565b5181516020939093036101000a60001901801990911692169190911790526040805191909301819003812063ffffffff871660e060020a0282526004820152915160248084019550600094509092839003019050818387803b158015610ded57600080fd5b505af1158015610e01573d6000803e3d6000fd5b505050506040513d6000823e601f3d908101601f191682016040526020811015610e2a57600080fd5b810190808051640100000000811115610e4257600080fd5b82016020810184811115610e5557600080fd5b8151640100000000811182820187101715610e6f57600080fd5b5050929190505050815260200184600160a060020a031663a209a29c6040805190810160405280600f81526020017f6b696f736b5f74696d655f7a6f6e65000000000000000000000000000000000081525086604051602001808060200180602001838103835285818151815260200191508051906020019080838360005b83811015610f06578181015183820152602001610eee565b50505050905090810190601f168015610f335780820380516001836020036101000a031916815260200191505b50838103825284518152845160209182019186019080838360005b83811015610f66578181015183820152602001610f4e565b50505050905090810190601f168015610f935780820380516001836020036101000a031916815260200191505b509450505050506040516020818303038152906040526040518082805190602001908083835b60208310610fd85780518252601f199092019160209182019101610fb9565b5181516020939093036101000a60001901801990911692169190911790526040805191909301819003812063ffffffff871660e060020a0282526004820152915160248084019550600094509092839003019050818387803b15801561103d57600080fd5b505af1158015611051573d6000803e3d6000fd5b505050506040513d6000823e601f3d908101601f19168201604052602081101561107a57600080fd5b81019080805164010000000081111561109257600080fd5b820160208101848111156110a557600080fd5b81516401000000008111828201871017156110bf57600080fd5b5050909352509195945050505050565b600082600160a060020a03166317e7dd226040805190810160405280600c81526020017f6b696f736b2e6578697374730000000000000000000000000000000000000000815250846040516020018083805190602001908083835b602083106111495780518252601f19909201916020918201910161112a565b51815160209384036101000a600019018019909216911617905285519190930192850191508083835b602083106111915780518252601f199092019160209182019101611172565b6001836020036101000a03801982511681845116808217855250505050505090500192505050604051602081830303815290604052604051808280519060200190808383602083106105a65780518252601f199092019160209182019101610587565b6080604051908101604052806060815260200160608152602001606081526020016060815250905600a165627a7a72305820ed82663275684c0522ea0132fb34abeae16a865b4b1ca2412ef438e3c3f870bb0029",
  "source": "pragma solidity 0.4.24;\n\nimport {ASessionController} from \"./Controllers.sol\";\nimport {KioskLib, SessionLib, ApplicationLib} from \"../libs/Libraries.sol\";\nimport \"../Platform.sol\";\n\ncontract SessionController is ASessionController, Named(\"session-controller\"), Mortal, Component {\n\n    using SessionLib for address;\n    using ApplicationLib for address;\n\n    modifier isRegistered {\n        require(database.isRegistered(msg.sender), \"only registered allowed\");\n        _;\n    }\n\n    constructor(address _config) Component(_config) public {}\n\n    function getKiosk(\n        uint256 _sessionId\n    ) \n        public \n        isRegistered \n        view \n        returns (\n            string memory _id, \n            string memory _location, \n            string memory _name, \n            string memory _timezone\n        ) \n    {\n        KioskLib.Kiosk memory kiosk = database.retrieveSessionKiosk(_sessionId);\n        return (kiosk.id, kiosk.location, kiosk.name, kiosk.timezone);\n    }\n\n}\n",
  "sourcePath": "/home/andrew/vault-logic-project/Development/test/vault-logic-api/truffle/contracts/controllers/SessionController.sol",
  "compiler": {
    "name": "solc",
    "version": "0.4.24+commit.e67f0147.Emscripten.clang"
  },
  "schemaVersion": "2.0.1",
  "updatedAt": "2018-10-23T12:02:52.005Z"
}