{
  "contractName": "SessionController",
  "abi": [
    {
      "constant": true,
      "inputs": [],
      "name": "name",
      "outputs": [
        {
          "name": "",
          "type": "string"
        }
      ],
      "payable": false,
      "stateMutability": "view",
      "type": "function"
    },
    {
      "constant": false,
      "inputs": [],
      "name": "kill",
      "outputs": [],
      "payable": false,
      "stateMutability": "nonpayable",
      "type": "function"
    },
    {
      "constant": true,
      "inputs": [],
      "name": "owner",
      "outputs": [
        {
          "name": "",
          "type": "address"
        }
      ],
      "payable": false,
      "stateMutability": "view",
      "type": "function"
    },
    {
      "inputs": [
        {
          "name": "_config",
          "type": "address"
        }
      ],
      "payable": false,
      "stateMutability": "nonpayable",
      "type": "constructor"
    },
    {
      "constant": true,
      "inputs": [
        {
          "name": "_sessionId",
          "type": "uint256"
        }
      ],
      "name": "getKiosk",
      "outputs": [
        {
          "name": "_id",
          "type": "string"
        },
        {
          "name": "_location",
          "type": "string"
        },
        {
          "name": "_name",
          "type": "string"
        },
        {
          "name": "_timezone",
          "type": "string"
        }
      ],
      "payable": false,
      "stateMutability": "view",
      "type": "function"
    },
    {
      "constant": true,
      "inputs": [
        {
          "name": "_sessionId",
          "type": "uint256"
        }
      ],
      "name": "scanQRCodeWithLights",
      "outputs": [
        {
          "name": "_success",
          "type": "bool"
        },
        {
          "name": "_url",
          "type": "string"
        }
      ],
      "payable": false,
      "stateMutability": "view",
      "type": "function"
    },
    {
      "constant": true,
      "inputs": [
        {
          "name": "_sessionId",
          "type": "uint256"
        }
      ],
      "name": "scanQRCode",
      "outputs": [
        {
          "name": "_success",
          "type": "bool"
        },
        {
          "name": "_url",
          "type": "string"
        }
      ],
      "payable": false,
      "stateMutability": "view",
      "type": "function"
    },
    {
      "constant": true,
      "inputs": [
        {
          "name": "_sessionId",
          "type": "uint256"
        }
      ],
      "name": "stopQRScanning",
      "outputs": [
        {
          "name": "_success",
          "type": "bool"
        }
      ],
      "payable": false,
      "stateMutability": "view",
      "type": "function"
    },
    {
      "constant": true,
      "inputs": [
        {
          "name": "_sessionId",
          "type": "uint256"
        }
      ],
      "name": "getReceiptUrl",
      "outputs": [
        {
          "name": "_success",
          "type": "bool"
        },
        {
          "name": "_id",
          "type": "string"
        },
        {
          "name": "_url",
          "type": "string"
        }
      ],
      "payable": false,
      "stateMutability": "view",
      "type": "function"
    },
    {
      "constant": true,
      "inputs": [
        {
          "name": "_sessionId",
          "type": "uint256"
        },
        {
          "name": "_id",
          "type": "string"
        },
        {
          "name": "_data",
          "type": "string"
        }
      ],
      "name": "printReceipt",
      "outputs": [
        {
          "name": "_success",
          "type": "bool"
        }
      ],
      "payable": false,
      "stateMutability": "view",
      "type": "function"
    }
  ],
  "bytecode": "0x60806040523480156200001157600080fd5b5060405160208062002718833981018060405281019080805190602001909291905050508060006040805190810160405280601281526020017f73657373696f6e2d636f6e74726f6c6c65720000000000000000000000000000815250336000806101000a81548173ffffffffffffffffffffffffffffffffffffffff021916908373ffffffffffffffffffffffffffffffffffffffff1602179055508060019080519060200190620000c6929190620005bf565b50508173ffffffffffffffffffffffffffffffffffffffff1663713b563f6040518163ffffffff167c0100000000000000000000000000000000000000000000000000000000028152600401602060405180830381600087803b1580156200012d57600080fd5b505af115801562000142573d6000803e3d6000fd5b505050506040513d60208110156200015957600080fd5b8101908080519060200190929190505050600360006101000a81548173ffffffffffffffffffffffffffffffffffffffff021916908373ffffffffffffffffffffffffffffffffffffffff1602179055508173ffffffffffffffffffffffffffffffffffffffff1663d0496d6a6040518163ffffffff167c0100000000000000000000000000000000000000000000000000000000028152600401602060405180830381600087803b1580156200020f57600080fd5b505af115801562000224573d6000803e3d6000fd5b505050506040513d60208110156200023b57600080fd5b8101908080519060200190929190505050600260006101000a81548173ffffffffffffffffffffffffffffffffffffffff021916908373ffffffffffffffffffffffffffffffffffffffff160217905550600260009054906101000a900473ffffffffffffffffffffffffffffffffffffffff1673ffffffffffffffffffffffffffffffffffffffff1663693ec85e60016040518263ffffffff167c01000000000000000000000000000000000000000000000000000000000281526004018080602001828103825283818154600181600116156101000203166002900481526020019150805460018160011615610100020316600290048015620003845780601f10620003585761010080835404028352916020019162000384565b820191906000526020600020905b8154815290600101906020018083116200036657829003601f168201915b505092505050602060405180830381600087803b158015620003a557600080fd5b505af1158015620003ba573d6000803e3d6000fd5b505050506040513d6020811015620003d157600080fd5b8101908080519060200190929190505050905060008173ffffffffffffffffffffffffffffffffffffffff1614151562000484578073ffffffffffffffffffffffffffffffffffffffff166341c0e1b56040518163ffffffff167c0100000000000000000000000000000000000000000000000000000000028152600401600060405180830381600087803b1580156200046a57600080fd5b505af11580156200047f573d6000803e3d6000fd5b505050505b600260009054906101000a900473ffffffffffffffffffffffffffffffffffffffff1673ffffffffffffffffffffffffffffffffffffffff1663f2c298be60016040518263ffffffff167c010000000000000000000000000000000000000000000000000000000002815260040180806020018281038252838181546001816001161561010002031660029004815260200191508054600181600116156101000203166002900480156200057c5780601f1062000550576101008083540402835291602001916200057c565b820191906000526020600020905b8154815290600101906020018083116200055e57829003601f168201915b505092505050600060405180830381600087803b1580156200059d57600080fd5b505af1158015620005b2573d6000803e3d6000fd5b505050505050506200066e565b828054600181600116156101000203166002900490600052602060002090601f016020900481019282601f106200060257805160ff191683800117855562000633565b8280016001018555821562000633579182015b828111156200063257825182559160200191906001019062000615565b5b50905062000642919062000646565b5090565b6200066b91905b80821115620006675760008160009055506001016200064d565b5090565b90565b61209a806200067e6000396000f300608060405260043610610099576000357c0100000000000000000000000000000000000000000000000000000000900463ffffffff16806306fdde031461009e57806339df5dcd1461012e57806341c0e1b514610318578063500260381461032f5780635b56a8fa14610374578063636b5409146104255780638da5cb5b146104d65780639fc78a911461052d578063abccc23f1461064a575b600080fd5b3480156100aa57600080fd5b506100b361071b565b6040518080602001828103825283818151815260200191508051906020019080838360005b838110156100f35780820151818401526020810190506100d8565b50505050905090810190601f1680156101205780820380516001836020036101000a031916815260200191505b509250505060405180910390f35b34801561013a57600080fd5b50610159600480360381019080803590602001909291905050506107b9565b6040518080602001806020018060200180602001858103855289818151815260200191508051906020019080838360005b838110156101a557808201518184015260208101905061018a565b50505050905090810190601f1680156101d25780820380516001836020036101000a031916815260200191505b50858103845288818151815260200191508051906020019080838360005b8381101561020b5780820151818401526020810190506101f0565b50505050905090810190601f1680156102385780820380516001836020036101000a031916815260200191505b50858103835287818151815260200191508051906020019080838360005b83811015610271578082015181840152602081019050610256565b50505050905090810190601f16801561029e5780820380516001836020036101000a031916815260200191505b50858103825286818151815260200191508051906020019080838360005b838110156102d75780820151818401526020810190506102bc565b50505050905090810190601f1680156103045780820380516001836020036101000a031916815260200191505b509850505050505050505060405180910390f35b34801561032457600080fd5b5061032d610903565b005b34801561033b57600080fd5b5061035a600480360381019080803590602001909291905050506109cb565b604051808215151515815260200191505060405180910390f35b34801561038057600080fd5b5061039f60048036038101908080359060200190929190505050610a95565b604051808315151515815260200180602001828103825283818151815260200191508051906020019080838360005b838110156103e95780820151818401526020810190506103ce565b50505050905090810190601f1680156104165780820380516001836020036101000a031916815260200191505b50935050505060405180910390f35b34801561043157600080fd5b5061045060048036038101908080359060200190929190505050610bc0565b604051808315151515815260200180602001828103825283818151815260200191508051906020019080838360005b8381101561049a57808201518184015260208101905061047f565b50505050905090810190601f1680156104c75780820380516001836020036101000a031916815260200191505b50935050505060405180910390f35b3480156104e257600080fd5b506104eb610ceb565b604051808273ffffffffffffffffffffffffffffffffffffffff1673ffffffffffffffffffffffffffffffffffffffff16815260200191505060405180910390f35b34801561053957600080fd5b5061055860048036038101908080359060200190929190505050610d10565b60405180841515151581526020018060200180602001838103835285818151815260200191508051906020019080838360005b838110156105a657808201518184015260208101905061058b565b50505050905090810190601f1680156105d35780820380516001836020036101000a031916815260200191505b50838103825284818151815260200191508051906020019080838360005b8381101561060c5780820151818401526020810190506105f1565b50505050905090810190601f1680156106395780820380516001836020036101000a031916815260200191505b509550505050505060405180910390f35b34801561065657600080fd5b5061070160048036038101908080359060200190929190803590602001908201803590602001908080601f0160208091040260200160405190810160405280939291908181526020018383808284378201915050505050509192919290803590602001908201803590602001908080601f0160208091040260200160405190810160405280939291908181526020018383808284378201915050505050509192919290505050610e76565b604051808215151515815260200191505060405180910390f35b60018054600181600116156101000203166002900480601f0160208091040260200160405190810160405280929190818152602001828054600181600116156101000203166002900480156107b15780601f10610786576101008083540402835291602001916107b1565b820191906000526020600020905b81548152906001019060200180831161079457829003601f168201915b505050505081565b6060806060806107c7612045565b61081233600360009054906101000a900473ffffffffffffffffffffffffffffffffffffffff1673ffffffffffffffffffffffffffffffffffffffff16610f4290919063ffffffff16565b1515610886576040517f08c379a00000000000000000000000000000000000000000000000000000000081526004018080602001828103825260178152602001807f6f6e6c79207265676973746572656420616c6c6f77656400000000000000000081525060200191505060405180910390fd5b6108d186600360009054906101000a900473ffffffffffffffffffffffffffffffffffffffff1673ffffffffffffffffffffffffffffffffffffffff1661114490919063ffffffff16565b905080600001518160200151826040015183606001518393508292508191508090509450945094509450509193509193565b6000809054906101000a900473ffffffffffffffffffffffffffffffffffffffff1673ffffffffffffffffffffffffffffffffffffffff163273ffffffffffffffffffffffffffffffffffffffff161415156109c7576040517f08c379a00000000000000000000000000000000000000000000000000000000081526004018080602001828103825260128152602001807f6f6e6c79206f776e657220616c6c6f776564000000000000000000000000000081525060200191505060405180910390fd5b6000ff5b6000610a1833600360009054906101000a900473ffffffffffffffffffffffffffffffffffffffff1673ffffffffffffffffffffffffffffffffffffffff16610f4290919063ffffffff16565b1515610a8c576040517f08c379a00000000000000000000000000000000000000000000000000000000081526004018080602001828103825260178152602001807f6f6e6c79207265676973746572656420616c6c6f77656400000000000000000081525060200191505060405180910390fd5b60019050919050565b60006060610ae433600360009054906101000a900473ffffffffffffffffffffffffffffffffffffffff1673ffffffffffffffffffffffffffffffffffffffff16610f4290919063ffffffff16565b1515610b58576040517f08c379a00000000000000000000000000000000000000000000000000000000081526004018080602001828103825260178152602001807f6f6e6c79207265676973746572656420616c6c6f77656400000000000000000081525060200191505060405180910390fd5b60019150606060405190810160405280603381526020017f687474703a2f2f7661756c746c6f6769632e636f6d2f707265766965772d776981526020017f74682d6c696768742d75726c2d313233617364000000000000000000000000008152509050915091565b60006060610c0f33600360009054906101000a900473ffffffffffffffffffffffffffffffffffffffff1673ffffffffffffffffffffffffffffffffffffffff16610f4290919063ffffffff16565b1515610c83576040517f08c379a00000000000000000000000000000000000000000000000000000000081526004018080602001828103825260178152602001807f6f6e6c79207265676973746572656420616c6c6f77656400000000000000000081525060200191505060405180910390fd5b60019150606060405190810160405280602881526020017f687474703a2f2f7661756c746c6f6769632e636f6d2f707265766965772d757281526020017f6c2d3132336173640000000000000000000000000000000000000000000000008152509050915091565b6000809054906101000a900473ffffffffffffffffffffffffffffffffffffffff1681565b6000606080610d6033600360009054906101000a900473ffffffffffffffffffffffffffffffffffffffff1673ffffffffffffffffffffffffffffffffffffffff16610f4290919063ffffffff16565b1515610dd4576040517f08c379a00000000000000000000000000000000000000000000000000000000081526004018080602001828103825260178152602001807f6f6e6c79207265676973746572656420616c6c6f77656400000000000000000081525060200191505060405180910390fd5b600192506040805190810160405280600681526020017f71776572747900000000000000000000000000000000000000000000000000008152509150606060405190810160405280602381526020017f687474703a2f2f7661756c746c6f6769632e636f6d2f726563656970742d313281526020017f333435000000000000000000000000000000000000000000000000000000000081525090509193909250565b6000610ec333600360009054906101000a900473ffffffffffffffffffffffffffffffffffffffff1673ffffffffffffffffffffffffffffffffffffffff16610f4290919063ffffffff16565b1515610f37576040517f08c379a00000000000000000000000000000000000000000000000000000000081526004018080602001828103825260178152602001807f6f6e6c79207265676973746572656420616c6c6f77656400000000000000000081525060200191505060405180910390fd5b600190509392505050565b60008273ffffffffffffffffffffffffffffffffffffffff166317e7dd226040805190810160405280601681526020017f6170706c69636174696f6e5f7265676973746572656400000000000000000000815250846040516020018083805190602001908083835b602083101515610fcf5780518252602082019150602081019050602083039250610faa565b6001836020036101000a0380198251168184511680821785525050505050509050018273ffffffffffffffffffffffffffffffffffffffff1673ffffffffffffffffffffffffffffffffffffffff166c01000000000000000000000000028152601401925050506040516020818303038152906040526040518082805190602001908083835b60208310151561107a5780518252602082019150602081019050602083039250611055565b6001836020036101000a03801982511681845116808217855250505050505090500191505060405180910390206040518263ffffffff167c0100000000000000000000000000000000000000000000000000000000028152600401808260001916600019168152602001915050602060405180830381600087803b15801561110157600080fd5b505af1158015611115573d6000803e3d6000fd5b505050506040513d602081101561112b57600080fd5b8101908080519060200190929190505050905092915050565b61114c612045565b611156838361140d565b15156111ca576040517f08c379a00000000000000000000000000000000000000000000000000000000081526004018080602001828103825260158152602001807f53657373696f6e206973206e6f7420657869737473000000000000000000000081525060200191505060405180910390fd5b6114058373ffffffffffffffffffffffffffffffffffffffff1663a209a29c6040805190810160405280601081526020017f73657373696f6e5f6b696f736b5f696400000000000000000000000000000000815250856040516020018083805190602001908083835b6020831015156112585780518252602082019150602081019050602083039250611233565b6001836020036101000a038019825116818451168082178552505050505050905001828152602001925050506040516020818303038152906040526040518082805190602001908083835b6020831015156112c857805182526020820191506020810190506020830392506112a3565b6001836020036101000a03801982511681845116808217855250505050505090500191505060405180910390206040518263ffffffff167c0100000000000000000000000000000000000000000000000000000000028152600401808260001916600019168152602001915050600060405180830381600087803b15801561134f57600080fd5b505af1158015611363573d6000803e3d6000fd5b505050506040513d6000823e3d601f19601f82011682018060405250602081101561138d57600080fd5b8101908080516401000000008111156113a557600080fd5b828101905060208101848111156113bb57600080fd5b81518560018202830111640100000000821117156113d857600080fd5b50509291905050508473ffffffffffffffffffffffffffffffffffffffff166115d490919063ffffffff16565b905092915050565b60008273ffffffffffffffffffffffffffffffffffffffff166317e7dd226040805190810160405280600e81526020017f73657373696f6e2e657869737473000000000000000000000000000000000000815250846040516020018083805190602001908083835b60208310151561149a5780518252602082019150602081019050602083039250611475565b6001836020036101000a038019825116818451168082178552505050505050905001828152602001925050506040516020818303038152906040526040518082805190602001908083835b60208310151561150a57805182526020820191506020810190506020830392506114e5565b6001836020036101000a03801982511681845116808217855250505050505090500191505060405180910390206040518263ffffffff167c0100000000000000000000000000000000000000000000000000000000028152600401808260001916600019168152602001915050602060405180830381600087803b15801561159157600080fd5b505af11580156115a5573d6000803e3d6000fd5b505050506040513d60208110156115bb57600080fd5b8101908080519060200190929190505050905092915050565b6115dc612045565b6115e68383611e31565b151561165a576040517f08c379a00000000000000000000000000000000000000000000000000000000081526004018080602001828103825260138152602001807f4b696f736b206973206e6f74206578697374730000000000000000000000000081525060200191505060405180910390fd5b6080604051908101604052808381526020018473ffffffffffffffffffffffffffffffffffffffff1663a209a29c6040805190810160405280601681526020017f6b696f736b5f6c6f636174696f6e5f616464726573730000000000000000000081525086604051602001808060200180602001838103835285818151815260200191508051906020019080838360005b838110156117065780820151818401526020810190506116eb565b50505050905090810190601f1680156117335780820380516001836020036101000a031916815260200191505b50838103825284818151815260200191508051906020019080838360005b8381101561176c578082015181840152602081019050611751565b50505050905090810190601f1680156117995780820380516001836020036101000a031916815260200191505b509450505050506040516020818303038152906040526040518082805190602001908083835b6020831015156117e457805182526020820191506020810190506020830392506117bf565b6001836020036101000a03801982511681845116808217855250505050505090500191505060405180910390206040518263ffffffff167c0100000000000000000000000000000000000000000000000000000000028152600401808260001916600019168152602001915050600060405180830381600087803b15801561186b57600080fd5b505af115801561187f573d6000803e3d6000fd5b505050506040513d6000823e3d601f19601f8201168201806040525060208110156118a957600080fd5b8101908080516401000000008111156118c157600080fd5b828101905060208101848111156118d757600080fd5b81518560018202830111640100000000821117156118f457600080fd5b505092919050505081526020018473ffffffffffffffffffffffffffffffffffffffff1663a209a29c6040805190810160405280600a81526020017f6b696f736b5f6e616d650000000000000000000000000000000000000000000081525086604051602001808060200180602001838103835285818151815260200191508051906020019080838360005b8381101561199b578082015181840152602081019050611980565b50505050905090810190601f1680156119c85780820380516001836020036101000a031916815260200191505b50838103825284818151815260200191508051906020019080838360005b83811015611a015780820151818401526020810190506119e6565b50505050905090810190601f168015611a2e5780820380516001836020036101000a031916815260200191505b509450505050506040516020818303038152906040526040518082805190602001908083835b602083101515611a795780518252602082019150602081019050602083039250611a54565b6001836020036101000a03801982511681845116808217855250505050505090500191505060405180910390206040518263ffffffff167c0100000000000000000000000000000000000000000000000000000000028152600401808260001916600019168152602001915050600060405180830381600087803b158015611b0057600080fd5b505af1158015611b14573d6000803e3d6000fd5b505050506040513d6000823e3d601f19601f820116820180604052506020811015611b3e57600080fd5b810190808051640100000000811115611b5657600080fd5b82810190506020810184811115611b6c57600080fd5b8151856001820283011164010000000082111715611b8957600080fd5b505092919050505081526020018473ffffffffffffffffffffffffffffffffffffffff1663a209a29c6040805190810160405280600f81526020017f6b696f736b5f74696d655f7a6f6e65000000000000000000000000000000000081525086604051602001808060200180602001838103835285818151815260200191508051906020019080838360005b83811015611c30578082015181840152602081019050611c15565b50505050905090810190601f168015611c5d5780820380516001836020036101000a031916815260200191505b50838103825284818151815260200191508051906020019080838360005b83811015611c96578082015181840152602081019050611c7b565b50505050905090810190601f168015611cc35780820380516001836020036101000a031916815260200191505b509450505050506040516020818303038152906040526040518082805190602001908083835b602083101515611d0e5780518252602082019150602081019050602083039250611ce9565b6001836020036101000a03801982511681845116808217855250505050505090500191505060405180910390206040518263ffffffff167c0100000000000000000000000000000000000000000000000000000000028152600401808260001916600019168152602001915050600060405180830381600087803b158015611d9557600080fd5b505af1158015611da9573d6000803e3d6000fd5b505050506040513d6000823e3d601f19601f820116820180604052506020811015611dd357600080fd5b810190808051640100000000811115611deb57600080fd5b82810190506020810184811115611e0157600080fd5b8151856001820283011164010000000082111715611e1e57600080fd5b5050929190505050815250905092915050565b60008273ffffffffffffffffffffffffffffffffffffffff166317e7dd226040805190810160405280600c81526020017f6b696f736b2e6578697374730000000000000000000000000000000000000000815250846040516020018083805190602001908083835b602083101515611ebe5780518252602082019150602081019050602083039250611e99565b6001836020036101000a03801982511681845116808217855250505050505090500182805190602001908083835b602083101515611f115780518252602082019150602081019050602083039250611eec565b6001836020036101000a038019825116818451168082178552505050505050905001925050506040516020818303038152906040526040518082805190602001908083835b602083101515611f7b5780518252602082019150602081019050602083039250611f56565b6001836020036101000a03801982511681845116808217855250505050505090500191505060405180910390206040518263ffffffff167c0100000000000000000000000000000000000000000000000000000000028152600401808260001916600019168152602001915050602060405180830381600087803b15801561200257600080fd5b505af1158015612016573d6000803e3d6000fd5b505050506040513d602081101561202c57600080fd5b8101908080519060200190929190505050905092915050565b6080604051908101604052806060815260200160608152602001606081526020016060815250905600a165627a7a72305820ca890f5c030a1519e3089b94ab89b3cb6276fc18b771e530b0fcb10b9bcf94030029",
  "source": "pragma solidity 0.4.24;\n\nimport {ASessionController} from \"./Controllers.sol\";\nimport {KioskLib, SessionLib, ApplicationLib} from \"../libs/Libraries.sol\";\nimport \"../Platform.sol\";\n\ncontract SessionController is ASessionController, Named(\"session-controller\"), Mortal, Component {\n\n    using SessionLib for address;\n    using ApplicationLib for address;\n\n    modifier isRegistered {\n        require(database.isRegistered(msg.sender), \"only registered allowed\");\n        _;\n    }\n\n    constructor(address _config) Component(_config) public {}\n\n    function getKiosk(\n        uint256 _sessionId\n    ) \n        public \n        isRegistered \n        view \n        returns (\n            string memory _id, \n            string memory _location, \n            string memory _name, \n            string memory _timezone\n        ) \n    {\n        KioskLib.Kiosk memory kiosk = database.retrieveSessionKiosk(_sessionId);\n        return (kiosk.id, kiosk.location, kiosk.name, kiosk.timezone);\n    }\n\n    function scanQRCodeWithLights(uint256 _sessionId) public view isRegistered returns (bool _success, string memory _url) {\n        _success = true;\n        _url = \"http://vaultlogic.com/preview-with-light-url-123asd\";\n    }\n\n    function scanQRCode(uint256 _sessionId) public view isRegistered returns (bool _success, string memory _url) {\n        _success = true;\n        _url = \"http://vaultlogic.com/preview-url-123asd\";\n    }\n\n    function stopQRScanning(uint256 _sessionId) public view isRegistered returns (bool _success) {\n        _success = true;\n    }\n\n    function getReceiptUrl(uint256 _sessionId) public view isRegistered returns (bool _success, string memory _id, string memory _url) {\n        _success = true;\n        _id = \"qwerty\";\n        _url = \"http://vaultlogic.com/receipt-12345\";\n    }\n\n    function printReceipt(uint256 _sessionId, string _id, string _data) public view isRegistered returns (bool _success) {\n        _success = true;\n    }\n\n}\n",
  "sourcePath": "/home/andrew/vault-logic-project/Development/test/vault-logic-api/truffle/contracts/controllers/SessionController.sol",
  "compiler": {
    "name": "solc",
    "version": "0.4.24+commit.e67f0147.Emscripten.clang"
  },
  "schemaVersion": "2.0.1",
  "updatedAt": "2018-10-16T08:22:15.002Z"
}