{
  "contractName": "SessionOracle",
  "abi": [
    {
      "constant": true,
      "inputs": [],
      "name": "name",
      "outputs": [
        {
          "name": "",
          "type": "string"
        }
      ],
      "payable": false,
      "stateMutability": "view",
      "type": "function"
    },
    {
      "constant": false,
      "inputs": [],
      "name": "kill",
      "outputs": [],
      "payable": false,
      "stateMutability": "nonpayable",
      "type": "function"
    },
    {
      "constant": true,
      "inputs": [],
      "name": "owner",
      "outputs": [
        {
          "name": "",
          "type": "address"
        }
      ],
      "payable": false,
      "stateMutability": "view",
      "type": "function"
    },
    {
      "inputs": [
        {
          "name": "_config",
          "type": "address"
        }
      ],
      "payable": false,
      "stateMutability": "nonpayable",
      "type": "constructor"
    },
    {
      "anonymous": false,
      "inputs": [
        {
          "indexed": false,
          "name": "sessionId",
          "type": "uint256"
        }
      ],
      "name": "CloseSession",
      "type": "event"
    },
    {
      "constant": false,
      "inputs": [
        {
          "name": "sessionId",
          "type": "uint256"
        }
      ],
      "name": "closeSession",
      "outputs": [],
      "payable": false,
      "stateMutability": "nonpayable",
      "type": "function"
    }
  ],
  "bytecode": "0x608060405234801561001057600080fd5b506040516020806109db833981018060405281019080805190602001909291905050508060006040805190810160405280600e81526020017f73657373696f6e2d6f7261636c65000000000000000000000000000000000000815250336000806101000a81548173ffffffffffffffffffffffffffffffffffffffff021916908373ffffffffffffffffffffffffffffffffffffffff16021790555080600190805190602001906100c29291906105a4565b50508173ffffffffffffffffffffffffffffffffffffffff1663713b563f6040518163ffffffff167c0100000000000000000000000000000000000000000000000000000000028152600401602060405180830381600087803b15801561012857600080fd5b505af115801561013c573d6000803e3d6000fd5b505050506040513d602081101561015257600080fd5b8101908080519060200190929190505050600360006101000a81548173ffffffffffffffffffffffffffffffffffffffff021916908373ffffffffffffffffffffffffffffffffffffffff1602179055508173ffffffffffffffffffffffffffffffffffffffff1663d0496d6a6040518163ffffffff167c0100000000000000000000000000000000000000000000000000000000028152600401602060405180830381600087803b15801561020757600080fd5b505af115801561021b573d6000803e3d6000fd5b505050506040513d602081101561023157600080fd5b8101908080519060200190929190505050600260006101000a81548173ffffffffffffffffffffffffffffffffffffffff021916908373ffffffffffffffffffffffffffffffffffffffff160217905550600260009054906101000a900473ffffffffffffffffffffffffffffffffffffffff1673ffffffffffffffffffffffffffffffffffffffff1663693ec85e60016040518263ffffffff167c010000000000000000000000000000000000000000000000000000000002815260040180806020018281038252838181546001816001161561010002031660029004815260200191508054600181600116156101000203166002900480156103765780601f1061034b57610100808354040283529160200191610376565b820191906000526020600020905b81548152906001019060200180831161035957829003601f168201915b505092505050602060405180830381600087803b15801561039657600080fd5b505af11580156103aa573d6000803e3d6000fd5b505050506040513d60208110156103c057600080fd5b8101908080519060200190929190505050905060008173ffffffffffffffffffffffffffffffffffffffff16141515610470578073ffffffffffffffffffffffffffffffffffffffff166341c0e1b56040518163ffffffff167c0100000000000000000000000000000000000000000000000000000000028152600401600060405180830381600087803b15801561045757600080fd5b505af115801561046b573d6000803e3d6000fd5b505050505b600260009054906101000a900473ffffffffffffffffffffffffffffffffffffffff1673ffffffffffffffffffffffffffffffffffffffff1663f2c298be60016040518263ffffffff167c010000000000000000000000000000000000000000000000000000000002815260040180806020018281038252838181546001816001161561010002031660029004815260200191508054600181600116156101000203166002900480156105645780601f1061053957610100808354040283529160200191610564565b820191906000526020600020905b81548152906001019060200180831161054757829003601f168201915b505092505050600060405180830381600087803b15801561058457600080fd5b505af1158015610598573d6000803e3d6000fd5b50505050505050610649565b828054600181600116156101000203166002900490600052602060002090601f016020900481019282601f106105e557805160ff1916838001178555610613565b82800160010185558215610613579182015b828111156106125782518255916020019190600101906105f7565b5b5090506106209190610624565b5090565b61064691905b8082111561064257600081600090555060010161062a565b5090565b90565b610383806106586000396000f300608060405260043610610062576000357c0100000000000000000000000000000000000000000000000000000000900463ffffffff16806306fdde031461006757806341c0e1b5146100f75780638da5cb5b1461010e578063a3bfdf4714610165575b600080fd5b34801561007357600080fd5b5061007c610192565b6040518080602001828103825283818151815260200191508051906020019080838360005b838110156100bc5780820151818401526020810190506100a1565b50505050905090810190601f1680156100e95780820380516001836020036101000a031916815260200191505b509250505060405180910390f35b34801561010357600080fd5b5061010c610230565b005b34801561011a57600080fd5b506101236102f8565b604051808273ffffffffffffffffffffffffffffffffffffffff1673ffffffffffffffffffffffffffffffffffffffff16815260200191505060405180910390f35b34801561017157600080fd5b506101906004803603810190808035906020019092919050505061031d565b005b60018054600181600116156101000203166002900480601f0160208091040260200160405190810160405280929190818152602001828054600181600116156101000203166002900480156102285780601f106101fd57610100808354040283529160200191610228565b820191906000526020600020905b81548152906001019060200180831161020b57829003601f168201915b505050505081565b6000809054906101000a900473ffffffffffffffffffffffffffffffffffffffff1673ffffffffffffffffffffffffffffffffffffffff163273ffffffffffffffffffffffffffffffffffffffff161415156102f4576040517f08c379a00000000000000000000000000000000000000000000000000000000081526004018080602001828103825260128152602001807f6f6e6c79206f776e657220616c6c6f776564000000000000000000000000000081525060200191505060405180910390fd5b6000ff5b6000809054906101000a900473ffffffffffffffffffffffffffffffffffffffff1681565b7f71c2e31dde72b491e4b02270b0b15a6a4fc0dd6d696c8d0f43604a92ff109193816040518082815260200191505060405180910390a1505600a165627a7a72305820123ff1a32d05a9b781ebcfbf8c554b0bd1e143fbfe76f88982bcc73a9bd683870029",
  "source": "pragma solidity 0.4.24;\n\nimport {ASessionOracle} from \"./Oracles.sol\";\nimport \"../Platform.sol\";\n\ncontract SessionOracle is ASessionOracle, Named(\"session-oracle\"), Mortal, Component  {\n\n    constructor(address _config) Component(_config) public {}\n\n    function closeSession(uint256 sessionId) public {\n        emit CloseSession(sessionId);\n    }\n\n}",
  "sourcePath": "/home/andrew/vault-logic-project/Development/test/vault-logic-api/truffle/contracts/oracles/SessionOracle.sol",
  "compiler": {
    "name": "solc",
    "version": "0.4.24+commit.e67f0147.Emscripten.clang"
  },
  "schemaVersion": "2.0.1",
  "updatedAt": "2018-10-16T13:15:07.722Z"
}