{
  "contractName": "SessionController",
  "abi": [
    {
      "constant": true,
      "inputs": [],
      "name": "name",
      "outputs": [
        {
          "name": "",
          "type": "string"
        }
      ],
      "payable": false,
      "stateMutability": "view",
      "type": "function"
    },
    {
      "constant": false,
      "inputs": [],
      "name": "kill",
      "outputs": [],
      "payable": false,
      "stateMutability": "nonpayable",
      "type": "function"
    },
    {
      "constant": true,
      "inputs": [],
      "name": "owner",
      "outputs": [
        {
          "name": "",
          "type": "address"
        }
      ],
      "payable": false,
      "stateMutability": "view",
      "type": "function"
    },
    {
      "inputs": [
        {
          "name": "_config",
          "type": "address"
        }
      ],
      "payable": false,
      "stateMutability": "nonpayable",
      "type": "constructor"
    },
    {
      "constant": false,
      "inputs": [
        {
          "name": "_sessionId",
          "type": "uint256"
        },
        {
          "name": "_success",
          "type": "function"
        },
        {
          "name": "_fail",
          "type": "function"
        }
      ],
      "name": "closeSession",
      "outputs": [],
      "payable": false,
      "stateMutability": "nonpayable",
      "type": "function"
    },
    {
      "constant": false,
      "inputs": [
        {
          "name": "_sessionId",
          "type": "uint256"
        },
        {
          "name": "_callback",
          "type": "function"
        }
      ],
      "name": "respondClose",
      "outputs": [],
      "payable": false,
      "stateMutability": "nonpayable",
      "type": "function"
    },
    {
      "constant": false,
      "inputs": [
        {
          "name": "_sessionId",
          "type": "uint256"
        },
        {
          "name": "_callback",
          "type": "function"
        }
      ],
      "name": "respondFailClose",
      "outputs": [],
      "payable": false,
      "stateMutability": "nonpayable",
      "type": "function"
    }
  ],
  "bytecode": "0x608060405234801561001057600080fd5b506040516020806108fa833981016040818152915182820190925260128082527f73657373696f6e2d636f6e74726f6c6c657200000000000000000000000000006020830190815260008054600160a060020a03191633179055839291610079916001916102a7565b505080600160a060020a031663713b563f6040518163ffffffff167c0100000000000000000000000000000000000000000000000000000000028152600401602060405180830381600087803b1580156100d257600080fd5b505af11580156100e6573d6000803e3d6000fd5b505050506040513d60208110156100fc57600080fd5b505160038054600160a060020a031916600160a060020a03928316179055604080517fd0496d6a00000000000000000000000000000000000000000000000000000000815290519183169163d0496d6a916004808201926020929091908290030181600087803b15801561016f57600080fd5b505af1158015610183573d6000803e3d6000fd5b505050506040513d602081101561019957600080fd5b505160028054600160a060020a031916600160a060020a03928316178082556040517ff2c298be00000000000000000000000000000000000000000000000000000000815260206004820190815260018054610100818316150260001901169490940460248301819052929094169363f2c298be939290918291604490910190849080156102685780601f1061023d57610100808354040283529160200191610268565b820191906000526020600020905b81548152906001019060200180831161024b57829003601f168201915b505092505050600060405180830381600087803b15801561028857600080fd5b505af115801561029c573d6000803e3d6000fd5b505050505050610342565b828054600181600116156101000203166002900490600052602060002090601f016020900481019282601f106102e857805160ff1916838001178555610315565b82800160010185558215610315579182015b828111156103155782518255916020019190600101906102fa565b50610321929150610325565b5090565b61033f91905b80821115610321576000815560010161032b565b90565b6105a9806103516000396000f3006080604052600436106100775763ffffffff7c010000000000000000000000000000000000000000000000000000000060003504166306fdde03811461007c5780630c4bd35014610106578063389424ea1461010657806341c0e1b514610147578063830cc51e1461015c5780638da5cb5b146101a8575b600080fd5b34801561008857600080fd5b506100916101e6565b6040805160208082528351818301528351919283929083019185019080838360005b838110156100cb5781810151838201526020016100b3565b50505050905090810190601f1680156100f85780820380516001836020036101000a031916815260200191505b509250505060405180910390f35b34801561011257600080fd5b506101456004356c010000000000000000000000006024359081049068010000000000000000900463ffffffff16610273565b005b34801561015357600080fd5b506101456102e5565b34801561016857600080fd5b506101456004356c010000000000000000000000006024358181049163ffffffff680100000000000000009283900481169260443592830492041661036f565b3480156101b457600080fd5b506101bd610561565b6040805173ffffffffffffffffffffffffffffffffffffffff9092168252519081900360200190f35b60018054604080516020600284861615610100026000190190941693909304601f8101849004840282018401909252818152929183018282801561026b5780601f106102405761010080835404028352916020019161026b565b820191906000526020600020905b81548152906001019060200180831161024e57829003601f168201915b505050505081565b8181846040518263ffffffff167c010000000000000000000000000000000000000000000000000000000002815260040180828152602001915050600060405180830381600087803b1580156102c857600080fd5b505af11580156102dc573d6000803e3d6000fd5b50505050505050565b60005473ffffffffffffffffffffffffffffffffffffffff16321461036b57604080517f08c379a000000000000000000000000000000000000000000000000000000000815260206004820152601260248201527f6f6e6c79206f776e657220616c6c6f7765640000000000000000000000000000604482015290519081900360640190fd5b6000ff5b600254604080518082018252600f81527f73657373696f6e2d6d616e616765720000000000000000000000000000000000602080830191825292517f693ec85e0000000000000000000000000000000000000000000000000000000081526004810193845282516024820152825173ffffffffffffffffffffffffffffffffffffffff9095169463693ec85e949283926044019180838360005b83811015610421578181015183820152602001610409565b50505050905090810190601f16801561044e5780820380516001836020036101000a031916815260200191505b5092505050602060405180830381600087803b15801561046d57600080fd5b505af1158015610481573d6000803e3d6000fd5b505050506040513d602081101561049757600080fd5b5051604080517f2d16d9d3000000000000000000000000000000000000000000000000000000008152336004820152602481018890526801000000000000000064010000000080890263ffffffff808a16919091178302604485015290870290861617026064820152905173ffffffffffffffffffffffffffffffffffffffff90921691632d16d9d39160848082019260009290919082900301818387803b15801561054257600080fd5b505af1158015610556573d6000803e3d6000fd5b505050505050505050565b60005473ffffffffffffffffffffffffffffffffffffffff16815600a165627a7a72305820dd6d2989d007bb5f45b4b1b760576a9af84f8b212ae80dcd0b42094d7f0370090029",
  "source": "pragma solidity 0.4.24;\n\nimport \"../platform/Named.sol\";\nimport \"../platform/Mortal.sol\";\nimport \"../platform/Component.sol\";\nimport \"./api/ASessionController.sol\";\nimport \"../managers/api/ASessionManager.sol\";\n\ncontract SessionController is ASessionController, Named(\"session-controller\"), Mortal, Component {\n\n    string constant MANAGER = \"session-manager\";\n\n    constructor(address _config) Component(_config) public {}\n\n    // formatter:off\n    function closeSession(\n        uint256 _sessionId,\n        function(uint256) external _success,\n        function(uint256) external _fail\n    )\n        external\n    {\n        ASessionManager(context.get(MANAGER)).closeSession(msg.sender, _sessionId, _success, _fail);\n    }\n    // formatter:on\n\n    // formatter:off\n    function respondClose(\n        uint256 _sessionId,\n        function(uint256) external _callback\n    )\n        public\n    // formatter:on\n    {\n        _callback(_sessionId);\n    }\n\n    // formatter:off\n    function respondFailClose(\n        uint256 _sessionId,\n        function(uint256) external _callback\n    )\n        public\n    // formatter:on\n    {\n        _callback(_sessionId);\n    }\n\n}\n",
  "sourcePath": "/home/andrew/vault-logic-project/Development/test/vault-logic-api/truffle/contracts/controllers/SessionController.sol",
  "compiler": {
    "name": "solc",
    "version": "0.4.24+commit.e67f0147.Emscripten.clang"
  },
  "schemaVersion": "2.0.1",
  "updatedAt": "2018-11-20T09:03:31.963Z"
}