{
  "contractName": "SessionManager",
  "abi": [
    {
      "constant": true,
      "inputs": [],
      "name": "name",
      "outputs": [
        {
          "name": "",
          "type": "string"
        }
      ],
      "payable": false,
      "stateMutability": "view",
      "type": "function"
    },
    {
      "constant": false,
      "inputs": [],
      "name": "kill",
      "outputs": [],
      "payable": false,
      "stateMutability": "nonpayable",
      "type": "function"
    },
    {
      "constant": true,
      "inputs": [],
      "name": "owner",
      "outputs": [
        {
          "name": "",
          "type": "address"
        }
      ],
      "payable": false,
      "stateMutability": "view",
      "type": "function"
    },
    {
      "inputs": [
        {
          "name": "regAddr",
          "type": "address"
        }
      ],
      "payable": false,
      "stateMutability": "nonpayable",
      "type": "constructor"
    },
    {
      "constant": false,
      "inputs": [
        {
          "name": "_sessionId",
          "type": "uint256"
        },
        {
          "name": "_appId",
          "type": "uint256"
        },
        {
          "name": "_xToken",
          "type": "string"
        },
        {
          "name": "_kioskId",
          "type": "string"
        }
      ],
      "name": "createSession",
      "outputs": [],
      "payable": false,
      "stateMutability": "nonpayable",
      "type": "function"
    },
    {
      "constant": false,
      "inputs": [
        {
          "name": "_sessionId",
          "type": "uint256"
        }
      ],
      "name": "closeSession",
      "outputs": [],
      "payable": false,
      "stateMutability": "nonpayable",
      "type": "function"
    },
    {
      "constant": false,
      "inputs": [
        {
          "name": "_sessionId",
          "type": "uint256"
        }
      ],
      "name": "confirmClose",
      "outputs": [],
      "payable": false,
      "stateMutability": "nonpayable",
      "type": "function"
    },
    {
      "constant": true,
      "inputs": [
        {
          "name": "_sessionId",
          "type": "uint256"
        }
      ],
      "name": "isActive",
      "outputs": [
        {
          "name": "",
          "type": "bool"
        }
      ],
      "payable": false,
      "stateMutability": "view",
      "type": "function"
    },
    {
      "constant": true,
      "inputs": [
        {
          "name": "_sessionId",
          "type": "uint256"
        }
      ],
      "name": "isHasActiveCashIn",
      "outputs": [
        {
          "name": "",
          "type": "bool"
        }
      ],
      "payable": false,
      "stateMutability": "view",
      "type": "function"
    },
    {
      "constant": false,
      "inputs": [
        {
          "name": "_sessionId",
          "type": "uint256"
        }
      ],
      "name": "activate",
      "outputs": [
        {
          "name": "",
          "type": "bool"
        }
      ],
      "payable": false,
      "stateMutability": "nonpayable",
      "type": "function"
    }
  ],
  "bytecode": "0x60806040523480156200001157600080fd5b5060405160208062003176833981018060405281019080805190602001909291905050508060006040805190810160405280600f81526020017f73657373696f6e2d6d616e616765720000000000000000000000000000000000815250336000806101000a81548173ffffffffffffffffffffffffffffffffffffffff021916908373ffffffffffffffffffffffffffffffffffffffff1602179055508060019080519060200190620000c6929190620005bf565b50508173ffffffffffffffffffffffffffffffffffffffff1663713b563f6040518163ffffffff167c0100000000000000000000000000000000000000000000000000000000028152600401602060405180830381600087803b1580156200012d57600080fd5b505af115801562000142573d6000803e3d6000fd5b505050506040513d60208110156200015957600080fd5b8101908080519060200190929190505050600360006101000a81548173ffffffffffffffffffffffffffffffffffffffff021916908373ffffffffffffffffffffffffffffffffffffffff1602179055508173ffffffffffffffffffffffffffffffffffffffff1663d0496d6a6040518163ffffffff167c0100000000000000000000000000000000000000000000000000000000028152600401602060405180830381600087803b1580156200020f57600080fd5b505af115801562000224573d6000803e3d6000fd5b505050506040513d60208110156200023b57600080fd5b8101908080519060200190929190505050600260006101000a81548173ffffffffffffffffffffffffffffffffffffffff021916908373ffffffffffffffffffffffffffffffffffffffff160217905550600260009054906101000a900473ffffffffffffffffffffffffffffffffffffffff1673ffffffffffffffffffffffffffffffffffffffff1663693ec85e60016040518263ffffffff167c01000000000000000000000000000000000000000000000000000000000281526004018080602001828103825283818154600181600116156101000203166002900481526020019150805460018160011615610100020316600290048015620003845780601f10620003585761010080835404028352916020019162000384565b820191906000526020600020905b8154815290600101906020018083116200036657829003601f168201915b505092505050602060405180830381600087803b158015620003a557600080fd5b505af1158015620003ba573d6000803e3d6000fd5b505050506040513d6020811015620003d157600080fd5b8101908080519060200190929190505050905060008173ffffffffffffffffffffffffffffffffffffffff1614151562000484578073ffffffffffffffffffffffffffffffffffffffff166341c0e1b56040518163ffffffff167c0100000000000000000000000000000000000000000000000000000000028152600401600060405180830381600087803b1580156200046a57600080fd5b505af11580156200047f573d6000803e3d6000fd5b505050505b600260009054906101000a900473ffffffffffffffffffffffffffffffffffffffff1673ffffffffffffffffffffffffffffffffffffffff1663f2c298be60016040518263ffffffff167c010000000000000000000000000000000000000000000000000000000002815260040180806020018281038252838181546001816001161561010002031660029004815260200191508054600181600116156101000203166002900480156200057c5780601f1062000550576101008083540402835291602001916200057c565b820191906000526020600020905b8154815290600101906020018083116200055e57829003601f168201915b505092505050600060405180830381600087803b1580156200059d57600080fd5b505af1158015620005b2573d6000803e3d6000fd5b505050505050506200066e565b828054600181600116156101000203166002900490600052602060002090601f016020900481019282601f106200060257805160ff191683800117855562000633565b8280016001018555821562000633579182015b828111156200063257825182559160200191906001019062000615565b5b50905062000642919062000646565b5090565b6200066b91905b80821115620006675760008160009055506001016200064d565b5090565b90565b612af8806200067e6000396000f300608060405260043610610099576000357c0100000000000000000000000000000000000000000000000000000000900463ffffffff16806306fdde031461009e578063081907261461012e57806341c0e1b5146101f15780635a1695af1461020857806382afd23b1461024d578063882d5f7a146102925780638da5cb5b146102bf578063a3bfdf4714610316578063b260c42a14610343575b600080fd5b3480156100aa57600080fd5b506100b3610388565b6040518080602001828103825283818151815260200191508051906020019080838360005b838110156100f35780820151818401526020810190506100d8565b50505050905090810190601f1680156101205780820380516001836020036101000a031916815260200191505b509250505060405180910390f35b34801561013a57600080fd5b506101ef6004803603810190808035906020019092919080359060200190929190803590602001908201803590602001908080601f0160208091040260200160405190810160405280939291908181526020018383808284378201915050505050509192919290803590602001908201803590602001908080601f0160208091040260200160405190810160405280939291908181526020018383808284378201915050505050509192919290505050610426565b005b3480156101fd57600080fd5b506102066105a0565b005b34801561021457600080fd5b5061023360048036038101908080359060200190929190505050610668565b604051808215151515815260200191505060405180910390f35b34801561025957600080fd5b50610278600480360381019080803590602001909291905050506106bc565b604051808215151515815260200191505060405180910390f35b34801561029e57600080fd5b506102bd60048036038101908080359060200190929190505050610729565b005b3480156102cb57600080fd5b506102d4610954565b604051808273ffffffffffffffffffffffffffffffffffffffff1673ffffffffffffffffffffffffffffffffffffffff16815260200191505060405180910390f35b34801561032257600080fd5b5061034160048036038101908080359060200190929190505050610979565b005b34801561034f57600080fd5b5061036e60048036038101908080359060200190929190505050610cb9565b604051808215151515815260200191505060405180910390f35b60018054600181600116156101000203166002900480601f01602080910402602001604051908101604052809291908181526020018280546001816001161561010002031660029004801561041e5780601f106103f35761010080835404028352916020019161041e565b820191906000526020600020905b81548152906001019060200180831161040157829003601f168201915b505050505081565b61042e612a7f565b600060e0604051908101604052808781526020018681526020018481526020018581526020016000600481111561046157fe5b81526020016000151581526020016000151581525091506104c382600360009054906101000a900473ffffffffffffffffffffffffffffffffffffffff1673ffffffffffffffffffffffffffffffffffffffff16610e1590919063ffffffff16565b5061050f86600360009054906101000a900473ffffffffffffffffffffffffffffffffffffffff1673ffffffffffffffffffffffffffffffffffffffff16611ab890919063ffffffff16565b90508073ffffffffffffffffffffffffffffffffffffffff1663d7bbd1d4876040518263ffffffff167c010000000000000000000000000000000000000000000000000000000002815260040180828152602001915050600060405180830381600087803b15801561058057600080fd5b505af1158015610594573d6000803e3d6000fd5b50505050505050505050565b6000809054906101000a900473ffffffffffffffffffffffffffffffffffffffff1673ffffffffffffffffffffffffffffffffffffffff163273ffffffffffffffffffffffffffffffffffffffff16141515610664576040517f08c379a00000000000000000000000000000000000000000000000000000000081526004018080602001828103825260128152602001807f6f6e6c79206f776e657220616c6c6f776564000000000000000000000000000081525060200191505060405180910390fd5b6000ff5b60006106b582600360009054906101000a900473ffffffffffffffffffffffffffffffffffffffff1673ffffffffffffffffffffffffffffffffffffffff16611b7290919063ffffffff16565b9050919050565b6000600160048111156106cb57fe5b61071683600360009054906101000a900473ffffffffffffffffffffffffffffffffffffffff1673ffffffffffffffffffffffffffffffffffffffff16611d3990919063ffffffff16565b600481111561072157fe5b149050919050565b60008061077783600360009054906101000a900473ffffffffffffffffffffffffffffffffffffffff1673ffffffffffffffffffffffffffffffffffffffff16611d3990919063ffffffff16565b91506003600481111561078657fe5b82600481111561079257fe5b14151561082d576040517f08c379a000000000000000000000000000000000000000000000000000000000815260040180806020018281038252603d8152602001807f53657373696f6e20636f6e6669726d20636c6f7365206661696c65642e20526581526020017f71756972656420434c4f53455f5245515545535445442073746174652e00000081525060400191505060405180910390fd5b61087b836004600360009054906101000a900473ffffffffffffffffffffffffffffffffffffffff1673ffffffffffffffffffffffffffffffffffffffff16611f0b9092919063ffffffff16565b6108c683600360009054906101000a900473ffffffffffffffffffffffffffffffffffffffff1673ffffffffffffffffffffffffffffffffffffffff16611ab890919063ffffffff16565b90508073ffffffffffffffffffffffffffffffffffffffff1663ae1f1ee1846040518263ffffffff167c010000000000000000000000000000000000000000000000000000000002815260040180828152602001915050600060405180830381600087803b15801561093757600080fd5b505af115801561094b573d6000803e3d6000fd5b50505050505050565b6000809054906101000a900473ffffffffffffffffffffffffffffffffffffffff1681565b60006109c682600360009054906101000a900473ffffffffffffffffffffffffffffffffffffffff1673ffffffffffffffffffffffffffffffffffffffff16611d3990919063ffffffff16565b9050600160048111156109d557fe5b8160048111156109e157fe5b141515610a7c576040517f08c379a00000000000000000000000000000000000000000000000000000000081526004018080602001828103825260348152602001807f53657373696f6e207265717565737420636c6f7365206661696c65642e20526581526020017f717569726564204143544956452073746174652e00000000000000000000000081525060400191505060405180910390fd5b610ac98260038060009054906101000a900473ffffffffffffffffffffffffffffffffffffffff1673ffffffffffffffffffffffffffffffffffffffff16611f0b9092919063ffffffff16565b600260009054906101000a900473ffffffffffffffffffffffffffffffffffffffff1673ffffffffffffffffffffffffffffffffffffffff1663693ec85e6040805190810160405280600e81526020017f73657373696f6e2d6f7261636c650000000000000000000000000000000000008152506040518263ffffffff167c01000000000000000000000000000000000000000000000000000000000281526004018080602001828103825283818151815260200191508051906020019080838360005b83811015610ba8578082015181840152602081019050610b8d565b50505050905090810190601f168015610bd55780820380516001836020036101000a031916815260200191505b5092505050602060405180830381600087803b158015610bf457600080fd5b505af1158015610c08573d6000803e3d6000fd5b505050506040513d6020811015610c1e57600080fd5b810190808051906020019092919050505073ffffffffffffffffffffffffffffffffffffffff1663a3bfdf47836040518263ffffffff167c010000000000000000000000000000000000000000000000000000000002815260040180828152602001915050600060405180830381600087803b158015610c9d57600080fd5b505af1158015610cb1573d6000803e3d6000fd5b505050505050565b600080610d0783600360009054906101000a900473ffffffffffffffffffffffffffffffffffffffff1673ffffffffffffffffffffffffffffffffffffffff16611d3990919063ffffffff16565b905060006004811115610d1657fe5b816004811115610d2257fe5b141515610dbd576040517f08c379a00000000000000000000000000000000000000000000000000000000081526004018080602001828103825260328152602001807f53657373696f6e2061637469766174696f6e206661696c65642e20526571756981526020017f726564204352454154494e47207374617465000000000000000000000000000081525060400191505060405180910390fd5b610e0b836001600360009054906101000a900473ffffffffffffffffffffffffffffffffffffffff1673ffffffffffffffffffffffffffffffffffffffff16611f0b9092919063ffffffff16565b6001915050919050565b6000610e258383600001516120bd565b151515610e9a576040517f08c379a00000000000000000000000000000000000000000000000000000000081526004018080602001828103825260198152602001807f53657373696f6e20697320616c7265616479206578697374730000000000000081525060200191505060405180910390fd5b610ec782604001518473ffffffffffffffffffffffffffffffffffffffff1661228490919063ffffffff16565b1515610f3b576040517f08c379a00000000000000000000000000000000000000000000000000000000081526004018080602001828103825260138152602001807f4b696f736b206973206e6f74206578697374730000000000000000000000000081525060200191505060405180910390fd5b610f6882602001518473ffffffffffffffffffffffffffffffffffffffff1661249890919063ffffffff16565b1515610fdc576040517f08c379a00000000000000000000000000000000000000000000000000000000081526004018080602001828103825260198152602001807f4170706c69636174696f6e206973206e6f74206578697374730000000000000081525060200191505060405180910390fd5b8273ffffffffffffffffffffffffffffffffffffffff1663ffb4f6236040805190810160405280600a81526020017f73657373696f6e5f69640000000000000000000000000000000000000000000081525084600001516040516020018083805190602001908083835b60208310151561106b5780518252602082019150602081019050602083039250611046565b6001836020036101000a038019825116818451168082178552505050505050905001828152602001925050506040516020818303038152906040526040518082805190602001908083835b6020831015156110db57805182526020820191506020810190506020830392506110b6565b6001836020036101000a038019825116818451168082178552505050505050905001915050604051809103902084600001516040518363ffffffff167c010000000000000000000000000000000000000000000000000000000002815260040180836000191660001916815260200182815260200192505050600060405180830381600087803b15801561116e57600080fd5b505af1158015611182573d6000803e3d6000fd5b505050508273ffffffffffffffffffffffffffffffffffffffff1663ffb4f6236040805190810160405280601681526020017f73657373696f6e5f6170706c69636174696f6e5f69640000000000000000000081525084600001516040516020018083805190602001908083835b60208310151561121557805182526020820191506020810190506020830392506111f0565b6001836020036101000a038019825116818451168082178552505050505050905001828152602001925050506040516020818303038152906040526040518082805190602001908083835b6020831015156112855780518252602082019150602081019050602083039250611260565b6001836020036101000a038019825116818451168082178552505050505050905001915050604051809103902084602001516040518363ffffffff167c010000000000000000000000000000000000000000000000000000000002815260040180836000191660001916815260200182815260200192505050600060405180830381600087803b15801561131857600080fd5b505af115801561132c573d6000803e3d6000fd5b505050508273ffffffffffffffffffffffffffffffffffffffff1663f58660666040805190810160405280601081526020017f73657373696f6e5f6b696f736b5f69640000000000000000000000000000000081525084600001516040516020018083805190602001908083835b6020831015156113bf578051825260208201915060208101905060208303925061139a565b6001836020036101000a038019825116818451168082178552505050505050905001828152602001925050506040516020818303038152906040526040518082805190602001908083835b60208310151561142f578051825260208201915060208101905060208303925061140a565b6001836020036101000a038019825116818451168082178552505050505050905001915050604051809103902084604001516040518363ffffffff167c010000000000000000000000000000000000000000000000000000000002815260040180836000191660001916815260200180602001828103825283818151815260200191508051906020019080838360005b838110156114da5780820151818401526020810190506114bf565b50505050905090810190601f1680156115075780820380516001836020036101000a031916815260200191505b509350505050600060405180830381600087803b15801561152757600080fd5b505af115801561153b573d6000803e3d6000fd5b505050508273ffffffffffffffffffffffffffffffffffffffff1663f58660666040805190810160405280600f81526020017f73657373696f6e5f785f746f6b656e000000000000000000000000000000000081525084600001516040516020018083805190602001908083835b6020831015156115ce57805182526020820191506020810190506020830392506115a9565b6001836020036101000a038019825116818451168082178552505050505050905001828152602001925050506040516020818303038152906040526040518082805190602001908083835b60208310151561163e5780518252602082019150602081019050602083039250611619565b6001836020036101000a038019825116818451168082178552505050505050905001915050604051809103902084606001516040518363ffffffff167c010000000000000000000000000000000000000000000000000000000002815260040180836000191660001916815260200180602001828103825283818151815260200191508051906020019080838360005b838110156116e95780820151818401526020810190506116ce565b50505050905090810190601f1680156117165780820380516001836020036101000a031916815260200191505b509350505050600060405180830381600087803b15801561173657600080fd5b505af115801561174a573d6000803e3d6000fd5b505050508273ffffffffffffffffffffffffffffffffffffffff1663ffb4f6236040805190810160405280600e81526020017f73657373696f6e5f73746174757300000000000000000000000000000000000081525084600001516040516020018083805190602001908083835b6020831015156117dd57805182526020820191506020810190506020830392506117b8565b6001836020036101000a038019825116818451168082178552505050505050905001828152602001925050506040516020818303038152906040526040518082805190602001908083835b60208310151561184d5780518252602082019150602081019050602083039250611828565b6001836020036101000a03801982511681845116808217855250505050505090500191505060405180910390208460800151600481111561188a57fe5b6040518363ffffffff167c010000000000000000000000000000000000000000000000000000000002815260040180836000191660001916815260200182815260200192505050600060405180830381600087803b1580156118eb57600080fd5b505af11580156118ff573d6000803e3d6000fd5b505050508273ffffffffffffffffffffffffffffffffffffffff16633eba9ed26040805190810160405280600e81526020017f73657373696f6e2e65786973747300000000000000000000000000000000000081525084600001516040516020018083805190602001908083835b602083101515611992578051825260208201915060208101905060208303925061196d565b6001836020036101000a038019825116818451168082178552505050505050905001828152602001925050506040516020818303038152906040526040518082805190602001908083835b602083101515611a0257805182526020820191506020810190506020830392506119dd565b6001836020036101000a038019825116818451168082178552505050505050905001915050604051809103902060016040518363ffffffff167c01000000000000000000000000000000000000000000000000000000000281526004018083600019166000191681526020018215151515815260200192505050600060405180830381600087803b158015611a9657600080fd5b505af1158015611aaa573d6000803e3d6000fd5b505050506001905092915050565b6000611ac483836120bd565b1515611b38576040517f08c379a00000000000000000000000000000000000000000000000000000000081526004018080602001828103825260158152602001807f53657373696f6e206973206e6f7420657869737473000000000000000000000081525060200191505060405180910390fd5b611b6a611b45848461265f565b8473ffffffffffffffffffffffffffffffffffffffff1661282690919063ffffffff16565b905092915050565b60008273ffffffffffffffffffffffffffffffffffffffff166317e7dd226040805190810160405280601a81526020017f73657373696f6e5f6861735f6163746976655f636173685f696e000000000000815250846040516020018083805190602001908083835b602083101515611bff5780518252602082019150602081019050602083039250611bda565b6001836020036101000a038019825116818451168082178552505050505050905001828152602001925050506040516020818303038152906040526040518082805190602001908083835b602083101515611c6f5780518252602082019150602081019050602083039250611c4a565b6001836020036101000a03801982511681845116808217855250505050505090500191505060405180910390206040518263ffffffff167c0100000000000000000000000000000000000000000000000000000000028152600401808260001916600019168152602001915050602060405180830381600087803b158015611cf657600080fd5b505af1158015611d0a573d6000803e3d6000fd5b505050506040513d6020811015611d2057600080fd5b8101908080519060200190929190505050905092915050565b60008273ffffffffffffffffffffffffffffffffffffffff1663e82617fb6040805190810160405280600e81526020017f73657373696f6e5f737461747573000000000000000000000000000000000000815250846040516020018083805190602001908083835b602083101515611dc65780518252602082019150602081019050602083039250611da1565b6001836020036101000a038019825116818451168082178552505050505050905001828152602001925050506040516020818303038152906040526040518082805190602001908083835b602083101515611e365780518252602082019150602081019050602083039250611e11565b6001836020036101000a03801982511681845116808217855250505050505090500191505060405180910390206040518263ffffffff167c0100000000000000000000000000000000000000000000000000000000028152600401808260001916600019168152602001915050602060405180830381600087803b158015611ebd57600080fd5b505af1158015611ed1573d6000803e3d6000fd5b505050506040513d6020811015611ee757600080fd5b81019080805190602001909291905050506004811115611f0357fe5b905092915050565b8273ffffffffffffffffffffffffffffffffffffffff1663ffb4f6236040805190810160405280600e81526020017f73657373696f6e5f737461747573000000000000000000000000000000000000815250846040516020018083805190602001908083835b602083101515611f965780518252602082019150602081019050602083039250611f71565b6001836020036101000a038019825116818451168082178552505050505050905001828152602001925050506040516020818303038152906040526040518082805190602001908083835b6020831015156120065780518252602082019150602081019050602083039250611fe1565b6001836020036101000a038019825116818451168082178552505050505050905001915050604051809103902083600481111561203f57fe5b6040518363ffffffff167c010000000000000000000000000000000000000000000000000000000002815260040180836000191660001916815260200182815260200192505050600060405180830381600087803b1580156120a057600080fd5b505af11580156120b4573d6000803e3d6000fd5b50505050505050565b60008273ffffffffffffffffffffffffffffffffffffffff166317e7dd226040805190810160405280600e81526020017f73657373696f6e2e657869737473000000000000000000000000000000000000815250846040516020018083805190602001908083835b60208310151561214a5780518252602082019150602081019050602083039250612125565b6001836020036101000a038019825116818451168082178552505050505050905001828152602001925050506040516020818303038152906040526040518082805190602001908083835b6020831015156121ba5780518252602082019150602081019050602083039250612195565b6001836020036101000a03801982511681845116808217855250505050505090500191505060405180910390206040518263ffffffff167c0100000000000000000000000000000000000000000000000000000000028152600401808260001916600019168152602001915050602060405180830381600087803b15801561224157600080fd5b505af1158015612255573d6000803e3d6000fd5b505050506040513d602081101561226b57600080fd5b8101908080519060200190929190505050905092915050565b60008273ffffffffffffffffffffffffffffffffffffffff166317e7dd226040805190810160405280600c81526020017f6b696f736b2e6578697374730000000000000000000000000000000000000000815250846040516020018083805190602001908083835b60208310151561231157805182526020820191506020810190506020830392506122ec565b6001836020036101000a03801982511681845116808217855250505050505090500182805190602001908083835b602083101515612364578051825260208201915060208101905060208303925061233f565b6001836020036101000a038019825116818451168082178552505050505050905001925050506040516020818303038152906040526040518082805190602001908083835b6020831015156123ce57805182526020820191506020810190506020830392506123a9565b6001836020036101000a03801982511681845116808217855250505050505090500191505060405180910390206040518263ffffffff167c0100000000000000000000000000000000000000000000000000000000028152600401808260001916600019168152602001915050602060405180830381600087803b15801561245557600080fd5b505af1158015612469573d6000803e3d6000fd5b505050506040513d602081101561247f57600080fd5b8101908080519060200190929190505050905092915050565b60008273ffffffffffffffffffffffffffffffffffffffff166317e7dd226040805190810160405280601281526020017f6170706c69636174696f6e2e6578697374730000000000000000000000000000815250846040516020018083805190602001908083835b6020831015156125255780518252602082019150602081019050602083039250612500565b6001836020036101000a038019825116818451168082178552505050505050905001828152602001925050506040516020818303038152906040526040518082805190602001908083835b6020831015156125955780518252602082019150602081019050602083039250612570565b6001836020036101000a03801982511681845116808217855250505050505090500191505060405180910390206040518263ffffffff167c0100000000000000000000000000000000000000000000000000000000028152600401808260001916600019168152602001915050602060405180830381600087803b15801561261c57600080fd5b505af1158015612630573d6000803e3d6000fd5b505050506040513d602081101561264657600080fd5b8101908080519060200190929190505050905092915050565b60008273ffffffffffffffffffffffffffffffffffffffff1663e82617fb6040805190810160405280601681526020017f73657373696f6e5f6170706c69636174696f6e5f696400000000000000000000815250846040516020018083805190602001908083835b6020831015156126ec57805182526020820191506020810190506020830392506126c7565b6001836020036101000a038019825116818451168082178552505050505050905001828152602001925050506040516020818303038152906040526040518082805190602001908083835b60208310151561275c5780518252602082019150602081019050602083039250612737565b6001836020036101000a03801982511681845116808217855250505050505090500191505060405180910390206040518263ffffffff167c0100000000000000000000000000000000000000000000000000000000028152600401808260001916600019168152602001915050602060405180830381600087803b1580156127e357600080fd5b505af11580156127f7573d6000803e3d6000fd5b505050506040513d602081101561280d57600080fd5b8101908080519060200190929190505050905092915050565b60006128328383612498565b15156128a6576040517f08c379a00000000000000000000000000000000000000000000000000000000081526004018080602001828103825260198152602001807f4170706c69636174696f6e206973206e6f74206578697374730000000000000081525060200191505060405180910390fd5b8273ffffffffffffffffffffffffffffffffffffffff16634c77e5ba6129016040805190810160405280601381526020017f6170706c69636174696f6e5f61646472657373000000000000000000000000008152508561299e565b6040518263ffffffff167c0100000000000000000000000000000000000000000000000000000000028152600401808260001916600019168152602001915050602060405180830381600087803b15801561295b57600080fd5b505af115801561296f573d6000803e3d6000fd5b505050506040513d602081101561298557600080fd5b8101908080519060200190929190505050905092915050565b600082826040516020018083805190602001908083835b6020831015156129da57805182526020820191506020810190506020830392506129b5565b6001836020036101000a038019825116818451168082178552505050505050905001828152602001925050506040516020818303038152906040526040518082805190602001908083835b602083101515612a4a5780518252602082019150602081019050602083039250612a25565b6001836020036101000a0380198251168184511680821785525050505050509050019150506040518091039020905092915050565b60e0604051908101604052806000815260200160008152602001606081526020016060815260200160006004811115612ab457fe5b815260200160001515815260200160001515815250905600a165627a7a7230582017788c341138dc22a2c283be56838ff13ccca8b8718dfaacd337f780e3479f820029",
  "source": "pragma solidity 0.4.24;\n\nimport \"../application/IApplication.sol\";\nimport {ASessionManager} from \"./Managers.sol\";\nimport {SessionLib} from \"../libs/Libraries.sol\";\nimport {ASessionOracle} from \"../oracles/Oracles.sol\";\nimport \"../Platform.sol\";\n\ncontract SessionManager is ASessionManager, Named(\"session-manager\"), Mortal, Component {\n\n    using SessionLib for address;\n\n    string constant ORACLE = \"session-oracle\";\n\n    constructor(address regAddr) Component(regAddr) public {}\n\n    function createSession(uint256 _sessionId, uint256 _appId, string _xToken, string _kioskId) public {\n        SessionLib.Session memory session = SessionLib.Session(_sessionId, _appId, _kioskId, _xToken, SessionLib.Status.CREATING, false, false);\n        database.createSession(session);\n        address deployedAddress = database.retrieveSessionApplicationDeployedAddress(_sessionId);\n        IApplication(deployedAddress).newSessionCreated(_sessionId);\n    }\n\n    function closeSession(uint256 _sessionId) public {\n        SessionLib.Status status = database.getStatus(_sessionId);\n        require(status == SessionLib.Status.ACTIVE, \"Session request close failed. Required ACTIVE state.\");\n        database.setStatus(_sessionId, SessionLib.Status.CLOSE_REQUESTED);\n        ASessionOracle(context.get(ORACLE)).closeSession(_sessionId);\n    }\n\n    function confirmClose(uint256 _sessionId) public {\n        SessionLib.Status status = database.getStatus(_sessionId);\n        require(status == SessionLib.Status.CLOSE_REQUESTED, \"Session confirm close failed. Required CLOSE_REQUESTED state.\");\n        database.setStatus(_sessionId, SessionLib.Status.CLOSED);\n        address deployedAddress = database.retrieveSessionApplicationDeployedAddress(_sessionId);\n        IApplication(deployedAddress).sessionClosed(_sessionId);\n    }\n\n    function isActive(uint256 _sessionId) public view returns (bool) {\n        return database.getStatus(_sessionId) == SessionLib.Status.ACTIVE;\n    }\n\n    function isHasActiveCashIn(uint256 _sessionId) public view returns (bool) {\n        return database.getIsHasActiveCashIn(_sessionId);\n    }\n\n    function activate(uint256 _sessionId) public returns (bool) {\n        SessionLib.Status status = database.getStatus(_sessionId);\n        require(status == SessionLib.Status.CREATING, \"Session activation failed. Required CREATING state\");\n        database.setStatus(_sessionId, SessionLib.Status.ACTIVE);\n        return true;\n    }\n\n}",
  "sourcePath": "/home/andrew/vault-logic-project/Development/test/vault-logic-api/truffle/contracts/managers/SessionManager.sol",
  "compiler": {
    "name": "solc",
    "version": "0.4.24+commit.e67f0147.Emscripten.clang"
  },
  "schemaVersion": "2.0.1",
  "updatedAt": "2018-10-16T10:59:59.168Z"
}