{
  "contractName": "TokenManager",
  "abi": [
    {
      "constant": true,
      "inputs": [],
      "name": "name",
      "outputs": [
        {
          "name": "",
          "type": "string"
        }
      ],
      "payable": false,
      "stateMutability": "view",
      "type": "function"
    },
    {
      "constant": false,
      "inputs": [],
      "name": "kill",
      "outputs": [],
      "payable": false,
      "stateMutability": "nonpayable",
      "type": "function"
    },
    {
      "constant": true,
      "inputs": [],
      "name": "owner",
      "outputs": [
        {
          "name": "",
          "type": "address"
        }
      ],
      "payable": false,
      "stateMutability": "view",
      "type": "function"
    },
    {
      "inputs": [
        {
          "name": "_config",
          "type": "address"
        }
      ],
      "payable": false,
      "stateMutability": "nonpayable",
      "type": "constructor"
    },
    {
      "anonymous": false,
      "inputs": [
        {
          "indexed": true,
          "name": "to",
          "type": "address"
        },
        {
          "indexed": false,
          "name": "value",
          "type": "uint256"
        }
      ],
      "name": "Transfer",
      "type": "event"
    },
    {
      "anonymous": false,
      "inputs": [
        {
          "indexed": true,
          "name": "from",
          "type": "address"
        },
        {
          "indexed": true,
          "name": "to",
          "type": "address"
        },
        {
          "indexed": false,
          "name": "value",
          "type": "uint256"
        }
      ],
      "name": "TransferFrom",
      "type": "event"
    },
    {
      "constant": true,
      "inputs": [
        {
          "name": "consumer",
          "type": "address"
        }
      ],
      "name": "balanceOf",
      "outputs": [
        {
          "name": "",
          "type": "uint256"
        }
      ],
      "payable": false,
      "stateMutability": "view",
      "type": "function"
    },
    {
      "constant": false,
      "inputs": [
        {
          "name": "recipient",
          "type": "address"
        },
        {
          "name": "value",
          "type": "uint256"
        }
      ],
      "name": "transfer",
      "outputs": [],
      "payable": false,
      "stateMutability": "nonpayable",
      "type": "function"
    },
    {
      "constant": false,
      "inputs": [
        {
          "name": "from",
          "type": "address"
        },
        {
          "name": "to",
          "type": "address"
        },
        {
          "name": "value",
          "type": "uint256"
        }
      ],
      "name": "transferFrom",
      "outputs": [],
      "payable": false,
      "stateMutability": "nonpayable",
      "type": "function"
    }
  ],
  "bytecode": "0x60806040523480156200001157600080fd5b50604051602080620012d78339810160408181529151828201909252600d8082527f746f6b656e2d6d616e61676572000000000000000000000000000000000000006020830190815260008054600160a060020a031916331790558392916200007d91600191620002b8565b505080600160a060020a031663713b563f6040518163ffffffff167c0100000000000000000000000000000000000000000000000000000000028152600401602060405180830381600087803b158015620000d757600080fd5b505af1158015620000ec573d6000803e3d6000fd5b505050506040513d60208110156200010357600080fd5b505160038054600160a060020a031916600160a060020a03928316179055604080517fd0496d6a00000000000000000000000000000000000000000000000000000000815290519183169163d0496d6a916004808201926020929091908290030181600087803b1580156200017757600080fd5b505af11580156200018c573d6000803e3d6000fd5b505050506040513d6020811015620001a357600080fd5b505160028054600160a060020a031916600160a060020a03928316178082556040517ff2c298be00000000000000000000000000000000000000000000000000000000815260206004820190815260018054610100818316150260001901169490940460248301819052929094169363f2c298be93929091829160449091019084908015620002765780601f106200024a5761010080835404028352916020019162000276565b820191906000526020600020905b8154815290600101906020018083116200025857829003601f168201915b505092505050600060405180830381600087803b1580156200029757600080fd5b505af1158015620002ac573d6000803e3d6000fd5b5050505050506200035d565b828054600181600116156101000203166002900490600052602060002090601f016020900481019282601f10620002fb57805160ff19168380011785556200032b565b828001600101855582156200032b579182015b828111156200032b5782518255916020019190600101906200030e565b50620003399291506200033d565b5090565b6200035a91905b8082111562000339576000815560010162000344565b90565b610f6a806200036d6000396000f30060806040526004361061005e5763ffffffff60e060020a60003504166306fdde03811461006357806323b872dd146100ed57806341c0e1b51461011957806370a082311461012e5780638da5cb5b14610161578063a9059cbb14610192575b600080fd5b34801561006f57600080fd5b506100786101b6565b6040805160208082528351818301528351919283929083019185019080838360005b838110156100b257818101518382015260200161009a565b50505050905090810190601f1680156100df5780820380516001836020036101000a031916815260200191505b509250505060405180910390f35b3480156100f957600080fd5b50610117600160a060020a0360043581169060243516604435610243565b005b34801561012557600080fd5b5061011761091e565b34801561013a57600080fd5b5061014f600160a060020a036004351661099b565b60408051918252519081900360200190f35b34801561016d57600080fd5b50610176610b16565b60408051600160a060020a039092168252519081900360200190f35b34801561019e57600080fd5b50610117600160a060020a0360043516602435610b25565b60018054604080516020600284861615610100026000190190941693909304601f8101849004840282018401909252818152929183018282801561023b5780601f106102105761010080835404028352916020019161023b565b820191906000526020600020905b81548152906001019060200180831161021e57829003601f168201915b505050505081565b600254604080518082018252600d8152600080516020610f1f8339815191526020808301918252925160e160020a63349f642f028152600481019384528251602482015282516000958695600160a060020a039091169463693ec85e9490939192839260440191908083838b5b838110156102c85781810151838201526020016102b0565b50505050905090810190601f1680156102f55780820380516001836020036101000a031916815260200191505b5092505050602060405180830381600087803b15801561031457600080fd5b505af1158015610328573d6000803e3d6000fd5b505050506040513d602081101561033e57600080fd5b50516040805160e260020a6330af0bbf028152600160a060020a0388811660048301529151919092169163c2bc2efc9160248083019260209291908290030181600087803b15801561038f57600080fd5b505af11580156103a3573d6000803e3d6000fd5b505050506040513d60208110156103b957600080fd5b5051600254604080518082018252600d8152600080516020610f1f8339815191526020828101918252925160e160020a63349f642f02815260048101938452825160248201528251959750600160a060020a039094169463693ec85e94929392839260449091019180838360005b8381101561043f578181015183820152602001610427565b50505050905090810190601f16801561046c5780820380516001836020036101000a031916815260200191505b5092505050602060405180830381600087803b15801561048b57600080fd5b505af115801561049f573d6000803e3d6000fd5b505050506040513d60208110156104b557600080fd5b50516040805160e260020a6330af0bbf028152600160a060020a0387811660048301529151919092169163c2bc2efc9160248083019260209291908290030181600087803b15801561050657600080fd5b505af115801561051a573d6000803e3d6000fd5b505050506040513d602081101561053057600080fd5b505190508282108015906105445750600083115b15156105d757604080517f08c379a000000000000000000000000000000000000000000000000000000000815260206004820152602660248201527f5472616e73616374696f6e20706172616d657465727320617265206e6f74206360448201527f6f72726563740000000000000000000000000000000000000000000000000000606482015290519081900360840190fd5b600254604080518082018252600d8152600080516020610f1f8339815191526020808301918252925160e160020a63349f642f02815260048101938452825160248201528251600160a060020a039095169463693ec85e949283926044019180838360005b8381101561065457818101518382015260200161063c565b50505050905090810190601f1680156106815780820380516001836020036101000a031916815260200191505b5092505050602060405180830381600087803b1580156106a057600080fd5b505af11580156106b4573d6000803e3d6000fd5b505050506040513d60208110156106ca57600080fd5b5051600160a060020a0316633825d828866106eb858763ffffffff610eee16565b6040518363ffffffff1660e060020a0281526004018083600160a060020a0316600160a060020a0316815260200182815260200192505050600060405180830381600087803b15801561073d57600080fd5b505af1158015610751573d6000803e3d6000fd5b5050600254604080518082018252600d8152600080516020610f1f8339815191526020808301918252925160e160020a63349f642f02815260048101938452825160248201528251600160a060020a03909516965063693ec85e955091938392604401919080838360005b838110156107d45781810151838201526020016107bc565b50505050905090810190601f1680156108015780820380516001836020036101000a031916815260200191505b5092505050602060405180830381600087803b15801561082057600080fd5b505af1158015610834573d6000803e3d6000fd5b505050506040513d602081101561084a57600080fd5b5051600160a060020a0316633825d8288561086b848763ffffffff610f0516565b6040518363ffffffff1660e060020a0281526004018083600160a060020a0316600160a060020a0316815260200182815260200192505050600060405180830381600087803b1580156108bd57600080fd5b505af11580156108d1573d6000803e3d6000fd5b5050604080518681529051600160a060020a038089169450891692507fc0d84ce5c7ff9ca21adb0f8436ff3f4951b4bb78c4e2fae2b6837958b3946ffd9181900360200190a35050505050565b600054600160a060020a0316321461099757604080517f08c379a000000000000000000000000000000000000000000000000000000000815260206004820152601260248201527f6f6e6c79206f776e657220616c6c6f7765640000000000000000000000000000604482015290519081900360640190fd5b6000ff5b600254604080518082018252600d8152600080516020610f1f8339815191526020808301918252925160e160020a63349f642f02815260048101938452825160248201528251600095600160a060020a03169463693ec85e949390928392604490910191908083838b5b83811015610a1d578181015183820152602001610a05565b50505050905090810190601f168015610a4a5780820380516001836020036101000a031916815260200191505b5092505050602060405180830381600087803b158015610a6957600080fd5b505af1158015610a7d573d6000803e3d6000fd5b505050506040513d6020811015610a9357600080fd5b50516040805160e260020a6330af0bbf028152600160a060020a0385811660048301529151919092169163c2bc2efc9160248083019260209291908290030181600087803b158015610ae457600080fd5b505af1158015610af8573d6000803e3d6000fd5b505050506040513d6020811015610b0e57600080fd5b505192915050565b600054600160a060020a031681565b60008111610bba57604080517f08c379a000000000000000000000000000000000000000000000000000000000815260206004820152603660248201527f5468652076616c756520666f7220746865207472616e73616374696f6e20636160448201527f6e6e6f7420626520657175616c7320746f207a65726f00000000000000000000606482015290519081900360840190fd5b600254604080518082018252600d8152600080516020610f1f8339815191526020808301918252925160e160020a63349f642f02815260048101938452825160248201528251600160a060020a039095169463693ec85e949283926044019180838360005b83811015610c37578181015183820152602001610c1f565b50505050905090810190601f168015610c645780820380516001836020036101000a031916815260200191505b5092505050602060405180830381600087803b158015610c8357600080fd5b505af1158015610c97573d6000803e3d6000fd5b505050506040513d6020811015610cad57600080fd5b5051600254604080518082018252600d8152600080516020610f1f8339815191526020828101918252925160e160020a63349f642f02815260048101938452825160248201528251600160a060020a0396871696633825d828968a96610e41968b96929093169463693ec85e949192839260449092019180838360005b83811015610d42578181015183820152602001610d2a565b50505050905090810190601f168015610d6f5780820380516001836020036101000a031916815260200191505b5092505050602060405180830381600087803b158015610d8e57600080fd5b505af1158015610da2573d6000803e3d6000fd5b505050506040513d6020811015610db857600080fd5b50516040805160e260020a6330af0bbf028152600160a060020a038a811660048301529151919092169163c2bc2efc9160248083019260209291908290030181600087803b158015610e0957600080fd5b505af1158015610e1d573d6000803e3d6000fd5b505050506040513d6020811015610e3357600080fd5b50519063ffffffff610f0516565b6040518363ffffffff1660e060020a0281526004018083600160a060020a0316600160a060020a0316815260200182815260200192505050600060405180830381600087803b158015610e9357600080fd5b505af1158015610ea7573d6000803e3d6000fd5b5050604080518481529051600160a060020a03861693507f69ca02dd4edd7bf0a4abb9ed3b7af3f14778db5d61921c7dc7cd545266326de292509081900360200190a25050565b60008083831115610efe57600080fd5b5050900390565b600082820183811015610f1757600080fd5b93925050505600746f6b656e2d73746f7261676500000000000000000000000000000000000000a165627a7a72305820e559396354680673560d7c0e6774a28225e90c3fe5a41263bbcc854ae9ba8f420029",
  "source": "pragma solidity 0.4.24;\n\nimport \"../platform/Named.sol\";\nimport \"../platform/Mortal.sol\";\nimport \"./api/ATokenManager.sol\";\nimport \"../platform/Component.sol\";\nimport \"../storages/api/ATokenStorage.sol\";\nimport {SafeMath} from \"../libs/Libraries.sol\";\n\ncontract TokenManager is ATokenManager, Named(\"token-manager\"), Mortal, Component {\n\n    string constant STORAGE = \"token-storage\";\n\n    using SafeMath for uint256;\n\n    constructor(address _config) Component(_config) public {}\n\n    function balanceOf(address consumer) public view returns (uint256) {\n        return ATokenStorage(context.get(STORAGE)).get(consumer);\n    }\n\n    function transfer(address recipient, uint256 value) public {\n        require(value > 0, \"The value for the transaction cannot be equals to zero\");\n        ATokenStorage(context.get(STORAGE)).set(recipient, ATokenStorage(context.get(STORAGE)).get(recipient).add(value));\n        emit Transfer(recipient, value);\n    }\n\n    function transferFrom(address from, address to, uint256 value) public {\n        uint256 balanceFrom = ATokenStorage(context.get(STORAGE)).get(from);\n        uint256 balanceTo = ATokenStorage(context.get(STORAGE)).get(to);\n        require(balanceFrom >= value && value > 0, \"Transaction parameters are not correct\");\n        ATokenStorage(context.get(STORAGE)).set(from, balanceFrom.sub(value));\n        ATokenStorage(context.get(STORAGE)).set(to, balanceTo.add(value));\n        emit TransferFrom(from, to, value);\n    }\n\n}",
  "sourcePath": "/home/andrew/vault-logic-project/Development/test/vault-logic-api/truffle/contracts/managers/TokenManager.sol",
  "compiler": {
    "name": "solc",
    "version": "0.4.24+commit.e67f0147.Emscripten.clang"
  },
  "schemaVersion": "2.0.1",
  "updatedAt": "2018-11-06T08:45:06.888Z"
}