{
  "contractName": "TokenStorage",
  "abi": [
    {
      "constant": true,
      "inputs": [],
      "name": "name",
      "outputs": [
        {
          "name": "",
          "type": "string"
        }
      ],
      "payable": false,
      "stateMutability": "view",
      "type": "function"
    },
    {
      "constant": false,
      "inputs": [],
      "name": "kill",
      "outputs": [],
      "payable": false,
      "stateMutability": "nonpayable",
      "type": "function"
    },
    {
      "constant": true,
      "inputs": [],
      "name": "owner",
      "outputs": [
        {
          "name": "",
          "type": "address"
        }
      ],
      "payable": false,
      "stateMutability": "view",
      "type": "function"
    },
    {
      "inputs": [
        {
          "name": "_config",
          "type": "address"
        }
      ],
      "payable": false,
      "stateMutability": "nonpayable",
      "type": "constructor"
    },
    {
      "constant": false,
      "inputs": [
        {
          "name": "customer",
          "type": "address"
        },
        {
          "name": "amount",
          "type": "uint256"
        }
      ],
      "name": "set",
      "outputs": [],
      "payable": false,
      "stateMutability": "nonpayable",
      "type": "function"
    },
    {
      "constant": true,
      "inputs": [
        {
          "name": "consumer",
          "type": "address"
        }
      ],
      "name": "get",
      "outputs": [
        {
          "name": "",
          "type": "uint256"
        }
      ],
      "payable": false,
      "stateMutability": "view",
      "type": "function"
    }
  ],
  "bytecode": "0x608060405234801561001057600080fd5b506040516020806109828339810160408181529151828201909252600d8082527f746f6b656e2d73746f72616765000000000000000000000000000000000000006020830190815260008054600160a060020a03191633179055839291610079916001916102a7565b505080600160a060020a031663713b563f6040518163ffffffff167c0100000000000000000000000000000000000000000000000000000000028152600401602060405180830381600087803b1580156100d257600080fd5b505af11580156100e6573d6000803e3d6000fd5b505050506040513d60208110156100fc57600080fd5b505160038054600160a060020a031916600160a060020a03928316179055604080517fd0496d6a00000000000000000000000000000000000000000000000000000000815290519183169163d0496d6a916004808201926020929091908290030181600087803b15801561016f57600080fd5b505af1158015610183573d6000803e3d6000fd5b505050506040513d602081101561019957600080fd5b505160028054600160a060020a031916600160a060020a03928316178082556040517ff2c298be00000000000000000000000000000000000000000000000000000000815260206004820190815260018054610100818316150260001901169490940460248301819052929094169363f2c298be939290918291604490910190849080156102685780601f1061023d57610100808354040283529160200191610268565b820191906000526020600020905b81548152906001019060200180831161024b57829003601f168201915b505092505050600060405180830381600087803b15801561028857600080fd5b505af115801561029c573d6000803e3d6000fd5b505050505050610342565b828054600181600116156101000203166002900490600052602060002090601f016020900481019282601f106102e857805160ff1916838001178555610315565b82800160010185558215610315579182015b828111156103155782518255916020019190600101906102fa565b50610321929150610325565b5090565b61033f91905b80821115610321576000815560010161032b565b90565b610631806103516000396000f3006080604052600436106100535763ffffffff60e060020a60003504166306fdde0381146100585780633825d828146100e257806341c0e1b5146101085780638da5cb5b1461011d578063c2bc2efc1461014e575b600080fd5b34801561006457600080fd5b5061006d610181565b6040805160208082528351818301528351919283929083019185019080838360005b838110156100a757818101518382015260200161008f565b50505050905090810190601f1680156100d45780820380516001836020036101000a031916815260200191505b509250505060405180910390f35b3480156100ee57600080fd5b50610106600160a060020a036004351660243561020e565b005b34801561011457600080fd5b5061010661022f565b34801561012957600080fd5b506101326102ac565b60408051600160a060020a039092168252519081900360200190f35b34801561015a57600080fd5b5061016f600160a060020a03600435166102bb565b60408051918252519081900360200190f35b60018054604080516020600284861615610100026000190190941693909304601f810184900484028201840190925281815292918301828280156102065780601f106101db57610100808354040283529160200191610206565b820191906000526020600020905b8154815290600101906020018083116101e957829003601f168201915b505050505081565b60035461022b90600160a060020a0316838363ffffffff6102e016565b5050565b600054600160a060020a031632146102a857604080517f08c379a000000000000000000000000000000000000000000000000000000000815260206004820152601260248201527f6f6e6c79206f776e657220616c6c6f7765640000000000000000000000000000604482015290519081900360640190fd5b6000ff5b600054600160a060020a031681565b6003546000906102da90600160a060020a03168363ffffffff61046c16565b92915050565b82600160a060020a031663ffb4f6236040805190810160405280600c81526020017f746f6b656e5f616d6f756e740000000000000000000000000000000000000000815250846040516020018083805190602001908083835b602083106103585780518252601f199092019160209182019101610339565b6001836020036101000a03801982511681845116808217855250505050505090500182600160a060020a0316600160a060020a03166c01000000000000000000000000028152601401925050506040516020818303038152906040526040518082805190602001908083835b602083106103e35780518252601f1990920191602091820191016103c4565b5181516020939093036101000a60001901801990911692169190911790526040805191909301819003812063ffffffff871660e060020a028252600482015260248101889052915160448084019550600094509092839003019050818387803b15801561044f57600080fd5b505af1158015610463573d6000803e3d6000fd5b50505050505050565b600082600160a060020a031663e82617fb6040805190810160405280600c81526020017f746f6b656e5f616d6f756e740000000000000000000000000000000000000000815250846040516020018083805190602001908083835b602083106104e65780518252601f1990920191602091820191016104c7565b6001836020036101000a03801982511681845116808217855250505050505090500182600160a060020a0316600160a060020a03166c01000000000000000000000000028152601401925050506040516020818303038152906040526040518082805190602001908083835b602083106105715780518252601f199092019160209182019101610552565b51815160209384036101000a60001901801990921691161790526040805192909401829003822063ffffffff881660e060020a0283526004830152925160248083019650939450929083900301905081600087803b1580156105d257600080fd5b505af11580156105e6573d6000803e3d6000fd5b505050506040513d60208110156105fc57600080fd5b505193925050505600a165627a7a723058200637ecf841dede3d81aec7d3778b48086b237291743f0be886391212069f08060029",
  "source": "pragma solidity 0.4.24;\n\nimport \"../platform/Named.sol\";\nimport \"../platform/Mortal.sol\";\nimport \"./api/ATokenStorage.sol\";\nimport \"../platform/Component.sol\";\nimport {TokenLib} from \"../libs/Libraries.sol\";\n\ncontract TokenStorage is ATokenStorage, Named(\"token-storage\"), Mortal, Component {\n\n    using TokenLib for address;\n\n    constructor(address _config) Component(_config) public {}\n\n    function set(address customer, uint256 amount) public {\n        database.set(customer, amount);\n    }\n\n    function get(address consumer) public view returns (uint256) {\n        return database.get(consumer);\n    }\n\n}",
  "sourcePath": "/home/andrew/vault-logic-project/Development/test/vault-logic-api/truffle/contracts/storages/TokenStorage.sol",
  "compiler": {
    "name": "solc",
    "version": "0.4.24+commit.e67f0147.Emscripten.clang"
  },
  "schemaVersion": "2.0.1",
  "updatedAt": "2018-11-07T14:43:55.654Z"
}